{"contracts/PredictionMarket_USDC_DualPool.sol":{"PredictionMarket_USDC_DualPool":{"abi":[{"inputs":[{"internalType":"address","name":"_usdc","type":"address"}],"stateMutability":"nonpayable","type":"constructor"},{"anonymous":false,"inputs":[{"indexed":true,"internalType":"uint256","name":"predictionId","type":"uint256"},{"indexed":true,"internalType":"address","name":"user","type":"address"},{"indexed":false,"internalType":"bool","name":"isYes","type":"bool"},{"indexed":false,"internalType":"uint256","name":"amount","type":"uint256"},{"indexed":false,"internalType":"uint256","name":"priceAtEntry","type":"uint256"},{"indexed":false,"internalType":"uint256","name":"newYesPool","type":"uint256"},{"indexed":false,"internalType":"uint256","name":"newNoPool","type":"uint256"}],"name":"BetPlaced","type":"event"},{"anonymous":false,"inputs":[{"indexed":true,"internalType":"uint256","name":"predictionId","type":"uint256"},{"indexed":true,"internalType":"address","name":"user","type":"address"},{"indexed":false,"internalType":"bool","name":"isYes","type":"bool"},{"indexed":false,"internalType":"uint256","name":"amount","type":"uint256"},{"indexed":false,"internalType":"uint256","name":"received","type":"uint256"},{"indexed":false,"internalType":"uint256","name":"fee","type":"uint256"}],"name":"EarlyExit","type":"event"},{"anonymous":false,"inputs":[{"indexed":false,"internalType":"string","name":"feeType","type":"string"},{"indexed":false,"internalType":"uint256","name":"newValue","type":"uint256"}],"name":"FeeUpdated","type":"event"},{"anonymous":false,"inputs":[{"indexed":false,"internalType":"uint256","name":"platformFee","type":"uint256"},{"indexed":false,"internalType":"uint256","name":"creatorFee","type":"uint256"},{"indexed":false,"internalType":"uint256","name":"earlyExitFee","type":"uint256"}],"name":"FeesUpdated","type":"event"},{"anonymous":false,"inputs":[{"indexed":false,"internalType":"uint256","name":"newMinBet","type":"uint256"}],"name":"MinBetUpdated","type":"event"},{"anonymous":false,"inputs":[{"indexed":false,"internalType":"uint256","name":"amount","type":"uint256"}],"name":"OrphanedUSDCRescued","type":"event"},{"anonymous":false,"inputs":[{"indexed":true,"internalType":"address","name":"currentOwner","type":"address"},{"indexed":true,"internalType":"address","name":"pendingOwner","type":"address"}],"name":"OwnershipTransferStarted","type":"event"},{"anonymous":false,"inputs":[{"indexed":true,"internalType":"address","name":"previousOwner","type":"address"},{"indexed":true,"internalType":"address","name":"newOwner","type":"address"}],"name":"OwnershipTransferred","type":"event"},{"anonymous":false,"inputs":[{"indexed":true,"internalType":"address","name":"to","type":"address"},{"indexed":false,"internalType":"uint256","name":"amount","type":"uint256"}],"name":"PlatformFeesWithdrawn","type":"event"},{"anonymous":false,"inputs":[{"indexed":true,"internalType":"uint256","name":"predictionId","type":"uint256"},{"indexed":false,"internalType":"string","name":"reason","type":"string"}],"name":"PredictionCancelled","type":"event"},{"anonymous":false,"inputs":[{"indexed":true,"internalType":"uint256","name":"predictionId","type":"uint256"},{"indexed":true,"internalType":"address","name":"creator","type":"address"},{"indexed":false,"internalType":"uint256","name":"deadline","type":"uint256"}],"name":"PredictionRegistered","type":"event"},{"anonymous":false,"inputs":[{"indexed":true,"internalType":"uint256","name":"predictionId","type":"uint256"},{"indexed":false,"internalType":"bool","name":"outcome","type":"bool"},{"indexed":false,"internalType":"uint256","name":"platformFee","type":"uint256"},{"indexed":false,"internalType":"uint256","name":"creatorReward","type":"uint256"},{"indexed":false,"internalType":"uint256","name":"winnersPool","type":"uint256"},{"indexed":false,"internalType":"uint256","name":"losersPool","type":"uint256"}],"name":"PredictionResolved","type":"event"},{"anonymous":false,"inputs":[{"indexed":true,"internalType":"uint256","name":"predictionId","type":"uint256"},{"indexed":true,"internalType":"address","name":"user","type":"address"},{"indexed":false,"internalType":"uint256","name":"amount","type":"uint256"}],"name":"RefundClaimed","type":"event"},{"anonymous":false,"inputs":[{"indexed":true,"internalType":"address","name":"resolver","type":"address"},{"indexed":false,"internalType":"bool","name":"authorized","type":"bool"}],"name":"ResolverUpdated","type":"event"},{"anonymous":false,"inputs":[{"indexed":true,"internalType":"uint256","name":"predictionId","type":"uint256"},{"indexed":true,"internalType":"address","name":"user","type":"address"},{"indexed":false,"internalType":"uint256","name":"amount","type":"uint256"},{"indexed":false,"internalType":"uint256","name":"profit","type":"uint256"}],"name":"WinningsClaimed","type":"event"},{"inputs":[],"name":"BASIS_POINTS","outputs":[{"internalType":"uint256","name":"","type":"uint256"}],"stateMutability":"view","type":"function"},{"inputs":[],"name":"MAX_CREATOR_FEE","outputs":[{"internalType":"uint256","name":"","type":"uint256"}],"stateMutability":"view","type":"function"},{"inputs":[],"name":"MAX_EARLY_EXIT_FEE","outputs":[{"internalType":"uint256","name":"","type":"uint256"}],"stateMutability":"view","type":"function"},{"inputs":[],"name":"MAX_PLATFORM_FEE","outputs":[{"internalType":"uint256","name":"","type":"uint256"}],"stateMutability":"view","type":"function"},{"inputs":[],"name":"MIN_BET_FLOOR","outputs":[{"internalType":"uint256","name":"","type":"uint256"}],"stateMutability":"view","type":"function"},{"inputs":[],"name":"acceptOwnership","outputs":[],"stateMutability":"nonpayable","type":"function"},{"inputs":[{"internalType":"uint256","name":"predictionId","type":"uint256"},{"internalType":"bool","name":"isYes","type":"bool"},{"internalType":"uint256","name":"amount","type":"uint256"}],"name":"calculateExitValue","outputs":[{"internalType":"uint256","name":"grossValue","type":"uint256"},{"internalType":"uint256","name":"fee","type":"uint256"},{"internalType":"uint256","name":"netValue","type":"uint256"}],"stateMutability":"view","type":"function"},{"inputs":[{"internalType":"uint256","name":"predictionId","type":"uint256"},{"internalType":"bool","name":"isYes","type":"bool"},{"internalType":"uint256","name":"amount","type":"uint256"}],"name":"calculatePotentialWinnings","outputs":[{"internalType":"uint256","name":"potentialPayout","type":"uint256"},{"internalType":"uint256","name":"potentialProfit","type":"uint256"}],"stateMutability":"view","type":"function"},{"inputs":[{"internalType":"uint256","name":"predictionId","type":"uint256"},{"internalType":"string","name":"reason","type":"string"}],"name":"cancelPrediction","outputs":[],"stateMutability":"nonpayable","type":"function"},{"inputs":[{"internalType":"uint256","name":"predictionId","type":"uint256"}],"name":"claimRefund","outputs":[],"stateMutability":"nonpayable","type":"function"},{"inputs":[{"internalType":"uint256","name":"predictionId","type":"uint256"}],"name":"claimWinnings","outputs":[],"stateMutability":"nonpayable","type":"function"},{"inputs":[],"name":"creatorFee","outputs":[{"internalType":"uint256","name":"","type":"uint256"}],"stateMutability":"view","type":"function"},{"inputs":[],"name":"earlyExitFee","outputs":[{"internalType":"uint256","name":"","type":"uint256"}],"stateMutability":"view","type":"function"},{"inputs":[{"internalType":"address","name":"token","type":"address"},{"internalType":"uint256","name":"amount","type":"uint256"}],"name":"emergencyWithdraw","outputs":[],"stateMutability":"nonpayable","type":"function"},{"inputs":[{"internalType":"uint256","name":"predictionId","type":"uint256"},{"internalType":"bool","name":"isYes","type":"bool"},{"internalType":"uint256","name":"amount","type":"uint256"}],"name":"exitEarly","outputs":[],"stateMutability":"nonpayable","type":"function"},{"inputs":[],"name":"getContractStats","outputs":[{"internalType":"uint256","name":"pendingFees","type":"uint256"},{"internalType":"address","name":"usdcAddress","type":"address"}],"stateMutability":"view","type":"function"},{"inputs":[],"name":"getFeeConfig","outputs":[{"internalType":"uint256","name":"_platformFee","type":"uint256"},{"internalType":"uint256","name":"_creatorFee","type":"uint256"},{"internalType":"uint256","name":"_earlyExitFee","type":"uint256"},{"internalType":"uint256","name":"_minBet","type":"uint256"}],"stateMutability":"view","type":"function"},{"inputs":[{"internalType":"uint256","name":"predictionId","type":"uint256"}],"name":"getParticipantCount","outputs":[{"internalType":"uint256","name":"","type":"uint256"}],"stateMutability":"view","type":"function"},{"inputs":[{"internalType":"uint256","name":"predictionId","type":"uint256"}],"name":"getParticipants","outputs":[{"internalType":"address[]","name":"","type":"address[]"}],"stateMutability":"view","type":"function"},{"inputs":[{"internalType":"uint256","name":"predictionId","type":"uint256"},{"internalType":"address","name":"user","type":"address"}],"name":"getPosition","outputs":[{"internalType":"uint256","name":"yesAmount","type":"uint256"},{"internalType":"uint256","name":"noAmount","type":"uint256"},{"internalType":"uint256","name":"yesEntryPrice","type":"uint256"},{"internalType":"uint256","name":"noEntryPrice","type":"uint256"},{"internalType":"bool","name":"claimed","type":"bool"}],"stateMutability":"view","type":"function"},{"inputs":[{"internalType":"uint256","name":"predictionId","type":"uint256"}],"name":"getPrediction","outputs":[{"internalType":"bool","name":"registered","type":"bool"},{"internalType":"address","name":"creator","type":"address"},{"internalType":"uint256","name":"deadline","type":"uint256"},{"internalType":"uint256","name":"yesPool","type":"uint256"},{"internalType":"uint256","name":"noPool","type":"uint256"},{"internalType":"bool","name":"resolved","type":"bool"},{"internalType":"bool","name":"cancelled","type":"bool"},{"internalType":"bool","name":"outcome","type":"bool"},{"internalType":"uint256","name":"participantCount","type":"uint256"}],"stateMutability":"view","type":"function"},{"inputs":[{"internalType":"uint256","name":"predictionId","type":"uint256"}],"name":"getPrices","outputs":[{"internalType":"uint256","name":"yesPrice","type":"uint256"},{"internalType":"uint256","name":"noPrice","type":"uint256"}],"stateMutability":"view","type":"function"},{"inputs":[{"internalType":"uint256","name":"predictionId","type":"uint256"}],"name":"isPredictionActive","outputs":[{"internalType":"bool","name":"","type":"bool"}],"stateMutability":"view","type":"function"},{"inputs":[],"name":"minBet","outputs":[{"internalType":"uint256","name":"","type":"uint256"}],"stateMutability":"view","type":"function"},{"inputs":[],"name":"owner","outputs":[{"internalType":"address","name":"","type":"address"}],"stateMutability":"view","type":"function"},{"inputs":[{"internalType":"uint256","name":"","type":"uint256"},{"internalType":"uint256","name":"","type":"uint256"}],"name":"participants","outputs":[{"internalType":"address","name":"","type":"address"}],"stateMutability":"view","type":"function"},{"inputs":[],"name":"pendingOwner","outputs":[{"internalType":"address","name":"","type":"address"}],"stateMutability":"view","type":"function"},{"inputs":[{"internalType":"uint256","name":"predictionId","type":"uint256"},{"internalType":"bool","name":"isYes","type":"bool"},{"internalType":"uint256","name":"amount","type":"uint256"}],"name":"placeBet","outputs":[],"stateMutability":"nonpayable","type":"function"},{"inputs":[],"name":"platformFee","outputs":[{"internalType":"uint256","name":"","type":"uint256"}],"stateMutability":"view","type":"function"},{"inputs":[],"name":"platformFeeBalance","outputs":[{"internalType":"uint256","name":"","type":"uint256"}],"stateMutability":"view","type":"function"},{"inputs":[{"internalType":"uint256","name":"","type":"uint256"},{"internalType":"address","name":"","type":"address"}],"name":"positions","outputs":[{"internalType":"uint256","name":"yesAmount","type":"uint256"},{"internalType":"uint256","name":"noAmount","type":"uint256"},{"internalType":"uint256","name":"yesEntryPrice","type":"uint256"},{"internalType":"uint256","name":"noEntryPrice","type":"uint256"},{"internalType":"bool","name":"claimed","type":"bool"}],"stateMutability":"view","type":"function"},{"inputs":[{"internalType":"uint256","name":"","type":"uint256"}],"name":"predictions","outputs":[{"internalType":"bool","name":"registered","type":"bool"},{"internalType":"address","name":"creator","type":"address"},{"internalType":"uint256","name":"deadline","type":"uint256"},{"internalType":"uint256","name":"yesPool","type":"uint256"},{"internalType":"uint256","name":"noPool","type":"uint256"},{"internalType":"bool","name":"resolved","type":"bool"},{"internalType":"bool","name":"cancelled","type":"bool"},{"internalType":"bool","name":"outcome","type":"bool"},{"internalType":"uint256","name":"createdAt","type":"uint256"},{"internalType":"uint256","name":"resolvedAt","type":"uint256"},{"internalType":"uint256","name":"creatorReward","type":"uint256"}],"stateMutability":"view","type":"function"},{"inputs":[{"internalType":"uint256","name":"predictionId","type":"uint256"},{"internalType":"address","name":"creator","type":"address"},{"internalType":"uint256","name":"deadline","type":"uint256"}],"name":"registerPrediction","outputs":[],"stateMutability":"nonpayable","type":"function"},{"inputs":[{"internalType":"uint256[]","name":"predictionIds","type":"uint256[]"},{"internalType":"address[]","name":"creators","type":"address[]"},{"internalType":"uint256[]","name":"deadlines","type":"uint256[]"}],"name":"registerPredictionsBatch","outputs":[],"stateMutability":"nonpayable","type":"function"},{"inputs":[{"internalType":"uint256","name":"expectedPoolsTotal","type":"uint256"}],"name":"rescueOrphanedUSDC","outputs":[],"stateMutability":"nonpayable","type":"function"},{"inputs":[{"internalType":"uint256","name":"predictionId","type":"uint256"},{"internalType":"bool","name":"outcome","type":"bool"}],"name":"resolvePrediction","outputs":[],"stateMutability":"nonpayable","type":"function"},{"inputs":[{"internalType":"address","name":"","type":"address"}],"name":"resolvers","outputs":[{"internalType":"bool","name":"","type":"bool"}],"stateMutability":"view","type":"function"},{"inputs":[{"internalType":"uint256","name":"_platformFee","type":"uint256"},{"internalType":"uint256","name":"_creatorFee","type":"uint256"},{"internalType":"uint256","name":"_earlyExitFee","type":"uint256"}],"name":"setAllFees","outputs":[],"stateMutability":"nonpayable","type":"function"},{"inputs":[{"internalType":"uint256","name":"_creatorFee","type":"uint256"}],"name":"setCreatorFee","outputs":[],"stateMutability":"nonpayable","type":"function"},{"inputs":[{"internalType":"uint256","name":"_earlyExitFee","type":"uint256"}],"name":"setEarlyExitFee","outputs":[],"stateMutability":"nonpayable","type":"function"},{"inputs":[{"internalType":"uint256","name":"_minBet","type":"uint256"}],"name":"setMinBet","outputs":[],"stateMutability":"nonpayable","type":"function"},{"inputs":[{"internalType":"uint256","name":"_platformFee","type":"uint256"}],"name":"setPlatformFee","outputs":[],"stateMutability":"nonpayable","type":"function"},{"inputs":[{"internalType":"address","name":"resolver","type":"address"},{"internalType":"bool","name":"authorized","type":"bool"}],"name":"setResolver","outputs":[],"stateMutability":"nonpayable","type":"function"},{"inputs":[{"internalType":"address","name":"newOwner","type":"address"}],"name":"transferOwnership","outputs":[],"stateMutability":"nonpayable","type":"function"},{"inputs":[{"internalType":"uint256","name":"predictionId","type":"uint256"},{"internalType":"uint256","name":"newDeadline","type":"uint256"}],"name":"updateDeadline","outputs":[],"stateMutability":"nonpayable","type":"function"},{"inputs":[],"name":"usdc","outputs":[{"internalType":"contract IERC20","name":"","type":"address"}],"stateMutability":"view","type":"function"},{"inputs":[{"internalType":"address","name":"to","type":"address"}],"name":"withdrawPlatformFees","outputs":[],"stateMutability":"nonpayable","type":"function"}],"evm":{"bytecode":{"linkReferences":{},"object":"60a0346200013e57601f62002ff038819003918201601f19168301916001600160401b0383118484101762000143578084926020946040528339810103126200013e57516001600160a01b038116908190036200013e57606460025560326003556101f4600455620f42406005558015620000f9573360018060a01b031960005416176000556080523360005260076020526040600020600160ff19825416179055604051612e9690816200015a82396080518181816103e70152818161085101528181610a9701528181610f000152818161136501528181611590015281816117f901528181611a9c01528181611f2401526122850152f35b60405162461bcd60e51b815260206004820152601460248201527f496e76616c6964205553444320616464726573730000000000000000000000006044820152606490fd5b600080fd5b634e487b7160e01b600052604160045260246000fdfe608080604052600436101561001357600080fd5b60003560e01c9081624fbbb014612735575080630dd16fd5146126ae57806312e8e2c31461262557806313686b4a146125ee57806316cca59a146125775780631a38cac6146121f45780631bf1e0791461216a5780631da6ed7c146120d1578063217026cf14611ef557806326232a2e14611ed75780633883ef0214611e275780633998a68114611e0a5780633a814a9f14611acb5780633e413bee14611a8657806356f287f9146119265780635b7baf64146117425780635fbbc0d21461170b578063628658ff146116ed578063677bd9ff1461146957806376f34501146111b257806379ba50971461110f578063807babd214610db857806381fb1fb414610d6e57806386ae5fec14610d4257806388ea41b914610ca7578063899b184f14610bcb5780638da5cb5b14610ba25780638f9d0e6d14610b865780639149295614610b5c57806395ccea6714610a5e5780639619367d14610a405780639b5bd1b814610a23578063b93793e9146109e4578063c1e3bd3e1461092c578063cb01a4bf14610881578063d29f541d14610515578063dfe6b5d614610834578063e1f1c4a714610817578063e30c3978146107ee578063e3c98ba0146107d0578063e566fe5c14610599578063e684d71814610515578063e88958dc146104f7578063ec3889b514610360578063f2fde38b146102e7578063f31534c4146102c95763fe83bece1461022357600080fd5b346102c45760203660031901126102c4576004356000526008602052610120604060002080549060ff6001820154916002810154906004600382015491015491600a60205260406000205494604051968581161515885260018060a01b039060081c166020880152604087015260608601526080850152818116151560a0850152818160081c16151560c085015260101c16151560e0830152610100820152f35b600080fd5b346102c45760003660031901126102c4576020604051620186a08152f35b346102c45760203660031901126102c457610300612814565b6000546001600160a01b039081169161031a338414612c90565b1690610327821515612cc8565b600180546001600160a01b031916831790557f38d16b8cac22d99fc7c124b9cd0de2d3fa1faef420bfe791d8c362d765e22700600080a3005b346102c4576020806003193601126102c45761037a612814565b6000546001600160a01b039291906103959084163314612c90565b828116926103a4841515612cc8565b6006549182156104bc576000600681905560405163a9059cbb60e01b81526001600160a01b039290921660048301526024820184905290918491839160449183917f0000000000000000000000000000000000000000000000000000000000000000165af19081156104b057600091610483575b501561044a57907ffc7ad544ff6a06d6499925723d25b6fe70457a42939995b1d3d6f560fe33633391604051908152a2005b60405162461bcd60e51b815260048101839052601160248201527015da5d1a191c985dd85b0819985a5b1959607a1b6044820152606490fd5b6104a39150833d85116104a9575b61049b8183612959565b810190612aad565b84610418565b503d610491565b6040513d6000823e3d90fd5b60405162461bcd60e51b81526004810185905260136024820152724e6f206665657320746f20776974686472617760681b6044820152606490fd5b346102c45760003660031901126102c4576020600354604051908152f35b346102c45760403660031901126102c45761052e61282a565b6004803560009081526009602090815260408083206001600160a01b03959095168352938152908390208054600182015460028301546003840154939095015486519283529382015293840192909252606083019190915260ff161515608082015260a090f35b0390f35b346102c45760603660031901126102c4576004356105b561282a565b9060443560018060a01b038060005416331480156107b7575b6105d7906128b5565b826000526020936008855260ff6040600020541661077d576105fa4284116128f0565b169283156107475760405161060e8161293c565b60018152818101858152604082018481526060830160008152608084016000815260a08501906000825260c086016000815260e087019160008352610100880194428652610120890196600088526101408a019860008a528d60005260088c5260406000209a51151561068d908c9060ff801983541691151516179055565b518a54610100600160a81b0360089290921b91909116610100600160a81b0319909116178a555160018a0155516002890155516003880155915160048701805460ff191691151560ff169190911781559151825461ff00191690151560081b61ff001617825551815462ff0000191690151560101b62ff0000161790555160058401555160068301555190600701556040519182527f463e3f9d9fb0523912951d02646af63a1e84048004da8f35b2029254c5171ce191a3005b6064906040519062461bcd60e51b82526004820152600f60248201526e24b73b30b634b21031b932b0ba37b960891b6044820152fd5b60405162461bcd60e51b8152600481018690526012602482015271105b1c9958591e481c9959da5cdd195c995960721b6044820152606490fd5b503360009081526007602052604090205460ff166105ce565b346102c45760003660031901126102c4576020600654604051908152f35b346102c45760003660031901126102c4576001546040516001600160a01b039091168152602090f35b346102c45760003660031901126102c45760206040516127108152f35b346102c45760003660031901126102c457600654604080519182527f00000000000000000000000000000000000000000000000000000000000000006001600160a01b0316602083015290f35b346102c45760603660031901126102c4577fcf8a1e1d5f09cf3c97dbb653cd9a4d7aace9292fbc1bb8211febf2d400febbdd600435602435906109276044356108d560018060a01b03600054163314612c90565b6108e36101f4841115612d06565b6108f060c8851115612d4a565b6108fe6103e8821115612d8d565b826002558360035580600455604051938493846040919493926060820195825260208201520152565b0390a1005b346102c4576020806003193601126102c457600435600052600a8152604060002060405190818382549182815201908192600052846000209060005b868282106109c757868661097e82880383612959565b604051928392818401908285525180915260408401929160005b8281106109a757505050500390f35b83516001600160a01b031685528695509381019392810192600101610998565b83546001600160a01b031685529093019260019283019201610968565b346102c45760203660031901126102c4576001600160a01b03610a05612814565b166000526007602052602060ff604060002054166040519015158152f35b346102c45760003660031901126102c45760206040516103e88152f35b346102c45760003660031901126102c4576020600554604051908152f35b346102c45760403660031901126102c457610a77612814565b6000546001600160a01b03908116918190610a93338514612c90565b16907f0000000000000000000000000000000000000000000000000000000000000000168114610b175760405163a9059cbb60e01b81526001600160a01b039290921660048301526024803590830152602090829060449082906000905af180156104b057610afe57005b610b159060203d81116104a95761049b8183612959565b005b60405162461bcd60e51b815260206004820152601f60248201527f557365207265736375654f727068616e65645553444320666f722055534443006044820152606490fd5b346102c45760203660031901126102c4576040610b7a600435612dd9565b82519182526020820152f35b346102c45760003660031901126102c457602060405160c88152f35b346102c45760003660031901126102c4576000546040516001600160a01b039091168152602090f35b346102c457610bd936612871565b9060018060a01b036000541633148015610c8e575b610bf7906128b5565b806000526008602052610c1160ff6040600020541661299f565b60005260086020526040600020600481015460ff8116159081610c7f575b5015610c4757600190610c434284116128f0565b0155005b60405162461bcd60e51b815260206004820152601060248201526f141c99591a58dd1a5bdb88195b99195960821b6044820152606490fd5b60ff915060081c161583610c2f565b503360009081526007602052604090205460ff16610bee565b346102c45760203660031901126102c457600435610cd060018060a01b03600054163314612c90565b620186a08110610d0b576020817f9e306e17bd44998ced8df3c68d6b9a9aefecef5a75368d427d2b4bd711e1b75192600555604051908152a1005b60405162461bcd60e51b815260206004820152600f60248201526e4d696e2062657420746f6f206c6f7760881b6044820152606490fd5b346102c45760203660031901126102c457600435600052600a6020526020604060002054604051908152f35b346102c457610d7c36612871565b90600052600a602052604060002080548210156102c457602091610d9f91612887565b905460405160039290921b1c6001600160a01b03168152f35b346102c457610dc6366127f1565b82600093929352602060088152610e1360016040600020610dea60ff82541661299f565b610e0a60ff6004830154610e00828216156129eb565b60081c1615612a2d565b01544210612a70565b826000526009815260406000203360005281526040600020918360005260088252604060002091856000146111055783545b82151590816110fa575b50156110c55760028301600381549401948554610e6c8187612b08565b95861561109357891561108c57505b80610ff65750612710610e9060045486612b15565b0495610e9c8786612b48565b955b8611610fb8578815610f945750610eb6848254612b48565b9055610ec3838254612b48565b90555b610ed284600654612b08565b60065560405163a9059cbb60e01b815233600482015260248101849052818160448160006001600160a01b037f0000000000000000000000000000000000000000000000000000000000000000165af180156104b057610f3a91600091610f77575b50612ac5565b6040519515158652850152604084015260608301527fd9be0b26d7307e29247900de9245b439ec506d7c5f09bad71b6b6500d0f04a8b60803393a3005b610f8e9150833d85116104a95761049b8183612959565b88610f34565b9150600101610fa4848254612b48565b9055610fb1838254612b48565b9055610ec6565b60405162461bcd60e51b8152600481018590526016602482015275496e73756666696369656e74206c697175696469747960501b6044820152606490fd5b95612710968781029081048803611076578761101e6110188961103494612b28565b88612b15565b049761102c6004548a612b15565b048098612b48565b9586610e9e5760405162461bcd60e51b8152600481018690526014602482015273115e1a5d081d985b1d59481d1bdbc81cdb585b1b60621b6044820152606490fd5b634e487b7160e01b600052601160045260246000fd5b9050610e7b565b60405162461bcd60e51b815260048101869052600a602482015269115b5c1d1e481c1bdbdb60b21b6044820152606490fd5b6064906040519062461bcd60e51b82526004820152600e60248201526d125b9d985b1a5908185b5bdd5b9d60921b6044820152fd5b905082111587610e4f565b6001840154610e45565b346102c45760003660031901126102c4576001546001600160a01b03908181163381900361117957806000549384167f8be0079c531659141344cd1fd0a4f28419497f9722a3daafe3b4186f6b6457e0600080a36001600160a01b03199283161760005516600155005b60405162461bcd60e51b81526020600482015260116024820152702737ba103832b73234b7339037bbb732b960791b6044820152606490fd5b346102c45760403660031901126102c4576004356111ce6127e2565b6000546001600160a01b03929190831633148015611450575b6111f0906128b5565b816000526020906008825261120c60ff6040600020541661299f565b826000526008825260406000209161126782600485016001815461123360ff821615612c13565b61124360ff8260081c1615612a2d565b62ff00001990911662ff00ff199091161791151560101b62ff000016919091179055565b4260068401558115611445576003830154945b821561143a576002840154915b826114135761271061129b60035489612b15565b04916112a78389612b48565b955b6112b587600654612b08565b60065583600782015583151580611404575b611329575b50505094611324917f8f01610bb1a4fa1d0f37b9aba1fbfad042a7c22f12e16172d77948e60ed1ea0c9596604051958695869192608093969594919660a0840197151584526020840152604083015260608201520152565b0390a2005b5460405163a9059cbb60e01b815260089190911c82166001600160a01b03166004820152602481018490529082908290816000816044810103927f0000000000000000000000000000000000000000000000000000000000000000165af19081156104b0576000916113e7575b50156113a35780806112cc565b6064906040519062461bcd60e51b82526004820152601e60248201527f43726561746f7220726577617264207472616e73666572206661696c656400006044820152fd5b6113fe9150823d84116104a95761049b8183612959565b88611396565b5081815460081c1615156112c7565b6127109491856114256002548a612b15565b04956114336003548a612b15565b04926112a9565b600384015491611287565b60028301549461127a565b503360009081526007602052604090205460ff166111e7565b346102c4576020806003193601126102c457600435806000526008825261149760ff6040600020541661299f565b806000526008825260406000206009835260406000203360005283526040600020906004810180549260ff8416156116b957600481019060ff8254956114df82881615612c52565b60101c16156116af5754935b84156116745760ff191660011790555460101c60ff169061153f908215611669576002810154925b1561166057600301545b6127106115388261153360025460035490612b08565b612b15565b0490612b48565b8115611652576115629161155661155b9285612b15565b612b28565b8092612b08565b60405163a9059cbb60e01b815233600482015260248101829052909390818160448160006001600160a01b037f0000000000000000000000000000000000000000000000000000000000000000165af19081156104b057600091611635575b50156115f8576040519384528301527f6256309dc4c6375473b26b31fc0e88b0ca9ebca0e558d39fec5aa96863ad40cb60403393a3005b6064906040519062461bcd60e51b82526004820152601660248201527514185e5bdd5d081d1c985b9cd9995c8819985a5b195960521b6044820152fd5b61164c9150823d84116104a95761049b8183612959565b856115c1565b505061156260008092612b08565b6002015461151d565b600381015492611513565b60405162461bcd60e51b81526004810188905260136024820152722737903bb4b73734b733903837b9b4ba34b7b760691b6044820152606490fd5b60010154936114eb565b60405162461bcd60e51b815260048101879052600c60248201526b139bdd081c995cdbdb1d995960a21b6044820152606490fd5b346102c45760003660031901126102c4576020600454604051908152f35b346102c45760003660031901126102c457608060025460035460045460055491604051938452602084015260408301526060820152f35b346102c4576020806003193601126102c457600435806000526008825261177060ff6040600020541661299f565b806000526008825260406000209160098152604060002033600052815260ff6004604060002094015460081c16156118f257600483016117c68154946117b960ff871615612c52565b6001815491015490612b08565b9384156118bf5760ff1916600117905560405163a9059cbb60e01b815233600482015260248101849052818160448160007f00000000000000000000000000000000000000000000000000000000000000006001600160a01b03165af19081156104b0576000916118a2575b5015611865577ff3f402280ef0a7905e124aa621b65eaeb2725c343e8b36d398ed78c29daf285c906040519384523393a3005b6064906040519062461bcd60e51b8252600482015260166024820152751499599d5b99081d1c985b9cd9995c8819985a5b195960521b6044820152fd5b6118b99150823d84116104a95761049b8183612959565b84611832565b60405162461bcd60e51b815260048101849052600b60248201526a2737903837b9b4ba34b7b760a91b6044820152606490fd5b6064906040519062461bcd60e51b82526004820152600d60248201526c139bdd0818d85b98d95b1b1959609a1b6044820152fd5b346102c45760403660031901126102c45760043567ffffffffffffffff6024358181116102c457366023820112156102c45780600401359182116102c45736602483830101116102c4576000546001600160a01b031633148015611a6d575b61198e906128b5565b8260005260086020526119a860ff6040600020541661299f565b8260005260086020526004604060002001908154906119ca60ff831615612c13565b60ff8260081c16611a34577f16df958f95890327bd2b2e188d052875769d43607523bdbf47c3c18c5dc4df269360249361010060409461ff0019161790558083519485936020855282602086015201848401376000828201840152601f01601f19168101030190a2005b60405162461bcd60e51b8152602060048201526011602482015270105b1c9958591e4818d85b98d95b1b1959607a1b6044820152606490fd5b503360009081526007602052604090205460ff16611985565b346102c45760003660031901126102c4576040517f00000000000000000000000000000000000000000000000000000000000000006001600160a01b03168152602090f35b346102c45760603660031901126102c45767ffffffffffffffff6004358181116102c457611afd903690600401612840565b9060249283358181116102c457611b18903690600401612840565b90916044359081116102c457611b32903690600401612840565b94909360018060a01b036000541633148015611df1575b611b52906128b5565b82821480611de8575b15611dac5760005b828110611b6c57005b611b7781848461297b565b35600052600860205260ff604060002054161580611d98575b80611d79575b611bc1575b6000198114611bac57600101611b63565b87634e487b7160e01b60005260116004526000fd5b611bd4611bcf82868861297b565b61298b565b611bdf82898961297b565b3560405191611bed8361293c565b6001835260018060a01b0316602083015260408201526000606082015260006080820152600060a0820152600060c0820152600060e08201524261010082015260006101208201526000610140820152611c4882858561297b565b3560005260086020526007610140604060002092611c7581511515859060ff801983541691151516179055565b60208101518454610100600160a81b03600892831b16610100600160a81b031990911617855560408201516001860155606082015160028601556080820151600386015560a082015160048601805460c085015160e086015190151590941b61ff001692151560ff1662ffffff19909116179190911791151560101b62ff000016919091179055610100810151600585015561012081015160068501550151910155611d2281848461297b565b35611d31611bcf83878961297b565b907f463e3f9d9fb0523912951d02646af63a1e84048004da8f35b2029254c5171ce16020611d60858c8c61297b565b604051903581526001600160a01b0390941693a3611b9b565b506001600160a01b03611d90611bcf83878961297b565b161515611b96565b50611da481888861297b565b354210611b90565b60405162461bcd60e51b81526020600482015260158189015274082e4e4c2f240d8cadccee8d040dad2e6dac2e8c6d605b1b6044820152606490fd5b50858314611b5b565b503360009081526007602052604090205460ff16611b49565b346102c45760003660031901126102c45760206040516101f48152f35b346102c457611e35366127f1565b90916000526008602052611e6681604060002084600014611ecc576002810154945b15611ec2576003015493612b08565b60025461271090810381811161107657604094611e89611e8f9260035490612b48565b90612b15565b048115611eb457611ea79161155661155b9285612b15565b9082519182526020820152f35b5050611ea760008092612b08565b6002015493612b08565b600381015494611e57565b346102c45760003660031901126102c4576020600254604051908152f35b346102c4576020806003193601126102c4576000546001600160a01b039081169190611f22338414612c90565b7f000000000000000000000000000000000000000000000000000000000000000016916040516370a0823160e01b81523060048201528281602481875afa9081156104b0576000916120a4575b50611f7e600654600435612b08565b908181111561206c5791611f968492611fce94612b48565b60405163a9059cbb60e01b81526001600160a01b03909216600483015260248201819052949092839190829060009082906044820190565b03925af19081156104b05760009161204f575b5015612012577f697df3bc90db3ab78d94303450df070b90938249a461cc1fc18e0f8ba427705991604051908152a1005b6064906040519062461bcd60e51b82526004820152601660248201527514995cd8dd59481d1c985b9cd9995c8819985a5b195960521b6044820152fd5b6120669150823d84116104a95761049b8183612959565b83611fe1565b60405162461bcd60e51b815260048101859052601060248201526f4e6f206f727068616e6564205553444360801b6044820152606490fd5b90508281813d83116120ca575b6120bb8183612959565b810103126102c4575184611f6f565b503d6120b1565b346102c45760403660031901126102c4576120ea612814565b7fd8ea402e95478feee1bea3f652c970c98c456281ae29a9987918e9e8b6754bb460206121156127e2565b60005490936001600160a01b03916121309083163314612c90565b169261213d841515612cc8565b836000526007825261215f8160406000209060ff801983541691151516179055565b6040519015158152a2005b346102c45760203660031901126102c4577fc5dbbc1a39078c6d41f75645288952af1adce3154214371d76e773566564245360806004356121b660018060a01b03600054163314612c90565b6121c46103e8821115612d8d565b806004556040519060408252600c60408301526b6561726c794578697446656560a01b60608301526020820152a1005b346102c457612202366127f1565b826000939293526020906008825261222760016040600020610dea60ff82541661299f565b600554811061253e578260005260088252604060002090600983526040600020336000528352604060002091604051936323b872dd60e01b855233600486015230602486015282604486015260018060a01b0394818160648160008a7f0000000000000000000000000000000000000000000000000000000000000000165af180156104b0576122be916000916125215750612ac5565b6002820194600386549301928354906122d78282612b08565b90816124da57505050611388945b881561247e57805415612473576002810161232b81546123258861231f8b612319836123138a548098612b15565b92612b15565b90612b08565b92612b08565b90612b28565b90555b612339858254612b08565b9055612346848754612b08565b86555b86600052600b8252604060002033600052825260ff60406000205416156123c5575b5050925492546040805196151587526020870192909252908501919091526060840191909152608083015233917f9d96cbaf9f1bd1503d63de41a4073076ef2d1eb13173e69062336319a0d39369908060a081015b0390a3005b91909486600052600a86526040600020958654936801000000000000000085101561245d5761241e857f9d96cbaf9f1bd1503d63de41a4073076ef2d1eb13173e69062336319a0d393699960016123c098018155612887565b819291549060031b9133831b921b191617905587600052600b815260406000209033600052526040600020600160ff198254161790559481925061236b565b634e487b7160e01b600052604160045260246000fd5b85600282015561232e565b60018101805490918791156124d15760039150016124af81546123258861231f8b612319836123138a548098612b15565b90555b6124bd858254612b08565b90556124ca848454612b08565b8355612349565b600301556124b2565b8a15612504575061271091828102928184041490151715611076576124fe91612b28565b946122e5565b61271080820293508115918404141715611076576124fe91612b28565b6125389150833d85116104a95761049b8183612959565b89610f34565b60405162461bcd60e51b815260048101839052601160248201527010995b1bddc81b5a5b9a5b5d5b4818995d607a1b6044820152606490fd5b346102c45760203660031901126102c45760043560005260086020526020604060002060ff81541690816125de575b816125cb575b816125bd575b506040519015158152f35b6001915001544210826125b2565b600481015460081c60ff161591506125ac565b600481015460ff161591506125a6565b346102c457610595612608612602366127f1565b91612b55565b604080519384526020840192909252908201529081906060820190565b346102c45760203660031901126102c4577fc5dbbc1a39078c6d41f75645288952af1adce3154214371d76e7735665642453608060043561267160018060a01b03600054163314612c90565b61267f6101f4821115612d06565b806002556040519060408252600b60408301526a706c6174666f726d46656560a81b60608301526020820152a1005b346102c45760203660031901126102c4577fc5dbbc1a39078c6d41f75645288952af1adce3154214371d76e773566564245360806004356126fa60018060a01b03600054163314612c90565b61270760c8821115612d4a565b806003556040519060408252600a60408301526963726561746f7246656560b01b60608301526020820152a1005b346102c45760203660031901126102c4576101609060043560005260086020526040600020805490600181015460ff60028301546003840154600485015491600586015494600760068801549701549785811615158a5260018060a01b039060081c1660208a0152604089015260608801526080870152818116151560a0870152818160081c16151560c087015260101c16151560e0850152610100840152610120830152610140820152f35b6024359081151582036102c457565b60609060031901126102c4576004359060243580151581036102c4579060443590565b600435906001600160a01b03821682036102c457565b602435906001600160a01b03821682036102c457565b9181601f840112156102c45782359167ffffffffffffffff83116102c4576020808501948460051b0101116102c457565b60409060031901126102c4576004359060243590565b805482101561289f5760005260206000200190600090565b634e487b7160e01b600052603260045260246000fd5b156128bc57565b60405162461bcd60e51b815260206004820152600c60248201526b2737ba103932b9b7b63b32b960a11b6044820152606490fd5b156128f757565b60405162461bcd60e51b815260206004820152601760248201527f446561646c696e65206d757374206265206675747572650000000000000000006044820152606490fd5b610160810190811067ffffffffffffffff82111761245d57604052565b90601f8019910116810190811067ffffffffffffffff82111761245d57604052565b919081101561289f5760051b0190565b356001600160a01b03811681036102c45790565b156129a657565b60405162461bcd60e51b815260206004820152601960248201527f50726564696374696f6e206e6f742072656769737465726564000000000000006044820152606490fd5b156129f257565b60405162461bcd60e51b8152602060048201526013602482015272141c99591a58dd1a5bdb881c995cdbdb1d9959606a1b6044820152606490fd5b15612a3457565b60405162461bcd60e51b8152602060048201526014602482015273141c99591a58dd1a5bdb8818d85b98d95b1b195960621b6044820152606490fd5b15612a7757565b60405162461bcd60e51b815260206004820152600e60248201526d10995d1d1a5b99c818db1bdcd95960921b6044820152606490fd5b908160209103126102c4575180151581036102c45790565b15612acc57565b60405162461bcd60e51b81526020600482015260146024820152731554d110c81d1c985b9cd9995c8819985a5b195960621b6044820152606490fd5b9190820180921161107657565b8181029291811591840414171561107657565b8115612b32570490565b634e487b7160e01b600052601260045260246000fd5b9190820391821161107657565b92919060009384526008602052604084206003600282015491015490612b7b8282612b08565b928315612c075715612c0057505b80612bb25750508091925091612baf612710612ba760045485612b15565b048093612b48565b90565b612710948582029182048603612bec575091611e89612bd2928694612b28565b0491612be060045484612b15565b0490612baf8284612b48565b634e487b7160e01b81526011600452602490fd5b9050612b89565b50505050509080918190565b15612c1a57565b60405162461bcd60e51b815260206004820152601060248201526f105b1c9958591e481c995cdbdb1d995960821b6044820152606490fd5b15612c5957565b60405162461bcd60e51b815260206004820152600f60248201526e105b1c9958591e4818db185a5b5959608a1b6044820152606490fd5b15612c9757565b60405162461bcd60e51b81526020600482015260096024820152682737ba1037bbb732b960b91b6044820152606490fd5b15612ccf57565b60405162461bcd60e51b815260206004820152600f60248201526e496e76616c6964206164647265737360881b6044820152606490fd5b15612d0d57565b60405162461bcd60e51b81526020600482015260156024820152740a0d8c2e8ccdee4da40cccaca40e8dede40d0d2ced605b1b6044820152606490fd5b15612d5157565b60405162461bcd60e51b8152602060048201526014602482015273086e4cac2e8dee440cccaca40e8dede40d0d2ced60631b6044820152606490fd5b15612d9457565b60405162461bcd60e51b815260206004820152601760248201527f4561726c7920657869742066656520746f6f20686967680000000000000000006044820152606490fd5b9060009182526008602052604082209160036002840154930154612dfd8185612b08565b918215612e53576127109182810290808204841490151715612e3f5783612e2391612b28565b94828102928184041490151715612bec575090612baf91612b28565b634e487b7160e01b82526011600452602482fd5b505050905061138890819056fea26469706673582212204988b7884c2ecb9f9866b98bbaa7bfc227c4f6fa92bde3b50b65ceb5ba8c8f1864736f6c63430008140033","opcodes":"PUSH1 0xA0 CALLVALUE PUSH3 0x13E JUMPI PUSH1 0x1F PUSH3 0x2FF0 CODESIZE DUP2 SWAP1 SUB SWAP2 DUP3 ADD PUSH1 0x1F NOT AND DUP4 ADD SWAP2 PUSH1 0x1 PUSH1 0x1 PUSH1 0x40 SHL SUB DUP4 GT DUP5 DUP5 LT OR PUSH3 0x143 JUMPI DUP1 DUP5 SWAP3 PUSH1 0x20 SWAP5 PUSH1 0x40 MSTORE DUP4 CODECOPY DUP2 ADD SUB SLT PUSH3 0x13E JUMPI MLOAD PUSH1 0x1 PUSH1 0x1 PUSH1 0xA0 SHL SUB DUP2 AND SWAP1 DUP2 SWAP1 SUB PUSH3 0x13E JUMPI PUSH1 0x64 PUSH1 0x2 SSTORE PUSH1 0x32 PUSH1 0x3 SSTORE PUSH2 0x1F4 PUSH1 0x4 SSTORE PUSH3 0xF4240 PUSH1 0x5 SSTORE DUP1 ISZERO PUSH3 0xF9 JUMPI CALLER PUSH1 0x1 DUP1 PUSH1 0xA0 SHL SUB NOT PUSH1 0x0 SLOAD AND OR PUSH1 0x0 SSTORE PUSH1 0x80 MSTORE CALLER PUSH1 0x0 MSTORE PUSH1 0x7 PUSH1 0x20 MSTORE PUSH1 0x40 PUSH1 0x0 KECCAK256 PUSH1 0x1 PUSH1 0xFF NOT DUP3 SLOAD AND OR SWAP1 SSTORE PUSH1 0x40 MLOAD PUSH2 0x2E96 SWAP1 DUP2 PUSH3 0x15A DUP3 CODECOPY PUSH1 0x80 MLOAD DUP2 DUP2 DUP2 PUSH2 0x3E7 ADD MSTORE DUP2 DUP2 PUSH2 0x851 ADD MSTORE DUP2 DUP2 PUSH2 0xA97 ADD MSTORE DUP2 DUP2 PUSH2 0xF00 ADD MSTORE DUP2 DUP2 PUSH2 0x1365 ADD MSTORE DUP2 DUP2 PUSH2 0x1590 ADD MSTORE DUP2 DUP2 PUSH2 0x17F9 ADD MSTORE DUP2 DUP2 PUSH2 0x1A9C ADD MSTORE DUP2 DUP2 PUSH2 0x1F24 ADD MSTORE PUSH2 0x2285 ADD MSTORE RETURN JUMPDEST PUSH1 0x40 MLOAD PUSH3 0x461BCD PUSH1 0xE5 SHL DUP2 MSTORE PUSH1 0x20 PUSH1 0x4 DUP3 ADD MSTORE PUSH1 0x14 PUSH1 0x24 DUP3 ADD MSTORE PUSH32 0x496E76616C696420555344432061646472657373000000000000000000000000 PUSH1 0x44 DUP3 ADD MSTORE PUSH1 0x64 SWAP1 REVERT JUMPDEST PUSH1 0x0 DUP1 REVERT JUMPDEST PUSH4 0x4E487B71 PUSH1 0xE0 SHL PUSH1 0x0 MSTORE PUSH1 0x41 PUSH1 0x4 MSTORE PUSH1 0x24 PUSH1 0x0 REVERT INVALID PUSH1 0x80 DUP1 PUSH1 0x40 MSTORE PUSH1 0x4 CALLDATASIZE LT ISZERO PUSH2 0x13 JUMPI PUSH1 0x0 DUP1 REVERT JUMPDEST PUSH1 0x0 CALLDATALOAD PUSH1 0xE0 SHR SWAP1 DUP2 PUSH3 0x4FBBB0 EQ PUSH2 0x2735 JUMPI POP DUP1 PUSH4 0xDD16FD5 EQ PUSH2 0x26AE JUMPI DUP1 PUSH4 0x12E8E2C3 EQ PUSH2 0x2625 JUMPI DUP1 PUSH4 0x13686B4A EQ PUSH2 0x25EE JUMPI DUP1 PUSH4 0x16CCA59A EQ PUSH2 0x2577 JUMPI DUP1 PUSH4 0x1A38CAC6 EQ PUSH2 0x21F4 JUMPI DUP1 PUSH4 0x1BF1E079 EQ PUSH2 0x216A JUMPI DUP1 PUSH4 0x1DA6ED7C EQ PUSH2 0x20D1 JUMPI DUP1 PUSH4 0x217026CF EQ PUSH2 0x1EF5 JUMPI DUP1 PUSH4 0x26232A2E EQ PUSH2 0x1ED7 JUMPI DUP1 PUSH4 0x3883EF02 EQ PUSH2 0x1E27 JUMPI DUP1 PUSH4 0x3998A681 EQ PUSH2 0x1E0A JUMPI DUP1 PUSH4 0x3A814A9F EQ PUSH2 0x1ACB JUMPI DUP1 PUSH4 0x3E413BEE EQ PUSH2 0x1A86 JUMPI DUP1 PUSH4 0x56F287F9 EQ PUSH2 0x1926 JUMPI DUP1 PUSH4 0x5B7BAF64 EQ PUSH2 0x1742 JUMPI DUP1 PUSH4 0x5FBBC0D2 EQ PUSH2 0x170B JUMPI DUP1 PUSH4 0x628658FF EQ PUSH2 0x16ED JUMPI DUP1 PUSH4 0x677BD9FF EQ PUSH2 0x1469 JUMPI DUP1 PUSH4 0x76F34501 EQ PUSH2 0x11B2 JUMPI DUP1 PUSH4 0x79BA5097 EQ PUSH2 0x110F JUMPI DUP1 PUSH4 0x807BABD2 EQ PUSH2 0xDB8 JUMPI DUP1 PUSH4 0x81FB1FB4 EQ PUSH2 0xD6E JUMPI DUP1 PUSH4 0x86AE5FEC EQ PUSH2 0xD42 JUMPI DUP1 PUSH4 0x88EA41B9 EQ PUSH2 0xCA7 JUMPI DUP1 PUSH4 0x899B184F EQ PUSH2 0xBCB JUMPI DUP1 PUSH4 0x8DA5CB5B EQ PUSH2 0xBA2 JUMPI DUP1 PUSH4 0x8F9D0E6D EQ PUSH2 0xB86 JUMPI DUP1 PUSH4 0x91492956 EQ PUSH2 0xB5C JUMPI DUP1 PUSH4 0x95CCEA67 EQ PUSH2 0xA5E JUMPI DUP1 PUSH4 0x9619367D EQ PUSH2 0xA40 JUMPI DUP1 PUSH4 0x9B5BD1B8 EQ PUSH2 0xA23 JUMPI DUP1 PUSH4 0xB93793E9 EQ PUSH2 0x9E4 JUMPI DUP1 PUSH4 0xC1E3BD3E EQ PUSH2 0x92C JUMPI DUP1 PUSH4 0xCB01A4BF EQ PUSH2 0x881 JUMPI DUP1 PUSH4 0xD29F541D EQ PUSH2 0x515 JUMPI DUP1 PUSH4 0xDFE6B5D6 EQ PUSH2 0x834 JUMPI DUP1 PUSH4 0xE1F1C4A7 EQ PUSH2 0x817 JUMPI DUP1 PUSH4 0xE30C3978 EQ PUSH2 0x7EE JUMPI DUP1 PUSH4 0xE3C98BA0 EQ PUSH2 0x7D0 JUMPI DUP1 PUSH4 0xE566FE5C EQ PUSH2 0x599 JUMPI DUP1 PUSH4 0xE684D718 EQ PUSH2 0x515 JUMPI DUP1 PUSH4 0xE88958DC EQ PUSH2 0x4F7 JUMPI DUP1 PUSH4 0xEC3889B5 EQ PUSH2 0x360 JUMPI DUP1 PUSH4 0xF2FDE38B EQ PUSH2 0x2E7 JUMPI DUP1 PUSH4 0xF31534C4 EQ PUSH2 0x2C9 JUMPI PUSH4 0xFE83BECE EQ PUSH2 0x223 JUMPI PUSH1 0x0 DUP1 REVERT JUMPDEST CALLVALUE PUSH2 0x2C4 JUMPI PUSH1 0x20 CALLDATASIZE PUSH1 0x3 NOT ADD SLT PUSH2 0x2C4 JUMPI PUSH1 0x4 CALLDATALOAD PUSH1 0x0 MSTORE PUSH1 0x8 PUSH1 0x20 MSTORE PUSH2 0x120 PUSH1 0x40 PUSH1 0x0 KECCAK256 DUP1 SLOAD SWAP1 PUSH1 0xFF PUSH1 0x1 DUP3 ADD SLOAD SWAP2 PUSH1 0x2 DUP2 ADD SLOAD SWAP1 PUSH1 0x4 PUSH1 0x3 DUP3 ADD SLOAD SWAP2 ADD SLOAD SWAP2 PUSH1 0xA PUSH1 0x20 MSTORE PUSH1 0x40 PUSH1 0x0 KECCAK256 SLOAD SWAP5 PUSH1 0x40 MLOAD SWAP7 DUP6 DUP2 AND ISZERO ISZERO DUP9 MSTORE PUSH1 0x1 DUP1 PUSH1 0xA0 SHL SUB SWAP1 PUSH1 0x8 SHR AND PUSH1 0x20 DUP9 ADD MSTORE PUSH1 0x40 DUP8 ADD MSTORE PUSH1 0x60 DUP7 ADD MSTORE PUSH1 0x80 DUP6 ADD MSTORE DUP2 DUP2 AND ISZERO ISZERO PUSH1 0xA0 DUP6 ADD MSTORE DUP2 DUP2 PUSH1 0x8 SHR AND ISZERO ISZERO PUSH1 0xC0 DUP6 ADD MSTORE PUSH1 0x10 SHR AND ISZERO ISZERO PUSH1 0xE0 DUP4 ADD MSTORE PUSH2 0x100 DUP3 ADD MSTORE RETURN JUMPDEST PUSH1 0x0 DUP1 REVERT JUMPDEST CALLVALUE PUSH2 0x2C4 JUMPI PUSH1 0x0 CALLDATASIZE PUSH1 0x3 NOT ADD SLT PUSH2 0x2C4 JUMPI PUSH1 0x20 PUSH1 0x40 MLOAD PUSH3 0x186A0 DUP2 MSTORE RETURN JUMPDEST CALLVALUE PUSH2 0x2C4 JUMPI PUSH1 0x20 CALLDATASIZE PUSH1 0x3 NOT ADD SLT PUSH2 0x2C4 JUMPI PUSH2 0x300 PUSH2 0x2814 JUMP JUMPDEST PUSH1 0x0 SLOAD PUSH1 0x1 PUSH1 0x1 PUSH1 0xA0 SHL SUB SWAP1 DUP2 AND SWAP2 PUSH2 0x31A CALLER DUP5 EQ PUSH2 0x2C90 JUMP JUMPDEST AND SWAP1 PUSH2 0x327 DUP3 ISZERO ISZERO PUSH2 0x2CC8 JUMP JUMPDEST PUSH1 0x1 DUP1 SLOAD PUSH1 0x1 PUSH1 0x1 PUSH1 0xA0 SHL SUB NOT AND DUP4 OR SWAP1 SSTORE PUSH32 0x38D16B8CAC22D99FC7C124B9CD0DE2D3FA1FAEF420BFE791D8C362D765E22700 PUSH1 0x0 DUP1 LOG3 STOP JUMPDEST CALLVALUE PUSH2 0x2C4 JUMPI PUSH1 0x20 DUP1 PUSH1 0x3 NOT CALLDATASIZE ADD SLT PUSH2 0x2C4 JUMPI PUSH2 0x37A PUSH2 0x2814 JUMP JUMPDEST PUSH1 0x0 SLOAD PUSH1 0x1 PUSH1 0x1 PUSH1 0xA0 SHL SUB SWAP3 SWAP2 SWAP1 PUSH2 0x395 SWAP1 DUP5 AND CALLER EQ PUSH2 0x2C90 JUMP JUMPDEST DUP3 DUP2 AND SWAP3 PUSH2 0x3A4 DUP5 ISZERO ISZERO PUSH2 0x2CC8 JUMP JUMPDEST PUSH1 0x6 SLOAD SWAP2 DUP3 ISZERO PUSH2 0x4BC JUMPI PUSH1 0x0 PUSH1 0x6 DUP2 SWAP1 SSTORE PUSH1 0x40 MLOAD PUSH4 0xA9059CBB PUSH1 0xE0 SHL DUP2 MSTORE PUSH1 0x1 PUSH1 0x1 PUSH1 0xA0 SHL SUB SWAP3 SWAP1 SWAP3 AND PUSH1 0x4 DUP4 ADD MSTORE PUSH1 0x24 DUP3 ADD DUP5 SWAP1 MSTORE SWAP1 SWAP2 DUP5 SWAP2 DUP4 SWAP2 PUSH1 0x44 SWAP2 DUP4 SWAP2 PUSH32 0x0 AND GAS CALL SWAP1 DUP2 ISZERO PUSH2 0x4B0 JUMPI PUSH1 0x0 SWAP2 PUSH2 0x483 JUMPI JUMPDEST POP ISZERO PUSH2 0x44A JUMPI SWAP1 PUSH32 0xFC7AD544FF6A06D6499925723D25B6FE70457A42939995B1D3D6F560FE336333 SWAP2 PUSH1 0x40 MLOAD SWAP1 DUP2 MSTORE LOG2 STOP JUMPDEST PUSH1 0x40 MLOAD PUSH3 0x461BCD PUSH1 0xE5 SHL DUP2 MSTORE PUSH1 0x4 DUP2 ADD DUP4 SWAP1 MSTORE PUSH1 0x11 PUSH1 0x24 DUP3 ADD MSTORE PUSH17 0x15DA5D1A191C985DD85B0819985A5B1959 PUSH1 0x7A SHL PUSH1 0x44 DUP3 ADD MSTORE PUSH1 0x64 SWAP1 REVERT JUMPDEST PUSH2 0x4A3 SWAP2 POP DUP4 RETURNDATASIZE DUP6 GT PUSH2 0x4A9 JUMPI JUMPDEST PUSH2 0x49B DUP2 DUP4 PUSH2 0x2959 JUMP JUMPDEST DUP2 ADD SWAP1 PUSH2 0x2AAD JUMP JUMPDEST DUP5 PUSH2 0x418 JUMP JUMPDEST POP RETURNDATASIZE PUSH2 0x491 JUMP JUMPDEST PUSH1 0x40 MLOAD RETURNDATASIZE PUSH1 0x0 DUP3 RETURNDATACOPY RETURNDATASIZE SWAP1 REVERT JUMPDEST PUSH1 0x40 MLOAD PUSH3 0x461BCD PUSH1 0xE5 SHL DUP2 MSTORE PUSH1 0x4 DUP2 ADD DUP6 SWAP1 MSTORE PUSH1 0x13 PUSH1 0x24 DUP3 ADD MSTORE PUSH19 0x4E6F206665657320746F207769746864726177 PUSH1 0x68 SHL PUSH1 0x44 DUP3 ADD MSTORE PUSH1 0x64 SWAP1 REVERT JUMPDEST CALLVALUE PUSH2 0x2C4 JUMPI PUSH1 0x0 CALLDATASIZE PUSH1 0x3 NOT ADD SLT PUSH2 0x2C4 JUMPI PUSH1 0x20 PUSH1 0x3 SLOAD PUSH1 0x40 MLOAD SWAP1 DUP2 MSTORE RETURN JUMPDEST CALLVALUE PUSH2 0x2C4 JUMPI PUSH1 0x40 CALLDATASIZE PUSH1 0x3 NOT ADD SLT PUSH2 0x2C4 JUMPI PUSH2 0x52E PUSH2 0x282A JUMP JUMPDEST PUSH1 0x4 DUP1 CALLDATALOAD PUSH1 0x0 SWAP1 DUP2 MSTORE PUSH1 0x9 PUSH1 0x20 SWAP1 DUP2 MSTORE PUSH1 0x40 DUP1 DUP4 KECCAK256 PUSH1 0x1 PUSH1 0x1 PUSH1 0xA0 SHL SUB SWAP6 SWAP1 SWAP6 AND DUP4 MSTORE SWAP4 DUP2 MSTORE SWAP1 DUP4 SWAP1 KECCAK256 DUP1 SLOAD PUSH1 0x1 DUP3 ADD SLOAD PUSH1 0x2 DUP4 ADD SLOAD PUSH1 0x3 DUP5 ADD SLOAD SWAP4 SWAP1 SWAP6 ADD SLOAD DUP7 MLOAD SWAP3 DUP4 MSTORE SWAP4 DUP3 ADD MSTORE SWAP4 DUP5 ADD SWAP3 SWAP1 SWAP3 MSTORE PUSH1 0x60 DUP4 ADD SWAP2 SWAP1 SWAP2 MSTORE PUSH1 0xFF AND ISZERO ISZERO PUSH1 0x80 DUP3 ADD MSTORE PUSH1 0xA0 SWAP1 RETURN JUMPDEST SUB SWAP1 RETURN JUMPDEST CALLVALUE PUSH2 0x2C4 JUMPI PUSH1 0x60 CALLDATASIZE PUSH1 0x3 NOT ADD SLT PUSH2 0x2C4 JUMPI PUSH1 0x4 CALLDATALOAD PUSH2 0x5B5 PUSH2 0x282A JUMP JUMPDEST SWAP1 PUSH1 0x44 CALLDATALOAD PUSH1 0x1 DUP1 PUSH1 0xA0 SHL SUB DUP1 PUSH1 0x0 SLOAD AND CALLER EQ DUP1 ISZERO PUSH2 0x7B7 JUMPI JUMPDEST PUSH2 0x5D7 SWAP1 PUSH2 0x28B5 JUMP JUMPDEST DUP3 PUSH1 0x0 MSTORE PUSH1 0x20 SWAP4 PUSH1 0x8 DUP6 MSTORE PUSH1 0xFF PUSH1 0x40 PUSH1 0x0 KECCAK256 SLOAD AND PUSH2 0x77D JUMPI PUSH2 0x5FA TIMESTAMP DUP5 GT PUSH2 0x28F0 JUMP JUMPDEST AND SWAP3 DUP4 ISZERO PUSH2 0x747 JUMPI PUSH1 0x40 MLOAD PUSH2 0x60E DUP2 PUSH2 0x293C JUMP JUMPDEST PUSH1 0x1 DUP2 MSTORE DUP2 DUP2 ADD DUP6 DUP2 MSTORE PUSH1 0x40 DUP3 ADD DUP5 DUP2 MSTORE PUSH1 0x60 DUP4 ADD PUSH1 0x0 DUP2 MSTORE PUSH1 0x80 DUP5 ADD PUSH1 0x0 DUP2 MSTORE PUSH1 0xA0 DUP6 ADD SWAP1 PUSH1 0x0 DUP3 MSTORE PUSH1 0xC0 DUP7 ADD PUSH1 0x0 DUP2 MSTORE PUSH1 0xE0 DUP8 ADD SWAP2 PUSH1 0x0 DUP4 MSTORE PUSH2 0x100 DUP9 ADD SWAP5 TIMESTAMP DUP7 MSTORE PUSH2 0x120 DUP10 ADD SWAP7 PUSH1 0x0 DUP9 MSTORE PUSH2 0x140 DUP11 ADD SWAP9 PUSH1 0x0 DUP11 MSTORE DUP14 PUSH1 0x0 MSTORE PUSH1 0x8 DUP13 MSTORE PUSH1 0x40 PUSH1 0x0 KECCAK256 SWAP11 MLOAD ISZERO ISZERO PUSH2 0x68D SWAP1 DUP13 SWAP1 PUSH1 0xFF DUP1 NOT DUP4 SLOAD AND SWAP2 ISZERO ISZERO AND OR SWAP1 SSTORE JUMP JUMPDEST MLOAD DUP11 SLOAD PUSH2 0x100 PUSH1 0x1 PUSH1 0xA8 SHL SUB PUSH1 0x8 SWAP3 SWAP1 SWAP3 SHL SWAP2 SWAP1 SWAP2 AND PUSH2 0x100 PUSH1 0x1 PUSH1 0xA8 SHL SUB NOT SWAP1 SWAP2 AND OR DUP11 SSTORE MLOAD PUSH1 0x1 DUP11 ADD SSTORE MLOAD PUSH1 0x2 DUP10 ADD SSTORE MLOAD PUSH1 0x3 DUP9 ADD SSTORE SWAP2 MLOAD PUSH1 0x4 DUP8 ADD DUP1 SLOAD PUSH1 0xFF NOT AND SWAP2 ISZERO ISZERO PUSH1 0xFF AND SWAP2 SWAP1 SWAP2 OR DUP2 SSTORE SWAP2 MLOAD DUP3 SLOAD PUSH2 0xFF00 NOT AND SWAP1 ISZERO ISZERO PUSH1 0x8 SHL PUSH2 0xFF00 AND OR DUP3 SSTORE MLOAD DUP2 SLOAD PUSH3 0xFF0000 NOT AND SWAP1 ISZERO ISZERO PUSH1 0x10 SHL PUSH3 0xFF0000 AND OR SWAP1 SSTORE MLOAD PUSH1 0x5 DUP5 ADD SSTORE MLOAD PUSH1 0x6 DUP4 ADD SSTORE MLOAD SWAP1 PUSH1 0x7 ADD SSTORE PUSH1 0x40 MLOAD SWAP2 DUP3 MSTORE PUSH32 0x463E3F9D9FB0523912951D02646AF63A1E84048004DA8F35B2029254C5171CE1 SWAP2 LOG3 STOP JUMPDEST PUSH1 0x64 SWAP1 PUSH1 0x40 MLOAD SWAP1 PUSH3 0x461BCD PUSH1 0xE5 SHL DUP3 MSTORE PUSH1 0x4 DUP3 ADD MSTORE PUSH1 0xF PUSH1 0x24 DUP3 ADD MSTORE PUSH15 0x24B73B30B634B21031B932B0BA37B9 PUSH1 0x89 SHL PUSH1 0x44 DUP3 ADD MSTORE REVERT JUMPDEST PUSH1 0x40 MLOAD PUSH3 0x461BCD PUSH1 0xE5 SHL DUP2 MSTORE PUSH1 0x4 DUP2 ADD DUP7 SWAP1 MSTORE PUSH1 0x12 PUSH1 0x24 DUP3 ADD MSTORE PUSH18 0x105B1C9958591E481C9959DA5CDD195C9959 PUSH1 0x72 SHL PUSH1 0x44 DUP3 ADD MSTORE PUSH1 0x64 SWAP1 REVERT JUMPDEST POP CALLER PUSH1 0x0 SWAP1 DUP2 MSTORE PUSH1 0x7 PUSH1 0x20 MSTORE PUSH1 0x40 SWAP1 KECCAK256 SLOAD PUSH1 0xFF AND PUSH2 0x5CE JUMP JUMPDEST CALLVALUE PUSH2 0x2C4 JUMPI PUSH1 0x0 CALLDATASIZE PUSH1 0x3 NOT ADD SLT PUSH2 0x2C4 JUMPI PUSH1 0x20 PUSH1 0x6 SLOAD PUSH1 0x40 MLOAD SWAP1 DUP2 MSTORE RETURN JUMPDEST CALLVALUE PUSH2 0x2C4 JUMPI PUSH1 0x0 CALLDATASIZE PUSH1 0x3 NOT ADD SLT PUSH2 0x2C4 JUMPI PUSH1 0x1 SLOAD PUSH1 0x40 MLOAD PUSH1 0x1 PUSH1 0x1 PUSH1 0xA0 SHL SUB SWAP1 SWAP2 AND DUP2 MSTORE PUSH1 0x20 SWAP1 RETURN JUMPDEST CALLVALUE PUSH2 0x2C4 JUMPI PUSH1 0x0 CALLDATASIZE PUSH1 0x3 NOT ADD SLT PUSH2 0x2C4 JUMPI PUSH1 0x20 PUSH1 0x40 MLOAD PUSH2 0x2710 DUP2 MSTORE RETURN JUMPDEST CALLVALUE PUSH2 0x2C4 JUMPI PUSH1 0x0 CALLDATASIZE PUSH1 0x3 NOT ADD SLT PUSH2 0x2C4 JUMPI PUSH1 0x6 SLOAD PUSH1 0x40 DUP1 MLOAD SWAP2 DUP3 MSTORE PUSH32 0x0 PUSH1 0x1 PUSH1 0x1 PUSH1 0xA0 SHL SUB AND PUSH1 0x20 DUP4 ADD MSTORE SWAP1 RETURN JUMPDEST CALLVALUE PUSH2 0x2C4 JUMPI PUSH1 0x60 CALLDATASIZE PUSH1 0x3 NOT ADD SLT PUSH2 0x2C4 JUMPI PUSH32 0xCF8A1E1D5F09CF3C97DBB653CD9A4D7AACE9292FBC1BB8211FEBF2D400FEBBDD PUSH1 0x4 CALLDATALOAD PUSH1 0x24 CALLDATALOAD SWAP1 PUSH2 0x927 PUSH1 0x44 CALLDATALOAD PUSH2 0x8D5 PUSH1 0x1 DUP1 PUSH1 0xA0 SHL SUB PUSH1 0x0 SLOAD AND CALLER EQ PUSH2 0x2C90 JUMP JUMPDEST PUSH2 0x8E3 PUSH2 0x1F4 DUP5 GT ISZERO PUSH2 0x2D06 JUMP JUMPDEST PUSH2 0x8F0 PUSH1 0xC8 DUP6 GT ISZERO PUSH2 0x2D4A JUMP JUMPDEST PUSH2 0x8FE PUSH2 0x3E8 DUP3 GT ISZERO PUSH2 0x2D8D JUMP JUMPDEST DUP3 PUSH1 0x2 SSTORE DUP4 PUSH1 0x3 SSTORE DUP1 PUSH1 0x4 SSTORE PUSH1 0x40 MLOAD SWAP4 DUP5 SWAP4 DUP5 PUSH1 0x40 SWAP2 SWAP5 SWAP4 SWAP3 PUSH1 0x60 DUP3 ADD SWAP6 DUP3 MSTORE PUSH1 0x20 DUP3 ADD MSTORE ADD MSTORE JUMP JUMPDEST SUB SWAP1 LOG1 STOP JUMPDEST CALLVALUE PUSH2 0x2C4 JUMPI PUSH1 0x20 DUP1 PUSH1 0x3 NOT CALLDATASIZE ADD SLT PUSH2 0x2C4 JUMPI PUSH1 0x4 CALLDATALOAD PUSH1 0x0 MSTORE PUSH1 0xA DUP2 MSTORE PUSH1 0x40 PUSH1 0x0 KECCAK256 PUSH1 0x40 MLOAD SWAP1 DUP2 DUP4 DUP3 SLOAD SWAP2 DUP3 DUP2 MSTORE ADD SWAP1 DUP2 SWAP3 PUSH1 0x0 MSTORE DUP5 PUSH1 0x0 KECCAK256 SWAP1 PUSH1 0x0 JUMPDEST DUP7 DUP3 DUP3 LT PUSH2 0x9C7 JUMPI DUP7 DUP7 PUSH2 0x97E DUP3 DUP9 SUB DUP4 PUSH2 0x2959 JUMP JUMPDEST PUSH1 0x40 MLOAD SWAP3 DUP4 SWAP3 DUP2 DUP5 ADD SWAP1 DUP3 DUP6 MSTORE MLOAD DUP1 SWAP2 MSTORE PUSH1 0x40 DUP5 ADD SWAP3 SWAP2 PUSH1 0x0 JUMPDEST DUP3 DUP2 LT PUSH2 0x9A7 JUMPI POP POP POP POP SUB SWAP1 RETURN JUMPDEST DUP4 MLOAD PUSH1 0x1 PUSH1 0x1 PUSH1 0xA0 SHL SUB AND DUP6 MSTORE DUP7 SWAP6 POP SWAP4 DUP2 ADD SWAP4 SWAP3 DUP2 ADD SWAP3 PUSH1 0x1 ADD PUSH2 0x998 JUMP JUMPDEST DUP4 SLOAD PUSH1 0x1 PUSH1 0x1 PUSH1 0xA0 SHL SUB AND DUP6 MSTORE SWAP1 SWAP4 ADD SWAP3 PUSH1 0x1 SWAP3 DUP4 ADD SWAP3 ADD PUSH2 0x968 JUMP JUMPDEST CALLVALUE PUSH2 0x2C4 JUMPI PUSH1 0x20 CALLDATASIZE PUSH1 0x3 NOT ADD SLT PUSH2 0x2C4 JUMPI PUSH1 0x1 PUSH1 0x1 PUSH1 0xA0 SHL SUB PUSH2 0xA05 PUSH2 0x2814 JUMP JUMPDEST AND PUSH1 0x0 MSTORE PUSH1 0x7 PUSH1 0x20 MSTORE PUSH1 0x20 PUSH1 0xFF PUSH1 0x40 PUSH1 0x0 KECCAK256 SLOAD AND PUSH1 0x40 MLOAD SWAP1 ISZERO ISZERO DUP2 MSTORE RETURN JUMPDEST CALLVALUE PUSH2 0x2C4 JUMPI PUSH1 0x0 CALLDATASIZE PUSH1 0x3 NOT ADD SLT PUSH2 0x2C4 JUMPI PUSH1 0x20 PUSH1 0x40 MLOAD PUSH2 0x3E8 DUP2 MSTORE RETURN JUMPDEST CALLVALUE PUSH2 0x2C4 JUMPI PUSH1 0x0 CALLDATASIZE PUSH1 0x3 NOT ADD SLT PUSH2 0x2C4 JUMPI PUSH1 0x20 PUSH1 0x5 SLOAD PUSH1 0x40 MLOAD SWAP1 DUP2 MSTORE RETURN JUMPDEST CALLVALUE PUSH2 0x2C4 JUMPI PUSH1 0x40 CALLDATASIZE PUSH1 0x3 NOT ADD SLT PUSH2 0x2C4 JUMPI PUSH2 0xA77 PUSH2 0x2814 JUMP JUMPDEST PUSH1 0x0 SLOAD PUSH1 0x1 PUSH1 0x1 PUSH1 0xA0 SHL SUB SWAP1 DUP2 AND SWAP2 DUP2 SWAP1 PUSH2 0xA93 CALLER DUP6 EQ PUSH2 0x2C90 JUMP JUMPDEST AND SWAP1 PUSH32 0x0 AND DUP2 EQ PUSH2 0xB17 JUMPI PUSH1 0x40 MLOAD PUSH4 0xA9059CBB PUSH1 0xE0 SHL DUP2 MSTORE PUSH1 0x1 PUSH1 0x1 PUSH1 0xA0 SHL SUB SWAP3 SWAP1 SWAP3 AND PUSH1 0x4 DUP4 ADD MSTORE PUSH1 0x24 DUP1 CALLDATALOAD SWAP1 DUP4 ADD MSTORE PUSH1 0x20 SWAP1 DUP3 SWAP1 PUSH1 0x44 SWAP1 DUP3 SWAP1 PUSH1 0x0 SWAP1 GAS CALL DUP1 ISZERO PUSH2 0x4B0 JUMPI PUSH2 0xAFE JUMPI STOP JUMPDEST PUSH2 0xB15 SWAP1 PUSH1 0x20 RETURNDATASIZE DUP2 GT PUSH2 0x4A9 JUMPI PUSH2 0x49B DUP2 DUP4 PUSH2 0x2959 JUMP JUMPDEST STOP JUMPDEST PUSH1 0x40 MLOAD PUSH3 0x461BCD PUSH1 0xE5 SHL DUP2 MSTORE PUSH1 0x20 PUSH1 0x4 DUP3 ADD MSTORE PUSH1 0x1F PUSH1 0x24 DUP3 ADD MSTORE PUSH32 0x557365207265736375654F727068616E65645553444320666F72205553444300 PUSH1 0x44 DUP3 ADD MSTORE PUSH1 0x64 SWAP1 REVERT JUMPDEST CALLVALUE PUSH2 0x2C4 JUMPI PUSH1 0x20 CALLDATASIZE PUSH1 0x3 NOT ADD SLT PUSH2 0x2C4 JUMPI PUSH1 0x40 PUSH2 0xB7A PUSH1 0x4 CALLDATALOAD PUSH2 0x2DD9 JUMP JUMPDEST DUP3 MLOAD SWAP2 DUP3 MSTORE PUSH1 0x20 DUP3 ADD MSTORE RETURN JUMPDEST CALLVALUE PUSH2 0x2C4 JUMPI PUSH1 0x0 CALLDATASIZE PUSH1 0x3 NOT ADD SLT PUSH2 0x2C4 JUMPI PUSH1 0x20 PUSH1 0x40 MLOAD PUSH1 0xC8 DUP2 MSTORE RETURN JUMPDEST CALLVALUE PUSH2 0x2C4 JUMPI PUSH1 0x0 CALLDATASIZE PUSH1 0x3 NOT ADD SLT PUSH2 0x2C4 JUMPI PUSH1 0x0 SLOAD PUSH1 0x40 MLOAD PUSH1 0x1 PUSH1 0x1 PUSH1 0xA0 SHL SUB SWAP1 SWAP2 AND DUP2 MSTORE PUSH1 0x20 SWAP1 RETURN JUMPDEST CALLVALUE PUSH2 0x2C4 JUMPI PUSH2 0xBD9 CALLDATASIZE PUSH2 0x2871 JUMP JUMPDEST SWAP1 PUSH1 0x1 DUP1 PUSH1 0xA0 SHL SUB PUSH1 0x0 SLOAD AND CALLER EQ DUP1 ISZERO PUSH2 0xC8E JUMPI JUMPDEST PUSH2 0xBF7 SWAP1 PUSH2 0x28B5 JUMP JUMPDEST DUP1 PUSH1 0x0 MSTORE PUSH1 0x8 PUSH1 0x20 MSTORE PUSH2 0xC11 PUSH1 0xFF PUSH1 0x40 PUSH1 0x0 KECCAK256 SLOAD AND PUSH2 0x299F JUMP JUMPDEST PUSH1 0x0 MSTORE PUSH1 0x8 PUSH1 0x20 MSTORE PUSH1 0x40 PUSH1 0x0 KECCAK256 PUSH1 0x4 DUP2 ADD SLOAD PUSH1 0xFF DUP2 AND ISZERO SWAP1 DUP2 PUSH2 0xC7F JUMPI JUMPDEST POP ISZERO PUSH2 0xC47 JUMPI PUSH1 0x1 SWAP1 PUSH2 0xC43 TIMESTAMP DUP5 GT PUSH2 0x28F0 JUMP JUMPDEST ADD SSTORE STOP JUMPDEST PUSH1 0x40 MLOAD PUSH3 0x461BCD PUSH1 0xE5 SHL DUP2 MSTORE PUSH1 0x20 PUSH1 0x4 DUP3 ADD MSTORE PUSH1 0x10 PUSH1 0x24 DUP3 ADD MSTORE PUSH16 0x141C99591A58DD1A5BDB88195B991959 PUSH1 0x82 SHL PUSH1 0x44 DUP3 ADD MSTORE PUSH1 0x64 SWAP1 REVERT JUMPDEST PUSH1 0xFF SWAP2 POP PUSH1 0x8 SHR AND ISZERO DUP4 PUSH2 0xC2F JUMP JUMPDEST POP CALLER PUSH1 0x0 SWAP1 DUP2 MSTORE PUSH1 0x7 PUSH1 0x20 MSTORE PUSH1 0x40 SWAP1 KECCAK256 SLOAD PUSH1 0xFF AND PUSH2 0xBEE JUMP JUMPDEST CALLVALUE PUSH2 0x2C4 JUMPI PUSH1 0x20 CALLDATASIZE PUSH1 0x3 NOT ADD SLT PUSH2 0x2C4 JUMPI PUSH1 0x4 CALLDATALOAD PUSH2 0xCD0 PUSH1 0x1 DUP1 PUSH1 0xA0 SHL SUB PUSH1 0x0 SLOAD AND CALLER EQ PUSH2 0x2C90 JUMP JUMPDEST PUSH3 0x186A0 DUP2 LT PUSH2 0xD0B JUMPI PUSH1 0x20 DUP2 PUSH32 0x9E306E17BD44998CED8DF3C68D6B9A9AEFECEF5A75368D427D2B4BD711E1B751 SWAP3 PUSH1 0x5 SSTORE PUSH1 0x40 MLOAD SWAP1 DUP2 MSTORE LOG1 STOP JUMPDEST PUSH1 0x40 MLOAD PUSH3 0x461BCD PUSH1 0xE5 SHL DUP2 MSTORE PUSH1 0x20 PUSH1 0x4 DUP3 ADD MSTORE PUSH1 0xF PUSH1 0x24 DUP3 ADD MSTORE PUSH15 0x4D696E2062657420746F6F206C6F77 PUSH1 0x88 SHL PUSH1 0x44 DUP3 ADD MSTORE PUSH1 0x64 SWAP1 REVERT JUMPDEST CALLVALUE PUSH2 0x2C4 JUMPI PUSH1 0x20 CALLDATASIZE PUSH1 0x3 NOT ADD SLT PUSH2 0x2C4 JUMPI PUSH1 0x4 CALLDATALOAD PUSH1 0x0 MSTORE PUSH1 0xA PUSH1 0x20 MSTORE PUSH1 0x20 PUSH1 0x40 PUSH1 0x0 KECCAK256 SLOAD PUSH1 0x40 MLOAD SWAP1 DUP2 MSTORE RETURN JUMPDEST CALLVALUE PUSH2 0x2C4 JUMPI PUSH2 0xD7C CALLDATASIZE PUSH2 0x2871 JUMP JUMPDEST SWAP1 PUSH1 0x0 MSTORE PUSH1 0xA PUSH1 0x20 MSTORE PUSH1 0x40 PUSH1 0x0 KECCAK256 DUP1 SLOAD DUP3 LT ISZERO PUSH2 0x2C4 JUMPI PUSH1 0x20 SWAP2 PUSH2 0xD9F SWAP2 PUSH2 0x2887 JUMP JUMPDEST SWAP1 SLOAD PUSH1 0x40 MLOAD PUSH1 0x3 SWAP3 SWAP1 SWAP3 SHL SHR PUSH1 0x1 PUSH1 0x1 PUSH1 0xA0 SHL SUB AND DUP2 MSTORE RETURN JUMPDEST CALLVALUE PUSH2 0x2C4 JUMPI PUSH2 0xDC6 CALLDATASIZE PUSH2 0x27F1 JUMP JUMPDEST DUP3 PUSH1 0x0 SWAP4 SWAP3 SWAP4 MSTORE PUSH1 0x20 PUSH1 0x8 DUP2 MSTORE PUSH2 0xE13 PUSH1 0x1 PUSH1 0x40 PUSH1 0x0 KECCAK256 PUSH2 0xDEA PUSH1 0xFF DUP3 SLOAD AND PUSH2 0x299F JUMP JUMPDEST PUSH2 0xE0A PUSH1 0xFF PUSH1 0x4 DUP4 ADD SLOAD PUSH2 0xE00 DUP3 DUP3 AND ISZERO PUSH2 0x29EB JUMP JUMPDEST PUSH1 0x8 SHR AND ISZERO PUSH2 0x2A2D JUMP JUMPDEST ADD SLOAD TIMESTAMP LT PUSH2 0x2A70 JUMP JUMPDEST DUP3 PUSH1 0x0 MSTORE PUSH1 0x9 DUP2 MSTORE PUSH1 0x40 PUSH1 0x0 KECCAK256 CALLER PUSH1 0x0 MSTORE DUP2 MSTORE PUSH1 0x40 PUSH1 0x0 KECCAK256 SWAP2 DUP4 PUSH1 0x0 MSTORE PUSH1 0x8 DUP3 MSTORE PUSH1 0x40 PUSH1 0x0 KECCAK256 SWAP2 DUP6 PUSH1 0x0 EQ PUSH2 0x1105 JUMPI DUP4 SLOAD JUMPDEST DUP3 ISZERO ISZERO SWAP1 DUP2 PUSH2 0x10FA JUMPI JUMPDEST POP ISZERO PUSH2 0x10C5 JUMPI PUSH1 0x2 DUP4 ADD PUSH1 0x3 DUP2 SLOAD SWAP5 ADD SWAP5 DUP6 SLOAD PUSH2 0xE6C DUP2 DUP8 PUSH2 0x2B08 JUMP JUMPDEST SWAP6 DUP7 ISZERO PUSH2 0x1093 JUMPI DUP10 ISZERO PUSH2 0x108C JUMPI POP JUMPDEST DUP1 PUSH2 0xFF6 JUMPI POP PUSH2 0x2710 PUSH2 0xE90 PUSH1 0x4 SLOAD DUP7 PUSH2 0x2B15 JUMP JUMPDEST DIV SWAP6 PUSH2 0xE9C DUP8 DUP7 PUSH2 0x2B48 JUMP JUMPDEST SWAP6 JUMPDEST DUP7 GT PUSH2 0xFB8 JUMPI DUP9 ISZERO PUSH2 0xF94 JUMPI POP PUSH2 0xEB6 DUP5 DUP3 SLOAD PUSH2 0x2B48 JUMP JUMPDEST SWAP1 SSTORE PUSH2 0xEC3 DUP4 DUP3 SLOAD PUSH2 0x2B48 JUMP JUMPDEST SWAP1 SSTORE JUMPDEST PUSH2 0xED2 DUP5 PUSH1 0x6 SLOAD PUSH2 0x2B08 JUMP JUMPDEST PUSH1 0x6 SSTORE PUSH1 0x40 MLOAD PUSH4 0xA9059CBB PUSH1 0xE0 SHL DUP2 MSTORE CALLER PUSH1 0x4 DUP3 ADD MSTORE PUSH1 0x24 DUP2 ADD DUP5 SWAP1 MSTORE DUP2 DUP2 PUSH1 0x44 DUP2 PUSH1 0x0 PUSH1 0x1 PUSH1 0x1 PUSH1 0xA0 SHL SUB PUSH32 0x0 AND GAS CALL DUP1 ISZERO PUSH2 0x4B0 JUMPI PUSH2 0xF3A SWAP2 PUSH1 0x0 SWAP2 PUSH2 0xF77 JUMPI JUMPDEST POP PUSH2 0x2AC5 JUMP JUMPDEST PUSH1 0x40 MLOAD SWAP6 ISZERO ISZERO DUP7 MSTORE DUP6 ADD MSTORE PUSH1 0x40 DUP5 ADD MSTORE PUSH1 0x60 DUP4 ADD MSTORE PUSH32 0xD9BE0B26D7307E29247900DE9245B439EC506D7C5F09BAD71B6B6500D0F04A8B PUSH1 0x80 CALLER SWAP4 LOG3 STOP JUMPDEST PUSH2 0xF8E SWAP2 POP DUP4 RETURNDATASIZE DUP6 GT PUSH2 0x4A9 JUMPI PUSH2 0x49B DUP2 DUP4 PUSH2 0x2959 JUMP JUMPDEST DUP9 PUSH2 0xF34 JUMP JUMPDEST SWAP2 POP PUSH1 0x1 ADD PUSH2 0xFA4 DUP5 DUP3 SLOAD PUSH2 0x2B48 JUMP JUMPDEST SWAP1 SSTORE PUSH2 0xFB1 DUP4 DUP3 SLOAD PUSH2 0x2B48 JUMP JUMPDEST SWAP1 SSTORE PUSH2 0xEC6 JUMP JUMPDEST PUSH1 0x40 MLOAD PUSH3 0x461BCD PUSH1 0xE5 SHL DUP2 MSTORE PUSH1 0x4 DUP2 ADD DUP6 SWAP1 MSTORE PUSH1 0x16 PUSH1 0x24 DUP3 ADD MSTORE PUSH22 0x496E73756666696369656E74206C6971756964697479 PUSH1 0x50 SHL PUSH1 0x44 DUP3 ADD MSTORE PUSH1 0x64 SWAP1 REVERT JUMPDEST SWAP6 PUSH2 0x2710 SWAP7 DUP8 DUP2 MUL SWAP1 DUP2 DIV DUP9 SUB PUSH2 0x1076 JUMPI DUP8 PUSH2 0x101E PUSH2 0x1018 DUP10 PUSH2 0x1034 SWAP5 PUSH2 0x2B28 JUMP JUMPDEST DUP9 PUSH2 0x2B15 JUMP JUMPDEST DIV SWAP8 PUSH2 0x102C PUSH1 0x4 SLOAD DUP11 PUSH2 0x2B15 JUMP JUMPDEST DIV DUP1 SWAP9 PUSH2 0x2B48 JUMP JUMPDEST SWAP6 DUP7 PUSH2 0xE9E JUMPI PUSH1 0x40 MLOAD PUSH3 0x461BCD PUSH1 0xE5 SHL DUP2 MSTORE PUSH1 0x4 DUP2 ADD DUP7 SWAP1 MSTORE PUSH1 0x14 PUSH1 0x24 DUP3 ADD MSTORE PUSH20 0x115E1A5D081D985B1D59481D1BDBC81CDB585B1B PUSH1 0x62 SHL PUSH1 0x44 DUP3 ADD MSTORE PUSH1 0x64 SWAP1 REVERT JUMPDEST PUSH4 0x4E487B71 PUSH1 0xE0 SHL PUSH1 0x0 MSTORE PUSH1 0x11 PUSH1 0x4 MSTORE PUSH1 0x24 PUSH1 0x0 REVERT JUMPDEST SWAP1 POP PUSH2 0xE7B JUMP JUMPDEST PUSH1 0x40 MLOAD PUSH3 0x461BCD PUSH1 0xE5 SHL DUP2 MSTORE PUSH1 0x4 DUP2 ADD DUP7 SWAP1 MSTORE PUSH1 0xA PUSH1 0x24 DUP3 ADD MSTORE PUSH10 0x115B5C1D1E481C1BDBDB PUSH1 0xB2 SHL PUSH1 0x44 DUP3 ADD MSTORE PUSH1 0x64 SWAP1 REVERT JUMPDEST PUSH1 0x64 SWAP1 PUSH1 0x40 MLOAD SWAP1 PUSH3 0x461BCD PUSH1 0xE5 SHL DUP3 MSTORE PUSH1 0x4 DUP3 ADD MSTORE PUSH1 0xE PUSH1 0x24 DUP3 ADD MSTORE PUSH14 0x125B9D985B1A5908185B5BDD5B9D PUSH1 0x92 SHL PUSH1 0x44 DUP3 ADD MSTORE REVERT JUMPDEST SWAP1 POP DUP3 GT ISZERO DUP8 PUSH2 0xE4F JUMP JUMPDEST PUSH1 0x1 DUP5 ADD SLOAD PUSH2 0xE45 JUMP JUMPDEST CALLVALUE PUSH2 0x2C4 JUMPI PUSH1 0x0 CALLDATASIZE PUSH1 0x3 NOT ADD SLT PUSH2 0x2C4 JUMPI PUSH1 0x1 SLOAD PUSH1 0x1 PUSH1 0x1 PUSH1 0xA0 SHL SUB SWAP1 DUP2 DUP2 AND CALLER DUP2 SWAP1 SUB PUSH2 0x1179 JUMPI DUP1 PUSH1 0x0 SLOAD SWAP4 DUP5 AND PUSH32 0x8BE0079C531659141344CD1FD0A4F28419497F9722A3DAAFE3B4186F6B6457E0 PUSH1 0x0 DUP1 LOG3 PUSH1 0x1 PUSH1 0x1 PUSH1 0xA0 SHL SUB NOT SWAP3 DUP4 AND OR PUSH1 0x0 SSTORE AND PUSH1 0x1 SSTORE STOP JUMPDEST PUSH1 0x40 MLOAD PUSH3 0x461BCD PUSH1 0xE5 SHL DUP2 MSTORE PUSH1 0x20 PUSH1 0x4 DUP3 ADD MSTORE PUSH1 0x11 PUSH1 0x24 DUP3 ADD MSTORE PUSH17 0x2737BA103832B73234B7339037BBB732B9 PUSH1 0x79 SHL PUSH1 0x44 DUP3 ADD MSTORE PUSH1 0x64 SWAP1 REVERT JUMPDEST CALLVALUE PUSH2 0x2C4 JUMPI PUSH1 0x40 CALLDATASIZE PUSH1 0x3 NOT ADD SLT PUSH2 0x2C4 JUMPI PUSH1 0x4 CALLDATALOAD PUSH2 0x11CE PUSH2 0x27E2 JUMP JUMPDEST PUSH1 0x0 SLOAD PUSH1 0x1 PUSH1 0x1 PUSH1 0xA0 SHL SUB SWAP3 SWAP2 SWAP1 DUP4 AND CALLER EQ DUP1 ISZERO PUSH2 0x1450 JUMPI JUMPDEST PUSH2 0x11F0 SWAP1 PUSH2 0x28B5 JUMP JUMPDEST DUP2 PUSH1 0x0 MSTORE PUSH1 0x20 SWAP1 PUSH1 0x8 DUP3 MSTORE PUSH2 0x120C PUSH1 0xFF PUSH1 0x40 PUSH1 0x0 KECCAK256 SLOAD AND PUSH2 0x299F JUMP JUMPDEST DUP3 PUSH1 0x0 MSTORE PUSH1 0x8 DUP3 MSTORE PUSH1 0x40 PUSH1 0x0 KECCAK256 SWAP2 PUSH2 0x1267 DUP3 PUSH1 0x4 DUP6 ADD PUSH1 0x1 DUP2 SLOAD PUSH2 0x1233 PUSH1 0xFF DUP3 AND ISZERO PUSH2 0x2C13 JUMP JUMPDEST PUSH2 0x1243 PUSH1 0xFF DUP3 PUSH1 0x8 SHR AND ISZERO PUSH2 0x2A2D JUMP JUMPDEST PUSH3 0xFF0000 NOT SWAP1 SWAP2 AND PUSH3 0xFF00FF NOT SWAP1 SWAP2 AND OR SWAP2 ISZERO ISZERO PUSH1 0x10 SHL PUSH3 0xFF0000 AND SWAP2 SWAP1 SWAP2 OR SWAP1 SSTORE JUMP JUMPDEST TIMESTAMP PUSH1 0x6 DUP5 ADD SSTORE DUP2 ISZERO PUSH2 0x1445 JUMPI PUSH1 0x3 DUP4 ADD SLOAD SWAP5 JUMPDEST DUP3 ISZERO PUSH2 0x143A JUMPI PUSH1 0x2 DUP5 ADD SLOAD SWAP2 JUMPDEST DUP3 PUSH2 0x1413 JUMPI PUSH2 0x2710 PUSH2 0x129B PUSH1 0x3 SLOAD DUP10 PUSH2 0x2B15 JUMP JUMPDEST DIV SWAP2 PUSH2 0x12A7 DUP4 DUP10 PUSH2 0x2B48 JUMP JUMPDEST SWAP6 JUMPDEST PUSH2 0x12B5 DUP8 PUSH1 0x6 SLOAD PUSH2 0x2B08 JUMP JUMPDEST PUSH1 0x6 SSTORE DUP4 PUSH1 0x7 DUP3 ADD SSTORE DUP4 ISZERO ISZERO DUP1 PUSH2 0x1404 JUMPI JUMPDEST PUSH2 0x1329 JUMPI JUMPDEST POP POP POP SWAP5 PUSH2 0x1324 SWAP2 PUSH32 0x8F01610BB1A4FA1D0F37B9ABA1FBFAD042A7C22F12E16172D77948E60ED1EA0C SWAP6 SWAP7 PUSH1 0x40 MLOAD SWAP6 DUP7 SWAP6 DUP7 SWAP2 SWAP3 PUSH1 0x80 SWAP4 SWAP7 SWAP6 SWAP5 SWAP2 SWAP7 PUSH1 0xA0 DUP5 ADD SWAP8 ISZERO ISZERO DUP5 MSTORE PUSH1 0x20 DUP5 ADD MSTORE PUSH1 0x40 DUP4 ADD MSTORE PUSH1 0x60 DUP3 ADD MSTORE ADD MSTORE JUMP JUMPDEST SUB SWAP1 LOG2 STOP JUMPDEST SLOAD PUSH1 0x40 MLOAD PUSH4 0xA9059CBB PUSH1 0xE0 SHL DUP2 MSTORE PUSH1 0x8 SWAP2 SWAP1 SWAP2 SHR DUP3 AND PUSH1 0x1 PUSH1 0x1 PUSH1 0xA0 SHL SUB AND PUSH1 0x4 DUP3 ADD MSTORE PUSH1 0x24 DUP2 ADD DUP5 SWAP1 MSTORE SWAP1 DUP3 SWAP1 DUP3 SWAP1 DUP2 PUSH1 0x0 DUP2 PUSH1 0x44 DUP2 ADD SUB SWAP3 PUSH32 0x0 AND GAS CALL SWAP1 DUP2 ISZERO PUSH2 0x4B0 JUMPI PUSH1 0x0 SWAP2 PUSH2 0x13E7 JUMPI JUMPDEST POP ISZERO PUSH2 0x13A3 JUMPI DUP1 DUP1 PUSH2 0x12CC JUMP JUMPDEST PUSH1 0x64 SWAP1 PUSH1 0x40 MLOAD SWAP1 PUSH3 0x461BCD PUSH1 0xE5 SHL DUP3 MSTORE PUSH1 0x4 DUP3 ADD MSTORE PUSH1 0x1E PUSH1 0x24 DUP3 ADD MSTORE PUSH32 0x43726561746F7220726577617264207472616E73666572206661696C65640000 PUSH1 0x44 DUP3 ADD MSTORE REVERT JUMPDEST PUSH2 0x13FE SWAP2 POP DUP3 RETURNDATASIZE DUP5 GT PUSH2 0x4A9 JUMPI PUSH2 0x49B DUP2 DUP4 PUSH2 0x2959 JUMP JUMPDEST DUP9 PUSH2 0x1396 JUMP JUMPDEST POP DUP2 DUP2 SLOAD PUSH1 0x8 SHR AND ISZERO ISZERO PUSH2 0x12C7 JUMP JUMPDEST PUSH2 0x2710 SWAP5 SWAP2 DUP6 PUSH2 0x1425 PUSH1 0x2 SLOAD DUP11 PUSH2 0x2B15 JUMP JUMPDEST DIV SWAP6 PUSH2 0x1433 PUSH1 0x3 SLOAD DUP11 PUSH2 0x2B15 JUMP JUMPDEST DIV SWAP3 PUSH2 0x12A9 JUMP JUMPDEST PUSH1 0x3 DUP5 ADD SLOAD SWAP2 PUSH2 0x1287 JUMP JUMPDEST PUSH1 0x2 DUP4 ADD SLOAD SWAP5 PUSH2 0x127A JUMP JUMPDEST POP CALLER PUSH1 0x0 SWAP1 DUP2 MSTORE PUSH1 0x7 PUSH1 0x20 MSTORE PUSH1 0x40 SWAP1 KECCAK256 SLOAD PUSH1 0xFF AND PUSH2 0x11E7 JUMP JUMPDEST CALLVALUE PUSH2 0x2C4 JUMPI PUSH1 0x20 DUP1 PUSH1 0x3 NOT CALLDATASIZE ADD SLT PUSH2 0x2C4 JUMPI PUSH1 0x4 CALLDATALOAD DUP1 PUSH1 0x0 MSTORE PUSH1 0x8 DUP3 MSTORE PUSH2 0x1497 PUSH1 0xFF PUSH1 0x40 PUSH1 0x0 KECCAK256 SLOAD AND PUSH2 0x299F JUMP JUMPDEST DUP1 PUSH1 0x0 MSTORE PUSH1 0x8 DUP3 MSTORE PUSH1 0x40 PUSH1 0x0 KECCAK256 PUSH1 0x9 DUP4 MSTORE PUSH1 0x40 PUSH1 0x0 KECCAK256 CALLER PUSH1 0x0 MSTORE DUP4 MSTORE PUSH1 0x40 PUSH1 0x0 KECCAK256 SWAP1 PUSH1 0x4 DUP2 ADD DUP1 SLOAD SWAP3 PUSH1 0xFF DUP5 AND ISZERO PUSH2 0x16B9 JUMPI PUSH1 0x4 DUP2 ADD SWAP1 PUSH1 0xFF DUP3 SLOAD SWAP6 PUSH2 0x14DF DUP3 DUP9 AND ISZERO PUSH2 0x2C52 JUMP JUMPDEST PUSH1 0x10 SHR AND ISZERO PUSH2 0x16AF JUMPI SLOAD SWAP4 JUMPDEST DUP5 ISZERO PUSH2 0x1674 JUMPI PUSH1 0xFF NOT AND PUSH1 0x1 OR SWAP1 SSTORE SLOAD PUSH1 0x10 SHR PUSH1 0xFF AND SWAP1 PUSH2 0x153F SWAP1 DUP3 ISZERO PUSH2 0x1669 JUMPI PUSH1 0x2 DUP2 ADD SLOAD SWAP3 JUMPDEST ISZERO PUSH2 0x1660 JUMPI PUSH1 0x3 ADD SLOAD JUMPDEST PUSH2 0x2710 PUSH2 0x1538 DUP3 PUSH2 0x1533 PUSH1 0x2 SLOAD PUSH1 0x3 SLOAD SWAP1 PUSH2 0x2B08 JUMP JUMPDEST PUSH2 0x2B15 JUMP JUMPDEST DIV SWAP1 PUSH2 0x2B48 JUMP JUMPDEST DUP2 ISZERO PUSH2 0x1652 JUMPI PUSH2 0x1562 SWAP2 PUSH2 0x1556 PUSH2 0x155B SWAP3 DUP6 PUSH2 0x2B15 JUMP JUMPDEST PUSH2 0x2B28 JUMP JUMPDEST DUP1 SWAP3 PUSH2 0x2B08 JUMP JUMPDEST PUSH1 0x40 MLOAD PUSH4 0xA9059CBB PUSH1 0xE0 SHL DUP2 MSTORE CALLER PUSH1 0x4 DUP3 ADD MSTORE PUSH1 0x24 DUP2 ADD DUP3 SWAP1 MSTORE SWAP1 SWAP4 SWAP1 DUP2 DUP2 PUSH1 0x44 DUP2 PUSH1 0x0 PUSH1 0x1 PUSH1 0x1 PUSH1 0xA0 SHL SUB PUSH32 0x0 AND GAS CALL SWAP1 DUP2 ISZERO PUSH2 0x4B0 JUMPI PUSH1 0x0 SWAP2 PUSH2 0x1635 JUMPI JUMPDEST POP ISZERO PUSH2 0x15F8 JUMPI PUSH1 0x40 MLOAD SWAP4 DUP5 MSTORE DUP4 ADD MSTORE PUSH32 0x6256309DC4C6375473B26B31FC0E88B0CA9EBCA0E558D39FEC5AA96863AD40CB PUSH1 0x40 CALLER SWAP4 LOG3 STOP JUMPDEST PUSH1 0x64 SWAP1 PUSH1 0x40 MLOAD SWAP1 PUSH3 0x461BCD PUSH1 0xE5 SHL DUP3 MSTORE PUSH1 0x4 DUP3 ADD MSTORE PUSH1 0x16 PUSH1 0x24 DUP3 ADD MSTORE PUSH22 0x14185E5BDD5D081D1C985B9CD9995C8819985A5B1959 PUSH1 0x52 SHL PUSH1 0x44 DUP3 ADD MSTORE REVERT JUMPDEST PUSH2 0x164C SWAP2 POP DUP3 RETURNDATASIZE DUP5 GT PUSH2 0x4A9 JUMPI PUSH2 0x49B DUP2 DUP4 PUSH2 0x2959 JUMP JUMPDEST DUP6 PUSH2 0x15C1 JUMP JUMPDEST POP POP PUSH2 0x1562 PUSH1 0x0 DUP1 SWAP3 PUSH2 0x2B08 JUMP JUMPDEST PUSH1 0x2 ADD SLOAD PUSH2 0x151D JUMP JUMPDEST PUSH1 0x3 DUP2 ADD SLOAD SWAP3 PUSH2 0x1513 JUMP JUMPDEST PUSH1 0x40 MLOAD PUSH3 0x461BCD PUSH1 0xE5 SHL DUP2 MSTORE PUSH1 0x4 DUP2 ADD DUP9 SWAP1 MSTORE PUSH1 0x13 PUSH1 0x24 DUP3 ADD MSTORE PUSH19 0x2737903BB4B73734B733903837B9B4BA34B7B7 PUSH1 0x69 SHL PUSH1 0x44 DUP3 ADD MSTORE PUSH1 0x64 SWAP1 REVERT JUMPDEST PUSH1 0x1 ADD SLOAD SWAP4 PUSH2 0x14EB JUMP JUMPDEST PUSH1 0x40 MLOAD PUSH3 0x461BCD PUSH1 0xE5 SHL DUP2 MSTORE PUSH1 0x4 DUP2 ADD DUP8 SWAP1 MSTORE PUSH1 0xC PUSH1 0x24 DUP3 ADD MSTORE PUSH12 0x139BDD081C995CDBDB1D9959 PUSH1 0xA2 SHL PUSH1 0x44 DUP3 ADD MSTORE PUSH1 0x64 SWAP1 REVERT JUMPDEST CALLVALUE PUSH2 0x2C4 JUMPI PUSH1 0x0 CALLDATASIZE PUSH1 0x3 NOT ADD SLT PUSH2 0x2C4 JUMPI PUSH1 0x20 PUSH1 0x4 SLOAD PUSH1 0x40 MLOAD SWAP1 DUP2 MSTORE RETURN JUMPDEST CALLVALUE PUSH2 0x2C4 JUMPI PUSH1 0x0 CALLDATASIZE PUSH1 0x3 NOT ADD SLT PUSH2 0x2C4 JUMPI PUSH1 0x80 PUSH1 0x2 SLOAD PUSH1 0x3 SLOAD PUSH1 0x4 SLOAD PUSH1 0x5 SLOAD SWAP2 PUSH1 0x40 MLOAD SWAP4 DUP5 MSTORE PUSH1 0x20 DUP5 ADD MSTORE PUSH1 0x40 DUP4 ADD MSTORE PUSH1 0x60 DUP3 ADD MSTORE RETURN JUMPDEST CALLVALUE PUSH2 0x2C4 JUMPI PUSH1 0x20 DUP1 PUSH1 0x3 NOT CALLDATASIZE ADD SLT PUSH2 0x2C4 JUMPI PUSH1 0x4 CALLDATALOAD DUP1 PUSH1 0x0 MSTORE PUSH1 0x8 DUP3 MSTORE PUSH2 0x1770 PUSH1 0xFF PUSH1 0x40 PUSH1 0x0 KECCAK256 SLOAD AND PUSH2 0x299F JUMP JUMPDEST DUP1 PUSH1 0x0 MSTORE PUSH1 0x8 DUP3 MSTORE PUSH1 0x40 PUSH1 0x0 KECCAK256 SWAP2 PUSH1 0x9 DUP2 MSTORE PUSH1 0x40 PUSH1 0x0 KECCAK256 CALLER PUSH1 0x0 MSTORE DUP2 MSTORE PUSH1 0xFF PUSH1 0x4 PUSH1 0x40 PUSH1 0x0 KECCAK256 SWAP5 ADD SLOAD PUSH1 0x8 SHR AND ISZERO PUSH2 0x18F2 JUMPI PUSH1 0x4 DUP4 ADD PUSH2 0x17C6 DUP2 SLOAD SWAP5 PUSH2 0x17B9 PUSH1 0xFF DUP8 AND ISZERO PUSH2 0x2C52 JUMP JUMPDEST PUSH1 0x1 DUP2 SLOAD SWAP2 ADD SLOAD SWAP1 PUSH2 0x2B08 JUMP JUMPDEST SWAP4 DUP5 ISZERO PUSH2 0x18BF JUMPI PUSH1 0xFF NOT AND PUSH1 0x1 OR SWAP1 SSTORE PUSH1 0x40 MLOAD PUSH4 0xA9059CBB PUSH1 0xE0 SHL DUP2 MSTORE CALLER PUSH1 0x4 DUP3 ADD MSTORE PUSH1 0x24 DUP2 ADD DUP5 SWAP1 MSTORE DUP2 DUP2 PUSH1 0x44 DUP2 PUSH1 0x0 PUSH32 0x0 PUSH1 0x1 PUSH1 0x1 PUSH1 0xA0 SHL SUB AND GAS CALL SWAP1 DUP2 ISZERO PUSH2 0x4B0 JUMPI PUSH1 0x0 SWAP2 PUSH2 0x18A2 JUMPI JUMPDEST POP ISZERO PUSH2 0x1865 JUMPI PUSH32 0xF3F402280EF0A7905E124AA621B65EAEB2725C343E8B36D398ED78C29DAF285C SWAP1 PUSH1 0x40 MLOAD SWAP4 DUP5 MSTORE CALLER SWAP4 LOG3 STOP JUMPDEST PUSH1 0x64 SWAP1 PUSH1 0x40 MLOAD SWAP1 PUSH3 0x461BCD PUSH1 0xE5 SHL DUP3 MSTORE PUSH1 0x4 DUP3 ADD MSTORE PUSH1 0x16 PUSH1 0x24 DUP3 ADD MSTORE PUSH22 0x1499599D5B99081D1C985B9CD9995C8819985A5B1959 PUSH1 0x52 SHL PUSH1 0x44 DUP3 ADD MSTORE REVERT JUMPDEST PUSH2 0x18B9 SWAP2 POP DUP3 RETURNDATASIZE DUP5 GT PUSH2 0x4A9 JUMPI PUSH2 0x49B DUP2 DUP4 PUSH2 0x2959 JUMP JUMPDEST DUP5 PUSH2 0x1832 JUMP JUMPDEST PUSH1 0x40 MLOAD PUSH3 0x461BCD PUSH1 0xE5 SHL DUP2 MSTORE PUSH1 0x4 DUP2 ADD DUP5 SWAP1 MSTORE PUSH1 0xB PUSH1 0x24 DUP3 ADD MSTORE PUSH11 0x2737903837B9B4BA34B7B7 PUSH1 0xA9 SHL PUSH1 0x44 DUP3 ADD MSTORE PUSH1 0x64 SWAP1 REVERT JUMPDEST PUSH1 0x64 SWAP1 PUSH1 0x40 MLOAD SWAP1 PUSH3 0x461BCD PUSH1 0xE5 SHL DUP3 MSTORE PUSH1 0x4 DUP3 ADD MSTORE PUSH1 0xD PUSH1 0x24 DUP3 ADD MSTORE PUSH13 0x139BDD0818D85B98D95B1B1959 PUSH1 0x9A SHL PUSH1 0x44 DUP3 ADD MSTORE REVERT JUMPDEST CALLVALUE PUSH2 0x2C4 JUMPI PUSH1 0x40 CALLDATASIZE PUSH1 0x3 NOT ADD SLT PUSH2 0x2C4 JUMPI PUSH1 0x4 CALLDATALOAD PUSH8 0xFFFFFFFFFFFFFFFF PUSH1 0x24 CALLDATALOAD DUP2 DUP2 GT PUSH2 0x2C4 JUMPI CALLDATASIZE PUSH1 0x23 DUP3 ADD SLT ISZERO PUSH2 0x2C4 JUMPI DUP1 PUSH1 0x4 ADD CALLDATALOAD SWAP2 DUP3 GT PUSH2 0x2C4 JUMPI CALLDATASIZE PUSH1 0x24 DUP4 DUP4 ADD ADD GT PUSH2 0x2C4 JUMPI PUSH1 0x0 SLOAD PUSH1 0x1 PUSH1 0x1 PUSH1 0xA0 SHL SUB AND CALLER EQ DUP1 ISZERO PUSH2 0x1A6D JUMPI JUMPDEST PUSH2 0x198E SWAP1 PUSH2 0x28B5 JUMP JUMPDEST DUP3 PUSH1 0x0 MSTORE PUSH1 0x8 PUSH1 0x20 MSTORE PUSH2 0x19A8 PUSH1 0xFF PUSH1 0x40 PUSH1 0x0 KECCAK256 SLOAD AND PUSH2 0x299F JUMP JUMPDEST DUP3 PUSH1 0x0 MSTORE PUSH1 0x8 PUSH1 0x20 MSTORE PUSH1 0x4 PUSH1 0x40 PUSH1 0x0 KECCAK256 ADD SWAP1 DUP2 SLOAD SWAP1 PUSH2 0x19CA PUSH1 0xFF DUP4 AND ISZERO PUSH2 0x2C13 JUMP JUMPDEST PUSH1 0xFF DUP3 PUSH1 0x8 SHR AND PUSH2 0x1A34 JUMPI PUSH32 0x16DF958F95890327BD2B2E188D052875769D43607523BDBF47C3C18C5DC4DF26 SWAP4 PUSH1 0x24 SWAP4 PUSH2 0x100 PUSH1 0x40 SWAP5 PUSH2 0xFF00 NOT AND OR SWAP1 SSTORE DUP1 DUP4 MLOAD SWAP5 DUP6 SWAP4 PUSH1 0x20 DUP6 MSTORE DUP3 PUSH1 0x20 DUP7 ADD MSTORE ADD DUP5 DUP5 ADD CALLDATACOPY PUSH1 0x0 DUP3 DUP3 ADD DUP5 ADD MSTORE PUSH1 0x1F ADD PUSH1 0x1F NOT AND DUP2 ADD SUB ADD SWAP1 LOG2 STOP JUMPDEST PUSH1 0x40 MLOAD PUSH3 0x461BCD PUSH1 0xE5 SHL DUP2 MSTORE PUSH1 0x20 PUSH1 0x4 DUP3 ADD MSTORE PUSH1 0x11 PUSH1 0x24 DUP3 ADD MSTORE PUSH17 0x105B1C9958591E4818D85B98D95B1B1959 PUSH1 0x7A SHL PUSH1 0x44 DUP3 ADD MSTORE PUSH1 0x64 SWAP1 REVERT JUMPDEST POP CALLER PUSH1 0x0 SWAP1 DUP2 MSTORE PUSH1 0x7 PUSH1 0x20 MSTORE PUSH1 0x40 SWAP1 KECCAK256 SLOAD PUSH1 0xFF AND PUSH2 0x1985 JUMP JUMPDEST CALLVALUE PUSH2 0x2C4 JUMPI PUSH1 0x0 CALLDATASIZE PUSH1 0x3 NOT ADD SLT PUSH2 0x2C4 JUMPI PUSH1 0x40 MLOAD PUSH32 0x0 PUSH1 0x1 PUSH1 0x1 PUSH1 0xA0 SHL SUB AND DUP2 MSTORE PUSH1 0x20 SWAP1 RETURN JUMPDEST CALLVALUE PUSH2 0x2C4 JUMPI PUSH1 0x60 CALLDATASIZE PUSH1 0x3 NOT ADD SLT PUSH2 0x2C4 JUMPI PUSH8 0xFFFFFFFFFFFFFFFF PUSH1 0x4 CALLDATALOAD DUP2 DUP2 GT PUSH2 0x2C4 JUMPI PUSH2 0x1AFD SWAP1 CALLDATASIZE SWAP1 PUSH1 0x4 ADD PUSH2 0x2840 JUMP JUMPDEST SWAP1 PUSH1 0x24 SWAP3 DUP4 CALLDATALOAD DUP2 DUP2 GT PUSH2 0x2C4 JUMPI PUSH2 0x1B18 SWAP1 CALLDATASIZE SWAP1 PUSH1 0x4 ADD PUSH2 0x2840 JUMP JUMPDEST SWAP1 SWAP2 PUSH1 0x44 CALLDATALOAD SWAP1 DUP2 GT PUSH2 0x2C4 JUMPI PUSH2 0x1B32 SWAP1 CALLDATASIZE SWAP1 PUSH1 0x4 ADD PUSH2 0x2840 JUMP JUMPDEST SWAP5 SWAP1 SWAP4 PUSH1 0x1 DUP1 PUSH1 0xA0 SHL SUB PUSH1 0x0 SLOAD AND CALLER EQ DUP1 ISZERO PUSH2 0x1DF1 JUMPI JUMPDEST PUSH2 0x1B52 SWAP1 PUSH2 0x28B5 JUMP JUMPDEST DUP3 DUP3 EQ DUP1 PUSH2 0x1DE8 JUMPI JUMPDEST ISZERO PUSH2 0x1DAC JUMPI PUSH1 0x0 JUMPDEST DUP3 DUP2 LT PUSH2 0x1B6C JUMPI STOP JUMPDEST PUSH2 0x1B77 DUP2 DUP5 DUP5 PUSH2 0x297B JUMP JUMPDEST CALLDATALOAD PUSH1 0x0 MSTORE PUSH1 0x8 PUSH1 0x20 MSTORE PUSH1 0xFF PUSH1 0x40 PUSH1 0x0 KECCAK256 SLOAD AND ISZERO DUP1 PUSH2 0x1D98 JUMPI JUMPDEST DUP1 PUSH2 0x1D79 JUMPI JUMPDEST PUSH2 0x1BC1 JUMPI JUMPDEST PUSH1 0x0 NOT DUP2 EQ PUSH2 0x1BAC JUMPI PUSH1 0x1 ADD PUSH2 0x1B63 JUMP JUMPDEST DUP8 PUSH4 0x4E487B71 PUSH1 0xE0 SHL PUSH1 0x0 MSTORE PUSH1 0x11 PUSH1 0x4 MSTORE PUSH1 0x0 REVERT JUMPDEST PUSH2 0x1BD4 PUSH2 0x1BCF DUP3 DUP7 DUP9 PUSH2 0x297B JUMP JUMPDEST PUSH2 0x298B JUMP JUMPDEST PUSH2 0x1BDF DUP3 DUP10 DUP10 PUSH2 0x297B JUMP JUMPDEST CALLDATALOAD PUSH1 0x40 MLOAD SWAP2 PUSH2 0x1BED DUP4 PUSH2 0x293C JUMP JUMPDEST PUSH1 0x1 DUP4 MSTORE PUSH1 0x1 DUP1 PUSH1 0xA0 SHL SUB AND PUSH1 0x20 DUP4 ADD MSTORE PUSH1 0x40 DUP3 ADD MSTORE PUSH1 0x0 PUSH1 0x60 DUP3 ADD MSTORE PUSH1 0x0 PUSH1 0x80 DUP3 ADD MSTORE PUSH1 0x0 PUSH1 0xA0 DUP3 ADD MSTORE PUSH1 0x0 PUSH1 0xC0 DUP3 ADD MSTORE PUSH1 0x0 PUSH1 0xE0 DUP3 ADD MSTORE TIMESTAMP PUSH2 0x100 DUP3 ADD MSTORE PUSH1 0x0 PUSH2 0x120 DUP3 ADD MSTORE PUSH1 0x0 PUSH2 0x140 DUP3 ADD MSTORE PUSH2 0x1C48 DUP3 DUP6 DUP6 PUSH2 0x297B JUMP JUMPDEST CALLDATALOAD PUSH1 0x0 MSTORE PUSH1 0x8 PUSH1 0x20 MSTORE PUSH1 0x7 PUSH2 0x140 PUSH1 0x40 PUSH1 0x0 KECCAK256 SWAP3 PUSH2 0x1C75 DUP2 MLOAD ISZERO ISZERO DUP6 SWAP1 PUSH1 0xFF DUP1 NOT DUP4 SLOAD AND SWAP2 ISZERO ISZERO AND OR SWAP1 SSTORE JUMP JUMPDEST PUSH1 0x20 DUP2 ADD MLOAD DUP5 SLOAD PUSH2 0x100 PUSH1 0x1 PUSH1 0xA8 SHL SUB PUSH1 0x8 SWAP3 DUP4 SHL AND PUSH2 0x100 PUSH1 0x1 PUSH1 0xA8 SHL SUB NOT SWAP1 SWAP2 AND OR DUP6 SSTORE PUSH1 0x40 DUP3 ADD MLOAD PUSH1 0x1 DUP7 ADD SSTORE PUSH1 0x60 DUP3 ADD MLOAD PUSH1 0x2 DUP7 ADD SSTORE PUSH1 0x80 DUP3 ADD MLOAD PUSH1 0x3 DUP7 ADD SSTORE PUSH1 0xA0 DUP3 ADD MLOAD PUSH1 0x4 DUP7 ADD DUP1 SLOAD PUSH1 0xC0 DUP6 ADD MLOAD PUSH1 0xE0 DUP7 ADD MLOAD SWAP1 ISZERO ISZERO SWAP1 SWAP5 SHL PUSH2 0xFF00 AND SWAP3 ISZERO ISZERO PUSH1 0xFF AND PUSH3 0xFFFFFF NOT SWAP1 SWAP2 AND OR SWAP2 SWAP1 SWAP2 OR SWAP2 ISZERO ISZERO PUSH1 0x10 SHL PUSH3 0xFF0000 AND SWAP2 SWAP1 SWAP2 OR SWAP1 SSTORE PUSH2 0x100 DUP2 ADD MLOAD PUSH1 0x5 DUP6 ADD SSTORE PUSH2 0x120 DUP2 ADD MLOAD PUSH1 0x6 DUP6 ADD SSTORE ADD MLOAD SWAP2 ADD SSTORE PUSH2 0x1D22 DUP2 DUP5 DUP5 PUSH2 0x297B JUMP JUMPDEST CALLDATALOAD PUSH2 0x1D31 PUSH2 0x1BCF DUP4 DUP8 DUP10 PUSH2 0x297B JUMP JUMPDEST SWAP1 PUSH32 0x463E3F9D9FB0523912951D02646AF63A1E84048004DA8F35B2029254C5171CE1 PUSH1 0x20 PUSH2 0x1D60 DUP6 DUP13 DUP13 PUSH2 0x297B JUMP JUMPDEST PUSH1 0x40 MLOAD SWAP1 CALLDATALOAD DUP2 MSTORE PUSH1 0x1 PUSH1 0x1 PUSH1 0xA0 SHL SUB SWAP1 SWAP5 AND SWAP4 LOG3 PUSH2 0x1B9B JUMP JUMPDEST POP PUSH1 0x1 PUSH1 0x1 PUSH1 0xA0 SHL SUB PUSH2 0x1D90 PUSH2 0x1BCF DUP4 DUP8 DUP10 PUSH2 0x297B JUMP JUMPDEST AND ISZERO ISZERO PUSH2 0x1B96 JUMP JUMPDEST POP PUSH2 0x1DA4 DUP2 DUP9 DUP9 PUSH2 0x297B JUMP JUMPDEST CALLDATALOAD TIMESTAMP LT PUSH2 0x1B90 JUMP JUMPDEST PUSH1 0x40 MLOAD PUSH3 0x461BCD PUSH1 0xE5 SHL DUP2 MSTORE PUSH1 0x20 PUSH1 0x4 DUP3 ADD MSTORE PUSH1 0x15 DUP2 DUP10 ADD MSTORE PUSH21 0x82E4E4C2F240D8CADCCEE8D040DAD2E6DAC2E8C6D PUSH1 0x5B SHL PUSH1 0x44 DUP3 ADD MSTORE PUSH1 0x64 SWAP1 REVERT JUMPDEST POP DUP6 DUP4 EQ PUSH2 0x1B5B JUMP JUMPDEST POP CALLER PUSH1 0x0 SWAP1 DUP2 MSTORE PUSH1 0x7 PUSH1 0x20 MSTORE PUSH1 0x40 SWAP1 KECCAK256 SLOAD PUSH1 0xFF AND PUSH2 0x1B49 JUMP JUMPDEST CALLVALUE PUSH2 0x2C4 JUMPI PUSH1 0x0 CALLDATASIZE PUSH1 0x3 NOT ADD SLT PUSH2 0x2C4 JUMPI PUSH1 0x20 PUSH1 0x40 MLOAD PUSH2 0x1F4 DUP2 MSTORE RETURN JUMPDEST CALLVALUE PUSH2 0x2C4 JUMPI PUSH2 0x1E35 CALLDATASIZE PUSH2 0x27F1 JUMP JUMPDEST SWAP1 SWAP2 PUSH1 0x0 MSTORE PUSH1 0x8 PUSH1 0x20 MSTORE PUSH2 0x1E66 DUP2 PUSH1 0x40 PUSH1 0x0 KECCAK256 DUP5 PUSH1 0x0 EQ PUSH2 0x1ECC JUMPI PUSH1 0x2 DUP2 ADD SLOAD SWAP5 JUMPDEST ISZERO PUSH2 0x1EC2 JUMPI PUSH1 0x3 ADD SLOAD SWAP4 PUSH2 0x2B08 JUMP JUMPDEST PUSH1 0x2 SLOAD PUSH2 0x2710 SWAP1 DUP2 SUB DUP2 DUP2 GT PUSH2 0x1076 JUMPI PUSH1 0x40 SWAP5 PUSH2 0x1E89 PUSH2 0x1E8F SWAP3 PUSH1 0x3 SLOAD SWAP1 PUSH2 0x2B48 JUMP JUMPDEST SWAP1 PUSH2 0x2B15 JUMP JUMPDEST DIV DUP2 ISZERO PUSH2 0x1EB4 JUMPI PUSH2 0x1EA7 SWAP2 PUSH2 0x1556 PUSH2 0x155B SWAP3 DUP6 PUSH2 0x2B15 JUMP JUMPDEST SWAP1 DUP3 MLOAD SWAP2 DUP3 MSTORE PUSH1 0x20 DUP3 ADD MSTORE RETURN JUMPDEST POP POP PUSH2 0x1EA7 PUSH1 0x0 DUP1 SWAP3 PUSH2 0x2B08 JUMP JUMPDEST PUSH1 0x2 ADD SLOAD SWAP4 PUSH2 0x2B08 JUMP JUMPDEST PUSH1 0x3 DUP2 ADD SLOAD SWAP5 PUSH2 0x1E57 JUMP JUMPDEST CALLVALUE PUSH2 0x2C4 JUMPI PUSH1 0x0 CALLDATASIZE PUSH1 0x3 NOT ADD SLT PUSH2 0x2C4 JUMPI PUSH1 0x20 PUSH1 0x2 SLOAD PUSH1 0x40 MLOAD SWAP1 DUP2 MSTORE RETURN JUMPDEST CALLVALUE PUSH2 0x2C4 JUMPI PUSH1 0x20 DUP1 PUSH1 0x3 NOT CALLDATASIZE ADD SLT PUSH2 0x2C4 JUMPI PUSH1 0x0 SLOAD PUSH1 0x1 PUSH1 0x1 PUSH1 0xA0 SHL SUB SWAP1 DUP2 AND SWAP2 SWAP1 PUSH2 0x1F22 CALLER DUP5 EQ PUSH2 0x2C90 JUMP JUMPDEST PUSH32 0x0 AND SWAP2 PUSH1 0x40 MLOAD PUSH4 0x70A08231 PUSH1 0xE0 SHL DUP2 MSTORE ADDRESS PUSH1 0x4 DUP3 ADD MSTORE DUP3 DUP2 PUSH1 0x24 DUP2 DUP8 GAS STATICCALL SWAP1 DUP2 ISZERO PUSH2 0x4B0 JUMPI PUSH1 0x0 SWAP2 PUSH2 0x20A4 JUMPI JUMPDEST POP PUSH2 0x1F7E PUSH1 0x6 SLOAD PUSH1 0x4 CALLDATALOAD PUSH2 0x2B08 JUMP JUMPDEST SWAP1 DUP2 DUP2 GT ISZERO PUSH2 0x206C JUMPI SWAP2 PUSH2 0x1F96 DUP5 SWAP3 PUSH2 0x1FCE SWAP5 PUSH2 0x2B48 JUMP JUMPDEST PUSH1 0x40 MLOAD PUSH4 0xA9059CBB PUSH1 0xE0 SHL DUP2 MSTORE PUSH1 0x1 PUSH1 0x1 PUSH1 0xA0 SHL SUB SWAP1 SWAP3 AND PUSH1 0x4 DUP4 ADD MSTORE PUSH1 0x24 DUP3 ADD DUP2 SWAP1 MSTORE SWAP5 SWAP1 SWAP3 DUP4 SWAP2 SWAP1 DUP3 SWAP1 PUSH1 0x0 SWAP1 DUP3 SWAP1 PUSH1 0x44 DUP3 ADD SWAP1 JUMP JUMPDEST SUB SWAP3 GAS CALL SWAP1 DUP2 ISZERO PUSH2 0x4B0 JUMPI PUSH1 0x0 SWAP2 PUSH2 0x204F JUMPI JUMPDEST POP ISZERO PUSH2 0x2012 JUMPI PUSH32 0x697DF3BC90DB3AB78D94303450DF070B90938249A461CC1FC18E0F8BA4277059 SWAP2 PUSH1 0x40 MLOAD SWAP1 DUP2 MSTORE LOG1 STOP JUMPDEST PUSH1 0x64 SWAP1 PUSH1 0x40 MLOAD SWAP1 PUSH3 0x461BCD PUSH1 0xE5 SHL DUP3 MSTORE PUSH1 0x4 DUP3 ADD MSTORE PUSH1 0x16 PUSH1 0x24 DUP3 ADD MSTORE PUSH22 0x14995CD8DD59481D1C985B9CD9995C8819985A5B1959 PUSH1 0x52 SHL PUSH1 0x44 DUP3 ADD MSTORE REVERT JUMPDEST PUSH2 0x2066 SWAP2 POP DUP3 RETURNDATASIZE DUP5 GT PUSH2 0x4A9 JUMPI PUSH2 0x49B DUP2 DUP4 PUSH2 0x2959 JUMP JUMPDEST DUP4 PUSH2 0x1FE1 JUMP JUMPDEST PUSH1 0x40 MLOAD PUSH3 0x461BCD PUSH1 0xE5 SHL DUP2 MSTORE PUSH1 0x4 DUP2 ADD DUP6 SWAP1 MSTORE PUSH1 0x10 PUSH1 0x24 DUP3 ADD MSTORE PUSH16 0x4E6F206F727068616E65642055534443 PUSH1 0x80 SHL PUSH1 0x44 DUP3 ADD MSTORE PUSH1 0x64 SWAP1 REVERT JUMPDEST SWAP1 POP DUP3 DUP2 DUP2 RETURNDATASIZE DUP4 GT PUSH2 0x20CA JUMPI JUMPDEST PUSH2 0x20BB DUP2 DUP4 PUSH2 0x2959 JUMP JUMPDEST DUP2 ADD SUB SLT PUSH2 0x2C4 JUMPI MLOAD DUP5 PUSH2 0x1F6F JUMP JUMPDEST POP RETURNDATASIZE PUSH2 0x20B1 JUMP JUMPDEST CALLVALUE PUSH2 0x2C4 JUMPI PUSH1 0x40 CALLDATASIZE PUSH1 0x3 NOT ADD SLT PUSH2 0x2C4 JUMPI PUSH2 0x20EA PUSH2 0x2814 JUMP JUMPDEST PUSH32 0xD8EA402E95478FEEE1BEA3F652C970C98C456281AE29A9987918E9E8B6754BB4 PUSH1 0x20 PUSH2 0x2115 PUSH2 0x27E2 JUMP JUMPDEST PUSH1 0x0 SLOAD SWAP1 SWAP4 PUSH1 0x1 PUSH1 0x1 PUSH1 0xA0 SHL SUB SWAP2 PUSH2 0x2130 SWAP1 DUP4 AND CALLER EQ PUSH2 0x2C90 JUMP JUMPDEST AND SWAP3 PUSH2 0x213D DUP5 ISZERO ISZERO PUSH2 0x2CC8 JUMP JUMPDEST DUP4 PUSH1 0x0 MSTORE PUSH1 0x7 DUP3 MSTORE PUSH2 0x215F DUP2 PUSH1 0x40 PUSH1 0x0 KECCAK256 SWAP1 PUSH1 0xFF DUP1 NOT DUP4 SLOAD AND SWAP2 ISZERO ISZERO AND OR SWAP1 SSTORE JUMP JUMPDEST PUSH1 0x40 MLOAD SWAP1 ISZERO ISZERO DUP2 MSTORE LOG2 STOP JUMPDEST CALLVALUE PUSH2 0x2C4 JUMPI PUSH1 0x20 CALLDATASIZE PUSH1 0x3 NOT ADD SLT PUSH2 0x2C4 JUMPI PUSH32 0xC5DBBC1A39078C6D41F75645288952AF1ADCE3154214371D76E7735665642453 PUSH1 0x80 PUSH1 0x4 CALLDATALOAD PUSH2 0x21B6 PUSH1 0x1 DUP1 PUSH1 0xA0 SHL SUB PUSH1 0x0 SLOAD AND CALLER EQ PUSH2 0x2C90 JUMP JUMPDEST PUSH2 0x21C4 PUSH2 0x3E8 DUP3 GT ISZERO PUSH2 0x2D8D JUMP JUMPDEST DUP1 PUSH1 0x4 SSTORE PUSH1 0x40 MLOAD SWAP1 PUSH1 0x40 DUP3 MSTORE PUSH1 0xC PUSH1 0x40 DUP4 ADD MSTORE PUSH12 0x6561726C7945786974466565 PUSH1 0xA0 SHL PUSH1 0x60 DUP4 ADD MSTORE PUSH1 0x20 DUP3 ADD MSTORE LOG1 STOP JUMPDEST CALLVALUE PUSH2 0x2C4 JUMPI PUSH2 0x2202 CALLDATASIZE PUSH2 0x27F1 JUMP JUMPDEST DUP3 PUSH1 0x0 SWAP4 SWAP3 SWAP4 MSTORE PUSH1 0x20 SWAP1 PUSH1 0x8 DUP3 MSTORE PUSH2 0x2227 PUSH1 0x1 PUSH1 0x40 PUSH1 0x0 KECCAK256 PUSH2 0xDEA PUSH1 0xFF DUP3 SLOAD AND PUSH2 0x299F JUMP JUMPDEST PUSH1 0x5 SLOAD DUP2 LT PUSH2 0x253E JUMPI DUP3 PUSH1 0x0 MSTORE PUSH1 0x8 DUP3 MSTORE PUSH1 0x40 PUSH1 0x0 KECCAK256 SWAP1 PUSH1 0x9 DUP4 MSTORE PUSH1 0x40 PUSH1 0x0 KECCAK256 CALLER PUSH1 0x0 MSTORE DUP4 MSTORE PUSH1 0x40 PUSH1 0x0 KECCAK256 SWAP2 PUSH1 0x40 MLOAD SWAP4 PUSH4 0x23B872DD PUSH1 0xE0 SHL DUP6 MSTORE CALLER PUSH1 0x4 DUP7 ADD MSTORE ADDRESS PUSH1 0x24 DUP7 ADD MSTORE DUP3 PUSH1 0x44 DUP7 ADD MSTORE PUSH1 0x1 DUP1 PUSH1 0xA0 SHL SUB SWAP5 DUP2 DUP2 PUSH1 0x64 DUP2 PUSH1 0x0 DUP11 PUSH32 0x0 AND GAS CALL DUP1 ISZERO PUSH2 0x4B0 JUMPI PUSH2 0x22BE SWAP2 PUSH1 0x0 SWAP2 PUSH2 0x2521 JUMPI POP PUSH2 0x2AC5 JUMP JUMPDEST PUSH1 0x2 DUP3 ADD SWAP5 PUSH1 0x3 DUP7 SLOAD SWAP4 ADD SWAP3 DUP4 SLOAD SWAP1 PUSH2 0x22D7 DUP3 DUP3 PUSH2 0x2B08 JUMP JUMPDEST SWAP1 DUP2 PUSH2 0x24DA JUMPI POP POP POP PUSH2 0x1388 SWAP5 JUMPDEST DUP9 ISZERO PUSH2 0x247E JUMPI DUP1 SLOAD ISZERO PUSH2 0x2473 JUMPI PUSH1 0x2 DUP2 ADD PUSH2 0x232B DUP2 SLOAD PUSH2 0x2325 DUP9 PUSH2 0x231F DUP12 PUSH2 0x2319 DUP4 PUSH2 0x2313 DUP11 SLOAD DUP1 SWAP9 PUSH2 0x2B15 JUMP JUMPDEST SWAP3 PUSH2 0x2B15 JUMP JUMPDEST SWAP1 PUSH2 0x2B08 JUMP JUMPDEST SWAP3 PUSH2 0x2B08 JUMP JUMPDEST SWAP1 PUSH2 0x2B28 JUMP JUMPDEST SWAP1 SSTORE JUMPDEST PUSH2 0x2339 DUP6 DUP3 SLOAD PUSH2 0x2B08 JUMP JUMPDEST SWAP1 SSTORE PUSH2 0x2346 DUP5 DUP8 SLOAD PUSH2 0x2B08 JUMP JUMPDEST DUP7 SSTORE JUMPDEST DUP7 PUSH1 0x0 MSTORE PUSH1 0xB DUP3 MSTORE PUSH1 0x40 PUSH1 0x0 KECCAK256 CALLER PUSH1 0x0 MSTORE DUP3 MSTORE PUSH1 0xFF PUSH1 0x40 PUSH1 0x0 KECCAK256 SLOAD AND ISZERO PUSH2 0x23C5 JUMPI JUMPDEST POP POP SWAP3 SLOAD SWAP3 SLOAD PUSH1 0x40 DUP1 MLOAD SWAP7 ISZERO ISZERO DUP8 MSTORE PUSH1 0x20 DUP8 ADD SWAP3 SWAP1 SWAP3 MSTORE SWAP1 DUP6 ADD SWAP2 SWAP1 SWAP2 MSTORE PUSH1 0x60 DUP5 ADD SWAP2 SWAP1 SWAP2 MSTORE PUSH1 0x80 DUP4 ADD MSTORE CALLER SWAP2 PUSH32 0x9D96CBAF9F1BD1503D63DE41A4073076EF2D1EB13173E69062336319A0D39369 SWAP1 DUP1 PUSH1 0xA0 DUP2 ADD JUMPDEST SUB SWAP1 LOG3 STOP JUMPDEST SWAP2 SWAP1 SWAP5 DUP7 PUSH1 0x0 MSTORE PUSH1 0xA DUP7 MSTORE PUSH1 0x40 PUSH1 0x0 KECCAK256 SWAP6 DUP7 SLOAD SWAP4 PUSH9 0x10000000000000000 DUP6 LT ISZERO PUSH2 0x245D JUMPI PUSH2 0x241E DUP6 PUSH32 0x9D96CBAF9F1BD1503D63DE41A4073076EF2D1EB13173E69062336319A0D39369 SWAP10 PUSH1 0x1 PUSH2 0x23C0 SWAP9 ADD DUP2 SSTORE PUSH2 0x2887 JUMP JUMPDEST DUP2 SWAP3 SWAP2 SLOAD SWAP1 PUSH1 0x3 SHL SWAP2 CALLER DUP4 SHL SWAP3 SHL NOT AND OR SWAP1 SSTORE DUP8 PUSH1 0x0 MSTORE PUSH1 0xB DUP2 MSTORE PUSH1 0x40 PUSH1 0x0 KECCAK256 SWAP1 CALLER PUSH1 0x0 MSTORE MSTORE PUSH1 0x40 PUSH1 0x0 KECCAK256 PUSH1 0x1 PUSH1 0xFF NOT DUP3 SLOAD AND OR SWAP1 SSTORE SWAP5 DUP2 SWAP3 POP PUSH2 0x236B JUMP JUMPDEST PUSH4 0x4E487B71 PUSH1 0xE0 SHL PUSH1 0x0 MSTORE PUSH1 0x41 PUSH1 0x4 MSTORE PUSH1 0x24 PUSH1 0x0 REVERT JUMPDEST DUP6 PUSH1 0x2 DUP3 ADD SSTORE PUSH2 0x232E JUMP JUMPDEST PUSH1 0x1 DUP2 ADD DUP1 SLOAD SWAP1 SWAP2 DUP8 SWAP2 ISZERO PUSH2 0x24D1 JUMPI PUSH1 0x3 SWAP2 POP ADD PUSH2 0x24AF DUP2 SLOAD PUSH2 0x2325 DUP9 PUSH2 0x231F DUP12 PUSH2 0x2319 DUP4 PUSH2 0x2313 DUP11 SLOAD DUP1 SWAP9 PUSH2 0x2B15 JUMP JUMPDEST SWAP1 SSTORE JUMPDEST PUSH2 0x24BD DUP6 DUP3 SLOAD PUSH2 0x2B08 JUMP JUMPDEST SWAP1 SSTORE PUSH2 0x24CA DUP5 DUP5 SLOAD PUSH2 0x2B08 JUMP JUMPDEST DUP4 SSTORE PUSH2 0x2349 JUMP JUMPDEST PUSH1 0x3 ADD SSTORE PUSH2 0x24B2 JUMP JUMPDEST DUP11 ISZERO PUSH2 0x2504 JUMPI POP PUSH2 0x2710 SWAP2 DUP3 DUP2 MUL SWAP3 DUP2 DUP5 DIV EQ SWAP1 ISZERO OR ISZERO PUSH2 0x1076 JUMPI PUSH2 0x24FE SWAP2 PUSH2 0x2B28 JUMP JUMPDEST SWAP5 PUSH2 0x22E5 JUMP JUMPDEST PUSH2 0x2710 DUP1 DUP3 MUL SWAP4 POP DUP2 ISZERO SWAP2 DUP5 DIV EQ OR ISZERO PUSH2 0x1076 JUMPI PUSH2 0x24FE SWAP2 PUSH2 0x2B28 JUMP JUMPDEST PUSH2 0x2538 SWAP2 POP DUP4 RETURNDATASIZE DUP6 GT PUSH2 0x4A9 JUMPI PUSH2 0x49B DUP2 DUP4 PUSH2 0x2959 JUMP JUMPDEST DUP10 PUSH2 0xF34 JUMP JUMPDEST PUSH1 0x40 MLOAD PUSH3 0x461BCD PUSH1 0xE5 SHL DUP2 MSTORE PUSH1 0x4 DUP2 ADD DUP4 SWAP1 MSTORE PUSH1 0x11 PUSH1 0x24 DUP3 ADD MSTORE PUSH17 0x10995B1BDDC81B5A5B9A5B5D5B4818995D PUSH1 0x7A SHL PUSH1 0x44 DUP3 ADD MSTORE PUSH1 0x64 SWAP1 REVERT JUMPDEST CALLVALUE PUSH2 0x2C4 JUMPI PUSH1 0x20 CALLDATASIZE PUSH1 0x3 NOT ADD SLT PUSH2 0x2C4 JUMPI PUSH1 0x4 CALLDATALOAD PUSH1 0x0 MSTORE PUSH1 0x8 PUSH1 0x20 MSTORE PUSH1 0x20 PUSH1 0x40 PUSH1 0x0 KECCAK256 PUSH1 0xFF DUP2 SLOAD AND SWAP1 DUP2 PUSH2 0x25DE JUMPI JUMPDEST DUP2 PUSH2 0x25CB JUMPI JUMPDEST DUP2 PUSH2 0x25BD JUMPI JUMPDEST POP PUSH1 0x40 MLOAD SWAP1 ISZERO ISZERO DUP2 MSTORE RETURN JUMPDEST PUSH1 0x1 SWAP2 POP ADD SLOAD TIMESTAMP LT DUP3 PUSH2 0x25B2 JUMP JUMPDEST PUSH1 0x4 DUP2 ADD SLOAD PUSH1 0x8 SHR PUSH1 0xFF AND ISZERO SWAP2 POP PUSH2 0x25AC JUMP JUMPDEST PUSH1 0x4 DUP2 ADD SLOAD PUSH1 0xFF AND ISZERO SWAP2 POP PUSH2 0x25A6 JUMP JUMPDEST CALLVALUE PUSH2 0x2C4 JUMPI PUSH2 0x595 PUSH2 0x2608 PUSH2 0x2602 CALLDATASIZE PUSH2 0x27F1 JUMP JUMPDEST SWAP2 PUSH2 0x2B55 JUMP JUMPDEST PUSH1 0x40 DUP1 MLOAD SWAP4 DUP5 MSTORE PUSH1 0x20 DUP5 ADD SWAP3 SWAP1 SWAP3 MSTORE SWAP1 DUP3 ADD MSTORE SWAP1 DUP2 SWAP1 PUSH1 0x60 DUP3 ADD SWAP1 JUMP JUMPDEST CALLVALUE PUSH2 0x2C4 JUMPI PUSH1 0x20 CALLDATASIZE PUSH1 0x3 NOT ADD SLT PUSH2 0x2C4 JUMPI PUSH32 0xC5DBBC1A39078C6D41F75645288952AF1ADCE3154214371D76E7735665642453 PUSH1 0x80 PUSH1 0x4 CALLDATALOAD PUSH2 0x2671 PUSH1 0x1 DUP1 PUSH1 0xA0 SHL SUB PUSH1 0x0 SLOAD AND CALLER EQ PUSH2 0x2C90 JUMP JUMPDEST PUSH2 0x267F PUSH2 0x1F4 DUP3 GT ISZERO PUSH2 0x2D06 JUMP JUMPDEST DUP1 PUSH1 0x2 SSTORE PUSH1 0x40 MLOAD SWAP1 PUSH1 0x40 DUP3 MSTORE PUSH1 0xB PUSH1 0x40 DUP4 ADD MSTORE PUSH11 0x706C6174666F726D466565 PUSH1 0xA8 SHL PUSH1 0x60 DUP4 ADD MSTORE PUSH1 0x20 DUP3 ADD MSTORE LOG1 STOP JUMPDEST CALLVALUE PUSH2 0x2C4 JUMPI PUSH1 0x20 CALLDATASIZE PUSH1 0x3 NOT ADD SLT PUSH2 0x2C4 JUMPI PUSH32 0xC5DBBC1A39078C6D41F75645288952AF1ADCE3154214371D76E7735665642453 PUSH1 0x80 PUSH1 0x4 CALLDATALOAD PUSH2 0x26FA PUSH1 0x1 DUP1 PUSH1 0xA0 SHL SUB PUSH1 0x0 SLOAD AND CALLER EQ PUSH2 0x2C90 JUMP JUMPDEST PUSH2 0x2707 PUSH1 0xC8 DUP3 GT ISZERO PUSH2 0x2D4A JUMP JUMPDEST DUP1 PUSH1 0x3 SSTORE PUSH1 0x40 MLOAD SWAP1 PUSH1 0x40 DUP3 MSTORE PUSH1 0xA PUSH1 0x40 DUP4 ADD MSTORE PUSH10 0x63726561746F72466565 PUSH1 0xB0 SHL PUSH1 0x60 DUP4 ADD MSTORE PUSH1 0x20 DUP3 ADD MSTORE LOG1 STOP JUMPDEST CALLVALUE PUSH2 0x2C4 JUMPI PUSH1 0x20 CALLDATASIZE PUSH1 0x3 NOT ADD SLT PUSH2 0x2C4 JUMPI PUSH2 0x160 SWAP1 PUSH1 0x4 CALLDATALOAD PUSH1 0x0 MSTORE PUSH1 0x8 PUSH1 0x20 MSTORE PUSH1 0x40 PUSH1 0x0 KECCAK256 DUP1 SLOAD SWAP1 PUSH1 0x1 DUP2 ADD SLOAD PUSH1 0xFF PUSH1 0x2 DUP4 ADD SLOAD PUSH1 0x3 DUP5 ADD SLOAD PUSH1 0x4 DUP6 ADD SLOAD SWAP2 PUSH1 0x5 DUP7 ADD SLOAD SWAP5 PUSH1 0x7 PUSH1 0x6 DUP9 ADD SLOAD SWAP8 ADD SLOAD SWAP8 DUP6 DUP2 AND ISZERO ISZERO DUP11 MSTORE PUSH1 0x1 DUP1 PUSH1 0xA0 SHL SUB SWAP1 PUSH1 0x8 SHR AND PUSH1 0x20 DUP11 ADD MSTORE PUSH1 0x40 DUP10 ADD MSTORE PUSH1 0x60 DUP9 ADD MSTORE PUSH1 0x80 DUP8 ADD MSTORE DUP2 DUP2 AND ISZERO ISZERO PUSH1 0xA0 DUP8 ADD MSTORE DUP2 DUP2 PUSH1 0x8 SHR AND ISZERO ISZERO PUSH1 0xC0 DUP8 ADD MSTORE PUSH1 0x10 SHR AND ISZERO ISZERO PUSH1 0xE0 DUP6 ADD MSTORE PUSH2 0x100 DUP5 ADD MSTORE PUSH2 0x120 DUP4 ADD MSTORE PUSH2 0x140 DUP3 ADD MSTORE RETURN JUMPDEST PUSH1 0x24 CALLDATALOAD SWAP1 DUP2 ISZERO ISZERO DUP3 SUB PUSH2 0x2C4 JUMPI JUMP JUMPDEST PUSH1 0x60 SWAP1 PUSH1 0x3 NOT ADD SLT PUSH2 0x2C4 JUMPI PUSH1 0x4 CALLDATALOAD SWAP1 PUSH1 0x24 CALLDATALOAD DUP1 ISZERO ISZERO DUP2 SUB PUSH2 0x2C4 JUMPI SWAP1 PUSH1 0x44 CALLDATALOAD SWAP1 JUMP JUMPDEST PUSH1 0x4 CALLDATALOAD SWAP1 PUSH1 0x1 PUSH1 0x1 PUSH1 0xA0 SHL SUB DUP3 AND DUP3 SUB PUSH2 0x2C4 JUMPI JUMP JUMPDEST PUSH1 0x24 CALLDATALOAD SWAP1 PUSH1 0x1 PUSH1 0x1 PUSH1 0xA0 SHL SUB DUP3 AND DUP3 SUB PUSH2 0x2C4 JUMPI JUMP JUMPDEST SWAP2 DUP2 PUSH1 0x1F DUP5 ADD SLT ISZERO PUSH2 0x2C4 JUMPI DUP3 CALLDATALOAD SWAP2 PUSH8 0xFFFFFFFFFFFFFFFF DUP4 GT PUSH2 0x2C4 JUMPI PUSH1 0x20 DUP1 DUP6 ADD SWAP5 DUP5 PUSH1 0x5 SHL ADD ADD GT PUSH2 0x2C4 JUMPI JUMP JUMPDEST PUSH1 0x40 SWAP1 PUSH1 0x3 NOT ADD SLT PUSH2 0x2C4 JUMPI PUSH1 0x4 CALLDATALOAD SWAP1 PUSH1 0x24 CALLDATALOAD SWAP1 JUMP JUMPDEST DUP1 SLOAD DUP3 LT ISZERO PUSH2 0x289F JUMPI PUSH1 0x0 MSTORE PUSH1 0x20 PUSH1 0x0 KECCAK256 ADD SWAP1 PUSH1 0x0 SWAP1 JUMP JUMPDEST PUSH4 0x4E487B71 PUSH1 0xE0 SHL PUSH1 0x0 MSTORE PUSH1 0x32 PUSH1 0x4 MSTORE PUSH1 0x24 PUSH1 0x0 REVERT JUMPDEST ISZERO PUSH2 0x28BC JUMPI JUMP JUMPDEST PUSH1 0x40 MLOAD PUSH3 0x461BCD PUSH1 0xE5 SHL DUP2 MSTORE PUSH1 0x20 PUSH1 0x4 DUP3 ADD MSTORE PUSH1 0xC PUSH1 0x24 DUP3 ADD MSTORE PUSH12 0x2737BA103932B9B7B63B32B9 PUSH1 0xA1 SHL PUSH1 0x44 DUP3 ADD MSTORE PUSH1 0x64 SWAP1 REVERT JUMPDEST ISZERO PUSH2 0x28F7 JUMPI JUMP JUMPDEST PUSH1 0x40 MLOAD PUSH3 0x461BCD PUSH1 0xE5 SHL DUP2 MSTORE PUSH1 0x20 PUSH1 0x4 DUP3 ADD MSTORE PUSH1 0x17 PUSH1 0x24 DUP3 ADD MSTORE PUSH32 0x446561646C696E65206D75737420626520667574757265000000000000000000 PUSH1 0x44 DUP3 ADD MSTORE PUSH1 0x64 SWAP1 REVERT JUMPDEST PUSH2 0x160 DUP2 ADD SWAP1 DUP2 LT PUSH8 0xFFFFFFFFFFFFFFFF DUP3 GT OR PUSH2 0x245D JUMPI PUSH1 0x40 MSTORE JUMP JUMPDEST SWAP1 PUSH1 0x1F DUP1 NOT SWAP2 ADD AND DUP2 ADD SWAP1 DUP2 LT PUSH8 0xFFFFFFFFFFFFFFFF DUP3 GT OR PUSH2 0x245D JUMPI PUSH1 0x40 MSTORE JUMP JUMPDEST SWAP2 SWAP1 DUP2 LT ISZERO PUSH2 0x289F JUMPI PUSH1 0x5 SHL ADD SWAP1 JUMP JUMPDEST CALLDATALOAD PUSH1 0x1 PUSH1 0x1 PUSH1 0xA0 SHL SUB DUP2 AND DUP2 SUB PUSH2 0x2C4 JUMPI SWAP1 JUMP JUMPDEST ISZERO PUSH2 0x29A6 JUMPI JUMP JUMPDEST PUSH1 0x40 MLOAD PUSH3 0x461BCD PUSH1 0xE5 SHL DUP2 MSTORE PUSH1 0x20 PUSH1 0x4 DUP3 ADD MSTORE PUSH1 0x19 PUSH1 0x24 DUP3 ADD MSTORE PUSH32 0x50726564696374696F6E206E6F74207265676973746572656400000000000000 PUSH1 0x44 DUP3 ADD MSTORE PUSH1 0x64 SWAP1 REVERT JUMPDEST ISZERO PUSH2 0x29F2 JUMPI JUMP JUMPDEST PUSH1 0x40 MLOAD PUSH3 0x461BCD PUSH1 0xE5 SHL DUP2 MSTORE PUSH1 0x20 PUSH1 0x4 DUP3 ADD MSTORE PUSH1 0x13 PUSH1 0x24 DUP3 ADD MSTORE PUSH19 0x141C99591A58DD1A5BDB881C995CDBDB1D9959 PUSH1 0x6A SHL PUSH1 0x44 DUP3 ADD MSTORE PUSH1 0x64 SWAP1 REVERT JUMPDEST ISZERO PUSH2 0x2A34 JUMPI JUMP JUMPDEST PUSH1 0x40 MLOAD PUSH3 0x461BCD PUSH1 0xE5 SHL DUP2 MSTORE PUSH1 0x20 PUSH1 0x4 DUP3 ADD MSTORE PUSH1 0x14 PUSH1 0x24 DUP3 ADD MSTORE PUSH20 0x141C99591A58DD1A5BDB8818D85B98D95B1B1959 PUSH1 0x62 SHL PUSH1 0x44 DUP3 ADD MSTORE PUSH1 0x64 SWAP1 REVERT JUMPDEST ISZERO PUSH2 0x2A77 JUMPI JUMP JUMPDEST PUSH1 0x40 MLOAD PUSH3 0x461BCD PUSH1 0xE5 SHL DUP2 MSTORE PUSH1 0x20 PUSH1 0x4 DUP3 ADD MSTORE PUSH1 0xE PUSH1 0x24 DUP3 ADD MSTORE PUSH14 0x10995D1D1A5B99C818DB1BDCD959 PUSH1 0x92 SHL PUSH1 0x44 DUP3 ADD MSTORE PUSH1 0x64 SWAP1 REVERT JUMPDEST SWAP1 DUP2 PUSH1 0x20 SWAP2 SUB SLT PUSH2 0x2C4 JUMPI MLOAD DUP1 ISZERO ISZERO DUP2 SUB PUSH2 0x2C4 JUMPI SWAP1 JUMP JUMPDEST ISZERO PUSH2 0x2ACC JUMPI JUMP JUMPDEST PUSH1 0x40 MLOAD PUSH3 0x461BCD PUSH1 0xE5 SHL DUP2 MSTORE PUSH1 0x20 PUSH1 0x4 DUP3 ADD MSTORE PUSH1 0x14 PUSH1 0x24 DUP3 ADD MSTORE PUSH20 0x1554D110C81D1C985B9CD9995C8819985A5B1959 PUSH1 0x62 SHL PUSH1 0x44 DUP3 ADD MSTORE PUSH1 0x64 SWAP1 REVERT JUMPDEST SWAP2 SWAP1 DUP3 ADD DUP1 SWAP3 GT PUSH2 0x1076 JUMPI JUMP JUMPDEST DUP2 DUP2 MUL SWAP3 SWAP2 DUP2 ISZERO SWAP2 DUP5 DIV EQ OR ISZERO PUSH2 0x1076 JUMPI JUMP JUMPDEST DUP2 ISZERO PUSH2 0x2B32 JUMPI DIV SWAP1 JUMP JUMPDEST PUSH4 0x4E487B71 PUSH1 0xE0 SHL PUSH1 0x0 MSTORE PUSH1 0x12 PUSH1 0x4 MSTORE PUSH1 0x24 PUSH1 0x0 REVERT JUMPDEST SWAP2 SWAP1 DUP3 SUB SWAP2 DUP3 GT PUSH2 0x1076 JUMPI JUMP JUMPDEST SWAP3 SWAP2 SWAP1 PUSH1 0x0 SWAP4 DUP5 MSTORE PUSH1 0x8 PUSH1 0x20 MSTORE PUSH1 0x40 DUP5 KECCAK256 PUSH1 0x3 PUSH1 0x2 DUP3 ADD SLOAD SWAP2 ADD SLOAD SWAP1 PUSH2 0x2B7B DUP3 DUP3 PUSH2 0x2B08 JUMP JUMPDEST SWAP3 DUP4 ISZERO PUSH2 0x2C07 JUMPI ISZERO PUSH2 0x2C00 JUMPI POP JUMPDEST DUP1 PUSH2 0x2BB2 JUMPI POP POP DUP1 SWAP2 SWAP3 POP SWAP2 PUSH2 0x2BAF PUSH2 0x2710 PUSH2 0x2BA7 PUSH1 0x4 SLOAD DUP6 PUSH2 0x2B15 JUMP JUMPDEST DIV DUP1 SWAP4 PUSH2 0x2B48 JUMP JUMPDEST SWAP1 JUMP JUMPDEST PUSH2 0x2710 SWAP5 DUP6 DUP3 MUL SWAP2 DUP3 DIV DUP7 SUB PUSH2 0x2BEC JUMPI POP SWAP2 PUSH2 0x1E89 PUSH2 0x2BD2 SWAP3 DUP7 SWAP5 PUSH2 0x2B28 JUMP JUMPDEST DIV SWAP2 PUSH2 0x2BE0 PUSH1 0x4 SLOAD DUP5 PUSH2 0x2B15 JUMP JUMPDEST DIV SWAP1 PUSH2 0x2BAF DUP3 DUP5 PUSH2 0x2B48 JUMP JUMPDEST PUSH4 0x4E487B71 PUSH1 0xE0 SHL DUP2 MSTORE PUSH1 0x11 PUSH1 0x4 MSTORE PUSH1 0x24 SWAP1 REVERT JUMPDEST SWAP1 POP PUSH2 0x2B89 JUMP JUMPDEST POP POP POP POP POP SWAP1 DUP1 SWAP2 DUP2 SWAP1 JUMP JUMPDEST ISZERO PUSH2 0x2C1A JUMPI JUMP JUMPDEST PUSH1 0x40 MLOAD PUSH3 0x461BCD PUSH1 0xE5 SHL DUP2 MSTORE PUSH1 0x20 PUSH1 0x4 DUP3 ADD MSTORE PUSH1 0x10 PUSH1 0x24 DUP3 ADD MSTORE PUSH16 0x105B1C9958591E481C995CDBDB1D9959 PUSH1 0x82 SHL PUSH1 0x44 DUP3 ADD MSTORE PUSH1 0x64 SWAP1 REVERT JUMPDEST ISZERO PUSH2 0x2C59 JUMPI JUMP JUMPDEST PUSH1 0x40 MLOAD PUSH3 0x461BCD PUSH1 0xE5 SHL DUP2 MSTORE PUSH1 0x20 PUSH1 0x4 DUP3 ADD MSTORE PUSH1 0xF PUSH1 0x24 DUP3 ADD MSTORE PUSH15 0x105B1C9958591E4818DB185A5B5959 PUSH1 0x8A SHL PUSH1 0x44 DUP3 ADD MSTORE PUSH1 0x64 SWAP1 REVERT JUMPDEST ISZERO PUSH2 0x2C97 JUMPI JUMP JUMPDEST PUSH1 0x40 MLOAD PUSH3 0x461BCD PUSH1 0xE5 SHL DUP2 MSTORE PUSH1 0x20 PUSH1 0x4 DUP3 ADD MSTORE PUSH1 0x9 PUSH1 0x24 DUP3 ADD MSTORE PUSH9 0x2737BA1037BBB732B9 PUSH1 0xB9 SHL PUSH1 0x44 DUP3 ADD MSTORE PUSH1 0x64 SWAP1 REVERT JUMPDEST ISZERO PUSH2 0x2CCF JUMPI JUMP JUMPDEST PUSH1 0x40 MLOAD PUSH3 0x461BCD PUSH1 0xE5 SHL DUP2 MSTORE PUSH1 0x20 PUSH1 0x4 DUP3 ADD MSTORE PUSH1 0xF PUSH1 0x24 DUP3 ADD MSTORE PUSH15 0x496E76616C69642061646472657373 PUSH1 0x88 SHL PUSH1 0x44 DUP3 ADD MSTORE PUSH1 0x64 SWAP1 REVERT JUMPDEST ISZERO PUSH2 0x2D0D JUMPI JUMP JUMPDEST PUSH1 0x40 MLOAD PUSH3 0x461BCD PUSH1 0xE5 SHL DUP2 MSTORE PUSH1 0x20 PUSH1 0x4 DUP3 ADD MSTORE PUSH1 0x15 PUSH1 0x24 DUP3 ADD MSTORE PUSH21 0xA0D8C2E8CCDEE4DA40CCCACA40E8DEDE40D0D2CED PUSH1 0x5B SHL PUSH1 0x44 DUP3 ADD MSTORE PUSH1 0x64 SWAP1 REVERT JUMPDEST ISZERO PUSH2 0x2D51 JUMPI JUMP JUMPDEST PUSH1 0x40 MLOAD PUSH3 0x461BCD PUSH1 0xE5 SHL DUP2 MSTORE PUSH1 0x20 PUSH1 0x4 DUP3 ADD MSTORE PUSH1 0x14 PUSH1 0x24 DUP3 ADD MSTORE PUSH20 0x86E4CAC2E8DEE440CCCACA40E8DEDE40D0D2CED PUSH1 0x63 SHL PUSH1 0x44 DUP3 ADD MSTORE PUSH1 0x64 SWAP1 REVERT JUMPDEST ISZERO PUSH2 0x2D94 JUMPI JUMP JUMPDEST PUSH1 0x40 MLOAD PUSH3 0x461BCD PUSH1 0xE5 SHL DUP2 MSTORE PUSH1 0x20 PUSH1 0x4 DUP3 ADD MSTORE PUSH1 0x17 PUSH1 0x24 DUP3 ADD MSTORE PUSH32 0x4561726C7920657869742066656520746F6F2068696768000000000000000000 PUSH1 0x44 DUP3 ADD MSTORE PUSH1 0x64 SWAP1 REVERT JUMPDEST SWAP1 PUSH1 0x0 SWAP2 DUP3 MSTORE PUSH1 0x8 PUSH1 0x20 MSTORE PUSH1 0x40 DUP3 KECCAK256 SWAP2 PUSH1 0x3 PUSH1 0x2 DUP5 ADD SLOAD SWAP4 ADD SLOAD PUSH2 0x2DFD DUP2 DUP6 PUSH2 0x2B08 JUMP JUMPDEST SWAP2 DUP3 ISZERO PUSH2 0x2E53 JUMPI PUSH2 0x2710 SWAP2 DUP3 DUP2 MUL SWAP1 DUP1 DUP3 DIV DUP5 EQ SWAP1 ISZERO OR ISZERO PUSH2 0x2E3F JUMPI DUP4 PUSH2 0x2E23 SWAP2 PUSH2 0x2B28 JUMP JUMPDEST SWAP5 DUP3 DUP2 MUL SWAP3 DUP2 DUP5 DIV EQ SWAP1 ISZERO OR ISZERO PUSH2 0x2BEC JUMPI POP SWAP1 PUSH2 0x2BAF SWAP2 PUSH2 0x2B28 JUMP JUMPDEST PUSH4 0x4E487B71 PUSH1 0xE0 SHL DUP3 MSTORE PUSH1 0x11 PUSH1 0x4 MSTORE PUSH1 0x24 DUP3 REVERT JUMPDEST POP POP POP SWAP1 POP PUSH2 0x1388 SWAP1 DUP2 SWAP1 JUMP INVALID LOG2 PUSH5 0x6970667358 0x22 SLT KECCAK256 0x49 DUP9 0xB7 DUP9 0x4C 0x2E 0xCB SWAP16 SWAP9 PUSH7 0xB98BBAA7BFC227 0xC4 0xF6 STATICCALL SWAP3 0xBD 0xE3 0xB5 SIGNEXTEND PUSH6 0xCEB5BA8C8F18 PUSH5 0x736F6C6343 STOP ADDMOD EQ STOP CALLER "},"methodIdentifiers":{"BASIS_POINTS()":"e1f1c4a7","MAX_CREATOR_FEE()":"8f9d0e6d","MAX_EARLY_EXIT_FEE()":"9b5bd1b8","MAX_PLATFORM_FEE()":"3998a681","MIN_BET_FLOOR()":"f31534c4","acceptOwnership()":"79ba5097","calculateExitValue(uint256,bool,uint256)":"13686b4a","calculatePotentialWinnings(uint256,bool,uint256)":"3883ef02","cancelPrediction(uint256,string)":"56f287f9","claimRefund(uint256)":"5b7baf64","claimWinnings(uint256)":"677bd9ff","creatorFee()":"e88958dc","earlyExitFee()":"628658ff","emergencyWithdraw(address,uint256)":"95ccea67","exitEarly(uint256,bool,uint256)":"807babd2","getContractStats()":"dfe6b5d6","getFeeConfig()":"5fbbc0d2","getParticipantCount(uint256)":"86ae5fec","getParticipants(uint256)":"c1e3bd3e","getPosition(uint256,address)":"d29f541d","getPrediction(uint256)":"fe83bece","getPrices(uint256)":"91492956","isPredictionActive(uint256)":"16cca59a","minBet()":"9619367d","owner()":"8da5cb5b","participants(uint256,uint256)":"81fb1fb4","pendingOwner()":"e30c3978","placeBet(uint256,bool,uint256)":"1a38cac6","platformFee()":"26232a2e","platformFeeBalance()":"e3c98ba0","positions(uint256,address)":"e684d718","predictions(uint256)":"004fbbb0","registerPrediction(uint256,address,uint256)":"e566fe5c","registerPredictionsBatch(uint256[],address[],uint256[])":"3a814a9f","rescueOrphanedUSDC(uint256)":"217026cf","resolvePrediction(uint256,bool)":"76f34501","resolvers(address)":"b93793e9","setAllFees(uint256,uint256,uint256)":"cb01a4bf","setCreatorFee(uint256)":"0dd16fd5","setEarlyExitFee(uint256)":"1bf1e079","setMinBet(uint256)":"88ea41b9","setPlatformFee(uint256)":"12e8e2c3","setResolver(address,bool)":"1da6ed7c","transferOwnership(address)":"f2fde38b","updateDeadline(uint256,uint256)":"899b184f","usdc()":"3e413bee","withdrawPlatformFees(address)":"ec3889b5"}}}}}