{"contracts/SwipeDailyRewards_V3.sol":{"SwipeDailyRewards_V3":{"abi":[{"inputs":[{"internalType":"address","name":"_swipeToken","type":"address"},{"internalType":"address","name":"_taskVerifier","type":"address"},{"internalType":"address","name":"_v1Contract","type":"address"},{"internalType":"address","name":"_v2Contract","type":"address"}],"stateMutability":"nonpayable","type":"constructor"},{"anonymous":false,"inputs":[{"indexed":true,"internalType":"address","name":"user","type":"address"},{"indexed":false,"internalType":"string","name":"achievement","type":"string"},{"indexed":false,"internalType":"uint256","name":"reward","type":"uint256"}],"name":"AchievementUnlocked","type":"event"},{"anonymous":false,"inputs":[{"indexed":true,"internalType":"address","name":"user","type":"address"},{"indexed":false,"internalType":"bool","name":"blacklisted","type":"bool"}],"name":"BlacklistUpdated","type":"event"},{"anonymous":false,"inputs":[{"indexed":false,"internalType":"bool","name":"enabled","type":"bool"}],"name":"ClaimingToggled","type":"event"},{"anonymous":false,"inputs":[{"indexed":true,"internalType":"address","name":"user","type":"address"},{"indexed":false,"internalType":"uint256","name":"baseAmount","type":"uint256"},{"indexed":false,"internalType":"uint256","name":"streakBonus","type":"uint256"},{"indexed":false,"internalType":"uint256","name":"totalAmount","type":"uint256"},{"indexed":false,"internalType":"uint256","name":"currentStreak","type":"uint256"},{"indexed":false,"internalType":"bool","name":"wonJackpot","type":"bool"}],"name":"DailyClaimed","type":"event"},{"anonymous":false,"inputs":[{"indexed":true,"internalType":"address","name":"to","type":"address"},{"indexed":false,"internalType":"uint256","name":"amount","type":"uint256"}],"name":"EmergencyWithdraw","type":"event"},{"anonymous":false,"inputs":[{"indexed":false,"internalType":"bool","name":"isPaused","type":"bool"}],"name":"Paused","type":"event"},{"anonymous":false,"inputs":[{"indexed":true,"internalType":"address","name":"referrer","type":"address"},{"indexed":true,"internalType":"address","name":"referred","type":"address"},{"indexed":false,"internalType":"uint256","name":"rewardEach","type":"uint256"}],"name":"ReferralRegistered","type":"event"},{"anonymous":false,"inputs":[{"indexed":false,"internalType":"string","name":"rewardType","type":"string"},{"indexed":false,"internalType":"uint256","name":"oldValue","type":"uint256"},{"indexed":false,"internalType":"uint256","name":"newValue","type":"uint256"}],"name":"RewardUpdated","type":"event"},{"anonymous":false,"inputs":[{"indexed":true,"internalType":"address","name":"from","type":"address"},{"indexed":false,"internalType":"uint256","name":"amount","type":"uint256"}],"name":"SwipeDeposited","type":"event"},{"anonymous":false,"inputs":[{"indexed":true,"internalType":"address","name":"user","type":"address"},{"indexed":false,"internalType":"string","name":"taskType","type":"string"},{"indexed":false,"internalType":"uint256","name":"reward","type":"uint256"}],"name":"TaskCompleted","type":"event"},{"anonymous":false,"inputs":[{"indexed":true,"internalType":"address","name":"newVerifier","type":"address"}],"name":"TaskVerifierUpdated","type":"event"},{"anonymous":false,"inputs":[{"indexed":true,"internalType":"address","name":"user","type":"address"},{"indexed":false,"internalType":"uint256","name":"streak","type":"uint256"},{"indexed":false,"internalType":"bool","name":"achievements","type":"bool"}],"name":"UserMigrated","type":"event"},{"inputs":[],"name":"baseDailyReward","outputs":[{"internalType":"uint256","name":"","type":"uint256"}],"stateMutability":"view","type":"function"},{"inputs":[{"internalType":"address[]","name":"usersToMigrate","type":"address[]"}],"name":"batchMigrateFromV2","outputs":[],"stateMutability":"nonpayable","type":"function"},{"inputs":[{"internalType":"address[]","name":"userAddresses","type":"address[]"},{"internalType":"bool[]","name":"blacklisted","type":"bool[]"}],"name":"batchSetBlacklist","outputs":[],"stateMutability":"nonpayable","type":"function"},{"inputs":[],"name":"betaTesterReward","outputs":[{"internalType":"uint256","name":"","type":"uint256"}],"stateMutability":"view","type":"function"},{"inputs":[{"internalType":"address","name":"","type":"address"}],"name":"blacklist","outputs":[{"internalType":"bool","name":"","type":"bool"}],"stateMutability":"view","type":"function"},{"inputs":[{"internalType":"string","name":"achievementType","type":"string"},{"internalType":"bytes","name":"signature","type":"bytes"}],"name":"claimAchievement","outputs":[],"stateMutability":"nonpayable","type":"function"},{"inputs":[{"internalType":"bytes","name":"signature","type":"bytes"}],"name":"claimDaily","outputs":[],"stateMutability":"nonpayable","type":"function"},{"inputs":[],"name":"claimingEnabled","outputs":[{"internalType":"bool","name":"","type":"bool"}],"stateMutability":"view","type":"function"},{"inputs":[{"internalType":"string","name":"taskType","type":"string"},{"internalType":"bytes","name":"signature","type":"bytes"}],"name":"completeTask","outputs":[],"stateMutability":"nonpayable","type":"function"},{"inputs":[],"name":"createPredictionReward","outputs":[{"internalType":"uint256","name":"","type":"uint256"}],"stateMutability":"view","type":"function"},{"inputs":[{"internalType":"address","name":"","type":"address"}],"name":"dailyTasks","outputs":[{"internalType":"bool","name":"shareCast","type":"bool"},{"internalType":"bool","name":"createPrediction","type":"bool"},{"internalType":"bool","name":"tradingVolume","type":"bool"},{"internalType":"uint256","name":"resetDay","type":"uint256"}],"stateMutability":"view","type":"function"},{"inputs":[{"internalType":"uint256","name":"amount","type":"uint256"}],"name":"depositSwipe","outputs":[],"stateMutability":"nonpayable","type":"function"},{"inputs":[],"name":"emergencyWithdraw","outputs":[],"stateMutability":"nonpayable","type":"function"},{"inputs":[],"name":"followSocialsReward","outputs":[{"internalType":"uint256","name":"","type":"uint256"}],"stateMutability":"view","type":"function"},{"inputs":[],"name":"getPoolStats","outputs":[{"internalType":"uint256","name":"poolBalance","type":"uint256"},{"internalType":"uint256","name":"distributed","type":"uint256"},{"internalType":"uint256","name":"userCount","type":"uint256"},{"internalType":"uint256","name":"claimCount","type":"uint256"}],"stateMutability":"view","type":"function"},{"inputs":[{"internalType":"address","name":"user","type":"address"}],"name":"getUserAchievements","outputs":[{"internalType":"bool","name":"isBetaTester","type":"bool"},{"internalType":"bool","name":"hasFollowedSocials","type":"bool"},{"internalType":"bool","name":"hasStreak7","type":"bool"},{"internalType":"bool","name":"hasStreak30","type":"bool"},{"internalType":"uint256","name":"referrals","type":"uint256"}],"stateMutability":"view","type":"function"},{"inputs":[{"internalType":"address","name":"user","type":"address"}],"name":"getUserDailyTasks","outputs":[{"internalType":"bool","name":"shareCast","type":"bool"},{"internalType":"bool","name":"createPrediction","type":"bool"},{"internalType":"bool","name":"tradingVolume","type":"bool"},{"internalType":"bool","name":"needsReset","type":"bool"}],"stateMutability":"view","type":"function"},{"inputs":[{"internalType":"address","name":"user","type":"address"}],"name":"getUserStats","outputs":[{"internalType":"uint256","name":"lastClaimTimestamp","type":"uint256"},{"internalType":"uint256","name":"currentStreak","type":"uint256"},{"internalType":"uint256","name":"longestStreak","type":"uint256"},{"internalType":"uint256","name":"totalClaimed","type":"uint256"},{"internalType":"uint256","name":"jackpotsWon","type":"uint256"},{"internalType":"bool","name":"canClaimToday","type":"bool"},{"internalType":"uint256","name":"nextClaimTime","type":"uint256"},{"internalType":"uint256","name":"potentialReward","type":"uint256"},{"internalType":"bool","name":"isMigrated","type":"bool"}],"stateMutability":"view","type":"function"},{"inputs":[{"internalType":"address","name":"","type":"address"}],"name":"hasUsedReferral","outputs":[{"internalType":"bool","name":"","type":"bool"}],"stateMutability":"view","type":"function"},{"inputs":[],"name":"jackpotAmount","outputs":[{"internalType":"uint256","name":"","type":"uint256"}],"stateMutability":"view","type":"function"},{"inputs":[],"name":"jackpotChance","outputs":[{"internalType":"uint256","name":"","type":"uint256"}],"stateMutability":"view","type":"function"},{"inputs":[],"name":"maxStreakBonusDays","outputs":[{"internalType":"uint256","name":"","type":"uint256"}],"stateMutability":"view","type":"function"},{"inputs":[],"name":"migrateFromV1","outputs":[],"stateMutability":"nonpayable","type":"function"},{"inputs":[],"name":"migrateFromV2","outputs":[],"stateMutability":"nonpayable","type":"function"},{"inputs":[],"name":"migrationEnabled","outputs":[{"internalType":"bool","name":"","type":"bool"}],"stateMutability":"view","type":"function"},{"inputs":[],"name":"owner","outputs":[{"internalType":"address","name":"","type":"address"}],"stateMutability":"view","type":"function"},{"inputs":[],"name":"paused","outputs":[{"internalType":"bool","name":"","type":"bool"}],"stateMutability":"view","type":"function"},{"inputs":[{"internalType":"address","name":"","type":"address"}],"name":"referralCount","outputs":[{"internalType":"uint256","name":"","type":"uint256"}],"stateMutability":"view","type":"function"},{"inputs":[],"name":"referralReward","outputs":[{"internalType":"uint256","name":"","type":"uint256"}],"stateMutability":"view","type":"function"},{"inputs":[{"internalType":"address","name":"","type":"address"}],"name":"referredBy","outputs":[{"internalType":"address","name":"","type":"address"}],"stateMutability":"view","type":"function"},{"inputs":[{"internalType":"address","name":"referrer","type":"address"},{"internalType":"bytes","name":"signature","type":"bytes"}],"name":"registerReferral","outputs":[],"stateMutability":"nonpayable","type":"function"},{"inputs":[{"internalType":"uint256","name":"amount","type":"uint256"}],"name":"setBaseDailyReward","outputs":[],"stateMutability":"nonpayable","type":"function"},{"inputs":[{"internalType":"uint256","name":"amount","type":"uint256"}],"name":"setBetaTesterReward","outputs":[],"stateMutability":"nonpayable","type":"function"},{"inputs":[{"internalType":"address","name":"user","type":"address"},{"internalType":"bool","name":"_blacklisted","type":"bool"}],"name":"setBlacklist","outputs":[],"stateMutability":"nonpayable","type":"function"},{"inputs":[{"internalType":"bool","name":"enabled","type":"bool"}],"name":"setClaimingEnabled","outputs":[],"stateMutability":"nonpayable","type":"function"},{"inputs":[{"internalType":"uint256","name":"amount","type":"uint256"}],"name":"setCreatePredictionReward","outputs":[],"stateMutability":"nonpayable","type":"function"},{"inputs":[{"internalType":"uint256","name":"amount","type":"uint256"}],"name":"setFollowSocialsReward","outputs":[],"stateMutability":"nonpayable","type":"function"},{"inputs":[{"internalType":"uint256","name":"amount","type":"uint256"}],"name":"setJackpotAmount","outputs":[],"stateMutability":"nonpayable","type":"function"},{"inputs":[{"internalType":"uint256","name":"chance","type":"uint256"}],"name":"setJackpotChance","outputs":[],"stateMutability":"nonpayable","type":"function"},{"inputs":[{"internalType":"uint256","name":"days_","type":"uint256"}],"name":"setMaxStreakBonusDays","outputs":[],"stateMutability":"nonpayable","type":"function"},{"inputs":[{"internalType":"bool","name":"enabled","type":"bool"}],"name":"setMigrationEnabled","outputs":[],"stateMutability":"nonpayable","type":"function"},{"inputs":[{"internalType":"bool","name":"_paused","type":"bool"}],"name":"setPaused","outputs":[],"stateMutability":"nonpayable","type":"function"},{"inputs":[{"internalType":"uint256","name":"amount","type":"uint256"}],"name":"setReferralReward","outputs":[],"stateMutability":"nonpayable","type":"function"},{"inputs":[{"internalType":"uint256","name":"amount","type":"uint256"}],"name":"setShareCastReward","outputs":[],"stateMutability":"nonpayable","type":"function"},{"inputs":[{"internalType":"uint256","name":"amount","type":"uint256"}],"name":"setStreak30Reward","outputs":[],"stateMutability":"nonpayable","type":"function"},{"inputs":[{"internalType":"uint256","name":"amount","type":"uint256"}],"name":"setStreak7Reward","outputs":[],"stateMutability":"nonpayable","type":"function"},{"inputs":[{"internalType":"uint256","name":"amount","type":"uint256"}],"name":"setStreakBonusPerDay","outputs":[],"stateMutability":"nonpayable","type":"function"},{"inputs":[{"internalType":"address","name":"newVerifier","type":"address"}],"name":"setTaskVerifier","outputs":[],"stateMutability":"nonpayable","type":"function"},{"inputs":[{"internalType":"uint256","name":"amount","type":"uint256"}],"name":"setTradingVolumeReward","outputs":[],"stateMutability":"nonpayable","type":"function"},{"inputs":[],"name":"shareCastReward","outputs":[{"internalType":"uint256","name":"","type":"uint256"}],"stateMutability":"view","type":"function"},{"inputs":[],"name":"streak30Reward","outputs":[{"internalType":"uint256","name":"","type":"uint256"}],"stateMutability":"view","type":"function"},{"inputs":[],"name":"streak7Reward","outputs":[{"internalType":"uint256","name":"","type":"uint256"}],"stateMutability":"view","type":"function"},{"inputs":[],"name":"streakBonusPerDay","outputs":[{"internalType":"uint256","name":"","type":"uint256"}],"stateMutability":"view","type":"function"},{"inputs":[],"name":"swipeToken","outputs":[{"internalType":"contract IERC20","name":"","type":"address"}],"stateMutability":"view","type":"function"},{"inputs":[],"name":"taskVerifier","outputs":[{"internalType":"address","name":"","type":"address"}],"stateMutability":"view","type":"function"},{"inputs":[],"name":"totalClaims","outputs":[{"internalType":"uint256","name":"","type":"uint256"}],"stateMutability":"view","type":"function"},{"inputs":[],"name":"totalDistributed","outputs":[{"internalType":"uint256","name":"","type":"uint256"}],"stateMutability":"view","type":"function"},{"inputs":[],"name":"totalUsers","outputs":[{"internalType":"uint256","name":"","type":"uint256"}],"stateMutability":"view","type":"function"},{"inputs":[],"name":"tradingVolumeReward","outputs":[{"internalType":"uint256","name":"","type":"uint256"}],"stateMutability":"view","type":"function"},{"inputs":[{"internalType":"address","name":"newOwner","type":"address"}],"name":"transferOwnership","outputs":[],"stateMutability":"nonpayable","type":"function"},{"inputs":[{"internalType":"address","name":"","type":"address"}],"name":"users","outputs":[{"internalType":"uint256","name":"lastClaimTimestamp","type":"uint256"},{"internalType":"uint256","name":"currentStreak","type":"uint256"},{"internalType":"uint256","name":"longestStreak","type":"uint256"},{"internalType":"uint256","name":"totalClaimed","type":"uint256"},{"internalType":"uint256","name":"lastTaskResetDay","type":"uint256"},{"internalType":"uint256","name":"jackpotsWon","type":"uint256"},{"internalType":"bool","name":"isBetaTester","type":"bool"},{"internalType":"bool","name":"hasFollowedSocials","type":"bool"},{"internalType":"bool","name":"hasStreak7Achievement","type":"bool"},{"internalType":"bool","name":"hasStreak30Achievement","type":"bool"},{"internalType":"bool","name":"migrated","type":"bool"}],"stateMutability":"view","type":"function"},{"inputs":[],"name":"v1Contract","outputs":[{"internalType":"contract ISwipeDailyRewardsV1","name":"","type":"address"}],"stateMutability":"view","type":"function"},{"inputs":[],"name":"v2Contract","outputs":[{"internalType":"contract ISwipeDailyRewardsV2","name":"","type":"address"}],"stateMutability":"view","type":"function"}],"evm":{"bytecode":{"linkReferences":{},"object":"60e0346200027357601f6200459838819003918201601f19168301916001600160401b03831184841017620002785780849260809460405283398101031262000273576200004d816200028e565b906200005c602082016200028e565b62000078606062000070604085016200028e565b93016200028e565b91690a968163f0a57b4000008060015569021e19e0c9bab2400000600255600a6003556934f086f3b33b6840000090816004556005805580600655690fe1c215e8f838e0000060075569152d02c7e14af680000090816008556009556969e10de76676d0800000600a55600b55600c5569d3c21bcecceda1000000600d5560115460018060a01b038095169283156200022e5785168015620001e957600080546001600160a01b031916331790556080939093526001600160b81b031916919091176201000160a01b17601155821660a0521660c0526040516142f49081620002a48239608051818181610fe3015281816112730152818161161a0152818161186f01528181611b24015281816124b301528181612e7201526136e4015260a0518181816108d101526126ea015260c051818181610492015281816104de015281816105e5015281816106e60152818161095d015281816109f601528181610afb01528181610bf501526123d50152f35b60405162461bcd60e51b815260206004820152601860248201527f496e76616c6964207665726966696572206164647265737300000000000000006044820152606490fd5b60405162461bcd60e51b815260206004820152601560248201527f496e76616c696420746f6b656e206164647265737300000000000000000000006044820152606490fd5b600080fd5b634e487b7160e01b600052604160045260246000fd5b51906001600160a01b0382168203620002735756fe608080604052600436101561001357600080fd5b60003560e01c9081630604ce2714613a785750806309b5a33a14613a395780630e141a9b14613a13578063153b0d1e1461398357806316c38b3c1461390e5780631e23a7f0146138e55780631f66351a146138395780632f44a61c1461381b57806335b944bf146137f557806335dbc94a1461374f5780633f9bcde21461373157806341c6138314613713578063492c70fb146136ce5780634d683674146136b05780634e43603a14613565578063521c27f214613518578063565c99ac146133c4578063575c0f831461331c5780635951ac65146132745780635a9d93f114612ca15780635c975abb14612c7b5780636659887414612bcf5780636fea453814612b2557806370ed462014612a7a57806379b9c399146126825780637a994cd0146124225780637bb030851461240457806382fb31fe146123bf5780638372acf7146123175780638b311fbc1461224b5780638beaf1c5146121a65780638da5cb5b1461217d5780638fb6c6f6146120d75780639cc8e7eb146120b95780639fb3cf4f14611938578063a079d40c1461182e578063a87430ba14611776578063a90f8e9a1461173b578063b1eac37e1461171d578063b6c72888146116a8578063bbb85188146115ee578063bdf0f1aa1461151f578063bff1f9e114611501578063c7105609146114be578063cecfbead146114a0578063cf17beaf146113ec578063db2e21bc14611230578063db3eef3f14610f0b578063db74559b14610ed1578063df312b1e14610e6d578063dfae07ff14610dc3578063e7865e5714610da5578063e91c7d3314610d87578063e9aae65014610d69578063e9b7d96414610900578063ed1ec0f4146108bb578063ed4c85a91461089d578063edd6c8481461087f578063ef5ab0d51461042f578063efca2eed14610411578063f09153c414610398578063f2fde38b146103185763f9f92be4146102d457600080fd5b34610313576020366003190112610313576001600160a01b036102f5613a93565b166000526012602052602060ff604060002054166040519015158152f35b600080fd5b3461031357602036600319011261031357610331613a93565b600054906001600160a01b039061034b3383851614613d66565b16908115610363576001600160a01b03191617600055005b60405162461bcd60e51b815260206004820152600d60248201526c24b73b30b634b21037bbb732b960991b6044820152606490fd5b34610313576020366003190112610313576001600160a01b036103b9613a93565b16600052601360205260a0600660406000200154601660205260406000205460ff6040519281811615158452818160081c1615156020850152818160101c161515604085015260181c16151560608301526080820152f35b34610313576000366003190112610313576020600e54604051908152f35b346103135760003660031901126103135761045160ff60115460b01c16613b62565b33600052601360205261047260ff60066040600020015460201c1615613ba3565b33600052601260205261048d60ff6040600020541615613be2565b6104c17f00000000000000000000000000000000000000000000000000000000000000006001600160a01b03161515613c39565b60405163543a185d60e11b815233600482015261016080826024817f00000000000000000000000000000000000000000000000000000000000000006001600160a01b03165afa9081156107b8576000906000936000806000946000809660009460009660009860009b610837575b5050831580159a8b9161082f575b50156107f35760069433600052601360205260406000209485558b600186015560028501556003840155600483015560058201550161058985829060ff801983541691151516179055565b805464010000000064ffffffff001990911661ff0084151560081b161762ff000085151560101b161763ff00000086151560181b1617179055604051635487c74d60e11b81523360048201526020816024816001600160a01b037f0000000000000000000000000000000000000000000000000000000000000000165afa9081156107b8576000916107c4575b506001600160a01b0316806106a4575b509061067493929160008051602061427f83398151915295610691575b8315610689575b508215610681575b508115610679575b506040805194855290151560208501523393918291820190565b0390a2005b90508461065a565b915085610652565b92508661064a565b61069c600f54613d57565b600f55610643565b3360005260156020526040600020906001600160601b0360a01b8254161790556040516304dad19d60e11b815233600482015260208160248160018060a01b037f0000000000000000000000000000000000000000000000000000000000000000165afa9081156107b85760009161075d575b509060008051602061427f833981519152956107526106749695949333600052601760205260406000209060ff801983541691151516179055565b955090919293610626565b9493929190506020853d6020116107b0575b8161077c60209383613c97565b810103126103135760008051602061427f833981519152956107526107a361067497613cb9565b9293949596505095610717565b3d915061076f565b6040513d6000823e3d90fd5b6107e6915060203d6020116107ec575b6107de8183613c97565b810190613d38565b87610616565b503d6107d4565b60405162461bcd60e51b81526020600482015260146024820152732ab9b2b9103737ba103337bab7321034b7102b1960611b6044820152606490fd5b90508c61053e565b9950995050505050505050506108629250803d10610878575b61085a8183613c97565b810190613cc6565b9899939790969195929490939290918b80610530565b503d610850565b34610313576000366003190112610313576020600854604051908152f35b34610313576000366003190112610313576020600754604051908152f35b34610313576000366003190112610313576040517f00000000000000000000000000000000000000000000000000000000000000006001600160a01b03168152602090f35b346103135760203660031901126103135760043567ffffffffffffffff811161031357610931903690600401613ab8565b9061094760018060a01b03600054163314613d66565b61095860ff60115460b01c16613b62565b61098c7f00000000000000000000000000000000000000000000000000000000000000006001600160a01b03161515613c39565b60005b82811061099857005b6001600160a01b036109b36109ae838686613d9e565b613dc4565b169081600052601360205260ff60066040600020015460201c168015610d55575b610d4b5760405163543a185d60e11b81526004810183905291610160836024817f00000000000000000000000000000000000000000000000000000000000000006001600160a01b03165afa9283156107b8576000906000906000806000946000809660009360009560009760009d610d10575b508415809d819e610d07575b50610cf25760008b815260136020908152604091829020968755600187018b90556002870192909255600386019290925560048086019390935560058501939093556006909301805464010000000064ffffffffff199091168a151560ff161761ff0087151560081b161762ff000088151560101b161763ff00000089151560181b16171790559151635487c74d60e11b8152918201889052816024816001600160a01b037f0000000000000000000000000000000000000000000000000000000000000000165afa9081156107b857600091610cd3575b506001600160a01b031680610bb8575b509060008051602061427f83398151915294939291610b889815610ba5575b8415610b9d575b508315610b95575b508215610b8d575b50604080519182529115156020820152a2613d57565b61098f565b915088610b72565b925089610b6a565b93508a610b62565b600f610bb18154613d57565b9055610b5b565b60008781526015602090815260409182902080546001600160a01b031916909317909255516304dad19d60e11b81526004810188905290816024817f00000000000000000000000000000000000000000000000000000000000000006001600160a01b03165afa9081156107b857600091610c76575b5090610b8898610c6a60008051602061427f833981519152979695949389600052601760205260406000209060ff801983541691151516179055565b98509091929394610b3c565b959493929190506020863d602011610ccb575b81610c9660209383613c97565b8101031261031357610b8898610c6a610cbd60008051602061427f83398151915298613cb9565b929394959697505098610c2e565b3d9150610c89565b610cec915060203d6020116107ec576107de8183613c97565b8b610b2c565b5050505050505050505050610b889150613d57565b90501538610a54565b9950505050505050505050610d379193506101603d610160116108785761085a8183613c97565b9b999398979096919592949291908f610a48565b610b889150613d57565b50601260205260ff604060002054166109d4565b34610313576000366003190112610313576020600154604051908152f35b34610313576000366003190112610313576020600354604051908152f35b34610313576000366003190112610313576020600c54604051908152f35b346103135760203660031901126103135760008051602061429f83398151915260a0600435610dfc600180841b03600054163314613d66565b683635c9adc5dea0000081101580610e59575b610e1890614221565b60025490806002556040519160608352601460608401527353545245414b5f424f4e55535f5045525f44415960601b608084015260208301526040820152a1005b50690a968163f0a57b400000811115610e0f565b34610313576020366003190112610313576001600160a01b03610e8e613a93565b166000526014602052608060406000206001815491015460ff6040519281811615158452818160081c161515602085015260101c16151560408301526060820152f35b34610313576020366003190112610313576001600160a01b03610ef2613a93565b1660005260166020526020604060002054604051908152f35b3461031357610f62610f5d610f1f36613b17565b610f3860ff6011979495979693965460a81c1615613dd8565b3360005260209460128652610f5560ff6040600020541615613e19565b8487336140d0565b613e5e565b610f6b33614092565b33600052601482526040600020610f83368386613f48565b8051908401207f59f9c19ce4d2104b5074afdbd422a67ce762a07b67944dfc1ac72cebc1ef9fb3810361115b575060018154610fc260ff821615613f8f565b60ff1916179055600654905b6040516370a0823160e01b81523060048201527f00000000000000000000000000000000000000000000000000000000000000006001600160a01b0316908481602481855afa80156107b857849060009061112a575b61103092501015613ebe565b3360005260138452600360406000200161104b848254613e9e565b905561105983600e54613e9e565b600e5560405163a9059cbb60e01b815233600482015260248101849052908490829060449082906000905af19384156107b8576000946110d1575b50506110c07f10ddce2fe83f593b5a578fdeaea55181daa98b7e1e4652e712b2c821622fc30793613f0a565b610674604051928392339684613fdb565b90809450813d8311611123575b6110e88183613c97565b81010312610313576110c061111d7f10ddce2fe83f593b5a578fdeaea55181daa98b7e1e4652e712b2c821622fc30794613cb9565b93611094565b503d6110de565b50508481813d8311611154575b6111418183613c97565b8101031261031357836110309151611024565b503d611137565b7f103f7b2dda1595da24c03f5970d4163272b9badb6161a376876bfea67102615c81036111a95750610100815461119860ff8260081c1615613f8f565b61ff00191617905560075490610fce565b7f6c25e4722cb75723d0f45967423f4fefc1866b6db42936b2e4c9827f9d9f8ccd036111f7576201000081546111e560ff8260101c1615613f8f565b62ff0000191617905560085490610fce565b60405162461bcd60e51b8152600481018490526011602482015270496e76616c6964207461736b207479706560781b6044820152606490fd5b34610313576000366003190112610313576000546001600160a01b0390811661125a338214613d66565b6040516370a0823160e01b8152306004820152916020917f00000000000000000000000000000000000000000000000000000000000000008216908385602481855afa9485156107b8576000956113bd575b50841561138b5760405163a9059cbb60e01b81526001600160a01b03919091166004820152602481018590529291908290849060449082906000905af19283156107b857600093611331575b506113237f5fafa99d0643513820be26656b45130b01e1c03062e1266bf36f88cbd3bd969593613f0a565b6000541692604051908152a2005b92508183813d8311611384575b6113488183613c97565b810103126103135761132361137d7f5fafa99d0643513820be26656b45130b01e1c03062e1266bf36f88cbd3bd969594613cb9565b93506112f8565b503d61133e565b60405162461bcd60e51b815260048101859052600a6024820152694e6f2062616c616e636560b01b6044820152606490fd5b9094508381813d83116113e5575b6113d58183613c97565b81010312610313575193856112ac565b503d6113cb565b346103135760203660031901126103135760008051602061429f83398151915260a0600435611425600180841b03600054163314613d66565b69021e19e0c9bab24000008110158061148c575b61144290614221565b60075490806007556040519160608352601860608401527f4352454154455f50524544494354494f4e5f5245574152440000000000000000608084015260208301526040820152a1005b50692a5a058fc295ed000000811115611439565b34610313576000366003190112610313576020600a54604051908152f35b346103135760203660031901126103135760806114e16114dc613a93565b614048565b916040519315158452151560208401521515604083015215156060820152f35b34610313576000366003190112610313576020600f54604051908152f35b346103135760203660031901126103135760043561154860018060a01b03600054163314613d66565b6001811015806115e3575b156115a55760a060008051602061429f8339815191529160055490806005556040519160608352600e60608401526d4a41434b504f545f4348414e434560901b608084015260208301526040820152a1005b60405162461bcd60e51b8152602060048201526016602482015275496e76616c6964206368616e63652028312d3230252960501b6044820152606490fd5b506014811115611553565b34610313576000366003190112610313576040516370a0823160e01b81523060048201526020816024817f00000000000000000000000000000000000000000000000000000000000000006001600160a01b03165afa80156107b857600090611676575b608090600e54600f5460105491604051938452602084015260408301526060820152f35b506020813d82116116a0575b8161168f60209383613c97565b810103126103135760809051611652565b3d9150611682565b34610313576020366003190112610313577f5357603b66ce52ad2bde073bf1baae8a126a96ae712f396257fa4b57169c36ab60206116e4613aa9565b6116f960018060a01b03600054163314613d66565b151560115460ff60a01b8260a01b169060ff60a01b191617601155604051908152a1005b34610313576000366003190112610313576020600454604051908152f35b346103135760203660031901126103135760206001600160a01b038061175f613a93565b166000526015825260406000205416604051908152f35b34610313576020366003190112610313576001600160a01b03611797613a93565b166000526013602052610160604060002060ff815491600181015490600281015460038201546004830154916006600585015494015494604051978852602088015260408701526060860152608085015260a0840152818116151560c0840152818160081c16151560e0840152818160101c161515610100840152818160181c16151561012084015260201c161515610140820152f35b3461031357602080600319360112610313576040516323b872dd60e01b815233600482810191909152306024830152356044820181905291808260648160007f00000000000000000000000000000000000000000000000000000000000000006001600160a01b03165af19182156107b8576000926118de575b506118d37fb9ea67a19ab6bc678d42c223c0b3c9b7947918f351c3377a0e07e1b7332444c792613f0a565b6040519283523392a2005b91508082813d8311611931575b6118f58183613c97565b81010312610313576118d361192a7fb9ea67a19ab6bc678d42c223c0b3c9b7947918f351c3377a0e07e1b7332444c793613cb9565b92506118a8565b503d6118eb565b34610313576020806003193601126103135767ffffffffffffffff6004358181116103135761196b903690600401613ae9565b9290916011549261198260ff8560a81c1615613dd8565b60ff8460a01c161561207d5733600052601283526119a860ff6040600020541615613e19565b611a47611a3360405196858801933360601b948581526a4441494c595f434c41494d60a81b60348b015262015180998a4204603f820152603f81526119ec81613c7b565b519020604051888101917f19457468657265756d205369676e6564204d6573736167653a0a3332000000008352603c820152603c8152611a2b81613c7b565b51902061416d565b6001600160a01b0395861690861614613e5e565b33600052601383526040600020948554908101808211612017574210612040571561202d575b84548015159081611fff575b5015611ff45760018501611a8d8154613d57565b90555b60018501805495866002820180548211611fec575b5050611ac76001549760035490818111600014611fe557505b60025490613eab565b92611ad28489613e9e565b94600e9182546040519089820192428452446040840152606083015260748201524360948201526094815260c081019281841090841117611fcf5760649260405251902006600554119687611fab575b7f000000000000000000000000000000000000000000000000000000000000000016916040516370a0823160e01b918282523060048301528882602481885afa80156107b8578892600091611f77575b50600392611b81911015613ebe565b42815501611b90878254613e9e565b9055611b9d868354613e9e565b8255611baa601054613d57565b601055611bb633614092565b33600052601387526040600020916001830160078154101580611f65575b611e0f575b601e9054101580611dfd575b611ca6575b505060405163a9059cbb60e01b81523360048201526024810186905291869150829060449082906000905af180156107b857600090611c70575b611c2e9150613f0a565b54926040519586528501526040840152606083015260808201527f0b3cf2cd3b2ce31e0ff7cbb3f2562d51047e60d290a130fefc85fb019ee6fcc060a03392a2005b508481813d8311611c9f575b611c868183613c97565b8101031261031357611c9a611c2e91613cb9565b611c24565b503d611c7c565b60068301805463ff000000191663010000001790556040519182523060048301528782602481875afa80156107b8578892600091611dce575b50600d5480911015611cf2575b50611bea565b611d046003611d3e9501918254613e9e565b9055600d5490611d15828254613e9e565b905560405163a9059cbb60e01b8152336004820152602481019190915291829081906044820190565b03816000865af180156107b857611d9a575b50600d546040519060408252600d60408301526c33305f4441595f53545245414b60981b60608301528682015260008051602061425f83398151915260803392a287858180611cec565b8581813d8311611dc7575b611daf8183613c97565b8101031261031357611dc090613cb9565b5087611d50565b503d611da5565b83819492503d8311611df6575b611de58183613c97565b81010312610313578791518b611cdf565b503d611ddb565b5060ff600684015460181c1615611be5565b60068401805462ff0000191662010000179055604051838152306004820152908982602481895afa9182156107b857600092611f36575b50600c5480921015611e5a575b9050611bd9565b611ea791611e6d60038701918254613e9e565b905589600c54611e7e818654613e9e565b855560405163a9059cbb60e01b8152336004820152602481019190915292839081906044820190565b038160008a5af180156107b857611f01575b601e9150600c546040519060408252600c60408301526b375f4441595f53545245414b60a01b60608301528b82015260008051602061425f83398151915260803392a2611e53565b8982813d8311611f2f575b611f168183613c97565b8101031261031357611f29601e92613cb9565b50611eb9565b503d611f0c565b9091508981813d8311611f5e575b611f4e8183613c97565b810103126103135751908c611e46565b503d611f44565b5060ff600685015460101c1615611bd4565b8093508a8092503d8311611fa4575b611f908183613c97565b810103126103135790518791906003611b72565b503d611f86565b94611fb99060045490613e9e565b9460058301611fc88154613d57565b9055611b22565b634e487b7160e01b600052604160045260246000fd5b9050611abe565b558688611aa5565b600180860155611a90565b90506202a30081018091116120175742111586611a79565b634e487b7160e01b600052601160045260246000fd5b612038600f54613d57565b600f55611a6d565b60405162461bcd60e51b8152600481018590526015602482015274416c726561647920636c61696d656420746f64617960581b6044820152606490fd5b60405162461bcd60e51b815260048101849052601460248201527310db185a5b5a5b99c81a5cc8191a5cd8589b195960621b6044820152606490fd5b34610313576000366003190112610313576020600654604051908152f35b346103135760203660031901126103135760008051602061429f83398151915260a0600435612110600180841b03600054163314613d66565b69021e19e0c9bab240000081101580612169575b61212d90614221565b60095490806009556040519160608352600f60608401526e149151915494905317d49155d05491608a1b608084015260208301526040820152a1005b5069152d02c7e14af6800000811115612124565b34610313576000366003190112610313576000546040516001600160a01b039091168152602090f35b346103135760203660031901126103135760008051602061429f83398151915260a06004356121df600180841b03600054163314613d66565b690a968163f0a57b40000081101580612237575b6121fc90614221565b60045490806004556040519160608352600e60608401526d129050d2d413d517d05353d5539560921b608084015260208301526040820152a1005b5069d3c21bcecceda10000008111156121f3565b346103135760203660031901126103135760043561227460018060a01b03600054163314613d66565b60058110158061230c575b156122d85760a060008051602061429f833981519152916003549080600355604051916060835260156060840152744d41585f53545245414b5f424f4e55535f4441595360581b608084015260208301526040820152a1005b60405162461bcd60e51b815260206004820152600c60248201526b496e76616c6964206461797360a01b6044820152606490fd5b50601e81111561227f565b346103135760203660031901126103135760008051602061429f83398151915260a0600435612350600180841b03600054163314613d66565b69021e19e0c9bab2400000811015806123ab575b61236d90614221565b60065490806006556040519160608352601160608401527014d210549157d0d054d517d49155d05491607a1b608084015260208301526040820152a1005b50692a5a058fc295ed000000811115612364565b34610313576000366003190112610313576040517f00000000000000000000000000000000000000000000000000000000000000006001600160a01b03168152602090f35b34610313576000366003190112610313576020600b54604051908152f35b3461031357612436610f5d610f1f36613b17565b336000526013825260406000209061244f368286613f48565b8051908401207fb54e063503447bce6485adab005b8755b54ded950878440b84f8e79a1196702e81036125ed5750600682016001815461249260ff82161561400a565b60ff1916179055600a54915b6040516370a0823160e01b81523060048201527f00000000000000000000000000000000000000000000000000000000000000006001600160a01b0316918582602481865afa80156107b85785926000916125b9575b50600392612503911015613ebe565b0161250f848254613e9e565b905561251d83600e54613e9e565b600e5560405163a9059cbb60e01b815233600482015260248101849052908490829060449082906000905af19384156107b857600094612572575b50506110c060008051602061425f83398151915293613f0a565b90809450813d83116125b2575b6125898183613c97565b81010312610313576110c06125ac60008051602061425f83398151915294613cb9565b93612558565b503d61257f565b809350878092503d83116125e6575b6125d28183613c97565b8101031261031357905184919060036124f4565b503d6125c8565b7f126235d9d2e6036d7fac7e99f1dcd31ada7ff126658a7dd43824f3e4f265d0390361263d5760068201610100815461262c60ff8260081c161561400a565b61ff001916179055600b549161249e565b60405162461bcd60e51b815260048101849052601860248201527f496e76616c696420616368696576656d656e74207479706500000000000000006044820152606490fd5b34610313576000366003190112610313576126a460ff60115460b01c16613b62565b336000526020601381526126c560ff600660406000200154831c1615613ba3565b33600052601281526126df60ff6040600020541615613be2565b6001600160a01b03907f00000000000000000000000000000000000000000000000000000000000000008216908115612a405760405163543a185d60e11b8152336004820152610140908181602481875afa9283156107b85760009460009660009660008060009160009a60009860009a60009c6129a9575b5050841561296d5733600081815260138a52604090819020968755600187018f90556002870192909255600386019290925560048086019390935560058501939093556006909301805464010000000064ffffffffff199091168c151560ff161761ff008a151560081b161762ff00008b151560101b161763ff0000008c151560181b16171790559051635487c74d60e11b8152908101919091528381602481865afa9081156107b857600091612950575b501680612867575b5050509160008051602061427f833981519152939161067493612836600f54613d57565b600f558315610689575082156106815750811561067957506040805194855290151560208501523393918291820190565b91809160249333600052601583526040600020906001600160601b0360a01b825416179055604051938480926304dad19d60e11b82523360048301525afa9182156107b8576000926128f7575b50916128ed60008051602061427f83398151915296949260176106749795336000525260406000209060ff801983541691151516179055565b9193819395612812565b9593915093918486813d8311612949575b6129128183613c97565b81010312610313576128ed61067495601761293b60008051602061427f83398151915299613cb9565b9496985050919395506128b4565b503d612908565b6129679150843d86116107ec576107de8183613c97565b8961280a565b60405162461bcd60e51b815260048101899052601460248201527355736572206e6f7420666f756e6420696e20563160601b6044820152606490fd5b99509950505050505094509550935081813d8311612a39575b6129cc8183613c97565b8101031261031357805190838101519360408201519560608301519460808401519660a08501516129ff60c08701613cb9565b90612a0c60e08801613cb9565b99612a27610120612a206101008b01613cb9565b9901613cb9565b98939b999091929a9798998d80612758565b503d6129c2565b6064906040519062461bcd60e51b825260048201526013602482015272158c4818dbdb9d1c9858dd081b9bdd081cd95d606a1b6044820152fd5b3461031357602036600319011261031357612a93613a93565b6000546001600160a01b039190612aad9083163314613d66565b168015612aed57601180546001600160a01b031916821790557fe5b9ec72fc7e34a9021e01e954c7e54ceb50c6b1798084716afe188ffa5e13cb600080a2005b60405162461bcd60e51b815260206004820152601060248201526f24b73b30b634b2103b32b934b334b2b960811b6044820152606490fd5b346103135760203660031901126103135760008051602061429f83398151915260a0600435612b5e600180841b03600054163314613d66565b69152d02c7e14af680000081101580612bba575b612b7b90614221565b600a549080600a55604051916060835260126060840152711091551057d51154d5115497d49155d0549160721b608084015260208301526040820152a1005b506a01a784379d99db42000000811115612b72565b346103135760203660031901126103135760008051602061429f83398151915260a0600435612c08600180841b03600054163314613d66565b69021e19e0c9bab240000081101580612c67575b612c2590614221565b600b549080600b55604051916060835260156060840152741193d31313d5d7d4d3d0d2505314d7d49155d05491605a1b608084015260208301526040820152a1005b506969e10de76676d0800000811115612c1c565b3461031357600036600319011261031357602060ff60115460a81c166040519015158152f35b3461031357604036600319011261031357612cba613a93565b67ffffffffffffffff6024803582811161031357612cdc903690600401613ae9565b9390601154612cf160ff8260a81c1615613dd8565b3360005260209560128752612d0e60ff6040600020541615613e19565b60018060a01b0392838516968760005260128952612d3460ff6040600020541615613e19565b336000526017895260ff60406000205416613238573388146131fc5787156131c55787600052601389526040600020541561318157604051908982013360601b81526001600160601b03198860601b16603484015267149151915494905360c21b604884015262015180420460508401526050835260808301918383109083111761316c5792612e0592828896939587966040528251902060bc60a08401937f19457468657265756d205369676e6564204d6573736167653a0a33320000000085520152603c8152611a2b81613c7b565b92169116036131285733600052601785526040600020600160ff19825416179055601585526040600020846001600160601b0360a01b82541617905583600052601685526040600020612e588154613d57565b90556009548060011b9181830460021482151715613113577f00000000000000000000000000000000000000000000000000000000000000001691604051906370a0823160e01b825230600483015287828781875afa80156107b8576000906130e4575b612ec892501015613ebe565b8460005260138652612ee36003604060002001918254613e9e565b9055612f2d85600954612ef881600e54613e9e565b600e5560405163a9059cbb60e01b8082526001600160a01b039096166004820152602481019190915291829081906044820190565b03816000865af19081156107b8576000916130af575b501561306b57612fa99185916009543360005260138452612f6d6003604060002001918254613e9e565b905560095491612f7f83600e54613e9e565b600e5560405190815233600482015260248101929092529092839190829060009082906044820190565b03925af19081156107b857600091613036575b5015612ff357507f90eab5d1df713df401d810f26aa9718d2b9e6894af1eb4890a332d3b185dc0e5600954926040519384523393a3005b82601b6064926040519262461bcd60e51b845260048401528201527f5472616e7366657220746f207265666572726564206661696c656400000000006044820152fd5b90508381813d8311613064575b61304d8183613c97565b810103126103135761305e90613cb9565b84612fbc565b503d613043565b60405162461bcd60e51b815260048101869052601b818501527f5472616e7366657220746f207265666572726572206661696c656400000000006044820152606490fd5b90508581813d83116130dd575b6130c68183613c97565b81010312610313576130d790613cb9565b86612f43565b503d6130bc565b508782813d831161310c575b6130fa8183613c97565b8101031261031357612ec89151612ebc565b503d6130f0565b84634e487b7160e01b60005260116004526000fd5b60405162461bcd60e51b815260048101869052601a818501527f496e76616c696420726566657272616c207369676e61747572650000000000006044820152606490fd5b88634e487b7160e01b60005260416004526000fd5b60405162461bcd60e51b8152600481018a9052601c818901527f5265666572726572206d757374206265206163746976652075736572000000006044820152606490fd5b60405162461bcd60e51b8152600481018a90526010818901526f24b73b30b634b2103932b332b93932b960811b6044820152606490fd5b60405162461bcd60e51b8152600481018a90526015818901527421b0b73737ba103932b332b9103cb7bab939b2b63360591b6044820152606490fd5b60405162461bcd60e51b8152600481018a905260158189015274105b1c9958591e481d5cd959081c9959995c9c985b605a1b6044820152606490fd5b346103135760203660031901126103135760008051602061429f83398151915260a06004356132ad600180841b03600054163314613d66565b69152d02c7e14af680000081101580613307575b6132ca90614221565b600d549080600d556040519160608352601060608401526f14d514915052d7cccc17d49155d0549160821b608084015260208301526040820152a1005b506a0422ca8b0a00a4250000008111156132c1565b346103135760203660031901126103135760008051602061429f83398151915260a0600435613355600180841b03600054163314613d66565b69021e19e0c9bab2400000811015806133b0575b61337290614221565b600154908060015560405191606083526011606084015270109054d157d11052531657d49155d05491607a1b608084015260208301526040820152a1005b50692a5a058fc295ed000000811115613369565b346103135760403660031901126103135767ffffffffffffffff600435818111610313576133f6903690600401613ab8565b916024359081116103135761340f903690600401613ab8565b6000546001600160a01b0393906134299085163314613d66565b8185036134db5760005b85811061343c57005b8061345361344e6134d6938688613d9e565b614214565b866134626109ae848b88613d9e565b166000526134866020916012835260406000209060ff801983541691151516179055565b7f6a12b3df6cba4203bd7fd06b816789f87de8c594299aed5717ae070fac781bac6134b56109ae848b88613d9e565b91886134c561344e868a8c613d9e565b9360405194151585521692a2613d57565b613433565b60405162461bcd60e51b8152602060048201526015602482015274082e4e4c2f240d8cadccee8d040dad2e6dac2e8c6d605b1b6044820152606490fd5b3461031357602036600319011261031357613531613aa9565b61354660018060a01b03600054163314613d66565b6011805460ff60b01b191691151560b01b60ff60b01b16919091179055005b346103135760203660031901126103135761357e613a93565b60018060a01b0316600052601360205260406000208054600182015491600281015492600382015460ff6006600585015494015460201c169284159081159283613698575b8215613685576000935b83156136775780613661575b1561365357600185019788861161201757613616610120995b600354908181111561364c57505b6136106001549160025490613eab565b90613e9e565b956040519889526020890152604088015260608701526080860152151560a085015260c084015260e08301521515610100820152f35b9050613600565b6101209761361660016135f2565b506202a3008701808811612017574211156135d9565b5061012097613616866135f2565b62015180870180881161201757936135cd565b915062015180860180871161201757421015916135c3565b34610313576000366003190112610313576020600954604051908152f35b34610313576000366003190112610313576040517f00000000000000000000000000000000000000000000000000000000000000006001600160a01b03168152602090f35b34610313576000366003190112610313576020601054604051908152f35b34610313576000366003190112610313576020600d54604051908152f35b346103135760203660031901126103135760008051602061429f83398151915260a0600435613788600180841b03600054163314613d66565b690a968163f0a57b400000811015806137e1575b6137a590614221565b600c549080600c556040519160608352600f60608401526e14d514915052d7cdd7d49155d05491608a1b608084015260208301526040820152a1005b5069d3c21bcecceda100000081111561379c565b3461031357600036600319011261031357602060ff60115460b01c166040519015158152f35b34610313576000366003190112610313576020600254604051908152f35b346103135760203660031901126103135760008051602061429f83398151915260a0600435613872600180841b03600054163314613d66565b69021e19e0c9bab2400000811015806138d1575b61388f90614221565b60085490806008556040519160608352601560608401527415149051125391d7d593d315535157d49155d05491605a1b608084015260208301526040820152a1005b50692a5a058fc295ed000000811115613886565b34610313576000366003190112610313576011546040516001600160a01b039091168152602090f35b34610313576020366003190112610313577f0e2fb031ee032dc02d8011dc50b816eb450cf856abd8261680dac74f72165bd2602061394a613aa9565b61395f60018060a01b03600054163314613d66565b151560115460ff60a81b8260a81b169060ff60a81b191617601155604051908152a1005b346103135760403660031901126103135761399c613a93565b6024359081151590818303610313577f6a12b3df6cba4203bd7fd06b816789f87de8c594299aed5717ae070fac781bac91613a0a60209260018060a01b03906139ea82600054163314613d66565b1694856000526012845260406000209060ff801983541691151516179055565b604051908152a2005b3461031357600036600319011261031357602060ff60115460a01c166040519015158152f35b34610313576020366003190112610313576001600160a01b03613a5a613a93565b166000526017602052602060ff604060002054166040519015158152f35b34610313576000366003190112610313576020906005548152f35b600435906001600160a01b038216820361031357565b60043590811515820361031357565b9181601f840112156103135782359167ffffffffffffffff8311610313576020808501948460051b01011161031357565b9181601f840112156103135782359167ffffffffffffffff8311610313576020838186019501011161031357565b60406003198201126103135767ffffffffffffffff916004358381116103135782613b4491600401613ae9565b9390939260243591821161031357613b5e91600401613ae9565b9091565b15613b6957565b60405162461bcd60e51b8152602060048201526012602482015271135a59dc985d1a5bdb88191a5cd8589b195960721b6044820152606490fd5b15613baa57565b60405162461bcd60e51b815260206004820152601060248201526f105b1c9958591e481b5a59dc985d195960821b6044820152606490fd5b15613be957565b60405162461bcd60e51b815260206004820152602260248201527f43616e6e6f74206d69677261746520626c61636b6c6973746564206164647265604482015261737360f01b6064820152608490fd5b15613c4057565b60405162461bcd60e51b8152602060048201526013602482015272158c8818dbdb9d1c9858dd081b9bdd081cd95d606a1b6044820152606490fd5b6060810190811067ffffffffffffffff821117611fcf57604052565b90601f8019910116810190811067ffffffffffffffff821117611fcf57604052565b5190811515820361031357565b90816101609103126103135780519160208201519160408101519160608201519160808101519160a082015191613cff60c08201613cb9565b91613d0c60e08301613cb9565b91613d1a6101008201613cb9565b91613d35610140613d2e6101208501613cb9565b9301613cb9565b90565b9081602091031261031357516001600160a01b03811681036103135790565b60001981146120175760010190565b15613d6d57565b60405162461bcd60e51b81526020600482015260096024820152682737ba1037bbb732b960b91b6044820152606490fd5b9190811015613dae5760051b0190565b634e487b7160e01b600052603260045260246000fd5b356001600160a01b03811681036103135790565b15613ddf57565b60405162461bcd60e51b815260206004820152601260248201527110dbdb9d1c9858dd081a5cc81c185d5cd95960721b6044820152606490fd5b15613e2057565b60405162461bcd60e51b81526020600482015260166024820152751059191c995cdcc81a5cc8189b1858dadb1a5cdd195960521b6044820152606490fd5b15613e6557565b60405162461bcd60e51b8152602060048201526011602482015270496e76616c6964207369676e617475726560781b6044820152606490fd5b9190820180921161201757565b8181029291811591840414171561201757565b15613ec557565b60405162461bcd60e51b815260206004820152601960248201527f496e73756666696369656e7420706f6f6c2062616c616e6365000000000000006044820152606490fd5b15613f1157565b60405162461bcd60e51b815260206004820152600f60248201526e151c985b9cd9995c8819985a5b1959608a1b6044820152606490fd5b92919267ffffffffffffffff8211611fcf5760405191613f72601f8201601f191660200184613c97565b829481845281830111610313578281602093846000960137010152565b15613f9657565b60405162461bcd60e51b815260206004820152601c60248201527f5461736b20616c726561647920636f6d706c6574656420746f646179000000006044820152606490fd5b9392918060609160209360408852816040890152838801376000828288010152601f8019910116850101930152565b1561401157565b60405162461bcd60e51b815260206004820152600f60248201526e105b1c9958591e4818db185a5b5959608a1b6044820152606490fd5b6001600160a01b031660009081526014602052604081206001810154620151804204900361408857549060ff82169260ff808460081c169360101c169190565b5080918190600190565b6001600160a01b0316600090815260146020526040902060018101805462015180420492908390036140c357505050565b805462ffffff1916905555565b909161411960546141599695948360405194859260208401976001600160601b03199060601b168852603484013781016201518042046034820152036034810184520182613c97565b51902060405160208101917f19457468657265756d205369676e6564204d6573736167653a0a3332000000008352603c820152603c8152611a2b81613c7b565b6011546001600160a01b0391821691161490565b916041036141cf57604081013560001a601b81106141bd575b6020928360009360ff6080946040519485521682840152803560408401520135606082015282805260015afa156107b85760005190565b601b019060ff82116120175790614186565b60405162461bcd60e51b815260206004820152601860248201527f496e76616c6964207369676e6174757265206c656e67746800000000000000006044820152606490fd5b3580151581036103135790565b1561422857565b60405162461bcd60e51b815260206004820152600e60248201526d125b9d985b1a5908185b5bdd5b9d60921b6044820152606490fdfe67a8d47c6ecf3a491ea8a4f20a58352394879c573c678ec5b9abceae075d4dcafa033830c485f08f608e3c319d9b8fae0af1abda74131f96e0bcd8aed54772dde6d2ae151935a76dc9b9533838544ae8137ad6337ffd21a54e415ab781611f60a26469706673582212202d0819e36bf5fc9e4d47877599f34b62e3f7c56ec64faf6eef848d9529b9d20564736f6c63430008130033","opcodes":"PUSH1 0xE0 CALLVALUE PUSH3 0x273 JUMPI PUSH1 0x1F PUSH3 0x4598 CODESIZE DUP2 SWAP1 SUB SWAP2 DUP3 ADD PUSH1 0x1F NOT AND DUP4 ADD SWAP2 PUSH1 0x1 PUSH1 0x1 PUSH1 0x40 SHL SUB DUP4 GT DUP5 DUP5 LT OR PUSH3 0x278 JUMPI DUP1 DUP5 SWAP3 PUSH1 0x80 SWAP5 PUSH1 0x40 MSTORE DUP4 CODECOPY DUP2 ADD SUB SLT PUSH3 0x273 JUMPI PUSH3 0x4D DUP2 PUSH3 0x28E JUMP JUMPDEST SWAP1 PUSH3 0x5C PUSH1 0x20 DUP3 ADD PUSH3 0x28E JUMP JUMPDEST PUSH3 0x78 PUSH1 0x60 PUSH3 0x70 PUSH1 0x40 DUP6 ADD PUSH3 0x28E JUMP JUMPDEST SWAP4 ADD PUSH3 0x28E JUMP JUMPDEST SWAP2 PUSH10 0xA968163F0A57B400000 DUP1 PUSH1 0x1 SSTORE PUSH10 0x21E19E0C9BAB2400000 PUSH1 0x2 SSTORE PUSH1 0xA PUSH1 0x3 SSTORE PUSH10 0x34F086F3B33B68400000 SWAP1 DUP2 PUSH1 0x4 SSTORE PUSH1 0x5 DUP1 SSTORE DUP1 PUSH1 0x6 SSTORE PUSH10 0xFE1C215E8F838E00000 PUSH1 0x7 SSTORE PUSH10 0x152D02C7E14AF6800000 SWAP1 DUP2 PUSH1 0x8 SSTORE PUSH1 0x9 SSTORE PUSH10 0x69E10DE76676D0800000 PUSH1 0xA SSTORE PUSH1 0xB SSTORE PUSH1 0xC SSTORE PUSH10 0xD3C21BCECCEDA1000000 PUSH1 0xD SSTORE PUSH1 0x11 SLOAD PUSH1 0x1 DUP1 PUSH1 0xA0 SHL SUB DUP1 SWAP6 AND SWAP3 DUP4 ISZERO PUSH3 0x22E JUMPI DUP6 AND DUP1 ISZERO PUSH3 0x1E9 JUMPI PUSH1 0x0 DUP1 SLOAD PUSH1 0x1 PUSH1 0x1 PUSH1 0xA0 SHL SUB NOT AND CALLER OR SWAP1 SSTORE PUSH1 0x80 SWAP4 SWAP1 SWAP4 MSTORE PUSH1 0x1 PUSH1 0x1 PUSH1 0xB8 SHL SUB NOT AND SWAP2 SWAP1 SWAP2 OR PUSH3 0x10001 PUSH1 0xA0 SHL OR PUSH1 0x11 SSTORE DUP3 AND PUSH1 0xA0 MSTORE AND PUSH1 0xC0 MSTORE PUSH1 0x40 MLOAD PUSH2 0x42F4 SWAP1 DUP2 PUSH3 0x2A4 DUP3 CODECOPY PUSH1 0x80 MLOAD DUP2 DUP2 DUP2 PUSH2 0xFE3 ADD MSTORE DUP2 DUP2 PUSH2 0x1273 ADD MSTORE DUP2 DUP2 PUSH2 0x161A ADD MSTORE DUP2 DUP2 PUSH2 0x186F ADD MSTORE DUP2 DUP2 PUSH2 0x1B24 ADD MSTORE DUP2 DUP2 PUSH2 0x24B3 ADD MSTORE DUP2 DUP2 PUSH2 0x2E72 ADD MSTORE PUSH2 0x36E4 ADD MSTORE PUSH1 0xA0 MLOAD DUP2 DUP2 DUP2 PUSH2 0x8D1 ADD MSTORE PUSH2 0x26EA ADD MSTORE PUSH1 0xC0 MLOAD DUP2 DUP2 DUP2 PUSH2 0x492 ADD MSTORE DUP2 DUP2 PUSH2 0x4DE ADD MSTORE DUP2 DUP2 PUSH2 0x5E5 ADD MSTORE DUP2 DUP2 PUSH2 0x6E6 ADD MSTORE DUP2 DUP2 PUSH2 0x95D ADD MSTORE DUP2 DUP2 PUSH2 0x9F6 ADD MSTORE DUP2 DUP2 PUSH2 0xAFB ADD MSTORE DUP2 DUP2 PUSH2 0xBF5 ADD MSTORE PUSH2 0x23D5 ADD MSTORE RETURN JUMPDEST PUSH1 0x40 MLOAD PUSH3 0x461BCD PUSH1 0xE5 SHL DUP2 MSTORE PUSH1 0x20 PUSH1 0x4 DUP3 ADD MSTORE PUSH1 0x18 PUSH1 0x24 DUP3 ADD MSTORE PUSH32 0x496E76616C696420766572696669657220616464726573730000000000000000 PUSH1 0x44 DUP3 ADD MSTORE PUSH1 0x64 SWAP1 REVERT JUMPDEST PUSH1 0x40 MLOAD PUSH3 0x461BCD PUSH1 0xE5 SHL DUP2 MSTORE PUSH1 0x20 PUSH1 0x4 DUP3 ADD MSTORE PUSH1 0x15 PUSH1 0x24 DUP3 ADD MSTORE PUSH32 0x496E76616C696420746F6B656E20616464726573730000000000000000000000 PUSH1 0x44 DUP3 ADD MSTORE PUSH1 0x64 SWAP1 REVERT JUMPDEST PUSH1 0x0 DUP1 REVERT JUMPDEST PUSH4 0x4E487B71 PUSH1 0xE0 SHL PUSH1 0x0 MSTORE PUSH1 0x41 PUSH1 0x4 MSTORE PUSH1 0x24 PUSH1 0x0 REVERT JUMPDEST MLOAD SWAP1 PUSH1 0x1 PUSH1 0x1 PUSH1 0xA0 SHL SUB DUP3 AND DUP3 SUB PUSH3 0x273 JUMPI JUMP INVALID PUSH1 0x80 DUP1 PUSH1 0x40 MSTORE PUSH1 0x4 CALLDATASIZE LT ISZERO PUSH2 0x13 JUMPI PUSH1 0x0 DUP1 REVERT JUMPDEST PUSH1 0x0 CALLDATALOAD PUSH1 0xE0 SHR SWAP1 DUP2 PUSH4 0x604CE27 EQ PUSH2 0x3A78 JUMPI POP DUP1 PUSH4 0x9B5A33A EQ PUSH2 0x3A39 JUMPI DUP1 PUSH4 0xE141A9B EQ PUSH2 0x3A13 JUMPI DUP1 PUSH4 0x153B0D1E EQ PUSH2 0x3983 JUMPI DUP1 PUSH4 0x16C38B3C EQ PUSH2 0x390E JUMPI DUP1 PUSH4 0x1E23A7F0 EQ PUSH2 0x38E5 JUMPI DUP1 PUSH4 0x1F66351A EQ PUSH2 0x3839 JUMPI DUP1 PUSH4 0x2F44A61C EQ PUSH2 0x381B JUMPI DUP1 PUSH4 0x35B944BF EQ PUSH2 0x37F5 JUMPI DUP1 PUSH4 0x35DBC94A EQ PUSH2 0x374F JUMPI DUP1 PUSH4 0x3F9BCDE2 EQ PUSH2 0x3731 JUMPI DUP1 PUSH4 0x41C61383 EQ PUSH2 0x3713 JUMPI DUP1 PUSH4 0x492C70FB EQ PUSH2 0x36CE JUMPI DUP1 PUSH4 0x4D683674 EQ PUSH2 0x36B0 JUMPI DUP1 PUSH4 0x4E43603A EQ PUSH2 0x3565 JUMPI DUP1 PUSH4 0x521C27F2 EQ PUSH2 0x3518 JUMPI DUP1 PUSH4 0x565C99AC EQ PUSH2 0x33C4 JUMPI DUP1 PUSH4 0x575C0F83 EQ PUSH2 0x331C JUMPI DUP1 PUSH4 0x5951AC65 EQ PUSH2 0x3274 JUMPI DUP1 PUSH4 0x5A9D93F1 EQ PUSH2 0x2CA1 JUMPI DUP1 PUSH4 0x5C975ABB EQ PUSH2 0x2C7B JUMPI DUP1 PUSH4 0x66598874 EQ PUSH2 0x2BCF JUMPI DUP1 PUSH4 0x6FEA4538 EQ PUSH2 0x2B25 JUMPI DUP1 PUSH4 0x70ED4620 EQ PUSH2 0x2A7A JUMPI DUP1 PUSH4 0x79B9C399 EQ PUSH2 0x2682 JUMPI DUP1 PUSH4 0x7A994CD0 EQ PUSH2 0x2422 JUMPI DUP1 PUSH4 0x7BB03085 EQ PUSH2 0x2404 JUMPI DUP1 PUSH4 0x82FB31FE EQ PUSH2 0x23BF JUMPI DUP1 PUSH4 0x8372ACF7 EQ PUSH2 0x2317 JUMPI DUP1 PUSH4 0x8B311FBC EQ PUSH2 0x224B JUMPI DUP1 PUSH4 0x8BEAF1C5 EQ PUSH2 0x21A6 JUMPI DUP1 PUSH4 0x8DA5CB5B EQ PUSH2 0x217D JUMPI DUP1 PUSH4 0x8FB6C6F6 EQ PUSH2 0x20D7 JUMPI DUP1 PUSH4 0x9CC8E7EB EQ PUSH2 0x20B9 JUMPI DUP1 PUSH4 0x9FB3CF4F EQ PUSH2 0x1938 JUMPI DUP1 PUSH4 0xA079D40C EQ PUSH2 0x182E JUMPI DUP1 PUSH4 0xA87430BA EQ PUSH2 0x1776 JUMPI DUP1 PUSH4 0xA90F8E9A EQ PUSH2 0x173B JUMPI DUP1 PUSH4 0xB1EAC37E EQ PUSH2 0x171D JUMPI DUP1 PUSH4 0xB6C72888 EQ PUSH2 0x16A8 JUMPI DUP1 PUSH4 0xBBB85188 EQ PUSH2 0x15EE JUMPI DUP1 PUSH4 0xBDF0F1AA EQ PUSH2 0x151F JUMPI DUP1 PUSH4 0xBFF1F9E1 EQ PUSH2 0x1501 JUMPI DUP1 PUSH4 0xC7105609 EQ PUSH2 0x14BE JUMPI DUP1 PUSH4 0xCECFBEAD EQ PUSH2 0x14A0 JUMPI DUP1 PUSH4 0xCF17BEAF EQ PUSH2 0x13EC JUMPI DUP1 PUSH4 0xDB2E21BC EQ PUSH2 0x1230 JUMPI DUP1 PUSH4 0xDB3EEF3F EQ PUSH2 0xF0B JUMPI DUP1 PUSH4 0xDB74559B EQ PUSH2 0xED1 JUMPI DUP1 PUSH4 0xDF312B1E EQ PUSH2 0xE6D JUMPI DUP1 PUSH4 0xDFAE07FF EQ PUSH2 0xDC3 JUMPI DUP1 PUSH4 0xE7865E57 EQ PUSH2 0xDA5 JUMPI DUP1 PUSH4 0xE91C7D33 EQ PUSH2 0xD87 JUMPI DUP1 PUSH4 0xE9AAE650 EQ PUSH2 0xD69 JUMPI DUP1 PUSH4 0xE9B7D964 EQ PUSH2 0x900 JUMPI DUP1 PUSH4 0xED1EC0F4 EQ PUSH2 0x8BB JUMPI DUP1 PUSH4 0xED4C85A9 EQ PUSH2 0x89D JUMPI DUP1 PUSH4 0xEDD6C848 EQ PUSH2 0x87F JUMPI DUP1 PUSH4 0xEF5AB0D5 EQ PUSH2 0x42F JUMPI DUP1 PUSH4 0xEFCA2EED EQ PUSH2 0x411 JUMPI DUP1 PUSH4 0xF09153C4 EQ PUSH2 0x398 JUMPI DUP1 PUSH4 0xF2FDE38B EQ PUSH2 0x318 JUMPI PUSH4 0xF9F92BE4 EQ PUSH2 0x2D4 JUMPI PUSH1 0x0 DUP1 REVERT JUMPDEST CALLVALUE PUSH2 0x313 JUMPI PUSH1 0x20 CALLDATASIZE PUSH1 0x3 NOT ADD SLT PUSH2 0x313 JUMPI PUSH1 0x1 PUSH1 0x1 PUSH1 0xA0 SHL SUB PUSH2 0x2F5 PUSH2 0x3A93 JUMP JUMPDEST AND PUSH1 0x0 MSTORE PUSH1 0x12 PUSH1 0x20 MSTORE PUSH1 0x20 PUSH1 0xFF PUSH1 0x40 PUSH1 0x0 KECCAK256 SLOAD AND PUSH1 0x40 MLOAD SWAP1 ISZERO ISZERO DUP2 MSTORE RETURN JUMPDEST PUSH1 0x0 DUP1 REVERT JUMPDEST CALLVALUE PUSH2 0x313 JUMPI PUSH1 0x20 CALLDATASIZE PUSH1 0x3 NOT ADD SLT PUSH2 0x313 JUMPI PUSH2 0x331 PUSH2 0x3A93 JUMP JUMPDEST PUSH1 0x0 SLOAD SWAP1 PUSH1 0x1 PUSH1 0x1 PUSH1 0xA0 SHL SUB SWAP1 PUSH2 0x34B CALLER DUP4 DUP6 AND EQ PUSH2 0x3D66 JUMP JUMPDEST AND SWAP1 DUP2 ISZERO PUSH2 0x363 JUMPI PUSH1 0x1 PUSH1 0x1 PUSH1 0xA0 SHL SUB NOT AND OR PUSH1 0x0 SSTORE STOP JUMPDEST PUSH1 0x40 MLOAD PUSH3 0x461BCD PUSH1 0xE5 SHL DUP2 MSTORE PUSH1 0x20 PUSH1 0x4 DUP3 ADD MSTORE PUSH1 0xD PUSH1 0x24 DUP3 ADD MSTORE PUSH13 0x24B73B30B634B21037BBB732B9 PUSH1 0x99 SHL PUSH1 0x44 DUP3 ADD MSTORE PUSH1 0x64 SWAP1 REVERT JUMPDEST CALLVALUE PUSH2 0x313 JUMPI PUSH1 0x20 CALLDATASIZE PUSH1 0x3 NOT ADD SLT PUSH2 0x313 JUMPI PUSH1 0x1 PUSH1 0x1 PUSH1 0xA0 SHL SUB PUSH2 0x3B9 PUSH2 0x3A93 JUMP JUMPDEST AND PUSH1 0x0 MSTORE PUSH1 0x13 PUSH1 0x20 MSTORE PUSH1 0xA0 PUSH1 0x6 PUSH1 0x40 PUSH1 0x0 KECCAK256 ADD SLOAD PUSH1 0x16 PUSH1 0x20 MSTORE PUSH1 0x40 PUSH1 0x0 KECCAK256 SLOAD PUSH1 0xFF PUSH1 0x40 MLOAD SWAP3 DUP2 DUP2 AND ISZERO ISZERO DUP5 MSTORE DUP2 DUP2 PUSH1 0x8 SHR AND ISZERO ISZERO PUSH1 0x20 DUP6 ADD MSTORE DUP2 DUP2 PUSH1 0x10 SHR AND ISZERO ISZERO PUSH1 0x40 DUP6 ADD MSTORE PUSH1 0x18 SHR AND ISZERO ISZERO PUSH1 0x60 DUP4 ADD MSTORE PUSH1 0x80 DUP3 ADD MSTORE RETURN JUMPDEST CALLVALUE PUSH2 0x313 JUMPI PUSH1 0x0 CALLDATASIZE PUSH1 0x3 NOT ADD SLT PUSH2 0x313 JUMPI PUSH1 0x20 PUSH1 0xE SLOAD PUSH1 0x40 MLOAD SWAP1 DUP2 MSTORE RETURN JUMPDEST CALLVALUE PUSH2 0x313 JUMPI PUSH1 0x0 CALLDATASIZE PUSH1 0x3 NOT ADD SLT PUSH2 0x313 JUMPI PUSH2 0x451 PUSH1 0xFF PUSH1 0x11 SLOAD PUSH1 0xB0 SHR AND PUSH2 0x3B62 JUMP JUMPDEST CALLER PUSH1 0x0 MSTORE PUSH1 0x13 PUSH1 0x20 MSTORE PUSH2 0x472 PUSH1 0xFF PUSH1 0x6 PUSH1 0x40 PUSH1 0x0 KECCAK256 ADD SLOAD PUSH1 0x20 SHR AND ISZERO PUSH2 0x3BA3 JUMP JUMPDEST CALLER PUSH1 0x0 MSTORE PUSH1 0x12 PUSH1 0x20 MSTORE PUSH2 0x48D PUSH1 0xFF PUSH1 0x40 PUSH1 0x0 KECCAK256 SLOAD AND ISZERO PUSH2 0x3BE2 JUMP JUMPDEST PUSH2 0x4C1 PUSH32 0x0 PUSH1 0x1 PUSH1 0x1 PUSH1 0xA0 SHL SUB AND ISZERO ISZERO PUSH2 0x3C39 JUMP JUMPDEST PUSH1 0x40 MLOAD PUSH4 0x543A185D PUSH1 0xE1 SHL DUP2 MSTORE CALLER PUSH1 0x4 DUP3 ADD MSTORE PUSH2 0x160 DUP1 DUP3 PUSH1 0x24 DUP2 PUSH32 0x0 PUSH1 0x1 PUSH1 0x1 PUSH1 0xA0 SHL SUB AND GAS STATICCALL SWAP1 DUP2 ISZERO PUSH2 0x7B8 JUMPI PUSH1 0x0 SWAP1 PUSH1 0x0 SWAP4 PUSH1 0x0 DUP1 PUSH1 0x0 SWAP5 PUSH1 0x0 DUP1 SWAP7 PUSH1 0x0 SWAP5 PUSH1 0x0 SWAP7 PUSH1 0x0 SWAP9 PUSH1 0x0 SWAP12 PUSH2 0x837 JUMPI JUMPDEST POP POP DUP4 ISZERO DUP1 ISZERO SWAP11 DUP12 SWAP2 PUSH2 0x82F JUMPI JUMPDEST POP ISZERO PUSH2 0x7F3 JUMPI PUSH1 0x6 SWAP5 CALLER PUSH1 0x0 MSTORE PUSH1 0x13 PUSH1 0x20 MSTORE PUSH1 0x40 PUSH1 0x0 KECCAK256 SWAP5 DUP6 SSTORE DUP12 PUSH1 0x1 DUP7 ADD SSTORE PUSH1 0x2 DUP6 ADD SSTORE PUSH1 0x3 DUP5 ADD SSTORE PUSH1 0x4 DUP4 ADD SSTORE PUSH1 0x5 DUP3 ADD SSTORE ADD PUSH2 0x589 DUP6 DUP3 SWAP1 PUSH1 0xFF DUP1 NOT DUP4 SLOAD AND SWAP2 ISZERO ISZERO AND OR SWAP1 SSTORE JUMP JUMPDEST DUP1 SLOAD PUSH5 0x100000000 PUSH5 0xFFFFFFFF00 NOT SWAP1 SWAP2 AND PUSH2 0xFF00 DUP5 ISZERO ISZERO PUSH1 0x8 SHL AND OR PUSH3 0xFF0000 DUP6 ISZERO ISZERO PUSH1 0x10 SHL AND OR PUSH4 0xFF000000 DUP7 ISZERO ISZERO PUSH1 0x18 SHL AND OR OR SWAP1 SSTORE PUSH1 0x40 MLOAD PUSH4 0x5487C74D PUSH1 0xE1 SHL DUP2 MSTORE CALLER PUSH1 0x4 DUP3 ADD MSTORE PUSH1 0x20 DUP2 PUSH1 0x24 DUP2 PUSH1 0x1 PUSH1 0x1 PUSH1 0xA0 SHL SUB PUSH32 0x0 AND GAS STATICCALL SWAP1 DUP2 ISZERO PUSH2 0x7B8 JUMPI PUSH1 0x0 SWAP2 PUSH2 0x7C4 JUMPI JUMPDEST POP PUSH1 0x1 PUSH1 0x1 PUSH1 0xA0 SHL SUB AND DUP1 PUSH2 0x6A4 JUMPI JUMPDEST POP SWAP1 PUSH2 0x674 SWAP4 SWAP3 SWAP2 PUSH1 0x0 DUP1 MLOAD PUSH1 0x20 PUSH2 0x427F DUP4 CODECOPY DUP2 MLOAD SWAP2 MSTORE SWAP6 PUSH2 0x691 JUMPI JUMPDEST DUP4 ISZERO PUSH2 0x689 JUMPI JUMPDEST POP DUP3 ISZERO PUSH2 0x681 JUMPI JUMPDEST POP DUP2 ISZERO PUSH2 0x679 JUMPI JUMPDEST POP PUSH1 0x40 DUP1 MLOAD SWAP5 DUP6 MSTORE SWAP1 ISZERO ISZERO PUSH1 0x20 DUP6 ADD MSTORE CALLER SWAP4 SWAP2 DUP3 SWAP2 DUP3 ADD SWAP1 JUMP JUMPDEST SUB SWAP1 LOG2 STOP JUMPDEST SWAP1 POP DUP5 PUSH2 0x65A JUMP JUMPDEST SWAP2 POP DUP6 PUSH2 0x652 JUMP JUMPDEST SWAP3 POP DUP7 PUSH2 0x64A JUMP JUMPDEST PUSH2 0x69C PUSH1 0xF SLOAD PUSH2 0x3D57 JUMP JUMPDEST PUSH1 0xF SSTORE PUSH2 0x643 JUMP JUMPDEST CALLER PUSH1 0x0 MSTORE PUSH1 0x15 PUSH1 0x20 MSTORE PUSH1 0x40 PUSH1 0x0 KECCAK256 SWAP1 PUSH1 0x1 PUSH1 0x1 PUSH1 0x60 SHL SUB PUSH1 0xA0 SHL DUP3 SLOAD AND OR SWAP1 SSTORE PUSH1 0x40 MLOAD PUSH4 0x4DAD19D PUSH1 0xE1 SHL DUP2 MSTORE CALLER PUSH1 0x4 DUP3 ADD MSTORE PUSH1 0x20 DUP2 PUSH1 0x24 DUP2 PUSH1 0x1 DUP1 PUSH1 0xA0 SHL SUB PUSH32 0x0 AND GAS STATICCALL SWAP1 DUP2 ISZERO PUSH2 0x7B8 JUMPI PUSH1 0x0 SWAP2 PUSH2 0x75D JUMPI JUMPDEST POP SWAP1 PUSH1 0x0 DUP1 MLOAD PUSH1 0x20 PUSH2 0x427F DUP4 CODECOPY DUP2 MLOAD SWAP2 MSTORE SWAP6 PUSH2 0x752 PUSH2 0x674 SWAP7 SWAP6 SWAP5 SWAP4 CALLER PUSH1 0x0 MSTORE PUSH1 0x17 PUSH1 0x20 MSTORE PUSH1 0x40 PUSH1 0x0 KECCAK256 SWAP1 PUSH1 0xFF DUP1 NOT DUP4 SLOAD AND SWAP2 ISZERO ISZERO AND OR SWAP1 SSTORE JUMP JUMPDEST SWAP6 POP SWAP1 SWAP2 SWAP3 SWAP4 PUSH2 0x626 JUMP JUMPDEST SWAP5 SWAP4 SWAP3 SWAP2 SWAP1 POP PUSH1 0x20 DUP6 RETURNDATASIZE PUSH1 0x20 GT PUSH2 0x7B0 JUMPI JUMPDEST DUP2 PUSH2 0x77C PUSH1 0x20 SWAP4 DUP4 PUSH2 0x3C97 JUMP JUMPDEST DUP2 ADD SUB SLT PUSH2 0x313 JUMPI PUSH1 0x0 DUP1 MLOAD PUSH1 0x20 PUSH2 0x427F DUP4 CODECOPY DUP2 MLOAD SWAP2 MSTORE SWAP6 PUSH2 0x752 PUSH2 0x7A3 PUSH2 0x674 SWAP8 PUSH2 0x3CB9 JUMP JUMPDEST SWAP3 SWAP4 SWAP5 SWAP6 SWAP7 POP POP SWAP6 PUSH2 0x717 JUMP JUMPDEST RETURNDATASIZE SWAP2 POP PUSH2 0x76F JUMP JUMPDEST PUSH1 0x40 MLOAD RETURNDATASIZE PUSH1 0x0 DUP3 RETURNDATACOPY RETURNDATASIZE SWAP1 REVERT JUMPDEST PUSH2 0x7E6 SWAP2 POP PUSH1 0x20 RETURNDATASIZE PUSH1 0x20 GT PUSH2 0x7EC JUMPI JUMPDEST PUSH2 0x7DE DUP2 DUP4 PUSH2 0x3C97 JUMP JUMPDEST DUP2 ADD SWAP1 PUSH2 0x3D38 JUMP JUMPDEST DUP8 PUSH2 0x616 JUMP JUMPDEST POP RETURNDATASIZE PUSH2 0x7D4 JUMP JUMPDEST PUSH1 0x40 MLOAD PUSH3 0x461BCD PUSH1 0xE5 SHL DUP2 MSTORE PUSH1 0x20 PUSH1 0x4 DUP3 ADD MSTORE PUSH1 0x14 PUSH1 0x24 DUP3 ADD MSTORE PUSH20 0x2AB9B2B9103737BA103337BAB7321034B7102B19 PUSH1 0x61 SHL PUSH1 0x44 DUP3 ADD MSTORE PUSH1 0x64 SWAP1 REVERT JUMPDEST SWAP1 POP DUP13 PUSH2 0x53E JUMP JUMPDEST SWAP10 POP SWAP10 POP POP POP POP POP POP POP POP POP PUSH2 0x862 SWAP3 POP DUP1 RETURNDATASIZE LT PUSH2 0x878 JUMPI JUMPDEST PUSH2 0x85A DUP2 DUP4 PUSH2 0x3C97 JUMP JUMPDEST DUP2 ADD SWAP1 PUSH2 0x3CC6 JUMP JUMPDEST SWAP9 SWAP10 SWAP4 SWAP8 SWAP1 SWAP7 SWAP2 SWAP6 SWAP3 SWAP5 SWAP1 SWAP4 SWAP3 SWAP1 SWAP2 DUP12 DUP1 PUSH2 0x530 JUMP JUMPDEST POP RETURNDATASIZE PUSH2 0x850 JUMP JUMPDEST CALLVALUE PUSH2 0x313 JUMPI PUSH1 0x0 CALLDATASIZE PUSH1 0x3 NOT ADD SLT PUSH2 0x313 JUMPI PUSH1 0x20 PUSH1 0x8 SLOAD PUSH1 0x40 MLOAD SWAP1 DUP2 MSTORE RETURN JUMPDEST CALLVALUE PUSH2 0x313 JUMPI PUSH1 0x0 CALLDATASIZE PUSH1 0x3 NOT ADD SLT PUSH2 0x313 JUMPI PUSH1 0x20 PUSH1 0x7 SLOAD PUSH1 0x40 MLOAD SWAP1 DUP2 MSTORE RETURN JUMPDEST CALLVALUE PUSH2 0x313 JUMPI PUSH1 0x0 CALLDATASIZE PUSH1 0x3 NOT ADD SLT PUSH2 0x313 JUMPI PUSH1 0x40 MLOAD PUSH32 0x0 PUSH1 0x1 PUSH1 0x1 PUSH1 0xA0 SHL SUB AND DUP2 MSTORE PUSH1 0x20 SWAP1 RETURN JUMPDEST CALLVALUE PUSH2 0x313 JUMPI PUSH1 0x20 CALLDATASIZE PUSH1 0x3 NOT ADD SLT PUSH2 0x313 JUMPI PUSH1 0x4 CALLDATALOAD PUSH8 0xFFFFFFFFFFFFFFFF DUP2 GT PUSH2 0x313 JUMPI PUSH2 0x931 SWAP1 CALLDATASIZE SWAP1 PUSH1 0x4 ADD PUSH2 0x3AB8 JUMP JUMPDEST SWAP1 PUSH2 0x947 PUSH1 0x1 DUP1 PUSH1 0xA0 SHL SUB PUSH1 0x0 SLOAD AND CALLER EQ PUSH2 0x3D66 JUMP JUMPDEST PUSH2 0x958 PUSH1 0xFF PUSH1 0x11 SLOAD PUSH1 0xB0 SHR AND PUSH2 0x3B62 JUMP JUMPDEST PUSH2 0x98C PUSH32 0x0 PUSH1 0x1 PUSH1 0x1 PUSH1 0xA0 SHL SUB AND ISZERO ISZERO PUSH2 0x3C39 JUMP JUMPDEST PUSH1 0x0 JUMPDEST DUP3 DUP2 LT PUSH2 0x998 JUMPI STOP JUMPDEST PUSH1 0x1 PUSH1 0x1 PUSH1 0xA0 SHL SUB PUSH2 0x9B3 PUSH2 0x9AE DUP4 DUP7 DUP7 PUSH2 0x3D9E JUMP JUMPDEST PUSH2 0x3DC4 JUMP JUMPDEST AND SWAP1 DUP2 PUSH1 0x0 MSTORE PUSH1 0x13 PUSH1 0x20 MSTORE PUSH1 0xFF PUSH1 0x6 PUSH1 0x40 PUSH1 0x0 KECCAK256 ADD SLOAD PUSH1 0x20 SHR AND DUP1 ISZERO PUSH2 0xD55 JUMPI JUMPDEST PUSH2 0xD4B JUMPI PUSH1 0x40 MLOAD PUSH4 0x543A185D PUSH1 0xE1 SHL DUP2 MSTORE PUSH1 0x4 DUP2 ADD DUP4 SWAP1 MSTORE SWAP2 PUSH2 0x160 DUP4 PUSH1 0x24 DUP2 PUSH32 0x0 PUSH1 0x1 PUSH1 0x1 PUSH1 0xA0 SHL SUB AND GAS STATICCALL SWAP3 DUP4 ISZERO PUSH2 0x7B8 JUMPI PUSH1 0x0 SWAP1 PUSH1 0x0 SWAP1 PUSH1 0x0 DUP1 PUSH1 0x0 SWAP5 PUSH1 0x0 DUP1 SWAP7 PUSH1 0x0 SWAP4 PUSH1 0x0 SWAP6 PUSH1 0x0 SWAP8 PUSH1 0x0 SWAP14 PUSH2 0xD10 JUMPI JUMPDEST POP DUP5 ISZERO DUP1 SWAP14 DUP2 SWAP15 PUSH2 0xD07 JUMPI JUMPDEST POP PUSH2 0xCF2 JUMPI PUSH1 0x0 DUP12 DUP2 MSTORE PUSH1 0x13 PUSH1 0x20 SWAP1 DUP2 MSTORE PUSH1 0x40 SWAP2 DUP3 SWAP1 KECCAK256 SWAP7 DUP8 SSTORE PUSH1 0x1 DUP8 ADD DUP12 SWAP1 SSTORE PUSH1 0x2 DUP8 ADD SWAP3 SWAP1 SWAP3 SSTORE PUSH1 0x3 DUP7 ADD SWAP3 SWAP1 SWAP3 SSTORE PUSH1 0x4 DUP1 DUP7 ADD SWAP4 SWAP1 SWAP4 SSTORE PUSH1 0x5 DUP6 ADD SWAP4 SWAP1 SWAP4 SSTORE PUSH1 0x6 SWAP1 SWAP4 ADD DUP1 SLOAD PUSH5 0x100000000 PUSH5 0xFFFFFFFFFF NOT SWAP1 SWAP2 AND DUP11 ISZERO ISZERO PUSH1 0xFF AND OR PUSH2 0xFF00 DUP8 ISZERO ISZERO PUSH1 0x8 SHL AND OR PUSH3 0xFF0000 DUP9 ISZERO ISZERO PUSH1 0x10 SHL AND OR PUSH4 0xFF000000 DUP10 ISZERO ISZERO PUSH1 0x18 SHL AND OR OR SWAP1 SSTORE SWAP2 MLOAD PUSH4 0x5487C74D PUSH1 0xE1 SHL DUP2 MSTORE SWAP2 DUP3 ADD DUP9 SWAP1 MSTORE DUP2 PUSH1 0x24 DUP2 PUSH1 0x1 PUSH1 0x1 PUSH1 0xA0 SHL SUB PUSH32 0x0 AND GAS STATICCALL SWAP1 DUP2 ISZERO PUSH2 0x7B8 JUMPI PUSH1 0x0 SWAP2 PUSH2 0xCD3 JUMPI JUMPDEST POP PUSH1 0x1 PUSH1 0x1 PUSH1 0xA0 SHL SUB AND DUP1 PUSH2 0xBB8 JUMPI JUMPDEST POP SWAP1 PUSH1 0x0 DUP1 MLOAD PUSH1 0x20 PUSH2 0x427F DUP4 CODECOPY DUP2 MLOAD SWAP2 MSTORE SWAP5 SWAP4 SWAP3 SWAP2 PUSH2 0xB88 SWAP9 ISZERO PUSH2 0xBA5 JUMPI JUMPDEST DUP5 ISZERO PUSH2 0xB9D JUMPI JUMPDEST POP DUP4 ISZERO PUSH2 0xB95 JUMPI JUMPDEST POP DUP3 ISZERO PUSH2 0xB8D JUMPI JUMPDEST POP PUSH1 0x40 DUP1 MLOAD SWAP2 DUP3 MSTORE SWAP2 ISZERO ISZERO PUSH1 0x20 DUP3 ADD MSTORE LOG2 PUSH2 0x3D57 JUMP JUMPDEST PUSH2 0x98F JUMP JUMPDEST SWAP2 POP DUP9 PUSH2 0xB72 JUMP JUMPDEST SWAP3 POP DUP10 PUSH2 0xB6A JUMP JUMPDEST SWAP4 POP DUP11 PUSH2 0xB62 JUMP JUMPDEST PUSH1 0xF PUSH2 0xBB1 DUP2 SLOAD PUSH2 0x3D57 JUMP JUMPDEST SWAP1 SSTORE PUSH2 0xB5B JUMP JUMPDEST PUSH1 0x0 DUP8 DUP2 MSTORE PUSH1 0x15 PUSH1 0x20 SWAP1 DUP2 MSTORE PUSH1 0x40 SWAP2 DUP3 SWAP1 KECCAK256 DUP1 SLOAD PUSH1 0x1 PUSH1 0x1 PUSH1 0xA0 SHL SUB NOT AND SWAP1 SWAP4 OR SWAP1 SWAP3 SSTORE MLOAD PUSH4 0x4DAD19D PUSH1 0xE1 SHL DUP2 MSTORE PUSH1 0x4 DUP2 ADD DUP9 SWAP1 MSTORE SWAP1 DUP2 PUSH1 0x24 DUP2 PUSH32 0x0 PUSH1 0x1 PUSH1 0x1 PUSH1 0xA0 SHL SUB AND GAS STATICCALL SWAP1 DUP2 ISZERO PUSH2 0x7B8 JUMPI PUSH1 0x0 SWAP2 PUSH2 0xC76 JUMPI JUMPDEST POP SWAP1 PUSH2 0xB88 SWAP9 PUSH2 0xC6A PUSH1 0x0 DUP1 MLOAD PUSH1 0x20 PUSH2 0x427F DUP4 CODECOPY DUP2 MLOAD SWAP2 MSTORE SWAP8 SWAP7 SWAP6 SWAP5 SWAP4 DUP10 PUSH1 0x0 MSTORE PUSH1 0x17 PUSH1 0x20 MSTORE PUSH1 0x40 PUSH1 0x0 KECCAK256 SWAP1 PUSH1 0xFF DUP1 NOT DUP4 SLOAD AND SWAP2 ISZERO ISZERO AND OR SWAP1 SSTORE JUMP JUMPDEST SWAP9 POP SWAP1 SWAP2 SWAP3 SWAP4 SWAP5 PUSH2 0xB3C JUMP JUMPDEST SWAP6 SWAP5 SWAP4 SWAP3 SWAP2 SWAP1 POP PUSH1 0x20 DUP7 RETURNDATASIZE PUSH1 0x20 GT PUSH2 0xCCB JUMPI JUMPDEST DUP2 PUSH2 0xC96 PUSH1 0x20 SWAP4 DUP4 PUSH2 0x3C97 JUMP JUMPDEST DUP2 ADD SUB SLT PUSH2 0x313 JUMPI PUSH2 0xB88 SWAP9 PUSH2 0xC6A PUSH2 0xCBD PUSH1 0x0 DUP1 MLOAD PUSH1 0x20 PUSH2 0x427F DUP4 CODECOPY DUP2 MLOAD SWAP2 MSTORE SWAP9 PUSH2 0x3CB9 JUMP JUMPDEST SWAP3 SWAP4 SWAP5 SWAP6 SWAP7 SWAP8 POP POP SWAP9 PUSH2 0xC2E JUMP JUMPDEST RETURNDATASIZE SWAP2 POP PUSH2 0xC89 JUMP JUMPDEST PUSH2 0xCEC SWAP2 POP PUSH1 0x20 RETURNDATASIZE PUSH1 0x20 GT PUSH2 0x7EC JUMPI PUSH2 0x7DE DUP2 DUP4 PUSH2 0x3C97 JUMP JUMPDEST DUP12 PUSH2 0xB2C JUMP JUMPDEST POP POP POP POP POP POP POP POP POP POP POP PUSH2 0xB88 SWAP2 POP PUSH2 0x3D57 JUMP JUMPDEST SWAP1 POP ISZERO CODESIZE PUSH2 0xA54 JUMP JUMPDEST SWAP10 POP POP POP POP POP POP POP POP POP POP PUSH2 0xD37 SWAP2 SWAP4 POP PUSH2 0x160 RETURNDATASIZE PUSH2 0x160 GT PUSH2 0x878 JUMPI PUSH2 0x85A DUP2 DUP4 PUSH2 0x3C97 JUMP JUMPDEST SWAP12 SWAP10 SWAP4 SWAP9 SWAP8 SWAP1 SWAP7 SWAP2 SWAP6 SWAP3 SWAP5 SWAP3 SWAP2 SWAP1 DUP16 PUSH2 0xA48 JUMP JUMPDEST PUSH2 0xB88 SWAP2 POP PUSH2 0x3D57 JUMP JUMPDEST POP PUSH1 0x12 PUSH1 0x20 MSTORE PUSH1 0xFF PUSH1 0x40 PUSH1 0x0 KECCAK256 SLOAD AND PUSH2 0x9D4 JUMP JUMPDEST CALLVALUE PUSH2 0x313 JUMPI PUSH1 0x0 CALLDATASIZE PUSH1 0x3 NOT ADD SLT PUSH2 0x313 JUMPI PUSH1 0x20 PUSH1 0x1 SLOAD PUSH1 0x40 MLOAD SWAP1 DUP2 MSTORE RETURN JUMPDEST CALLVALUE PUSH2 0x313 JUMPI PUSH1 0x0 CALLDATASIZE PUSH1 0x3 NOT ADD SLT PUSH2 0x313 JUMPI PUSH1 0x20 PUSH1 0x3 SLOAD PUSH1 0x40 MLOAD SWAP1 DUP2 MSTORE RETURN JUMPDEST CALLVALUE PUSH2 0x313 JUMPI PUSH1 0x0 CALLDATASIZE PUSH1 0x3 NOT ADD SLT PUSH2 0x313 JUMPI PUSH1 0x20 PUSH1 0xC SLOAD PUSH1 0x40 MLOAD SWAP1 DUP2 MSTORE RETURN JUMPDEST CALLVALUE PUSH2 0x313 JUMPI PUSH1 0x20 CALLDATASIZE PUSH1 0x3 NOT ADD SLT PUSH2 0x313 JUMPI PUSH1 0x0 DUP1 MLOAD PUSH1 0x20 PUSH2 0x429F DUP4 CODECOPY DUP2 MLOAD SWAP2 MSTORE PUSH1 0xA0 PUSH1 0x4 CALLDATALOAD PUSH2 0xDFC PUSH1 0x1 DUP1 DUP5 SHL SUB PUSH1 0x0 SLOAD AND CALLER EQ PUSH2 0x3D66 JUMP JUMPDEST PUSH9 0x3635C9ADC5DEA00000 DUP2 LT ISZERO DUP1 PUSH2 0xE59 JUMPI JUMPDEST PUSH2 0xE18 SWAP1 PUSH2 0x4221 JUMP JUMPDEST PUSH1 0x2 SLOAD SWAP1 DUP1 PUSH1 0x2 SSTORE PUSH1 0x40 MLOAD SWAP2 PUSH1 0x60 DUP4 MSTORE PUSH1 0x14 PUSH1 0x60 DUP5 ADD MSTORE PUSH20 0x53545245414B5F424F4E55535F5045525F444159 PUSH1 0x60 SHL PUSH1 0x80 DUP5 ADD MSTORE PUSH1 0x20 DUP4 ADD MSTORE PUSH1 0x40 DUP3 ADD MSTORE LOG1 STOP JUMPDEST POP PUSH10 0xA968163F0A57B400000 DUP2 GT ISZERO PUSH2 0xE0F JUMP JUMPDEST CALLVALUE PUSH2 0x313 JUMPI PUSH1 0x20 CALLDATASIZE PUSH1 0x3 NOT ADD SLT PUSH2 0x313 JUMPI PUSH1 0x1 PUSH1 0x1 PUSH1 0xA0 SHL SUB PUSH2 0xE8E PUSH2 0x3A93 JUMP JUMPDEST AND PUSH1 0x0 MSTORE PUSH1 0x14 PUSH1 0x20 MSTORE PUSH1 0x80 PUSH1 0x40 PUSH1 0x0 KECCAK256 PUSH1 0x1 DUP2 SLOAD SWAP2 ADD SLOAD PUSH1 0xFF PUSH1 0x40 MLOAD SWAP3 DUP2 DUP2 AND ISZERO ISZERO DUP5 MSTORE DUP2 DUP2 PUSH1 0x8 SHR AND ISZERO ISZERO PUSH1 0x20 DUP6 ADD MSTORE PUSH1 0x10 SHR AND ISZERO ISZERO PUSH1 0x40 DUP4 ADD MSTORE PUSH1 0x60 DUP3 ADD MSTORE RETURN JUMPDEST CALLVALUE PUSH2 0x313 JUMPI PUSH1 0x20 CALLDATASIZE PUSH1 0x3 NOT ADD SLT PUSH2 0x313 JUMPI PUSH1 0x1 PUSH1 0x1 PUSH1 0xA0 SHL SUB PUSH2 0xEF2 PUSH2 0x3A93 JUMP JUMPDEST AND PUSH1 0x0 MSTORE PUSH1 0x16 PUSH1 0x20 MSTORE PUSH1 0x20 PUSH1 0x40 PUSH1 0x0 KECCAK256 SLOAD PUSH1 0x40 MLOAD SWAP1 DUP2 MSTORE RETURN JUMPDEST CALLVALUE PUSH2 0x313 JUMPI PUSH2 0xF62 PUSH2 0xF5D PUSH2 0xF1F CALLDATASIZE PUSH2 0x3B17 JUMP JUMPDEST PUSH2 0xF38 PUSH1 0xFF PUSH1 0x11 SWAP8 SWAP5 SWAP6 SWAP8 SWAP7 SWAP4 SWAP7 SLOAD PUSH1 0xA8 SHR AND ISZERO PUSH2 0x3DD8 JUMP JUMPDEST CALLER PUSH1 0x0 MSTORE PUSH1 0x20 SWAP5 PUSH1 0x12 DUP7 MSTORE PUSH2 0xF55 PUSH1 0xFF PUSH1 0x40 PUSH1 0x0 KECCAK256 SLOAD AND ISZERO PUSH2 0x3E19 JUMP JUMPDEST DUP5 DUP8 CALLER PUSH2 0x40D0 JUMP JUMPDEST PUSH2 0x3E5E JUMP JUMPDEST PUSH2 0xF6B CALLER PUSH2 0x4092 JUMP JUMPDEST CALLER PUSH1 0x0 MSTORE PUSH1 0x14 DUP3 MSTORE PUSH1 0x40 PUSH1 0x0 KECCAK256 PUSH2 0xF83 CALLDATASIZE DUP4 DUP7 PUSH2 0x3F48 JUMP JUMPDEST DUP1 MLOAD SWAP1 DUP5 ADD KECCAK256 PUSH32 0x59F9C19CE4D2104B5074AFDBD422A67CE762A07B67944DFC1AC72CEBC1EF9FB3 DUP2 SUB PUSH2 0x115B JUMPI POP PUSH1 0x1 DUP2 SLOAD PUSH2 0xFC2 PUSH1 0xFF DUP3 AND ISZERO PUSH2 0x3F8F JUMP JUMPDEST PUSH1 0xFF NOT AND OR SWAP1 SSTORE PUSH1 0x6 SLOAD SWAP1 JUMPDEST PUSH1 0x40 MLOAD PUSH4 0x70A08231 PUSH1 0xE0 SHL DUP2 MSTORE ADDRESS PUSH1 0x4 DUP3 ADD MSTORE PUSH32 0x0 PUSH1 0x1 PUSH1 0x1 PUSH1 0xA0 SHL SUB AND SWAP1 DUP5 DUP2 PUSH1 0x24 DUP2 DUP6 GAS STATICCALL DUP1 ISZERO PUSH2 0x7B8 JUMPI DUP5 SWAP1 PUSH1 0x0 SWAP1 PUSH2 0x112A JUMPI JUMPDEST PUSH2 0x1030 SWAP3 POP LT ISZERO PUSH2 0x3EBE JUMP JUMPDEST CALLER PUSH1 0x0 MSTORE PUSH1 0x13 DUP5 MSTORE PUSH1 0x3 PUSH1 0x40 PUSH1 0x0 KECCAK256 ADD PUSH2 0x104B DUP5 DUP3 SLOAD PUSH2 0x3E9E JUMP JUMPDEST SWAP1 SSTORE PUSH2 0x1059 DUP4 PUSH1 0xE SLOAD PUSH2 0x3E9E JUMP JUMPDEST PUSH1 0xE SSTORE PUSH1 0x40 MLOAD PUSH4 0xA9059CBB PUSH1 0xE0 SHL DUP2 MSTORE CALLER PUSH1 0x4 DUP3 ADD MSTORE PUSH1 0x24 DUP2 ADD DUP5 SWAP1 MSTORE SWAP1 DUP5 SWAP1 DUP3 SWAP1 PUSH1 0x44 SWAP1 DUP3 SWAP1 PUSH1 0x0 SWAP1 GAS CALL SWAP4 DUP5 ISZERO PUSH2 0x7B8 JUMPI PUSH1 0x0 SWAP5 PUSH2 0x10D1 JUMPI JUMPDEST POP POP PUSH2 0x10C0 PUSH32 0x10DDCE2FE83F593B5A578FDEAEA55181DAA98B7E1E4652E712B2C821622FC307 SWAP4 PUSH2 0x3F0A JUMP JUMPDEST PUSH2 0x674 PUSH1 0x40 MLOAD SWAP3 DUP4 SWAP3 CALLER SWAP7 DUP5 PUSH2 0x3FDB JUMP JUMPDEST SWAP1 DUP1 SWAP5 POP DUP2 RETURNDATASIZE DUP4 GT PUSH2 0x1123 JUMPI JUMPDEST PUSH2 0x10E8 DUP2 DUP4 PUSH2 0x3C97 JUMP JUMPDEST DUP2 ADD SUB SLT PUSH2 0x313 JUMPI PUSH2 0x10C0 PUSH2 0x111D PUSH32 0x10DDCE2FE83F593B5A578FDEAEA55181DAA98B7E1E4652E712B2C821622FC307 SWAP5 PUSH2 0x3CB9 JUMP JUMPDEST SWAP4 PUSH2 0x1094 JUMP JUMPDEST POP RETURNDATASIZE PUSH2 0x10DE JUMP JUMPDEST POP POP DUP5 DUP2 DUP2 RETURNDATASIZE DUP4 GT PUSH2 0x1154 JUMPI JUMPDEST PUSH2 0x1141 DUP2 DUP4 PUSH2 0x3C97 JUMP JUMPDEST DUP2 ADD SUB SLT PUSH2 0x313 JUMPI DUP4 PUSH2 0x1030 SWAP2 MLOAD PUSH2 0x1024 JUMP JUMPDEST POP RETURNDATASIZE PUSH2 0x1137 JUMP JUMPDEST PUSH32 0x103F7B2DDA1595DA24C03F5970D4163272B9BADB6161A376876BFEA67102615C DUP2 SUB PUSH2 0x11A9 JUMPI POP PUSH2 0x100 DUP2 SLOAD PUSH2 0x1198 PUSH1 0xFF DUP3 PUSH1 0x8 SHR AND ISZERO PUSH2 0x3F8F JUMP JUMPDEST PUSH2 0xFF00 NOT AND OR SWAP1 SSTORE PUSH1 0x7 SLOAD SWAP1 PUSH2 0xFCE JUMP JUMPDEST PUSH32 0x6C25E4722CB75723D0F45967423F4FEFC1866B6DB42936B2E4C9827F9D9F8CCD SUB PUSH2 0x11F7 JUMPI PUSH3 0x10000 DUP2 SLOAD PUSH2 0x11E5 PUSH1 0xFF DUP3 PUSH1 0x10 SHR AND ISZERO PUSH2 0x3F8F JUMP JUMPDEST PUSH3 0xFF0000 NOT AND OR SWAP1 SSTORE PUSH1 0x8 SLOAD SWAP1 PUSH2 0xFCE JUMP JUMPDEST PUSH1 0x40 MLOAD PUSH3 0x461BCD PUSH1 0xE5 SHL DUP2 MSTORE PUSH1 0x4 DUP2 ADD DUP5 SWAP1 MSTORE PUSH1 0x11 PUSH1 0x24 DUP3 ADD MSTORE PUSH17 0x496E76616C6964207461736B2074797065 PUSH1 0x78 SHL PUSH1 0x44 DUP3 ADD MSTORE PUSH1 0x64 SWAP1 REVERT JUMPDEST CALLVALUE PUSH2 0x313 JUMPI PUSH1 0x0 CALLDATASIZE PUSH1 0x3 NOT ADD SLT PUSH2 0x313 JUMPI PUSH1 0x0 SLOAD PUSH1 0x1 PUSH1 0x1 PUSH1 0xA0 SHL SUB SWAP1 DUP2 AND PUSH2 0x125A CALLER DUP3 EQ PUSH2 0x3D66 JUMP JUMPDEST PUSH1 0x40 MLOAD PUSH4 0x70A08231 PUSH1 0xE0 SHL DUP2 MSTORE ADDRESS PUSH1 0x4 DUP3 ADD MSTORE SWAP2 PUSH1 0x20 SWAP2 PUSH32 0x0 DUP3 AND SWAP1 DUP4 DUP6 PUSH1 0x24 DUP2 DUP6 GAS STATICCALL SWAP5 DUP6 ISZERO PUSH2 0x7B8 JUMPI PUSH1 0x0 SWAP6 PUSH2 0x13BD JUMPI JUMPDEST POP DUP5 ISZERO PUSH2 0x138B JUMPI PUSH1 0x40 MLOAD PUSH4 0xA9059CBB PUSH1 0xE0 SHL DUP2 MSTORE PUSH1 0x1 PUSH1 0x1 PUSH1 0xA0 SHL SUB SWAP2 SWAP1 SWAP2 AND PUSH1 0x4 DUP3 ADD MSTORE PUSH1 0x24 DUP2 ADD DUP6 SWAP1 MSTORE SWAP3 SWAP2 SWAP1 DUP3 SWAP1 DUP5 SWAP1 PUSH1 0x44 SWAP1 DUP3 SWAP1 PUSH1 0x0 SWAP1 GAS CALL SWAP3 DUP4 ISZERO PUSH2 0x7B8 JUMPI PUSH1 0x0 SWAP4 PUSH2 0x1331 JUMPI JUMPDEST POP PUSH2 0x1323 PUSH32 0x5FAFA99D0643513820BE26656B45130B01E1C03062E1266BF36F88CBD3BD9695 SWAP4 PUSH2 0x3F0A JUMP JUMPDEST PUSH1 0x0 SLOAD AND SWAP3 PUSH1 0x40 MLOAD SWAP1 DUP2 MSTORE LOG2 STOP JUMPDEST SWAP3 POP DUP2 DUP4 DUP2 RETURNDATASIZE DUP4 GT PUSH2 0x1384 JUMPI JUMPDEST PUSH2 0x1348 DUP2 DUP4 PUSH2 0x3C97 JUMP JUMPDEST DUP2 ADD SUB SLT PUSH2 0x313 JUMPI PUSH2 0x1323 PUSH2 0x137D PUSH32 0x5FAFA99D0643513820BE26656B45130B01E1C03062E1266BF36F88CBD3BD9695 SWAP5 PUSH2 0x3CB9 JUMP JUMPDEST SWAP4 POP PUSH2 0x12F8 JUMP JUMPDEST POP RETURNDATASIZE PUSH2 0x133E JUMP JUMPDEST PUSH1 0x40 MLOAD PUSH3 0x461BCD PUSH1 0xE5 SHL DUP2 MSTORE PUSH1 0x4 DUP2 ADD DUP6 SWAP1 MSTORE PUSH1 0xA PUSH1 0x24 DUP3 ADD MSTORE PUSH10 0x4E6F2062616C616E6365 PUSH1 0xB0 SHL PUSH1 0x44 DUP3 ADD MSTORE PUSH1 0x64 SWAP1 REVERT JUMPDEST SWAP1 SWAP5 POP DUP4 DUP2 DUP2 RETURNDATASIZE DUP4 GT PUSH2 0x13E5 JUMPI JUMPDEST PUSH2 0x13D5 DUP2 DUP4 PUSH2 0x3C97 JUMP JUMPDEST DUP2 ADD SUB SLT PUSH2 0x313 JUMPI MLOAD SWAP4 DUP6 PUSH2 0x12AC JUMP JUMPDEST POP RETURNDATASIZE PUSH2 0x13CB JUMP JUMPDEST CALLVALUE PUSH2 0x313 JUMPI PUSH1 0x20 CALLDATASIZE PUSH1 0x3 NOT ADD SLT PUSH2 0x313 JUMPI PUSH1 0x0 DUP1 MLOAD PUSH1 0x20 PUSH2 0x429F DUP4 CODECOPY DUP2 MLOAD SWAP2 MSTORE PUSH1 0xA0 PUSH1 0x4 CALLDATALOAD PUSH2 0x1425 PUSH1 0x1 DUP1 DUP5 SHL SUB PUSH1 0x0 SLOAD AND CALLER EQ PUSH2 0x3D66 JUMP JUMPDEST PUSH10 0x21E19E0C9BAB2400000 DUP2 LT ISZERO DUP1 PUSH2 0x148C JUMPI JUMPDEST PUSH2 0x1442 SWAP1 PUSH2 0x4221 JUMP JUMPDEST PUSH1 0x7 SLOAD SWAP1 DUP1 PUSH1 0x7 SSTORE PUSH1 0x40 MLOAD SWAP2 PUSH1 0x60 DUP4 MSTORE PUSH1 0x18 PUSH1 0x60 DUP5 ADD MSTORE PUSH32 0x4352454154455F50524544494354494F4E5F5245574152440000000000000000 PUSH1 0x80 DUP5 ADD MSTORE PUSH1 0x20 DUP4 ADD MSTORE PUSH1 0x40 DUP3 ADD MSTORE LOG1 STOP JUMPDEST POP PUSH10 0x2A5A058FC295ED000000 DUP2 GT ISZERO PUSH2 0x1439 JUMP JUMPDEST CALLVALUE PUSH2 0x313 JUMPI PUSH1 0x0 CALLDATASIZE PUSH1 0x3 NOT ADD SLT PUSH2 0x313 JUMPI PUSH1 0x20 PUSH1 0xA SLOAD PUSH1 0x40 MLOAD SWAP1 DUP2 MSTORE RETURN JUMPDEST CALLVALUE PUSH2 0x313 JUMPI PUSH1 0x20 CALLDATASIZE PUSH1 0x3 NOT ADD SLT PUSH2 0x313 JUMPI PUSH1 0x80 PUSH2 0x14E1 PUSH2 0x14DC PUSH2 0x3A93 JUMP JUMPDEST PUSH2 0x4048 JUMP JUMPDEST SWAP2 PUSH1 0x40 MLOAD SWAP4 ISZERO ISZERO DUP5 MSTORE ISZERO ISZERO PUSH1 0x20 DUP5 ADD MSTORE ISZERO ISZERO PUSH1 0x40 DUP4 ADD MSTORE ISZERO ISZERO PUSH1 0x60 DUP3 ADD MSTORE RETURN JUMPDEST CALLVALUE PUSH2 0x313 JUMPI PUSH1 0x0 CALLDATASIZE PUSH1 0x3 NOT ADD SLT PUSH2 0x313 JUMPI PUSH1 0x20 PUSH1 0xF SLOAD PUSH1 0x40 MLOAD SWAP1 DUP2 MSTORE RETURN JUMPDEST CALLVALUE PUSH2 0x313 JUMPI PUSH1 0x20 CALLDATASIZE PUSH1 0x3 NOT ADD SLT PUSH2 0x313 JUMPI PUSH1 0x4 CALLDATALOAD PUSH2 0x1548 PUSH1 0x1 DUP1 PUSH1 0xA0 SHL SUB PUSH1 0x0 SLOAD AND CALLER EQ PUSH2 0x3D66 JUMP JUMPDEST PUSH1 0x1 DUP2 LT ISZERO DUP1 PUSH2 0x15E3 JUMPI JUMPDEST ISZERO PUSH2 0x15A5 JUMPI PUSH1 0xA0 PUSH1 0x0 DUP1 MLOAD PUSH1 0x20 PUSH2 0x429F DUP4 CODECOPY DUP2 MLOAD SWAP2 MSTORE SWAP2 PUSH1 0x5 SLOAD SWAP1 DUP1 PUSH1 0x5 SSTORE PUSH1 0x40 MLOAD SWAP2 PUSH1 0x60 DUP4 MSTORE PUSH1 0xE PUSH1 0x60 DUP5 ADD MSTORE PUSH14 0x4A41434B504F545F4348414E4345 PUSH1 0x90 SHL PUSH1 0x80 DUP5 ADD MSTORE PUSH1 0x20 DUP4 ADD MSTORE PUSH1 0x40 DUP3 ADD MSTORE LOG1 STOP JUMPDEST PUSH1 0x40 MLOAD PUSH3 0x461BCD PUSH1 0xE5 SHL DUP2 MSTORE PUSH1 0x20 PUSH1 0x4 DUP3 ADD MSTORE PUSH1 0x16 PUSH1 0x24 DUP3 ADD MSTORE PUSH22 0x496E76616C6964206368616E63652028312D32302529 PUSH1 0x50 SHL PUSH1 0x44 DUP3 ADD MSTORE PUSH1 0x64 SWAP1 REVERT JUMPDEST POP PUSH1 0x14 DUP2 GT ISZERO PUSH2 0x1553 JUMP JUMPDEST CALLVALUE PUSH2 0x313 JUMPI PUSH1 0x0 CALLDATASIZE PUSH1 0x3 NOT ADD SLT PUSH2 0x313 JUMPI PUSH1 0x40 MLOAD PUSH4 0x70A08231 PUSH1 0xE0 SHL DUP2 MSTORE ADDRESS PUSH1 0x4 DUP3 ADD MSTORE PUSH1 0x20 DUP2 PUSH1 0x24 DUP2 PUSH32 0x0 PUSH1 0x1 PUSH1 0x1 PUSH1 0xA0 SHL SUB AND GAS STATICCALL DUP1 ISZERO PUSH2 0x7B8 JUMPI PUSH1 0x0 SWAP1 PUSH2 0x1676 JUMPI JUMPDEST PUSH1 0x80 SWAP1 PUSH1 0xE SLOAD PUSH1 0xF SLOAD PUSH1 0x10 SLOAD SWAP2 PUSH1 0x40 MLOAD SWAP4 DUP5 MSTORE PUSH1 0x20 DUP5 ADD MSTORE PUSH1 0x40 DUP4 ADD MSTORE PUSH1 0x60 DUP3 ADD MSTORE RETURN JUMPDEST POP PUSH1 0x20 DUP2 RETURNDATASIZE DUP3 GT PUSH2 0x16A0 JUMPI JUMPDEST DUP2 PUSH2 0x168F PUSH1 0x20 SWAP4 DUP4 PUSH2 0x3C97 JUMP JUMPDEST DUP2 ADD SUB SLT PUSH2 0x313 JUMPI PUSH1 0x80 SWAP1 MLOAD PUSH2 0x1652 JUMP JUMPDEST RETURNDATASIZE SWAP2 POP PUSH2 0x1682 JUMP JUMPDEST CALLVALUE PUSH2 0x313 JUMPI PUSH1 0x20 CALLDATASIZE PUSH1 0x3 NOT ADD SLT PUSH2 0x313 JUMPI PUSH32 0x5357603B66CE52AD2BDE073BF1BAAE8A126A96AE712F396257FA4B57169C36AB PUSH1 0x20 PUSH2 0x16E4 PUSH2 0x3AA9 JUMP JUMPDEST PUSH2 0x16F9 PUSH1 0x1 DUP1 PUSH1 0xA0 SHL SUB PUSH1 0x0 SLOAD AND CALLER EQ PUSH2 0x3D66 JUMP JUMPDEST ISZERO ISZERO PUSH1 0x11 SLOAD PUSH1 0xFF PUSH1 0xA0 SHL DUP3 PUSH1 0xA0 SHL AND SWAP1 PUSH1 0xFF PUSH1 0xA0 SHL NOT AND OR PUSH1 0x11 SSTORE PUSH1 0x40 MLOAD SWAP1 DUP2 MSTORE LOG1 STOP JUMPDEST CALLVALUE PUSH2 0x313 JUMPI PUSH1 0x0 CALLDATASIZE PUSH1 0x3 NOT ADD SLT PUSH2 0x313 JUMPI PUSH1 0x20 PUSH1 0x4 SLOAD PUSH1 0x40 MLOAD SWAP1 DUP2 MSTORE RETURN JUMPDEST CALLVALUE PUSH2 0x313 JUMPI PUSH1 0x20 CALLDATASIZE PUSH1 0x3 NOT ADD SLT PUSH2 0x313 JUMPI PUSH1 0x20 PUSH1 0x1 PUSH1 0x1 PUSH1 0xA0 SHL SUB DUP1 PUSH2 0x175F PUSH2 0x3A93 JUMP JUMPDEST AND PUSH1 0x0 MSTORE PUSH1 0x15 DUP3 MSTORE PUSH1 0x40 PUSH1 0x0 KECCAK256 SLOAD AND PUSH1 0x40 MLOAD SWAP1 DUP2 MSTORE RETURN JUMPDEST CALLVALUE PUSH2 0x313 JUMPI PUSH1 0x20 CALLDATASIZE PUSH1 0x3 NOT ADD SLT PUSH2 0x313 JUMPI PUSH1 0x1 PUSH1 0x1 PUSH1 0xA0 SHL SUB PUSH2 0x1797 PUSH2 0x3A93 JUMP JUMPDEST AND PUSH1 0x0 MSTORE PUSH1 0x13 PUSH1 0x20 MSTORE PUSH2 0x160 PUSH1 0x40 PUSH1 0x0 KECCAK256 PUSH1 0xFF DUP2 SLOAD SWAP2 PUSH1 0x1 DUP2 ADD SLOAD SWAP1 PUSH1 0x2 DUP2 ADD SLOAD PUSH1 0x3 DUP3 ADD SLOAD PUSH1 0x4 DUP4 ADD SLOAD SWAP2 PUSH1 0x6 PUSH1 0x5 DUP6 ADD SLOAD SWAP5 ADD SLOAD SWAP5 PUSH1 0x40 MLOAD SWAP8 DUP9 MSTORE PUSH1 0x20 DUP9 ADD MSTORE PUSH1 0x40 DUP8 ADD MSTORE PUSH1 0x60 DUP7 ADD MSTORE PUSH1 0x80 DUP6 ADD MSTORE PUSH1 0xA0 DUP5 ADD MSTORE DUP2 DUP2 AND ISZERO ISZERO PUSH1 0xC0 DUP5 ADD MSTORE DUP2 DUP2 PUSH1 0x8 SHR AND ISZERO ISZERO PUSH1 0xE0 DUP5 ADD MSTORE DUP2 DUP2 PUSH1 0x10 SHR AND ISZERO ISZERO PUSH2 0x100 DUP5 ADD MSTORE DUP2 DUP2 PUSH1 0x18 SHR AND ISZERO ISZERO PUSH2 0x120 DUP5 ADD MSTORE PUSH1 0x20 SHR AND ISZERO ISZERO PUSH2 0x140 DUP3 ADD MSTORE RETURN JUMPDEST CALLVALUE PUSH2 0x313 JUMPI PUSH1 0x20 DUP1 PUSH1 0x3 NOT CALLDATASIZE ADD SLT PUSH2 0x313 JUMPI PUSH1 0x40 MLOAD PUSH4 0x23B872DD PUSH1 0xE0 SHL DUP2 MSTORE CALLER PUSH1 0x4 DUP3 DUP2 ADD SWAP2 SWAP1 SWAP2 MSTORE ADDRESS PUSH1 0x24 DUP4 ADD MSTORE CALLDATALOAD PUSH1 0x44 DUP3 ADD DUP2 SWAP1 MSTORE SWAP2 DUP1 DUP3 PUSH1 0x64 DUP2 PUSH1 0x0 PUSH32 0x0 PUSH1 0x1 PUSH1 0x1 PUSH1 0xA0 SHL SUB AND GAS CALL SWAP2 DUP3 ISZERO PUSH2 0x7B8 JUMPI PUSH1 0x0 SWAP3 PUSH2 0x18DE JUMPI JUMPDEST POP PUSH2 0x18D3 PUSH32 0xB9EA67A19AB6BC678D42C223C0B3C9B7947918F351C3377A0E07E1B7332444C7 SWAP3 PUSH2 0x3F0A JUMP JUMPDEST PUSH1 0x40 MLOAD SWAP3 DUP4 MSTORE CALLER SWAP3 LOG2 STOP JUMPDEST SWAP2 POP DUP1 DUP3 DUP2 RETURNDATASIZE DUP4 GT PUSH2 0x1931 JUMPI JUMPDEST PUSH2 0x18F5 DUP2 DUP4 PUSH2 0x3C97 JUMP JUMPDEST DUP2 ADD SUB SLT PUSH2 0x313 JUMPI PUSH2 0x18D3 PUSH2 0x192A PUSH32 0xB9EA67A19AB6BC678D42C223C0B3C9B7947918F351C3377A0E07E1B7332444C7 SWAP4 PUSH2 0x3CB9 JUMP JUMPDEST SWAP3 POP PUSH2 0x18A8 JUMP JUMPDEST POP RETURNDATASIZE PUSH2 0x18EB JUMP JUMPDEST CALLVALUE PUSH2 0x313 JUMPI PUSH1 0x20 DUP1 PUSH1 0x3 NOT CALLDATASIZE ADD SLT PUSH2 0x313 JUMPI PUSH8 0xFFFFFFFFFFFFFFFF PUSH1 0x4 CALLDATALOAD DUP2 DUP2 GT PUSH2 0x313 JUMPI PUSH2 0x196B SWAP1 CALLDATASIZE SWAP1 PUSH1 0x4 ADD PUSH2 0x3AE9 JUMP JUMPDEST SWAP3 SWAP1 SWAP2 PUSH1 0x11 SLOAD SWAP3 PUSH2 0x1982 PUSH1 0xFF DUP6 PUSH1 0xA8 SHR AND ISZERO PUSH2 0x3DD8 JUMP JUMPDEST PUSH1 0xFF DUP5 PUSH1 0xA0 SHR AND ISZERO PUSH2 0x207D JUMPI CALLER PUSH1 0x0 MSTORE PUSH1 0x12 DUP4 MSTORE PUSH2 0x19A8 PUSH1 0xFF PUSH1 0x40 PUSH1 0x0 KECCAK256 SLOAD AND ISZERO PUSH2 0x3E19 JUMP JUMPDEST PUSH2 0x1A47 PUSH2 0x1A33 PUSH1 0x40 MLOAD SWAP7 DUP6 DUP9 ADD SWAP4 CALLER PUSH1 0x60 SHL SWAP5 DUP6 DUP2 MSTORE PUSH11 0x4441494C595F434C41494D PUSH1 0xA8 SHL PUSH1 0x34 DUP12 ADD MSTORE PUSH3 0x15180 SWAP10 DUP11 TIMESTAMP DIV PUSH1 0x3F DUP3 ADD MSTORE PUSH1 0x3F DUP2 MSTORE PUSH2 0x19EC DUP2 PUSH2 0x3C7B JUMP JUMPDEST MLOAD SWAP1 KECCAK256 PUSH1 0x40 MLOAD DUP9 DUP2 ADD SWAP2 PUSH32 0x19457468657265756D205369676E6564204D6573736167653A0A333200000000 DUP4 MSTORE PUSH1 0x3C DUP3 ADD MSTORE PUSH1 0x3C DUP2 MSTORE PUSH2 0x1A2B DUP2 PUSH2 0x3C7B JUMP JUMPDEST MLOAD SWAP1 KECCAK256 PUSH2 0x416D JUMP JUMPDEST PUSH1 0x1 PUSH1 0x1 PUSH1 0xA0 SHL SUB SWAP6 DUP7 AND SWAP1 DUP7 AND EQ PUSH2 0x3E5E JUMP JUMPDEST CALLER PUSH1 0x0 MSTORE PUSH1 0x13 DUP4 MSTORE PUSH1 0x40 PUSH1 0x0 KECCAK256 SWAP5 DUP6 SLOAD SWAP1 DUP2 ADD DUP1 DUP3 GT PUSH2 0x2017 JUMPI TIMESTAMP LT PUSH2 0x2040 JUMPI ISZERO PUSH2 0x202D JUMPI JUMPDEST DUP5 SLOAD DUP1 ISZERO ISZERO SWAP1 DUP2 PUSH2 0x1FFF JUMPI JUMPDEST POP ISZERO PUSH2 0x1FF4 JUMPI PUSH1 0x1 DUP6 ADD PUSH2 0x1A8D DUP2 SLOAD PUSH2 0x3D57 JUMP JUMPDEST SWAP1 SSTORE JUMPDEST PUSH1 0x1 DUP6 ADD DUP1 SLOAD SWAP6 DUP7 PUSH1 0x2 DUP3 ADD DUP1 SLOAD DUP3 GT PUSH2 0x1FEC JUMPI JUMPDEST POP POP PUSH2 0x1AC7 PUSH1 0x1 SLOAD SWAP8 PUSH1 0x3 SLOAD SWAP1 DUP2 DUP2 GT PUSH1 0x0 EQ PUSH2 0x1FE5 JUMPI POP JUMPDEST PUSH1 0x2 SLOAD SWAP1 PUSH2 0x3EAB JUMP JUMPDEST SWAP3 PUSH2 0x1AD2 DUP5 DUP10 PUSH2 0x3E9E JUMP JUMPDEST SWAP5 PUSH1 0xE SWAP2 DUP3 SLOAD PUSH1 0x40 MLOAD SWAP1 DUP10 DUP3 ADD SWAP3 TIMESTAMP DUP5 MSTORE PREVRANDAO PUSH1 0x40 DUP5 ADD MSTORE PUSH1 0x60 DUP4 ADD MSTORE PUSH1 0x74 DUP3 ADD MSTORE NUMBER PUSH1 0x94 DUP3 ADD MSTORE PUSH1 0x94 DUP2 MSTORE PUSH1 0xC0 DUP2 ADD SWAP3 DUP2 DUP5 LT SWAP1 DUP5 GT OR PUSH2 0x1FCF JUMPI PUSH1 0x64 SWAP3 PUSH1 0x40 MSTORE MLOAD SWAP1 KECCAK256 MOD PUSH1 0x5 SLOAD GT SWAP7 DUP8 PUSH2 0x1FAB JUMPI JUMPDEST PUSH32 0x0 AND SWAP2 PUSH1 0x40 MLOAD PUSH4 0x70A08231 PUSH1 0xE0 SHL SWAP2 DUP3 DUP3 MSTORE ADDRESS PUSH1 0x4 DUP4 ADD MSTORE DUP9 DUP3 PUSH1 0x24 DUP2 DUP9 GAS STATICCALL DUP1 ISZERO PUSH2 0x7B8 JUMPI DUP9 SWAP3 PUSH1 0x0 SWAP2 PUSH2 0x1F77 JUMPI JUMPDEST POP PUSH1 0x3 SWAP3 PUSH2 0x1B81 SWAP2 LT ISZERO PUSH2 0x3EBE JUMP JUMPDEST TIMESTAMP DUP2 SSTORE ADD PUSH2 0x1B90 DUP8 DUP3 SLOAD PUSH2 0x3E9E JUMP JUMPDEST SWAP1 SSTORE PUSH2 0x1B9D DUP7 DUP4 SLOAD PUSH2 0x3E9E JUMP JUMPDEST DUP3 SSTORE PUSH2 0x1BAA PUSH1 0x10 SLOAD PUSH2 0x3D57 JUMP JUMPDEST PUSH1 0x10 SSTORE PUSH2 0x1BB6 CALLER PUSH2 0x4092 JUMP JUMPDEST CALLER PUSH1 0x0 MSTORE PUSH1 0x13 DUP8 MSTORE PUSH1 0x40 PUSH1 0x0 KECCAK256 SWAP2 PUSH1 0x1 DUP4 ADD PUSH1 0x7 DUP2 SLOAD LT ISZERO DUP1 PUSH2 0x1F65 JUMPI JUMPDEST PUSH2 0x1E0F JUMPI JUMPDEST PUSH1 0x1E SWAP1 SLOAD LT ISZERO DUP1 PUSH2 0x1DFD JUMPI JUMPDEST PUSH2 0x1CA6 JUMPI JUMPDEST POP POP PUSH1 0x40 MLOAD PUSH4 0xA9059CBB PUSH1 0xE0 SHL DUP2 MSTORE CALLER PUSH1 0x4 DUP3 ADD MSTORE PUSH1 0x24 DUP2 ADD DUP7 SWAP1 MSTORE SWAP2 DUP7 SWAP2 POP DUP3 SWAP1 PUSH1 0x44 SWAP1 DUP3 SWAP1 PUSH1 0x0 SWAP1 GAS CALL DUP1 ISZERO PUSH2 0x7B8 JUMPI PUSH1 0x0 SWAP1 PUSH2 0x1C70 JUMPI JUMPDEST PUSH2 0x1C2E SWAP2 POP PUSH2 0x3F0A JUMP JUMPDEST SLOAD SWAP3 PUSH1 0x40 MLOAD SWAP6 DUP7 MSTORE DUP6 ADD MSTORE PUSH1 0x40 DUP5 ADD MSTORE PUSH1 0x60 DUP4 ADD MSTORE PUSH1 0x80 DUP3 ADD MSTORE PUSH32 0xB3CF2CD3B2CE31E0FF7CBB3F2562D51047E60D290A130FEFC85FB019EE6FCC0 PUSH1 0xA0 CALLER SWAP3 LOG2 STOP JUMPDEST POP DUP5 DUP2 DUP2 RETURNDATASIZE DUP4 GT PUSH2 0x1C9F JUMPI JUMPDEST PUSH2 0x1C86 DUP2 DUP4 PUSH2 0x3C97 JUMP JUMPDEST DUP2 ADD SUB SLT PUSH2 0x313 JUMPI PUSH2 0x1C9A PUSH2 0x1C2E SWAP2 PUSH2 0x3CB9 JUMP JUMPDEST PUSH2 0x1C24 JUMP JUMPDEST POP RETURNDATASIZE PUSH2 0x1C7C JUMP JUMPDEST PUSH1 0x6 DUP4 ADD DUP1 SLOAD PUSH4 0xFF000000 NOT AND PUSH4 0x1000000 OR SWAP1 SSTORE PUSH1 0x40 MLOAD SWAP2 DUP3 MSTORE ADDRESS PUSH1 0x4 DUP4 ADD MSTORE DUP8 DUP3 PUSH1 0x24 DUP2 DUP8 GAS STATICCALL DUP1 ISZERO PUSH2 0x7B8 JUMPI DUP9 SWAP3 PUSH1 0x0 SWAP2 PUSH2 0x1DCE JUMPI JUMPDEST POP PUSH1 0xD SLOAD DUP1 SWAP2 LT ISZERO PUSH2 0x1CF2 JUMPI JUMPDEST POP PUSH2 0x1BEA JUMP JUMPDEST PUSH2 0x1D04 PUSH1 0x3 PUSH2 0x1D3E SWAP6 ADD SWAP2 DUP3 SLOAD PUSH2 0x3E9E JUMP JUMPDEST SWAP1 SSTORE PUSH1 0xD SLOAD SWAP1 PUSH2 0x1D15 DUP3 DUP3 SLOAD PUSH2 0x3E9E JUMP JUMPDEST SWAP1 SSTORE PUSH1 0x40 MLOAD PUSH4 0xA9059CBB PUSH1 0xE0 SHL DUP2 MSTORE CALLER PUSH1 0x4 DUP3 ADD MSTORE PUSH1 0x24 DUP2 ADD SWAP2 SWAP1 SWAP2 MSTORE SWAP2 DUP3 SWAP1 DUP2 SWAP1 PUSH1 0x44 DUP3 ADD SWAP1 JUMP JUMPDEST SUB DUP2 PUSH1 0x0 DUP7 GAS CALL DUP1 ISZERO PUSH2 0x7B8 JUMPI PUSH2 0x1D9A JUMPI JUMPDEST POP PUSH1 0xD SLOAD PUSH1 0x40 MLOAD SWAP1 PUSH1 0x40 DUP3 MSTORE PUSH1 0xD PUSH1 0x40 DUP4 ADD MSTORE PUSH13 0x33305F4441595F53545245414B PUSH1 0x98 SHL PUSH1 0x60 DUP4 ADD MSTORE DUP7 DUP3 ADD MSTORE PUSH1 0x0 DUP1 MLOAD PUSH1 0x20 PUSH2 0x425F DUP4 CODECOPY DUP2 MLOAD SWAP2 MSTORE PUSH1 0x80 CALLER SWAP3 LOG2 DUP8 DUP6 DUP2 DUP1 PUSH2 0x1CEC JUMP JUMPDEST DUP6 DUP2 DUP2 RETURNDATASIZE DUP4 GT PUSH2 0x1DC7 JUMPI JUMPDEST PUSH2 0x1DAF DUP2 DUP4 PUSH2 0x3C97 JUMP JUMPDEST DUP2 ADD SUB SLT PUSH2 0x313 JUMPI PUSH2 0x1DC0 SWAP1 PUSH2 0x3CB9 JUMP JUMPDEST POP DUP8 PUSH2 0x1D50 JUMP JUMPDEST POP RETURNDATASIZE PUSH2 0x1DA5 JUMP JUMPDEST DUP4 DUP2 SWAP5 SWAP3 POP RETURNDATASIZE DUP4 GT PUSH2 0x1DF6 JUMPI JUMPDEST PUSH2 0x1DE5 DUP2 DUP4 PUSH2 0x3C97 JUMP JUMPDEST DUP2 ADD SUB SLT PUSH2 0x313 JUMPI DUP8 SWAP2 MLOAD DUP12 PUSH2 0x1CDF JUMP JUMPDEST POP RETURNDATASIZE PUSH2 0x1DDB JUMP JUMPDEST POP PUSH1 0xFF PUSH1 0x6 DUP5 ADD SLOAD PUSH1 0x18 SHR AND ISZERO PUSH2 0x1BE5 JUMP JUMPDEST PUSH1 0x6 DUP5 ADD DUP1 SLOAD PUSH3 0xFF0000 NOT AND PUSH3 0x10000 OR SWAP1 SSTORE PUSH1 0x40 MLOAD DUP4 DUP2 MSTORE ADDRESS PUSH1 0x4 DUP3 ADD MSTORE SWAP1 DUP10 DUP3 PUSH1 0x24 DUP2 DUP10 GAS STATICCALL SWAP2 DUP3 ISZERO PUSH2 0x7B8 JUMPI PUSH1 0x0 SWAP3 PUSH2 0x1F36 JUMPI JUMPDEST POP PUSH1 0xC SLOAD DUP1 SWAP3 LT ISZERO PUSH2 0x1E5A JUMPI JUMPDEST SWAP1 POP PUSH2 0x1BD9 JUMP JUMPDEST PUSH2 0x1EA7 SWAP2 PUSH2 0x1E6D PUSH1 0x3 DUP8 ADD SWAP2 DUP3 SLOAD PUSH2 0x3E9E JUMP JUMPDEST SWAP1 SSTORE DUP10 PUSH1 0xC SLOAD PUSH2 0x1E7E DUP2 DUP7 SLOAD PUSH2 0x3E9E JUMP JUMPDEST DUP6 SSTORE PUSH1 0x40 MLOAD PUSH4 0xA9059CBB PUSH1 0xE0 SHL DUP2 MSTORE CALLER PUSH1 0x4 DUP3 ADD MSTORE PUSH1 0x24 DUP2 ADD SWAP2 SWAP1 SWAP2 MSTORE SWAP3 DUP4 SWAP1 DUP2 SWAP1 PUSH1 0x44 DUP3 ADD SWAP1 JUMP JUMPDEST SUB DUP2 PUSH1 0x0 DUP11 GAS CALL DUP1 ISZERO PUSH2 0x7B8 JUMPI PUSH2 0x1F01 JUMPI JUMPDEST PUSH1 0x1E SWAP2 POP PUSH1 0xC SLOAD PUSH1 0x40 MLOAD SWAP1 PUSH1 0x40 DUP3 MSTORE PUSH1 0xC PUSH1 0x40 DUP4 ADD MSTORE PUSH12 0x375F4441595F53545245414B PUSH1 0xA0 SHL PUSH1 0x60 DUP4 ADD MSTORE DUP12 DUP3 ADD MSTORE PUSH1 0x0 DUP1 MLOAD PUSH1 0x20 PUSH2 0x425F DUP4 CODECOPY DUP2 MLOAD SWAP2 MSTORE PUSH1 0x80 CALLER SWAP3 LOG2 PUSH2 0x1E53 JUMP JUMPDEST DUP10 DUP3 DUP2 RETURNDATASIZE DUP4 GT PUSH2 0x1F2F JUMPI JUMPDEST PUSH2 0x1F16 DUP2 DUP4 PUSH2 0x3C97 JUMP JUMPDEST DUP2 ADD SUB SLT PUSH2 0x313 JUMPI PUSH2 0x1F29 PUSH1 0x1E SWAP3 PUSH2 0x3CB9 JUMP JUMPDEST POP PUSH2 0x1EB9 JUMP JUMPDEST POP RETURNDATASIZE PUSH2 0x1F0C JUMP JUMPDEST SWAP1 SWAP2 POP DUP10 DUP2 DUP2 RETURNDATASIZE DUP4 GT PUSH2 0x1F5E JUMPI JUMPDEST PUSH2 0x1F4E DUP2 DUP4 PUSH2 0x3C97 JUMP JUMPDEST DUP2 ADD SUB SLT PUSH2 0x313 JUMPI MLOAD SWAP1 DUP13 PUSH2 0x1E46 JUMP JUMPDEST POP RETURNDATASIZE PUSH2 0x1F44 JUMP JUMPDEST POP PUSH1 0xFF PUSH1 0x6 DUP6 ADD SLOAD PUSH1 0x10 SHR AND ISZERO PUSH2 0x1BD4 JUMP JUMPDEST DUP1 SWAP4 POP DUP11 DUP1 SWAP3 POP RETURNDATASIZE DUP4 GT PUSH2 0x1FA4 JUMPI JUMPDEST PUSH2 0x1F90 DUP2 DUP4 PUSH2 0x3C97 JUMP JUMPDEST DUP2 ADD SUB SLT PUSH2 0x313 JUMPI SWAP1 MLOAD DUP8 SWAP2 SWAP1 PUSH1 0x3 PUSH2 0x1B72 JUMP JUMPDEST POP RETURNDATASIZE PUSH2 0x1F86 JUMP JUMPDEST SWAP5 PUSH2 0x1FB9 SWAP1 PUSH1 0x4 SLOAD SWAP1 PUSH2 0x3E9E JUMP JUMPDEST SWAP5 PUSH1 0x5 DUP4 ADD PUSH2 0x1FC8 DUP2 SLOAD PUSH2 0x3D57 JUMP JUMPDEST SWAP1 SSTORE PUSH2 0x1B22 JUMP JUMPDEST PUSH4 0x4E487B71 PUSH1 0xE0 SHL PUSH1 0x0 MSTORE PUSH1 0x41 PUSH1 0x4 MSTORE PUSH1 0x24 PUSH1 0x0 REVERT JUMPDEST SWAP1 POP PUSH2 0x1ABE JUMP JUMPDEST SSTORE DUP7 DUP9 PUSH2 0x1AA5 JUMP JUMPDEST PUSH1 0x1 DUP1 DUP7 ADD SSTORE PUSH2 0x1A90 JUMP JUMPDEST SWAP1 POP PUSH3 0x2A300 DUP2 ADD DUP1 SWAP2 GT PUSH2 0x2017 JUMPI TIMESTAMP GT ISZERO DUP7 PUSH2 0x1A79 JUMP JUMPDEST PUSH4 0x4E487B71 PUSH1 0xE0 SHL PUSH1 0x0 MSTORE PUSH1 0x11 PUSH1 0x4 MSTORE PUSH1 0x24 PUSH1 0x0 REVERT JUMPDEST PUSH2 0x2038 PUSH1 0xF SLOAD PUSH2 0x3D57 JUMP JUMPDEST PUSH1 0xF SSTORE PUSH2 0x1A6D JUMP JUMPDEST PUSH1 0x40 MLOAD PUSH3 0x461BCD PUSH1 0xE5 SHL DUP2 MSTORE PUSH1 0x4 DUP2 ADD DUP6 SWAP1 MSTORE PUSH1 0x15 PUSH1 0x24 DUP3 ADD MSTORE PUSH21 0x416C726561647920636C61696D656420746F646179 PUSH1 0x58 SHL PUSH1 0x44 DUP3 ADD MSTORE PUSH1 0x64 SWAP1 REVERT JUMPDEST PUSH1 0x40 MLOAD PUSH3 0x461BCD PUSH1 0xE5 SHL DUP2 MSTORE PUSH1 0x4 DUP2 ADD DUP5 SWAP1 MSTORE PUSH1 0x14 PUSH1 0x24 DUP3 ADD MSTORE PUSH20 0x10DB185A5B5A5B99C81A5CC8191A5CD8589B1959 PUSH1 0x62 SHL PUSH1 0x44 DUP3 ADD MSTORE PUSH1 0x64 SWAP1 REVERT JUMPDEST CALLVALUE PUSH2 0x313 JUMPI PUSH1 0x0 CALLDATASIZE PUSH1 0x3 NOT ADD SLT PUSH2 0x313 JUMPI PUSH1 0x20 PUSH1 0x6 SLOAD PUSH1 0x40 MLOAD SWAP1 DUP2 MSTORE RETURN JUMPDEST CALLVALUE PUSH2 0x313 JUMPI PUSH1 0x20 CALLDATASIZE PUSH1 0x3 NOT ADD SLT PUSH2 0x313 JUMPI PUSH1 0x0 DUP1 MLOAD PUSH1 0x20 PUSH2 0x429F DUP4 CODECOPY DUP2 MLOAD SWAP2 MSTORE PUSH1 0xA0 PUSH1 0x4 CALLDATALOAD PUSH2 0x2110 PUSH1 0x1 DUP1 DUP5 SHL SUB PUSH1 0x0 SLOAD AND CALLER EQ PUSH2 0x3D66 JUMP JUMPDEST PUSH10 0x21E19E0C9BAB2400000 DUP2 LT ISZERO DUP1 PUSH2 0x2169 JUMPI JUMPDEST PUSH2 0x212D SWAP1 PUSH2 0x4221 JUMP JUMPDEST PUSH1 0x9 SLOAD SWAP1 DUP1 PUSH1 0x9 SSTORE PUSH1 0x40 MLOAD SWAP2 PUSH1 0x60 DUP4 MSTORE PUSH1 0xF PUSH1 0x60 DUP5 ADD MSTORE PUSH15 0x149151915494905317D49155D05491 PUSH1 0x8A SHL PUSH1 0x80 DUP5 ADD MSTORE PUSH1 0x20 DUP4 ADD MSTORE PUSH1 0x40 DUP3 ADD MSTORE LOG1 STOP JUMPDEST POP PUSH10 0x152D02C7E14AF6800000 DUP2 GT ISZERO PUSH2 0x2124 JUMP JUMPDEST CALLVALUE PUSH2 0x313 JUMPI PUSH1 0x0 CALLDATASIZE PUSH1 0x3 NOT ADD SLT PUSH2 0x313 JUMPI PUSH1 0x0 SLOAD PUSH1 0x40 MLOAD PUSH1 0x1 PUSH1 0x1 PUSH1 0xA0 SHL SUB SWAP1 SWAP2 AND DUP2 MSTORE PUSH1 0x20 SWAP1 RETURN JUMPDEST CALLVALUE PUSH2 0x313 JUMPI PUSH1 0x20 CALLDATASIZE PUSH1 0x3 NOT ADD SLT PUSH2 0x313 JUMPI PUSH1 0x0 DUP1 MLOAD PUSH1 0x20 PUSH2 0x429F DUP4 CODECOPY DUP2 MLOAD SWAP2 MSTORE PUSH1 0xA0 PUSH1 0x4 CALLDATALOAD PUSH2 0x21DF PUSH1 0x1 DUP1 DUP5 SHL SUB PUSH1 0x0 SLOAD AND CALLER EQ PUSH2 0x3D66 JUMP JUMPDEST PUSH10 0xA968163F0A57B400000 DUP2 LT ISZERO DUP1 PUSH2 0x2237 JUMPI JUMPDEST PUSH2 0x21FC SWAP1 PUSH2 0x4221 JUMP JUMPDEST PUSH1 0x4 SLOAD SWAP1 DUP1 PUSH1 0x4 SSTORE PUSH1 0x40 MLOAD SWAP2 PUSH1 0x60 DUP4 MSTORE PUSH1 0xE PUSH1 0x60 DUP5 ADD MSTORE PUSH14 0x129050D2D413D517D05353D55395 PUSH1 0x92 SHL PUSH1 0x80 DUP5 ADD MSTORE PUSH1 0x20 DUP4 ADD MSTORE PUSH1 0x40 DUP3 ADD MSTORE LOG1 STOP JUMPDEST POP PUSH10 0xD3C21BCECCEDA1000000 DUP2 GT ISZERO PUSH2 0x21F3 JUMP JUMPDEST CALLVALUE PUSH2 0x313 JUMPI PUSH1 0x20 CALLDATASIZE PUSH1 0x3 NOT ADD SLT PUSH2 0x313 JUMPI PUSH1 0x4 CALLDATALOAD PUSH2 0x2274 PUSH1 0x1 DUP1 PUSH1 0xA0 SHL SUB PUSH1 0x0 SLOAD AND CALLER EQ PUSH2 0x3D66 JUMP JUMPDEST PUSH1 0x5 DUP2 LT ISZERO DUP1 PUSH2 0x230C JUMPI JUMPDEST ISZERO PUSH2 0x22D8 JUMPI PUSH1 0xA0 PUSH1 0x0 DUP1 MLOAD PUSH1 0x20 PUSH2 0x429F DUP4 CODECOPY DUP2 MLOAD SWAP2 MSTORE SWAP2 PUSH1 0x3 SLOAD SWAP1 DUP1 PUSH1 0x3 SSTORE PUSH1 0x40 MLOAD SWAP2 PUSH1 0x60 DUP4 MSTORE PUSH1 0x15 PUSH1 0x60 DUP5 ADD MSTORE PUSH21 0x4D41585F53545245414B5F424F4E55535F44415953 PUSH1 0x58 SHL PUSH1 0x80 DUP5 ADD MSTORE PUSH1 0x20 DUP4 ADD MSTORE PUSH1 0x40 DUP3 ADD MSTORE LOG1 STOP JUMPDEST PUSH1 0x40 MLOAD PUSH3 0x461BCD PUSH1 0xE5 SHL DUP2 MSTORE PUSH1 0x20 PUSH1 0x4 DUP3 ADD MSTORE PUSH1 0xC PUSH1 0x24 DUP3 ADD MSTORE PUSH12 0x496E76616C69642064617973 PUSH1 0xA0 SHL PUSH1 0x44 DUP3 ADD MSTORE PUSH1 0x64 SWAP1 REVERT JUMPDEST POP PUSH1 0x1E DUP2 GT ISZERO PUSH2 0x227F JUMP JUMPDEST CALLVALUE PUSH2 0x313 JUMPI PUSH1 0x20 CALLDATASIZE PUSH1 0x3 NOT ADD SLT PUSH2 0x313 JUMPI PUSH1 0x0 DUP1 MLOAD PUSH1 0x20 PUSH2 0x429F DUP4 CODECOPY DUP2 MLOAD SWAP2 MSTORE PUSH1 0xA0 PUSH1 0x4 CALLDATALOAD PUSH2 0x2350 PUSH1 0x1 DUP1 DUP5 SHL SUB PUSH1 0x0 SLOAD AND CALLER EQ PUSH2 0x3D66 JUMP JUMPDEST PUSH10 0x21E19E0C9BAB2400000 DUP2 LT ISZERO DUP1 PUSH2 0x23AB JUMPI JUMPDEST PUSH2 0x236D SWAP1 PUSH2 0x4221 JUMP JUMPDEST PUSH1 0x6 SLOAD SWAP1 DUP1 PUSH1 0x6 SSTORE PUSH1 0x40 MLOAD SWAP2 PUSH1 0x60 DUP4 MSTORE PUSH1 0x11 PUSH1 0x60 DUP5 ADD MSTORE PUSH17 0x14D210549157D0D054D517D49155D05491 PUSH1 0x7A SHL PUSH1 0x80 DUP5 ADD MSTORE PUSH1 0x20 DUP4 ADD MSTORE PUSH1 0x40 DUP3 ADD MSTORE LOG1 STOP JUMPDEST POP PUSH10 0x2A5A058FC295ED000000 DUP2 GT ISZERO PUSH2 0x2364 JUMP JUMPDEST CALLVALUE PUSH2 0x313 JUMPI PUSH1 0x0 CALLDATASIZE PUSH1 0x3 NOT ADD SLT PUSH2 0x313 JUMPI PUSH1 0x40 MLOAD PUSH32 0x0 PUSH1 0x1 PUSH1 0x1 PUSH1 0xA0 SHL SUB AND DUP2 MSTORE PUSH1 0x20 SWAP1 RETURN JUMPDEST CALLVALUE PUSH2 0x313 JUMPI PUSH1 0x0 CALLDATASIZE PUSH1 0x3 NOT ADD SLT PUSH2 0x313 JUMPI PUSH1 0x20 PUSH1 0xB SLOAD PUSH1 0x40 MLOAD SWAP1 DUP2 MSTORE RETURN JUMPDEST CALLVALUE PUSH2 0x313 JUMPI PUSH2 0x2436 PUSH2 0xF5D PUSH2 0xF1F CALLDATASIZE PUSH2 0x3B17 JUMP JUMPDEST CALLER PUSH1 0x0 MSTORE PUSH1 0x13 DUP3 MSTORE PUSH1 0x40 PUSH1 0x0 KECCAK256 SWAP1 PUSH2 0x244F CALLDATASIZE DUP3 DUP7 PUSH2 0x3F48 JUMP JUMPDEST DUP1 MLOAD SWAP1 DUP5 ADD KECCAK256 PUSH32 0xB54E063503447BCE6485ADAB005B8755B54DED950878440B84F8E79A1196702E DUP2 SUB PUSH2 0x25ED JUMPI POP PUSH1 0x6 DUP3 ADD PUSH1 0x1 DUP2 SLOAD PUSH2 0x2492 PUSH1 0xFF DUP3 AND ISZERO PUSH2 0x400A JUMP JUMPDEST PUSH1 0xFF NOT AND OR SWAP1 SSTORE PUSH1 0xA SLOAD SWAP2 JUMPDEST PUSH1 0x40 MLOAD PUSH4 0x70A08231 PUSH1 0xE0 SHL DUP2 MSTORE ADDRESS PUSH1 0x4 DUP3 ADD MSTORE PUSH32 0x0 PUSH1 0x1 PUSH1 0x1 PUSH1 0xA0 SHL SUB AND SWAP2 DUP6 DUP3 PUSH1 0x24 DUP2 DUP7 GAS STATICCALL DUP1 ISZERO PUSH2 0x7B8 JUMPI DUP6 SWAP3 PUSH1 0x0 SWAP2 PUSH2 0x25B9 JUMPI JUMPDEST POP PUSH1 0x3 SWAP3 PUSH2 0x2503 SWAP2 LT ISZERO PUSH2 0x3EBE JUMP JUMPDEST ADD PUSH2 0x250F DUP5 DUP3 SLOAD PUSH2 0x3E9E JUMP JUMPDEST SWAP1 SSTORE PUSH2 0x251D DUP4 PUSH1 0xE SLOAD PUSH2 0x3E9E JUMP JUMPDEST PUSH1 0xE SSTORE PUSH1 0x40 MLOAD PUSH4 0xA9059CBB PUSH1 0xE0 SHL DUP2 MSTORE CALLER PUSH1 0x4 DUP3 ADD MSTORE PUSH1 0x24 DUP2 ADD DUP5 SWAP1 MSTORE SWAP1 DUP5 SWAP1 DUP3 SWAP1 PUSH1 0x44 SWAP1 DUP3 SWAP1 PUSH1 0x0 SWAP1 GAS CALL SWAP4 DUP5 ISZERO PUSH2 0x7B8 JUMPI PUSH1 0x0 SWAP5 PUSH2 0x2572 JUMPI JUMPDEST POP POP PUSH2 0x10C0 PUSH1 0x0 DUP1 MLOAD PUSH1 0x20 PUSH2 0x425F DUP4 CODECOPY DUP2 MLOAD SWAP2 MSTORE SWAP4 PUSH2 0x3F0A JUMP JUMPDEST SWAP1 DUP1 SWAP5 POP DUP2 RETURNDATASIZE DUP4 GT PUSH2 0x25B2 JUMPI JUMPDEST PUSH2 0x2589 DUP2 DUP4 PUSH2 0x3C97 JUMP JUMPDEST DUP2 ADD SUB SLT PUSH2 0x313 JUMPI PUSH2 0x10C0 PUSH2 0x25AC PUSH1 0x0 DUP1 MLOAD PUSH1 0x20 PUSH2 0x425F DUP4 CODECOPY DUP2 MLOAD SWAP2 MSTORE SWAP5 PUSH2 0x3CB9 JUMP JUMPDEST SWAP4 PUSH2 0x2558 JUMP JUMPDEST POP RETURNDATASIZE PUSH2 0x257F JUMP JUMPDEST DUP1 SWAP4 POP DUP8 DUP1 SWAP3 POP RETURNDATASIZE DUP4 GT PUSH2 0x25E6 JUMPI JUMPDEST PUSH2 0x25D2 DUP2 DUP4 PUSH2 0x3C97 JUMP JUMPDEST DUP2 ADD SUB SLT PUSH2 0x313 JUMPI SWAP1 MLOAD DUP5 SWAP2 SWAP1 PUSH1 0x3 PUSH2 0x24F4 JUMP JUMPDEST POP RETURNDATASIZE PUSH2 0x25C8 JUMP JUMPDEST PUSH32 0x126235D9D2E6036D7FAC7E99F1DCD31ADA7FF126658A7DD43824F3E4F265D039 SUB PUSH2 0x263D JUMPI PUSH1 0x6 DUP3 ADD PUSH2 0x100 DUP2 SLOAD PUSH2 0x262C PUSH1 0xFF DUP3 PUSH1 0x8 SHR AND ISZERO PUSH2 0x400A JUMP JUMPDEST PUSH2 0xFF00 NOT AND OR SWAP1 SSTORE PUSH1 0xB SLOAD SWAP2 PUSH2 0x249E JUMP JUMPDEST PUSH1 0x40 MLOAD PUSH3 0x461BCD PUSH1 0xE5 SHL DUP2 MSTORE PUSH1 0x4 DUP2 ADD DUP5 SWAP1 MSTORE PUSH1 0x18 PUSH1 0x24 DUP3 ADD MSTORE PUSH32 0x496E76616C696420616368696576656D656E7420747970650000000000000000 PUSH1 0x44 DUP3 ADD MSTORE PUSH1 0x64 SWAP1 REVERT JUMPDEST CALLVALUE PUSH2 0x313 JUMPI PUSH1 0x0 CALLDATASIZE PUSH1 0x3 NOT ADD SLT PUSH2 0x313 JUMPI PUSH2 0x26A4 PUSH1 0xFF PUSH1 0x11 SLOAD PUSH1 0xB0 SHR AND PUSH2 0x3B62 JUMP JUMPDEST CALLER PUSH1 0x0 MSTORE PUSH1 0x20 PUSH1 0x13 DUP2 MSTORE PUSH2 0x26C5 PUSH1 0xFF PUSH1 0x6 PUSH1 0x40 PUSH1 0x0 KECCAK256 ADD SLOAD DUP4 SHR AND ISZERO PUSH2 0x3BA3 JUMP JUMPDEST CALLER PUSH1 0x0 MSTORE PUSH1 0x12 DUP2 MSTORE PUSH2 0x26DF PUSH1 0xFF PUSH1 0x40 PUSH1 0x0 KECCAK256 SLOAD AND ISZERO PUSH2 0x3BE2 JUMP JUMPDEST PUSH1 0x1 PUSH1 0x1 PUSH1 0xA0 SHL SUB SWAP1 PUSH32 0x0 DUP3 AND SWAP1 DUP2 ISZERO PUSH2 0x2A40 JUMPI PUSH1 0x40 MLOAD PUSH4 0x543A185D PUSH1 0xE1 SHL DUP2 MSTORE CALLER PUSH1 0x4 DUP3 ADD MSTORE PUSH2 0x140 SWAP1 DUP2 DUP2 PUSH1 0x24 DUP2 DUP8 GAS STATICCALL SWAP3 DUP4 ISZERO PUSH2 0x7B8 JUMPI PUSH1 0x0 SWAP5 PUSH1 0x0 SWAP7 PUSH1 0x0 SWAP7 PUSH1 0x0 DUP1 PUSH1 0x0 SWAP2 PUSH1 0x0 SWAP11 PUSH1 0x0 SWAP9 PUSH1 0x0 SWAP11 PUSH1 0x0 SWAP13 PUSH2 0x29A9 JUMPI JUMPDEST POP POP DUP5 ISZERO PUSH2 0x296D JUMPI CALLER PUSH1 0x0 DUP2 DUP2 MSTORE PUSH1 0x13 DUP11 MSTORE PUSH1 0x40 SWAP1 DUP2 SWAP1 KECCAK256 SWAP7 DUP8 SSTORE PUSH1 0x1 DUP8 ADD DUP16 SWAP1 SSTORE PUSH1 0x2 DUP8 ADD SWAP3 SWAP1 SWAP3 SSTORE PUSH1 0x3 DUP7 ADD SWAP3 SWAP1 SWAP3 SSTORE PUSH1 0x4 DUP1 DUP7 ADD SWAP4 SWAP1 SWAP4 SSTORE PUSH1 0x5 DUP6 ADD SWAP4 SWAP1 SWAP4 SSTORE PUSH1 0x6 SWAP1 SWAP4 ADD DUP1 SLOAD PUSH5 0x100000000 PUSH5 0xFFFFFFFFFF NOT SWAP1 SWAP2 AND DUP13 ISZERO ISZERO PUSH1 0xFF AND OR PUSH2 0xFF00 DUP11 ISZERO ISZERO PUSH1 0x8 SHL AND OR PUSH3 0xFF0000 DUP12 ISZERO ISZERO PUSH1 0x10 SHL AND OR PUSH4 0xFF000000 DUP13 ISZERO ISZERO PUSH1 0x18 SHL AND OR OR SWAP1 SSTORE SWAP1 MLOAD PUSH4 0x5487C74D PUSH1 0xE1 SHL DUP2 MSTORE SWAP1 DUP2 ADD SWAP2 SWAP1 SWAP2 MSTORE DUP4 DUP2 PUSH1 0x24 DUP2 DUP7 GAS STATICCALL SWAP1 DUP2 ISZERO PUSH2 0x7B8 JUMPI PUSH1 0x0 SWAP2 PUSH2 0x2950 JUMPI JUMPDEST POP AND DUP1 PUSH2 0x2867 JUMPI JUMPDEST POP POP POP SWAP2 PUSH1 0x0 DUP1 MLOAD PUSH1 0x20 PUSH2 0x427F DUP4 CODECOPY DUP2 MLOAD SWAP2 MSTORE SWAP4 SWAP2 PUSH2 0x674 SWAP4 PUSH2 0x2836 PUSH1 0xF SLOAD PUSH2 0x3D57 JUMP JUMPDEST PUSH1 0xF SSTORE DUP4 ISZERO PUSH2 0x689 JUMPI POP DUP3 ISZERO PUSH2 0x681 JUMPI POP DUP2 ISZERO PUSH2 0x679 JUMPI POP PUSH1 0x40 DUP1 MLOAD SWAP5 DUP6 MSTORE SWAP1 ISZERO ISZERO PUSH1 0x20 DUP6 ADD MSTORE CALLER SWAP4 SWAP2 DUP3 SWAP2 DUP3 ADD SWAP1 JUMP JUMPDEST SWAP2 DUP1 SWAP2 PUSH1 0x24 SWAP4 CALLER PUSH1 0x0 MSTORE PUSH1 0x15 DUP4 MSTORE PUSH1 0x40 PUSH1 0x0 KECCAK256 SWAP1 PUSH1 0x1 PUSH1 0x1 PUSH1 0x60 SHL SUB PUSH1 0xA0 SHL DUP3 SLOAD AND OR SWAP1 SSTORE PUSH1 0x40 MLOAD SWAP4 DUP5 DUP1 SWAP3 PUSH4 0x4DAD19D PUSH1 0xE1 SHL DUP3 MSTORE CALLER PUSH1 0x4 DUP4 ADD MSTORE GAS STATICCALL SWAP2 DUP3 ISZERO PUSH2 0x7B8 JUMPI PUSH1 0x0 SWAP3 PUSH2 0x28F7 JUMPI JUMPDEST POP SWAP2 PUSH2 0x28ED PUSH1 0x0 DUP1 MLOAD PUSH1 0x20 PUSH2 0x427F DUP4 CODECOPY DUP2 MLOAD SWAP2 MSTORE SWAP7 SWAP5 SWAP3 PUSH1 0x17 PUSH2 0x674 SWAP8 SWAP6 CALLER PUSH1 0x0 MSTORE MSTORE PUSH1 0x40 PUSH1 0x0 KECCAK256 SWAP1 PUSH1 0xFF DUP1 NOT DUP4 SLOAD AND SWAP2 ISZERO ISZERO AND OR SWAP1 SSTORE JUMP JUMPDEST SWAP2 SWAP4 DUP2 SWAP4 SWAP6 PUSH2 0x2812 JUMP JUMPDEST SWAP6 SWAP4 SWAP2 POP SWAP4 SWAP2 DUP5 DUP7 DUP2 RETURNDATASIZE DUP4 GT PUSH2 0x2949 JUMPI JUMPDEST PUSH2 0x2912 DUP2 DUP4 PUSH2 0x3C97 JUMP JUMPDEST DUP2 ADD SUB SLT PUSH2 0x313 JUMPI PUSH2 0x28ED PUSH2 0x674 SWAP6 PUSH1 0x17 PUSH2 0x293B PUSH1 0x0 DUP1 MLOAD PUSH1 0x20 PUSH2 0x427F DUP4 CODECOPY DUP2 MLOAD SWAP2 MSTORE SWAP10 PUSH2 0x3CB9 JUMP JUMPDEST SWAP5 SWAP7 SWAP9 POP POP SWAP2 SWAP4 SWAP6 POP PUSH2 0x28B4 JUMP JUMPDEST POP RETURNDATASIZE PUSH2 0x2908 JUMP JUMPDEST PUSH2 0x2967 SWAP2 POP DUP5 RETURNDATASIZE DUP7 GT PUSH2 0x7EC JUMPI PUSH2 0x7DE DUP2 DUP4 PUSH2 0x3C97 JUMP JUMPDEST DUP10 PUSH2 0x280A JUMP JUMPDEST PUSH1 0x40 MLOAD PUSH3 0x461BCD PUSH1 0xE5 SHL DUP2 MSTORE PUSH1 0x4 DUP2 ADD DUP10 SWAP1 MSTORE PUSH1 0x14 PUSH1 0x24 DUP3 ADD MSTORE PUSH20 0x55736572206E6F7420666F756E6420696E205631 PUSH1 0x60 SHL PUSH1 0x44 DUP3 ADD MSTORE PUSH1 0x64 SWAP1 REVERT JUMPDEST SWAP10 POP SWAP10 POP POP POP POP POP POP SWAP5 POP SWAP6 POP SWAP4 POP DUP2 DUP2 RETURNDATASIZE DUP4 GT PUSH2 0x2A39 JUMPI JUMPDEST PUSH2 0x29CC DUP2 DUP4 PUSH2 0x3C97 JUMP JUMPDEST DUP2 ADD SUB SLT PUSH2 0x313 JUMPI DUP1 MLOAD SWAP1 DUP4 DUP2 ADD MLOAD SWAP4 PUSH1 0x40 DUP3 ADD MLOAD SWAP6 PUSH1 0x60 DUP4 ADD MLOAD SWAP5 PUSH1 0x80 DUP5 ADD MLOAD SWAP7 PUSH1 0xA0 DUP6 ADD MLOAD PUSH2 0x29FF PUSH1 0xC0 DUP8 ADD PUSH2 0x3CB9 JUMP JUMPDEST SWAP1 PUSH2 0x2A0C PUSH1 0xE0 DUP9 ADD PUSH2 0x3CB9 JUMP JUMPDEST SWAP10 PUSH2 0x2A27 PUSH2 0x120 PUSH2 0x2A20 PUSH2 0x100 DUP12 ADD PUSH2 0x3CB9 JUMP JUMPDEST SWAP10 ADD PUSH2 0x3CB9 JUMP JUMPDEST SWAP9 SWAP4 SWAP12 SWAP10 SWAP1 SWAP2 SWAP3 SWAP11 SWAP8 SWAP9 SWAP10 DUP14 DUP1 PUSH2 0x2758 JUMP JUMPDEST POP RETURNDATASIZE PUSH2 0x29C2 JUMP JUMPDEST PUSH1 0x64 SWAP1 PUSH1 0x40 MLOAD SWAP1 PUSH3 0x461BCD PUSH1 0xE5 SHL DUP3 MSTORE PUSH1 0x4 DUP3 ADD MSTORE PUSH1 0x13 PUSH1 0x24 DUP3 ADD MSTORE PUSH19 0x158C4818DBDB9D1C9858DD081B9BDD081CD95D PUSH1 0x6A SHL PUSH1 0x44 DUP3 ADD MSTORE REVERT JUMPDEST CALLVALUE PUSH2 0x313 JUMPI PUSH1 0x20 CALLDATASIZE PUSH1 0x3 NOT ADD SLT PUSH2 0x313 JUMPI PUSH2 0x2A93 PUSH2 0x3A93 JUMP JUMPDEST PUSH1 0x0 SLOAD PUSH1 0x1 PUSH1 0x1 PUSH1 0xA0 SHL SUB SWAP2 SWAP1 PUSH2 0x2AAD SWAP1 DUP4 AND CALLER EQ PUSH2 0x3D66 JUMP JUMPDEST AND DUP1 ISZERO PUSH2 0x2AED JUMPI PUSH1 0x11 DUP1 SLOAD PUSH1 0x1 PUSH1 0x1 PUSH1 0xA0 SHL SUB NOT AND DUP3 OR SWAP1 SSTORE PUSH32 0xE5B9EC72FC7E34A9021E01E954C7E54CEB50C6B1798084716AFE188FFA5E13CB PUSH1 0x0 DUP1 LOG2 STOP JUMPDEST PUSH1 0x40 MLOAD PUSH3 0x461BCD PUSH1 0xE5 SHL DUP2 MSTORE PUSH1 0x20 PUSH1 0x4 DUP3 ADD MSTORE PUSH1 0x10 PUSH1 0x24 DUP3 ADD MSTORE PUSH16 0x24B73B30B634B2103B32B934B334B2B9 PUSH1 0x81 SHL PUSH1 0x44 DUP3 ADD MSTORE PUSH1 0x64 SWAP1 REVERT JUMPDEST CALLVALUE PUSH2 0x313 JUMPI PUSH1 0x20 CALLDATASIZE PUSH1 0x3 NOT ADD SLT PUSH2 0x313 JUMPI PUSH1 0x0 DUP1 MLOAD PUSH1 0x20 PUSH2 0x429F DUP4 CODECOPY DUP2 MLOAD SWAP2 MSTORE PUSH1 0xA0 PUSH1 0x4 CALLDATALOAD PUSH2 0x2B5E PUSH1 0x1 DUP1 DUP5 SHL SUB PUSH1 0x0 SLOAD AND CALLER EQ PUSH2 0x3D66 JUMP JUMPDEST PUSH10 0x152D02C7E14AF6800000 DUP2 LT ISZERO DUP1 PUSH2 0x2BBA JUMPI JUMPDEST PUSH2 0x2B7B SWAP1 PUSH2 0x4221 JUMP JUMPDEST PUSH1 0xA SLOAD SWAP1 DUP1 PUSH1 0xA SSTORE PUSH1 0x40 MLOAD SWAP2 PUSH1 0x60 DUP4 MSTORE PUSH1 0x12 PUSH1 0x60 DUP5 ADD MSTORE PUSH18 0x1091551057D51154D5115497D49155D05491 PUSH1 0x72 SHL PUSH1 0x80 DUP5 ADD MSTORE PUSH1 0x20 DUP4 ADD MSTORE PUSH1 0x40 DUP3 ADD MSTORE LOG1 STOP JUMPDEST POP PUSH11 0x1A784379D99DB42000000 DUP2 GT ISZERO PUSH2 0x2B72 JUMP JUMPDEST CALLVALUE PUSH2 0x313 JUMPI PUSH1 0x20 CALLDATASIZE PUSH1 0x3 NOT ADD SLT PUSH2 0x313 JUMPI PUSH1 0x0 DUP1 MLOAD PUSH1 0x20 PUSH2 0x429F DUP4 CODECOPY DUP2 MLOAD SWAP2 MSTORE PUSH1 0xA0 PUSH1 0x4 CALLDATALOAD PUSH2 0x2C08 PUSH1 0x1 DUP1 DUP5 SHL SUB PUSH1 0x0 SLOAD AND CALLER EQ PUSH2 0x3D66 JUMP JUMPDEST PUSH10 0x21E19E0C9BAB2400000 DUP2 LT ISZERO DUP1 PUSH2 0x2C67 JUMPI JUMPDEST PUSH2 0x2C25 SWAP1 PUSH2 0x4221 JUMP JUMPDEST PUSH1 0xB SLOAD SWAP1 DUP1 PUSH1 0xB SSTORE PUSH1 0x40 MLOAD SWAP2 PUSH1 0x60 DUP4 MSTORE PUSH1 0x15 PUSH1 0x60 DUP5 ADD MSTORE PUSH21 0x1193D31313D5D7D4D3D0D2505314D7D49155D05491 PUSH1 0x5A SHL PUSH1 0x80 DUP5 ADD MSTORE PUSH1 0x20 DUP4 ADD MSTORE PUSH1 0x40 DUP3 ADD MSTORE LOG1 STOP JUMPDEST POP PUSH10 0x69E10DE76676D0800000 DUP2 GT ISZERO PUSH2 0x2C1C JUMP JUMPDEST CALLVALUE PUSH2 0x313 JUMPI PUSH1 0x0 CALLDATASIZE PUSH1 0x3 NOT ADD SLT PUSH2 0x313 JUMPI PUSH1 0x20 PUSH1 0xFF PUSH1 0x11 SLOAD PUSH1 0xA8 SHR AND PUSH1 0x40 MLOAD SWAP1 ISZERO ISZERO DUP2 MSTORE RETURN JUMPDEST CALLVALUE PUSH2 0x313 JUMPI PUSH1 0x40 CALLDATASIZE PUSH1 0x3 NOT ADD SLT PUSH2 0x313 JUMPI PUSH2 0x2CBA PUSH2 0x3A93 JUMP JUMPDEST PUSH8 0xFFFFFFFFFFFFFFFF PUSH1 0x24 DUP1 CALLDATALOAD DUP3 DUP2 GT PUSH2 0x313 JUMPI PUSH2 0x2CDC SWAP1 CALLDATASIZE SWAP1 PUSH1 0x4 ADD PUSH2 0x3AE9 JUMP JUMPDEST SWAP4 SWAP1 PUSH1 0x11 SLOAD PUSH2 0x2CF1 PUSH1 0xFF DUP3 PUSH1 0xA8 SHR AND ISZERO PUSH2 0x3DD8 JUMP JUMPDEST CALLER PUSH1 0x0 MSTORE PUSH1 0x20 SWAP6 PUSH1 0x12 DUP8 MSTORE PUSH2 0x2D0E PUSH1 0xFF PUSH1 0x40 PUSH1 0x0 KECCAK256 SLOAD AND ISZERO PUSH2 0x3E19 JUMP JUMPDEST PUSH1 0x1 DUP1 PUSH1 0xA0 SHL SUB SWAP3 DUP4 DUP6 AND SWAP7 DUP8 PUSH1 0x0 MSTORE PUSH1 0x12 DUP10 MSTORE PUSH2 0x2D34 PUSH1 0xFF PUSH1 0x40 PUSH1 0x0 KECCAK256 SLOAD AND ISZERO PUSH2 0x3E19 JUMP JUMPDEST CALLER PUSH1 0x0 MSTORE PUSH1 0x17 DUP10 MSTORE PUSH1 0xFF PUSH1 0x40 PUSH1 0x0 KECCAK256 SLOAD AND PUSH2 0x3238 JUMPI CALLER DUP9 EQ PUSH2 0x31FC JUMPI DUP8 ISZERO PUSH2 0x31C5 JUMPI DUP8 PUSH1 0x0 MSTORE PUSH1 0x13 DUP10 MSTORE PUSH1 0x40 PUSH1 0x0 KECCAK256 SLOAD ISZERO PUSH2 0x3181 JUMPI PUSH1 0x40 MLOAD SWAP1 DUP10 DUP3 ADD CALLER PUSH1 0x60 SHL DUP2 MSTORE PUSH1 0x1 PUSH1 0x1 PUSH1 0x60 SHL SUB NOT DUP9 PUSH1 0x60 SHL AND PUSH1 0x34 DUP5 ADD MSTORE PUSH8 0x1491519154949053 PUSH1 0xC2 SHL PUSH1 0x48 DUP5 ADD MSTORE PUSH3 0x15180 TIMESTAMP DIV PUSH1 0x50 DUP5 ADD MSTORE PUSH1 0x50 DUP4 MSTORE PUSH1 0x80 DUP4 ADD SWAP2 DUP4 DUP4 LT SWAP1 DUP4 GT OR PUSH2 0x316C JUMPI SWAP3 PUSH2 0x2E05 SWAP3 DUP3 DUP9 SWAP7 SWAP4 SWAP6 DUP8 SWAP7 PUSH1 0x40 MSTORE DUP3 MLOAD SWAP1 KECCAK256 PUSH1 0xBC PUSH1 0xA0 DUP5 ADD SWAP4 PUSH32 0x19457468657265756D205369676E6564204D6573736167653A0A333200000000 DUP6 MSTORE ADD MSTORE PUSH1 0x3C DUP2 MSTORE PUSH2 0x1A2B DUP2 PUSH2 0x3C7B JUMP JUMPDEST SWAP3 AND SWAP2 AND SUB PUSH2 0x3128 JUMPI CALLER PUSH1 0x0 MSTORE PUSH1 0x17 DUP6 MSTORE PUSH1 0x40 PUSH1 0x0 KECCAK256 PUSH1 0x1 PUSH1 0xFF NOT DUP3 SLOAD AND OR SWAP1 SSTORE PUSH1 0x15 DUP6 MSTORE PUSH1 0x40 PUSH1 0x0 KECCAK256 DUP5 PUSH1 0x1 PUSH1 0x1 PUSH1 0x60 SHL SUB PUSH1 0xA0 SHL DUP3 SLOAD AND OR SWAP1 SSTORE DUP4 PUSH1 0x0 MSTORE PUSH1 0x16 DUP6 MSTORE PUSH1 0x40 PUSH1 0x0 KECCAK256 PUSH2 0x2E58 DUP2 SLOAD PUSH2 0x3D57 JUMP JUMPDEST SWAP1 SSTORE PUSH1 0x9 SLOAD DUP1 PUSH1 0x1 SHL SWAP2 DUP2 DUP4 DIV PUSH1 0x2 EQ DUP3 ISZERO OR ISZERO PUSH2 0x3113 JUMPI PUSH32 0x0 AND SWAP2 PUSH1 0x40 MLOAD SWAP1 PUSH4 0x70A08231 PUSH1 0xE0 SHL DUP3 MSTORE ADDRESS PUSH1 0x4 DUP4 ADD MSTORE DUP8 DUP3 DUP8 DUP2 DUP8 GAS STATICCALL DUP1 ISZERO PUSH2 0x7B8 JUMPI PUSH1 0x0 SWAP1 PUSH2 0x30E4 JUMPI JUMPDEST PUSH2 0x2EC8 SWAP3 POP LT ISZERO PUSH2 0x3EBE JUMP JUMPDEST DUP5 PUSH1 0x0 MSTORE PUSH1 0x13 DUP7 MSTORE PUSH2 0x2EE3 PUSH1 0x3 PUSH1 0x40 PUSH1 0x0 KECCAK256 ADD SWAP2 DUP3 SLOAD PUSH2 0x3E9E JUMP JUMPDEST SWAP1 SSTORE PUSH2 0x2F2D DUP6 PUSH1 0x9 SLOAD PUSH2 0x2EF8 DUP2 PUSH1 0xE SLOAD PUSH2 0x3E9E JUMP JUMPDEST PUSH1 0xE SSTORE PUSH1 0x40 MLOAD PUSH4 0xA9059CBB PUSH1 0xE0 SHL DUP1 DUP3 MSTORE PUSH1 0x1 PUSH1 0x1 PUSH1 0xA0 SHL SUB SWAP1 SWAP7 AND PUSH1 0x4 DUP3 ADD MSTORE PUSH1 0x24 DUP2 ADD SWAP2 SWAP1 SWAP2 MSTORE SWAP2 DUP3 SWAP1 DUP2 SWAP1 PUSH1 0x44 DUP3 ADD SWAP1 JUMP JUMPDEST SUB DUP2 PUSH1 0x0 DUP7 GAS CALL SWAP1 DUP2 ISZERO PUSH2 0x7B8 JUMPI PUSH1 0x0 SWAP2 PUSH2 0x30AF JUMPI JUMPDEST POP ISZERO PUSH2 0x306B JUMPI PUSH2 0x2FA9 SWAP2 DUP6 SWAP2 PUSH1 0x9 SLOAD CALLER PUSH1 0x0 MSTORE PUSH1 0x13 DUP5 MSTORE PUSH2 0x2F6D PUSH1 0x3 PUSH1 0x40 PUSH1 0x0 KECCAK256 ADD SWAP2 DUP3 SLOAD PUSH2 0x3E9E JUMP JUMPDEST SWAP1 SSTORE PUSH1 0x9 SLOAD SWAP2 PUSH2 0x2F7F DUP4 PUSH1 0xE SLOAD PUSH2 0x3E9E JUMP JUMPDEST PUSH1 0xE SSTORE PUSH1 0x40 MLOAD SWAP1 DUP2 MSTORE CALLER PUSH1 0x4 DUP3 ADD MSTORE PUSH1 0x24 DUP2 ADD SWAP3 SWAP1 SWAP3 MSTORE SWAP1 SWAP3 DUP4 SWAP2 SWAP1 DUP3 SWAP1 PUSH1 0x0 SWAP1 DUP3 SWAP1 PUSH1 0x44 DUP3 ADD SWAP1 JUMP JUMPDEST SUB SWAP3 GAS CALL SWAP1 DUP2 ISZERO PUSH2 0x7B8 JUMPI PUSH1 0x0 SWAP2 PUSH2 0x3036 JUMPI JUMPDEST POP ISZERO PUSH2 0x2FF3 JUMPI POP PUSH32 0x90EAB5D1DF713DF401D810F26AA9718D2B9E6894AF1EB4890A332D3B185DC0E5 PUSH1 0x9 SLOAD SWAP3 PUSH1 0x40 MLOAD SWAP4 DUP5 MSTORE CALLER SWAP4 LOG3 STOP JUMPDEST DUP3 PUSH1 0x1B PUSH1 0x64 SWAP3 PUSH1 0x40 MLOAD SWAP3 PUSH3 0x461BCD PUSH1 0xE5 SHL DUP5 MSTORE PUSH1 0x4 DUP5 ADD MSTORE DUP3 ADD MSTORE PUSH32 0x5472616E7366657220746F207265666572726564206661696C65640000000000 PUSH1 0x44 DUP3 ADD MSTORE REVERT JUMPDEST SWAP1 POP DUP4 DUP2 DUP2 RETURNDATASIZE DUP4 GT PUSH2 0x3064 JUMPI JUMPDEST PUSH2 0x304D DUP2 DUP4 PUSH2 0x3C97 JUMP JUMPDEST DUP2 ADD SUB SLT PUSH2 0x313 JUMPI PUSH2 0x305E SWAP1 PUSH2 0x3CB9 JUMP JUMPDEST DUP5 PUSH2 0x2FBC JUMP JUMPDEST POP RETURNDATASIZE PUSH2 0x3043 JUMP JUMPDEST PUSH1 0x40 MLOAD PUSH3 0x461BCD PUSH1 0xE5 SHL DUP2 MSTORE PUSH1 0x4 DUP2 ADD DUP7 SWAP1 MSTORE PUSH1 0x1B DUP2 DUP6 ADD MSTORE PUSH32 0x5472616E7366657220746F207265666572726572206661696C65640000000000 PUSH1 0x44 DUP3 ADD MSTORE PUSH1 0x64 SWAP1 REVERT JUMPDEST SWAP1 POP DUP6 DUP2 DUP2 RETURNDATASIZE DUP4 GT PUSH2 0x30DD JUMPI JUMPDEST PUSH2 0x30C6 DUP2 DUP4 PUSH2 0x3C97 JUMP JUMPDEST DUP2 ADD SUB SLT PUSH2 0x313 JUMPI PUSH2 0x30D7 SWAP1 PUSH2 0x3CB9 JUMP JUMPDEST DUP7 PUSH2 0x2F43 JUMP JUMPDEST POP RETURNDATASIZE PUSH2 0x30BC JUMP JUMPDEST POP DUP8 DUP3 DUP2 RETURNDATASIZE DUP4 GT PUSH2 0x310C JUMPI JUMPDEST PUSH2 0x30FA DUP2 DUP4 PUSH2 0x3C97 JUMP JUMPDEST DUP2 ADD SUB SLT PUSH2 0x313 JUMPI PUSH2 0x2EC8 SWAP2 MLOAD PUSH2 0x2EBC JUMP JUMPDEST POP RETURNDATASIZE PUSH2 0x30F0 JUMP JUMPDEST DUP5 PUSH4 0x4E487B71 PUSH1 0xE0 SHL PUSH1 0x0 MSTORE PUSH1 0x11 PUSH1 0x4 MSTORE PUSH1 0x0 REVERT JUMPDEST PUSH1 0x40 MLOAD PUSH3 0x461BCD PUSH1 0xE5 SHL DUP2 MSTORE PUSH1 0x4 DUP2 ADD DUP7 SWAP1 MSTORE PUSH1 0x1A DUP2 DUP6 ADD MSTORE PUSH32 0x496E76616C696420726566657272616C207369676E6174757265000000000000 PUSH1 0x44 DUP3 ADD MSTORE PUSH1 0x64 SWAP1 REVERT JUMPDEST DUP9 PUSH4 0x4E487B71 PUSH1 0xE0 SHL PUSH1 0x0 MSTORE PUSH1 0x41 PUSH1 0x4 MSTORE PUSH1 0x0 REVERT JUMPDEST PUSH1 0x40 MLOAD PUSH3 0x461BCD PUSH1 0xE5 SHL DUP2 MSTORE PUSH1 0x4 DUP2 ADD DUP11 SWAP1 MSTORE PUSH1 0x1C DUP2 DUP10 ADD MSTORE PUSH32 0x5265666572726572206D75737420626520616374697665207573657200000000 PUSH1 0x44 DUP3 ADD MSTORE PUSH1 0x64 SWAP1 REVERT JUMPDEST PUSH1 0x40 MLOAD PUSH3 0x461BCD PUSH1 0xE5 SHL DUP2 MSTORE PUSH1 0x4 DUP2 ADD DUP11 SWAP1 MSTORE PUSH1 0x10 DUP2 DUP10 ADD MSTORE PUSH16 0x24B73B30B634B2103932B332B93932B9 PUSH1 0x81 SHL PUSH1 0x44 DUP3 ADD MSTORE PUSH1 0x64 SWAP1 REVERT JUMPDEST PUSH1 0x40 MLOAD PUSH3 0x461BCD PUSH1 0xE5 SHL DUP2 MSTORE PUSH1 0x4 DUP2 ADD DUP11 SWAP1 MSTORE PUSH1 0x15 DUP2 DUP10 ADD MSTORE PUSH21 0x21B0B73737BA103932B332B9103CB7BAB939B2B633 PUSH1 0x59 SHL PUSH1 0x44 DUP3 ADD MSTORE PUSH1 0x64 SWAP1 REVERT JUMPDEST PUSH1 0x40 MLOAD PUSH3 0x461BCD PUSH1 0xE5 SHL DUP2 MSTORE PUSH1 0x4 DUP2 ADD DUP11 SWAP1 MSTORE PUSH1 0x15 DUP2 DUP10 ADD MSTORE PUSH21 0x105B1C9958591E481D5CD959081C9959995C9C985B PUSH1 0x5A SHL PUSH1 0x44 DUP3 ADD MSTORE PUSH1 0x64 SWAP1 REVERT JUMPDEST CALLVALUE PUSH2 0x313 JUMPI PUSH1 0x20 CALLDATASIZE PUSH1 0x3 NOT ADD SLT PUSH2 0x313 JUMPI PUSH1 0x0 DUP1 MLOAD PUSH1 0x20 PUSH2 0x429F DUP4 CODECOPY DUP2 MLOAD SWAP2 MSTORE PUSH1 0xA0 PUSH1 0x4 CALLDATALOAD PUSH2 0x32AD PUSH1 0x1 DUP1 DUP5 SHL SUB PUSH1 0x0 SLOAD AND CALLER EQ PUSH2 0x3D66 JUMP JUMPDEST PUSH10 0x152D02C7E14AF6800000 DUP2 LT ISZERO DUP1 PUSH2 0x3307 JUMPI JUMPDEST PUSH2 0x32CA SWAP1 PUSH2 0x4221 JUMP JUMPDEST PUSH1 0xD SLOAD SWAP1 DUP1 PUSH1 0xD SSTORE PUSH1 0x40 MLOAD SWAP2 PUSH1 0x60 DUP4 MSTORE PUSH1 0x10 PUSH1 0x60 DUP5 ADD MSTORE PUSH16 0x14D514915052D7CCCC17D49155D05491 PUSH1 0x82 SHL PUSH1 0x80 DUP5 ADD MSTORE PUSH1 0x20 DUP4 ADD MSTORE PUSH1 0x40 DUP3 ADD MSTORE LOG1 STOP JUMPDEST POP PUSH11 0x422CA8B0A00A425000000 DUP2 GT ISZERO PUSH2 0x32C1 JUMP JUMPDEST CALLVALUE PUSH2 0x313 JUMPI PUSH1 0x20 CALLDATASIZE PUSH1 0x3 NOT ADD SLT PUSH2 0x313 JUMPI PUSH1 0x0 DUP1 MLOAD PUSH1 0x20 PUSH2 0x429F DUP4 CODECOPY DUP2 MLOAD SWAP2 MSTORE PUSH1 0xA0 PUSH1 0x4 CALLDATALOAD PUSH2 0x3355 PUSH1 0x1 DUP1 DUP5 SHL SUB PUSH1 0x0 SLOAD AND CALLER EQ PUSH2 0x3D66 JUMP JUMPDEST PUSH10 0x21E19E0C9BAB2400000 DUP2 LT ISZERO DUP1 PUSH2 0x33B0 JUMPI JUMPDEST PUSH2 0x3372 SWAP1 PUSH2 0x4221 JUMP JUMPDEST PUSH1 0x1 SLOAD SWAP1 DUP1 PUSH1 0x1 SSTORE PUSH1 0x40 MLOAD SWAP2 PUSH1 0x60 DUP4 MSTORE PUSH1 0x11 PUSH1 0x60 DUP5 ADD MSTORE PUSH17 0x109054D157D11052531657D49155D05491 PUSH1 0x7A SHL PUSH1 0x80 DUP5 ADD MSTORE PUSH1 0x20 DUP4 ADD MSTORE PUSH1 0x40 DUP3 ADD MSTORE LOG1 STOP JUMPDEST POP PUSH10 0x2A5A058FC295ED000000 DUP2 GT ISZERO PUSH2 0x3369 JUMP JUMPDEST CALLVALUE PUSH2 0x313 JUMPI PUSH1 0x40 CALLDATASIZE PUSH1 0x3 NOT ADD SLT PUSH2 0x313 JUMPI PUSH8 0xFFFFFFFFFFFFFFFF PUSH1 0x4 CALLDATALOAD DUP2 DUP2 GT PUSH2 0x313 JUMPI PUSH2 0x33F6 SWAP1 CALLDATASIZE SWAP1 PUSH1 0x4 ADD PUSH2 0x3AB8 JUMP JUMPDEST SWAP2 PUSH1 0x24 CALLDATALOAD SWAP1 DUP2 GT PUSH2 0x313 JUMPI PUSH2 0x340F SWAP1 CALLDATASIZE SWAP1 PUSH1 0x4 ADD PUSH2 0x3AB8 JUMP JUMPDEST PUSH1 0x0 SLOAD PUSH1 0x1 PUSH1 0x1 PUSH1 0xA0 SHL SUB SWAP4 SWAP1 PUSH2 0x3429 SWAP1 DUP6 AND CALLER EQ PUSH2 0x3D66 JUMP JUMPDEST DUP2 DUP6 SUB PUSH2 0x34DB JUMPI PUSH1 0x0 JUMPDEST DUP6 DUP2 LT PUSH2 0x343C JUMPI STOP JUMPDEST DUP1 PUSH2 0x3453 PUSH2 0x344E PUSH2 0x34D6 SWAP4 DUP7 DUP9 PUSH2 0x3D9E JUMP JUMPDEST PUSH2 0x4214 JUMP JUMPDEST DUP7 PUSH2 0x3462 PUSH2 0x9AE DUP5 DUP12 DUP9 PUSH2 0x3D9E JUMP JUMPDEST AND PUSH1 0x0 MSTORE PUSH2 0x3486 PUSH1 0x20 SWAP2 PUSH1 0x12 DUP4 MSTORE PUSH1 0x40 PUSH1 0x0 KECCAK256 SWAP1 PUSH1 0xFF DUP1 NOT DUP4 SLOAD AND SWAP2 ISZERO ISZERO AND OR SWAP1 SSTORE JUMP JUMPDEST PUSH32 0x6A12B3DF6CBA4203BD7FD06B816789F87DE8C594299AED5717AE070FAC781BAC PUSH2 0x34B5 PUSH2 0x9AE DUP5 DUP12 DUP9 PUSH2 0x3D9E JUMP JUMPDEST SWAP2 DUP9 PUSH2 0x34C5 PUSH2 0x344E DUP7 DUP11 DUP13 PUSH2 0x3D9E JUMP JUMPDEST SWAP4 PUSH1 0x40 MLOAD SWAP5 ISZERO ISZERO DUP6 MSTORE AND SWAP3 LOG2 PUSH2 0x3D57 JUMP JUMPDEST PUSH2 0x3433 JUMP JUMPDEST PUSH1 0x40 MLOAD PUSH3 0x461BCD PUSH1 0xE5 SHL DUP2 MSTORE PUSH1 0x20 PUSH1 0x4 DUP3 ADD MSTORE PUSH1 0x15 PUSH1 0x24 DUP3 ADD MSTORE PUSH21 0x82E4E4C2F240D8CADCCEE8D040DAD2E6DAC2E8C6D PUSH1 0x5B SHL PUSH1 0x44 DUP3 ADD MSTORE PUSH1 0x64 SWAP1 REVERT JUMPDEST CALLVALUE PUSH2 0x313 JUMPI PUSH1 0x20 CALLDATASIZE PUSH1 0x3 NOT ADD SLT PUSH2 0x313 JUMPI PUSH2 0x3531 PUSH2 0x3AA9 JUMP JUMPDEST PUSH2 0x3546 PUSH1 0x1 DUP1 PUSH1 0xA0 SHL SUB PUSH1 0x0 SLOAD AND CALLER EQ PUSH2 0x3D66 JUMP JUMPDEST PUSH1 0x11 DUP1 SLOAD PUSH1 0xFF PUSH1 0xB0 SHL NOT AND SWAP2 ISZERO ISZERO PUSH1 0xB0 SHL PUSH1 0xFF PUSH1 0xB0 SHL AND SWAP2 SWAP1 SWAP2 OR SWAP1 SSTORE STOP JUMPDEST CALLVALUE PUSH2 0x313 JUMPI PUSH1 0x20 CALLDATASIZE PUSH1 0x3 NOT ADD SLT PUSH2 0x313 JUMPI PUSH2 0x357E PUSH2 0x3A93 JUMP JUMPDEST PUSH1 0x1 DUP1 PUSH1 0xA0 SHL SUB AND PUSH1 0x0 MSTORE PUSH1 0x13 PUSH1 0x20 MSTORE PUSH1 0x40 PUSH1 0x0 KECCAK256 DUP1 SLOAD PUSH1 0x1 DUP3 ADD SLOAD SWAP2 PUSH1 0x2 DUP2 ADD SLOAD SWAP3 PUSH1 0x3 DUP3 ADD SLOAD PUSH1 0xFF PUSH1 0x6 PUSH1 0x5 DUP6 ADD SLOAD SWAP5 ADD SLOAD PUSH1 0x20 SHR AND SWAP3 DUP5 ISZERO SWAP1 DUP2 ISZERO SWAP3 DUP4 PUSH2 0x3698 JUMPI JUMPDEST DUP3 ISZERO PUSH2 0x3685 JUMPI PUSH1 0x0 SWAP4 JUMPDEST DUP4 ISZERO PUSH2 0x3677 JUMPI DUP1 PUSH2 0x3661 JUMPI JUMPDEST ISZERO PUSH2 0x3653 JUMPI PUSH1 0x1 DUP6 ADD SWAP8 DUP9 DUP7 GT PUSH2 0x2017 JUMPI PUSH2 0x3616 PUSH2 0x120 SWAP10 JUMPDEST PUSH1 0x3 SLOAD SWAP1 DUP2 DUP2 GT ISZERO PUSH2 0x364C JUMPI POP JUMPDEST PUSH2 0x3610 PUSH1 0x1 SLOAD SWAP2 PUSH1 0x2 SLOAD SWAP1 PUSH2 0x3EAB JUMP JUMPDEST SWAP1 PUSH2 0x3E9E JUMP JUMPDEST SWAP6 PUSH1 0x40 MLOAD SWAP9 DUP10 MSTORE PUSH1 0x20 DUP10 ADD MSTORE PUSH1 0x40 DUP9 ADD MSTORE PUSH1 0x60 DUP8 ADD MSTORE PUSH1 0x80 DUP7 ADD MSTORE ISZERO ISZERO PUSH1 0xA0 DUP6 ADD MSTORE PUSH1 0xC0 DUP5 ADD MSTORE PUSH1 0xE0 DUP4 ADD MSTORE ISZERO ISZERO PUSH2 0x100 DUP3 ADD MSTORE RETURN JUMPDEST SWAP1 POP PUSH2 0x3600 JUMP JUMPDEST PUSH2 0x120 SWAP8 PUSH2 0x3616 PUSH1 0x1 PUSH2 0x35F2 JUMP JUMPDEST POP PUSH3 0x2A300 DUP8 ADD DUP1 DUP9 GT PUSH2 0x2017 JUMPI TIMESTAMP GT ISZERO PUSH2 0x35D9 JUMP JUMPDEST POP PUSH2 0x120 SWAP8 PUSH2 0x3616 DUP7 PUSH2 0x35F2 JUMP JUMPDEST PUSH3 0x15180 DUP8 ADD DUP1 DUP9 GT PUSH2 0x2017 JUMPI SWAP4 PUSH2 0x35CD JUMP JUMPDEST SWAP2 POP PUSH3 0x15180 DUP7 ADD DUP1 DUP8 GT PUSH2 0x2017 JUMPI TIMESTAMP LT ISZERO SWAP2 PUSH2 0x35C3 JUMP JUMPDEST CALLVALUE PUSH2 0x313 JUMPI PUSH1 0x0 CALLDATASIZE PUSH1 0x3 NOT ADD SLT PUSH2 0x313 JUMPI PUSH1 0x20 PUSH1 0x9 SLOAD PUSH1 0x40 MLOAD SWAP1 DUP2 MSTORE RETURN JUMPDEST CALLVALUE PUSH2 0x313 JUMPI PUSH1 0x0 CALLDATASIZE PUSH1 0x3 NOT ADD SLT PUSH2 0x313 JUMPI PUSH1 0x40 MLOAD PUSH32 0x0 PUSH1 0x1 PUSH1 0x1 PUSH1 0xA0 SHL SUB AND DUP2 MSTORE PUSH1 0x20 SWAP1 RETURN JUMPDEST CALLVALUE PUSH2 0x313 JUMPI PUSH1 0x0 CALLDATASIZE PUSH1 0x3 NOT ADD SLT PUSH2 0x313 JUMPI PUSH1 0x20 PUSH1 0x10 SLOAD PUSH1 0x40 MLOAD SWAP1 DUP2 MSTORE RETURN JUMPDEST CALLVALUE PUSH2 0x313 JUMPI PUSH1 0x0 CALLDATASIZE PUSH1 0x3 NOT ADD SLT PUSH2 0x313 JUMPI PUSH1 0x20 PUSH1 0xD SLOAD PUSH1 0x40 MLOAD SWAP1 DUP2 MSTORE RETURN JUMPDEST CALLVALUE PUSH2 0x313 JUMPI PUSH1 0x20 CALLDATASIZE PUSH1 0x3 NOT ADD SLT PUSH2 0x313 JUMPI PUSH1 0x0 DUP1 MLOAD PUSH1 0x20 PUSH2 0x429F DUP4 CODECOPY DUP2 MLOAD SWAP2 MSTORE PUSH1 0xA0 PUSH1 0x4 CALLDATALOAD PUSH2 0x3788 PUSH1 0x1 DUP1 DUP5 SHL SUB PUSH1 0x0 SLOAD AND CALLER EQ PUSH2 0x3D66 JUMP JUMPDEST PUSH10 0xA968163F0A57B400000 DUP2 LT ISZERO DUP1 PUSH2 0x37E1 JUMPI JUMPDEST PUSH2 0x37A5 SWAP1 PUSH2 0x4221 JUMP JUMPDEST PUSH1 0xC SLOAD SWAP1 DUP1 PUSH1 0xC SSTORE PUSH1 0x40 MLOAD SWAP2 PUSH1 0x60 DUP4 MSTORE PUSH1 0xF PUSH1 0x60 DUP5 ADD MSTORE PUSH15 0x14D514915052D7CDD7D49155D05491 PUSH1 0x8A SHL PUSH1 0x80 DUP5 ADD MSTORE PUSH1 0x20 DUP4 ADD MSTORE PUSH1 0x40 DUP3 ADD MSTORE LOG1 STOP JUMPDEST POP PUSH10 0xD3C21BCECCEDA1000000 DUP2 GT ISZERO PUSH2 0x379C JUMP JUMPDEST CALLVALUE PUSH2 0x313 JUMPI PUSH1 0x0 CALLDATASIZE PUSH1 0x3 NOT ADD SLT PUSH2 0x313 JUMPI PUSH1 0x20 PUSH1 0xFF PUSH1 0x11 SLOAD PUSH1 0xB0 SHR AND PUSH1 0x40 MLOAD SWAP1 ISZERO ISZERO DUP2 MSTORE RETURN JUMPDEST CALLVALUE PUSH2 0x313 JUMPI PUSH1 0x0 CALLDATASIZE PUSH1 0x3 NOT ADD SLT PUSH2 0x313 JUMPI PUSH1 0x20 PUSH1 0x2 SLOAD PUSH1 0x40 MLOAD SWAP1 DUP2 MSTORE RETURN JUMPDEST CALLVALUE PUSH2 0x313 JUMPI PUSH1 0x20 CALLDATASIZE PUSH1 0x3 NOT ADD SLT PUSH2 0x313 JUMPI PUSH1 0x0 DUP1 MLOAD PUSH1 0x20 PUSH2 0x429F DUP4 CODECOPY DUP2 MLOAD SWAP2 MSTORE PUSH1 0xA0 PUSH1 0x4 CALLDATALOAD PUSH2 0x3872 PUSH1 0x1 DUP1 DUP5 SHL SUB PUSH1 0x0 SLOAD AND CALLER EQ PUSH2 0x3D66 JUMP JUMPDEST PUSH10 0x21E19E0C9BAB2400000 DUP2 LT ISZERO DUP1 PUSH2 0x38D1 JUMPI JUMPDEST PUSH2 0x388F SWAP1 PUSH2 0x4221 JUMP JUMPDEST PUSH1 0x8 SLOAD SWAP1 DUP1 PUSH1 0x8 SSTORE PUSH1 0x40 MLOAD SWAP2 PUSH1 0x60 DUP4 MSTORE PUSH1 0x15 PUSH1 0x60 DUP5 ADD MSTORE PUSH21 0x15149051125391D7D593D315535157D49155D05491 PUSH1 0x5A SHL PUSH1 0x80 DUP5 ADD MSTORE PUSH1 0x20 DUP4 ADD MSTORE PUSH1 0x40 DUP3 ADD MSTORE LOG1 STOP JUMPDEST POP PUSH10 0x2A5A058FC295ED000000 DUP2 GT ISZERO PUSH2 0x3886 JUMP JUMPDEST CALLVALUE PUSH2 0x313 JUMPI PUSH1 0x0 CALLDATASIZE PUSH1 0x3 NOT ADD SLT PUSH2 0x313 JUMPI PUSH1 0x11 SLOAD PUSH1 0x40 MLOAD PUSH1 0x1 PUSH1 0x1 PUSH1 0xA0 SHL SUB SWAP1 SWAP2 AND DUP2 MSTORE PUSH1 0x20 SWAP1 RETURN JUMPDEST CALLVALUE PUSH2 0x313 JUMPI PUSH1 0x20 CALLDATASIZE PUSH1 0x3 NOT ADD SLT PUSH2 0x313 JUMPI PUSH32 0xE2FB031EE032DC02D8011DC50B816EB450CF856ABD8261680DAC74F72165BD2 PUSH1 0x20 PUSH2 0x394A PUSH2 0x3AA9 JUMP JUMPDEST PUSH2 0x395F PUSH1 0x1 DUP1 PUSH1 0xA0 SHL SUB PUSH1 0x0 SLOAD AND CALLER EQ PUSH2 0x3D66 JUMP JUMPDEST ISZERO ISZERO PUSH1 0x11 SLOAD PUSH1 0xFF PUSH1 0xA8 SHL DUP3 PUSH1 0xA8 SHL AND SWAP1 PUSH1 0xFF PUSH1 0xA8 SHL NOT AND OR PUSH1 0x11 SSTORE PUSH1 0x40 MLOAD SWAP1 DUP2 MSTORE LOG1 STOP JUMPDEST CALLVALUE PUSH2 0x313 JUMPI PUSH1 0x40 CALLDATASIZE PUSH1 0x3 NOT ADD SLT PUSH2 0x313 JUMPI PUSH2 0x399C PUSH2 0x3A93 JUMP JUMPDEST PUSH1 0x24 CALLDATALOAD SWAP1 DUP2 ISZERO ISZERO SWAP1 DUP2 DUP4 SUB PUSH2 0x313 JUMPI PUSH32 0x6A12B3DF6CBA4203BD7FD06B816789F87DE8C594299AED5717AE070FAC781BAC SWAP2 PUSH2 0x3A0A PUSH1 0x20 SWAP3 PUSH1 0x1 DUP1 PUSH1 0xA0 SHL SUB SWAP1 PUSH2 0x39EA DUP3 PUSH1 0x0 SLOAD AND CALLER EQ PUSH2 0x3D66 JUMP JUMPDEST AND SWAP5 DUP6 PUSH1 0x0 MSTORE PUSH1 0x12 DUP5 MSTORE PUSH1 0x40 PUSH1 0x0 KECCAK256 SWAP1 PUSH1 0xFF DUP1 NOT DUP4 SLOAD AND SWAP2 ISZERO ISZERO AND OR SWAP1 SSTORE JUMP JUMPDEST PUSH1 0x40 MLOAD SWAP1 DUP2 MSTORE LOG2 STOP JUMPDEST CALLVALUE PUSH2 0x313 JUMPI PUSH1 0x0 CALLDATASIZE PUSH1 0x3 NOT ADD SLT PUSH2 0x313 JUMPI PUSH1 0x20 PUSH1 0xFF PUSH1 0x11 SLOAD PUSH1 0xA0 SHR AND PUSH1 0x40 MLOAD SWAP1 ISZERO ISZERO DUP2 MSTORE RETURN JUMPDEST CALLVALUE PUSH2 0x313 JUMPI PUSH1 0x20 CALLDATASIZE PUSH1 0x3 NOT ADD SLT PUSH2 0x313 JUMPI PUSH1 0x1 PUSH1 0x1 PUSH1 0xA0 SHL SUB PUSH2 0x3A5A PUSH2 0x3A93 JUMP JUMPDEST AND PUSH1 0x0 MSTORE PUSH1 0x17 PUSH1 0x20 MSTORE PUSH1 0x20 PUSH1 0xFF PUSH1 0x40 PUSH1 0x0 KECCAK256 SLOAD AND PUSH1 0x40 MLOAD SWAP1 ISZERO ISZERO DUP2 MSTORE RETURN JUMPDEST CALLVALUE PUSH2 0x313 JUMPI PUSH1 0x0 CALLDATASIZE PUSH1 0x3 NOT ADD SLT PUSH2 0x313 JUMPI PUSH1 0x20 SWAP1 PUSH1 0x5 SLOAD DUP2 MSTORE RETURN JUMPDEST PUSH1 0x4 CALLDATALOAD SWAP1 PUSH1 0x1 PUSH1 0x1 PUSH1 0xA0 SHL SUB DUP3 AND DUP3 SUB PUSH2 0x313 JUMPI JUMP JUMPDEST PUSH1 0x4 CALLDATALOAD SWAP1 DUP2 ISZERO ISZERO DUP3 SUB PUSH2 0x313 JUMPI JUMP JUMPDEST SWAP2 DUP2 PUSH1 0x1F DUP5 ADD SLT ISZERO PUSH2 0x313 JUMPI DUP3 CALLDATALOAD SWAP2 PUSH8 0xFFFFFFFFFFFFFFFF DUP4 GT PUSH2 0x313 JUMPI PUSH1 0x20 DUP1 DUP6 ADD SWAP5 DUP5 PUSH1 0x5 SHL ADD ADD GT PUSH2 0x313 JUMPI JUMP JUMPDEST SWAP2 DUP2 PUSH1 0x1F DUP5 ADD SLT ISZERO PUSH2 0x313 JUMPI DUP3 CALLDATALOAD SWAP2 PUSH8 0xFFFFFFFFFFFFFFFF DUP4 GT PUSH2 0x313 JUMPI PUSH1 0x20 DUP4 DUP2 DUP7 ADD SWAP6 ADD ADD GT PUSH2 0x313 JUMPI JUMP JUMPDEST PUSH1 0x40 PUSH1 0x3 NOT DUP3 ADD SLT PUSH2 0x313 JUMPI PUSH8 0xFFFFFFFFFFFFFFFF SWAP2 PUSH1 0x4 CALLDATALOAD DUP4 DUP2 GT PUSH2 0x313 JUMPI DUP3 PUSH2 0x3B44 SWAP2 PUSH1 0x4 ADD PUSH2 0x3AE9 JUMP JUMPDEST SWAP4 SWAP1 SWAP4 SWAP3 PUSH1 0x24 CALLDATALOAD SWAP2 DUP3 GT PUSH2 0x313 JUMPI PUSH2 0x3B5E SWAP2 PUSH1 0x4 ADD PUSH2 0x3AE9 JUMP JUMPDEST SWAP1 SWAP2 JUMP JUMPDEST ISZERO PUSH2 0x3B69 JUMPI JUMP JUMPDEST PUSH1 0x40 MLOAD PUSH3 0x461BCD PUSH1 0xE5 SHL DUP2 MSTORE PUSH1 0x20 PUSH1 0x4 DUP3 ADD MSTORE PUSH1 0x12 PUSH1 0x24 DUP3 ADD MSTORE PUSH18 0x135A59DC985D1A5BDB88191A5CD8589B1959 PUSH1 0x72 SHL PUSH1 0x44 DUP3 ADD MSTORE PUSH1 0x64 SWAP1 REVERT JUMPDEST ISZERO PUSH2 0x3BAA JUMPI JUMP JUMPDEST PUSH1 0x40 MLOAD PUSH3 0x461BCD PUSH1 0xE5 SHL DUP2 MSTORE PUSH1 0x20 PUSH1 0x4 DUP3 ADD MSTORE PUSH1 0x10 PUSH1 0x24 DUP3 ADD MSTORE PUSH16 0x105B1C9958591E481B5A59DC985D1959 PUSH1 0x82 SHL PUSH1 0x44 DUP3 ADD MSTORE PUSH1 0x64 SWAP1 REVERT JUMPDEST ISZERO PUSH2 0x3BE9 JUMPI JUMP JUMPDEST PUSH1 0x40 MLOAD PUSH3 0x461BCD PUSH1 0xE5 SHL DUP2 MSTORE PUSH1 0x20 PUSH1 0x4 DUP3 ADD MSTORE PUSH1 0x22 PUSH1 0x24 DUP3 ADD MSTORE PUSH32 0x43616E6E6F74206D69677261746520626C61636B6C6973746564206164647265 PUSH1 0x44 DUP3 ADD MSTORE PUSH2 0x7373 PUSH1 0xF0 SHL PUSH1 0x64 DUP3 ADD MSTORE PUSH1 0x84 SWAP1 REVERT JUMPDEST ISZERO PUSH2 0x3C40 JUMPI JUMP JUMPDEST PUSH1 0x40 MLOAD PUSH3 0x461BCD PUSH1 0xE5 SHL DUP2 MSTORE PUSH1 0x20 PUSH1 0x4 DUP3 ADD MSTORE PUSH1 0x13 PUSH1 0x24 DUP3 ADD MSTORE PUSH19 0x158C8818DBDB9D1C9858DD081B9BDD081CD95D PUSH1 0x6A SHL PUSH1 0x44 DUP3 ADD MSTORE PUSH1 0x64 SWAP1 REVERT JUMPDEST PUSH1 0x60 DUP2 ADD SWAP1 DUP2 LT PUSH8 0xFFFFFFFFFFFFFFFF DUP3 GT OR PUSH2 0x1FCF JUMPI PUSH1 0x40 MSTORE JUMP JUMPDEST SWAP1 PUSH1 0x1F DUP1 NOT SWAP2 ADD AND DUP2 ADD SWAP1 DUP2 LT PUSH8 0xFFFFFFFFFFFFFFFF DUP3 GT OR PUSH2 0x1FCF JUMPI PUSH1 0x40 MSTORE JUMP JUMPDEST MLOAD SWAP1 DUP2 ISZERO ISZERO DUP3 SUB PUSH2 0x313 JUMPI JUMP JUMPDEST SWAP1 DUP2 PUSH2 0x160 SWAP2 SUB SLT PUSH2 0x313 JUMPI DUP1 MLOAD SWAP2 PUSH1 0x20 DUP3 ADD MLOAD SWAP2 PUSH1 0x40 DUP2 ADD MLOAD SWAP2 PUSH1 0x60 DUP3 ADD MLOAD SWAP2 PUSH1 0x80 DUP2 ADD MLOAD SWAP2 PUSH1 0xA0 DUP3 ADD MLOAD SWAP2 PUSH2 0x3CFF PUSH1 0xC0 DUP3 ADD PUSH2 0x3CB9 JUMP JUMPDEST SWAP2 PUSH2 0x3D0C PUSH1 0xE0 DUP4 ADD PUSH2 0x3CB9 JUMP JUMPDEST SWAP2 PUSH2 0x3D1A PUSH2 0x100 DUP3 ADD PUSH2 0x3CB9 JUMP JUMPDEST SWAP2 PUSH2 0x3D35 PUSH2 0x140 PUSH2 0x3D2E PUSH2 0x120 DUP6 ADD PUSH2 0x3CB9 JUMP JUMPDEST SWAP4 ADD PUSH2 0x3CB9 JUMP JUMPDEST SWAP1 JUMP JUMPDEST SWAP1 DUP2 PUSH1 0x20 SWAP2 SUB SLT PUSH2 0x313 JUMPI MLOAD PUSH1 0x1 PUSH1 0x1 PUSH1 0xA0 SHL SUB DUP2 AND DUP2 SUB PUSH2 0x313 JUMPI SWAP1 JUMP JUMPDEST PUSH1 0x0 NOT DUP2 EQ PUSH2 0x2017 JUMPI PUSH1 0x1 ADD SWAP1 JUMP JUMPDEST ISZERO PUSH2 0x3D6D JUMPI JUMP JUMPDEST PUSH1 0x40 MLOAD PUSH3 0x461BCD PUSH1 0xE5 SHL DUP2 MSTORE PUSH1 0x20 PUSH1 0x4 DUP3 ADD MSTORE PUSH1 0x9 PUSH1 0x24 DUP3 ADD MSTORE PUSH9 0x2737BA1037BBB732B9 PUSH1 0xB9 SHL PUSH1 0x44 DUP3 ADD MSTORE PUSH1 0x64 SWAP1 REVERT JUMPDEST SWAP2 SWAP1 DUP2 LT ISZERO PUSH2 0x3DAE JUMPI PUSH1 0x5 SHL ADD SWAP1 JUMP JUMPDEST PUSH4 0x4E487B71 PUSH1 0xE0 SHL PUSH1 0x0 MSTORE PUSH1 0x32 PUSH1 0x4 MSTORE PUSH1 0x24 PUSH1 0x0 REVERT JUMPDEST CALLDATALOAD PUSH1 0x1 PUSH1 0x1 PUSH1 0xA0 SHL SUB DUP2 AND DUP2 SUB PUSH2 0x313 JUMPI SWAP1 JUMP JUMPDEST ISZERO PUSH2 0x3DDF JUMPI JUMP JUMPDEST PUSH1 0x40 MLOAD PUSH3 0x461BCD PUSH1 0xE5 SHL DUP2 MSTORE PUSH1 0x20 PUSH1 0x4 DUP3 ADD MSTORE PUSH1 0x12 PUSH1 0x24 DUP3 ADD MSTORE PUSH18 0x10DBDB9D1C9858DD081A5CC81C185D5CD959 PUSH1 0x72 SHL PUSH1 0x44 DUP3 ADD MSTORE PUSH1 0x64 SWAP1 REVERT JUMPDEST ISZERO PUSH2 0x3E20 JUMPI JUMP JUMPDEST PUSH1 0x40 MLOAD PUSH3 0x461BCD PUSH1 0xE5 SHL DUP2 MSTORE PUSH1 0x20 PUSH1 0x4 DUP3 ADD MSTORE PUSH1 0x16 PUSH1 0x24 DUP3 ADD MSTORE PUSH22 0x1059191C995CDCC81A5CC8189B1858DADB1A5CDD1959 PUSH1 0x52 SHL PUSH1 0x44 DUP3 ADD MSTORE PUSH1 0x64 SWAP1 REVERT JUMPDEST ISZERO PUSH2 0x3E65 JUMPI JUMP JUMPDEST PUSH1 0x40 MLOAD PUSH3 0x461BCD PUSH1 0xE5 SHL DUP2 MSTORE PUSH1 0x20 PUSH1 0x4 DUP3 ADD MSTORE PUSH1 0x11 PUSH1 0x24 DUP3 ADD MSTORE PUSH17 0x496E76616C6964207369676E6174757265 PUSH1 0x78 SHL PUSH1 0x44 DUP3 ADD MSTORE PUSH1 0x64 SWAP1 REVERT JUMPDEST SWAP2 SWAP1 DUP3 ADD DUP1 SWAP3 GT PUSH2 0x2017 JUMPI JUMP JUMPDEST DUP2 DUP2 MUL SWAP3 SWAP2 DUP2 ISZERO SWAP2 DUP5 DIV EQ OR ISZERO PUSH2 0x2017 JUMPI JUMP JUMPDEST ISZERO PUSH2 0x3EC5 JUMPI JUMP JUMPDEST PUSH1 0x40 MLOAD PUSH3 0x461BCD PUSH1 0xE5 SHL DUP2 MSTORE PUSH1 0x20 PUSH1 0x4 DUP3 ADD MSTORE PUSH1 0x19 PUSH1 0x24 DUP3 ADD MSTORE PUSH32 0x496E73756666696369656E7420706F6F6C2062616C616E636500000000000000 PUSH1 0x44 DUP3 ADD MSTORE PUSH1 0x64 SWAP1 REVERT JUMPDEST ISZERO PUSH2 0x3F11 JUMPI JUMP JUMPDEST PUSH1 0x40 MLOAD PUSH3 0x461BCD PUSH1 0xE5 SHL DUP2 MSTORE PUSH1 0x20 PUSH1 0x4 DUP3 ADD MSTORE PUSH1 0xF PUSH1 0x24 DUP3 ADD MSTORE PUSH15 0x151C985B9CD9995C8819985A5B1959 PUSH1 0x8A SHL PUSH1 0x44 DUP3 ADD MSTORE PUSH1 0x64 SWAP1 REVERT JUMPDEST SWAP3 SWAP2 SWAP3 PUSH8 0xFFFFFFFFFFFFFFFF DUP3 GT PUSH2 0x1FCF JUMPI PUSH1 0x40 MLOAD SWAP2 PUSH2 0x3F72 PUSH1 0x1F DUP3 ADD PUSH1 0x1F NOT AND PUSH1 0x20 ADD DUP5 PUSH2 0x3C97 JUMP JUMPDEST DUP3 SWAP5 DUP2 DUP5 MSTORE DUP2 DUP4 ADD GT PUSH2 0x313 JUMPI DUP3 DUP2 PUSH1 0x20 SWAP4 DUP5 PUSH1 0x0 SWAP7 ADD CALLDATACOPY ADD ADD MSTORE JUMP JUMPDEST ISZERO PUSH2 0x3F96 JUMPI JUMP JUMPDEST PUSH1 0x40 MLOAD PUSH3 0x461BCD PUSH1 0xE5 SHL DUP2 MSTORE PUSH1 0x20 PUSH1 0x4 DUP3 ADD MSTORE PUSH1 0x1C PUSH1 0x24 DUP3 ADD MSTORE PUSH32 0x5461736B20616C726561647920636F6D706C6574656420746F64617900000000 PUSH1 0x44 DUP3 ADD MSTORE PUSH1 0x64 SWAP1 REVERT JUMPDEST SWAP4 SWAP3 SWAP2 DUP1 PUSH1 0x60 SWAP2 PUSH1 0x20 SWAP4 PUSH1 0x40 DUP9 MSTORE DUP2 PUSH1 0x40 DUP10 ADD MSTORE DUP4 DUP9 ADD CALLDATACOPY PUSH1 0x0 DUP3 DUP3 DUP9 ADD ADD MSTORE PUSH1 0x1F DUP1 NOT SWAP2 ADD AND DUP6 ADD ADD SWAP4 ADD MSTORE JUMP JUMPDEST ISZERO PUSH2 0x4011 JUMPI JUMP JUMPDEST PUSH1 0x40 MLOAD PUSH3 0x461BCD PUSH1 0xE5 SHL DUP2 MSTORE PUSH1 0x20 PUSH1 0x4 DUP3 ADD MSTORE PUSH1 0xF PUSH1 0x24 DUP3 ADD MSTORE PUSH15 0x105B1C9958591E4818DB185A5B5959 PUSH1 0x8A SHL PUSH1 0x44 DUP3 ADD MSTORE PUSH1 0x64 SWAP1 REVERT JUMPDEST PUSH1 0x1 PUSH1 0x1 PUSH1 0xA0 SHL SUB AND PUSH1 0x0 SWAP1 DUP2 MSTORE PUSH1 0x14 PUSH1 0x20 MSTORE PUSH1 0x40 DUP2 KECCAK256 PUSH1 0x1 DUP2 ADD SLOAD PUSH3 0x15180 TIMESTAMP DIV SWAP1 SUB PUSH2 0x4088 JUMPI SLOAD SWAP1 PUSH1 0xFF DUP3 AND SWAP3 PUSH1 0xFF DUP1 DUP5 PUSH1 0x8 SHR AND SWAP4 PUSH1 0x10 SHR AND SWAP2 SWAP1 JUMP JUMPDEST POP DUP1 SWAP2 DUP2 SWAP1 PUSH1 0x1 SWAP1 JUMP JUMPDEST PUSH1 0x1 PUSH1 0x1 PUSH1 0xA0 SHL SUB AND PUSH1 0x0 SWAP1 DUP2 MSTORE PUSH1 0x14 PUSH1 0x20 MSTORE PUSH1 0x40 SWAP1 KECCAK256 PUSH1 0x1 DUP2 ADD DUP1 SLOAD PUSH3 0x15180 TIMESTAMP DIV SWAP3 SWAP1 DUP4 SWAP1 SUB PUSH2 0x40C3 JUMPI POP POP POP JUMP JUMPDEST DUP1 SLOAD PUSH3 0xFFFFFF NOT AND SWAP1 SSTORE SSTORE JUMP JUMPDEST SWAP1 SWAP2 PUSH2 0x4119 PUSH1 0x54 PUSH2 0x4159 SWAP7 SWAP6 SWAP5 DUP4 PUSH1 0x40 MLOAD SWAP5 DUP6 SWAP3 PUSH1 0x20 DUP5 ADD SWAP8 PUSH1 0x1 PUSH1 0x1 PUSH1 0x60 SHL SUB NOT SWAP1 PUSH1 0x60 SHL AND DUP9 MSTORE PUSH1 0x34 DUP5 ADD CALLDATACOPY DUP2 ADD PUSH3 0x15180 TIMESTAMP DIV PUSH1 0x34 DUP3 ADD MSTORE SUB PUSH1 0x34 DUP2 ADD DUP5 MSTORE ADD DUP3 PUSH2 0x3C97 JUMP JUMPDEST MLOAD SWAP1 KECCAK256 PUSH1 0x40 MLOAD PUSH1 0x20 DUP2 ADD SWAP2 PUSH32 0x19457468657265756D205369676E6564204D6573736167653A0A333200000000 DUP4 MSTORE PUSH1 0x3C DUP3 ADD MSTORE PUSH1 0x3C DUP2 MSTORE PUSH2 0x1A2B DUP2 PUSH2 0x3C7B JUMP JUMPDEST PUSH1 0x11 SLOAD PUSH1 0x1 PUSH1 0x1 PUSH1 0xA0 SHL SUB SWAP2 DUP3 AND SWAP2 AND EQ SWAP1 JUMP JUMPDEST SWAP2 PUSH1 0x41 SUB PUSH2 0x41CF JUMPI PUSH1 0x40 DUP2 ADD CALLDATALOAD PUSH1 0x0 BYTE PUSH1 0x1B DUP2 LT PUSH2 0x41BD JUMPI JUMPDEST PUSH1 0x20 SWAP3 DUP4 PUSH1 0x0 SWAP4 PUSH1 0xFF PUSH1 0x80 SWAP5 PUSH1 0x40 MLOAD SWAP5 DUP6 MSTORE AND DUP3 DUP5 ADD MSTORE DUP1 CALLDATALOAD PUSH1 0x40 DUP5 ADD MSTORE ADD CALLDATALOAD PUSH1 0x60 DUP3 ADD MSTORE DUP3 DUP1 MSTORE PUSH1 0x1 GAS STATICCALL ISZERO PUSH2 0x7B8 JUMPI PUSH1 0x0 MLOAD SWAP1 JUMP JUMPDEST PUSH1 0x1B ADD SWAP1 PUSH1 0xFF DUP3 GT PUSH2 0x2017 JUMPI SWAP1 PUSH2 0x4186 JUMP JUMPDEST PUSH1 0x40 MLOAD PUSH3 0x461BCD PUSH1 0xE5 SHL DUP2 MSTORE PUSH1 0x20 PUSH1 0x4 DUP3 ADD MSTORE PUSH1 0x18 PUSH1 0x24 DUP3 ADD MSTORE PUSH32 0x496E76616C6964207369676E6174757265206C656E6774680000000000000000 PUSH1 0x44 DUP3 ADD MSTORE PUSH1 0x64 SWAP1 REVERT JUMPDEST CALLDATALOAD DUP1 ISZERO ISZERO DUP2 SUB PUSH2 0x313 JUMPI SWAP1 JUMP JUMPDEST ISZERO PUSH2 0x4228 JUMPI JUMP JUMPDEST PUSH1 0x40 MLOAD PUSH3 0x461BCD PUSH1 0xE5 SHL DUP2 MSTORE PUSH1 0x20 PUSH1 0x4 DUP3 ADD MSTORE PUSH1 0xE PUSH1 0x24 DUP3 ADD MSTORE PUSH14 0x125B9D985B1A5908185B5BDD5B9D PUSH1 0x92 SHL PUSH1 0x44 DUP3 ADD MSTORE PUSH1 0x64 SWAP1 REVERT INVALID PUSH8 0xA8D47C6ECF3A491E 0xA8 LOG4 CALLCODE EXP PC CALLDATALOAD 0x23 SWAP5 DUP8 SWAP13 JUMPI EXTCODECOPY PUSH8 0x8EC5B9ABCEAE075D 0x4D 0xCA STATICCALL SUB CODESIZE ADDRESS 0xC4 DUP6 CREATE DUP16 PUSH1 0x8E EXTCODECOPY BALANCE SWAP14 SWAP12 DUP16 0xAE EXP CALL 0xAB 0xDA PUSH21 0x131F96E0BCD8AED54772DDE6D2AE151935A76DC9B9 MSTORE8 CODESIZE CODESIZE SLOAD 0x4A 0xE8 SGT PUSH27 0xD6337FFD21A54E415AB781611F60A26469706673582212202D0819 0xE3 PUSH12 0xF5FC9E4D47877599F34B62E3 0xF7 0xC5 PUSH15 0xC64FAF6EEF848D9529B9D20564736F PUSH13 0x63430008130033000000000000 "},"methodIdentifiers":{"baseDailyReward()":"e9aae650","batchMigrateFromV2(address[])":"e9b7d964","batchSetBlacklist(address[],bool[])":"565c99ac","betaTesterReward()":"cecfbead","blacklist(address)":"f9f92be4","claimAchievement(string,bytes)":"7a994cd0","claimDaily(bytes)":"9fb3cf4f","claimingEnabled()":"0e141a9b","completeTask(string,bytes)":"db3eef3f","createPredictionReward()":"ed4c85a9","dailyTasks(address)":"df312b1e","depositSwipe(uint256)":"a079d40c","emergencyWithdraw()":"db2e21bc","followSocialsReward()":"7bb03085","getPoolStats()":"bbb85188","getUserAchievements(address)":"f09153c4","getUserDailyTasks(address)":"c7105609","getUserStats(address)":"4e43603a","hasUsedReferral(address)":"09b5a33a","jackpotAmount()":"b1eac37e","jackpotChance()":"0604ce27","maxStreakBonusDays()":"e91c7d33","migrateFromV1()":"79b9c399","migrateFromV2()":"ef5ab0d5","migrationEnabled()":"35b944bf","owner()":"8da5cb5b","paused()":"5c975abb","referralCount(address)":"db74559b","referralReward()":"4d683674","referredBy(address)":"a90f8e9a","registerReferral(address,bytes)":"5a9d93f1","setBaseDailyReward(uint256)":"575c0f83","setBetaTesterReward(uint256)":"6fea4538","setBlacklist(address,bool)":"153b0d1e","setClaimingEnabled(bool)":"b6c72888","setCreatePredictionReward(uint256)":"cf17beaf","setFollowSocialsReward(uint256)":"66598874","setJackpotAmount(uint256)":"8beaf1c5","setJackpotChance(uint256)":"bdf0f1aa","setMaxStreakBonusDays(uint256)":"8b311fbc","setMigrationEnabled(bool)":"521c27f2","setPaused(bool)":"16c38b3c","setReferralReward(uint256)":"8fb6c6f6","setShareCastReward(uint256)":"8372acf7","setStreak30Reward(uint256)":"5951ac65","setStreak7Reward(uint256)":"35dbc94a","setStreakBonusPerDay(uint256)":"dfae07ff","setTaskVerifier(address)":"70ed4620","setTradingVolumeReward(uint256)":"1f66351a","shareCastReward()":"9cc8e7eb","streak30Reward()":"3f9bcde2","streak7Reward()":"e7865e57","streakBonusPerDay()":"2f44a61c","swipeToken()":"492c70fb","taskVerifier()":"1e23a7f0","totalClaims()":"41c61383","totalDistributed()":"efca2eed","totalUsers()":"bff1f9e1","tradingVolumeReward()":"edd6c848","transferOwnership(address)":"f2fde38b","users(address)":"a87430ba","v1Contract()":"ed1ec0f4","v2Contract()":"82fb31fe"}}}}}