{"contracts/SwipeDailyRewards_V2.sol":{"SwipeDailyRewards_V2":{"abi":[{"inputs":[{"internalType":"address","name":"_swipeToken","type":"address"},{"internalType":"address","name":"_taskVerifier","type":"address"},{"internalType":"address","name":"_v1Contract","type":"address"}],"stateMutability":"nonpayable","type":"constructor"},{"anonymous":false,"inputs":[{"indexed":true,"internalType":"address","name":"user","type":"address"},{"indexed":false,"internalType":"string","name":"achievement","type":"string"},{"indexed":false,"internalType":"uint256","name":"reward","type":"uint256"}],"name":"AchievementUnlocked","type":"event"},{"anonymous":false,"inputs":[{"indexed":true,"internalType":"address","name":"user","type":"address"},{"indexed":false,"internalType":"bool","name":"blacklisted","type":"bool"}],"name":"BlacklistUpdated","type":"event"},{"anonymous":false,"inputs":[{"indexed":false,"internalType":"bool","name":"enabled","type":"bool"}],"name":"ClaimingToggled","type":"event"},{"anonymous":false,"inputs":[{"indexed":true,"internalType":"address","name":"user","type":"address"},{"indexed":false,"internalType":"uint256","name":"baseAmount","type":"uint256"},{"indexed":false,"internalType":"uint256","name":"streakBonus","type":"uint256"},{"indexed":false,"internalType":"uint256","name":"totalAmount","type":"uint256"},{"indexed":false,"internalType":"uint256","name":"currentStreak","type":"uint256"},{"indexed":false,"internalType":"bool","name":"wonJackpot","type":"bool"}],"name":"DailyClaimed","type":"event"},{"anonymous":false,"inputs":[{"indexed":true,"internalType":"address","name":"to","type":"address"},{"indexed":false,"internalType":"uint256","name":"amount","type":"uint256"}],"name":"EmergencyWithdraw","type":"event"},{"anonymous":false,"inputs":[{"indexed":false,"internalType":"bool","name":"isPaused","type":"bool"}],"name":"Paused","type":"event"},{"anonymous":false,"inputs":[{"indexed":true,"internalType":"address","name":"referrer","type":"address"},{"indexed":true,"internalType":"address","name":"referred","type":"address"},{"indexed":false,"internalType":"uint256","name":"rewardEach","type":"uint256"}],"name":"ReferralRegistered","type":"event"},{"anonymous":false,"inputs":[{"indexed":false,"internalType":"string","name":"rewardType","type":"string"},{"indexed":false,"internalType":"uint256","name":"oldValue","type":"uint256"},{"indexed":false,"internalType":"uint256","name":"newValue","type":"uint256"}],"name":"RewardUpdated","type":"event"},{"anonymous":false,"inputs":[{"indexed":true,"internalType":"address","name":"from","type":"address"},{"indexed":false,"internalType":"uint256","name":"amount","type":"uint256"}],"name":"SwipeDeposited","type":"event"},{"anonymous":false,"inputs":[{"indexed":true,"internalType":"address","name":"user","type":"address"},{"indexed":false,"internalType":"string","name":"taskType","type":"string"},{"indexed":false,"internalType":"uint256","name":"reward","type":"uint256"}],"name":"TaskCompleted","type":"event"},{"anonymous":false,"inputs":[{"indexed":true,"internalType":"address","name":"newVerifier","type":"address"}],"name":"TaskVerifierUpdated","type":"event"},{"anonymous":false,"inputs":[{"indexed":true,"internalType":"address","name":"user","type":"address"},{"indexed":false,"internalType":"uint256","name":"streak","type":"uint256"},{"indexed":false,"internalType":"bool","name":"achievements","type":"bool"}],"name":"UserMigrated","type":"event"},{"inputs":[],"name":"baseDailyReward","outputs":[{"internalType":"uint256","name":"","type":"uint256"}],"stateMutability":"view","type":"function"},{"inputs":[{"internalType":"address[]","name":"usersToMigrate","type":"address[]"}],"name":"batchMigrateFromV1","outputs":[],"stateMutability":"nonpayable","type":"function"},{"inputs":[{"internalType":"address[]","name":"users","type":"address[]"},{"internalType":"bool[]","name":"blacklisted","type":"bool[]"}],"name":"batchSetBlacklist","outputs":[],"stateMutability":"nonpayable","type":"function"},{"inputs":[],"name":"betaTesterReward","outputs":[{"internalType":"uint256","name":"","type":"uint256"}],"stateMutability":"view","type":"function"},{"inputs":[{"internalType":"address","name":"","type":"address"}],"name":"blacklist","outputs":[{"internalType":"bool","name":"","type":"bool"}],"stateMutability":"view","type":"function"},{"inputs":[{"internalType":"string","name":"achievementType","type":"string"},{"internalType":"bytes","name":"signature","type":"bytes"}],"name":"claimAchievement","outputs":[],"stateMutability":"nonpayable","type":"function"},{"inputs":[],"name":"claimDaily","outputs":[],"stateMutability":"nonpayable","type":"function"},{"inputs":[],"name":"claimingEnabled","outputs":[{"internalType":"bool","name":"","type":"bool"}],"stateMutability":"view","type":"function"},{"inputs":[{"internalType":"string","name":"taskType","type":"string"},{"internalType":"bytes","name":"signature","type":"bytes"}],"name":"completeTask","outputs":[],"stateMutability":"nonpayable","type":"function"},{"inputs":[],"name":"createPredictionReward","outputs":[{"internalType":"uint256","name":"","type":"uint256"}],"stateMutability":"view","type":"function"},{"inputs":[{"internalType":"address","name":"","type":"address"}],"name":"dailyTasks","outputs":[{"internalType":"bool","name":"shareCast","type":"bool"},{"internalType":"bool","name":"createPrediction","type":"bool"},{"internalType":"bool","name":"tradingVolume","type":"bool"},{"internalType":"uint256","name":"resetDay","type":"uint256"}],"stateMutability":"view","type":"function"},{"inputs":[{"internalType":"uint256","name":"amount","type":"uint256"}],"name":"depositSwipe","outputs":[],"stateMutability":"nonpayable","type":"function"},{"inputs":[],"name":"emergencyWithdraw","outputs":[],"stateMutability":"nonpayable","type":"function"},{"inputs":[],"name":"followSocialsReward","outputs":[{"internalType":"uint256","name":"","type":"uint256"}],"stateMutability":"view","type":"function"},{"inputs":[],"name":"getPoolStats","outputs":[{"internalType":"uint256","name":"poolBalance","type":"uint256"},{"internalType":"uint256","name":"distributed","type":"uint256"},{"internalType":"uint256","name":"userCount","type":"uint256"},{"internalType":"uint256","name":"claimCount","type":"uint256"}],"stateMutability":"view","type":"function"},{"inputs":[{"internalType":"address","name":"user","type":"address"}],"name":"getUserAchievements","outputs":[{"internalType":"bool","name":"isBetaTester","type":"bool"},{"internalType":"bool","name":"hasFollowedSocials","type":"bool"},{"internalType":"bool","name":"hasStreak7","type":"bool"},{"internalType":"bool","name":"hasStreak30","type":"bool"},{"internalType":"uint256","name":"referrals","type":"uint256"}],"stateMutability":"view","type":"function"},{"inputs":[{"internalType":"address","name":"user","type":"address"}],"name":"getUserDailyTasks","outputs":[{"internalType":"bool","name":"shareCast","type":"bool"},{"internalType":"bool","name":"createPrediction","type":"bool"},{"internalType":"bool","name":"tradingVolume","type":"bool"},{"internalType":"bool","name":"needsReset","type":"bool"}],"stateMutability":"view","type":"function"},{"inputs":[{"internalType":"address","name":"user","type":"address"}],"name":"getUserStats","outputs":[{"internalType":"uint256","name":"lastClaimTimestamp","type":"uint256"},{"internalType":"uint256","name":"currentStreak","type":"uint256"},{"internalType":"uint256","name":"longestStreak","type":"uint256"},{"internalType":"uint256","name":"totalClaimed","type":"uint256"},{"internalType":"uint256","name":"jackpotsWon","type":"uint256"},{"internalType":"bool","name":"canClaimToday","type":"bool"},{"internalType":"uint256","name":"nextClaimTime","type":"uint256"},{"internalType":"uint256","name":"potentialReward","type":"uint256"},{"internalType":"bool","name":"isMigrated","type":"bool"}],"stateMutability":"view","type":"function"},{"inputs":[{"internalType":"address","name":"","type":"address"}],"name":"hasUsedReferral","outputs":[{"internalType":"bool","name":"","type":"bool"}],"stateMutability":"view","type":"function"},{"inputs":[],"name":"jackpotAmount","outputs":[{"internalType":"uint256","name":"","type":"uint256"}],"stateMutability":"view","type":"function"},{"inputs":[],"name":"jackpotChance","outputs":[{"internalType":"uint256","name":"","type":"uint256"}],"stateMutability":"view","type":"function"},{"inputs":[],"name":"maxStreakBonusDays","outputs":[{"internalType":"uint256","name":"","type":"uint256"}],"stateMutability":"view","type":"function"},{"inputs":[],"name":"migrateFromV1","outputs":[],"stateMutability":"nonpayable","type":"function"},{"inputs":[],"name":"migrationEnabled","outputs":[{"internalType":"bool","name":"","type":"bool"}],"stateMutability":"view","type":"function"},{"inputs":[],"name":"owner","outputs":[{"internalType":"address","name":"","type":"address"}],"stateMutability":"view","type":"function"},{"inputs":[],"name":"paused","outputs":[{"internalType":"bool","name":"","type":"bool"}],"stateMutability":"view","type":"function"},{"inputs":[{"internalType":"address","name":"","type":"address"}],"name":"referralCount","outputs":[{"internalType":"uint256","name":"","type":"uint256"}],"stateMutability":"view","type":"function"},{"inputs":[],"name":"referralReward","outputs":[{"internalType":"uint256","name":"","type":"uint256"}],"stateMutability":"view","type":"function"},{"inputs":[{"internalType":"address","name":"","type":"address"}],"name":"referredBy","outputs":[{"internalType":"address","name":"","type":"address"}],"stateMutability":"view","type":"function"},{"inputs":[{"internalType":"address","name":"referrer","type":"address"},{"internalType":"bytes","name":"signature","type":"bytes"}],"name":"registerReferral","outputs":[],"stateMutability":"nonpayable","type":"function"},{"inputs":[{"internalType":"uint256","name":"amount","type":"uint256"}],"name":"setBaseDailyReward","outputs":[],"stateMutability":"nonpayable","type":"function"},{"inputs":[{"internalType":"uint256","name":"amount","type":"uint256"}],"name":"setBetaTesterReward","outputs":[],"stateMutability":"nonpayable","type":"function"},{"inputs":[{"internalType":"address","name":"user","type":"address"},{"internalType":"bool","name":"_blacklisted","type":"bool"}],"name":"setBlacklist","outputs":[],"stateMutability":"nonpayable","type":"function"},{"inputs":[{"internalType":"bool","name":"enabled","type":"bool"}],"name":"setClaimingEnabled","outputs":[],"stateMutability":"nonpayable","type":"function"},{"inputs":[{"internalType":"uint256","name":"amount","type":"uint256"}],"name":"setCreatePredictionReward","outputs":[],"stateMutability":"nonpayable","type":"function"},{"inputs":[{"internalType":"uint256","name":"amount","type":"uint256"}],"name":"setFollowSocialsReward","outputs":[],"stateMutability":"nonpayable","type":"function"},{"inputs":[{"internalType":"uint256","name":"amount","type":"uint256"}],"name":"setJackpotAmount","outputs":[],"stateMutability":"nonpayable","type":"function"},{"inputs":[{"internalType":"uint256","name":"chance","type":"uint256"}],"name":"setJackpotChance","outputs":[],"stateMutability":"nonpayable","type":"function"},{"inputs":[{"internalType":"uint256","name":"days_","type":"uint256"}],"name":"setMaxStreakBonusDays","outputs":[],"stateMutability":"nonpayable","type":"function"},{"inputs":[{"internalType":"bool","name":"enabled","type":"bool"}],"name":"setMigrationEnabled","outputs":[],"stateMutability":"nonpayable","type":"function"},{"inputs":[{"internalType":"bool","name":"_paused","type":"bool"}],"name":"setPaused","outputs":[],"stateMutability":"nonpayable","type":"function"},{"inputs":[{"internalType":"uint256","name":"amount","type":"uint256"}],"name":"setReferralReward","outputs":[],"stateMutability":"nonpayable","type":"function"},{"inputs":[{"internalType":"uint256","name":"amount","type":"uint256"}],"name":"setShareCastReward","outputs":[],"stateMutability":"nonpayable","type":"function"},{"inputs":[{"internalType":"uint256","name":"amount","type":"uint256"}],"name":"setStreak30Reward","outputs":[],"stateMutability":"nonpayable","type":"function"},{"inputs":[{"internalType":"uint256","name":"amount","type":"uint256"}],"name":"setStreak7Reward","outputs":[],"stateMutability":"nonpayable","type":"function"},{"inputs":[{"internalType":"uint256","name":"amount","type":"uint256"}],"name":"setStreakBonusPerDay","outputs":[],"stateMutability":"nonpayable","type":"function"},{"inputs":[{"internalType":"address","name":"newVerifier","type":"address"}],"name":"setTaskVerifier","outputs":[],"stateMutability":"nonpayable","type":"function"},{"inputs":[{"internalType":"uint256","name":"amount","type":"uint256"}],"name":"setTradingVolumeReward","outputs":[],"stateMutability":"nonpayable","type":"function"},{"inputs":[],"name":"shareCastReward","outputs":[{"internalType":"uint256","name":"","type":"uint256"}],"stateMutability":"view","type":"function"},{"inputs":[],"name":"streak30Reward","outputs":[{"internalType":"uint256","name":"","type":"uint256"}],"stateMutability":"view","type":"function"},{"inputs":[],"name":"streak7Reward","outputs":[{"internalType":"uint256","name":"","type":"uint256"}],"stateMutability":"view","type":"function"},{"inputs":[],"name":"streakBonusPerDay","outputs":[{"internalType":"uint256","name":"","type":"uint256"}],"stateMutability":"view","type":"function"},{"inputs":[],"name":"swipeToken","outputs":[{"internalType":"contract IERC20","name":"","type":"address"}],"stateMutability":"view","type":"function"},{"inputs":[],"name":"taskVerifier","outputs":[{"internalType":"address","name":"","type":"address"}],"stateMutability":"view","type":"function"},{"inputs":[],"name":"totalClaims","outputs":[{"internalType":"uint256","name":"","type":"uint256"}],"stateMutability":"view","type":"function"},{"inputs":[],"name":"totalDistributed","outputs":[{"internalType":"uint256","name":"","type":"uint256"}],"stateMutability":"view","type":"function"},{"inputs":[],"name":"totalUsers","outputs":[{"internalType":"uint256","name":"","type":"uint256"}],"stateMutability":"view","type":"function"},{"inputs":[],"name":"tradingVolumeReward","outputs":[{"internalType":"uint256","name":"","type":"uint256"}],"stateMutability":"view","type":"function"},{"inputs":[{"internalType":"address","name":"newOwner","type":"address"}],"name":"transferOwnership","outputs":[],"stateMutability":"nonpayable","type":"function"},{"inputs":[{"internalType":"address","name":"","type":"address"}],"name":"users","outputs":[{"internalType":"uint256","name":"lastClaimTimestamp","type":"uint256"},{"internalType":"uint256","name":"currentStreak","type":"uint256"},{"internalType":"uint256","name":"longestStreak","type":"uint256"},{"internalType":"uint256","name":"totalClaimed","type":"uint256"},{"internalType":"uint256","name":"lastTaskResetDay","type":"uint256"},{"internalType":"uint256","name":"jackpotsWon","type":"uint256"},{"internalType":"bool","name":"isBetaTester","type":"bool"},{"internalType":"bool","name":"hasFollowedSocials","type":"bool"},{"internalType":"bool","name":"hasStreak7Achievement","type":"bool"},{"internalType":"bool","name":"hasStreak30Achievement","type":"bool"},{"internalType":"bool","name":"migrated","type":"bool"}],"stateMutability":"view","type":"function"},{"inputs":[],"name":"v1Contract","outputs":[{"internalType":"contract ISwipeDailyRewardsV1","name":"","type":"address"}],"stateMutability":"view","type":"function"}],"evm":{"bytecode":{"linkReferences":{},"object":"60c0346200027b57601f62003f3f38819003918201601f191683019291906001600160401b03841183851017620002805781606092849260409687528339810103126200027b57620000518162000296565b6200006c83620000646020850162000296565b930162000296565b690a968163f0a57b4000008060015569021e19e0c9bab2400000600255600a6003556934f086f3b33b6840000090816004556005805580600655690fe1c215e8f838e0000060075569152d02c7e14af680000090816008556009556969e10de76676d0800000600a55600b55600c5569d3c21bcecceda1000000600d556011549160018060a01b0380911693841562000237578116918215620001f35716928315620001af57600080546001600160a01b031916331790556080526001600160b81b0319909116176201000160a01b1760115560a05251613c939081620002ac8239608051818181610714015281816109b501528181610d5c015281816113df0152818161184f01528181611f31015281816128f60152613168015260a05181818161046b01528181610eac01528181610fa50152818161109301526121710152f35b845162461bcd60e51b815260206004820152601b60248201527f496e76616c696420563120636f6e7472616374206164647265737300000000006044820152606490fd5b855162461bcd60e51b815260206004820152601860248201527f496e76616c6964207665726966696572206164647265737300000000000000006044820152606490fd5b855162461bcd60e51b815260206004820152601560248201527f496e76616c696420746f6b656e206164647265737300000000000000000000006044820152606490fd5b600080fd5b634e487b7160e01b600052604160045260246000fd5b51906001600160a01b03821682036200027b5756fe608080604052600436101561001357600080fd5b60003560e01c9081630604ce27146134fc5750806309b5a33a146134bd5780630e141a9b14613497578063153b0d1e1461340757806316c38b3c146133925780631e23a7f0146133695780631f66351a146132bd5780632f44a61c1461329f57806335b944bf1461327957806335dbc94a146131d35780633f9bcde2146131b557806341c6138314613197578063492c70fb146131525780634d683674146131345780634e43603a14612fe9578063521c27f214612f9c578063565c99ac14612e48578063575c0f8314612da05780635951ac6514612cf85780635a9d93f11461271d5780635c975abb146126f7578063665988741461264b5780636fea4538146125a157806370ed4620146124f657806379b9c399146121005780637a994cd014611ea05780637bb0308514611e825780638372acf714611dda57806389934d3a146117065780638b311fbc1461163a5780638beaf1c5146115955780638da5cb5b1461156c5780638fb6c6f6146114c65780639cc8e7eb146114a8578063a079d40c1461139e578063a87430ba146112e6578063a90f8e9a146112ab578063b1eac37e1461128d578063b6c7288814611218578063ba9271ad14610dea578063bbb8518814610d30578063bdf0f1aa14610c61578063bff1f9e114610c43578063c710560914610c00578063cecfbead14610be2578063cf17beaf14610b2e578063db2e21bc14610972578063db3eef3f1461063c578063db74559b14610602578063df312b1e1461059e578063dfae07ff146104f4578063e7865e57146104d6578063e91c7d33146104b8578063e9aae6501461049a578063ed1ec0f414610455578063ed4c85a914610437578063edd6c84814610419578063efca2eed146103fb578063f09153c414610382578063f2fde38b146103025763f9f92be4146102be57600080fd5b346102fd5760203660031901126102fd576001600160a01b036102df613517565b166000526012602052602060ff604060002054166040519015158152f35b600080fd5b346102fd5760203660031901126102fd5761031b613517565b600054906001600160a01b03906103353383851614613705565b1690811561034d576001600160a01b03191617600055005b60405162461bcd60e51b815260206004820152600d60248201526c24b73b30b634b21037bbb732b960991b6044820152606490fd5b346102fd5760203660031901126102fd576001600160a01b036103a3613517565b16600052601360205260a0600660406000200154601660205260406000205460ff6040519281811615158452818160081c1615156020850152818160101c161515604085015260181c16151560608301526080820152f35b346102fd5760003660031901126102fd576020600e54604051908152f35b346102fd5760003660031901126102fd576020600854604051908152f35b346102fd5760003660031901126102fd576020600754604051908152f35b346102fd5760003660031901126102fd576040517f00000000000000000000000000000000000000000000000000000000000000006001600160a01b03168152602090f35b346102fd5760003660031901126102fd576020600154604051908152f35b346102fd5760003660031901126102fd576020600354604051908152f35b346102fd5760003660031901126102fd576020600c54604051908152f35b346102fd5760203660031901126102fd57600080516020613c3e83398151915260a060043561052d600180841b03600054163314613705565b683635c9adc5dea000008110158061058a575b61054990613bc0565b60025490806002556040519160608352601460608401527353545245414b5f424f4e55535f5045525f44415960601b608084015260208301526040820152a1005b50690a968163f0a57b400000811115610540565b346102fd5760203660031901126102fd576001600160a01b036105bf613517565b166000526014602052608060406000206001815491015460ff6040519281811615158452818160081c161515602085015260101c16151560408301526060820152f35b346102fd5760203660031901126102fd576001600160a01b03610623613517565b1660005260166020526020604060002054604051908152f35b346102fd5761069361068e6106503661359b565b61066960ff6011979495979693965460a81c1615613777565b336000526020946012865261068660ff60406000205416156137b8565b848733613a6f565b6138a7565b61069c33613a31565b336000526014825260406000206106b43683866138e7565b8051908401207f59f9c19ce4d2104b5074afdbd422a67ce762a07b67944dfc1ac72cebc1ef9fb3810361089d5750600181546106f360ff82161561392e565b60ff1916179055600654905b6040516370a0823160e01b81523060048201527f00000000000000000000000000000000000000000000000000000000000000006001600160a01b0316908481602481855afa801561086057849060009061086c575b6107619250101561381d565b3360005260138452600360406000200161077c8482546137fd565b905561078a83600e546137fd565b600e5560405163a9059cbb60e01b815233600482015260248101849052908490829060449082906000905af193841561086057600094610807575b50506107f17f10ddce2fe83f593b5a578fdeaea55181daa98b7e1e4652e712b2c821622fc30793613869565b61080260405192839233968461397a565b0390a2005b90809450813d8311610859575b61081e8183613643565b810103126102fd576107f16108537f10ddce2fe83f593b5a578fdeaea55181daa98b7e1e4652e712b2c821622fc30794613665565b936107c5565b503d610814565b6040513d6000823e3d90fd5b50508481813d8311610896575b6108838183613643565b810103126102fd57836107619151610755565b503d610879565b7f103f7b2dda1595da24c03f5970d4163272b9badb6161a376876bfea67102615c81036108eb575061010081546108da60ff8260081c161561392e565b61ff001916179055600754906106ff565b7f6c25e4722cb75723d0f45967423f4fefc1866b6db42936b2e4c9827f9d9f8ccd036109395762010000815461092760ff8260101c161561392e565b62ff00001916179055600854906106ff565b60405162461bcd60e51b8152600481018490526011602482015270496e76616c6964207461736b207479706560781b6044820152606490fd5b346102fd5760003660031901126102fd576000546001600160a01b0390811661099c338214613705565b6040516370a0823160e01b8152306004820152916020917f00000000000000000000000000000000000000000000000000000000000000008216908385602481855afa94851561086057600095610aff575b508415610acd5760405163a9059cbb60e01b81526001600160a01b03919091166004820152602481018590529291908290849060449082906000905af192831561086057600093610a73575b50610a657f5fafa99d0643513820be26656b45130b01e1c03062e1266bf36f88cbd3bd969593613869565b6000541692604051908152a2005b92508183813d8311610ac6575b610a8a8183613643565b810103126102fd57610a65610abf7f5fafa99d0643513820be26656b45130b01e1c03062e1266bf36f88cbd3bd969594613665565b9350610a3a565b503d610a80565b60405162461bcd60e51b815260048101859052600a6024820152694e6f2062616c616e636560b01b6044820152606490fd5b9094508381813d8311610b27575b610b178183613643565b810103126102fd575193856109ee565b503d610b0d565b346102fd5760203660031901126102fd57600080516020613c3e83398151915260a0600435610b67600180841b03600054163314613705565b69021e19e0c9bab240000081101580610bce575b610b8490613bc0565b60075490806007556040519160608352601860608401527f4352454154455f50524544494354494f4e5f5245574152440000000000000000608084015260208301526040820152a1005b50692a5a058fc295ed000000811115610b7b565b346102fd5760003660031901126102fd576020600a54604051908152f35b346102fd5760203660031901126102fd576080610c23610c1e613517565b6139e7565b916040519315158452151560208401521515604083015215156060820152f35b346102fd5760003660031901126102fd576020600f54604051908152f35b346102fd5760203660031901126102fd57600435610c8a60018060a01b03600054163314613705565b600181101580610d25575b15610ce75760a0600080516020613c3e8339815191529160055490806005556040519160608352600e60608401526d4a41434b504f545f4348414e434560901b608084015260208301526040820152a1005b60405162461bcd60e51b8152602060048201526016602482015275496e76616c6964206368616e63652028312d3230252960501b6044820152606490fd5b506014811115610c95565b346102fd5760003660031901126102fd576040516370a0823160e01b81523060048201526020816024817f00000000000000000000000000000000000000000000000000000000000000006001600160a01b03165afa801561086057600090610db8575b608090600e54600f5460105491604051938452602084015260408301526060820152f35b506020813d8211610de2575b81610dd160209383613643565b810103126102fd5760809051610d94565b3d9150610dc4565b346102fd5760203660031901126102fd5760043567ffffffffffffffff81116102fd57610e1b90369060040161353c565b90610e3160018060a01b03600054163314613705565b610e4260ff60115460b01c166135e6565b60005b828110610e4e57005b6001600160a01b03610e69610e6483868661373d565b613763565b169081600052601360205260ff60066040600020015460201c168015611204575b6111fa5760405163543a185d60e11b81526004810183905291610140836024817f00000000000000000000000000000000000000000000000000000000000000006001600160a01b03165afa80156108605760009060009060009560009360008060009660009a6000956000976111b0575b50841561119c5760008a815260136020908152604091829020968755600187018a90556002870192909255600386019290925560048086019390935560058501939093556006909301805464010000000064ffffffffff1990911689151560ff161761ff008d151560081b161762ff000087151560101b161763ff00000088151560181b16171790559151635487c74d60e11b8152918201879052816024816001600160a01b037f0000000000000000000000000000000000000000000000000000000000000000165afa9081156108605760009161116d575b506001600160a01b031680611056575b5090600080516020613c1e83398151915293929161103997600f61100a81546136f6565b9055841561104e575b508315611046575b50821561103e575b50604080519182529115156020820152a26136f6565b610e45565b915088611023565b92508961101b565b93508a611013565b60008681526015602090815260409182902080546001600160a01b031916909317909255516304dad19d60e11b81526004810187905290816024817f00000000000000000000000000000000000000000000000000000000000000006001600160a01b03165afa90811561086057600091611112575b509061103997611107600080516020613c1e8339815191529695949388600052601760205260406000209060ff801983541691151516179055565b975090919293610fe6565b9493929190506020853d602011611165575b8161113160209383613643565b810103126102fd5761103997611107611158600080516020613c1e83398151915297613665565b92939495965050976110cc565b3d9150611124565b61118f915060203d602011611195575b6111878183613643565b8101906136d7565b8a610fd6565b503d61117d565b5050505050505050505061103991506136f6565b985050505050505050506111df9193506101403d610140116111f3575b6111d78183613643565b810190613672565b919a9892979691959094929392918e610efc565b503d6111cd565b61103991506136f6565b50601260205260ff60406000205416610e8a565b346102fd5760203660031901126102fd577f5357603b66ce52ad2bde073bf1baae8a126a96ae712f396257fa4b57169c36ab602061125461352d565b61126960018060a01b03600054163314613705565b151560115460ff60a01b8260a01b169060ff60a01b191617601155604051908152a1005b346102fd5760003660031901126102fd576020600454604051908152f35b346102fd5760203660031901126102fd5760206001600160a01b03806112cf613517565b166000526015825260406000205416604051908152f35b346102fd5760203660031901126102fd576001600160a01b03611307613517565b166000526013602052610160604060002060ff815491600181015490600281015460038201546004830154916006600585015494015494604051978852602088015260408701526060860152608085015260a0840152818116151560c0840152818160081c16151560e0840152818160101c161515610100840152818160181c16151561012084015260201c161515610140820152f35b346102fd576020806003193601126102fd576040516323b872dd60e01b815233600482810191909152306024830152356044820181905291808260648160007f00000000000000000000000000000000000000000000000000000000000000006001600160a01b03165af19182156108605760009261144e575b506114437fb9ea67a19ab6bc678d42c223c0b3c9b7947918f351c3377a0e07e1b7332444c792613869565b6040519283523392a2005b91508082813d83116114a1575b6114658183613643565b810103126102fd5761144361149a7fb9ea67a19ab6bc678d42c223c0b3c9b7947918f351c3377a0e07e1b7332444c793613665565b9250611418565b503d61145b565b346102fd5760003660031901126102fd576020600654604051908152f35b346102fd5760203660031901126102fd57600080516020613c3e83398151915260a06004356114ff600180841b03600054163314613705565b69021e19e0c9bab240000081101580611558575b61151c90613bc0565b60095490806009556040519160608352600f60608401526e149151915494905317d49155d05491608a1b608084015260208301526040820152a1005b5069152d02c7e14af6800000811115611513565b346102fd5760003660031901126102fd576000546040516001600160a01b039091168152602090f35b346102fd5760203660031901126102fd57600080516020613c3e83398151915260a06004356115ce600180841b03600054163314613705565b690a968163f0a57b40000081101580611626575b6115eb90613bc0565b60045490806004556040519160608352600e60608401526d129050d2d413d517d05353d5539560921b608084015260208301526040820152a1005b5069d3c21bcecceda10000008111156115e2565b346102fd5760203660031901126102fd5760043561166360018060a01b03600054163314613705565b6005811015806116fb575b156116c75760a0600080516020613c3e833981519152916003549080600355604051916060835260156060840152744d41585f53545245414b5f424f4e55535f4441595360581b608084015260208301526040820152a1005b60405162461bcd60e51b815260206004820152600c60248201526b496e76616c6964206461797360a01b6044820152606490fd5b50601e81111561166e565b346102fd5760003660031901126102fd5760ff60115461172b828260a81c1615613777565b60a01c1615611d9e573360005260206012815261175060ff60406000205416156137b8565b336000526013815260406000208054620151808101808211611d38574210611d615715611d4e575b80548015159081611d20575b5015611d15576001810161179881546136f6565b90555b6001810191825492836002840180548211611d0d575b50506117d36001549460035490818111600014611d0657505b6002549061380a565b6117dd81866137fd565b91600e94855460405190868201904282524460408401523360601b606084015260748301524360948301526094825260c082019180831067ffffffffffffffff841117611cf05760649260405251902006600554119586611ccc575b6040516370a0823160e01b8082523060048301527f00000000000000000000000000000000000000000000000000000000000000006001600160a01b0316939091908882602481885afa8015610860578892600091611c98575b506003926118a291101561381d565b428155016118b18782546137fd565b90556118be8683546137fd565b82556118cb6010546136f6565b6010556118d733613a31565b33600052601387526040600020916001830160078154101580611c86575b611b30575b601e9054101580611b1e575b6119c7575b505060405163a9059cbb60e01b81523360048201526024810186905291869150829060449082906000905af1801561086057600090611991575b61194f9150613869565b54926040519586528501526040840152606083015260808201527f0b3cf2cd3b2ce31e0ff7cbb3f2562d51047e60d290a130fefc85fb019ee6fcc060a03392a2005b508481813d83116119c0575b6119a78183613643565b810103126102fd576119bb61194f91613665565b611945565b503d61199d565b60068301805463ff000000191663010000001790556040519182523060048301528782602481875afa8015610860578892600091611aef575b50600d5480911015611a13575b5061190b565b611a256003611a5f95019182546137fd565b9055600d5490611a368282546137fd565b905560405163a9059cbb60e01b8152336004820152602481019190915291829081906044820190565b03816000865af1801561086057611abb575b50600d546040519060408252600d60408301526c33305f4441595f53545245414b60981b606083015286820152600080516020613bfe83398151915260803392a287858180611a0d565b8581813d8311611ae8575b611ad08183613643565b810103126102fd57611ae190613665565b5087611a71565b503d611ac6565b83819492503d8311611b17575b611b068183613643565b810103126102fd578791518b611a00565b503d611afc565b5060ff600684015460181c1615611906565b60068401805462ff0000191662010000179055604051838152306004820152908982602481895afa91821561086057600092611c57575b50600c5480921015611b7b575b90506118fa565b611bc891611b8e600387019182546137fd565b905589600c54611b9f8186546137fd565b855560405163a9059cbb60e01b8152336004820152602481019190915292839081906044820190565b038160008a5af1801561086057611c22575b601e9150600c546040519060408252600c60408301526b375f4441595f53545245414b60a01b60608301528b820152600080516020613bfe83398151915260803392a2611b74565b8982813d8311611c50575b611c378183613643565b810103126102fd57611c4a601e92613665565b50611bda565b503d611c2d565b9091508981813d8311611c7f575b611c6f8183613643565b810103126102fd5751908c611b67565b503d611c65565b5060ff600685015460101c16156118f5565b8093508a8092503d8311611cc5575b611cb18183613643565b810103126102fd5790518791906003611893565b503d611ca7565b93611cda90600454906137fd565b9360058201611ce981546136f6565b9055611839565b634e487b7160e01b600052604160045260246000fd5b90506117ca565b5583856117b1565b60018082015561179b565b90506202a3008101809111611d385742111583611784565b634e487b7160e01b600052601160045260246000fd5b611d59600f546136f6565b600f55611778565b60405162461bcd60e51b8152600481018490526015602482015274416c726561647920636c61696d656420746f64617960581b6044820152606490fd5b60405162461bcd60e51b815260206004820152601460248201527310db185a5b5a5b99c81a5cc8191a5cd8589b195960621b6044820152606490fd5b346102fd5760203660031901126102fd57600080516020613c3e83398151915260a0600435611e13600180841b03600054163314613705565b69021e19e0c9bab240000081101580611e6e575b611e3090613bc0565b60065490806006556040519160608352601160608401527014d210549157d0d054d517d49155d05491607a1b608084015260208301526040820152a1005b50692a5a058fc295ed000000811115611e27565b346102fd5760003660031901126102fd576020600b54604051908152f35b346102fd57611eb461068e6106503661359b565b3360005260138252604060002090611ecd3682866138e7565b8051908401207fb54e063503447bce6485adab005b8755b54ded950878440b84f8e79a1196702e810361206b57506006820160018154611f1060ff8216156139a9565b60ff1916179055600a54915b6040516370a0823160e01b81523060048201527f00000000000000000000000000000000000000000000000000000000000000006001600160a01b0316918582602481865afa8015610860578592600091612037575b50600392611f8191101561381d565b01611f8d8482546137fd565b9055611f9b83600e546137fd565b600e5560405163a9059cbb60e01b815233600482015260248101849052908490829060449082906000905af193841561086057600094611ff0575b50506107f1600080516020613bfe83398151915293613869565b90809450813d8311612030575b6120078183613643565b810103126102fd576107f161202a600080516020613bfe83398151915294613665565b93611fd6565b503d611ffd565b809350878092503d8311612064575b6120508183613643565b810103126102fd5790518491906003611f72565b503d612046565b7f126235d9d2e6036d7fac7e99f1dcd31ada7ff126658a7dd43824f3e4f265d039036120bb576006820161010081546120aa60ff8260081c16156139a9565b61ff001916179055600b5491611f1c565b60405162461bcd60e51b815260048101849052601860248201527f496e76616c696420616368696576656d656e74207479706500000000000000006044820152606490fd5b346102fd5760003660031901126102fd5761212260ff60115460b01c166135e6565b3360005260206013815260ff600660406000200154821c166124bf57336000526012815260ff604060002054166124705760405163543a185d60e11b81523360048201526001600160a01b03917f0000000000000000000000000000000000000000000000000000000000000000831691610140908181602481875afa9283156108605760009460009660009660008060009160009a60009860009a60009c612432575b505084156123f65733600081815260138a52604090819020968755600187018f90556002870192909255600386019290925560048086019390935560058501939093556006909301805464010000000064ffffffffff199091168c151560ff161761ff008a151560081b161762ff00008b151560101b161763ff0000008c151560181b16171790559051635487c74d60e11b8152908101919091528381602481865afa908115610860576000916123d9575b5016806122f0575b50505091600080516020613c1e8339815191529391610802936122a4600f546136f6565b600f5583156122e8575b5082156122e0575b5081156122d8575b506040805194855290151560208501523393918291820190565b9050846122be565b9150856122b6565b9250866122ae565b91809160249333600052601583526040600020906001600160601b0360a01b825416179055604051938480926304dad19d60e11b82523360048301525afa91821561086057600092612380575b5091612376600080516020613c1e83398151915296949260176108029795336000525260406000209060ff801983541691151516179055565b9193819395612280565b9593915093918486813d83116123d2575b61239b8183613643565b810103126102fd576123766108029560176123c4600080516020613c1e83398151915299613665565b94969850509193955061233d565b503d612391565b6123f09150843d8611611195576111878183613643565b89612278565b60405162461bcd60e51b815260048101899052601460248201527355736572206e6f7420666f756e6420696e20563160601b6044820152606490fd5b989d5098505050505050945094506124569250803d106111f3576111d78183613643565b979b929a9799909891979296929590949193928d806121c6565b6084906040519062461bcd60e51b82526004820152602260248201527f43616e6e6f74206d69677261746520626c61636b6c6973746564206164647265604482015261737360f01b6064820152fd5b6064906040519062461bcd60e51b82526004820152601060248201526f105b1c9958591e481b5a59dc985d195960821b6044820152fd5b346102fd5760203660031901126102fd5761250f613517565b6000546001600160a01b0391906125299083163314613705565b16801561256957601180546001600160a01b031916821790557fe5b9ec72fc7e34a9021e01e954c7e54ceb50c6b1798084716afe188ffa5e13cb600080a2005b60405162461bcd60e51b815260206004820152601060248201526f24b73b30b634b2103b32b934b334b2b960811b6044820152606490fd5b346102fd5760203660031901126102fd57600080516020613c3e83398151915260a06004356125da600180841b03600054163314613705565b69152d02c7e14af680000081101580612636575b6125f790613bc0565b600a549080600a55604051916060835260126060840152711091551057d51154d5115497d49155d0549160721b608084015260208301526040820152a1005b506a01a784379d99db420000008111156125ee565b346102fd5760203660031901126102fd57600080516020613c3e83398151915260a0600435612684600180841b03600054163314613705565b69021e19e0c9bab2400000811015806126e3575b6126a190613bc0565b600b549080600b55604051916060835260156060840152741193d31313d5d7d4d3d0d2505314d7d49155d05491605a1b608084015260208301526040820152a1005b506969e10de76676d0800000811115612698565b346102fd5760003660031901126102fd57602060ff60115460a81c166040519015158152f35b346102fd5760403660031901126102fd57612736613517565b67ffffffffffffffff602480358281116102fd5761275890369060040161356d565b939060115461276d60ff8260a81c1615613777565b336000526020956012875261278a60ff60406000205416156137b8565b60018060a01b03928385169687600052601289526127b060ff60406000205416156137b8565b336000526017895260ff60406000205416612cbc57338814612c80578715612c4957876000526013895260406000205415612c0557604051908982013360601b81526001600160601b03198860601b16603484015267149151915494905360c21b6048840152620151804204605084015260508352608083019183831090831117612bf0579261288992828896939587966040528251902060bc60a08401937f19457468657265756d205369676e6564204d6573736167653a0a33320000000085520152603c815261288181613627565b519020613b0c565b9216911603612bac5733600052601785526040600020600160ff19825416179055601585526040600020846001600160601b0360a01b825416179055836000526016855260406000206128dc81546136f6565b90556009548060011b9181830460021482151715612b97577f00000000000000000000000000000000000000000000000000000000000000001691604051906370a0823160e01b825230600483015287828781875afa801561086057600090612b68575b61294c9250101561381d565b846000526013865261296760036040600020019182546137fd565b90556129b18560095461297c81600e546137fd565b600e5560405163a9059cbb60e01b8082526001600160a01b039096166004820152602481019190915291829081906044820190565b03816000865af190811561086057600091612b33575b5015612aef57612a2d91859160095433600052601384526129f160036040600020019182546137fd565b905560095491612a0383600e546137fd565b600e5560405190815233600482015260248101929092529092839190829060009082906044820190565b03925af190811561086057600091612aba575b5015612a7757507f90eab5d1df713df401d810f26aa9718d2b9e6894af1eb4890a332d3b185dc0e5600954926040519384523393a3005b82601b6064926040519262461bcd60e51b845260048401528201527f5472616e7366657220746f207265666572726564206661696c656400000000006044820152fd5b90508381813d8311612ae8575b612ad18183613643565b810103126102fd57612ae290613665565b84612a40565b503d612ac7565b60405162461bcd60e51b815260048101869052601b818501527f5472616e7366657220746f207265666572726572206661696c656400000000006044820152606490fd5b90508581813d8311612b61575b612b4a8183613643565b810103126102fd57612b5b90613665565b866129c7565b503d612b40565b508782813d8311612b90575b612b7e8183613643565b810103126102fd5761294c9151612940565b503d612b74565b84634e487b7160e01b60005260116004526000fd5b60405162461bcd60e51b815260048101869052601a818501527f496e76616c696420726566657272616c207369676e61747572650000000000006044820152606490fd5b88634e487b7160e01b60005260416004526000fd5b60405162461bcd60e51b8152600481018a9052601c818901527f5265666572726572206d757374206265206163746976652075736572000000006044820152606490fd5b60405162461bcd60e51b8152600481018a90526010818901526f24b73b30b634b2103932b332b93932b960811b6044820152606490fd5b60405162461bcd60e51b8152600481018a90526015818901527421b0b73737ba103932b332b9103cb7bab939b2b63360591b6044820152606490fd5b60405162461bcd60e51b8152600481018a905260158189015274105b1c9958591e481d5cd959081c9959995c9c985b605a1b6044820152606490fd5b346102fd5760203660031901126102fd57600080516020613c3e83398151915260a0600435612d31600180841b03600054163314613705565b69152d02c7e14af680000081101580612d8b575b612d4e90613bc0565b600d549080600d556040519160608352601060608401526f14d514915052d7cccc17d49155d0549160821b608084015260208301526040820152a1005b506a0422ca8b0a00a425000000811115612d45565b346102fd5760203660031901126102fd57600080516020613c3e83398151915260a0600435612dd9600180841b03600054163314613705565b69021e19e0c9bab240000081101580612e34575b612df690613bc0565b600154908060015560405191606083526011606084015270109054d157d11052531657d49155d05491607a1b608084015260208301526040820152a1005b50692a5a058fc295ed000000811115612ded565b346102fd5760403660031901126102fd5767ffffffffffffffff6004358181116102fd57612e7a90369060040161353c565b916024359081116102fd57612e9390369060040161353c565b6000546001600160a01b039390612ead9085163314613705565b818503612f5f5760005b858110612ec057005b80612ed7612ed2612f5a93868861373d565b613bb3565b86612ee6610e64848b8861373d565b16600052612f0a6020916012835260406000209060ff801983541691151516179055565b7f6a12b3df6cba4203bd7fd06b816789f87de8c594299aed5717ae070fac781bac612f39610e64848b8861373d565b9188612f49612ed2868a8c61373d565b9360405194151585521692a26136f6565b612eb7565b60405162461bcd60e51b8152602060048201526015602482015274082e4e4c2f240d8cadccee8d040dad2e6dac2e8c6d605b1b6044820152606490fd5b346102fd5760203660031901126102fd57612fb561352d565b612fca60018060a01b03600054163314613705565b6011805460ff60b01b191691151560b01b60ff60b01b16919091179055005b346102fd5760203660031901126102fd57613002613517565b60018060a01b0316600052601360205260406000208054600182015491600281015492600382015460ff6006600585015494015460201c16928415908115928361311c575b8215613109576000935b83156130fb57806130e5575b156130d7576001850197888611611d385761309a610120995b60035490818111156130d057505b613094600154916002549061380a565b906137fd565b956040519889526020890152604088015260608701526080860152151560a085015260c084015260e08301521515610100820152f35b9050613084565b6101209761309a6001613076565b506202a3008701808811611d385742111561305d565b506101209761309a86613076565b620151808701808811611d385793613051565b9150620151808601808711611d385742101591613047565b346102fd5760003660031901126102fd576020600954604051908152f35b346102fd5760003660031901126102fd576040517f00000000000000000000000000000000000000000000000000000000000000006001600160a01b03168152602090f35b346102fd5760003660031901126102fd576020601054604051908152f35b346102fd5760003660031901126102fd576020600d54604051908152f35b346102fd5760203660031901126102fd57600080516020613c3e83398151915260a060043561320c600180841b03600054163314613705565b690a968163f0a57b40000081101580613265575b61322990613bc0565b600c549080600c556040519160608352600f60608401526e14d514915052d7cdd7d49155d05491608a1b608084015260208301526040820152a1005b5069d3c21bcecceda1000000811115613220565b346102fd5760003660031901126102fd57602060ff60115460b01c166040519015158152f35b346102fd5760003660031901126102fd576020600254604051908152f35b346102fd5760203660031901126102fd57600080516020613c3e83398151915260a06004356132f6600180841b03600054163314613705565b69021e19e0c9bab240000081101580613355575b61331390613bc0565b60085490806008556040519160608352601560608401527415149051125391d7d593d315535157d49155d05491605a1b608084015260208301526040820152a1005b50692a5a058fc295ed00000081111561330a565b346102fd5760003660031901126102fd576011546040516001600160a01b039091168152602090f35b346102fd5760203660031901126102fd577f0e2fb031ee032dc02d8011dc50b816eb450cf856abd8261680dac74f72165bd260206133ce61352d565b6133e360018060a01b03600054163314613705565b151560115460ff60a81b8260a81b169060ff60a81b191617601155604051908152a1005b346102fd5760403660031901126102fd57613420613517565b60243590811515908183036102fd577f6a12b3df6cba4203bd7fd06b816789f87de8c594299aed5717ae070fac781bac9161348e60209260018060a01b039061346e82600054163314613705565b1694856000526012845260406000209060ff801983541691151516179055565b604051908152a2005b346102fd5760003660031901126102fd57602060ff60115460a01c166040519015158152f35b346102fd5760203660031901126102fd576001600160a01b036134de613517565b166000526017602052602060ff604060002054166040519015158152f35b346102fd5760003660031901126102fd576020906005548152f35b600435906001600160a01b03821682036102fd57565b6004359081151582036102fd57565b9181601f840112156102fd5782359167ffffffffffffffff83116102fd576020808501948460051b0101116102fd57565b9181601f840112156102fd5782359167ffffffffffffffff83116102fd57602083818601950101116102fd57565b60406003198201126102fd5767ffffffffffffffff916004358381116102fd57826135c89160040161356d565b939093926024359182116102fd576135e29160040161356d565b9091565b156135ed57565b60405162461bcd60e51b8152602060048201526012602482015271135a59dc985d1a5bdb88191a5cd8589b195960721b6044820152606490fd5b6060810190811067ffffffffffffffff821117611cf057604052565b90601f8019910116810190811067ffffffffffffffff821117611cf057604052565b519081151582036102fd57565b9190826101409103126102fd5781519160208101519160408201519160608101519160808201519160a0810151916136ac60c08301613665565b916136b960e08201613665565b916136d46101206136cd6101008501613665565b9301613665565b90565b908160209103126102fd57516001600160a01b03811681036102fd5790565b6000198114611d385760010190565b1561370c57565b60405162461bcd60e51b81526020600482015260096024820152682737ba1037bbb732b960b91b6044820152606490fd5b919081101561374d5760051b0190565b634e487b7160e01b600052603260045260246000fd5b356001600160a01b03811681036102fd5790565b1561377e57565b60405162461bcd60e51b815260206004820152601260248201527110dbdb9d1c9858dd081a5cc81c185d5cd95960721b6044820152606490fd5b156137bf57565b60405162461bcd60e51b81526020600482015260166024820152751059191c995cdcc81a5cc8189b1858dadb1a5cdd195960521b6044820152606490fd5b91908201809211611d3857565b81810292918115918404141715611d3857565b1561382457565b60405162461bcd60e51b815260206004820152601960248201527f496e73756666696369656e7420706f6f6c2062616c616e6365000000000000006044820152606490fd5b1561387057565b60405162461bcd60e51b815260206004820152600f60248201526e151c985b9cd9995c8819985a5b1959608a1b6044820152606490fd5b156138ae57565b60405162461bcd60e51b8152602060048201526011602482015270496e76616c6964207369676e617475726560781b6044820152606490fd5b92919267ffffffffffffffff8211611cf05760405191613911601f8201601f191660200184613643565b8294818452818301116102fd578281602093846000960137010152565b1561393557565b60405162461bcd60e51b815260206004820152601c60248201527f5461736b20616c726561647920636f6d706c6574656420746f646179000000006044820152606490fd5b9392918060609160209360408852816040890152838801376000828288010152601f8019910116850101930152565b156139b057565b60405162461bcd60e51b815260206004820152600f60248201526e105b1c9958591e4818db185a5b5959608a1b6044820152606490fd5b6001600160a01b0316600090815260146020526040812060018101546201518042049003613a2757549060ff82169260ff808460081c169360101c169190565b5080918190600190565b6001600160a01b031660009081526014602052604090206001810180546201518042049290839003613a6257505050565b805462ffffff1916905555565b9091613ab86054613af89695948360405194859260208401976001600160601b03199060601b168852603484013781016201518042046034820152036034810184520182613643565b51902060405160208101917f19457468657265756d205369676e6564204d6573736167653a0a3332000000008352603c820152603c815261288181613627565b6011546001600160a01b0391821691161490565b91604103613b6e57604081013560001a601b8110613b5c575b6020928360009360ff6080946040519485521682840152803560408401520135606082015282805260015afa156108605760005190565b601b019060ff8211611d385790613b25565b60405162461bcd60e51b815260206004820152601860248201527f496e76616c6964207369676e6174757265206c656e67746800000000000000006044820152606490fd5b3580151581036102fd5790565b15613bc757565b60405162461bcd60e51b815260206004820152600e60248201526d125b9d985b1a5908185b5bdd5b9d60921b6044820152606490fdfe67a8d47c6ecf3a491ea8a4f20a58352394879c573c678ec5b9abceae075d4dcafa033830c485f08f608e3c319d9b8fae0af1abda74131f96e0bcd8aed54772dde6d2ae151935a76dc9b9533838544ae8137ad6337ffd21a54e415ab781611f60a26469706673582212203054709a5595f8da02b2312729f94e700efe550ff68a6d9f754ab94543d7387e64736f6c63430008130033","opcodes":"PUSH1 0xC0 CALLVALUE PUSH3 0x27B JUMPI PUSH1 0x1F PUSH3 0x3F3F CODESIZE DUP2 SWAP1 SUB SWAP2 DUP3 ADD PUSH1 0x1F NOT AND DUP4 ADD SWAP3 SWAP2 SWAP1 PUSH1 0x1 PUSH1 0x1 PUSH1 0x40 SHL SUB DUP5 GT DUP4 DUP6 LT OR PUSH3 0x280 JUMPI DUP2 PUSH1 0x60 SWAP3 DUP5 SWAP3 PUSH1 0x40 SWAP7 DUP8 MSTORE DUP4 CODECOPY DUP2 ADD SUB SLT PUSH3 0x27B JUMPI PUSH3 0x51 DUP2 PUSH3 0x296 JUMP JUMPDEST PUSH3 0x6C DUP4 PUSH3 0x64 PUSH1 0x20 DUP6 ADD PUSH3 0x296 JUMP JUMPDEST SWAP4 ADD PUSH3 0x296 JUMP JUMPDEST PUSH10 0xA968163F0A57B400000 DUP1 PUSH1 0x1 SSTORE PUSH10 0x21E19E0C9BAB2400000 PUSH1 0x2 SSTORE PUSH1 0xA PUSH1 0x3 SSTORE PUSH10 0x34F086F3B33B68400000 SWAP1 DUP2 PUSH1 0x4 SSTORE PUSH1 0x5 DUP1 SSTORE DUP1 PUSH1 0x6 SSTORE PUSH10 0xFE1C215E8F838E00000 PUSH1 0x7 SSTORE PUSH10 0x152D02C7E14AF6800000 SWAP1 DUP2 PUSH1 0x8 SSTORE PUSH1 0x9 SSTORE PUSH10 0x69E10DE76676D0800000 PUSH1 0xA SSTORE PUSH1 0xB SSTORE PUSH1 0xC SSTORE PUSH10 0xD3C21BCECCEDA1000000 PUSH1 0xD SSTORE PUSH1 0x11 SLOAD SWAP2 PUSH1 0x1 DUP1 PUSH1 0xA0 SHL SUB DUP1 SWAP2 AND SWAP4 DUP5 ISZERO PUSH3 0x237 JUMPI DUP2 AND SWAP2 DUP3 ISZERO PUSH3 0x1F3 JUMPI AND SWAP3 DUP4 ISZERO PUSH3 0x1AF JUMPI PUSH1 0x0 DUP1 SLOAD PUSH1 0x1 PUSH1 0x1 PUSH1 0xA0 SHL SUB NOT AND CALLER OR SWAP1 SSTORE PUSH1 0x80 MSTORE PUSH1 0x1 PUSH1 0x1 PUSH1 0xB8 SHL SUB NOT SWAP1 SWAP2 AND OR PUSH3 0x10001 PUSH1 0xA0 SHL OR PUSH1 0x11 SSTORE PUSH1 0xA0 MSTORE MLOAD PUSH2 0x3C93 SWAP1 DUP2 PUSH3 0x2AC DUP3 CODECOPY PUSH1 0x80 MLOAD DUP2 DUP2 DUP2 PUSH2 0x714 ADD MSTORE DUP2 DUP2 PUSH2 0x9B5 ADD MSTORE DUP2 DUP2 PUSH2 0xD5C ADD MSTORE DUP2 DUP2 PUSH2 0x13DF ADD MSTORE DUP2 DUP2 PUSH2 0x184F ADD MSTORE DUP2 DUP2 PUSH2 0x1F31 ADD MSTORE DUP2 DUP2 PUSH2 0x28F6 ADD MSTORE PUSH2 0x3168 ADD MSTORE PUSH1 0xA0 MLOAD DUP2 DUP2 DUP2 PUSH2 0x46B ADD MSTORE DUP2 DUP2 PUSH2 0xEAC ADD MSTORE DUP2 DUP2 PUSH2 0xFA5 ADD MSTORE DUP2 DUP2 PUSH2 0x1093 ADD MSTORE PUSH2 0x2171 ADD MSTORE RETURN JUMPDEST DUP5 MLOAD PUSH3 0x461BCD PUSH1 0xE5 SHL DUP2 MSTORE PUSH1 0x20 PUSH1 0x4 DUP3 ADD MSTORE PUSH1 0x1B PUSH1 0x24 DUP3 ADD MSTORE PUSH32 0x496E76616C696420563120636F6E747261637420616464726573730000000000 PUSH1 0x44 DUP3 ADD MSTORE PUSH1 0x64 SWAP1 REVERT JUMPDEST DUP6 MLOAD PUSH3 0x461BCD PUSH1 0xE5 SHL DUP2 MSTORE PUSH1 0x20 PUSH1 0x4 DUP3 ADD MSTORE PUSH1 0x18 PUSH1 0x24 DUP3 ADD MSTORE PUSH32 0x496E76616C696420766572696669657220616464726573730000000000000000 PUSH1 0x44 DUP3 ADD MSTORE PUSH1 0x64 SWAP1 REVERT JUMPDEST DUP6 MLOAD PUSH3 0x461BCD PUSH1 0xE5 SHL DUP2 MSTORE PUSH1 0x20 PUSH1 0x4 DUP3 ADD MSTORE PUSH1 0x15 PUSH1 0x24 DUP3 ADD MSTORE PUSH32 0x496E76616C696420746F6B656E20616464726573730000000000000000000000 PUSH1 0x44 DUP3 ADD MSTORE PUSH1 0x64 SWAP1 REVERT JUMPDEST PUSH1 0x0 DUP1 REVERT JUMPDEST PUSH4 0x4E487B71 PUSH1 0xE0 SHL PUSH1 0x0 MSTORE PUSH1 0x41 PUSH1 0x4 MSTORE PUSH1 0x24 PUSH1 0x0 REVERT JUMPDEST MLOAD SWAP1 PUSH1 0x1 PUSH1 0x1 PUSH1 0xA0 SHL SUB DUP3 AND DUP3 SUB PUSH3 0x27B JUMPI JUMP INVALID PUSH1 0x80 DUP1 PUSH1 0x40 MSTORE PUSH1 0x4 CALLDATASIZE LT ISZERO PUSH2 0x13 JUMPI PUSH1 0x0 DUP1 REVERT JUMPDEST PUSH1 0x0 CALLDATALOAD PUSH1 0xE0 SHR SWAP1 DUP2 PUSH4 0x604CE27 EQ PUSH2 0x34FC JUMPI POP DUP1 PUSH4 0x9B5A33A EQ PUSH2 0x34BD JUMPI DUP1 PUSH4 0xE141A9B EQ PUSH2 0x3497 JUMPI DUP1 PUSH4 0x153B0D1E EQ PUSH2 0x3407 JUMPI DUP1 PUSH4 0x16C38B3C EQ PUSH2 0x3392 JUMPI DUP1 PUSH4 0x1E23A7F0 EQ PUSH2 0x3369 JUMPI DUP1 PUSH4 0x1F66351A EQ PUSH2 0x32BD JUMPI DUP1 PUSH4 0x2F44A61C EQ PUSH2 0x329F JUMPI DUP1 PUSH4 0x35B944BF EQ PUSH2 0x3279 JUMPI DUP1 PUSH4 0x35DBC94A EQ PUSH2 0x31D3 JUMPI DUP1 PUSH4 0x3F9BCDE2 EQ PUSH2 0x31B5 JUMPI DUP1 PUSH4 0x41C61383 EQ PUSH2 0x3197 JUMPI DUP1 PUSH4 0x492C70FB EQ PUSH2 0x3152 JUMPI DUP1 PUSH4 0x4D683674 EQ PUSH2 0x3134 JUMPI DUP1 PUSH4 0x4E43603A EQ PUSH2 0x2FE9 JUMPI DUP1 PUSH4 0x521C27F2 EQ PUSH2 0x2F9C JUMPI DUP1 PUSH4 0x565C99AC EQ PUSH2 0x2E48 JUMPI DUP1 PUSH4 0x575C0F83 EQ PUSH2 0x2DA0 JUMPI DUP1 PUSH4 0x5951AC65 EQ PUSH2 0x2CF8 JUMPI DUP1 PUSH4 0x5A9D93F1 EQ PUSH2 0x271D JUMPI DUP1 PUSH4 0x5C975ABB EQ PUSH2 0x26F7 JUMPI DUP1 PUSH4 0x66598874 EQ PUSH2 0x264B JUMPI DUP1 PUSH4 0x6FEA4538 EQ PUSH2 0x25A1 JUMPI DUP1 PUSH4 0x70ED4620 EQ PUSH2 0x24F6 JUMPI DUP1 PUSH4 0x79B9C399 EQ PUSH2 0x2100 JUMPI DUP1 PUSH4 0x7A994CD0 EQ PUSH2 0x1EA0 JUMPI DUP1 PUSH4 0x7BB03085 EQ PUSH2 0x1E82 JUMPI DUP1 PUSH4 0x8372ACF7 EQ PUSH2 0x1DDA JUMPI DUP1 PUSH4 0x89934D3A EQ PUSH2 0x1706 JUMPI DUP1 PUSH4 0x8B311FBC EQ PUSH2 0x163A JUMPI DUP1 PUSH4 0x8BEAF1C5 EQ PUSH2 0x1595 JUMPI DUP1 PUSH4 0x8DA5CB5B EQ PUSH2 0x156C JUMPI DUP1 PUSH4 0x8FB6C6F6 EQ PUSH2 0x14C6 JUMPI DUP1 PUSH4 0x9CC8E7EB EQ PUSH2 0x14A8 JUMPI DUP1 PUSH4 0xA079D40C EQ PUSH2 0x139E JUMPI DUP1 PUSH4 0xA87430BA EQ PUSH2 0x12E6 JUMPI DUP1 PUSH4 0xA90F8E9A EQ PUSH2 0x12AB JUMPI DUP1 PUSH4 0xB1EAC37E EQ PUSH2 0x128D JUMPI DUP1 PUSH4 0xB6C72888 EQ PUSH2 0x1218 JUMPI DUP1 PUSH4 0xBA9271AD EQ PUSH2 0xDEA JUMPI DUP1 PUSH4 0xBBB85188 EQ PUSH2 0xD30 JUMPI DUP1 PUSH4 0xBDF0F1AA EQ PUSH2 0xC61 JUMPI DUP1 PUSH4 0xBFF1F9E1 EQ PUSH2 0xC43 JUMPI DUP1 PUSH4 0xC7105609 EQ PUSH2 0xC00 JUMPI DUP1 PUSH4 0xCECFBEAD EQ PUSH2 0xBE2 JUMPI DUP1 PUSH4 0xCF17BEAF EQ PUSH2 0xB2E JUMPI DUP1 PUSH4 0xDB2E21BC EQ PUSH2 0x972 JUMPI DUP1 PUSH4 0xDB3EEF3F EQ PUSH2 0x63C JUMPI DUP1 PUSH4 0xDB74559B EQ PUSH2 0x602 JUMPI DUP1 PUSH4 0xDF312B1E EQ PUSH2 0x59E JUMPI DUP1 PUSH4 0xDFAE07FF EQ PUSH2 0x4F4 JUMPI DUP1 PUSH4 0xE7865E57 EQ PUSH2 0x4D6 JUMPI DUP1 PUSH4 0xE91C7D33 EQ PUSH2 0x4B8 JUMPI DUP1 PUSH4 0xE9AAE650 EQ PUSH2 0x49A JUMPI DUP1 PUSH4 0xED1EC0F4 EQ PUSH2 0x455 JUMPI DUP1 PUSH4 0xED4C85A9 EQ PUSH2 0x437 JUMPI DUP1 PUSH4 0xEDD6C848 EQ PUSH2 0x419 JUMPI DUP1 PUSH4 0xEFCA2EED EQ PUSH2 0x3FB JUMPI DUP1 PUSH4 0xF09153C4 EQ PUSH2 0x382 JUMPI DUP1 PUSH4 0xF2FDE38B EQ PUSH2 0x302 JUMPI PUSH4 0xF9F92BE4 EQ PUSH2 0x2BE JUMPI PUSH1 0x0 DUP1 REVERT JUMPDEST CALLVALUE PUSH2 0x2FD JUMPI PUSH1 0x20 CALLDATASIZE PUSH1 0x3 NOT ADD SLT PUSH2 0x2FD JUMPI PUSH1 0x1 PUSH1 0x1 PUSH1 0xA0 SHL SUB PUSH2 0x2DF PUSH2 0x3517 JUMP JUMPDEST AND PUSH1 0x0 MSTORE PUSH1 0x12 PUSH1 0x20 MSTORE PUSH1 0x20 PUSH1 0xFF PUSH1 0x40 PUSH1 0x0 KECCAK256 SLOAD AND PUSH1 0x40 MLOAD SWAP1 ISZERO ISZERO DUP2 MSTORE RETURN JUMPDEST PUSH1 0x0 DUP1 REVERT JUMPDEST CALLVALUE PUSH2 0x2FD JUMPI PUSH1 0x20 CALLDATASIZE PUSH1 0x3 NOT ADD SLT PUSH2 0x2FD JUMPI PUSH2 0x31B PUSH2 0x3517 JUMP JUMPDEST PUSH1 0x0 SLOAD SWAP1 PUSH1 0x1 PUSH1 0x1 PUSH1 0xA0 SHL SUB SWAP1 PUSH2 0x335 CALLER DUP4 DUP6 AND EQ PUSH2 0x3705 JUMP JUMPDEST AND SWAP1 DUP2 ISZERO PUSH2 0x34D JUMPI PUSH1 0x1 PUSH1 0x1 PUSH1 0xA0 SHL SUB NOT AND OR PUSH1 0x0 SSTORE STOP JUMPDEST PUSH1 0x40 MLOAD PUSH3 0x461BCD PUSH1 0xE5 SHL DUP2 MSTORE PUSH1 0x20 PUSH1 0x4 DUP3 ADD MSTORE PUSH1 0xD PUSH1 0x24 DUP3 ADD MSTORE PUSH13 0x24B73B30B634B21037BBB732B9 PUSH1 0x99 SHL PUSH1 0x44 DUP3 ADD MSTORE PUSH1 0x64 SWAP1 REVERT JUMPDEST CALLVALUE PUSH2 0x2FD JUMPI PUSH1 0x20 CALLDATASIZE PUSH1 0x3 NOT ADD SLT PUSH2 0x2FD JUMPI PUSH1 0x1 PUSH1 0x1 PUSH1 0xA0 SHL SUB PUSH2 0x3A3 PUSH2 0x3517 JUMP JUMPDEST AND PUSH1 0x0 MSTORE PUSH1 0x13 PUSH1 0x20 MSTORE PUSH1 0xA0 PUSH1 0x6 PUSH1 0x40 PUSH1 0x0 KECCAK256 ADD SLOAD PUSH1 0x16 PUSH1 0x20 MSTORE PUSH1 0x40 PUSH1 0x0 KECCAK256 SLOAD PUSH1 0xFF PUSH1 0x40 MLOAD SWAP3 DUP2 DUP2 AND ISZERO ISZERO DUP5 MSTORE DUP2 DUP2 PUSH1 0x8 SHR AND ISZERO ISZERO PUSH1 0x20 DUP6 ADD MSTORE DUP2 DUP2 PUSH1 0x10 SHR AND ISZERO ISZERO PUSH1 0x40 DUP6 ADD MSTORE PUSH1 0x18 SHR AND ISZERO ISZERO PUSH1 0x60 DUP4 ADD MSTORE PUSH1 0x80 DUP3 ADD MSTORE RETURN JUMPDEST CALLVALUE PUSH2 0x2FD JUMPI PUSH1 0x0 CALLDATASIZE PUSH1 0x3 NOT ADD SLT PUSH2 0x2FD JUMPI PUSH1 0x20 PUSH1 0xE SLOAD PUSH1 0x40 MLOAD SWAP1 DUP2 MSTORE RETURN JUMPDEST CALLVALUE PUSH2 0x2FD JUMPI PUSH1 0x0 CALLDATASIZE PUSH1 0x3 NOT ADD SLT PUSH2 0x2FD JUMPI PUSH1 0x20 PUSH1 0x8 SLOAD PUSH1 0x40 MLOAD SWAP1 DUP2 MSTORE RETURN JUMPDEST CALLVALUE PUSH2 0x2FD JUMPI PUSH1 0x0 CALLDATASIZE PUSH1 0x3 NOT ADD SLT PUSH2 0x2FD JUMPI PUSH1 0x20 PUSH1 0x7 SLOAD PUSH1 0x40 MLOAD SWAP1 DUP2 MSTORE RETURN JUMPDEST CALLVALUE PUSH2 0x2FD JUMPI PUSH1 0x0 CALLDATASIZE PUSH1 0x3 NOT ADD SLT PUSH2 0x2FD JUMPI PUSH1 0x40 MLOAD PUSH32 0x0 PUSH1 0x1 PUSH1 0x1 PUSH1 0xA0 SHL SUB AND DUP2 MSTORE PUSH1 0x20 SWAP1 RETURN JUMPDEST CALLVALUE PUSH2 0x2FD JUMPI PUSH1 0x0 CALLDATASIZE PUSH1 0x3 NOT ADD SLT PUSH2 0x2FD JUMPI PUSH1 0x20 PUSH1 0x1 SLOAD PUSH1 0x40 MLOAD SWAP1 DUP2 MSTORE RETURN JUMPDEST CALLVALUE PUSH2 0x2FD JUMPI PUSH1 0x0 CALLDATASIZE PUSH1 0x3 NOT ADD SLT PUSH2 0x2FD JUMPI PUSH1 0x20 PUSH1 0x3 SLOAD PUSH1 0x40 MLOAD SWAP1 DUP2 MSTORE RETURN JUMPDEST CALLVALUE PUSH2 0x2FD JUMPI PUSH1 0x0 CALLDATASIZE PUSH1 0x3 NOT ADD SLT PUSH2 0x2FD JUMPI PUSH1 0x20 PUSH1 0xC SLOAD PUSH1 0x40 MLOAD SWAP1 DUP2 MSTORE RETURN JUMPDEST CALLVALUE PUSH2 0x2FD JUMPI PUSH1 0x20 CALLDATASIZE PUSH1 0x3 NOT ADD SLT PUSH2 0x2FD JUMPI PUSH1 0x0 DUP1 MLOAD PUSH1 0x20 PUSH2 0x3C3E DUP4 CODECOPY DUP2 MLOAD SWAP2 MSTORE PUSH1 0xA0 PUSH1 0x4 CALLDATALOAD PUSH2 0x52D PUSH1 0x1 DUP1 DUP5 SHL SUB PUSH1 0x0 SLOAD AND CALLER EQ PUSH2 0x3705 JUMP JUMPDEST PUSH9 0x3635C9ADC5DEA00000 DUP2 LT ISZERO DUP1 PUSH2 0x58A JUMPI JUMPDEST PUSH2 0x549 SWAP1 PUSH2 0x3BC0 JUMP JUMPDEST PUSH1 0x2 SLOAD SWAP1 DUP1 PUSH1 0x2 SSTORE PUSH1 0x40 MLOAD SWAP2 PUSH1 0x60 DUP4 MSTORE PUSH1 0x14 PUSH1 0x60 DUP5 ADD MSTORE PUSH20 0x53545245414B5F424F4E55535F5045525F444159 PUSH1 0x60 SHL PUSH1 0x80 DUP5 ADD MSTORE PUSH1 0x20 DUP4 ADD MSTORE PUSH1 0x40 DUP3 ADD MSTORE LOG1 STOP JUMPDEST POP PUSH10 0xA968163F0A57B400000 DUP2 GT ISZERO PUSH2 0x540 JUMP JUMPDEST CALLVALUE PUSH2 0x2FD JUMPI PUSH1 0x20 CALLDATASIZE PUSH1 0x3 NOT ADD SLT PUSH2 0x2FD JUMPI PUSH1 0x1 PUSH1 0x1 PUSH1 0xA0 SHL SUB PUSH2 0x5BF PUSH2 0x3517 JUMP JUMPDEST AND PUSH1 0x0 MSTORE PUSH1 0x14 PUSH1 0x20 MSTORE PUSH1 0x80 PUSH1 0x40 PUSH1 0x0 KECCAK256 PUSH1 0x1 DUP2 SLOAD SWAP2 ADD SLOAD PUSH1 0xFF PUSH1 0x40 MLOAD SWAP3 DUP2 DUP2 AND ISZERO ISZERO DUP5 MSTORE DUP2 DUP2 PUSH1 0x8 SHR AND ISZERO ISZERO PUSH1 0x20 DUP6 ADD MSTORE PUSH1 0x10 SHR AND ISZERO ISZERO PUSH1 0x40 DUP4 ADD MSTORE PUSH1 0x60 DUP3 ADD MSTORE RETURN JUMPDEST CALLVALUE PUSH2 0x2FD JUMPI PUSH1 0x20 CALLDATASIZE PUSH1 0x3 NOT ADD SLT PUSH2 0x2FD JUMPI PUSH1 0x1 PUSH1 0x1 PUSH1 0xA0 SHL SUB PUSH2 0x623 PUSH2 0x3517 JUMP JUMPDEST AND PUSH1 0x0 MSTORE PUSH1 0x16 PUSH1 0x20 MSTORE PUSH1 0x20 PUSH1 0x40 PUSH1 0x0 KECCAK256 SLOAD PUSH1 0x40 MLOAD SWAP1 DUP2 MSTORE RETURN JUMPDEST CALLVALUE PUSH2 0x2FD JUMPI PUSH2 0x693 PUSH2 0x68E PUSH2 0x650 CALLDATASIZE PUSH2 0x359B JUMP JUMPDEST PUSH2 0x669 PUSH1 0xFF PUSH1 0x11 SWAP8 SWAP5 SWAP6 SWAP8 SWAP7 SWAP4 SWAP7 SLOAD PUSH1 0xA8 SHR AND ISZERO PUSH2 0x3777 JUMP JUMPDEST CALLER PUSH1 0x0 MSTORE PUSH1 0x20 SWAP5 PUSH1 0x12 DUP7 MSTORE PUSH2 0x686 PUSH1 0xFF PUSH1 0x40 PUSH1 0x0 KECCAK256 SLOAD AND ISZERO PUSH2 0x37B8 JUMP JUMPDEST DUP5 DUP8 CALLER PUSH2 0x3A6F JUMP JUMPDEST PUSH2 0x38A7 JUMP JUMPDEST PUSH2 0x69C CALLER PUSH2 0x3A31 JUMP JUMPDEST CALLER PUSH1 0x0 MSTORE PUSH1 0x14 DUP3 MSTORE PUSH1 0x40 PUSH1 0x0 KECCAK256 PUSH2 0x6B4 CALLDATASIZE DUP4 DUP7 PUSH2 0x38E7 JUMP JUMPDEST DUP1 MLOAD SWAP1 DUP5 ADD KECCAK256 PUSH32 0x59F9C19CE4D2104B5074AFDBD422A67CE762A07B67944DFC1AC72CEBC1EF9FB3 DUP2 SUB PUSH2 0x89D JUMPI POP PUSH1 0x1 DUP2 SLOAD PUSH2 0x6F3 PUSH1 0xFF DUP3 AND ISZERO PUSH2 0x392E JUMP JUMPDEST PUSH1 0xFF NOT AND OR SWAP1 SSTORE PUSH1 0x6 SLOAD SWAP1 JUMPDEST PUSH1 0x40 MLOAD PUSH4 0x70A08231 PUSH1 0xE0 SHL DUP2 MSTORE ADDRESS PUSH1 0x4 DUP3 ADD MSTORE PUSH32 0x0 PUSH1 0x1 PUSH1 0x1 PUSH1 0xA0 SHL SUB AND SWAP1 DUP5 DUP2 PUSH1 0x24 DUP2 DUP6 GAS STATICCALL DUP1 ISZERO PUSH2 0x860 JUMPI DUP5 SWAP1 PUSH1 0x0 SWAP1 PUSH2 0x86C JUMPI JUMPDEST PUSH2 0x761 SWAP3 POP LT ISZERO PUSH2 0x381D JUMP JUMPDEST CALLER PUSH1 0x0 MSTORE PUSH1 0x13 DUP5 MSTORE PUSH1 0x3 PUSH1 0x40 PUSH1 0x0 KECCAK256 ADD PUSH2 0x77C DUP5 DUP3 SLOAD PUSH2 0x37FD JUMP JUMPDEST SWAP1 SSTORE PUSH2 0x78A DUP4 PUSH1 0xE SLOAD PUSH2 0x37FD JUMP JUMPDEST PUSH1 0xE SSTORE PUSH1 0x40 MLOAD PUSH4 0xA9059CBB PUSH1 0xE0 SHL DUP2 MSTORE CALLER PUSH1 0x4 DUP3 ADD MSTORE PUSH1 0x24 DUP2 ADD DUP5 SWAP1 MSTORE SWAP1 DUP5 SWAP1 DUP3 SWAP1 PUSH1 0x44 SWAP1 DUP3 SWAP1 PUSH1 0x0 SWAP1 GAS CALL SWAP4 DUP5 ISZERO PUSH2 0x860 JUMPI PUSH1 0x0 SWAP5 PUSH2 0x807 JUMPI JUMPDEST POP POP PUSH2 0x7F1 PUSH32 0x10DDCE2FE83F593B5A578FDEAEA55181DAA98B7E1E4652E712B2C821622FC307 SWAP4 PUSH2 0x3869 JUMP JUMPDEST PUSH2 0x802 PUSH1 0x40 MLOAD SWAP3 DUP4 SWAP3 CALLER SWAP7 DUP5 PUSH2 0x397A JUMP JUMPDEST SUB SWAP1 LOG2 STOP JUMPDEST SWAP1 DUP1 SWAP5 POP DUP2 RETURNDATASIZE DUP4 GT PUSH2 0x859 JUMPI JUMPDEST PUSH2 0x81E DUP2 DUP4 PUSH2 0x3643 JUMP JUMPDEST DUP2 ADD SUB SLT PUSH2 0x2FD JUMPI PUSH2 0x7F1 PUSH2 0x853 PUSH32 0x10DDCE2FE83F593B5A578FDEAEA55181DAA98B7E1E4652E712B2C821622FC307 SWAP5 PUSH2 0x3665 JUMP JUMPDEST SWAP4 PUSH2 0x7C5 JUMP JUMPDEST POP RETURNDATASIZE PUSH2 0x814 JUMP JUMPDEST PUSH1 0x40 MLOAD RETURNDATASIZE PUSH1 0x0 DUP3 RETURNDATACOPY RETURNDATASIZE SWAP1 REVERT JUMPDEST POP POP DUP5 DUP2 DUP2 RETURNDATASIZE DUP4 GT PUSH2 0x896 JUMPI JUMPDEST PUSH2 0x883 DUP2 DUP4 PUSH2 0x3643 JUMP JUMPDEST DUP2 ADD SUB SLT PUSH2 0x2FD JUMPI DUP4 PUSH2 0x761 SWAP2 MLOAD PUSH2 0x755 JUMP JUMPDEST POP RETURNDATASIZE PUSH2 0x879 JUMP JUMPDEST PUSH32 0x103F7B2DDA1595DA24C03F5970D4163272B9BADB6161A376876BFEA67102615C DUP2 SUB PUSH2 0x8EB JUMPI POP PUSH2 0x100 DUP2 SLOAD PUSH2 0x8DA PUSH1 0xFF DUP3 PUSH1 0x8 SHR AND ISZERO PUSH2 0x392E JUMP JUMPDEST PUSH2 0xFF00 NOT AND OR SWAP1 SSTORE PUSH1 0x7 SLOAD SWAP1 PUSH2 0x6FF JUMP JUMPDEST PUSH32 0x6C25E4722CB75723D0F45967423F4FEFC1866B6DB42936B2E4C9827F9D9F8CCD SUB PUSH2 0x939 JUMPI PUSH3 0x10000 DUP2 SLOAD PUSH2 0x927 PUSH1 0xFF DUP3 PUSH1 0x10 SHR AND ISZERO PUSH2 0x392E JUMP JUMPDEST PUSH3 0xFF0000 NOT AND OR SWAP1 SSTORE PUSH1 0x8 SLOAD SWAP1 PUSH2 0x6FF JUMP JUMPDEST PUSH1 0x40 MLOAD PUSH3 0x461BCD PUSH1 0xE5 SHL DUP2 MSTORE PUSH1 0x4 DUP2 ADD DUP5 SWAP1 MSTORE PUSH1 0x11 PUSH1 0x24 DUP3 ADD MSTORE PUSH17 0x496E76616C6964207461736B2074797065 PUSH1 0x78 SHL PUSH1 0x44 DUP3 ADD MSTORE PUSH1 0x64 SWAP1 REVERT JUMPDEST CALLVALUE PUSH2 0x2FD JUMPI PUSH1 0x0 CALLDATASIZE PUSH1 0x3 NOT ADD SLT PUSH2 0x2FD JUMPI PUSH1 0x0 SLOAD PUSH1 0x1 PUSH1 0x1 PUSH1 0xA0 SHL SUB SWAP1 DUP2 AND PUSH2 0x99C CALLER DUP3 EQ PUSH2 0x3705 JUMP JUMPDEST PUSH1 0x40 MLOAD PUSH4 0x70A08231 PUSH1 0xE0 SHL DUP2 MSTORE ADDRESS PUSH1 0x4 DUP3 ADD MSTORE SWAP2 PUSH1 0x20 SWAP2 PUSH32 0x0 DUP3 AND SWAP1 DUP4 DUP6 PUSH1 0x24 DUP2 DUP6 GAS STATICCALL SWAP5 DUP6 ISZERO PUSH2 0x860 JUMPI PUSH1 0x0 SWAP6 PUSH2 0xAFF JUMPI JUMPDEST POP DUP5 ISZERO PUSH2 0xACD JUMPI PUSH1 0x40 MLOAD PUSH4 0xA9059CBB PUSH1 0xE0 SHL DUP2 MSTORE PUSH1 0x1 PUSH1 0x1 PUSH1 0xA0 SHL SUB SWAP2 SWAP1 SWAP2 AND PUSH1 0x4 DUP3 ADD MSTORE PUSH1 0x24 DUP2 ADD DUP6 SWAP1 MSTORE SWAP3 SWAP2 SWAP1 DUP3 SWAP1 DUP5 SWAP1 PUSH1 0x44 SWAP1 DUP3 SWAP1 PUSH1 0x0 SWAP1 GAS CALL SWAP3 DUP4 ISZERO PUSH2 0x860 JUMPI PUSH1 0x0 SWAP4 PUSH2 0xA73 JUMPI JUMPDEST POP PUSH2 0xA65 PUSH32 0x5FAFA99D0643513820BE26656B45130B01E1C03062E1266BF36F88CBD3BD9695 SWAP4 PUSH2 0x3869 JUMP JUMPDEST PUSH1 0x0 SLOAD AND SWAP3 PUSH1 0x40 MLOAD SWAP1 DUP2 MSTORE LOG2 STOP JUMPDEST SWAP3 POP DUP2 DUP4 DUP2 RETURNDATASIZE DUP4 GT PUSH2 0xAC6 JUMPI JUMPDEST PUSH2 0xA8A DUP2 DUP4 PUSH2 0x3643 JUMP JUMPDEST DUP2 ADD SUB SLT PUSH2 0x2FD JUMPI PUSH2 0xA65 PUSH2 0xABF PUSH32 0x5FAFA99D0643513820BE26656B45130B01E1C03062E1266BF36F88CBD3BD9695 SWAP5 PUSH2 0x3665 JUMP JUMPDEST SWAP4 POP PUSH2 0xA3A JUMP JUMPDEST POP RETURNDATASIZE PUSH2 0xA80 JUMP JUMPDEST PUSH1 0x40 MLOAD PUSH3 0x461BCD PUSH1 0xE5 SHL DUP2 MSTORE PUSH1 0x4 DUP2 ADD DUP6 SWAP1 MSTORE PUSH1 0xA PUSH1 0x24 DUP3 ADD MSTORE PUSH10 0x4E6F2062616C616E6365 PUSH1 0xB0 SHL PUSH1 0x44 DUP3 ADD MSTORE PUSH1 0x64 SWAP1 REVERT JUMPDEST SWAP1 SWAP5 POP DUP4 DUP2 DUP2 RETURNDATASIZE DUP4 GT PUSH2 0xB27 JUMPI JUMPDEST PUSH2 0xB17 DUP2 DUP4 PUSH2 0x3643 JUMP JUMPDEST DUP2 ADD SUB SLT PUSH2 0x2FD JUMPI MLOAD SWAP4 DUP6 PUSH2 0x9EE JUMP JUMPDEST POP RETURNDATASIZE PUSH2 0xB0D JUMP JUMPDEST CALLVALUE PUSH2 0x2FD JUMPI PUSH1 0x20 CALLDATASIZE PUSH1 0x3 NOT ADD SLT PUSH2 0x2FD JUMPI PUSH1 0x0 DUP1 MLOAD PUSH1 0x20 PUSH2 0x3C3E DUP4 CODECOPY DUP2 MLOAD SWAP2 MSTORE PUSH1 0xA0 PUSH1 0x4 CALLDATALOAD PUSH2 0xB67 PUSH1 0x1 DUP1 DUP5 SHL SUB PUSH1 0x0 SLOAD AND CALLER EQ PUSH2 0x3705 JUMP JUMPDEST PUSH10 0x21E19E0C9BAB2400000 DUP2 LT ISZERO DUP1 PUSH2 0xBCE JUMPI JUMPDEST PUSH2 0xB84 SWAP1 PUSH2 0x3BC0 JUMP JUMPDEST PUSH1 0x7 SLOAD SWAP1 DUP1 PUSH1 0x7 SSTORE PUSH1 0x40 MLOAD SWAP2 PUSH1 0x60 DUP4 MSTORE PUSH1 0x18 PUSH1 0x60 DUP5 ADD MSTORE PUSH32 0x4352454154455F50524544494354494F4E5F5245574152440000000000000000 PUSH1 0x80 DUP5 ADD MSTORE PUSH1 0x20 DUP4 ADD MSTORE PUSH1 0x40 DUP3 ADD MSTORE LOG1 STOP JUMPDEST POP PUSH10 0x2A5A058FC295ED000000 DUP2 GT ISZERO PUSH2 0xB7B JUMP JUMPDEST CALLVALUE PUSH2 0x2FD JUMPI PUSH1 0x0 CALLDATASIZE PUSH1 0x3 NOT ADD SLT PUSH2 0x2FD JUMPI PUSH1 0x20 PUSH1 0xA SLOAD PUSH1 0x40 MLOAD SWAP1 DUP2 MSTORE RETURN JUMPDEST CALLVALUE PUSH2 0x2FD JUMPI PUSH1 0x20 CALLDATASIZE PUSH1 0x3 NOT ADD SLT PUSH2 0x2FD JUMPI PUSH1 0x80 PUSH2 0xC23 PUSH2 0xC1E PUSH2 0x3517 JUMP JUMPDEST PUSH2 0x39E7 JUMP JUMPDEST SWAP2 PUSH1 0x40 MLOAD SWAP4 ISZERO ISZERO DUP5 MSTORE ISZERO ISZERO PUSH1 0x20 DUP5 ADD MSTORE ISZERO ISZERO PUSH1 0x40 DUP4 ADD MSTORE ISZERO ISZERO PUSH1 0x60 DUP3 ADD MSTORE RETURN JUMPDEST CALLVALUE PUSH2 0x2FD JUMPI PUSH1 0x0 CALLDATASIZE PUSH1 0x3 NOT ADD SLT PUSH2 0x2FD JUMPI PUSH1 0x20 PUSH1 0xF SLOAD PUSH1 0x40 MLOAD SWAP1 DUP2 MSTORE RETURN JUMPDEST CALLVALUE PUSH2 0x2FD JUMPI PUSH1 0x20 CALLDATASIZE PUSH1 0x3 NOT ADD SLT PUSH2 0x2FD JUMPI PUSH1 0x4 CALLDATALOAD PUSH2 0xC8A PUSH1 0x1 DUP1 PUSH1 0xA0 SHL SUB PUSH1 0x0 SLOAD AND CALLER EQ PUSH2 0x3705 JUMP JUMPDEST PUSH1 0x1 DUP2 LT ISZERO DUP1 PUSH2 0xD25 JUMPI JUMPDEST ISZERO PUSH2 0xCE7 JUMPI PUSH1 0xA0 PUSH1 0x0 DUP1 MLOAD PUSH1 0x20 PUSH2 0x3C3E DUP4 CODECOPY DUP2 MLOAD SWAP2 MSTORE SWAP2 PUSH1 0x5 SLOAD SWAP1 DUP1 PUSH1 0x5 SSTORE PUSH1 0x40 MLOAD SWAP2 PUSH1 0x60 DUP4 MSTORE PUSH1 0xE PUSH1 0x60 DUP5 ADD MSTORE PUSH14 0x4A41434B504F545F4348414E4345 PUSH1 0x90 SHL PUSH1 0x80 DUP5 ADD MSTORE PUSH1 0x20 DUP4 ADD MSTORE PUSH1 0x40 DUP3 ADD MSTORE LOG1 STOP JUMPDEST PUSH1 0x40 MLOAD PUSH3 0x461BCD PUSH1 0xE5 SHL DUP2 MSTORE PUSH1 0x20 PUSH1 0x4 DUP3 ADD MSTORE PUSH1 0x16 PUSH1 0x24 DUP3 ADD MSTORE PUSH22 0x496E76616C6964206368616E63652028312D32302529 PUSH1 0x50 SHL PUSH1 0x44 DUP3 ADD MSTORE PUSH1 0x64 SWAP1 REVERT JUMPDEST POP PUSH1 0x14 DUP2 GT ISZERO PUSH2 0xC95 JUMP JUMPDEST CALLVALUE PUSH2 0x2FD JUMPI PUSH1 0x0 CALLDATASIZE PUSH1 0x3 NOT ADD SLT PUSH2 0x2FD JUMPI PUSH1 0x40 MLOAD PUSH4 0x70A08231 PUSH1 0xE0 SHL DUP2 MSTORE ADDRESS PUSH1 0x4 DUP3 ADD MSTORE PUSH1 0x20 DUP2 PUSH1 0x24 DUP2 PUSH32 0x0 PUSH1 0x1 PUSH1 0x1 PUSH1 0xA0 SHL SUB AND GAS STATICCALL DUP1 ISZERO PUSH2 0x860 JUMPI PUSH1 0x0 SWAP1 PUSH2 0xDB8 JUMPI JUMPDEST PUSH1 0x80 SWAP1 PUSH1 0xE SLOAD PUSH1 0xF SLOAD PUSH1 0x10 SLOAD SWAP2 PUSH1 0x40 MLOAD SWAP4 DUP5 MSTORE PUSH1 0x20 DUP5 ADD MSTORE PUSH1 0x40 DUP4 ADD MSTORE PUSH1 0x60 DUP3 ADD MSTORE RETURN JUMPDEST POP PUSH1 0x20 DUP2 RETURNDATASIZE DUP3 GT PUSH2 0xDE2 JUMPI JUMPDEST DUP2 PUSH2 0xDD1 PUSH1 0x20 SWAP4 DUP4 PUSH2 0x3643 JUMP JUMPDEST DUP2 ADD SUB SLT PUSH2 0x2FD JUMPI PUSH1 0x80 SWAP1 MLOAD PUSH2 0xD94 JUMP JUMPDEST RETURNDATASIZE SWAP2 POP PUSH2 0xDC4 JUMP JUMPDEST CALLVALUE PUSH2 0x2FD JUMPI PUSH1 0x20 CALLDATASIZE PUSH1 0x3 NOT ADD SLT PUSH2 0x2FD JUMPI PUSH1 0x4 CALLDATALOAD PUSH8 0xFFFFFFFFFFFFFFFF DUP2 GT PUSH2 0x2FD JUMPI PUSH2 0xE1B SWAP1 CALLDATASIZE SWAP1 PUSH1 0x4 ADD PUSH2 0x353C JUMP JUMPDEST SWAP1 PUSH2 0xE31 PUSH1 0x1 DUP1 PUSH1 0xA0 SHL SUB PUSH1 0x0 SLOAD AND CALLER EQ PUSH2 0x3705 JUMP JUMPDEST PUSH2 0xE42 PUSH1 0xFF PUSH1 0x11 SLOAD PUSH1 0xB0 SHR AND PUSH2 0x35E6 JUMP JUMPDEST PUSH1 0x0 JUMPDEST DUP3 DUP2 LT PUSH2 0xE4E JUMPI STOP JUMPDEST PUSH1 0x1 PUSH1 0x1 PUSH1 0xA0 SHL SUB PUSH2 0xE69 PUSH2 0xE64 DUP4 DUP7 DUP7 PUSH2 0x373D JUMP JUMPDEST PUSH2 0x3763 JUMP JUMPDEST AND SWAP1 DUP2 PUSH1 0x0 MSTORE PUSH1 0x13 PUSH1 0x20 MSTORE PUSH1 0xFF PUSH1 0x6 PUSH1 0x40 PUSH1 0x0 KECCAK256 ADD SLOAD PUSH1 0x20 SHR AND DUP1 ISZERO PUSH2 0x1204 JUMPI JUMPDEST PUSH2 0x11FA JUMPI PUSH1 0x40 MLOAD PUSH4 0x543A185D PUSH1 0xE1 SHL DUP2 MSTORE PUSH1 0x4 DUP2 ADD DUP4 SWAP1 MSTORE SWAP2 PUSH2 0x140 DUP4 PUSH1 0x24 DUP2 PUSH32 0x0 PUSH1 0x1 PUSH1 0x1 PUSH1 0xA0 SHL SUB AND GAS STATICCALL DUP1 ISZERO PUSH2 0x860 JUMPI PUSH1 0x0 SWAP1 PUSH1 0x0 SWAP1 PUSH1 0x0 SWAP6 PUSH1 0x0 SWAP4 PUSH1 0x0 DUP1 PUSH1 0x0 SWAP7 PUSH1 0x0 SWAP11 PUSH1 0x0 SWAP6 PUSH1 0x0 SWAP8 PUSH2 0x11B0 JUMPI JUMPDEST POP DUP5 ISZERO PUSH2 0x119C JUMPI PUSH1 0x0 DUP11 DUP2 MSTORE PUSH1 0x13 PUSH1 0x20 SWAP1 DUP2 MSTORE PUSH1 0x40 SWAP2 DUP3 SWAP1 KECCAK256 SWAP7 DUP8 SSTORE PUSH1 0x1 DUP8 ADD DUP11 SWAP1 SSTORE PUSH1 0x2 DUP8 ADD SWAP3 SWAP1 SWAP3 SSTORE PUSH1 0x3 DUP7 ADD SWAP3 SWAP1 SWAP3 SSTORE PUSH1 0x4 DUP1 DUP7 ADD SWAP4 SWAP1 SWAP4 SSTORE PUSH1 0x5 DUP6 ADD SWAP4 SWAP1 SWAP4 SSTORE PUSH1 0x6 SWAP1 SWAP4 ADD DUP1 SLOAD PUSH5 0x100000000 PUSH5 0xFFFFFFFFFF NOT SWAP1 SWAP2 AND DUP10 ISZERO ISZERO PUSH1 0xFF AND OR PUSH2 0xFF00 DUP14 ISZERO ISZERO PUSH1 0x8 SHL AND OR PUSH3 0xFF0000 DUP8 ISZERO ISZERO PUSH1 0x10 SHL AND OR PUSH4 0xFF000000 DUP9 ISZERO ISZERO PUSH1 0x18 SHL AND OR OR SWAP1 SSTORE SWAP2 MLOAD PUSH4 0x5487C74D PUSH1 0xE1 SHL DUP2 MSTORE SWAP2 DUP3 ADD DUP8 SWAP1 MSTORE DUP2 PUSH1 0x24 DUP2 PUSH1 0x1 PUSH1 0x1 PUSH1 0xA0 SHL SUB PUSH32 0x0 AND GAS STATICCALL SWAP1 DUP2 ISZERO PUSH2 0x860 JUMPI PUSH1 0x0 SWAP2 PUSH2 0x116D JUMPI JUMPDEST POP PUSH1 0x1 PUSH1 0x1 PUSH1 0xA0 SHL SUB AND DUP1 PUSH2 0x1056 JUMPI JUMPDEST POP SWAP1 PUSH1 0x0 DUP1 MLOAD PUSH1 0x20 PUSH2 0x3C1E DUP4 CODECOPY DUP2 MLOAD SWAP2 MSTORE SWAP4 SWAP3 SWAP2 PUSH2 0x1039 SWAP8 PUSH1 0xF PUSH2 0x100A DUP2 SLOAD PUSH2 0x36F6 JUMP JUMPDEST SWAP1 SSTORE DUP5 ISZERO PUSH2 0x104E JUMPI JUMPDEST POP DUP4 ISZERO PUSH2 0x1046 JUMPI JUMPDEST POP DUP3 ISZERO PUSH2 0x103E JUMPI JUMPDEST POP PUSH1 0x40 DUP1 MLOAD SWAP2 DUP3 MSTORE SWAP2 ISZERO ISZERO PUSH1 0x20 DUP3 ADD MSTORE LOG2 PUSH2 0x36F6 JUMP JUMPDEST PUSH2 0xE45 JUMP JUMPDEST SWAP2 POP DUP9 PUSH2 0x1023 JUMP JUMPDEST SWAP3 POP DUP10 PUSH2 0x101B JUMP JUMPDEST SWAP4 POP DUP11 PUSH2 0x1013 JUMP JUMPDEST PUSH1 0x0 DUP7 DUP2 MSTORE PUSH1 0x15 PUSH1 0x20 SWAP1 DUP2 MSTORE PUSH1 0x40 SWAP2 DUP3 SWAP1 KECCAK256 DUP1 SLOAD PUSH1 0x1 PUSH1 0x1 PUSH1 0xA0 SHL SUB NOT AND SWAP1 SWAP4 OR SWAP1 SWAP3 SSTORE MLOAD PUSH4 0x4DAD19D PUSH1 0xE1 SHL DUP2 MSTORE PUSH1 0x4 DUP2 ADD DUP8 SWAP1 MSTORE SWAP1 DUP2 PUSH1 0x24 DUP2 PUSH32 0x0 PUSH1 0x1 PUSH1 0x1 PUSH1 0xA0 SHL SUB AND GAS STATICCALL SWAP1 DUP2 ISZERO PUSH2 0x860 JUMPI PUSH1 0x0 SWAP2 PUSH2 0x1112 JUMPI JUMPDEST POP SWAP1 PUSH2 0x1039 SWAP8 PUSH2 0x1107 PUSH1 0x0 DUP1 MLOAD PUSH1 0x20 PUSH2 0x3C1E DUP4 CODECOPY DUP2 MLOAD SWAP2 MSTORE SWAP7 SWAP6 SWAP5 SWAP4 DUP9 PUSH1 0x0 MSTORE PUSH1 0x17 PUSH1 0x20 MSTORE PUSH1 0x40 PUSH1 0x0 KECCAK256 SWAP1 PUSH1 0xFF DUP1 NOT DUP4 SLOAD AND SWAP2 ISZERO ISZERO AND OR SWAP1 SSTORE JUMP JUMPDEST SWAP8 POP SWAP1 SWAP2 SWAP3 SWAP4 PUSH2 0xFE6 JUMP JUMPDEST SWAP5 SWAP4 SWAP3 SWAP2 SWAP1 POP PUSH1 0x20 DUP6 RETURNDATASIZE PUSH1 0x20 GT PUSH2 0x1165 JUMPI JUMPDEST DUP2 PUSH2 0x1131 PUSH1 0x20 SWAP4 DUP4 PUSH2 0x3643 JUMP JUMPDEST DUP2 ADD SUB SLT PUSH2 0x2FD JUMPI PUSH2 0x1039 SWAP8 PUSH2 0x1107 PUSH2 0x1158 PUSH1 0x0 DUP1 MLOAD PUSH1 0x20 PUSH2 0x3C1E DUP4 CODECOPY DUP2 MLOAD SWAP2 MSTORE SWAP8 PUSH2 0x3665 JUMP JUMPDEST SWAP3 SWAP4 SWAP5 SWAP6 SWAP7 POP POP SWAP8 PUSH2 0x10CC JUMP JUMPDEST RETURNDATASIZE SWAP2 POP PUSH2 0x1124 JUMP JUMPDEST PUSH2 0x118F SWAP2 POP PUSH1 0x20 RETURNDATASIZE PUSH1 0x20 GT PUSH2 0x1195 JUMPI JUMPDEST PUSH2 0x1187 DUP2 DUP4 PUSH2 0x3643 JUMP JUMPDEST DUP2 ADD SWAP1 PUSH2 0x36D7 JUMP JUMPDEST DUP11 PUSH2 0xFD6 JUMP JUMPDEST POP RETURNDATASIZE PUSH2 0x117D JUMP JUMPDEST POP POP POP POP POP POP POP POP POP POP PUSH2 0x1039 SWAP2 POP PUSH2 0x36F6 JUMP JUMPDEST SWAP9 POP POP POP POP POP POP POP POP POP PUSH2 0x11DF SWAP2 SWAP4 POP PUSH2 0x140 RETURNDATASIZE PUSH2 0x140 GT PUSH2 0x11F3 JUMPI JUMPDEST PUSH2 0x11D7 DUP2 DUP4 PUSH2 0x3643 JUMP JUMPDEST DUP2 ADD SWAP1 PUSH2 0x3672 JUMP JUMPDEST SWAP2 SWAP11 SWAP9 SWAP3 SWAP8 SWAP7 SWAP2 SWAP6 SWAP1 SWAP5 SWAP3 SWAP4 SWAP3 SWAP2 DUP15 PUSH2 0xEFC JUMP JUMPDEST POP RETURNDATASIZE PUSH2 0x11CD JUMP JUMPDEST PUSH2 0x1039 SWAP2 POP PUSH2 0x36F6 JUMP JUMPDEST POP PUSH1 0x12 PUSH1 0x20 MSTORE PUSH1 0xFF PUSH1 0x40 PUSH1 0x0 KECCAK256 SLOAD AND PUSH2 0xE8A JUMP JUMPDEST CALLVALUE PUSH2 0x2FD JUMPI PUSH1 0x20 CALLDATASIZE PUSH1 0x3 NOT ADD SLT PUSH2 0x2FD JUMPI PUSH32 0x5357603B66CE52AD2BDE073BF1BAAE8A126A96AE712F396257FA4B57169C36AB PUSH1 0x20 PUSH2 0x1254 PUSH2 0x352D JUMP JUMPDEST PUSH2 0x1269 PUSH1 0x1 DUP1 PUSH1 0xA0 SHL SUB PUSH1 0x0 SLOAD AND CALLER EQ PUSH2 0x3705 JUMP JUMPDEST ISZERO ISZERO PUSH1 0x11 SLOAD PUSH1 0xFF PUSH1 0xA0 SHL DUP3 PUSH1 0xA0 SHL AND SWAP1 PUSH1 0xFF PUSH1 0xA0 SHL NOT AND OR PUSH1 0x11 SSTORE PUSH1 0x40 MLOAD SWAP1 DUP2 MSTORE LOG1 STOP JUMPDEST CALLVALUE PUSH2 0x2FD JUMPI PUSH1 0x0 CALLDATASIZE PUSH1 0x3 NOT ADD SLT PUSH2 0x2FD JUMPI PUSH1 0x20 PUSH1 0x4 SLOAD PUSH1 0x40 MLOAD SWAP1 DUP2 MSTORE RETURN JUMPDEST CALLVALUE PUSH2 0x2FD JUMPI PUSH1 0x20 CALLDATASIZE PUSH1 0x3 NOT ADD SLT PUSH2 0x2FD JUMPI PUSH1 0x20 PUSH1 0x1 PUSH1 0x1 PUSH1 0xA0 SHL SUB DUP1 PUSH2 0x12CF PUSH2 0x3517 JUMP JUMPDEST AND PUSH1 0x0 MSTORE PUSH1 0x15 DUP3 MSTORE PUSH1 0x40 PUSH1 0x0 KECCAK256 SLOAD AND PUSH1 0x40 MLOAD SWAP1 DUP2 MSTORE RETURN JUMPDEST CALLVALUE PUSH2 0x2FD JUMPI PUSH1 0x20 CALLDATASIZE PUSH1 0x3 NOT ADD SLT PUSH2 0x2FD JUMPI PUSH1 0x1 PUSH1 0x1 PUSH1 0xA0 SHL SUB PUSH2 0x1307 PUSH2 0x3517 JUMP JUMPDEST AND PUSH1 0x0 MSTORE PUSH1 0x13 PUSH1 0x20 MSTORE PUSH2 0x160 PUSH1 0x40 PUSH1 0x0 KECCAK256 PUSH1 0xFF DUP2 SLOAD SWAP2 PUSH1 0x1 DUP2 ADD SLOAD SWAP1 PUSH1 0x2 DUP2 ADD SLOAD PUSH1 0x3 DUP3 ADD SLOAD PUSH1 0x4 DUP4 ADD SLOAD SWAP2 PUSH1 0x6 PUSH1 0x5 DUP6 ADD SLOAD SWAP5 ADD SLOAD SWAP5 PUSH1 0x40 MLOAD SWAP8 DUP9 MSTORE PUSH1 0x20 DUP9 ADD MSTORE PUSH1 0x40 DUP8 ADD MSTORE PUSH1 0x60 DUP7 ADD MSTORE PUSH1 0x80 DUP6 ADD MSTORE PUSH1 0xA0 DUP5 ADD MSTORE DUP2 DUP2 AND ISZERO ISZERO PUSH1 0xC0 DUP5 ADD MSTORE DUP2 DUP2 PUSH1 0x8 SHR AND ISZERO ISZERO PUSH1 0xE0 DUP5 ADD MSTORE DUP2 DUP2 PUSH1 0x10 SHR AND ISZERO ISZERO PUSH2 0x100 DUP5 ADD MSTORE DUP2 DUP2 PUSH1 0x18 SHR AND ISZERO ISZERO PUSH2 0x120 DUP5 ADD MSTORE PUSH1 0x20 SHR AND ISZERO ISZERO PUSH2 0x140 DUP3 ADD MSTORE RETURN JUMPDEST CALLVALUE PUSH2 0x2FD JUMPI PUSH1 0x20 DUP1 PUSH1 0x3 NOT CALLDATASIZE ADD SLT PUSH2 0x2FD JUMPI PUSH1 0x40 MLOAD PUSH4 0x23B872DD PUSH1 0xE0 SHL DUP2 MSTORE CALLER PUSH1 0x4 DUP3 DUP2 ADD SWAP2 SWAP1 SWAP2 MSTORE ADDRESS PUSH1 0x24 DUP4 ADD MSTORE CALLDATALOAD PUSH1 0x44 DUP3 ADD DUP2 SWAP1 MSTORE SWAP2 DUP1 DUP3 PUSH1 0x64 DUP2 PUSH1 0x0 PUSH32 0x0 PUSH1 0x1 PUSH1 0x1 PUSH1 0xA0 SHL SUB AND GAS CALL SWAP2 DUP3 ISZERO PUSH2 0x860 JUMPI PUSH1 0x0 SWAP3 PUSH2 0x144E JUMPI JUMPDEST POP PUSH2 0x1443 PUSH32 0xB9EA67A19AB6BC678D42C223C0B3C9B7947918F351C3377A0E07E1B7332444C7 SWAP3 PUSH2 0x3869 JUMP JUMPDEST PUSH1 0x40 MLOAD SWAP3 DUP4 MSTORE CALLER SWAP3 LOG2 STOP JUMPDEST SWAP2 POP DUP1 DUP3 DUP2 RETURNDATASIZE DUP4 GT PUSH2 0x14A1 JUMPI JUMPDEST PUSH2 0x1465 DUP2 DUP4 PUSH2 0x3643 JUMP JUMPDEST DUP2 ADD SUB SLT PUSH2 0x2FD JUMPI PUSH2 0x1443 PUSH2 0x149A PUSH32 0xB9EA67A19AB6BC678D42C223C0B3C9B7947918F351C3377A0E07E1B7332444C7 SWAP4 PUSH2 0x3665 JUMP JUMPDEST SWAP3 POP PUSH2 0x1418 JUMP JUMPDEST POP RETURNDATASIZE PUSH2 0x145B JUMP JUMPDEST CALLVALUE PUSH2 0x2FD JUMPI PUSH1 0x0 CALLDATASIZE PUSH1 0x3 NOT ADD SLT PUSH2 0x2FD JUMPI PUSH1 0x20 PUSH1 0x6 SLOAD PUSH1 0x40 MLOAD SWAP1 DUP2 MSTORE RETURN JUMPDEST CALLVALUE PUSH2 0x2FD JUMPI PUSH1 0x20 CALLDATASIZE PUSH1 0x3 NOT ADD SLT PUSH2 0x2FD JUMPI PUSH1 0x0 DUP1 MLOAD PUSH1 0x20 PUSH2 0x3C3E DUP4 CODECOPY DUP2 MLOAD SWAP2 MSTORE PUSH1 0xA0 PUSH1 0x4 CALLDATALOAD PUSH2 0x14FF PUSH1 0x1 DUP1 DUP5 SHL SUB PUSH1 0x0 SLOAD AND CALLER EQ PUSH2 0x3705 JUMP JUMPDEST PUSH10 0x21E19E0C9BAB2400000 DUP2 LT ISZERO DUP1 PUSH2 0x1558 JUMPI JUMPDEST PUSH2 0x151C SWAP1 PUSH2 0x3BC0 JUMP JUMPDEST PUSH1 0x9 SLOAD SWAP1 DUP1 PUSH1 0x9 SSTORE PUSH1 0x40 MLOAD SWAP2 PUSH1 0x60 DUP4 MSTORE PUSH1 0xF PUSH1 0x60 DUP5 ADD MSTORE PUSH15 0x149151915494905317D49155D05491 PUSH1 0x8A SHL PUSH1 0x80 DUP5 ADD MSTORE PUSH1 0x20 DUP4 ADD MSTORE PUSH1 0x40 DUP3 ADD MSTORE LOG1 STOP JUMPDEST POP PUSH10 0x152D02C7E14AF6800000 DUP2 GT ISZERO PUSH2 0x1513 JUMP JUMPDEST CALLVALUE PUSH2 0x2FD JUMPI PUSH1 0x0 CALLDATASIZE PUSH1 0x3 NOT ADD SLT PUSH2 0x2FD JUMPI PUSH1 0x0 SLOAD PUSH1 0x40 MLOAD PUSH1 0x1 PUSH1 0x1 PUSH1 0xA0 SHL SUB SWAP1 SWAP2 AND DUP2 MSTORE PUSH1 0x20 SWAP1 RETURN JUMPDEST CALLVALUE PUSH2 0x2FD JUMPI PUSH1 0x20 CALLDATASIZE PUSH1 0x3 NOT ADD SLT PUSH2 0x2FD JUMPI PUSH1 0x0 DUP1 MLOAD PUSH1 0x20 PUSH2 0x3C3E DUP4 CODECOPY DUP2 MLOAD SWAP2 MSTORE PUSH1 0xA0 PUSH1 0x4 CALLDATALOAD PUSH2 0x15CE PUSH1 0x1 DUP1 DUP5 SHL SUB PUSH1 0x0 SLOAD AND CALLER EQ PUSH2 0x3705 JUMP JUMPDEST PUSH10 0xA968163F0A57B400000 DUP2 LT ISZERO DUP1 PUSH2 0x1626 JUMPI JUMPDEST PUSH2 0x15EB SWAP1 PUSH2 0x3BC0 JUMP JUMPDEST PUSH1 0x4 SLOAD SWAP1 DUP1 PUSH1 0x4 SSTORE PUSH1 0x40 MLOAD SWAP2 PUSH1 0x60 DUP4 MSTORE PUSH1 0xE PUSH1 0x60 DUP5 ADD MSTORE PUSH14 0x129050D2D413D517D05353D55395 PUSH1 0x92 SHL PUSH1 0x80 DUP5 ADD MSTORE PUSH1 0x20 DUP4 ADD MSTORE PUSH1 0x40 DUP3 ADD MSTORE LOG1 STOP JUMPDEST POP PUSH10 0xD3C21BCECCEDA1000000 DUP2 GT ISZERO PUSH2 0x15E2 JUMP JUMPDEST CALLVALUE PUSH2 0x2FD JUMPI PUSH1 0x20 CALLDATASIZE PUSH1 0x3 NOT ADD SLT PUSH2 0x2FD JUMPI PUSH1 0x4 CALLDATALOAD PUSH2 0x1663 PUSH1 0x1 DUP1 PUSH1 0xA0 SHL SUB PUSH1 0x0 SLOAD AND CALLER EQ PUSH2 0x3705 JUMP JUMPDEST PUSH1 0x5 DUP2 LT ISZERO DUP1 PUSH2 0x16FB JUMPI JUMPDEST ISZERO PUSH2 0x16C7 JUMPI PUSH1 0xA0 PUSH1 0x0 DUP1 MLOAD PUSH1 0x20 PUSH2 0x3C3E DUP4 CODECOPY DUP2 MLOAD SWAP2 MSTORE SWAP2 PUSH1 0x3 SLOAD SWAP1 DUP1 PUSH1 0x3 SSTORE PUSH1 0x40 MLOAD SWAP2 PUSH1 0x60 DUP4 MSTORE PUSH1 0x15 PUSH1 0x60 DUP5 ADD MSTORE PUSH21 0x4D41585F53545245414B5F424F4E55535F44415953 PUSH1 0x58 SHL PUSH1 0x80 DUP5 ADD MSTORE PUSH1 0x20 DUP4 ADD MSTORE PUSH1 0x40 DUP3 ADD MSTORE LOG1 STOP JUMPDEST PUSH1 0x40 MLOAD PUSH3 0x461BCD PUSH1 0xE5 SHL DUP2 MSTORE PUSH1 0x20 PUSH1 0x4 DUP3 ADD MSTORE PUSH1 0xC PUSH1 0x24 DUP3 ADD MSTORE PUSH12 0x496E76616C69642064617973 PUSH1 0xA0 SHL PUSH1 0x44 DUP3 ADD MSTORE PUSH1 0x64 SWAP1 REVERT JUMPDEST POP PUSH1 0x1E DUP2 GT ISZERO PUSH2 0x166E JUMP JUMPDEST CALLVALUE PUSH2 0x2FD JUMPI PUSH1 0x0 CALLDATASIZE PUSH1 0x3 NOT ADD SLT PUSH2 0x2FD JUMPI PUSH1 0xFF PUSH1 0x11 SLOAD PUSH2 0x172B DUP3 DUP3 PUSH1 0xA8 SHR AND ISZERO PUSH2 0x3777 JUMP JUMPDEST PUSH1 0xA0 SHR AND ISZERO PUSH2 0x1D9E JUMPI CALLER PUSH1 0x0 MSTORE PUSH1 0x20 PUSH1 0x12 DUP2 MSTORE PUSH2 0x1750 PUSH1 0xFF PUSH1 0x40 PUSH1 0x0 KECCAK256 SLOAD AND ISZERO PUSH2 0x37B8 JUMP JUMPDEST CALLER PUSH1 0x0 MSTORE PUSH1 0x13 DUP2 MSTORE PUSH1 0x40 PUSH1 0x0 KECCAK256 DUP1 SLOAD PUSH3 0x15180 DUP2 ADD DUP1 DUP3 GT PUSH2 0x1D38 JUMPI TIMESTAMP LT PUSH2 0x1D61 JUMPI ISZERO PUSH2 0x1D4E JUMPI JUMPDEST DUP1 SLOAD DUP1 ISZERO ISZERO SWAP1 DUP2 PUSH2 0x1D20 JUMPI JUMPDEST POP ISZERO PUSH2 0x1D15 JUMPI PUSH1 0x1 DUP2 ADD PUSH2 0x1798 DUP2 SLOAD PUSH2 0x36F6 JUMP JUMPDEST SWAP1 SSTORE JUMPDEST PUSH1 0x1 DUP2 ADD SWAP2 DUP3 SLOAD SWAP3 DUP4 PUSH1 0x2 DUP5 ADD DUP1 SLOAD DUP3 GT PUSH2 0x1D0D JUMPI JUMPDEST POP POP PUSH2 0x17D3 PUSH1 0x1 SLOAD SWAP5 PUSH1 0x3 SLOAD SWAP1 DUP2 DUP2 GT PUSH1 0x0 EQ PUSH2 0x1D06 JUMPI POP JUMPDEST PUSH1 0x2 SLOAD SWAP1 PUSH2 0x380A JUMP JUMPDEST PUSH2 0x17DD DUP2 DUP7 PUSH2 0x37FD JUMP JUMPDEST SWAP2 PUSH1 0xE SWAP5 DUP6 SLOAD PUSH1 0x40 MLOAD SWAP1 DUP7 DUP3 ADD SWAP1 TIMESTAMP DUP3 MSTORE PREVRANDAO PUSH1 0x40 DUP5 ADD MSTORE CALLER PUSH1 0x60 SHL PUSH1 0x60 DUP5 ADD MSTORE PUSH1 0x74 DUP4 ADD MSTORE NUMBER PUSH1 0x94 DUP4 ADD MSTORE PUSH1 0x94 DUP3 MSTORE PUSH1 0xC0 DUP3 ADD SWAP2 DUP1 DUP4 LT PUSH8 0xFFFFFFFFFFFFFFFF DUP5 GT OR PUSH2 0x1CF0 JUMPI PUSH1 0x64 SWAP3 PUSH1 0x40 MSTORE MLOAD SWAP1 KECCAK256 MOD PUSH1 0x5 SLOAD GT SWAP6 DUP7 PUSH2 0x1CCC JUMPI JUMPDEST PUSH1 0x40 MLOAD PUSH4 0x70A08231 PUSH1 0xE0 SHL DUP1 DUP3 MSTORE ADDRESS PUSH1 0x4 DUP4 ADD MSTORE PUSH32 0x0 PUSH1 0x1 PUSH1 0x1 PUSH1 0xA0 SHL SUB AND SWAP4 SWAP1 SWAP2 SWAP1 DUP9 DUP3 PUSH1 0x24 DUP2 DUP9 GAS STATICCALL DUP1 ISZERO PUSH2 0x860 JUMPI DUP9 SWAP3 PUSH1 0x0 SWAP2 PUSH2 0x1C98 JUMPI JUMPDEST POP PUSH1 0x3 SWAP3 PUSH2 0x18A2 SWAP2 LT ISZERO PUSH2 0x381D JUMP JUMPDEST TIMESTAMP DUP2 SSTORE ADD PUSH2 0x18B1 DUP8 DUP3 SLOAD PUSH2 0x37FD JUMP JUMPDEST SWAP1 SSTORE PUSH2 0x18BE DUP7 DUP4 SLOAD PUSH2 0x37FD JUMP JUMPDEST DUP3 SSTORE PUSH2 0x18CB PUSH1 0x10 SLOAD PUSH2 0x36F6 JUMP JUMPDEST PUSH1 0x10 SSTORE PUSH2 0x18D7 CALLER PUSH2 0x3A31 JUMP JUMPDEST CALLER PUSH1 0x0 MSTORE PUSH1 0x13 DUP8 MSTORE PUSH1 0x40 PUSH1 0x0 KECCAK256 SWAP2 PUSH1 0x1 DUP4 ADD PUSH1 0x7 DUP2 SLOAD LT ISZERO DUP1 PUSH2 0x1C86 JUMPI JUMPDEST PUSH2 0x1B30 JUMPI JUMPDEST PUSH1 0x1E SWAP1 SLOAD LT ISZERO DUP1 PUSH2 0x1B1E JUMPI JUMPDEST PUSH2 0x19C7 JUMPI JUMPDEST POP POP PUSH1 0x40 MLOAD PUSH4 0xA9059CBB PUSH1 0xE0 SHL DUP2 MSTORE CALLER PUSH1 0x4 DUP3 ADD MSTORE PUSH1 0x24 DUP2 ADD DUP7 SWAP1 MSTORE SWAP2 DUP7 SWAP2 POP DUP3 SWAP1 PUSH1 0x44 SWAP1 DUP3 SWAP1 PUSH1 0x0 SWAP1 GAS CALL DUP1 ISZERO PUSH2 0x860 JUMPI PUSH1 0x0 SWAP1 PUSH2 0x1991 JUMPI JUMPDEST PUSH2 0x194F SWAP2 POP PUSH2 0x3869 JUMP JUMPDEST SLOAD SWAP3 PUSH1 0x40 MLOAD SWAP6 DUP7 MSTORE DUP6 ADD MSTORE PUSH1 0x40 DUP5 ADD MSTORE PUSH1 0x60 DUP4 ADD MSTORE PUSH1 0x80 DUP3 ADD MSTORE PUSH32 0xB3CF2CD3B2CE31E0FF7CBB3F2562D51047E60D290A130FEFC85FB019EE6FCC0 PUSH1 0xA0 CALLER SWAP3 LOG2 STOP JUMPDEST POP DUP5 DUP2 DUP2 RETURNDATASIZE DUP4 GT PUSH2 0x19C0 JUMPI JUMPDEST PUSH2 0x19A7 DUP2 DUP4 PUSH2 0x3643 JUMP JUMPDEST DUP2 ADD SUB SLT PUSH2 0x2FD JUMPI PUSH2 0x19BB PUSH2 0x194F SWAP2 PUSH2 0x3665 JUMP JUMPDEST PUSH2 0x1945 JUMP JUMPDEST POP RETURNDATASIZE PUSH2 0x199D JUMP JUMPDEST PUSH1 0x6 DUP4 ADD DUP1 SLOAD PUSH4 0xFF000000 NOT AND PUSH4 0x1000000 OR SWAP1 SSTORE PUSH1 0x40 MLOAD SWAP2 DUP3 MSTORE ADDRESS PUSH1 0x4 DUP4 ADD MSTORE DUP8 DUP3 PUSH1 0x24 DUP2 DUP8 GAS STATICCALL DUP1 ISZERO PUSH2 0x860 JUMPI DUP9 SWAP3 PUSH1 0x0 SWAP2 PUSH2 0x1AEF JUMPI JUMPDEST POP PUSH1 0xD SLOAD DUP1 SWAP2 LT ISZERO PUSH2 0x1A13 JUMPI JUMPDEST POP PUSH2 0x190B JUMP JUMPDEST PUSH2 0x1A25 PUSH1 0x3 PUSH2 0x1A5F SWAP6 ADD SWAP2 DUP3 SLOAD PUSH2 0x37FD JUMP JUMPDEST SWAP1 SSTORE PUSH1 0xD SLOAD SWAP1 PUSH2 0x1A36 DUP3 DUP3 SLOAD PUSH2 0x37FD JUMP JUMPDEST SWAP1 SSTORE PUSH1 0x40 MLOAD PUSH4 0xA9059CBB PUSH1 0xE0 SHL DUP2 MSTORE CALLER PUSH1 0x4 DUP3 ADD MSTORE PUSH1 0x24 DUP2 ADD SWAP2 SWAP1 SWAP2 MSTORE SWAP2 DUP3 SWAP1 DUP2 SWAP1 PUSH1 0x44 DUP3 ADD SWAP1 JUMP JUMPDEST SUB DUP2 PUSH1 0x0 DUP7 GAS CALL DUP1 ISZERO PUSH2 0x860 JUMPI PUSH2 0x1ABB JUMPI JUMPDEST POP PUSH1 0xD SLOAD PUSH1 0x40 MLOAD SWAP1 PUSH1 0x40 DUP3 MSTORE PUSH1 0xD PUSH1 0x40 DUP4 ADD MSTORE PUSH13 0x33305F4441595F53545245414B PUSH1 0x98 SHL PUSH1 0x60 DUP4 ADD MSTORE DUP7 DUP3 ADD MSTORE PUSH1 0x0 DUP1 MLOAD PUSH1 0x20 PUSH2 0x3BFE DUP4 CODECOPY DUP2 MLOAD SWAP2 MSTORE PUSH1 0x80 CALLER SWAP3 LOG2 DUP8 DUP6 DUP2 DUP1 PUSH2 0x1A0D JUMP JUMPDEST DUP6 DUP2 DUP2 RETURNDATASIZE DUP4 GT PUSH2 0x1AE8 JUMPI JUMPDEST PUSH2 0x1AD0 DUP2 DUP4 PUSH2 0x3643 JUMP JUMPDEST DUP2 ADD SUB SLT PUSH2 0x2FD JUMPI PUSH2 0x1AE1 SWAP1 PUSH2 0x3665 JUMP JUMPDEST POP DUP8 PUSH2 0x1A71 JUMP JUMPDEST POP RETURNDATASIZE PUSH2 0x1AC6 JUMP JUMPDEST DUP4 DUP2 SWAP5 SWAP3 POP RETURNDATASIZE DUP4 GT PUSH2 0x1B17 JUMPI JUMPDEST PUSH2 0x1B06 DUP2 DUP4 PUSH2 0x3643 JUMP JUMPDEST DUP2 ADD SUB SLT PUSH2 0x2FD JUMPI DUP8 SWAP2 MLOAD DUP12 PUSH2 0x1A00 JUMP JUMPDEST POP RETURNDATASIZE PUSH2 0x1AFC JUMP JUMPDEST POP PUSH1 0xFF PUSH1 0x6 DUP5 ADD SLOAD PUSH1 0x18 SHR AND ISZERO PUSH2 0x1906 JUMP JUMPDEST PUSH1 0x6 DUP5 ADD DUP1 SLOAD PUSH3 0xFF0000 NOT AND PUSH3 0x10000 OR SWAP1 SSTORE PUSH1 0x40 MLOAD DUP4 DUP2 MSTORE ADDRESS PUSH1 0x4 DUP3 ADD MSTORE SWAP1 DUP10 DUP3 PUSH1 0x24 DUP2 DUP10 GAS STATICCALL SWAP2 DUP3 ISZERO PUSH2 0x860 JUMPI PUSH1 0x0 SWAP3 PUSH2 0x1C57 JUMPI JUMPDEST POP PUSH1 0xC SLOAD DUP1 SWAP3 LT ISZERO PUSH2 0x1B7B JUMPI JUMPDEST SWAP1 POP PUSH2 0x18FA JUMP JUMPDEST PUSH2 0x1BC8 SWAP2 PUSH2 0x1B8E PUSH1 0x3 DUP8 ADD SWAP2 DUP3 SLOAD PUSH2 0x37FD JUMP JUMPDEST SWAP1 SSTORE DUP10 PUSH1 0xC SLOAD PUSH2 0x1B9F DUP2 DUP7 SLOAD PUSH2 0x37FD JUMP JUMPDEST DUP6 SSTORE PUSH1 0x40 MLOAD PUSH4 0xA9059CBB PUSH1 0xE0 SHL DUP2 MSTORE CALLER PUSH1 0x4 DUP3 ADD MSTORE PUSH1 0x24 DUP2 ADD SWAP2 SWAP1 SWAP2 MSTORE SWAP3 DUP4 SWAP1 DUP2 SWAP1 PUSH1 0x44 DUP3 ADD SWAP1 JUMP JUMPDEST SUB DUP2 PUSH1 0x0 DUP11 GAS CALL DUP1 ISZERO PUSH2 0x860 JUMPI PUSH2 0x1C22 JUMPI JUMPDEST PUSH1 0x1E SWAP2 POP PUSH1 0xC SLOAD PUSH1 0x40 MLOAD SWAP1 PUSH1 0x40 DUP3 MSTORE PUSH1 0xC PUSH1 0x40 DUP4 ADD MSTORE PUSH12 0x375F4441595F53545245414B PUSH1 0xA0 SHL PUSH1 0x60 DUP4 ADD MSTORE DUP12 DUP3 ADD MSTORE PUSH1 0x0 DUP1 MLOAD PUSH1 0x20 PUSH2 0x3BFE DUP4 CODECOPY DUP2 MLOAD SWAP2 MSTORE PUSH1 0x80 CALLER SWAP3 LOG2 PUSH2 0x1B74 JUMP JUMPDEST DUP10 DUP3 DUP2 RETURNDATASIZE DUP4 GT PUSH2 0x1C50 JUMPI JUMPDEST PUSH2 0x1C37 DUP2 DUP4 PUSH2 0x3643 JUMP JUMPDEST DUP2 ADD SUB SLT PUSH2 0x2FD JUMPI PUSH2 0x1C4A PUSH1 0x1E SWAP3 PUSH2 0x3665 JUMP JUMPDEST POP PUSH2 0x1BDA JUMP JUMPDEST POP RETURNDATASIZE PUSH2 0x1C2D JUMP JUMPDEST SWAP1 SWAP2 POP DUP10 DUP2 DUP2 RETURNDATASIZE DUP4 GT PUSH2 0x1C7F JUMPI JUMPDEST PUSH2 0x1C6F DUP2 DUP4 PUSH2 0x3643 JUMP JUMPDEST DUP2 ADD SUB SLT PUSH2 0x2FD JUMPI MLOAD SWAP1 DUP13 PUSH2 0x1B67 JUMP JUMPDEST POP RETURNDATASIZE PUSH2 0x1C65 JUMP JUMPDEST POP PUSH1 0xFF PUSH1 0x6 DUP6 ADD SLOAD PUSH1 0x10 SHR AND ISZERO PUSH2 0x18F5 JUMP JUMPDEST DUP1 SWAP4 POP DUP11 DUP1 SWAP3 POP RETURNDATASIZE DUP4 GT PUSH2 0x1CC5 JUMPI JUMPDEST PUSH2 0x1CB1 DUP2 DUP4 PUSH2 0x3643 JUMP JUMPDEST DUP2 ADD SUB SLT PUSH2 0x2FD JUMPI SWAP1 MLOAD DUP8 SWAP2 SWAP1 PUSH1 0x3 PUSH2 0x1893 JUMP JUMPDEST POP RETURNDATASIZE PUSH2 0x1CA7 JUMP JUMPDEST SWAP4 PUSH2 0x1CDA SWAP1 PUSH1 0x4 SLOAD SWAP1 PUSH2 0x37FD JUMP JUMPDEST SWAP4 PUSH1 0x5 DUP3 ADD PUSH2 0x1CE9 DUP2 SLOAD PUSH2 0x36F6 JUMP JUMPDEST SWAP1 SSTORE PUSH2 0x1839 JUMP JUMPDEST PUSH4 0x4E487B71 PUSH1 0xE0 SHL PUSH1 0x0 MSTORE PUSH1 0x41 PUSH1 0x4 MSTORE PUSH1 0x24 PUSH1 0x0 REVERT JUMPDEST SWAP1 POP PUSH2 0x17CA JUMP JUMPDEST SSTORE DUP4 DUP6 PUSH2 0x17B1 JUMP JUMPDEST PUSH1 0x1 DUP1 DUP3 ADD SSTORE PUSH2 0x179B JUMP JUMPDEST SWAP1 POP PUSH3 0x2A300 DUP2 ADD DUP1 SWAP2 GT PUSH2 0x1D38 JUMPI TIMESTAMP GT ISZERO DUP4 PUSH2 0x1784 JUMP JUMPDEST PUSH4 0x4E487B71 PUSH1 0xE0 SHL PUSH1 0x0 MSTORE PUSH1 0x11 PUSH1 0x4 MSTORE PUSH1 0x24 PUSH1 0x0 REVERT JUMPDEST PUSH2 0x1D59 PUSH1 0xF SLOAD PUSH2 0x36F6 JUMP JUMPDEST PUSH1 0xF SSTORE PUSH2 0x1778 JUMP JUMPDEST PUSH1 0x40 MLOAD PUSH3 0x461BCD PUSH1 0xE5 SHL DUP2 MSTORE PUSH1 0x4 DUP2 ADD DUP5 SWAP1 MSTORE PUSH1 0x15 PUSH1 0x24 DUP3 ADD MSTORE PUSH21 0x416C726561647920636C61696D656420746F646179 PUSH1 0x58 SHL PUSH1 0x44 DUP3 ADD MSTORE PUSH1 0x64 SWAP1 REVERT JUMPDEST PUSH1 0x40 MLOAD PUSH3 0x461BCD PUSH1 0xE5 SHL DUP2 MSTORE PUSH1 0x20 PUSH1 0x4 DUP3 ADD MSTORE PUSH1 0x14 PUSH1 0x24 DUP3 ADD MSTORE PUSH20 0x10DB185A5B5A5B99C81A5CC8191A5CD8589B1959 PUSH1 0x62 SHL PUSH1 0x44 DUP3 ADD MSTORE PUSH1 0x64 SWAP1 REVERT JUMPDEST CALLVALUE PUSH2 0x2FD JUMPI PUSH1 0x20 CALLDATASIZE PUSH1 0x3 NOT ADD SLT PUSH2 0x2FD JUMPI PUSH1 0x0 DUP1 MLOAD PUSH1 0x20 PUSH2 0x3C3E DUP4 CODECOPY DUP2 MLOAD SWAP2 MSTORE PUSH1 0xA0 PUSH1 0x4 CALLDATALOAD PUSH2 0x1E13 PUSH1 0x1 DUP1 DUP5 SHL SUB PUSH1 0x0 SLOAD AND CALLER EQ PUSH2 0x3705 JUMP JUMPDEST PUSH10 0x21E19E0C9BAB2400000 DUP2 LT ISZERO DUP1 PUSH2 0x1E6E JUMPI JUMPDEST PUSH2 0x1E30 SWAP1 PUSH2 0x3BC0 JUMP JUMPDEST PUSH1 0x6 SLOAD SWAP1 DUP1 PUSH1 0x6 SSTORE PUSH1 0x40 MLOAD SWAP2 PUSH1 0x60 DUP4 MSTORE PUSH1 0x11 PUSH1 0x60 DUP5 ADD MSTORE PUSH17 0x14D210549157D0D054D517D49155D05491 PUSH1 0x7A SHL PUSH1 0x80 DUP5 ADD MSTORE PUSH1 0x20 DUP4 ADD MSTORE PUSH1 0x40 DUP3 ADD MSTORE LOG1 STOP JUMPDEST POP PUSH10 0x2A5A058FC295ED000000 DUP2 GT ISZERO PUSH2 0x1E27 JUMP JUMPDEST CALLVALUE PUSH2 0x2FD JUMPI PUSH1 0x0 CALLDATASIZE PUSH1 0x3 NOT ADD SLT PUSH2 0x2FD JUMPI PUSH1 0x20 PUSH1 0xB SLOAD PUSH1 0x40 MLOAD SWAP1 DUP2 MSTORE RETURN JUMPDEST CALLVALUE PUSH2 0x2FD JUMPI PUSH2 0x1EB4 PUSH2 0x68E PUSH2 0x650 CALLDATASIZE PUSH2 0x359B JUMP JUMPDEST CALLER PUSH1 0x0 MSTORE PUSH1 0x13 DUP3 MSTORE PUSH1 0x40 PUSH1 0x0 KECCAK256 SWAP1 PUSH2 0x1ECD CALLDATASIZE DUP3 DUP7 PUSH2 0x38E7 JUMP JUMPDEST DUP1 MLOAD SWAP1 DUP5 ADD KECCAK256 PUSH32 0xB54E063503447BCE6485ADAB005B8755B54DED950878440B84F8E79A1196702E DUP2 SUB PUSH2 0x206B JUMPI POP PUSH1 0x6 DUP3 ADD PUSH1 0x1 DUP2 SLOAD PUSH2 0x1F10 PUSH1 0xFF DUP3 AND ISZERO PUSH2 0x39A9 JUMP JUMPDEST PUSH1 0xFF NOT AND OR SWAP1 SSTORE PUSH1 0xA SLOAD SWAP2 JUMPDEST PUSH1 0x40 MLOAD PUSH4 0x70A08231 PUSH1 0xE0 SHL DUP2 MSTORE ADDRESS PUSH1 0x4 DUP3 ADD MSTORE PUSH32 0x0 PUSH1 0x1 PUSH1 0x1 PUSH1 0xA0 SHL SUB AND SWAP2 DUP6 DUP3 PUSH1 0x24 DUP2 DUP7 GAS STATICCALL DUP1 ISZERO PUSH2 0x860 JUMPI DUP6 SWAP3 PUSH1 0x0 SWAP2 PUSH2 0x2037 JUMPI JUMPDEST POP PUSH1 0x3 SWAP3 PUSH2 0x1F81 SWAP2 LT ISZERO PUSH2 0x381D JUMP JUMPDEST ADD PUSH2 0x1F8D DUP5 DUP3 SLOAD PUSH2 0x37FD JUMP JUMPDEST SWAP1 SSTORE PUSH2 0x1F9B DUP4 PUSH1 0xE SLOAD PUSH2 0x37FD JUMP JUMPDEST PUSH1 0xE SSTORE PUSH1 0x40 MLOAD PUSH4 0xA9059CBB PUSH1 0xE0 SHL DUP2 MSTORE CALLER PUSH1 0x4 DUP3 ADD MSTORE PUSH1 0x24 DUP2 ADD DUP5 SWAP1 MSTORE SWAP1 DUP5 SWAP1 DUP3 SWAP1 PUSH1 0x44 SWAP1 DUP3 SWAP1 PUSH1 0x0 SWAP1 GAS CALL SWAP4 DUP5 ISZERO PUSH2 0x860 JUMPI PUSH1 0x0 SWAP5 PUSH2 0x1FF0 JUMPI JUMPDEST POP POP PUSH2 0x7F1 PUSH1 0x0 DUP1 MLOAD PUSH1 0x20 PUSH2 0x3BFE DUP4 CODECOPY DUP2 MLOAD SWAP2 MSTORE SWAP4 PUSH2 0x3869 JUMP JUMPDEST SWAP1 DUP1 SWAP5 POP DUP2 RETURNDATASIZE DUP4 GT PUSH2 0x2030 JUMPI JUMPDEST PUSH2 0x2007 DUP2 DUP4 PUSH2 0x3643 JUMP JUMPDEST DUP2 ADD SUB SLT PUSH2 0x2FD JUMPI PUSH2 0x7F1 PUSH2 0x202A PUSH1 0x0 DUP1 MLOAD PUSH1 0x20 PUSH2 0x3BFE DUP4 CODECOPY DUP2 MLOAD SWAP2 MSTORE SWAP5 PUSH2 0x3665 JUMP JUMPDEST SWAP4 PUSH2 0x1FD6 JUMP JUMPDEST POP RETURNDATASIZE PUSH2 0x1FFD JUMP JUMPDEST DUP1 SWAP4 POP DUP8 DUP1 SWAP3 POP RETURNDATASIZE DUP4 GT PUSH2 0x2064 JUMPI JUMPDEST PUSH2 0x2050 DUP2 DUP4 PUSH2 0x3643 JUMP JUMPDEST DUP2 ADD SUB SLT PUSH2 0x2FD JUMPI SWAP1 MLOAD DUP5 SWAP2 SWAP1 PUSH1 0x3 PUSH2 0x1F72 JUMP JUMPDEST POP RETURNDATASIZE PUSH2 0x2046 JUMP JUMPDEST PUSH32 0x126235D9D2E6036D7FAC7E99F1DCD31ADA7FF126658A7DD43824F3E4F265D039 SUB PUSH2 0x20BB JUMPI PUSH1 0x6 DUP3 ADD PUSH2 0x100 DUP2 SLOAD PUSH2 0x20AA PUSH1 0xFF DUP3 PUSH1 0x8 SHR AND ISZERO PUSH2 0x39A9 JUMP JUMPDEST PUSH2 0xFF00 NOT AND OR SWAP1 SSTORE PUSH1 0xB SLOAD SWAP2 PUSH2 0x1F1C JUMP JUMPDEST PUSH1 0x40 MLOAD PUSH3 0x461BCD PUSH1 0xE5 SHL DUP2 MSTORE PUSH1 0x4 DUP2 ADD DUP5 SWAP1 MSTORE PUSH1 0x18 PUSH1 0x24 DUP3 ADD MSTORE PUSH32 0x496E76616C696420616368696576656D656E7420747970650000000000000000 PUSH1 0x44 DUP3 ADD MSTORE PUSH1 0x64 SWAP1 REVERT JUMPDEST CALLVALUE PUSH2 0x2FD JUMPI PUSH1 0x0 CALLDATASIZE PUSH1 0x3 NOT ADD SLT PUSH2 0x2FD JUMPI PUSH2 0x2122 PUSH1 0xFF PUSH1 0x11 SLOAD PUSH1 0xB0 SHR AND PUSH2 0x35E6 JUMP JUMPDEST CALLER PUSH1 0x0 MSTORE PUSH1 0x20 PUSH1 0x13 DUP2 MSTORE PUSH1 0xFF PUSH1 0x6 PUSH1 0x40 PUSH1 0x0 KECCAK256 ADD SLOAD DUP3 SHR AND PUSH2 0x24BF JUMPI CALLER PUSH1 0x0 MSTORE PUSH1 0x12 DUP2 MSTORE PUSH1 0xFF PUSH1 0x40 PUSH1 0x0 KECCAK256 SLOAD AND PUSH2 0x2470 JUMPI PUSH1 0x40 MLOAD PUSH4 0x543A185D PUSH1 0xE1 SHL DUP2 MSTORE CALLER PUSH1 0x4 DUP3 ADD MSTORE PUSH1 0x1 PUSH1 0x1 PUSH1 0xA0 SHL SUB SWAP2 PUSH32 0x0 DUP4 AND SWAP2 PUSH2 0x140 SWAP1 DUP2 DUP2 PUSH1 0x24 DUP2 DUP8 GAS STATICCALL SWAP3 DUP4 ISZERO PUSH2 0x860 JUMPI PUSH1 0x0 SWAP5 PUSH1 0x0 SWAP7 PUSH1 0x0 SWAP7 PUSH1 0x0 DUP1 PUSH1 0x0 SWAP2 PUSH1 0x0 SWAP11 PUSH1 0x0 SWAP9 PUSH1 0x0 SWAP11 PUSH1 0x0 SWAP13 PUSH2 0x2432 JUMPI JUMPDEST POP POP DUP5 ISZERO PUSH2 0x23F6 JUMPI CALLER PUSH1 0x0 DUP2 DUP2 MSTORE PUSH1 0x13 DUP11 MSTORE PUSH1 0x40 SWAP1 DUP2 SWAP1 KECCAK256 SWAP7 DUP8 SSTORE PUSH1 0x1 DUP8 ADD DUP16 SWAP1 SSTORE PUSH1 0x2 DUP8 ADD SWAP3 SWAP1 SWAP3 SSTORE PUSH1 0x3 DUP7 ADD SWAP3 SWAP1 SWAP3 SSTORE PUSH1 0x4 DUP1 DUP7 ADD SWAP4 SWAP1 SWAP4 SSTORE PUSH1 0x5 DUP6 ADD SWAP4 SWAP1 SWAP4 SSTORE PUSH1 0x6 SWAP1 SWAP4 ADD DUP1 SLOAD PUSH5 0x100000000 PUSH5 0xFFFFFFFFFF NOT SWAP1 SWAP2 AND DUP13 ISZERO ISZERO PUSH1 0xFF AND OR PUSH2 0xFF00 DUP11 ISZERO ISZERO PUSH1 0x8 SHL AND OR PUSH3 0xFF0000 DUP12 ISZERO ISZERO PUSH1 0x10 SHL AND OR PUSH4 0xFF000000 DUP13 ISZERO ISZERO PUSH1 0x18 SHL AND OR OR SWAP1 SSTORE SWAP1 MLOAD PUSH4 0x5487C74D PUSH1 0xE1 SHL DUP2 MSTORE SWAP1 DUP2 ADD SWAP2 SWAP1 SWAP2 MSTORE DUP4 DUP2 PUSH1 0x24 DUP2 DUP7 GAS STATICCALL SWAP1 DUP2 ISZERO PUSH2 0x860 JUMPI PUSH1 0x0 SWAP2 PUSH2 0x23D9 JUMPI JUMPDEST POP AND DUP1 PUSH2 0x22F0 JUMPI JUMPDEST POP POP POP SWAP2 PUSH1 0x0 DUP1 MLOAD PUSH1 0x20 PUSH2 0x3C1E DUP4 CODECOPY DUP2 MLOAD SWAP2 MSTORE SWAP4 SWAP2 PUSH2 0x802 SWAP4 PUSH2 0x22A4 PUSH1 0xF SLOAD PUSH2 0x36F6 JUMP JUMPDEST PUSH1 0xF SSTORE DUP4 ISZERO PUSH2 0x22E8 JUMPI JUMPDEST POP DUP3 ISZERO PUSH2 0x22E0 JUMPI JUMPDEST POP DUP2 ISZERO PUSH2 0x22D8 JUMPI JUMPDEST POP PUSH1 0x40 DUP1 MLOAD SWAP5 DUP6 MSTORE SWAP1 ISZERO ISZERO PUSH1 0x20 DUP6 ADD MSTORE CALLER SWAP4 SWAP2 DUP3 SWAP2 DUP3 ADD SWAP1 JUMP JUMPDEST SWAP1 POP DUP5 PUSH2 0x22BE JUMP JUMPDEST SWAP2 POP DUP6 PUSH2 0x22B6 JUMP JUMPDEST SWAP3 POP DUP7 PUSH2 0x22AE JUMP JUMPDEST SWAP2 DUP1 SWAP2 PUSH1 0x24 SWAP4 CALLER PUSH1 0x0 MSTORE PUSH1 0x15 DUP4 MSTORE PUSH1 0x40 PUSH1 0x0 KECCAK256 SWAP1 PUSH1 0x1 PUSH1 0x1 PUSH1 0x60 SHL SUB PUSH1 0xA0 SHL DUP3 SLOAD AND OR SWAP1 SSTORE PUSH1 0x40 MLOAD SWAP4 DUP5 DUP1 SWAP3 PUSH4 0x4DAD19D PUSH1 0xE1 SHL DUP3 MSTORE CALLER PUSH1 0x4 DUP4 ADD MSTORE GAS STATICCALL SWAP2 DUP3 ISZERO PUSH2 0x860 JUMPI PUSH1 0x0 SWAP3 PUSH2 0x2380 JUMPI JUMPDEST POP SWAP2 PUSH2 0x2376 PUSH1 0x0 DUP1 MLOAD PUSH1 0x20 PUSH2 0x3C1E DUP4 CODECOPY DUP2 MLOAD SWAP2 MSTORE SWAP7 SWAP5 SWAP3 PUSH1 0x17 PUSH2 0x802 SWAP8 SWAP6 CALLER PUSH1 0x0 MSTORE MSTORE PUSH1 0x40 PUSH1 0x0 KECCAK256 SWAP1 PUSH1 0xFF DUP1 NOT DUP4 SLOAD AND SWAP2 ISZERO ISZERO AND OR SWAP1 SSTORE JUMP JUMPDEST SWAP2 SWAP4 DUP2 SWAP4 SWAP6 PUSH2 0x2280 JUMP JUMPDEST SWAP6 SWAP4 SWAP2 POP SWAP4 SWAP2 DUP5 DUP7 DUP2 RETURNDATASIZE DUP4 GT PUSH2 0x23D2 JUMPI JUMPDEST PUSH2 0x239B DUP2 DUP4 PUSH2 0x3643 JUMP JUMPDEST DUP2 ADD SUB SLT PUSH2 0x2FD JUMPI PUSH2 0x2376 PUSH2 0x802 SWAP6 PUSH1 0x17 PUSH2 0x23C4 PUSH1 0x0 DUP1 MLOAD PUSH1 0x20 PUSH2 0x3C1E DUP4 CODECOPY DUP2 MLOAD SWAP2 MSTORE SWAP10 PUSH2 0x3665 JUMP JUMPDEST SWAP5 SWAP7 SWAP9 POP POP SWAP2 SWAP4 SWAP6 POP PUSH2 0x233D JUMP JUMPDEST POP RETURNDATASIZE PUSH2 0x2391 JUMP JUMPDEST PUSH2 0x23F0 SWAP2 POP DUP5 RETURNDATASIZE DUP7 GT PUSH2 0x1195 JUMPI PUSH2 0x1187 DUP2 DUP4 PUSH2 0x3643 JUMP JUMPDEST DUP10 PUSH2 0x2278 JUMP JUMPDEST PUSH1 0x40 MLOAD PUSH3 0x461BCD PUSH1 0xE5 SHL DUP2 MSTORE PUSH1 0x4 DUP2 ADD DUP10 SWAP1 MSTORE PUSH1 0x14 PUSH1 0x24 DUP3 ADD MSTORE PUSH20 0x55736572206E6F7420666F756E6420696E205631 PUSH1 0x60 SHL PUSH1 0x44 DUP3 ADD MSTORE PUSH1 0x64 SWAP1 REVERT JUMPDEST SWAP9 SWAP14 POP SWAP9 POP POP POP POP POP POP SWAP5 POP SWAP5 POP PUSH2 0x2456 SWAP3 POP DUP1 RETURNDATASIZE LT PUSH2 0x11F3 JUMPI PUSH2 0x11D7 DUP2 DUP4 PUSH2 0x3643 JUMP JUMPDEST SWAP8 SWAP12 SWAP3 SWAP11 SWAP8 SWAP10 SWAP1 SWAP9 SWAP2 SWAP8 SWAP3 SWAP7 SWAP3 SWAP6 SWAP1 SWAP5 SWAP2 SWAP4 SWAP3 DUP14 DUP1 PUSH2 0x21C6 JUMP JUMPDEST PUSH1 0x84 SWAP1 PUSH1 0x40 MLOAD SWAP1 PUSH3 0x461BCD PUSH1 0xE5 SHL DUP3 MSTORE PUSH1 0x4 DUP3 ADD MSTORE PUSH1 0x22 PUSH1 0x24 DUP3 ADD MSTORE PUSH32 0x43616E6E6F74206D69677261746520626C61636B6C6973746564206164647265 PUSH1 0x44 DUP3 ADD MSTORE PUSH2 0x7373 PUSH1 0xF0 SHL PUSH1 0x64 DUP3 ADD MSTORE REVERT JUMPDEST PUSH1 0x64 SWAP1 PUSH1 0x40 MLOAD SWAP1 PUSH3 0x461BCD PUSH1 0xE5 SHL DUP3 MSTORE PUSH1 0x4 DUP3 ADD MSTORE PUSH1 0x10 PUSH1 0x24 DUP3 ADD MSTORE PUSH16 0x105B1C9958591E481B5A59DC985D1959 PUSH1 0x82 SHL PUSH1 0x44 DUP3 ADD MSTORE REVERT JUMPDEST CALLVALUE PUSH2 0x2FD JUMPI PUSH1 0x20 CALLDATASIZE PUSH1 0x3 NOT ADD SLT PUSH2 0x2FD JUMPI PUSH2 0x250F PUSH2 0x3517 JUMP JUMPDEST PUSH1 0x0 SLOAD PUSH1 0x1 PUSH1 0x1 PUSH1 0xA0 SHL SUB SWAP2 SWAP1 PUSH2 0x2529 SWAP1 DUP4 AND CALLER EQ PUSH2 0x3705 JUMP JUMPDEST AND DUP1 ISZERO PUSH2 0x2569 JUMPI PUSH1 0x11 DUP1 SLOAD PUSH1 0x1 PUSH1 0x1 PUSH1 0xA0 SHL SUB NOT AND DUP3 OR SWAP1 SSTORE PUSH32 0xE5B9EC72FC7E34A9021E01E954C7E54CEB50C6B1798084716AFE188FFA5E13CB PUSH1 0x0 DUP1 LOG2 STOP JUMPDEST PUSH1 0x40 MLOAD PUSH3 0x461BCD PUSH1 0xE5 SHL DUP2 MSTORE PUSH1 0x20 PUSH1 0x4 DUP3 ADD MSTORE PUSH1 0x10 PUSH1 0x24 DUP3 ADD MSTORE PUSH16 0x24B73B30B634B2103B32B934B334B2B9 PUSH1 0x81 SHL PUSH1 0x44 DUP3 ADD MSTORE PUSH1 0x64 SWAP1 REVERT JUMPDEST CALLVALUE PUSH2 0x2FD JUMPI PUSH1 0x20 CALLDATASIZE PUSH1 0x3 NOT ADD SLT PUSH2 0x2FD JUMPI PUSH1 0x0 DUP1 MLOAD PUSH1 0x20 PUSH2 0x3C3E DUP4 CODECOPY DUP2 MLOAD SWAP2 MSTORE PUSH1 0xA0 PUSH1 0x4 CALLDATALOAD PUSH2 0x25DA PUSH1 0x1 DUP1 DUP5 SHL SUB PUSH1 0x0 SLOAD AND CALLER EQ PUSH2 0x3705 JUMP JUMPDEST PUSH10 0x152D02C7E14AF6800000 DUP2 LT ISZERO DUP1 PUSH2 0x2636 JUMPI JUMPDEST PUSH2 0x25F7 SWAP1 PUSH2 0x3BC0 JUMP JUMPDEST PUSH1 0xA SLOAD SWAP1 DUP1 PUSH1 0xA SSTORE PUSH1 0x40 MLOAD SWAP2 PUSH1 0x60 DUP4 MSTORE PUSH1 0x12 PUSH1 0x60 DUP5 ADD MSTORE PUSH18 0x1091551057D51154D5115497D49155D05491 PUSH1 0x72 SHL PUSH1 0x80 DUP5 ADD MSTORE PUSH1 0x20 DUP4 ADD MSTORE PUSH1 0x40 DUP3 ADD MSTORE LOG1 STOP JUMPDEST POP PUSH11 0x1A784379D99DB42000000 DUP2 GT ISZERO PUSH2 0x25EE JUMP JUMPDEST CALLVALUE PUSH2 0x2FD JUMPI PUSH1 0x20 CALLDATASIZE PUSH1 0x3 NOT ADD SLT PUSH2 0x2FD JUMPI PUSH1 0x0 DUP1 MLOAD PUSH1 0x20 PUSH2 0x3C3E DUP4 CODECOPY DUP2 MLOAD SWAP2 MSTORE PUSH1 0xA0 PUSH1 0x4 CALLDATALOAD PUSH2 0x2684 PUSH1 0x1 DUP1 DUP5 SHL SUB PUSH1 0x0 SLOAD AND CALLER EQ PUSH2 0x3705 JUMP JUMPDEST PUSH10 0x21E19E0C9BAB2400000 DUP2 LT ISZERO DUP1 PUSH2 0x26E3 JUMPI JUMPDEST PUSH2 0x26A1 SWAP1 PUSH2 0x3BC0 JUMP JUMPDEST PUSH1 0xB SLOAD SWAP1 DUP1 PUSH1 0xB SSTORE PUSH1 0x40 MLOAD SWAP2 PUSH1 0x60 DUP4 MSTORE PUSH1 0x15 PUSH1 0x60 DUP5 ADD MSTORE PUSH21 0x1193D31313D5D7D4D3D0D2505314D7D49155D05491 PUSH1 0x5A SHL PUSH1 0x80 DUP5 ADD MSTORE PUSH1 0x20 DUP4 ADD MSTORE PUSH1 0x40 DUP3 ADD MSTORE LOG1 STOP JUMPDEST POP PUSH10 0x69E10DE76676D0800000 DUP2 GT ISZERO PUSH2 0x2698 JUMP JUMPDEST CALLVALUE PUSH2 0x2FD JUMPI PUSH1 0x0 CALLDATASIZE PUSH1 0x3 NOT ADD SLT PUSH2 0x2FD JUMPI PUSH1 0x20 PUSH1 0xFF PUSH1 0x11 SLOAD PUSH1 0xA8 SHR AND PUSH1 0x40 MLOAD SWAP1 ISZERO ISZERO DUP2 MSTORE RETURN JUMPDEST CALLVALUE PUSH2 0x2FD JUMPI PUSH1 0x40 CALLDATASIZE PUSH1 0x3 NOT ADD SLT PUSH2 0x2FD JUMPI PUSH2 0x2736 PUSH2 0x3517 JUMP JUMPDEST PUSH8 0xFFFFFFFFFFFFFFFF PUSH1 0x24 DUP1 CALLDATALOAD DUP3 DUP2 GT PUSH2 0x2FD JUMPI PUSH2 0x2758 SWAP1 CALLDATASIZE SWAP1 PUSH1 0x4 ADD PUSH2 0x356D JUMP JUMPDEST SWAP4 SWAP1 PUSH1 0x11 SLOAD PUSH2 0x276D PUSH1 0xFF DUP3 PUSH1 0xA8 SHR AND ISZERO PUSH2 0x3777 JUMP JUMPDEST CALLER PUSH1 0x0 MSTORE PUSH1 0x20 SWAP6 PUSH1 0x12 DUP8 MSTORE PUSH2 0x278A PUSH1 0xFF PUSH1 0x40 PUSH1 0x0 KECCAK256 SLOAD AND ISZERO PUSH2 0x37B8 JUMP JUMPDEST PUSH1 0x1 DUP1 PUSH1 0xA0 SHL SUB SWAP3 DUP4 DUP6 AND SWAP7 DUP8 PUSH1 0x0 MSTORE PUSH1 0x12 DUP10 MSTORE PUSH2 0x27B0 PUSH1 0xFF PUSH1 0x40 PUSH1 0x0 KECCAK256 SLOAD AND ISZERO PUSH2 0x37B8 JUMP JUMPDEST CALLER PUSH1 0x0 MSTORE PUSH1 0x17 DUP10 MSTORE PUSH1 0xFF PUSH1 0x40 PUSH1 0x0 KECCAK256 SLOAD AND PUSH2 0x2CBC JUMPI CALLER DUP9 EQ PUSH2 0x2C80 JUMPI DUP8 ISZERO PUSH2 0x2C49 JUMPI DUP8 PUSH1 0x0 MSTORE PUSH1 0x13 DUP10 MSTORE PUSH1 0x40 PUSH1 0x0 KECCAK256 SLOAD ISZERO PUSH2 0x2C05 JUMPI PUSH1 0x40 MLOAD SWAP1 DUP10 DUP3 ADD CALLER PUSH1 0x60 SHL DUP2 MSTORE PUSH1 0x1 PUSH1 0x1 PUSH1 0x60 SHL SUB NOT DUP9 PUSH1 0x60 SHL AND PUSH1 0x34 DUP5 ADD MSTORE PUSH8 0x1491519154949053 PUSH1 0xC2 SHL PUSH1 0x48 DUP5 ADD MSTORE PUSH3 0x15180 TIMESTAMP DIV PUSH1 0x50 DUP5 ADD MSTORE PUSH1 0x50 DUP4 MSTORE PUSH1 0x80 DUP4 ADD SWAP2 DUP4 DUP4 LT SWAP1 DUP4 GT OR PUSH2 0x2BF0 JUMPI SWAP3 PUSH2 0x2889 SWAP3 DUP3 DUP9 SWAP7 SWAP4 SWAP6 DUP8 SWAP7 PUSH1 0x40 MSTORE DUP3 MLOAD SWAP1 KECCAK256 PUSH1 0xBC PUSH1 0xA0 DUP5 ADD SWAP4 PUSH32 0x19457468657265756D205369676E6564204D6573736167653A0A333200000000 DUP6 MSTORE ADD MSTORE PUSH1 0x3C DUP2 MSTORE PUSH2 0x2881 DUP2 PUSH2 0x3627 JUMP JUMPDEST MLOAD SWAP1 KECCAK256 PUSH2 0x3B0C JUMP JUMPDEST SWAP3 AND SWAP2 AND SUB PUSH2 0x2BAC JUMPI CALLER PUSH1 0x0 MSTORE PUSH1 0x17 DUP6 MSTORE PUSH1 0x40 PUSH1 0x0 KECCAK256 PUSH1 0x1 PUSH1 0xFF NOT DUP3 SLOAD AND OR SWAP1 SSTORE PUSH1 0x15 DUP6 MSTORE PUSH1 0x40 PUSH1 0x0 KECCAK256 DUP5 PUSH1 0x1 PUSH1 0x1 PUSH1 0x60 SHL SUB PUSH1 0xA0 SHL DUP3 SLOAD AND OR SWAP1 SSTORE DUP4 PUSH1 0x0 MSTORE PUSH1 0x16 DUP6 MSTORE PUSH1 0x40 PUSH1 0x0 KECCAK256 PUSH2 0x28DC DUP2 SLOAD PUSH2 0x36F6 JUMP JUMPDEST SWAP1 SSTORE PUSH1 0x9 SLOAD DUP1 PUSH1 0x1 SHL SWAP2 DUP2 DUP4 DIV PUSH1 0x2 EQ DUP3 ISZERO OR ISZERO PUSH2 0x2B97 JUMPI PUSH32 0x0 AND SWAP2 PUSH1 0x40 MLOAD SWAP1 PUSH4 0x70A08231 PUSH1 0xE0 SHL DUP3 MSTORE ADDRESS PUSH1 0x4 DUP4 ADD MSTORE DUP8 DUP3 DUP8 DUP2 DUP8 GAS STATICCALL DUP1 ISZERO PUSH2 0x860 JUMPI PUSH1 0x0 SWAP1 PUSH2 0x2B68 JUMPI JUMPDEST PUSH2 0x294C SWAP3 POP LT ISZERO PUSH2 0x381D JUMP JUMPDEST DUP5 PUSH1 0x0 MSTORE PUSH1 0x13 DUP7 MSTORE PUSH2 0x2967 PUSH1 0x3 PUSH1 0x40 PUSH1 0x0 KECCAK256 ADD SWAP2 DUP3 SLOAD PUSH2 0x37FD JUMP JUMPDEST SWAP1 SSTORE PUSH2 0x29B1 DUP6 PUSH1 0x9 SLOAD PUSH2 0x297C DUP2 PUSH1 0xE SLOAD PUSH2 0x37FD JUMP JUMPDEST PUSH1 0xE SSTORE PUSH1 0x40 MLOAD PUSH4 0xA9059CBB PUSH1 0xE0 SHL DUP1 DUP3 MSTORE PUSH1 0x1 PUSH1 0x1 PUSH1 0xA0 SHL SUB SWAP1 SWAP7 AND PUSH1 0x4 DUP3 ADD MSTORE PUSH1 0x24 DUP2 ADD SWAP2 SWAP1 SWAP2 MSTORE SWAP2 DUP3 SWAP1 DUP2 SWAP1 PUSH1 0x44 DUP3 ADD SWAP1 JUMP JUMPDEST SUB DUP2 PUSH1 0x0 DUP7 GAS CALL SWAP1 DUP2 ISZERO PUSH2 0x860 JUMPI PUSH1 0x0 SWAP2 PUSH2 0x2B33 JUMPI JUMPDEST POP ISZERO PUSH2 0x2AEF JUMPI PUSH2 0x2A2D SWAP2 DUP6 SWAP2 PUSH1 0x9 SLOAD CALLER PUSH1 0x0 MSTORE PUSH1 0x13 DUP5 MSTORE PUSH2 0x29F1 PUSH1 0x3 PUSH1 0x40 PUSH1 0x0 KECCAK256 ADD SWAP2 DUP3 SLOAD PUSH2 0x37FD JUMP JUMPDEST SWAP1 SSTORE PUSH1 0x9 SLOAD SWAP2 PUSH2 0x2A03 DUP4 PUSH1 0xE SLOAD PUSH2 0x37FD JUMP JUMPDEST PUSH1 0xE SSTORE PUSH1 0x40 MLOAD SWAP1 DUP2 MSTORE CALLER PUSH1 0x4 DUP3 ADD MSTORE PUSH1 0x24 DUP2 ADD SWAP3 SWAP1 SWAP3 MSTORE SWAP1 SWAP3 DUP4 SWAP2 SWAP1 DUP3 SWAP1 PUSH1 0x0 SWAP1 DUP3 SWAP1 PUSH1 0x44 DUP3 ADD SWAP1 JUMP JUMPDEST SUB SWAP3 GAS CALL SWAP1 DUP2 ISZERO PUSH2 0x860 JUMPI PUSH1 0x0 SWAP2 PUSH2 0x2ABA JUMPI JUMPDEST POP ISZERO PUSH2 0x2A77 JUMPI POP PUSH32 0x90EAB5D1DF713DF401D810F26AA9718D2B9E6894AF1EB4890A332D3B185DC0E5 PUSH1 0x9 SLOAD SWAP3 PUSH1 0x40 MLOAD SWAP4 DUP5 MSTORE CALLER SWAP4 LOG3 STOP JUMPDEST DUP3 PUSH1 0x1B PUSH1 0x64 SWAP3 PUSH1 0x40 MLOAD SWAP3 PUSH3 0x461BCD PUSH1 0xE5 SHL DUP5 MSTORE PUSH1 0x4 DUP5 ADD MSTORE DUP3 ADD MSTORE PUSH32 0x5472616E7366657220746F207265666572726564206661696C65640000000000 PUSH1 0x44 DUP3 ADD MSTORE REVERT JUMPDEST SWAP1 POP DUP4 DUP2 DUP2 RETURNDATASIZE DUP4 GT PUSH2 0x2AE8 JUMPI JUMPDEST PUSH2 0x2AD1 DUP2 DUP4 PUSH2 0x3643 JUMP JUMPDEST DUP2 ADD SUB SLT PUSH2 0x2FD JUMPI PUSH2 0x2AE2 SWAP1 PUSH2 0x3665 JUMP JUMPDEST DUP5 PUSH2 0x2A40 JUMP JUMPDEST POP RETURNDATASIZE PUSH2 0x2AC7 JUMP JUMPDEST PUSH1 0x40 MLOAD PUSH3 0x461BCD PUSH1 0xE5 SHL DUP2 MSTORE PUSH1 0x4 DUP2 ADD DUP7 SWAP1 MSTORE PUSH1 0x1B DUP2 DUP6 ADD MSTORE PUSH32 0x5472616E7366657220746F207265666572726572206661696C65640000000000 PUSH1 0x44 DUP3 ADD MSTORE PUSH1 0x64 SWAP1 REVERT JUMPDEST SWAP1 POP DUP6 DUP2 DUP2 RETURNDATASIZE DUP4 GT PUSH2 0x2B61 JUMPI JUMPDEST PUSH2 0x2B4A DUP2 DUP4 PUSH2 0x3643 JUMP JUMPDEST DUP2 ADD SUB SLT PUSH2 0x2FD JUMPI PUSH2 0x2B5B SWAP1 PUSH2 0x3665 JUMP JUMPDEST DUP7 PUSH2 0x29C7 JUMP JUMPDEST POP RETURNDATASIZE PUSH2 0x2B40 JUMP JUMPDEST POP DUP8 DUP3 DUP2 RETURNDATASIZE DUP4 GT PUSH2 0x2B90 JUMPI JUMPDEST PUSH2 0x2B7E DUP2 DUP4 PUSH2 0x3643 JUMP JUMPDEST DUP2 ADD SUB SLT PUSH2 0x2FD JUMPI PUSH2 0x294C SWAP2 MLOAD PUSH2 0x2940 JUMP JUMPDEST POP RETURNDATASIZE PUSH2 0x2B74 JUMP JUMPDEST DUP5 PUSH4 0x4E487B71 PUSH1 0xE0 SHL PUSH1 0x0 MSTORE PUSH1 0x11 PUSH1 0x4 MSTORE PUSH1 0x0 REVERT JUMPDEST PUSH1 0x40 MLOAD PUSH3 0x461BCD PUSH1 0xE5 SHL DUP2 MSTORE PUSH1 0x4 DUP2 ADD DUP7 SWAP1 MSTORE PUSH1 0x1A DUP2 DUP6 ADD MSTORE PUSH32 0x496E76616C696420726566657272616C207369676E6174757265000000000000 PUSH1 0x44 DUP3 ADD MSTORE PUSH1 0x64 SWAP1 REVERT JUMPDEST DUP9 PUSH4 0x4E487B71 PUSH1 0xE0 SHL PUSH1 0x0 MSTORE PUSH1 0x41 PUSH1 0x4 MSTORE PUSH1 0x0 REVERT JUMPDEST PUSH1 0x40 MLOAD PUSH3 0x461BCD PUSH1 0xE5 SHL DUP2 MSTORE PUSH1 0x4 DUP2 ADD DUP11 SWAP1 MSTORE PUSH1 0x1C DUP2 DUP10 ADD MSTORE PUSH32 0x5265666572726572206D75737420626520616374697665207573657200000000 PUSH1 0x44 DUP3 ADD MSTORE PUSH1 0x64 SWAP1 REVERT JUMPDEST PUSH1 0x40 MLOAD PUSH3 0x461BCD PUSH1 0xE5 SHL DUP2 MSTORE PUSH1 0x4 DUP2 ADD DUP11 SWAP1 MSTORE PUSH1 0x10 DUP2 DUP10 ADD MSTORE PUSH16 0x24B73B30B634B2103932B332B93932B9 PUSH1 0x81 SHL PUSH1 0x44 DUP3 ADD MSTORE PUSH1 0x64 SWAP1 REVERT JUMPDEST PUSH1 0x40 MLOAD PUSH3 0x461BCD PUSH1 0xE5 SHL DUP2 MSTORE PUSH1 0x4 DUP2 ADD DUP11 SWAP1 MSTORE PUSH1 0x15 DUP2 DUP10 ADD MSTORE PUSH21 0x21B0B73737BA103932B332B9103CB7BAB939B2B633 PUSH1 0x59 SHL PUSH1 0x44 DUP3 ADD MSTORE PUSH1 0x64 SWAP1 REVERT JUMPDEST PUSH1 0x40 MLOAD PUSH3 0x461BCD PUSH1 0xE5 SHL DUP2 MSTORE PUSH1 0x4 DUP2 ADD DUP11 SWAP1 MSTORE PUSH1 0x15 DUP2 DUP10 ADD MSTORE PUSH21 0x105B1C9958591E481D5CD959081C9959995C9C985B PUSH1 0x5A SHL PUSH1 0x44 DUP3 ADD MSTORE PUSH1 0x64 SWAP1 REVERT JUMPDEST CALLVALUE PUSH2 0x2FD JUMPI PUSH1 0x20 CALLDATASIZE PUSH1 0x3 NOT ADD SLT PUSH2 0x2FD JUMPI PUSH1 0x0 DUP1 MLOAD PUSH1 0x20 PUSH2 0x3C3E DUP4 CODECOPY DUP2 MLOAD SWAP2 MSTORE PUSH1 0xA0 PUSH1 0x4 CALLDATALOAD PUSH2 0x2D31 PUSH1 0x1 DUP1 DUP5 SHL SUB PUSH1 0x0 SLOAD AND CALLER EQ PUSH2 0x3705 JUMP JUMPDEST PUSH10 0x152D02C7E14AF6800000 DUP2 LT ISZERO DUP1 PUSH2 0x2D8B JUMPI JUMPDEST PUSH2 0x2D4E SWAP1 PUSH2 0x3BC0 JUMP JUMPDEST PUSH1 0xD SLOAD SWAP1 DUP1 PUSH1 0xD SSTORE PUSH1 0x40 MLOAD SWAP2 PUSH1 0x60 DUP4 MSTORE PUSH1 0x10 PUSH1 0x60 DUP5 ADD MSTORE PUSH16 0x14D514915052D7CCCC17D49155D05491 PUSH1 0x82 SHL PUSH1 0x80 DUP5 ADD MSTORE PUSH1 0x20 DUP4 ADD MSTORE PUSH1 0x40 DUP3 ADD MSTORE LOG1 STOP JUMPDEST POP PUSH11 0x422CA8B0A00A425000000 DUP2 GT ISZERO PUSH2 0x2D45 JUMP JUMPDEST CALLVALUE PUSH2 0x2FD JUMPI PUSH1 0x20 CALLDATASIZE PUSH1 0x3 NOT ADD SLT PUSH2 0x2FD JUMPI PUSH1 0x0 DUP1 MLOAD PUSH1 0x20 PUSH2 0x3C3E DUP4 CODECOPY DUP2 MLOAD SWAP2 MSTORE PUSH1 0xA0 PUSH1 0x4 CALLDATALOAD PUSH2 0x2DD9 PUSH1 0x1 DUP1 DUP5 SHL SUB PUSH1 0x0 SLOAD AND CALLER EQ PUSH2 0x3705 JUMP JUMPDEST PUSH10 0x21E19E0C9BAB2400000 DUP2 LT ISZERO DUP1 PUSH2 0x2E34 JUMPI JUMPDEST PUSH2 0x2DF6 SWAP1 PUSH2 0x3BC0 JUMP JUMPDEST PUSH1 0x1 SLOAD SWAP1 DUP1 PUSH1 0x1 SSTORE PUSH1 0x40 MLOAD SWAP2 PUSH1 0x60 DUP4 MSTORE PUSH1 0x11 PUSH1 0x60 DUP5 ADD MSTORE PUSH17 0x109054D157D11052531657D49155D05491 PUSH1 0x7A SHL PUSH1 0x80 DUP5 ADD MSTORE PUSH1 0x20 DUP4 ADD MSTORE PUSH1 0x40 DUP3 ADD MSTORE LOG1 STOP JUMPDEST POP PUSH10 0x2A5A058FC295ED000000 DUP2 GT ISZERO PUSH2 0x2DED JUMP JUMPDEST CALLVALUE PUSH2 0x2FD JUMPI PUSH1 0x40 CALLDATASIZE PUSH1 0x3 NOT ADD SLT PUSH2 0x2FD JUMPI PUSH8 0xFFFFFFFFFFFFFFFF PUSH1 0x4 CALLDATALOAD DUP2 DUP2 GT PUSH2 0x2FD JUMPI PUSH2 0x2E7A SWAP1 CALLDATASIZE SWAP1 PUSH1 0x4 ADD PUSH2 0x353C JUMP JUMPDEST SWAP2 PUSH1 0x24 CALLDATALOAD SWAP1 DUP2 GT PUSH2 0x2FD JUMPI PUSH2 0x2E93 SWAP1 CALLDATASIZE SWAP1 PUSH1 0x4 ADD PUSH2 0x353C JUMP JUMPDEST PUSH1 0x0 SLOAD PUSH1 0x1 PUSH1 0x1 PUSH1 0xA0 SHL SUB SWAP4 SWAP1 PUSH2 0x2EAD SWAP1 DUP6 AND CALLER EQ PUSH2 0x3705 JUMP JUMPDEST DUP2 DUP6 SUB PUSH2 0x2F5F JUMPI PUSH1 0x0 JUMPDEST DUP6 DUP2 LT PUSH2 0x2EC0 JUMPI STOP JUMPDEST DUP1 PUSH2 0x2ED7 PUSH2 0x2ED2 PUSH2 0x2F5A SWAP4 DUP7 DUP9 PUSH2 0x373D JUMP JUMPDEST PUSH2 0x3BB3 JUMP JUMPDEST DUP7 PUSH2 0x2EE6 PUSH2 0xE64 DUP5 DUP12 DUP9 PUSH2 0x373D JUMP JUMPDEST AND PUSH1 0x0 MSTORE PUSH2 0x2F0A PUSH1 0x20 SWAP2 PUSH1 0x12 DUP4 MSTORE PUSH1 0x40 PUSH1 0x0 KECCAK256 SWAP1 PUSH1 0xFF DUP1 NOT DUP4 SLOAD AND SWAP2 ISZERO ISZERO AND OR SWAP1 SSTORE JUMP JUMPDEST PUSH32 0x6A12B3DF6CBA4203BD7FD06B816789F87DE8C594299AED5717AE070FAC781BAC PUSH2 0x2F39 PUSH2 0xE64 DUP5 DUP12 DUP9 PUSH2 0x373D JUMP JUMPDEST SWAP2 DUP9 PUSH2 0x2F49 PUSH2 0x2ED2 DUP7 DUP11 DUP13 PUSH2 0x373D JUMP JUMPDEST SWAP4 PUSH1 0x40 MLOAD SWAP5 ISZERO ISZERO DUP6 MSTORE AND SWAP3 LOG2 PUSH2 0x36F6 JUMP JUMPDEST PUSH2 0x2EB7 JUMP JUMPDEST PUSH1 0x40 MLOAD PUSH3 0x461BCD PUSH1 0xE5 SHL DUP2 MSTORE PUSH1 0x20 PUSH1 0x4 DUP3 ADD MSTORE PUSH1 0x15 PUSH1 0x24 DUP3 ADD MSTORE PUSH21 0x82E4E4C2F240D8CADCCEE8D040DAD2E6DAC2E8C6D PUSH1 0x5B SHL PUSH1 0x44 DUP3 ADD MSTORE PUSH1 0x64 SWAP1 REVERT JUMPDEST CALLVALUE PUSH2 0x2FD JUMPI PUSH1 0x20 CALLDATASIZE PUSH1 0x3 NOT ADD SLT PUSH2 0x2FD JUMPI PUSH2 0x2FB5 PUSH2 0x352D JUMP JUMPDEST PUSH2 0x2FCA PUSH1 0x1 DUP1 PUSH1 0xA0 SHL SUB PUSH1 0x0 SLOAD AND CALLER EQ PUSH2 0x3705 JUMP JUMPDEST PUSH1 0x11 DUP1 SLOAD PUSH1 0xFF PUSH1 0xB0 SHL NOT AND SWAP2 ISZERO ISZERO PUSH1 0xB0 SHL PUSH1 0xFF PUSH1 0xB0 SHL AND SWAP2 SWAP1 SWAP2 OR SWAP1 SSTORE STOP JUMPDEST CALLVALUE PUSH2 0x2FD JUMPI PUSH1 0x20 CALLDATASIZE PUSH1 0x3 NOT ADD SLT PUSH2 0x2FD JUMPI PUSH2 0x3002 PUSH2 0x3517 JUMP JUMPDEST PUSH1 0x1 DUP1 PUSH1 0xA0 SHL SUB AND PUSH1 0x0 MSTORE PUSH1 0x13 PUSH1 0x20 MSTORE PUSH1 0x40 PUSH1 0x0 KECCAK256 DUP1 SLOAD PUSH1 0x1 DUP3 ADD SLOAD SWAP2 PUSH1 0x2 DUP2 ADD SLOAD SWAP3 PUSH1 0x3 DUP3 ADD SLOAD PUSH1 0xFF PUSH1 0x6 PUSH1 0x5 DUP6 ADD SLOAD SWAP5 ADD SLOAD PUSH1 0x20 SHR AND SWAP3 DUP5 ISZERO SWAP1 DUP2 ISZERO SWAP3 DUP4 PUSH2 0x311C JUMPI JUMPDEST DUP3 ISZERO PUSH2 0x3109 JUMPI PUSH1 0x0 SWAP4 JUMPDEST DUP4 ISZERO PUSH2 0x30FB JUMPI DUP1 PUSH2 0x30E5 JUMPI JUMPDEST ISZERO PUSH2 0x30D7 JUMPI PUSH1 0x1 DUP6 ADD SWAP8 DUP9 DUP7 GT PUSH2 0x1D38 JUMPI PUSH2 0x309A PUSH2 0x120 SWAP10 JUMPDEST PUSH1 0x3 SLOAD SWAP1 DUP2 DUP2 GT ISZERO PUSH2 0x30D0 JUMPI POP JUMPDEST PUSH2 0x3094 PUSH1 0x1 SLOAD SWAP2 PUSH1 0x2 SLOAD SWAP1 PUSH2 0x380A JUMP JUMPDEST SWAP1 PUSH2 0x37FD JUMP JUMPDEST SWAP6 PUSH1 0x40 MLOAD SWAP9 DUP10 MSTORE PUSH1 0x20 DUP10 ADD MSTORE PUSH1 0x40 DUP9 ADD MSTORE PUSH1 0x60 DUP8 ADD MSTORE PUSH1 0x80 DUP7 ADD MSTORE ISZERO ISZERO PUSH1 0xA0 DUP6 ADD MSTORE PUSH1 0xC0 DUP5 ADD MSTORE PUSH1 0xE0 DUP4 ADD MSTORE ISZERO ISZERO PUSH2 0x100 DUP3 ADD MSTORE RETURN JUMPDEST SWAP1 POP PUSH2 0x3084 JUMP JUMPDEST PUSH2 0x120 SWAP8 PUSH2 0x309A PUSH1 0x1 PUSH2 0x3076 JUMP JUMPDEST POP PUSH3 0x2A300 DUP8 ADD DUP1 DUP9 GT PUSH2 0x1D38 JUMPI TIMESTAMP GT ISZERO PUSH2 0x305D JUMP JUMPDEST POP PUSH2 0x120 SWAP8 PUSH2 0x309A DUP7 PUSH2 0x3076 JUMP JUMPDEST PUSH3 0x15180 DUP8 ADD DUP1 DUP9 GT PUSH2 0x1D38 JUMPI SWAP4 PUSH2 0x3051 JUMP JUMPDEST SWAP2 POP PUSH3 0x15180 DUP7 ADD DUP1 DUP8 GT PUSH2 0x1D38 JUMPI TIMESTAMP LT ISZERO SWAP2 PUSH2 0x3047 JUMP JUMPDEST CALLVALUE PUSH2 0x2FD JUMPI PUSH1 0x0 CALLDATASIZE PUSH1 0x3 NOT ADD SLT PUSH2 0x2FD JUMPI PUSH1 0x20 PUSH1 0x9 SLOAD PUSH1 0x40 MLOAD SWAP1 DUP2 MSTORE RETURN JUMPDEST CALLVALUE PUSH2 0x2FD JUMPI PUSH1 0x0 CALLDATASIZE PUSH1 0x3 NOT ADD SLT PUSH2 0x2FD JUMPI PUSH1 0x40 MLOAD PUSH32 0x0 PUSH1 0x1 PUSH1 0x1 PUSH1 0xA0 SHL SUB AND DUP2 MSTORE PUSH1 0x20 SWAP1 RETURN JUMPDEST CALLVALUE PUSH2 0x2FD JUMPI PUSH1 0x0 CALLDATASIZE PUSH1 0x3 NOT ADD SLT PUSH2 0x2FD JUMPI PUSH1 0x20 PUSH1 0x10 SLOAD PUSH1 0x40 MLOAD SWAP1 DUP2 MSTORE RETURN JUMPDEST CALLVALUE PUSH2 0x2FD JUMPI PUSH1 0x0 CALLDATASIZE PUSH1 0x3 NOT ADD SLT PUSH2 0x2FD JUMPI PUSH1 0x20 PUSH1 0xD SLOAD PUSH1 0x40 MLOAD SWAP1 DUP2 MSTORE RETURN JUMPDEST CALLVALUE PUSH2 0x2FD JUMPI PUSH1 0x20 CALLDATASIZE PUSH1 0x3 NOT ADD SLT PUSH2 0x2FD JUMPI PUSH1 0x0 DUP1 MLOAD PUSH1 0x20 PUSH2 0x3C3E DUP4 CODECOPY DUP2 MLOAD SWAP2 MSTORE PUSH1 0xA0 PUSH1 0x4 CALLDATALOAD PUSH2 0x320C PUSH1 0x1 DUP1 DUP5 SHL SUB PUSH1 0x0 SLOAD AND CALLER EQ PUSH2 0x3705 JUMP JUMPDEST PUSH10 0xA968163F0A57B400000 DUP2 LT ISZERO DUP1 PUSH2 0x3265 JUMPI JUMPDEST PUSH2 0x3229 SWAP1 PUSH2 0x3BC0 JUMP JUMPDEST PUSH1 0xC SLOAD SWAP1 DUP1 PUSH1 0xC SSTORE PUSH1 0x40 MLOAD SWAP2 PUSH1 0x60 DUP4 MSTORE PUSH1 0xF PUSH1 0x60 DUP5 ADD MSTORE PUSH15 0x14D514915052D7CDD7D49155D05491 PUSH1 0x8A SHL PUSH1 0x80 DUP5 ADD MSTORE PUSH1 0x20 DUP4 ADD MSTORE PUSH1 0x40 DUP3 ADD MSTORE LOG1 STOP JUMPDEST POP PUSH10 0xD3C21BCECCEDA1000000 DUP2 GT ISZERO PUSH2 0x3220 JUMP JUMPDEST CALLVALUE PUSH2 0x2FD JUMPI PUSH1 0x0 CALLDATASIZE PUSH1 0x3 NOT ADD SLT PUSH2 0x2FD JUMPI PUSH1 0x20 PUSH1 0xFF PUSH1 0x11 SLOAD PUSH1 0xB0 SHR AND PUSH1 0x40 MLOAD SWAP1 ISZERO ISZERO DUP2 MSTORE RETURN JUMPDEST CALLVALUE PUSH2 0x2FD JUMPI PUSH1 0x0 CALLDATASIZE PUSH1 0x3 NOT ADD SLT PUSH2 0x2FD JUMPI PUSH1 0x20 PUSH1 0x2 SLOAD PUSH1 0x40 MLOAD SWAP1 DUP2 MSTORE RETURN JUMPDEST CALLVALUE PUSH2 0x2FD JUMPI PUSH1 0x20 CALLDATASIZE PUSH1 0x3 NOT ADD SLT PUSH2 0x2FD JUMPI PUSH1 0x0 DUP1 MLOAD PUSH1 0x20 PUSH2 0x3C3E DUP4 CODECOPY DUP2 MLOAD SWAP2 MSTORE PUSH1 0xA0 PUSH1 0x4 CALLDATALOAD PUSH2 0x32F6 PUSH1 0x1 DUP1 DUP5 SHL SUB PUSH1 0x0 SLOAD AND CALLER EQ PUSH2 0x3705 JUMP JUMPDEST PUSH10 0x21E19E0C9BAB2400000 DUP2 LT ISZERO DUP1 PUSH2 0x3355 JUMPI JUMPDEST PUSH2 0x3313 SWAP1 PUSH2 0x3BC0 JUMP JUMPDEST PUSH1 0x8 SLOAD SWAP1 DUP1 PUSH1 0x8 SSTORE PUSH1 0x40 MLOAD SWAP2 PUSH1 0x60 DUP4 MSTORE PUSH1 0x15 PUSH1 0x60 DUP5 ADD MSTORE PUSH21 0x15149051125391D7D593D315535157D49155D05491 PUSH1 0x5A SHL PUSH1 0x80 DUP5 ADD MSTORE PUSH1 0x20 DUP4 ADD MSTORE PUSH1 0x40 DUP3 ADD MSTORE LOG1 STOP JUMPDEST POP PUSH10 0x2A5A058FC295ED000000 DUP2 GT ISZERO PUSH2 0x330A JUMP JUMPDEST CALLVALUE PUSH2 0x2FD JUMPI PUSH1 0x0 CALLDATASIZE PUSH1 0x3 NOT ADD SLT PUSH2 0x2FD JUMPI PUSH1 0x11 SLOAD PUSH1 0x40 MLOAD PUSH1 0x1 PUSH1 0x1 PUSH1 0xA0 SHL SUB SWAP1 SWAP2 AND DUP2 MSTORE PUSH1 0x20 SWAP1 RETURN JUMPDEST CALLVALUE PUSH2 0x2FD JUMPI PUSH1 0x20 CALLDATASIZE PUSH1 0x3 NOT ADD SLT PUSH2 0x2FD JUMPI PUSH32 0xE2FB031EE032DC02D8011DC50B816EB450CF856ABD8261680DAC74F72165BD2 PUSH1 0x20 PUSH2 0x33CE PUSH2 0x352D JUMP JUMPDEST PUSH2 0x33E3 PUSH1 0x1 DUP1 PUSH1 0xA0 SHL SUB PUSH1 0x0 SLOAD AND CALLER EQ PUSH2 0x3705 JUMP JUMPDEST ISZERO ISZERO PUSH1 0x11 SLOAD PUSH1 0xFF PUSH1 0xA8 SHL DUP3 PUSH1 0xA8 SHL AND SWAP1 PUSH1 0xFF PUSH1 0xA8 SHL NOT AND OR PUSH1 0x11 SSTORE PUSH1 0x40 MLOAD SWAP1 DUP2 MSTORE LOG1 STOP JUMPDEST CALLVALUE PUSH2 0x2FD JUMPI PUSH1 0x40 CALLDATASIZE PUSH1 0x3 NOT ADD SLT PUSH2 0x2FD JUMPI PUSH2 0x3420 PUSH2 0x3517 JUMP JUMPDEST PUSH1 0x24 CALLDATALOAD SWAP1 DUP2 ISZERO ISZERO SWAP1 DUP2 DUP4 SUB PUSH2 0x2FD JUMPI PUSH32 0x6A12B3DF6CBA4203BD7FD06B816789F87DE8C594299AED5717AE070FAC781BAC SWAP2 PUSH2 0x348E PUSH1 0x20 SWAP3 PUSH1 0x1 DUP1 PUSH1 0xA0 SHL SUB SWAP1 PUSH2 0x346E DUP3 PUSH1 0x0 SLOAD AND CALLER EQ PUSH2 0x3705 JUMP JUMPDEST AND SWAP5 DUP6 PUSH1 0x0 MSTORE PUSH1 0x12 DUP5 MSTORE PUSH1 0x40 PUSH1 0x0 KECCAK256 SWAP1 PUSH1 0xFF DUP1 NOT DUP4 SLOAD AND SWAP2 ISZERO ISZERO AND OR SWAP1 SSTORE JUMP JUMPDEST PUSH1 0x40 MLOAD SWAP1 DUP2 MSTORE LOG2 STOP JUMPDEST CALLVALUE PUSH2 0x2FD JUMPI PUSH1 0x0 CALLDATASIZE PUSH1 0x3 NOT ADD SLT PUSH2 0x2FD JUMPI PUSH1 0x20 PUSH1 0xFF PUSH1 0x11 SLOAD PUSH1 0xA0 SHR AND PUSH1 0x40 MLOAD SWAP1 ISZERO ISZERO DUP2 MSTORE RETURN JUMPDEST CALLVALUE PUSH2 0x2FD JUMPI PUSH1 0x20 CALLDATASIZE PUSH1 0x3 NOT ADD SLT PUSH2 0x2FD JUMPI PUSH1 0x1 PUSH1 0x1 PUSH1 0xA0 SHL SUB PUSH2 0x34DE PUSH2 0x3517 JUMP JUMPDEST AND PUSH1 0x0 MSTORE PUSH1 0x17 PUSH1 0x20 MSTORE PUSH1 0x20 PUSH1 0xFF PUSH1 0x40 PUSH1 0x0 KECCAK256 SLOAD AND PUSH1 0x40 MLOAD SWAP1 ISZERO ISZERO DUP2 MSTORE RETURN JUMPDEST CALLVALUE PUSH2 0x2FD JUMPI PUSH1 0x0 CALLDATASIZE PUSH1 0x3 NOT ADD SLT PUSH2 0x2FD JUMPI PUSH1 0x20 SWAP1 PUSH1 0x5 SLOAD DUP2 MSTORE RETURN JUMPDEST PUSH1 0x4 CALLDATALOAD SWAP1 PUSH1 0x1 PUSH1 0x1 PUSH1 0xA0 SHL SUB DUP3 AND DUP3 SUB PUSH2 0x2FD JUMPI JUMP JUMPDEST PUSH1 0x4 CALLDATALOAD SWAP1 DUP2 ISZERO ISZERO DUP3 SUB PUSH2 0x2FD JUMPI JUMP JUMPDEST SWAP2 DUP2 PUSH1 0x1F DUP5 ADD SLT ISZERO PUSH2 0x2FD JUMPI DUP3 CALLDATALOAD SWAP2 PUSH8 0xFFFFFFFFFFFFFFFF DUP4 GT PUSH2 0x2FD JUMPI PUSH1 0x20 DUP1 DUP6 ADD SWAP5 DUP5 PUSH1 0x5 SHL ADD ADD GT PUSH2 0x2FD JUMPI JUMP JUMPDEST SWAP2 DUP2 PUSH1 0x1F DUP5 ADD SLT ISZERO PUSH2 0x2FD JUMPI DUP3 CALLDATALOAD SWAP2 PUSH8 0xFFFFFFFFFFFFFFFF DUP4 GT PUSH2 0x2FD JUMPI PUSH1 0x20 DUP4 DUP2 DUP7 ADD SWAP6 ADD ADD GT PUSH2 0x2FD JUMPI JUMP JUMPDEST PUSH1 0x40 PUSH1 0x3 NOT DUP3 ADD SLT PUSH2 0x2FD JUMPI PUSH8 0xFFFFFFFFFFFFFFFF SWAP2 PUSH1 0x4 CALLDATALOAD DUP4 DUP2 GT PUSH2 0x2FD JUMPI DUP3 PUSH2 0x35C8 SWAP2 PUSH1 0x4 ADD PUSH2 0x356D JUMP JUMPDEST SWAP4 SWAP1 SWAP4 SWAP3 PUSH1 0x24 CALLDATALOAD SWAP2 DUP3 GT PUSH2 0x2FD JUMPI PUSH2 0x35E2 SWAP2 PUSH1 0x4 ADD PUSH2 0x356D JUMP JUMPDEST SWAP1 SWAP2 JUMP JUMPDEST ISZERO PUSH2 0x35ED JUMPI JUMP JUMPDEST PUSH1 0x40 MLOAD PUSH3 0x461BCD PUSH1 0xE5 SHL DUP2 MSTORE PUSH1 0x20 PUSH1 0x4 DUP3 ADD MSTORE PUSH1 0x12 PUSH1 0x24 DUP3 ADD MSTORE PUSH18 0x135A59DC985D1A5BDB88191A5CD8589B1959 PUSH1 0x72 SHL PUSH1 0x44 DUP3 ADD MSTORE PUSH1 0x64 SWAP1 REVERT JUMPDEST PUSH1 0x60 DUP2 ADD SWAP1 DUP2 LT PUSH8 0xFFFFFFFFFFFFFFFF DUP3 GT OR PUSH2 0x1CF0 JUMPI PUSH1 0x40 MSTORE JUMP JUMPDEST SWAP1 PUSH1 0x1F DUP1 NOT SWAP2 ADD AND DUP2 ADD SWAP1 DUP2 LT PUSH8 0xFFFFFFFFFFFFFFFF DUP3 GT OR PUSH2 0x1CF0 JUMPI PUSH1 0x40 MSTORE JUMP JUMPDEST MLOAD SWAP1 DUP2 ISZERO ISZERO DUP3 SUB PUSH2 0x2FD JUMPI JUMP JUMPDEST SWAP2 SWAP1 DUP3 PUSH2 0x140 SWAP2 SUB SLT PUSH2 0x2FD JUMPI DUP2 MLOAD SWAP2 PUSH1 0x20 DUP2 ADD MLOAD SWAP2 PUSH1 0x40 DUP3 ADD MLOAD SWAP2 PUSH1 0x60 DUP2 ADD MLOAD SWAP2 PUSH1 0x80 DUP3 ADD MLOAD SWAP2 PUSH1 0xA0 DUP2 ADD MLOAD SWAP2 PUSH2 0x36AC PUSH1 0xC0 DUP4 ADD PUSH2 0x3665 JUMP JUMPDEST SWAP2 PUSH2 0x36B9 PUSH1 0xE0 DUP3 ADD PUSH2 0x3665 JUMP JUMPDEST SWAP2 PUSH2 0x36D4 PUSH2 0x120 PUSH2 0x36CD PUSH2 0x100 DUP6 ADD PUSH2 0x3665 JUMP JUMPDEST SWAP4 ADD PUSH2 0x3665 JUMP JUMPDEST SWAP1 JUMP JUMPDEST SWAP1 DUP2 PUSH1 0x20 SWAP2 SUB SLT PUSH2 0x2FD JUMPI MLOAD PUSH1 0x1 PUSH1 0x1 PUSH1 0xA0 SHL SUB DUP2 AND DUP2 SUB PUSH2 0x2FD JUMPI SWAP1 JUMP JUMPDEST PUSH1 0x0 NOT DUP2 EQ PUSH2 0x1D38 JUMPI PUSH1 0x1 ADD SWAP1 JUMP JUMPDEST ISZERO PUSH2 0x370C JUMPI JUMP JUMPDEST PUSH1 0x40 MLOAD PUSH3 0x461BCD PUSH1 0xE5 SHL DUP2 MSTORE PUSH1 0x20 PUSH1 0x4 DUP3 ADD MSTORE PUSH1 0x9 PUSH1 0x24 DUP3 ADD MSTORE PUSH9 0x2737BA1037BBB732B9 PUSH1 0xB9 SHL PUSH1 0x44 DUP3 ADD MSTORE PUSH1 0x64 SWAP1 REVERT JUMPDEST SWAP2 SWAP1 DUP2 LT ISZERO PUSH2 0x374D JUMPI PUSH1 0x5 SHL ADD SWAP1 JUMP JUMPDEST PUSH4 0x4E487B71 PUSH1 0xE0 SHL PUSH1 0x0 MSTORE PUSH1 0x32 PUSH1 0x4 MSTORE PUSH1 0x24 PUSH1 0x0 REVERT JUMPDEST CALLDATALOAD PUSH1 0x1 PUSH1 0x1 PUSH1 0xA0 SHL SUB DUP2 AND DUP2 SUB PUSH2 0x2FD JUMPI SWAP1 JUMP JUMPDEST ISZERO PUSH2 0x377E JUMPI JUMP JUMPDEST PUSH1 0x40 MLOAD PUSH3 0x461BCD PUSH1 0xE5 SHL DUP2 MSTORE PUSH1 0x20 PUSH1 0x4 DUP3 ADD MSTORE PUSH1 0x12 PUSH1 0x24 DUP3 ADD MSTORE PUSH18 0x10DBDB9D1C9858DD081A5CC81C185D5CD959 PUSH1 0x72 SHL PUSH1 0x44 DUP3 ADD MSTORE PUSH1 0x64 SWAP1 REVERT JUMPDEST ISZERO PUSH2 0x37BF JUMPI JUMP JUMPDEST PUSH1 0x40 MLOAD PUSH3 0x461BCD PUSH1 0xE5 SHL DUP2 MSTORE PUSH1 0x20 PUSH1 0x4 DUP3 ADD MSTORE PUSH1 0x16 PUSH1 0x24 DUP3 ADD MSTORE PUSH22 0x1059191C995CDCC81A5CC8189B1858DADB1A5CDD1959 PUSH1 0x52 SHL PUSH1 0x44 DUP3 ADD MSTORE PUSH1 0x64 SWAP1 REVERT JUMPDEST SWAP2 SWAP1 DUP3 ADD DUP1 SWAP3 GT PUSH2 0x1D38 JUMPI JUMP JUMPDEST DUP2 DUP2 MUL SWAP3 SWAP2 DUP2 ISZERO SWAP2 DUP5 DIV EQ OR ISZERO PUSH2 0x1D38 JUMPI JUMP JUMPDEST ISZERO PUSH2 0x3824 JUMPI JUMP JUMPDEST PUSH1 0x40 MLOAD PUSH3 0x461BCD PUSH1 0xE5 SHL DUP2 MSTORE PUSH1 0x20 PUSH1 0x4 DUP3 ADD MSTORE PUSH1 0x19 PUSH1 0x24 DUP3 ADD MSTORE PUSH32 0x496E73756666696369656E7420706F6F6C2062616C616E636500000000000000 PUSH1 0x44 DUP3 ADD MSTORE PUSH1 0x64 SWAP1 REVERT JUMPDEST ISZERO PUSH2 0x3870 JUMPI JUMP JUMPDEST PUSH1 0x40 MLOAD PUSH3 0x461BCD PUSH1 0xE5 SHL DUP2 MSTORE PUSH1 0x20 PUSH1 0x4 DUP3 ADD MSTORE PUSH1 0xF PUSH1 0x24 DUP3 ADD MSTORE PUSH15 0x151C985B9CD9995C8819985A5B1959 PUSH1 0x8A SHL PUSH1 0x44 DUP3 ADD MSTORE PUSH1 0x64 SWAP1 REVERT JUMPDEST ISZERO PUSH2 0x38AE JUMPI JUMP JUMPDEST PUSH1 0x40 MLOAD PUSH3 0x461BCD PUSH1 0xE5 SHL DUP2 MSTORE PUSH1 0x20 PUSH1 0x4 DUP3 ADD MSTORE PUSH1 0x11 PUSH1 0x24 DUP3 ADD MSTORE PUSH17 0x496E76616C6964207369676E6174757265 PUSH1 0x78 SHL PUSH1 0x44 DUP3 ADD MSTORE PUSH1 0x64 SWAP1 REVERT JUMPDEST SWAP3 SWAP2 SWAP3 PUSH8 0xFFFFFFFFFFFFFFFF DUP3 GT PUSH2 0x1CF0 JUMPI PUSH1 0x40 MLOAD SWAP2 PUSH2 0x3911 PUSH1 0x1F DUP3 ADD PUSH1 0x1F NOT AND PUSH1 0x20 ADD DUP5 PUSH2 0x3643 JUMP JUMPDEST DUP3 SWAP5 DUP2 DUP5 MSTORE DUP2 DUP4 ADD GT PUSH2 0x2FD JUMPI DUP3 DUP2 PUSH1 0x20 SWAP4 DUP5 PUSH1 0x0 SWAP7 ADD CALLDATACOPY ADD ADD MSTORE JUMP JUMPDEST ISZERO PUSH2 0x3935 JUMPI JUMP JUMPDEST PUSH1 0x40 MLOAD PUSH3 0x461BCD PUSH1 0xE5 SHL DUP2 MSTORE PUSH1 0x20 PUSH1 0x4 DUP3 ADD MSTORE PUSH1 0x1C PUSH1 0x24 DUP3 ADD MSTORE PUSH32 0x5461736B20616C726561647920636F6D706C6574656420746F64617900000000 PUSH1 0x44 DUP3 ADD MSTORE PUSH1 0x64 SWAP1 REVERT JUMPDEST SWAP4 SWAP3 SWAP2 DUP1 PUSH1 0x60 SWAP2 PUSH1 0x20 SWAP4 PUSH1 0x40 DUP9 MSTORE DUP2 PUSH1 0x40 DUP10 ADD MSTORE DUP4 DUP9 ADD CALLDATACOPY PUSH1 0x0 DUP3 DUP3 DUP9 ADD ADD MSTORE PUSH1 0x1F DUP1 NOT SWAP2 ADD AND DUP6 ADD ADD SWAP4 ADD MSTORE JUMP JUMPDEST ISZERO PUSH2 0x39B0 JUMPI JUMP JUMPDEST PUSH1 0x40 MLOAD PUSH3 0x461BCD PUSH1 0xE5 SHL DUP2 MSTORE PUSH1 0x20 PUSH1 0x4 DUP3 ADD MSTORE PUSH1 0xF PUSH1 0x24 DUP3 ADD MSTORE PUSH15 0x105B1C9958591E4818DB185A5B5959 PUSH1 0x8A SHL PUSH1 0x44 DUP3 ADD MSTORE PUSH1 0x64 SWAP1 REVERT JUMPDEST PUSH1 0x1 PUSH1 0x1 PUSH1 0xA0 SHL SUB AND PUSH1 0x0 SWAP1 DUP2 MSTORE PUSH1 0x14 PUSH1 0x20 MSTORE PUSH1 0x40 DUP2 KECCAK256 PUSH1 0x1 DUP2 ADD SLOAD PUSH3 0x15180 TIMESTAMP DIV SWAP1 SUB PUSH2 0x3A27 JUMPI SLOAD SWAP1 PUSH1 0xFF DUP3 AND SWAP3 PUSH1 0xFF DUP1 DUP5 PUSH1 0x8 SHR AND SWAP4 PUSH1 0x10 SHR AND SWAP2 SWAP1 JUMP JUMPDEST POP DUP1 SWAP2 DUP2 SWAP1 PUSH1 0x1 SWAP1 JUMP JUMPDEST PUSH1 0x1 PUSH1 0x1 PUSH1 0xA0 SHL SUB AND PUSH1 0x0 SWAP1 DUP2 MSTORE PUSH1 0x14 PUSH1 0x20 MSTORE PUSH1 0x40 SWAP1 KECCAK256 PUSH1 0x1 DUP2 ADD DUP1 SLOAD PUSH3 0x15180 TIMESTAMP DIV SWAP3 SWAP1 DUP4 SWAP1 SUB PUSH2 0x3A62 JUMPI POP POP POP JUMP JUMPDEST DUP1 SLOAD PUSH3 0xFFFFFF NOT AND SWAP1 SSTORE SSTORE JUMP JUMPDEST SWAP1 SWAP2 PUSH2 0x3AB8 PUSH1 0x54 PUSH2 0x3AF8 SWAP7 SWAP6 SWAP5 DUP4 PUSH1 0x40 MLOAD SWAP5 DUP6 SWAP3 PUSH1 0x20 DUP5 ADD SWAP8 PUSH1 0x1 PUSH1 0x1 PUSH1 0x60 SHL SUB NOT SWAP1 PUSH1 0x60 SHL AND DUP9 MSTORE PUSH1 0x34 DUP5 ADD CALLDATACOPY DUP2 ADD PUSH3 0x15180 TIMESTAMP DIV PUSH1 0x34 DUP3 ADD MSTORE SUB PUSH1 0x34 DUP2 ADD DUP5 MSTORE ADD DUP3 PUSH2 0x3643 JUMP JUMPDEST MLOAD SWAP1 KECCAK256 PUSH1 0x40 MLOAD PUSH1 0x20 DUP2 ADD SWAP2 PUSH32 0x19457468657265756D205369676E6564204D6573736167653A0A333200000000 DUP4 MSTORE PUSH1 0x3C DUP3 ADD MSTORE PUSH1 0x3C DUP2 MSTORE PUSH2 0x2881 DUP2 PUSH2 0x3627 JUMP JUMPDEST PUSH1 0x11 SLOAD PUSH1 0x1 PUSH1 0x1 PUSH1 0xA0 SHL SUB SWAP2 DUP3 AND SWAP2 AND EQ SWAP1 JUMP JUMPDEST SWAP2 PUSH1 0x41 SUB PUSH2 0x3B6E JUMPI PUSH1 0x40 DUP2 ADD CALLDATALOAD PUSH1 0x0 BYTE PUSH1 0x1B DUP2 LT PUSH2 0x3B5C JUMPI JUMPDEST PUSH1 0x20 SWAP3 DUP4 PUSH1 0x0 SWAP4 PUSH1 0xFF PUSH1 0x80 SWAP5 PUSH1 0x40 MLOAD SWAP5 DUP6 MSTORE AND DUP3 DUP5 ADD MSTORE DUP1 CALLDATALOAD PUSH1 0x40 DUP5 ADD MSTORE ADD CALLDATALOAD PUSH1 0x60 DUP3 ADD MSTORE DUP3 DUP1 MSTORE PUSH1 0x1 GAS STATICCALL ISZERO PUSH2 0x860 JUMPI PUSH1 0x0 MLOAD SWAP1 JUMP JUMPDEST PUSH1 0x1B ADD SWAP1 PUSH1 0xFF DUP3 GT PUSH2 0x1D38 JUMPI SWAP1 PUSH2 0x3B25 JUMP JUMPDEST PUSH1 0x40 MLOAD PUSH3 0x461BCD PUSH1 0xE5 SHL DUP2 MSTORE PUSH1 0x20 PUSH1 0x4 DUP3 ADD MSTORE PUSH1 0x18 PUSH1 0x24 DUP3 ADD MSTORE PUSH32 0x496E76616C6964207369676E6174757265206C656E6774680000000000000000 PUSH1 0x44 DUP3 ADD MSTORE PUSH1 0x64 SWAP1 REVERT JUMPDEST CALLDATALOAD DUP1 ISZERO ISZERO DUP2 SUB PUSH2 0x2FD JUMPI SWAP1 JUMP JUMPDEST ISZERO PUSH2 0x3BC7 JUMPI JUMP JUMPDEST PUSH1 0x40 MLOAD PUSH3 0x461BCD PUSH1 0xE5 SHL DUP2 MSTORE PUSH1 0x20 PUSH1 0x4 DUP3 ADD MSTORE PUSH1 0xE PUSH1 0x24 DUP3 ADD MSTORE PUSH14 0x125B9D985B1A5908185B5BDD5B9D PUSH1 0x92 SHL PUSH1 0x44 DUP3 ADD MSTORE PUSH1 0x64 SWAP1 REVERT INVALID PUSH8 0xA8D47C6ECF3A491E 0xA8 LOG4 CALLCODE EXP PC CALLDATALOAD 0x23 SWAP5 DUP8 SWAP13 JUMPI EXTCODECOPY PUSH8 0x8EC5B9ABCEAE075D 0x4D 0xCA STATICCALL SUB CODESIZE ADDRESS 0xC4 DUP6 CREATE DUP16 PUSH1 0x8E EXTCODECOPY BALANCE SWAP14 SWAP12 DUP16 0xAE EXP CALL 0xAB 0xDA PUSH21 0x131F96E0BCD8AED54772DDE6D2AE151935A76DC9B9 MSTORE8 CODESIZE CODESIZE SLOAD 0x4A 0xE8 SGT PUSH27 0xD6337FFD21A54E415AB781611F60A2646970667358221220305470 SWAP11 SSTORE SWAP6 0xF8 0xDA MUL 0xB2 BALANCE 0x27 0x29 0xF9 0x4E PUSH17 0xEFE550FF68A6D9F754AB94543D7387E64 PUSH20 0x6F6C634300081300330000000000000000000000 "},"methodIdentifiers":{"baseDailyReward()":"e9aae650","batchMigrateFromV1(address[])":"ba9271ad","batchSetBlacklist(address[],bool[])":"565c99ac","betaTesterReward()":"cecfbead","blacklist(address)":"f9f92be4","claimAchievement(string,bytes)":"7a994cd0","claimDaily()":"89934d3a","claimingEnabled()":"0e141a9b","completeTask(string,bytes)":"db3eef3f","createPredictionReward()":"ed4c85a9","dailyTasks(address)":"df312b1e","depositSwipe(uint256)":"a079d40c","emergencyWithdraw()":"db2e21bc","followSocialsReward()":"7bb03085","getPoolStats()":"bbb85188","getUserAchievements(address)":"f09153c4","getUserDailyTasks(address)":"c7105609","getUserStats(address)":"4e43603a","hasUsedReferral(address)":"09b5a33a","jackpotAmount()":"b1eac37e","jackpotChance()":"0604ce27","maxStreakBonusDays()":"e91c7d33","migrateFromV1()":"79b9c399","migrationEnabled()":"35b944bf","owner()":"8da5cb5b","paused()":"5c975abb","referralCount(address)":"db74559b","referralReward()":"4d683674","referredBy(address)":"a90f8e9a","registerReferral(address,bytes)":"5a9d93f1","setBaseDailyReward(uint256)":"575c0f83","setBetaTesterReward(uint256)":"6fea4538","setBlacklist(address,bool)":"153b0d1e","setClaimingEnabled(bool)":"b6c72888","setCreatePredictionReward(uint256)":"cf17beaf","setFollowSocialsReward(uint256)":"66598874","setJackpotAmount(uint256)":"8beaf1c5","setJackpotChance(uint256)":"bdf0f1aa","setMaxStreakBonusDays(uint256)":"8b311fbc","setMigrationEnabled(bool)":"521c27f2","setPaused(bool)":"16c38b3c","setReferralReward(uint256)":"8fb6c6f6","setShareCastReward(uint256)":"8372acf7","setStreak30Reward(uint256)":"5951ac65","setStreak7Reward(uint256)":"35dbc94a","setStreakBonusPerDay(uint256)":"dfae07ff","setTaskVerifier(address)":"70ed4620","setTradingVolumeReward(uint256)":"1f66351a","shareCastReward()":"9cc8e7eb","streak30Reward()":"3f9bcde2","streak7Reward()":"e7865e57","streakBonusPerDay()":"2f44a61c","swipeToken()":"492c70fb","taskVerifier()":"1e23a7f0","totalClaims()":"41c61383","totalDistributed()":"efca2eed","totalUsers()":"bff1f9e1","tradingVolumeReward()":"edd6c848","transferOwnership(address)":"f2fde38b","users(address)":"a87430ba","v1Contract()":"ed1ec0f4"}}}}}