{"contracts/SwipeDailyRewards.sol":{"SwipeDailyRewards":{"abi":[{"inputs":[{"internalType":"address","name":"_swipeToken","type":"address"},{"internalType":"address","name":"_taskVerifier","type":"address"}],"stateMutability":"nonpayable","type":"constructor"},{"anonymous":false,"inputs":[{"indexed":true,"internalType":"address","name":"user","type":"address"},{"indexed":false,"internalType":"string","name":"achievement","type":"string"},{"indexed":false,"internalType":"uint256","name":"reward","type":"uint256"}],"name":"AchievementUnlocked","type":"event"},{"anonymous":false,"inputs":[{"indexed":false,"internalType":"bool","name":"enabled","type":"bool"}],"name":"ClaimingToggled","type":"event"},{"anonymous":false,"inputs":[{"indexed":true,"internalType":"address","name":"user","type":"address"},{"indexed":false,"internalType":"uint256","name":"baseAmount","type":"uint256"},{"indexed":false,"internalType":"uint256","name":"streakBonus","type":"uint256"},{"indexed":false,"internalType":"uint256","name":"totalAmount","type":"uint256"},{"indexed":false,"internalType":"uint256","name":"currentStreak","type":"uint256"},{"indexed":false,"internalType":"bool","name":"wonJackpot","type":"bool"}],"name":"DailyClaimed","type":"event"},{"anonymous":false,"inputs":[{"indexed":true,"internalType":"address","name":"to","type":"address"},{"indexed":false,"internalType":"uint256","name":"amount","type":"uint256"}],"name":"EmergencyWithdraw","type":"event"},{"anonymous":false,"inputs":[{"indexed":false,"internalType":"bool","name":"isPaused","type":"bool"}],"name":"Paused","type":"event"},{"anonymous":false,"inputs":[{"indexed":true,"internalType":"address","name":"referrer","type":"address"},{"indexed":true,"internalType":"address","name":"referred","type":"address"},{"indexed":false,"internalType":"uint256","name":"rewardEach","type":"uint256"}],"name":"ReferralRegistered","type":"event"},{"anonymous":false,"inputs":[{"indexed":true,"internalType":"address","name":"from","type":"address"},{"indexed":false,"internalType":"uint256","name":"amount","type":"uint256"}],"name":"SwipeDeposited","type":"event"},{"anonymous":false,"inputs":[{"indexed":true,"internalType":"address","name":"user","type":"address"},{"indexed":false,"internalType":"string","name":"taskType","type":"string"},{"indexed":false,"internalType":"uint256","name":"reward","type":"uint256"}],"name":"TaskCompleted","type":"event"},{"anonymous":false,"inputs":[{"indexed":true,"internalType":"address","name":"newVerifier","type":"address"}],"name":"TaskVerifierUpdated","type":"event"},{"inputs":[],"name":"BASE_DAILY_REWARD","outputs":[{"internalType":"uint256","name":"","type":"uint256"}],"stateMutability":"view","type":"function"},{"inputs":[],"name":"BETA_TESTER_REWARD","outputs":[{"internalType":"uint256","name":"","type":"uint256"}],"stateMutability":"view","type":"function"},{"inputs":[],"name":"CREATE_PREDICTION_REWARD","outputs":[{"internalType":"uint256","name":"","type":"uint256"}],"stateMutability":"view","type":"function"},{"inputs":[],"name":"FOLLOW_SOCIALS_REWARD","outputs":[{"internalType":"uint256","name":"","type":"uint256"}],"stateMutability":"view","type":"function"},{"inputs":[],"name":"INITIAL_POOL_SIZE","outputs":[{"internalType":"uint256","name":"","type":"uint256"}],"stateMutability":"view","type":"function"},{"inputs":[],"name":"JACKPOT_AMOUNT","outputs":[{"internalType":"uint256","name":"","type":"uint256"}],"stateMutability":"view","type":"function"},{"inputs":[],"name":"JACKPOT_CHANCE","outputs":[{"internalType":"uint256","name":"","type":"uint256"}],"stateMutability":"view","type":"function"},{"inputs":[],"name":"MAX_STREAK_BONUS_DAYS","outputs":[{"internalType":"uint256","name":"","type":"uint256"}],"stateMutability":"view","type":"function"},{"inputs":[],"name":"REFERRAL_REWARD","outputs":[{"internalType":"uint256","name":"","type":"uint256"}],"stateMutability":"view","type":"function"},{"inputs":[],"name":"SHARE_CAST_REWARD","outputs":[{"internalType":"uint256","name":"","type":"uint256"}],"stateMutability":"view","type":"function"},{"inputs":[],"name":"STREAK_30_REWARD","outputs":[{"internalType":"uint256","name":"","type":"uint256"}],"stateMutability":"view","type":"function"},{"inputs":[],"name":"STREAK_7_REWARD","outputs":[{"internalType":"uint256","name":"","type":"uint256"}],"stateMutability":"view","type":"function"},{"inputs":[],"name":"STREAK_BONUS_PER_DAY","outputs":[{"internalType":"uint256","name":"","type":"uint256"}],"stateMutability":"view","type":"function"},{"inputs":[],"name":"TRADING_VOLUME_REWARD","outputs":[{"internalType":"uint256","name":"","type":"uint256"}],"stateMutability":"view","type":"function"},{"inputs":[{"internalType":"string","name":"achievementType","type":"string"},{"internalType":"bytes","name":"signature","type":"bytes"}],"name":"claimAchievement","outputs":[],"stateMutability":"nonpayable","type":"function"},{"inputs":[],"name":"claimDaily","outputs":[],"stateMutability":"nonpayable","type":"function"},{"inputs":[],"name":"claimingEnabled","outputs":[{"internalType":"bool","name":"","type":"bool"}],"stateMutability":"view","type":"function"},{"inputs":[{"internalType":"string","name":"taskType","type":"string"},{"internalType":"bytes","name":"signature","type":"bytes"}],"name":"completeTask","outputs":[],"stateMutability":"nonpayable","type":"function"},{"inputs":[{"internalType":"address","name":"","type":"address"}],"name":"dailyTasks","outputs":[{"internalType":"bool","name":"shareCast","type":"bool"},{"internalType":"bool","name":"createPrediction","type":"bool"},{"internalType":"bool","name":"tradingVolume","type":"bool"},{"internalType":"uint256","name":"resetDay","type":"uint256"}],"stateMutability":"view","type":"function"},{"inputs":[{"internalType":"uint256","name":"amount","type":"uint256"}],"name":"depositSwipe","outputs":[],"stateMutability":"nonpayable","type":"function"},{"inputs":[],"name":"emergencyWithdraw","outputs":[],"stateMutability":"nonpayable","type":"function"},{"inputs":[],"name":"getPoolStats","outputs":[{"internalType":"uint256","name":"poolBalance","type":"uint256"},{"internalType":"uint256","name":"distributed","type":"uint256"},{"internalType":"uint256","name":"userCount","type":"uint256"},{"internalType":"uint256","name":"claimCount","type":"uint256"}],"stateMutability":"view","type":"function"},{"inputs":[{"internalType":"address","name":"user","type":"address"}],"name":"getUserAchievements","outputs":[{"internalType":"bool","name":"isBetaTester","type":"bool"},{"internalType":"bool","name":"hasFollowedSocials","type":"bool"},{"internalType":"bool","name":"hasStreak7","type":"bool"},{"internalType":"bool","name":"hasStreak30","type":"bool"},{"internalType":"uint256","name":"referrals","type":"uint256"}],"stateMutability":"view","type":"function"},{"inputs":[{"internalType":"address","name":"user","type":"address"}],"name":"getUserDailyTasks","outputs":[{"internalType":"bool","name":"shareCast","type":"bool"},{"internalType":"bool","name":"createPrediction","type":"bool"},{"internalType":"bool","name":"tradingVolume","type":"bool"},{"internalType":"bool","name":"needsReset","type":"bool"}],"stateMutability":"view","type":"function"},{"inputs":[{"internalType":"address","name":"user","type":"address"}],"name":"getUserStats","outputs":[{"internalType":"uint256","name":"lastClaimTimestamp","type":"uint256"},{"internalType":"uint256","name":"currentStreak","type":"uint256"},{"internalType":"uint256","name":"longestStreak","type":"uint256"},{"internalType":"uint256","name":"totalClaimed","type":"uint256"},{"internalType":"uint256","name":"jackpotsWon","type":"uint256"},{"internalType":"bool","name":"canClaimToday","type":"bool"},{"internalType":"uint256","name":"nextClaimTime","type":"uint256"},{"internalType":"uint256","name":"potentialReward","type":"uint256"}],"stateMutability":"view","type":"function"},{"inputs":[{"internalType":"address","name":"","type":"address"}],"name":"hasUsedReferral","outputs":[{"internalType":"bool","name":"","type":"bool"}],"stateMutability":"view","type":"function"},{"inputs":[],"name":"owner","outputs":[{"internalType":"address","name":"","type":"address"}],"stateMutability":"view","type":"function"},{"inputs":[],"name":"paused","outputs":[{"internalType":"bool","name":"","type":"bool"}],"stateMutability":"view","type":"function"},{"inputs":[{"internalType":"address","name":"","type":"address"}],"name":"referralCount","outputs":[{"internalType":"uint256","name":"","type":"uint256"}],"stateMutability":"view","type":"function"},{"inputs":[{"internalType":"address","name":"","type":"address"}],"name":"referredBy","outputs":[{"internalType":"address","name":"","type":"address"}],"stateMutability":"view","type":"function"},{"inputs":[{"internalType":"address","name":"referrer","type":"address"}],"name":"registerReferral","outputs":[],"stateMutability":"nonpayable","type":"function"},{"inputs":[{"internalType":"bool","name":"enabled","type":"bool"}],"name":"setClaimingEnabled","outputs":[],"stateMutability":"nonpayable","type":"function"},{"inputs":[{"internalType":"bool","name":"_paused","type":"bool"}],"name":"setPaused","outputs":[],"stateMutability":"nonpayable","type":"function"},{"inputs":[{"internalType":"address","name":"newVerifier","type":"address"}],"name":"setTaskVerifier","outputs":[],"stateMutability":"nonpayable","type":"function"},{"inputs":[],"name":"swipeToken","outputs":[{"internalType":"contract IERC20","name":"","type":"address"}],"stateMutability":"view","type":"function"},{"inputs":[],"name":"taskVerifier","outputs":[{"internalType":"address","name":"","type":"address"}],"stateMutability":"view","type":"function"},{"inputs":[],"name":"totalClaims","outputs":[{"internalType":"uint256","name":"","type":"uint256"}],"stateMutability":"view","type":"function"},{"inputs":[],"name":"totalDistributed","outputs":[{"internalType":"uint256","name":"","type":"uint256"}],"stateMutability":"view","type":"function"},{"inputs":[],"name":"totalUsers","outputs":[{"internalType":"uint256","name":"","type":"uint256"}],"stateMutability":"view","type":"function"},{"inputs":[{"internalType":"address","name":"newOwner","type":"address"}],"name":"transferOwnership","outputs":[],"stateMutability":"nonpayable","type":"function"},{"inputs":[{"internalType":"address","name":"","type":"address"}],"name":"users","outputs":[{"internalType":"uint256","name":"lastClaimTimestamp","type":"uint256"},{"internalType":"uint256","name":"currentStreak","type":"uint256"},{"internalType":"uint256","name":"longestStreak","type":"uint256"},{"internalType":"uint256","name":"totalClaimed","type":"uint256"},{"internalType":"uint256","name":"lastTaskResetDay","type":"uint256"},{"internalType":"uint256","name":"jackpotsWon","type":"uint256"},{"internalType":"bool","name":"isBetaTester","type":"bool"},{"internalType":"bool","name":"hasFollowedSocials","type":"bool"},{"internalType":"bool","name":"hasStreak7Achievement","type":"bool"},{"internalType":"bool","name":"hasStreak30Achievement","type":"bool"}],"stateMutability":"view","type":"function"}],"evm":{"bytecode":{"linkReferences":{},"object":"60a0346200019c57601f6200263138819003918201601f19168301916001600160401b03831184841017620001a15780849260409485528339810103126200019c576200005a60206200005283620001b7565b9201620001b7565b600454916001600160a01b039081169182156200015757169081156200011257600080546001600160a01b031916331790556080526001600160b01b031990911617600160a01b176004556040516124649081620001cd82396080518181816104bf015281816107450152818161093701528181610b9801528181610dba01528181610e9c01528181610f7a0152818161101301528181611149015281816111f70152818161151c0152818161190e0152611a220152f35b60405162461bcd60e51b815260206004820152601860248201527f496e76616c6964207665726966696572206164647265737300000000000000006044820152606490fd5b60405162461bcd60e51b815260206004820152601560248201527f496e76616c696420746f6b656e206164647265737300000000000000000000006044820152606490fd5b600080fd5b634e487b7160e01b600052604160045260246000fd5b51906001600160a01b03821682036200019c5756fe608080604052600436101561001357600080fd5b60003560e01c90816309b5a33a14611e7f575080630e141a9b14611e595780630f7cda7614610a3e57806316c38b3c14611de05780631e23a7f014611db7578063209ab71114611960578063216caf4d1461195b578063265a58d81461195b57806341c613831461193d578063492c70fb146118f85780634e43603a146117b55780634e6446a2146117905780635c975abb1461176a57806370ed4620146116bd5780637a994cd01461148157806384a3a0f31461145c57806388df05891461143757806389934d3a14610c6a5780638da5cb5b14610c415780639f530cc914610c25578063a079d40c14610b57578063a0b873fb14610329578063a87430ba14610aa9578063a90f8e9a14610a69578063afcc78be14610a43578063b6ab790e14610a3e578063b6c72888146109c5578063bbb851881461090b578063bf1e8b3a146108ef578063bff1f9e1146108d1578063c710560914610882578063db2e21bc14610702578063db3eef3f146103f9578063db74559b146103bb578063df312b1e14610353578063e551b71a1461032e578063ea4f64b014610329578063efc7a86414610304578063efca2eed146102e6578063f09153c4146102695763f2fde38b146101e257600080fd5b34610264576020366003190112610264576004356001600160a01b03818116918290036102645761021960005491821633146123f6565b811561022f576001600160a01b03191617600055005b60405162461bcd60e51b815260206004820152600d60248201526c24b73b30b634b21037bbb732b960991b6044820152606490fd5b600080fd5b34610264576020366003190112610264576004356001600160a01b0381169081900361026457600052600560205260a0600660406000200154600860205260406000205460ff6040519281811615158452818160081c1615156020850152818160101c161515604085015260181c16151560608301526080820152f35b34610264576000366003190112610264576020600154604051908152f35b3461026457600036600319011261026457602060405169d3c21bcecceda10000008152f35b611f82565b346102645760003660031901126102645760206040516969e10de76676d08000008152f35b34610264576020366003190112610264576004356001600160a01b03811690819003610264576000526006602052608060406000206001815491015460ff6040519281811615158452818160081c161515602085015260101c16151560408301526060820152f35b34610264576020366003190112610264576004356001600160a01b038116908190036102645760005260086020526020604060002054604051908152f35b346102645761043361042e61040d36611f37565b9061042660ff60049795979694965460a81c1615611fa7565b848633612290565b6120c8565b61043c33612252565b33600052602090600682526040600020610457368386612108565b8051908401207f59f9c19ce4d2104b5074afdbd422a67ce762a07b67944dfc1ac72cebc1ef9fb3810361061d57506001815461049660ff82161561214f565b60ff1916179055690a968163f0a57b400000905b6040516370a0823160e01b81523060048201527f00000000000000000000000000000000000000000000000000000000000000006001600160a01b031693908181602481885afa80156105e05784906000906105ec575b61050d92501015612026565b33600052600581526003604060002001610528848254611fe8565b905561053683600154611fe8565b60015560405163a9059cbb60e01b815233600482015260248101849052938190859060449082906000905af180156105e0577f10ddce2fe83f593b5a578fdeaea55181daa98b7e1e4652e712b2c821622fc3079461059d926000926105b3575b505061208a565b6105ae60405192839233968461219b565b0390a2005b6105d29250803d106105d9575b6105ca8183612004565b810190612072565b8680610596565b503d6105c0565b6040513d6000823e3d90fd5b50508181813d8311610616575b6106038183612004565b81010312610264578361050d9151610501565b503d6105f9565b7f103f7b2dda1595da24c03f5970d4163272b9badb6161a376876bfea67102615c81036106735750610100815461065a60ff8260081c161561214f565b61ff001916179055690fe1c215e8f838e00000906104aa565b7f6c25e4722cb75723d0f45967423f4fefc1866b6db42936b2e4c9827f9d9f8ccd036106c9576201000081546106af60ff8260101c161561214f565b62ff0000191617905569152d02c7e14af6800000906104aa565b60405162461bcd60e51b8152600481018490526011602482015270496e76616c6964207461736b207479706560781b6044820152606490fd5b34610264576000366003190112610264576000546001600160a01b0390811661072c3382146123f6565b6040516370a0823160e01b8152306004820152916020917f00000000000000000000000000000000000000000000000000000000000000008216908385602481855afa9485156105e057600095610853575b5084156108215760405163a9059cbb60e01b81526001600160a01b03919091166004820152602481018590529291908290849060449082906000905af19283156105e0577f5fafa99d0643513820be26656b45130b01e1c03062e1266bf36f88cbd3bd9695936107f691600091610804575b5061208a565b6000541692604051908152a2005b61081b9150843d86116105d9576105ca8183612004565b866107f0565b60405162461bcd60e51b815260048101859052600a6024820152694e6f2062616c616e636560b01b6044820152606490fd5b9094508381813d831161087b575b61086b8183612004565b810103126102645751938561077e565b503d610861565b34610264576020366003190112610264576004356001600160a01b0381168103610264576108b1608091612208565b916040519315158452151560208401521515604083015215156060820152f35b34610264576000366003190112610264576020600254604051908152f35b34610264576000366003190112610264576020604051600a8152f35b34610264576000366003190112610264576040516370a0823160e01b81523060048201526020816024817f00000000000000000000000000000000000000000000000000000000000000006001600160a01b03165afa80156105e057600090610993575b60809060015460025460035491604051938452602084015260408301526060820152f35b506020813d82116109bd575b816109ac60209383612004565b81010312610264576080905161096f565b3d915061099f565b34610264576020366003190112610264576004358015158091036102645760207f5357603b66ce52ad2bde073bf1baae8a126a96ae712f396257fa4b57169c36ab91610a1c60018060a01b036000541633146123f6565b6004805460ff60a01b191660a083901b60ff60a01b16179055604051908152a1005b611ebf565b346102645760003660031901126102645760206040516acecb8f27f4200f3a0000008152f35b34610264576020366003190112610264576004356001600160a01b0381811691829003610264576020916000526007825260406000205416604051908152f35b34610264576020366003190112610264576004356001600160a01b03811690819003610264576000526005602052610140604060002060ff815491600181015490600281015460038201546004830154916006600585015494015494604051978852602088015260408701526060860152608085015260a0840152818116151560c0840152818160081c16151560e0840152818160101c16151561010084015260181c161515610120820152f35b34610264576020366003190112610264576040516323b872dd60e01b81523360048281019190915230602483015235604482018190529060208160648160007f00000000000000000000000000000000000000000000000000000000000000006001600160a01b03165af180156105e057610bd991600091610c07575061208a565b6040519081527fb9ea67a19ab6bc678d42c223c0b3c9b7947918f351c3377a0e07e1b7332444c760203392a2005b610c1f915060203d81116105d9576105ca8183612004565b836107f0565b3461026457600036600319011261026457602060405160058152f35b34610264576000366003190112610264576000546040516001600160a01b039091168152602090f35b346102645760003660031901126102645760ff600454610c8f828260a81c1615611fa7565b60a01c16156113fb57336000526005602052604060002080546201518081018082116110bf5742106113be57156113ab575b80548015159081611393575b50156113885760018101610ce18154611ff5565b90555b6001810154806002830180548211611380575b5050600a81111561137a5750600a905b69021e19e0c9bab240000082818102048114831517156110bf57808302690a968163f0a57b400000019182690a968163f0a57b400000116110bf5782906001546040519060208201904282524460408401523360601b606084015260748301524360948301526094825260c082019082821067ffffffffffffffff8311176113645760059260649260405251902006109384611334575b506040516370a0823160e01b81523060048201526020816024817f00000000000000000000000000000000000000000000000000000000000000006001600160a01b03165afa80156105e05783906000906112fe575b610e0092501015612026565b42815560038101610e12838254611fe8565b9055610e2082600154611fe8565b600155610e2e600354611ff5565b600355610e3a33612252565b336000526005602052604060002060018101600781541015806112ec575b61111b575b601e9054101580611109575b610f49575b5060405163a9059cbb60e01b8152336004820152602481018390529060208260448160006001600160a01b037f0000000000000000000000000000000000000000000000000000000000000000165af19182156105e057600192610ed991600091610f2a575061208a565b01549160405194690a968163f0a57b40000086520260208501526040840152606083015260808201527f0b3cf2cd3b2ce31e0ff7cbb3f2562d51047e60d290a130fefc85fb019ee6fcc060a03392a2005b610f43915060203d6020116105d9576105ca8183612004565b886107f0565b60068101805463ff000000191663010000001790556040516370a0823160e01b8152306004820152906020826024817f00000000000000000000000000000000000000000000000000000000000000006001600160a01b03165afa9182156105e0576000926110d5575b5069d3c21bcecceda100000080921015610fce575b50610e6e565b6003018054908282018092116110bf57556001548181018091116110bf5760015560405163a9059cbb60e01b81523360048201526024810182905260208160448160007f00000000000000000000000000000000000000000000000000000000000000006001600160a01b03165af180156105e0576110a0575b506040519060408252600d60408301526c33305f4441595f53545245414b60981b606083015260208201527f67a8d47c6ecf3a491ea8a4f20a58352394879c573c678ec5b9abceae075d4dca60803392a28580610fc8565b6110b89060203d6020116105d9576105ca8183612004565b5086611048565b634e487b7160e01b600052601160045260246000fd5b9091506020813d602011611101575b816110f160209383612004565b8101031261026457519087610fb3565b3d91506110e4565b5060ff600682015460181c1615610e69565b60068201805462ff00001916620100001790556040516370a0823160e01b81523060048201526020816024817f00000000000000000000000000000000000000000000000000000000000000006001600160a01b03165afa80156105e0576000906112b0575b6934f086f3b33b68400000915010610e5d57600382018054906934f086f3b33b6840000082018092116110bf57556001546934f086f3b33b6840000081018091116110bf5760015560405163a9059cbb60e01b81523360048201526934f086f3b33b6840000060248201529060208260448160007f00000000000000000000000000000000000000000000000000000000000000006001600160a01b03165af19182156105e057601e92611291575b5060405160408152600c60408201526b375f4441595f53545245414b60a01b60608201526934f086f3b33b6840000060208201527f67a8d47c6ecf3a491ea8a4f20a58352394879c573c678ec5b9abceae075d4dca60803392a29050610e5d565b6112a99060203d6020116105d9576105ca8183612004565b5088611230565b506020813d6020116112e4575b816112ca60209383612004565b81010312610264576934f086f3b33b684000009051611181565b3d91506112bd565b5060ff600683015460101c1615610e58565b50506020813d60201161132c575b8161131960209383612004565b810103126102645782610e009151610df4565b3d915061130c565b909150693f870857a3e0e3800000838602018091116110bf57906005810161135c8154611ff5565b905585610d9e565b634e487b7160e01b600052604160045260246000fd5b90610d07565b558083610cf7565b600180820155610ce4565b90506202a30081018091116110bf5742111582610ccd565b6113b6600254611ff5565b600255610cc1565b60405162461bcd60e51b8152602060048201526015602482015274416c726561647920636c61696d656420746f64617960581b6044820152606490fd5b60405162461bcd60e51b815260206004820152601460248201527310db185a5b5a5b99c81a5cc8191a5cd8589b195960621b6044820152606490fd5b34610264576000366003190112610264576020604051690fe1c215e8f838e000008152f35b34610264576000366003190112610264576020604051691fc3842bd1f071c000008152f35b346102645761149561042e61040d36611f37565b336000526020600581526040600020916114b0368286612108565b8051908301207fb54e063503447bce6485adab005b8755b54ded950878440b84f8e79a1196702e8103611620575060068301600181546114f360ff8216156121ca565b60ff19161790556969e10de76676d0800000915b6040516370a0823160e01b81523060048201527f00000000000000000000000000000000000000000000000000000000000000006001600160a01b0316948282602481895afa80156105e05785926000916115ec575b5060039261156c911015612026565b01611578848254611fe8565b905561158683600154611fe8565b60015560405163a9059cbb60e01b815233600482015260248101849052938190859060449082906000905af180156105e0577f67a8d47c6ecf3a491ea8a4f20a58352394879c573c678ec5b9abceae075d4dca9461059d926000926105b357505061208a565b809350848092503d8311611619575b6116058183612004565b81010312610264579051849190600361155d565b503d6115fb565b7f126235d9d2e6036d7fac7e99f1dcd31ada7ff126658a7dd43824f3e4f265d039036116785760068301610100815461165f60ff8260081c16156121ca565b61ff00191617905569152d02c7e14af680000091611507565b60405162461bcd60e51b815260048101839052601860248201527f496e76616c696420616368696576656d656e74207479706500000000000000006044820152606490fd5b34610264576020366003190112610264576004356001600160a01b0381811691829003610264576116f3906000541633146123f6565b801561173257600480546001600160a01b031916821790557fe5b9ec72fc7e34a9021e01e954c7e54ceb50c6b1798084716afe188ffa5e13cb600080a2005b60405162461bcd60e51b815260206004820152601060248201526f24b73b30b634b2103b32b934b334b2b960811b6044820152606490fd5b3461026457600036600319011261026457602060ff60045460a81c166040519015158152f35b3461026457600036600319011261026457602060405169021e19e0c9bab24000008152f35b34610264576020366003190112610264576004356001600160a01b038116908190036102645760005260056020526040600020805460018201549160028101549060056003820154910154831590811592836118e0575b82156118cd576000935b83156118c657806118b0575b156118a957600187018088116110bf575b600a8111156118a35750600a945b69021e19e0c9bab2400000958681029681880414901517156110bf57690a968163f0a57b4000009586018096116110bf57610100976040519788526020880152604087015260608601526080850152151560a084015260c083015260e0820152f35b94611841565b6001611833565b506202a30086018087116110bf57421115611822565b5086611833565b6201518086018087116110bf5793611816565b91506201518085018086116110bf574210159161180c565b34610264576000366003190112610264576040517f00000000000000000000000000000000000000000000000000000000000000006001600160a01b03168152602090f35b34610264576000366003190112610264576020600354604051908152f35b611ee4565b3461026457602080600319360112610264576004356001600160a01b03818116918290036102645761199a60ff60045460a81c1615611fa7565b336000526009835260ff60406000205416611d7a57338214611d3d578115611d0557816000526005835260406000205415611cc05733600052600983526040600020600160ff19825416179055600783526040600020826bffffffffffffffffffffffff60a01b82541617905581600052600883526040600020611a1e8154611ff5565b90557f000000000000000000000000000000000000000000000000000000000000000016916040516370a0823160e01b815230600482015260249082818381885afa9081156105e057600091611c89575b50693f870857a3e0e3800000611a86911015612026565b82600052600582526003604060002001938454691fc3842bd1f071c0000095868201809211611be95755600154858101809111611c745760015560405163a9059cbb60e01b90818152856004820152868482015284816044816000875af19081156105e057600091611c57575b5015611c135733600052600584526003604060002001805490878201809211611bfe5755600154868101809111611be9579160448592600094600155604051948593849283523360048401528a888401525af19081156105e057600091611bcc575b5015611b8957507f90eab5d1df713df401d810f26aa9718d2b9e6894af1eb4890a332d3b185dc0e5906040519384523393a3005b90601b6064926040519262461bcd60e51b845260048401528201527f5472616e7366657220746f207265666572726564206661696c656400000000006044820152fd5b611be39150833d85116105d9576105ca8183612004565b85611b55565b83634e487b7160e01b60005260116004526000fd5b84634e487b7160e01b60005260116004526000fd5b60405162461bcd60e51b815260048101859052601b818501527f5472616e7366657220746f207265666572726572206661696c656400000000006044820152606490fd5b611c6e9150853d87116105d9576105ca8183612004565b87611af3565b82634e487b7160e01b60005260116004526000fd5b90508281813d8311611cb9575b611ca08183612004565b810103126102645751693f870857a3e0e3800000611a6f565b503d611c96565b60405162461bcd60e51b815260048101849052601c60248201527f5265666572726572206d757374206265206163746976652075736572000000006044820152606490fd5b60405162461bcd60e51b815260048101849052601060248201526f24b73b30b634b2103932b332b93932b960811b6044820152606490fd5b60405162461bcd60e51b815260048101849052601560248201527421b0b73737ba103932b332b9103cb7bab939b2b63360591b6044820152606490fd5b60405162461bcd60e51b8152600481018490526015602482015274105b1c9958591e481d5cd959081c9959995c9c985b605a1b6044820152606490fd5b34610264576000366003190112610264576004546040516001600160a01b039091168152602090f35b34610264576020366003190112610264576004358015158091036102645760207f0e2fb031ee032dc02d8011dc50b816eb450cf856abd8261680dac74f72165bd291611e3760018060a01b036000541633146123f6565b6004805460ff60a81b191660a883901b60ff60a81b16179055604051908152a1005b3461026457600036600319011261026457602060ff60045460a01c166040519015158152f35b34610264576020366003190112610264576004356001600160a01b0381169190829003610264576020916000526009825260ff6040600020541615158152f35b346102645760003660031901126102645760206040516934f086f3b33b684000008152f35b3461026457600036600319011261026457602060405169152d02c7e14af68000008152f35b9181601f840112156102645782359167ffffffffffffffff8311610264576020838186019501011161026457565b60406003198201126102645767ffffffffffffffff916004358381116102645782611f6491600401611f09565b9390939260243591821161026457611f7e91600401611f09565b9091565b34610264576000366003190112610264576020604051690a968163f0a57b4000008152f35b15611fae57565b60405162461bcd60e51b815260206004820152601260248201527110dbdb9d1c9858dd081a5cc81c185d5cd95960721b6044820152606490fd5b919082018092116110bf57565b60001981146110bf5760010190565b90601f8019910116810190811067ffffffffffffffff82111761136457604052565b1561202d57565b60405162461bcd60e51b815260206004820152601960248201527f496e73756666696369656e7420706f6f6c2062616c616e6365000000000000006044820152606490fd5b90816020910312610264575180151581036102645790565b1561209157565b60405162461bcd60e51b815260206004820152600f60248201526e151c985b9cd9995c8819985a5b1959608a1b6044820152606490fd5b156120cf57565b60405162461bcd60e51b8152602060048201526011602482015270496e76616c6964207369676e617475726560781b6044820152606490fd5b92919267ffffffffffffffff82116113645760405191612132601f8201601f191660200184612004565b829481845281830111610264578281602093846000960137010152565b1561215657565b60405162461bcd60e51b815260206004820152601c60248201527f5461736b20616c726561647920636f6d706c6574656420746f646179000000006044820152606490fd5b9392918060609160209360408852816040890152838801376000828288010152601f8019910116850101930152565b156121d157565b60405162461bcd60e51b815260206004820152600f60248201526e105b1c9958591e4818db185a5b5959608a1b6044820152606490fd5b6001600160a01b031660009081526006602052604081206001810154620151804204900361224857549060ff82169260ff808460081c169360101c169190565b5080918190600190565b6001600160a01b03166000908152600660205260409020600181018054620151804204929083900361228357505050565b805462ffffff1916905555565b9391939290926040946122df605487518381946020998a8401976bffffffffffffffffffffffff199060601b168852603484013781016201518042046034820152036034810184520182612004565b5190208451848101917f19457468657265756d205369676e6564204d6573736167653a0a3332000000008352603c820152603c8152606081019181831067ffffffffffffffff841117611364578287528151902093604019016123b65750508290600085820135901a601b811061239e575b855193845260ff16838301528035838601520135606082015260008080529060809060015afa1561239457506000516004546001600160a01b0391821691161490565b513d6000823e3d90fd5b601b919250019160ff83116110bf5791839190612351565b907f496e76616c6964207369676e6174757265206c656e677468000000000000000060a46064938762461bcd60e51b855285820152601860848201520152fd5b156123fd57565b60405162461bcd60e51b81526020600482015260096024820152682737ba1037bbb732b960b91b6044820152606490fdfea2646970667358221220db77ad17feee91c0773095dc39c6f4dcb6463ce6f39b2935ffede0e4bfc1c79064736f6c63430008130033","opcodes":"PUSH1 0xA0 CALLVALUE PUSH3 0x19C JUMPI PUSH1 0x1F PUSH3 0x2631 CODESIZE DUP2 SWAP1 SUB SWAP2 DUP3 ADD PUSH1 0x1F NOT AND DUP4 ADD SWAP2 PUSH1 0x1 PUSH1 0x1 PUSH1 0x40 SHL SUB DUP4 GT DUP5 DUP5 LT OR PUSH3 0x1A1 JUMPI DUP1 DUP5 SWAP3 PUSH1 0x40 SWAP5 DUP6 MSTORE DUP4 CODECOPY DUP2 ADD SUB SLT PUSH3 0x19C JUMPI PUSH3 0x5A PUSH1 0x20 PUSH3 0x52 DUP4 PUSH3 0x1B7 JUMP JUMPDEST SWAP3 ADD PUSH3 0x1B7 JUMP JUMPDEST PUSH1 0x4 SLOAD SWAP2 PUSH1 0x1 PUSH1 0x1 PUSH1 0xA0 SHL SUB SWAP1 DUP2 AND SWAP2 DUP3 ISZERO PUSH3 0x157 JUMPI AND SWAP1 DUP2 ISZERO PUSH3 0x112 JUMPI PUSH1 0x0 DUP1 SLOAD PUSH1 0x1 PUSH1 0x1 PUSH1 0xA0 SHL SUB NOT AND CALLER OR SWAP1 SSTORE PUSH1 0x80 MSTORE PUSH1 0x1 PUSH1 0x1 PUSH1 0xB0 SHL SUB NOT SWAP1 SWAP2 AND OR PUSH1 0x1 PUSH1 0xA0 SHL OR PUSH1 0x4 SSTORE PUSH1 0x40 MLOAD PUSH2 0x2464 SWAP1 DUP2 PUSH3 0x1CD DUP3 CODECOPY PUSH1 0x80 MLOAD DUP2 DUP2 DUP2 PUSH2 0x4BF ADD MSTORE DUP2 DUP2 PUSH2 0x745 ADD MSTORE DUP2 DUP2 PUSH2 0x937 ADD MSTORE DUP2 DUP2 PUSH2 0xB98 ADD MSTORE DUP2 DUP2 PUSH2 0xDBA ADD MSTORE DUP2 DUP2 PUSH2 0xE9C ADD MSTORE DUP2 DUP2 PUSH2 0xF7A ADD MSTORE DUP2 DUP2 PUSH2 0x1013 ADD MSTORE DUP2 DUP2 PUSH2 0x1149 ADD MSTORE DUP2 DUP2 PUSH2 0x11F7 ADD MSTORE DUP2 DUP2 PUSH2 0x151C ADD MSTORE DUP2 DUP2 PUSH2 0x190E ADD MSTORE PUSH2 0x1A22 ADD MSTORE RETURN JUMPDEST PUSH1 0x40 MLOAD PUSH3 0x461BCD PUSH1 0xE5 SHL DUP2 MSTORE PUSH1 0x20 PUSH1 0x4 DUP3 ADD MSTORE PUSH1 0x18 PUSH1 0x24 DUP3 ADD MSTORE PUSH32 0x496E76616C696420766572696669657220616464726573730000000000000000 PUSH1 0x44 DUP3 ADD MSTORE PUSH1 0x64 SWAP1 REVERT JUMPDEST PUSH1 0x40 MLOAD PUSH3 0x461BCD PUSH1 0xE5 SHL DUP2 MSTORE PUSH1 0x20 PUSH1 0x4 DUP3 ADD MSTORE PUSH1 0x15 PUSH1 0x24 DUP3 ADD MSTORE PUSH32 0x496E76616C696420746F6B656E20616464726573730000000000000000000000 PUSH1 0x44 DUP3 ADD MSTORE PUSH1 0x64 SWAP1 REVERT JUMPDEST PUSH1 0x0 DUP1 REVERT JUMPDEST PUSH4 0x4E487B71 PUSH1 0xE0 SHL PUSH1 0x0 MSTORE PUSH1 0x41 PUSH1 0x4 MSTORE PUSH1 0x24 PUSH1 0x0 REVERT JUMPDEST MLOAD SWAP1 PUSH1 0x1 PUSH1 0x1 PUSH1 0xA0 SHL SUB DUP3 AND DUP3 SUB PUSH3 0x19C JUMPI JUMP INVALID PUSH1 0x80 DUP1 PUSH1 0x40 MSTORE PUSH1 0x4 CALLDATASIZE LT ISZERO PUSH2 0x13 JUMPI PUSH1 0x0 DUP1 REVERT JUMPDEST PUSH1 0x0 CALLDATALOAD PUSH1 0xE0 SHR SWAP1 DUP2 PUSH4 0x9B5A33A EQ PUSH2 0x1E7F JUMPI POP DUP1 PUSH4 0xE141A9B EQ PUSH2 0x1E59 JUMPI DUP1 PUSH4 0xF7CDA76 EQ PUSH2 0xA3E JUMPI DUP1 PUSH4 0x16C38B3C EQ PUSH2 0x1DE0 JUMPI DUP1 PUSH4 0x1E23A7F0 EQ PUSH2 0x1DB7 JUMPI DUP1 PUSH4 0x209AB711 EQ PUSH2 0x1960 JUMPI DUP1 PUSH4 0x216CAF4D EQ PUSH2 0x195B JUMPI DUP1 PUSH4 0x265A58D8 EQ PUSH2 0x195B JUMPI DUP1 PUSH4 0x41C61383 EQ PUSH2 0x193D JUMPI DUP1 PUSH4 0x492C70FB EQ PUSH2 0x18F8 JUMPI DUP1 PUSH4 0x4E43603A EQ PUSH2 0x17B5 JUMPI DUP1 PUSH4 0x4E6446A2 EQ PUSH2 0x1790 JUMPI DUP1 PUSH4 0x5C975ABB EQ PUSH2 0x176A JUMPI DUP1 PUSH4 0x70ED4620 EQ PUSH2 0x16BD JUMPI DUP1 PUSH4 0x7A994CD0 EQ PUSH2 0x1481 JUMPI DUP1 PUSH4 0x84A3A0F3 EQ PUSH2 0x145C JUMPI DUP1 PUSH4 0x88DF0589 EQ PUSH2 0x1437 JUMPI DUP1 PUSH4 0x89934D3A EQ PUSH2 0xC6A JUMPI DUP1 PUSH4 0x8DA5CB5B EQ PUSH2 0xC41 JUMPI DUP1 PUSH4 0x9F530CC9 EQ PUSH2 0xC25 JUMPI DUP1 PUSH4 0xA079D40C EQ PUSH2 0xB57 JUMPI DUP1 PUSH4 0xA0B873FB EQ PUSH2 0x329 JUMPI DUP1 PUSH4 0xA87430BA EQ PUSH2 0xAA9 JUMPI DUP1 PUSH4 0xA90F8E9A EQ PUSH2 0xA69 JUMPI DUP1 PUSH4 0xAFCC78BE EQ PUSH2 0xA43 JUMPI DUP1 PUSH4 0xB6AB790E EQ PUSH2 0xA3E JUMPI DUP1 PUSH4 0xB6C72888 EQ PUSH2 0x9C5 JUMPI DUP1 PUSH4 0xBBB85188 EQ PUSH2 0x90B JUMPI DUP1 PUSH4 0xBF1E8B3A EQ PUSH2 0x8EF JUMPI DUP1 PUSH4 0xBFF1F9E1 EQ PUSH2 0x8D1 JUMPI DUP1 PUSH4 0xC7105609 EQ PUSH2 0x882 JUMPI DUP1 PUSH4 0xDB2E21BC EQ PUSH2 0x702 JUMPI DUP1 PUSH4 0xDB3EEF3F EQ PUSH2 0x3F9 JUMPI DUP1 PUSH4 0xDB74559B EQ PUSH2 0x3BB JUMPI DUP1 PUSH4 0xDF312B1E EQ PUSH2 0x353 JUMPI DUP1 PUSH4 0xE551B71A EQ PUSH2 0x32E JUMPI DUP1 PUSH4 0xEA4F64B0 EQ PUSH2 0x329 JUMPI DUP1 PUSH4 0xEFC7A864 EQ PUSH2 0x304 JUMPI DUP1 PUSH4 0xEFCA2EED EQ PUSH2 0x2E6 JUMPI DUP1 PUSH4 0xF09153C4 EQ PUSH2 0x269 JUMPI PUSH4 0xF2FDE38B EQ PUSH2 0x1E2 JUMPI PUSH1 0x0 DUP1 REVERT JUMPDEST CALLVALUE PUSH2 0x264 JUMPI PUSH1 0x20 CALLDATASIZE PUSH1 0x3 NOT ADD SLT PUSH2 0x264 JUMPI PUSH1 0x4 CALLDATALOAD PUSH1 0x1 PUSH1 0x1 PUSH1 0xA0 SHL SUB DUP2 DUP2 AND SWAP2 DUP3 SWAP1 SUB PUSH2 0x264 JUMPI PUSH2 0x219 PUSH1 0x0 SLOAD SWAP2 DUP3 AND CALLER EQ PUSH2 0x23F6 JUMP JUMPDEST DUP2 ISZERO PUSH2 0x22F JUMPI PUSH1 0x1 PUSH1 0x1 PUSH1 0xA0 SHL SUB NOT AND OR PUSH1 0x0 SSTORE STOP JUMPDEST PUSH1 0x40 MLOAD PUSH3 0x461BCD PUSH1 0xE5 SHL DUP2 MSTORE PUSH1 0x20 PUSH1 0x4 DUP3 ADD MSTORE PUSH1 0xD PUSH1 0x24 DUP3 ADD MSTORE PUSH13 0x24B73B30B634B21037BBB732B9 PUSH1 0x99 SHL PUSH1 0x44 DUP3 ADD MSTORE PUSH1 0x64 SWAP1 REVERT JUMPDEST PUSH1 0x0 DUP1 REVERT JUMPDEST CALLVALUE PUSH2 0x264 JUMPI PUSH1 0x20 CALLDATASIZE PUSH1 0x3 NOT ADD SLT PUSH2 0x264 JUMPI PUSH1 0x4 CALLDATALOAD PUSH1 0x1 PUSH1 0x1 PUSH1 0xA0 SHL SUB DUP2 AND SWAP1 DUP2 SWAP1 SUB PUSH2 0x264 JUMPI PUSH1 0x0 MSTORE PUSH1 0x5 PUSH1 0x20 MSTORE PUSH1 0xA0 PUSH1 0x6 PUSH1 0x40 PUSH1 0x0 KECCAK256 ADD SLOAD PUSH1 0x8 PUSH1 0x20 MSTORE PUSH1 0x40 PUSH1 0x0 KECCAK256 SLOAD PUSH1 0xFF PUSH1 0x40 MLOAD SWAP3 DUP2 DUP2 AND ISZERO ISZERO DUP5 MSTORE DUP2 DUP2 PUSH1 0x8 SHR AND ISZERO ISZERO PUSH1 0x20 DUP6 ADD MSTORE DUP2 DUP2 PUSH1 0x10 SHR AND ISZERO ISZERO PUSH1 0x40 DUP6 ADD MSTORE PUSH1 0x18 SHR AND ISZERO ISZERO PUSH1 0x60 DUP4 ADD MSTORE PUSH1 0x80 DUP3 ADD MSTORE RETURN JUMPDEST CALLVALUE PUSH2 0x264 JUMPI PUSH1 0x0 CALLDATASIZE PUSH1 0x3 NOT ADD SLT PUSH2 0x264 JUMPI PUSH1 0x20 PUSH1 0x1 SLOAD PUSH1 0x40 MLOAD SWAP1 DUP2 MSTORE RETURN JUMPDEST CALLVALUE PUSH2 0x264 JUMPI PUSH1 0x0 CALLDATASIZE PUSH1 0x3 NOT ADD SLT PUSH2 0x264 JUMPI PUSH1 0x20 PUSH1 0x40 MLOAD PUSH10 0xD3C21BCECCEDA1000000 DUP2 MSTORE RETURN JUMPDEST PUSH2 0x1F82 JUMP JUMPDEST CALLVALUE PUSH2 0x264 JUMPI PUSH1 0x0 CALLDATASIZE PUSH1 0x3 NOT ADD SLT PUSH2 0x264 JUMPI PUSH1 0x20 PUSH1 0x40 MLOAD PUSH10 0x69E10DE76676D0800000 DUP2 MSTORE RETURN JUMPDEST CALLVALUE PUSH2 0x264 JUMPI PUSH1 0x20 CALLDATASIZE PUSH1 0x3 NOT ADD SLT PUSH2 0x264 JUMPI PUSH1 0x4 CALLDATALOAD PUSH1 0x1 PUSH1 0x1 PUSH1 0xA0 SHL SUB DUP2 AND SWAP1 DUP2 SWAP1 SUB PUSH2 0x264 JUMPI PUSH1 0x0 MSTORE PUSH1 0x6 PUSH1 0x20 MSTORE PUSH1 0x80 PUSH1 0x40 PUSH1 0x0 KECCAK256 PUSH1 0x1 DUP2 SLOAD SWAP2 ADD SLOAD PUSH1 0xFF PUSH1 0x40 MLOAD SWAP3 DUP2 DUP2 AND ISZERO ISZERO DUP5 MSTORE DUP2 DUP2 PUSH1 0x8 SHR AND ISZERO ISZERO PUSH1 0x20 DUP6 ADD MSTORE PUSH1 0x10 SHR AND ISZERO ISZERO PUSH1 0x40 DUP4 ADD MSTORE PUSH1 0x60 DUP3 ADD MSTORE RETURN JUMPDEST CALLVALUE PUSH2 0x264 JUMPI PUSH1 0x20 CALLDATASIZE PUSH1 0x3 NOT ADD SLT PUSH2 0x264 JUMPI PUSH1 0x4 CALLDATALOAD PUSH1 0x1 PUSH1 0x1 PUSH1 0xA0 SHL SUB DUP2 AND SWAP1 DUP2 SWAP1 SUB PUSH2 0x264 JUMPI PUSH1 0x0 MSTORE PUSH1 0x8 PUSH1 0x20 MSTORE PUSH1 0x20 PUSH1 0x40 PUSH1 0x0 KECCAK256 SLOAD PUSH1 0x40 MLOAD SWAP1 DUP2 MSTORE RETURN JUMPDEST CALLVALUE PUSH2 0x264 JUMPI PUSH2 0x433 PUSH2 0x42E PUSH2 0x40D CALLDATASIZE PUSH2 0x1F37 JUMP JUMPDEST SWAP1 PUSH2 0x426 PUSH1 0xFF PUSH1 0x4 SWAP8 SWAP6 SWAP8 SWAP7 SWAP5 SWAP7 SLOAD PUSH1 0xA8 SHR AND ISZERO PUSH2 0x1FA7 JUMP JUMPDEST DUP5 DUP7 CALLER PUSH2 0x2290 JUMP JUMPDEST PUSH2 0x20C8 JUMP JUMPDEST PUSH2 0x43C CALLER PUSH2 0x2252 JUMP JUMPDEST CALLER PUSH1 0x0 MSTORE PUSH1 0x20 SWAP1 PUSH1 0x6 DUP3 MSTORE PUSH1 0x40 PUSH1 0x0 KECCAK256 PUSH2 0x457 CALLDATASIZE DUP4 DUP7 PUSH2 0x2108 JUMP JUMPDEST DUP1 MLOAD SWAP1 DUP5 ADD KECCAK256 PUSH32 0x59F9C19CE4D2104B5074AFDBD422A67CE762A07B67944DFC1AC72CEBC1EF9FB3 DUP2 SUB PUSH2 0x61D JUMPI POP PUSH1 0x1 DUP2 SLOAD PUSH2 0x496 PUSH1 0xFF DUP3 AND ISZERO PUSH2 0x214F JUMP JUMPDEST PUSH1 0xFF NOT AND OR SWAP1 SSTORE PUSH10 0xA968163F0A57B400000 SWAP1 JUMPDEST PUSH1 0x40 MLOAD PUSH4 0x70A08231 PUSH1 0xE0 SHL DUP2 MSTORE ADDRESS PUSH1 0x4 DUP3 ADD MSTORE PUSH32 0x0 PUSH1 0x1 PUSH1 0x1 PUSH1 0xA0 SHL SUB AND SWAP4 SWAP1 DUP2 DUP2 PUSH1 0x24 DUP2 DUP9 GAS STATICCALL DUP1 ISZERO PUSH2 0x5E0 JUMPI DUP5 SWAP1 PUSH1 0x0 SWAP1 PUSH2 0x5EC JUMPI JUMPDEST PUSH2 0x50D SWAP3 POP LT ISZERO PUSH2 0x2026 JUMP JUMPDEST CALLER PUSH1 0x0 MSTORE PUSH1 0x5 DUP2 MSTORE PUSH1 0x3 PUSH1 0x40 PUSH1 0x0 KECCAK256 ADD PUSH2 0x528 DUP5 DUP3 SLOAD PUSH2 0x1FE8 JUMP JUMPDEST SWAP1 SSTORE PUSH2 0x536 DUP4 PUSH1 0x1 SLOAD PUSH2 0x1FE8 JUMP JUMPDEST PUSH1 0x1 SSTORE PUSH1 0x40 MLOAD PUSH4 0xA9059CBB PUSH1 0xE0 SHL DUP2 MSTORE CALLER PUSH1 0x4 DUP3 ADD MSTORE PUSH1 0x24 DUP2 ADD DUP5 SWAP1 MSTORE SWAP4 DUP2 SWAP1 DUP6 SWAP1 PUSH1 0x44 SWAP1 DUP3 SWAP1 PUSH1 0x0 SWAP1 GAS CALL DUP1 ISZERO PUSH2 0x5E0 JUMPI PUSH32 0x10DDCE2FE83F593B5A578FDEAEA55181DAA98B7E1E4652E712B2C821622FC307 SWAP5 PUSH2 0x59D SWAP3 PUSH1 0x0 SWAP3 PUSH2 0x5B3 JUMPI JUMPDEST POP POP PUSH2 0x208A JUMP JUMPDEST PUSH2 0x5AE PUSH1 0x40 MLOAD SWAP3 DUP4 SWAP3 CALLER SWAP7 DUP5 PUSH2 0x219B JUMP JUMPDEST SUB SWAP1 LOG2 STOP JUMPDEST PUSH2 0x5D2 SWAP3 POP DUP1 RETURNDATASIZE LT PUSH2 0x5D9 JUMPI JUMPDEST PUSH2 0x5CA DUP2 DUP4 PUSH2 0x2004 JUMP JUMPDEST DUP2 ADD SWAP1 PUSH2 0x2072 JUMP JUMPDEST DUP7 DUP1 PUSH2 0x596 JUMP JUMPDEST POP RETURNDATASIZE PUSH2 0x5C0 JUMP JUMPDEST PUSH1 0x40 MLOAD RETURNDATASIZE PUSH1 0x0 DUP3 RETURNDATACOPY RETURNDATASIZE SWAP1 REVERT JUMPDEST POP POP DUP2 DUP2 DUP2 RETURNDATASIZE DUP4 GT PUSH2 0x616 JUMPI JUMPDEST PUSH2 0x603 DUP2 DUP4 PUSH2 0x2004 JUMP JUMPDEST DUP2 ADD SUB SLT PUSH2 0x264 JUMPI DUP4 PUSH2 0x50D SWAP2 MLOAD PUSH2 0x501 JUMP JUMPDEST POP RETURNDATASIZE PUSH2 0x5F9 JUMP JUMPDEST PUSH32 0x103F7B2DDA1595DA24C03F5970D4163272B9BADB6161A376876BFEA67102615C DUP2 SUB PUSH2 0x673 JUMPI POP PUSH2 0x100 DUP2 SLOAD PUSH2 0x65A PUSH1 0xFF DUP3 PUSH1 0x8 SHR AND ISZERO PUSH2 0x214F JUMP JUMPDEST PUSH2 0xFF00 NOT AND OR SWAP1 SSTORE PUSH10 0xFE1C215E8F838E00000 SWAP1 PUSH2 0x4AA JUMP JUMPDEST PUSH32 0x6C25E4722CB75723D0F45967423F4FEFC1866B6DB42936B2E4C9827F9D9F8CCD SUB PUSH2 0x6C9 JUMPI PUSH3 0x10000 DUP2 SLOAD PUSH2 0x6AF PUSH1 0xFF DUP3 PUSH1 0x10 SHR AND ISZERO PUSH2 0x214F JUMP JUMPDEST PUSH3 0xFF0000 NOT AND OR SWAP1 SSTORE PUSH10 0x152D02C7E14AF6800000 SWAP1 PUSH2 0x4AA JUMP JUMPDEST PUSH1 0x40 MLOAD PUSH3 0x461BCD PUSH1 0xE5 SHL DUP2 MSTORE PUSH1 0x4 DUP2 ADD DUP5 SWAP1 MSTORE PUSH1 0x11 PUSH1 0x24 DUP3 ADD MSTORE PUSH17 0x496E76616C6964207461736B2074797065 PUSH1 0x78 SHL PUSH1 0x44 DUP3 ADD MSTORE PUSH1 0x64 SWAP1 REVERT JUMPDEST CALLVALUE PUSH2 0x264 JUMPI PUSH1 0x0 CALLDATASIZE PUSH1 0x3 NOT ADD SLT PUSH2 0x264 JUMPI PUSH1 0x0 SLOAD PUSH1 0x1 PUSH1 0x1 PUSH1 0xA0 SHL SUB SWAP1 DUP2 AND PUSH2 0x72C CALLER DUP3 EQ PUSH2 0x23F6 JUMP JUMPDEST PUSH1 0x40 MLOAD PUSH4 0x70A08231 PUSH1 0xE0 SHL DUP2 MSTORE ADDRESS PUSH1 0x4 DUP3 ADD MSTORE SWAP2 PUSH1 0x20 SWAP2 PUSH32 0x0 DUP3 AND SWAP1 DUP4 DUP6 PUSH1 0x24 DUP2 DUP6 GAS STATICCALL SWAP5 DUP6 ISZERO PUSH2 0x5E0 JUMPI PUSH1 0x0 SWAP6 PUSH2 0x853 JUMPI JUMPDEST POP DUP5 ISZERO PUSH2 0x821 JUMPI PUSH1 0x40 MLOAD PUSH4 0xA9059CBB PUSH1 0xE0 SHL DUP2 MSTORE PUSH1 0x1 PUSH1 0x1 PUSH1 0xA0 SHL SUB SWAP2 SWAP1 SWAP2 AND PUSH1 0x4 DUP3 ADD MSTORE PUSH1 0x24 DUP2 ADD DUP6 SWAP1 MSTORE SWAP3 SWAP2 SWAP1 DUP3 SWAP1 DUP5 SWAP1 PUSH1 0x44 SWAP1 DUP3 SWAP1 PUSH1 0x0 SWAP1 GAS CALL SWAP3 DUP4 ISZERO PUSH2 0x5E0 JUMPI PUSH32 0x5FAFA99D0643513820BE26656B45130B01E1C03062E1266BF36F88CBD3BD9695 SWAP4 PUSH2 0x7F6 SWAP2 PUSH1 0x0 SWAP2 PUSH2 0x804 JUMPI JUMPDEST POP PUSH2 0x208A JUMP JUMPDEST PUSH1 0x0 SLOAD AND SWAP3 PUSH1 0x40 MLOAD SWAP1 DUP2 MSTORE LOG2 STOP JUMPDEST PUSH2 0x81B SWAP2 POP DUP5 RETURNDATASIZE DUP7 GT PUSH2 0x5D9 JUMPI PUSH2 0x5CA DUP2 DUP4 PUSH2 0x2004 JUMP JUMPDEST DUP7 PUSH2 0x7F0 JUMP JUMPDEST PUSH1 0x40 MLOAD PUSH3 0x461BCD PUSH1 0xE5 SHL DUP2 MSTORE PUSH1 0x4 DUP2 ADD DUP6 SWAP1 MSTORE PUSH1 0xA PUSH1 0x24 DUP3 ADD MSTORE PUSH10 0x4E6F2062616C616E6365 PUSH1 0xB0 SHL PUSH1 0x44 DUP3 ADD MSTORE PUSH1 0x64 SWAP1 REVERT JUMPDEST SWAP1 SWAP5 POP DUP4 DUP2 DUP2 RETURNDATASIZE DUP4 GT PUSH2 0x87B JUMPI JUMPDEST PUSH2 0x86B DUP2 DUP4 PUSH2 0x2004 JUMP JUMPDEST DUP2 ADD SUB SLT PUSH2 0x264 JUMPI MLOAD SWAP4 DUP6 PUSH2 0x77E JUMP JUMPDEST POP RETURNDATASIZE PUSH2 0x861 JUMP JUMPDEST CALLVALUE PUSH2 0x264 JUMPI PUSH1 0x20 CALLDATASIZE PUSH1 0x3 NOT ADD SLT PUSH2 0x264 JUMPI PUSH1 0x4 CALLDATALOAD PUSH1 0x1 PUSH1 0x1 PUSH1 0xA0 SHL SUB DUP2 AND DUP2 SUB PUSH2 0x264 JUMPI PUSH2 0x8B1 PUSH1 0x80 SWAP2 PUSH2 0x2208 JUMP JUMPDEST SWAP2 PUSH1 0x40 MLOAD SWAP4 ISZERO ISZERO DUP5 MSTORE ISZERO ISZERO PUSH1 0x20 DUP5 ADD MSTORE ISZERO ISZERO PUSH1 0x40 DUP4 ADD MSTORE ISZERO ISZERO PUSH1 0x60 DUP3 ADD MSTORE RETURN JUMPDEST CALLVALUE PUSH2 0x264 JUMPI PUSH1 0x0 CALLDATASIZE PUSH1 0x3 NOT ADD SLT PUSH2 0x264 JUMPI PUSH1 0x20 PUSH1 0x2 SLOAD PUSH1 0x40 MLOAD SWAP1 DUP2 MSTORE RETURN JUMPDEST CALLVALUE PUSH2 0x264 JUMPI PUSH1 0x0 CALLDATASIZE PUSH1 0x3 NOT ADD SLT PUSH2 0x264 JUMPI PUSH1 0x20 PUSH1 0x40 MLOAD PUSH1 0xA DUP2 MSTORE RETURN JUMPDEST CALLVALUE PUSH2 0x264 JUMPI PUSH1 0x0 CALLDATASIZE PUSH1 0x3 NOT ADD SLT PUSH2 0x264 JUMPI PUSH1 0x40 MLOAD PUSH4 0x70A08231 PUSH1 0xE0 SHL DUP2 MSTORE ADDRESS PUSH1 0x4 DUP3 ADD MSTORE PUSH1 0x20 DUP2 PUSH1 0x24 DUP2 PUSH32 0x0 PUSH1 0x1 PUSH1 0x1 PUSH1 0xA0 SHL SUB AND GAS STATICCALL DUP1 ISZERO PUSH2 0x5E0 JUMPI PUSH1 0x0 SWAP1 PUSH2 0x993 JUMPI JUMPDEST PUSH1 0x80 SWAP1 PUSH1 0x1 SLOAD PUSH1 0x2 SLOAD PUSH1 0x3 SLOAD SWAP2 PUSH1 0x40 MLOAD SWAP4 DUP5 MSTORE PUSH1 0x20 DUP5 ADD MSTORE PUSH1 0x40 DUP4 ADD MSTORE PUSH1 0x60 DUP3 ADD MSTORE RETURN JUMPDEST POP PUSH1 0x20 DUP2 RETURNDATASIZE DUP3 GT PUSH2 0x9BD JUMPI JUMPDEST DUP2 PUSH2 0x9AC PUSH1 0x20 SWAP4 DUP4 PUSH2 0x2004 JUMP JUMPDEST DUP2 ADD SUB SLT PUSH2 0x264 JUMPI PUSH1 0x80 SWAP1 MLOAD PUSH2 0x96F JUMP JUMPDEST RETURNDATASIZE SWAP2 POP PUSH2 0x99F JUMP JUMPDEST CALLVALUE PUSH2 0x264 JUMPI PUSH1 0x20 CALLDATASIZE PUSH1 0x3 NOT ADD SLT PUSH2 0x264 JUMPI PUSH1 0x4 CALLDATALOAD DUP1 ISZERO ISZERO DUP1 SWAP2 SUB PUSH2 0x264 JUMPI PUSH1 0x20 PUSH32 0x5357603B66CE52AD2BDE073BF1BAAE8A126A96AE712F396257FA4B57169C36AB SWAP2 PUSH2 0xA1C PUSH1 0x1 DUP1 PUSH1 0xA0 SHL SUB PUSH1 0x0 SLOAD AND CALLER EQ PUSH2 0x23F6 JUMP JUMPDEST PUSH1 0x4 DUP1 SLOAD PUSH1 0xFF PUSH1 0xA0 SHL NOT AND PUSH1 0xA0 DUP4 SWAP1 SHL PUSH1 0xFF PUSH1 0xA0 SHL AND OR SWAP1 SSTORE PUSH1 0x40 MLOAD SWAP1 DUP2 MSTORE LOG1 STOP JUMPDEST PUSH2 0x1EBF JUMP JUMPDEST CALLVALUE PUSH2 0x264 JUMPI PUSH1 0x0 CALLDATASIZE PUSH1 0x3 NOT ADD SLT PUSH2 0x264 JUMPI PUSH1 0x20 PUSH1 0x40 MLOAD PUSH11 0xCECB8F27F4200F3A000000 DUP2 MSTORE RETURN JUMPDEST CALLVALUE PUSH2 0x264 JUMPI PUSH1 0x20 CALLDATASIZE PUSH1 0x3 NOT ADD SLT PUSH2 0x264 JUMPI PUSH1 0x4 CALLDATALOAD PUSH1 0x1 PUSH1 0x1 PUSH1 0xA0 SHL SUB DUP2 DUP2 AND SWAP2 DUP3 SWAP1 SUB PUSH2 0x264 JUMPI PUSH1 0x20 SWAP2 PUSH1 0x0 MSTORE PUSH1 0x7 DUP3 MSTORE PUSH1 0x40 PUSH1 0x0 KECCAK256 SLOAD AND PUSH1 0x40 MLOAD SWAP1 DUP2 MSTORE RETURN JUMPDEST CALLVALUE PUSH2 0x264 JUMPI PUSH1 0x20 CALLDATASIZE PUSH1 0x3 NOT ADD SLT PUSH2 0x264 JUMPI PUSH1 0x4 CALLDATALOAD PUSH1 0x1 PUSH1 0x1 PUSH1 0xA0 SHL SUB DUP2 AND SWAP1 DUP2 SWAP1 SUB PUSH2 0x264 JUMPI PUSH1 0x0 MSTORE PUSH1 0x5 PUSH1 0x20 MSTORE PUSH2 0x140 PUSH1 0x40 PUSH1 0x0 KECCAK256 PUSH1 0xFF DUP2 SLOAD SWAP2 PUSH1 0x1 DUP2 ADD SLOAD SWAP1 PUSH1 0x2 DUP2 ADD SLOAD PUSH1 0x3 DUP3 ADD SLOAD PUSH1 0x4 DUP4 ADD SLOAD SWAP2 PUSH1 0x6 PUSH1 0x5 DUP6 ADD SLOAD SWAP5 ADD SLOAD SWAP5 PUSH1 0x40 MLOAD SWAP8 DUP9 MSTORE PUSH1 0x20 DUP9 ADD MSTORE PUSH1 0x40 DUP8 ADD MSTORE PUSH1 0x60 DUP7 ADD MSTORE PUSH1 0x80 DUP6 ADD MSTORE PUSH1 0xA0 DUP5 ADD MSTORE DUP2 DUP2 AND ISZERO ISZERO PUSH1 0xC0 DUP5 ADD MSTORE DUP2 DUP2 PUSH1 0x8 SHR AND ISZERO ISZERO PUSH1 0xE0 DUP5 ADD MSTORE DUP2 DUP2 PUSH1 0x10 SHR AND ISZERO ISZERO PUSH2 0x100 DUP5 ADD MSTORE PUSH1 0x18 SHR AND ISZERO ISZERO PUSH2 0x120 DUP3 ADD MSTORE RETURN JUMPDEST CALLVALUE PUSH2 0x264 JUMPI PUSH1 0x20 CALLDATASIZE PUSH1 0x3 NOT ADD SLT PUSH2 0x264 JUMPI PUSH1 0x40 MLOAD PUSH4 0x23B872DD PUSH1 0xE0 SHL DUP2 MSTORE CALLER PUSH1 0x4 DUP3 DUP2 ADD SWAP2 SWAP1 SWAP2 MSTORE ADDRESS PUSH1 0x24 DUP4 ADD MSTORE CALLDATALOAD PUSH1 0x44 DUP3 ADD DUP2 SWAP1 MSTORE SWAP1 PUSH1 0x20 DUP2 PUSH1 0x64 DUP2 PUSH1 0x0 PUSH32 0x0 PUSH1 0x1 PUSH1 0x1 PUSH1 0xA0 SHL SUB AND GAS CALL DUP1 ISZERO PUSH2 0x5E0 JUMPI PUSH2 0xBD9 SWAP2 PUSH1 0x0 SWAP2 PUSH2 0xC07 JUMPI POP PUSH2 0x208A JUMP JUMPDEST PUSH1 0x40 MLOAD SWAP1 DUP2 MSTORE PUSH32 0xB9EA67A19AB6BC678D42C223C0B3C9B7947918F351C3377A0E07E1B7332444C7 PUSH1 0x20 CALLER SWAP3 LOG2 STOP JUMPDEST PUSH2 0xC1F SWAP2 POP PUSH1 0x20 RETURNDATASIZE DUP2 GT PUSH2 0x5D9 JUMPI PUSH2 0x5CA DUP2 DUP4 PUSH2 0x2004 JUMP JUMPDEST DUP4 PUSH2 0x7F0 JUMP JUMPDEST CALLVALUE PUSH2 0x264 JUMPI PUSH1 0x0 CALLDATASIZE PUSH1 0x3 NOT ADD SLT PUSH2 0x264 JUMPI PUSH1 0x20 PUSH1 0x40 MLOAD PUSH1 0x5 DUP2 MSTORE RETURN JUMPDEST CALLVALUE PUSH2 0x264 JUMPI PUSH1 0x0 CALLDATASIZE PUSH1 0x3 NOT ADD SLT PUSH2 0x264 JUMPI PUSH1 0x0 SLOAD PUSH1 0x40 MLOAD PUSH1 0x1 PUSH1 0x1 PUSH1 0xA0 SHL SUB SWAP1 SWAP2 AND DUP2 MSTORE PUSH1 0x20 SWAP1 RETURN JUMPDEST CALLVALUE PUSH2 0x264 JUMPI PUSH1 0x0 CALLDATASIZE PUSH1 0x3 NOT ADD SLT PUSH2 0x264 JUMPI PUSH1 0xFF PUSH1 0x4 SLOAD PUSH2 0xC8F DUP3 DUP3 PUSH1 0xA8 SHR AND ISZERO PUSH2 0x1FA7 JUMP JUMPDEST PUSH1 0xA0 SHR AND ISZERO PUSH2 0x13FB JUMPI CALLER PUSH1 0x0 MSTORE PUSH1 0x5 PUSH1 0x20 MSTORE PUSH1 0x40 PUSH1 0x0 KECCAK256 DUP1 SLOAD PUSH3 0x15180 DUP2 ADD DUP1 DUP3 GT PUSH2 0x10BF JUMPI TIMESTAMP LT PUSH2 0x13BE JUMPI ISZERO PUSH2 0x13AB JUMPI JUMPDEST DUP1 SLOAD DUP1 ISZERO ISZERO SWAP1 DUP2 PUSH2 0x1393 JUMPI JUMPDEST POP ISZERO PUSH2 0x1388 JUMPI PUSH1 0x1 DUP2 ADD PUSH2 0xCE1 DUP2 SLOAD PUSH2 0x1FF5 JUMP JUMPDEST SWAP1 SSTORE JUMPDEST PUSH1 0x1 DUP2 ADD SLOAD DUP1 PUSH1 0x2 DUP4 ADD DUP1 SLOAD DUP3 GT PUSH2 0x1380 JUMPI JUMPDEST POP POP PUSH1 0xA DUP2 GT ISZERO PUSH2 0x137A JUMPI POP PUSH1 0xA SWAP1 JUMPDEST PUSH10 0x21E19E0C9BAB2400000 DUP3 DUP2 DUP2 MUL DIV DUP2 EQ DUP4 ISZERO OR ISZERO PUSH2 0x10BF JUMPI DUP1 DUP4 MUL PUSH10 0xA968163F0A57B400000 ADD SWAP2 DUP3 PUSH10 0xA968163F0A57B400000 GT PUSH2 0x10BF JUMPI DUP3 SWAP1 PUSH1 0x1 SLOAD PUSH1 0x40 MLOAD SWAP1 PUSH1 0x20 DUP3 ADD SWAP1 TIMESTAMP DUP3 MSTORE PREVRANDAO PUSH1 0x40 DUP5 ADD MSTORE CALLER PUSH1 0x60 SHL PUSH1 0x60 DUP5 ADD MSTORE PUSH1 0x74 DUP4 ADD MSTORE NUMBER PUSH1 0x94 DUP4 ADD MSTORE PUSH1 0x94 DUP3 MSTORE PUSH1 0xC0 DUP3 ADD SWAP1 DUP3 DUP3 LT PUSH8 0xFFFFFFFFFFFFFFFF DUP4 GT OR PUSH2 0x1364 JUMPI PUSH1 0x5 SWAP3 PUSH1 0x64 SWAP3 PUSH1 0x40 MSTORE MLOAD SWAP1 KECCAK256 MOD LT SWAP4 DUP5 PUSH2 0x1334 JUMPI JUMPDEST POP PUSH1 0x40 MLOAD PUSH4 0x70A08231 PUSH1 0xE0 SHL DUP2 MSTORE ADDRESS PUSH1 0x4 DUP3 ADD MSTORE PUSH1 0x20 DUP2 PUSH1 0x24 DUP2 PUSH32 0x0 PUSH1 0x1 PUSH1 0x1 PUSH1 0xA0 SHL SUB AND GAS STATICCALL DUP1 ISZERO PUSH2 0x5E0 JUMPI DUP4 SWAP1 PUSH1 0x0 SWAP1 PUSH2 0x12FE JUMPI JUMPDEST PUSH2 0xE00 SWAP3 POP LT ISZERO PUSH2 0x2026 JUMP JUMPDEST TIMESTAMP DUP2 SSTORE PUSH1 0x3 DUP2 ADD PUSH2 0xE12 DUP4 DUP3 SLOAD PUSH2 0x1FE8 JUMP JUMPDEST SWAP1 SSTORE PUSH2 0xE20 DUP3 PUSH1 0x1 SLOAD PUSH2 0x1FE8 JUMP JUMPDEST PUSH1 0x1 SSTORE PUSH2 0xE2E PUSH1 0x3 SLOAD PUSH2 0x1FF5 JUMP JUMPDEST PUSH1 0x3 SSTORE PUSH2 0xE3A CALLER PUSH2 0x2252 JUMP JUMPDEST CALLER PUSH1 0x0 MSTORE PUSH1 0x5 PUSH1 0x20 MSTORE PUSH1 0x40 PUSH1 0x0 KECCAK256 PUSH1 0x1 DUP2 ADD PUSH1 0x7 DUP2 SLOAD LT ISZERO DUP1 PUSH2 0x12EC JUMPI JUMPDEST PUSH2 0x111B JUMPI JUMPDEST PUSH1 0x1E SWAP1 SLOAD LT ISZERO DUP1 PUSH2 0x1109 JUMPI JUMPDEST PUSH2 0xF49 JUMPI JUMPDEST POP PUSH1 0x40 MLOAD PUSH4 0xA9059CBB PUSH1 0xE0 SHL DUP2 MSTORE CALLER PUSH1 0x4 DUP3 ADD MSTORE PUSH1 0x24 DUP2 ADD DUP4 SWAP1 MSTORE SWAP1 PUSH1 0x20 DUP3 PUSH1 0x44 DUP2 PUSH1 0x0 PUSH1 0x1 PUSH1 0x1 PUSH1 0xA0 SHL SUB PUSH32 0x0 AND GAS CALL SWAP2 DUP3 ISZERO PUSH2 0x5E0 JUMPI PUSH1 0x1 SWAP3 PUSH2 0xED9 SWAP2 PUSH1 0x0 SWAP2 PUSH2 0xF2A JUMPI POP PUSH2 0x208A JUMP JUMPDEST ADD SLOAD SWAP2 PUSH1 0x40 MLOAD SWAP5 PUSH10 0xA968163F0A57B400000 DUP7 MSTORE MUL PUSH1 0x20 DUP6 ADD MSTORE PUSH1 0x40 DUP5 ADD MSTORE PUSH1 0x60 DUP4 ADD MSTORE PUSH1 0x80 DUP3 ADD MSTORE PUSH32 0xB3CF2CD3B2CE31E0FF7CBB3F2562D51047E60D290A130FEFC85FB019EE6FCC0 PUSH1 0xA0 CALLER SWAP3 LOG2 STOP JUMPDEST PUSH2 0xF43 SWAP2 POP PUSH1 0x20 RETURNDATASIZE PUSH1 0x20 GT PUSH2 0x5D9 JUMPI PUSH2 0x5CA DUP2 DUP4 PUSH2 0x2004 JUMP JUMPDEST DUP9 PUSH2 0x7F0 JUMP JUMPDEST PUSH1 0x6 DUP2 ADD DUP1 SLOAD PUSH4 0xFF000000 NOT AND PUSH4 0x1000000 OR SWAP1 SSTORE PUSH1 0x40 MLOAD PUSH4 0x70A08231 PUSH1 0xE0 SHL DUP2 MSTORE ADDRESS PUSH1 0x4 DUP3 ADD MSTORE SWAP1 PUSH1 0x20 DUP3 PUSH1 0x24 DUP2 PUSH32 0x0 PUSH1 0x1 PUSH1 0x1 PUSH1 0xA0 SHL SUB AND GAS STATICCALL SWAP2 DUP3 ISZERO PUSH2 0x5E0 JUMPI PUSH1 0x0 SWAP3 PUSH2 0x10D5 JUMPI JUMPDEST POP PUSH10 0xD3C21BCECCEDA1000000 DUP1 SWAP3 LT ISZERO PUSH2 0xFCE JUMPI JUMPDEST POP PUSH2 0xE6E JUMP JUMPDEST PUSH1 0x3 ADD DUP1 SLOAD SWAP1 DUP3 DUP3 ADD DUP1 SWAP3 GT PUSH2 0x10BF JUMPI SSTORE PUSH1 0x1 SLOAD DUP2 DUP2 ADD DUP1 SWAP2 GT PUSH2 0x10BF JUMPI PUSH1 0x1 SSTORE PUSH1 0x40 MLOAD PUSH4 0xA9059CBB PUSH1 0xE0 SHL DUP2 MSTORE CALLER PUSH1 0x4 DUP3 ADD MSTORE PUSH1 0x24 DUP2 ADD DUP3 SWAP1 MSTORE PUSH1 0x20 DUP2 PUSH1 0x44 DUP2 PUSH1 0x0 PUSH32 0x0 PUSH1 0x1 PUSH1 0x1 PUSH1 0xA0 SHL SUB AND GAS CALL DUP1 ISZERO PUSH2 0x5E0 JUMPI PUSH2 0x10A0 JUMPI JUMPDEST POP PUSH1 0x40 MLOAD SWAP1 PUSH1 0x40 DUP3 MSTORE PUSH1 0xD PUSH1 0x40 DUP4 ADD MSTORE PUSH13 0x33305F4441595F53545245414B PUSH1 0x98 SHL PUSH1 0x60 DUP4 ADD MSTORE PUSH1 0x20 DUP3 ADD MSTORE PUSH32 0x67A8D47C6ECF3A491EA8A4F20A58352394879C573C678EC5B9ABCEAE075D4DCA PUSH1 0x80 CALLER SWAP3 LOG2 DUP6 DUP1 PUSH2 0xFC8 JUMP JUMPDEST PUSH2 0x10B8 SWAP1 PUSH1 0x20 RETURNDATASIZE PUSH1 0x20 GT PUSH2 0x5D9 JUMPI PUSH2 0x5CA DUP2 DUP4 PUSH2 0x2004 JUMP JUMPDEST POP DUP7 PUSH2 0x1048 JUMP JUMPDEST PUSH4 0x4E487B71 PUSH1 0xE0 SHL PUSH1 0x0 MSTORE PUSH1 0x11 PUSH1 0x4 MSTORE PUSH1 0x24 PUSH1 0x0 REVERT JUMPDEST SWAP1 SWAP2 POP PUSH1 0x20 DUP2 RETURNDATASIZE PUSH1 0x20 GT PUSH2 0x1101 JUMPI JUMPDEST DUP2 PUSH2 0x10F1 PUSH1 0x20 SWAP4 DUP4 PUSH2 0x2004 JUMP JUMPDEST DUP2 ADD SUB SLT PUSH2 0x264 JUMPI MLOAD SWAP1 DUP8 PUSH2 0xFB3 JUMP JUMPDEST RETURNDATASIZE SWAP2 POP PUSH2 0x10E4 JUMP JUMPDEST POP PUSH1 0xFF PUSH1 0x6 DUP3 ADD SLOAD PUSH1 0x18 SHR AND ISZERO PUSH2 0xE69 JUMP JUMPDEST PUSH1 0x6 DUP3 ADD DUP1 SLOAD PUSH3 0xFF0000 NOT AND PUSH3 0x10000 OR SWAP1 SSTORE PUSH1 0x40 MLOAD PUSH4 0x70A08231 PUSH1 0xE0 SHL DUP2 MSTORE ADDRESS PUSH1 0x4 DUP3 ADD MSTORE PUSH1 0x20 DUP2 PUSH1 0x24 DUP2 PUSH32 0x0 PUSH1 0x1 PUSH1 0x1 PUSH1 0xA0 SHL SUB AND GAS STATICCALL DUP1 ISZERO PUSH2 0x5E0 JUMPI PUSH1 0x0 SWAP1 PUSH2 0x12B0 JUMPI JUMPDEST PUSH10 0x34F086F3B33B68400000 SWAP2 POP LT PUSH2 0xE5D JUMPI PUSH1 0x3 DUP3 ADD DUP1 SLOAD SWAP1 PUSH10 0x34F086F3B33B68400000 DUP3 ADD DUP1 SWAP3 GT PUSH2 0x10BF JUMPI SSTORE PUSH1 0x1 SLOAD PUSH10 0x34F086F3B33B68400000 DUP2 ADD DUP1 SWAP2 GT PUSH2 0x10BF JUMPI PUSH1 0x1 SSTORE PUSH1 0x40 MLOAD PUSH4 0xA9059CBB PUSH1 0xE0 SHL DUP2 MSTORE CALLER PUSH1 0x4 DUP3 ADD MSTORE PUSH10 0x34F086F3B33B68400000 PUSH1 0x24 DUP3 ADD MSTORE SWAP1 PUSH1 0x20 DUP3 PUSH1 0x44 DUP2 PUSH1 0x0 PUSH32 0x0 PUSH1 0x1 PUSH1 0x1 PUSH1 0xA0 SHL SUB AND GAS CALL SWAP2 DUP3 ISZERO PUSH2 0x5E0 JUMPI PUSH1 0x1E SWAP3 PUSH2 0x1291 JUMPI JUMPDEST POP PUSH1 0x40 MLOAD PUSH1 0x40 DUP2 MSTORE PUSH1 0xC PUSH1 0x40 DUP3 ADD MSTORE PUSH12 0x375F4441595F53545245414B PUSH1 0xA0 SHL PUSH1 0x60 DUP3 ADD MSTORE PUSH10 0x34F086F3B33B68400000 PUSH1 0x20 DUP3 ADD MSTORE PUSH32 0x67A8D47C6ECF3A491EA8A4F20A58352394879C573C678EC5B9ABCEAE075D4DCA PUSH1 0x80 CALLER SWAP3 LOG2 SWAP1 POP PUSH2 0xE5D JUMP JUMPDEST PUSH2 0x12A9 SWAP1 PUSH1 0x20 RETURNDATASIZE PUSH1 0x20 GT PUSH2 0x5D9 JUMPI PUSH2 0x5CA DUP2 DUP4 PUSH2 0x2004 JUMP JUMPDEST POP DUP9 PUSH2 0x1230 JUMP JUMPDEST POP PUSH1 0x20 DUP2 RETURNDATASIZE PUSH1 0x20 GT PUSH2 0x12E4 JUMPI JUMPDEST DUP2 PUSH2 0x12CA PUSH1 0x20 SWAP4 DUP4 PUSH2 0x2004 JUMP JUMPDEST DUP2 ADD SUB SLT PUSH2 0x264 JUMPI PUSH10 0x34F086F3B33B68400000 SWAP1 MLOAD PUSH2 0x1181 JUMP JUMPDEST RETURNDATASIZE SWAP2 POP PUSH2 0x12BD JUMP JUMPDEST POP PUSH1 0xFF PUSH1 0x6 DUP4 ADD SLOAD PUSH1 0x10 SHR AND ISZERO PUSH2 0xE58 JUMP JUMPDEST POP POP PUSH1 0x20 DUP2 RETURNDATASIZE PUSH1 0x20 GT PUSH2 0x132C JUMPI JUMPDEST DUP2 PUSH2 0x1319 PUSH1 0x20 SWAP4 DUP4 PUSH2 0x2004 JUMP JUMPDEST DUP2 ADD SUB SLT PUSH2 0x264 JUMPI DUP3 PUSH2 0xE00 SWAP2 MLOAD PUSH2 0xDF4 JUMP JUMPDEST RETURNDATASIZE SWAP2 POP PUSH2 0x130C JUMP JUMPDEST SWAP1 SWAP2 POP PUSH10 0x3F870857A3E0E3800000 DUP4 DUP7 MUL ADD DUP1 SWAP2 GT PUSH2 0x10BF JUMPI SWAP1 PUSH1 0x5 DUP2 ADD PUSH2 0x135C DUP2 SLOAD PUSH2 0x1FF5 JUMP JUMPDEST SWAP1 SSTORE DUP6 PUSH2 0xD9E JUMP JUMPDEST PUSH4 0x4E487B71 PUSH1 0xE0 SHL PUSH1 0x0 MSTORE PUSH1 0x41 PUSH1 0x4 MSTORE PUSH1 0x24 PUSH1 0x0 REVERT JUMPDEST SWAP1 PUSH2 0xD07 JUMP JUMPDEST SSTORE DUP1 DUP4 PUSH2 0xCF7 JUMP JUMPDEST PUSH1 0x1 DUP1 DUP3 ADD SSTORE PUSH2 0xCE4 JUMP JUMPDEST SWAP1 POP PUSH3 0x2A300 DUP2 ADD DUP1 SWAP2 GT PUSH2 0x10BF JUMPI TIMESTAMP GT ISZERO DUP3 PUSH2 0xCCD JUMP JUMPDEST PUSH2 0x13B6 PUSH1 0x2 SLOAD PUSH2 0x1FF5 JUMP JUMPDEST PUSH1 0x2 SSTORE PUSH2 0xCC1 JUMP JUMPDEST PUSH1 0x40 MLOAD PUSH3 0x461BCD PUSH1 0xE5 SHL DUP2 MSTORE PUSH1 0x20 PUSH1 0x4 DUP3 ADD MSTORE PUSH1 0x15 PUSH1 0x24 DUP3 ADD MSTORE PUSH21 0x416C726561647920636C61696D656420746F646179 PUSH1 0x58 SHL PUSH1 0x44 DUP3 ADD MSTORE PUSH1 0x64 SWAP1 REVERT JUMPDEST PUSH1 0x40 MLOAD PUSH3 0x461BCD PUSH1 0xE5 SHL DUP2 MSTORE PUSH1 0x20 PUSH1 0x4 DUP3 ADD MSTORE PUSH1 0x14 PUSH1 0x24 DUP3 ADD MSTORE PUSH20 0x10DB185A5B5A5B99C81A5CC8191A5CD8589B1959 PUSH1 0x62 SHL PUSH1 0x44 DUP3 ADD MSTORE PUSH1 0x64 SWAP1 REVERT JUMPDEST CALLVALUE PUSH2 0x264 JUMPI PUSH1 0x0 CALLDATASIZE PUSH1 0x3 NOT ADD SLT PUSH2 0x264 JUMPI PUSH1 0x20 PUSH1 0x40 MLOAD PUSH10 0xFE1C215E8F838E00000 DUP2 MSTORE RETURN JUMPDEST CALLVALUE PUSH2 0x264 JUMPI PUSH1 0x0 CALLDATASIZE PUSH1 0x3 NOT ADD SLT PUSH2 0x264 JUMPI PUSH1 0x20 PUSH1 0x40 MLOAD PUSH10 0x1FC3842BD1F071C00000 DUP2 MSTORE RETURN JUMPDEST CALLVALUE PUSH2 0x264 JUMPI PUSH2 0x1495 PUSH2 0x42E PUSH2 0x40D CALLDATASIZE PUSH2 0x1F37 JUMP JUMPDEST CALLER PUSH1 0x0 MSTORE PUSH1 0x20 PUSH1 0x5 DUP2 MSTORE PUSH1 0x40 PUSH1 0x0 KECCAK256 SWAP2 PUSH2 0x14B0 CALLDATASIZE DUP3 DUP7 PUSH2 0x2108 JUMP JUMPDEST DUP1 MLOAD SWAP1 DUP4 ADD KECCAK256 PUSH32 0xB54E063503447BCE6485ADAB005B8755B54DED950878440B84F8E79A1196702E DUP2 SUB PUSH2 0x1620 JUMPI POP PUSH1 0x6 DUP4 ADD PUSH1 0x1 DUP2 SLOAD PUSH2 0x14F3 PUSH1 0xFF DUP3 AND ISZERO PUSH2 0x21CA JUMP JUMPDEST PUSH1 0xFF NOT AND OR SWAP1 SSTORE PUSH10 0x69E10DE76676D0800000 SWAP2 JUMPDEST PUSH1 0x40 MLOAD PUSH4 0x70A08231 PUSH1 0xE0 SHL DUP2 MSTORE ADDRESS PUSH1 0x4 DUP3 ADD MSTORE PUSH32 0x0 PUSH1 0x1 PUSH1 0x1 PUSH1 0xA0 SHL SUB AND SWAP5 DUP3 DUP3 PUSH1 0x24 DUP2 DUP10 GAS STATICCALL DUP1 ISZERO PUSH2 0x5E0 JUMPI DUP6 SWAP3 PUSH1 0x0 SWAP2 PUSH2 0x15EC JUMPI JUMPDEST POP PUSH1 0x3 SWAP3 PUSH2 0x156C SWAP2 LT ISZERO PUSH2 0x2026 JUMP JUMPDEST ADD PUSH2 0x1578 DUP5 DUP3 SLOAD PUSH2 0x1FE8 JUMP JUMPDEST SWAP1 SSTORE PUSH2 0x1586 DUP4 PUSH1 0x1 SLOAD PUSH2 0x1FE8 JUMP JUMPDEST PUSH1 0x1 SSTORE PUSH1 0x40 MLOAD PUSH4 0xA9059CBB PUSH1 0xE0 SHL DUP2 MSTORE CALLER PUSH1 0x4 DUP3 ADD MSTORE PUSH1 0x24 DUP2 ADD DUP5 SWAP1 MSTORE SWAP4 DUP2 SWAP1 DUP6 SWAP1 PUSH1 0x44 SWAP1 DUP3 SWAP1 PUSH1 0x0 SWAP1 GAS CALL DUP1 ISZERO PUSH2 0x5E0 JUMPI PUSH32 0x67A8D47C6ECF3A491EA8A4F20A58352394879C573C678EC5B9ABCEAE075D4DCA SWAP5 PUSH2 0x59D SWAP3 PUSH1 0x0 SWAP3 PUSH2 0x5B3 JUMPI POP POP PUSH2 0x208A JUMP JUMPDEST DUP1 SWAP4 POP DUP5 DUP1 SWAP3 POP RETURNDATASIZE DUP4 GT PUSH2 0x1619 JUMPI JUMPDEST PUSH2 0x1605 DUP2 DUP4 PUSH2 0x2004 JUMP JUMPDEST DUP2 ADD SUB SLT PUSH2 0x264 JUMPI SWAP1 MLOAD DUP5 SWAP2 SWAP1 PUSH1 0x3 PUSH2 0x155D JUMP JUMPDEST POP RETURNDATASIZE PUSH2 0x15FB JUMP JUMPDEST PUSH32 0x126235D9D2E6036D7FAC7E99F1DCD31ADA7FF126658A7DD43824F3E4F265D039 SUB PUSH2 0x1678 JUMPI PUSH1 0x6 DUP4 ADD PUSH2 0x100 DUP2 SLOAD PUSH2 0x165F PUSH1 0xFF DUP3 PUSH1 0x8 SHR AND ISZERO PUSH2 0x21CA JUMP JUMPDEST PUSH2 0xFF00 NOT AND OR SWAP1 SSTORE PUSH10 0x152D02C7E14AF6800000 SWAP2 PUSH2 0x1507 JUMP JUMPDEST PUSH1 0x40 MLOAD PUSH3 0x461BCD PUSH1 0xE5 SHL DUP2 MSTORE PUSH1 0x4 DUP2 ADD DUP4 SWAP1 MSTORE PUSH1 0x18 PUSH1 0x24 DUP3 ADD MSTORE PUSH32 0x496E76616C696420616368696576656D656E7420747970650000000000000000 PUSH1 0x44 DUP3 ADD MSTORE PUSH1 0x64 SWAP1 REVERT JUMPDEST CALLVALUE PUSH2 0x264 JUMPI PUSH1 0x20 CALLDATASIZE PUSH1 0x3 NOT ADD SLT PUSH2 0x264 JUMPI PUSH1 0x4 CALLDATALOAD PUSH1 0x1 PUSH1 0x1 PUSH1 0xA0 SHL SUB DUP2 DUP2 AND SWAP2 DUP3 SWAP1 SUB PUSH2 0x264 JUMPI PUSH2 0x16F3 SWAP1 PUSH1 0x0 SLOAD AND CALLER EQ PUSH2 0x23F6 JUMP JUMPDEST DUP1 ISZERO PUSH2 0x1732 JUMPI PUSH1 0x4 DUP1 SLOAD PUSH1 0x1 PUSH1 0x1 PUSH1 0xA0 SHL SUB NOT AND DUP3 OR SWAP1 SSTORE PUSH32 0xE5B9EC72FC7E34A9021E01E954C7E54CEB50C6B1798084716AFE188FFA5E13CB PUSH1 0x0 DUP1 LOG2 STOP JUMPDEST PUSH1 0x40 MLOAD PUSH3 0x461BCD PUSH1 0xE5 SHL DUP2 MSTORE PUSH1 0x20 PUSH1 0x4 DUP3 ADD MSTORE PUSH1 0x10 PUSH1 0x24 DUP3 ADD MSTORE PUSH16 0x24B73B30B634B2103B32B934B334B2B9 PUSH1 0x81 SHL PUSH1 0x44 DUP3 ADD MSTORE PUSH1 0x64 SWAP1 REVERT JUMPDEST CALLVALUE PUSH2 0x264 JUMPI PUSH1 0x0 CALLDATASIZE PUSH1 0x3 NOT ADD SLT PUSH2 0x264 JUMPI PUSH1 0x20 PUSH1 0xFF PUSH1 0x4 SLOAD PUSH1 0xA8 SHR AND PUSH1 0x40 MLOAD SWAP1 ISZERO ISZERO DUP2 MSTORE RETURN JUMPDEST CALLVALUE PUSH2 0x264 JUMPI PUSH1 0x0 CALLDATASIZE PUSH1 0x3 NOT ADD SLT PUSH2 0x264 JUMPI PUSH1 0x20 PUSH1 0x40 MLOAD PUSH10 0x21E19E0C9BAB2400000 DUP2 MSTORE RETURN JUMPDEST CALLVALUE PUSH2 0x264 JUMPI PUSH1 0x20 CALLDATASIZE PUSH1 0x3 NOT ADD SLT PUSH2 0x264 JUMPI PUSH1 0x4 CALLDATALOAD PUSH1 0x1 PUSH1 0x1 PUSH1 0xA0 SHL SUB DUP2 AND SWAP1 DUP2 SWAP1 SUB PUSH2 0x264 JUMPI PUSH1 0x0 MSTORE PUSH1 0x5 PUSH1 0x20 MSTORE PUSH1 0x40 PUSH1 0x0 KECCAK256 DUP1 SLOAD PUSH1 0x1 DUP3 ADD SLOAD SWAP2 PUSH1 0x2 DUP2 ADD SLOAD SWAP1 PUSH1 0x5 PUSH1 0x3 DUP3 ADD SLOAD SWAP2 ADD SLOAD DUP4 ISZERO SWAP1 DUP2 ISZERO SWAP3 DUP4 PUSH2 0x18E0 JUMPI JUMPDEST DUP3 ISZERO PUSH2 0x18CD JUMPI PUSH1 0x0 SWAP4 JUMPDEST DUP4 ISZERO PUSH2 0x18C6 JUMPI DUP1 PUSH2 0x18B0 JUMPI JUMPDEST ISZERO PUSH2 0x18A9 JUMPI PUSH1 0x1 DUP8 ADD DUP1 DUP9 GT PUSH2 0x10BF JUMPI JUMPDEST PUSH1 0xA DUP2 GT ISZERO PUSH2 0x18A3 JUMPI POP PUSH1 0xA SWAP5 JUMPDEST PUSH10 0x21E19E0C9BAB2400000 SWAP6 DUP7 DUP2 MUL SWAP7 DUP2 DUP9 DIV EQ SWAP1 ISZERO OR ISZERO PUSH2 0x10BF JUMPI PUSH10 0xA968163F0A57B400000 SWAP6 DUP7 ADD DUP1 SWAP7 GT PUSH2 0x10BF JUMPI PUSH2 0x100 SWAP8 PUSH1 0x40 MLOAD SWAP8 DUP9 MSTORE PUSH1 0x20 DUP9 ADD MSTORE PUSH1 0x40 DUP8 ADD MSTORE PUSH1 0x60 DUP7 ADD MSTORE PUSH1 0x80 DUP6 ADD MSTORE ISZERO ISZERO PUSH1 0xA0 DUP5 ADD MSTORE PUSH1 0xC0 DUP4 ADD MSTORE PUSH1 0xE0 DUP3 ADD MSTORE RETURN JUMPDEST SWAP5 PUSH2 0x1841 JUMP JUMPDEST PUSH1 0x1 PUSH2 0x1833 JUMP JUMPDEST POP PUSH3 0x2A300 DUP7 ADD DUP1 DUP8 GT PUSH2 0x10BF JUMPI TIMESTAMP GT ISZERO PUSH2 0x1822 JUMP JUMPDEST POP DUP7 PUSH2 0x1833 JUMP JUMPDEST PUSH3 0x15180 DUP7 ADD DUP1 DUP8 GT PUSH2 0x10BF JUMPI SWAP4 PUSH2 0x1816 JUMP JUMPDEST SWAP2 POP PUSH3 0x15180 DUP6 ADD DUP1 DUP7 GT PUSH2 0x10BF JUMPI TIMESTAMP LT ISZERO SWAP2 PUSH2 0x180C JUMP JUMPDEST CALLVALUE PUSH2 0x264 JUMPI PUSH1 0x0 CALLDATASIZE PUSH1 0x3 NOT ADD SLT PUSH2 0x264 JUMPI PUSH1 0x40 MLOAD PUSH32 0x0 PUSH1 0x1 PUSH1 0x1 PUSH1 0xA0 SHL SUB AND DUP2 MSTORE PUSH1 0x20 SWAP1 RETURN JUMPDEST CALLVALUE PUSH2 0x264 JUMPI PUSH1 0x0 CALLDATASIZE PUSH1 0x3 NOT ADD SLT PUSH2 0x264 JUMPI PUSH1 0x20 PUSH1 0x3 SLOAD PUSH1 0x40 MLOAD SWAP1 DUP2 MSTORE RETURN JUMPDEST PUSH2 0x1EE4 JUMP JUMPDEST CALLVALUE PUSH2 0x264 JUMPI PUSH1 0x20 DUP1 PUSH1 0x3 NOT CALLDATASIZE ADD SLT PUSH2 0x264 JUMPI PUSH1 0x4 CALLDATALOAD PUSH1 0x1 PUSH1 0x1 PUSH1 0xA0 SHL SUB DUP2 DUP2 AND SWAP2 DUP3 SWAP1 SUB PUSH2 0x264 JUMPI PUSH2 0x199A PUSH1 0xFF PUSH1 0x4 SLOAD PUSH1 0xA8 SHR AND ISZERO PUSH2 0x1FA7 JUMP JUMPDEST CALLER PUSH1 0x0 MSTORE PUSH1 0x9 DUP4 MSTORE PUSH1 0xFF PUSH1 0x40 PUSH1 0x0 KECCAK256 SLOAD AND PUSH2 0x1D7A JUMPI CALLER DUP3 EQ PUSH2 0x1D3D JUMPI DUP2 ISZERO PUSH2 0x1D05 JUMPI DUP2 PUSH1 0x0 MSTORE PUSH1 0x5 DUP4 MSTORE PUSH1 0x40 PUSH1 0x0 KECCAK256 SLOAD ISZERO PUSH2 0x1CC0 JUMPI CALLER PUSH1 0x0 MSTORE PUSH1 0x9 DUP4 MSTORE PUSH1 0x40 PUSH1 0x0 KECCAK256 PUSH1 0x1 PUSH1 0xFF NOT DUP3 SLOAD AND OR SWAP1 SSTORE PUSH1 0x7 DUP4 MSTORE PUSH1 0x40 PUSH1 0x0 KECCAK256 DUP3 PUSH12 0xFFFFFFFFFFFFFFFFFFFFFFFF PUSH1 0xA0 SHL DUP3 SLOAD AND OR SWAP1 SSTORE DUP2 PUSH1 0x0 MSTORE PUSH1 0x8 DUP4 MSTORE PUSH1 0x40 PUSH1 0x0 KECCAK256 PUSH2 0x1A1E DUP2 SLOAD PUSH2 0x1FF5 JUMP JUMPDEST SWAP1 SSTORE PUSH32 0x0 AND SWAP2 PUSH1 0x40 MLOAD PUSH4 0x70A08231 PUSH1 0xE0 SHL DUP2 MSTORE ADDRESS PUSH1 0x4 DUP3 ADD MSTORE PUSH1 0x24 SWAP1 DUP3 DUP2 DUP4 DUP2 DUP9 GAS STATICCALL SWAP1 DUP2 ISZERO PUSH2 0x5E0 JUMPI PUSH1 0x0 SWAP2 PUSH2 0x1C89 JUMPI JUMPDEST POP PUSH10 0x3F870857A3E0E3800000 PUSH2 0x1A86 SWAP2 LT ISZERO PUSH2 0x2026 JUMP JUMPDEST DUP3 PUSH1 0x0 MSTORE PUSH1 0x5 DUP3 MSTORE PUSH1 0x3 PUSH1 0x40 PUSH1 0x0 KECCAK256 ADD SWAP4 DUP5 SLOAD PUSH10 0x1FC3842BD1F071C00000 SWAP6 DUP7 DUP3 ADD DUP1 SWAP3 GT PUSH2 0x1BE9 JUMPI SSTORE PUSH1 0x1 SLOAD DUP6 DUP2 ADD DUP1 SWAP2 GT PUSH2 0x1C74 JUMPI PUSH1 0x1 SSTORE PUSH1 0x40 MLOAD PUSH4 0xA9059CBB PUSH1 0xE0 SHL SWAP1 DUP2 DUP2 MSTORE DUP6 PUSH1 0x4 DUP3 ADD MSTORE DUP7 DUP5 DUP3 ADD MSTORE DUP5 DUP2 PUSH1 0x44 DUP2 PUSH1 0x0 DUP8 GAS CALL SWAP1 DUP2 ISZERO PUSH2 0x5E0 JUMPI PUSH1 0x0 SWAP2 PUSH2 0x1C57 JUMPI JUMPDEST POP ISZERO PUSH2 0x1C13 JUMPI CALLER PUSH1 0x0 MSTORE PUSH1 0x5 DUP5 MSTORE PUSH1 0x3 PUSH1 0x40 PUSH1 0x0 KECCAK256 ADD DUP1 SLOAD SWAP1 DUP8 DUP3 ADD DUP1 SWAP3 GT PUSH2 0x1BFE JUMPI SSTORE PUSH1 0x1 SLOAD DUP7 DUP2 ADD DUP1 SWAP2 GT PUSH2 0x1BE9 JUMPI SWAP2 PUSH1 0x44 DUP6 SWAP3 PUSH1 0x0 SWAP5 PUSH1 0x1 SSTORE PUSH1 0x40 MLOAD SWAP5 DUP6 SWAP4 DUP5 SWAP3 DUP4 MSTORE CALLER PUSH1 0x4 DUP5 ADD MSTORE DUP11 DUP9 DUP5 ADD MSTORE GAS CALL SWAP1 DUP2 ISZERO PUSH2 0x5E0 JUMPI PUSH1 0x0 SWAP2 PUSH2 0x1BCC JUMPI JUMPDEST POP ISZERO PUSH2 0x1B89 JUMPI POP PUSH32 0x90EAB5D1DF713DF401D810F26AA9718D2B9E6894AF1EB4890A332D3B185DC0E5 SWAP1 PUSH1 0x40 MLOAD SWAP4 DUP5 MSTORE CALLER SWAP4 LOG3 STOP JUMPDEST SWAP1 PUSH1 0x1B PUSH1 0x64 SWAP3 PUSH1 0x40 MLOAD SWAP3 PUSH3 0x461BCD PUSH1 0xE5 SHL DUP5 MSTORE PUSH1 0x4 DUP5 ADD MSTORE DUP3 ADD MSTORE PUSH32 0x5472616E7366657220746F207265666572726564206661696C65640000000000 PUSH1 0x44 DUP3 ADD MSTORE REVERT JUMPDEST PUSH2 0x1BE3 SWAP2 POP DUP4 RETURNDATASIZE DUP6 GT PUSH2 0x5D9 JUMPI PUSH2 0x5CA DUP2 DUP4 PUSH2 0x2004 JUMP JUMPDEST DUP6 PUSH2 0x1B55 JUMP JUMPDEST DUP4 PUSH4 0x4E487B71 PUSH1 0xE0 SHL PUSH1 0x0 MSTORE PUSH1 0x11 PUSH1 0x4 MSTORE PUSH1 0x0 REVERT JUMPDEST DUP5 PUSH4 0x4E487B71 PUSH1 0xE0 SHL PUSH1 0x0 MSTORE PUSH1 0x11 PUSH1 0x4 MSTORE PUSH1 0x0 REVERT JUMPDEST PUSH1 0x40 MLOAD PUSH3 0x461BCD PUSH1 0xE5 SHL DUP2 MSTORE PUSH1 0x4 DUP2 ADD DUP6 SWAP1 MSTORE PUSH1 0x1B DUP2 DUP6 ADD MSTORE PUSH32 0x5472616E7366657220746F207265666572726572206661696C65640000000000 PUSH1 0x44 DUP3 ADD MSTORE PUSH1 0x64 SWAP1 REVERT JUMPDEST PUSH2 0x1C6E SWAP2 POP DUP6 RETURNDATASIZE DUP8 GT PUSH2 0x5D9 JUMPI PUSH2 0x5CA DUP2 DUP4 PUSH2 0x2004 JUMP JUMPDEST DUP8 PUSH2 0x1AF3 JUMP JUMPDEST DUP3 PUSH4 0x4E487B71 PUSH1 0xE0 SHL PUSH1 0x0 MSTORE PUSH1 0x11 PUSH1 0x4 MSTORE PUSH1 0x0 REVERT JUMPDEST SWAP1 POP DUP3 DUP2 DUP2 RETURNDATASIZE DUP4 GT PUSH2 0x1CB9 JUMPI JUMPDEST PUSH2 0x1CA0 DUP2 DUP4 PUSH2 0x2004 JUMP JUMPDEST DUP2 ADD SUB SLT PUSH2 0x264 JUMPI MLOAD PUSH10 0x3F870857A3E0E3800000 PUSH2 0x1A6F JUMP JUMPDEST POP RETURNDATASIZE PUSH2 0x1C96 JUMP JUMPDEST PUSH1 0x40 MLOAD PUSH3 0x461BCD PUSH1 0xE5 SHL DUP2 MSTORE PUSH1 0x4 DUP2 ADD DUP5 SWAP1 MSTORE PUSH1 0x1C PUSH1 0x24 DUP3 ADD MSTORE PUSH32 0x5265666572726572206D75737420626520616374697665207573657200000000 PUSH1 0x44 DUP3 ADD MSTORE PUSH1 0x64 SWAP1 REVERT JUMPDEST PUSH1 0x40 MLOAD PUSH3 0x461BCD PUSH1 0xE5 SHL DUP2 MSTORE PUSH1 0x4 DUP2 ADD DUP5 SWAP1 MSTORE PUSH1 0x10 PUSH1 0x24 DUP3 ADD MSTORE PUSH16 0x24B73B30B634B2103932B332B93932B9 PUSH1 0x81 SHL PUSH1 0x44 DUP3 ADD MSTORE PUSH1 0x64 SWAP1 REVERT JUMPDEST PUSH1 0x40 MLOAD PUSH3 0x461BCD PUSH1 0xE5 SHL DUP2 MSTORE PUSH1 0x4 DUP2 ADD DUP5 SWAP1 MSTORE PUSH1 0x15 PUSH1 0x24 DUP3 ADD MSTORE PUSH21 0x21B0B73737BA103932B332B9103CB7BAB939B2B633 PUSH1 0x59 SHL PUSH1 0x44 DUP3 ADD MSTORE PUSH1 0x64 SWAP1 REVERT JUMPDEST PUSH1 0x40 MLOAD PUSH3 0x461BCD PUSH1 0xE5 SHL DUP2 MSTORE PUSH1 0x4 DUP2 ADD DUP5 SWAP1 MSTORE PUSH1 0x15 PUSH1 0x24 DUP3 ADD MSTORE PUSH21 0x105B1C9958591E481D5CD959081C9959995C9C985B PUSH1 0x5A SHL PUSH1 0x44 DUP3 ADD MSTORE PUSH1 0x64 SWAP1 REVERT JUMPDEST CALLVALUE PUSH2 0x264 JUMPI PUSH1 0x0 CALLDATASIZE PUSH1 0x3 NOT ADD SLT PUSH2 0x264 JUMPI PUSH1 0x4 SLOAD PUSH1 0x40 MLOAD PUSH1 0x1 PUSH1 0x1 PUSH1 0xA0 SHL SUB SWAP1 SWAP2 AND DUP2 MSTORE PUSH1 0x20 SWAP1 RETURN JUMPDEST CALLVALUE PUSH2 0x264 JUMPI PUSH1 0x20 CALLDATASIZE PUSH1 0x3 NOT ADD SLT PUSH2 0x264 JUMPI PUSH1 0x4 CALLDATALOAD DUP1 ISZERO ISZERO DUP1 SWAP2 SUB PUSH2 0x264 JUMPI PUSH1 0x20 PUSH32 0xE2FB031EE032DC02D8011DC50B816EB450CF856ABD8261680DAC74F72165BD2 SWAP2 PUSH2 0x1E37 PUSH1 0x1 DUP1 PUSH1 0xA0 SHL SUB PUSH1 0x0 SLOAD AND CALLER EQ PUSH2 0x23F6 JUMP JUMPDEST PUSH1 0x4 DUP1 SLOAD PUSH1 0xFF PUSH1 0xA8 SHL NOT AND PUSH1 0xA8 DUP4 SWAP1 SHL PUSH1 0xFF PUSH1 0xA8 SHL AND OR SWAP1 SSTORE PUSH1 0x40 MLOAD SWAP1 DUP2 MSTORE LOG1 STOP JUMPDEST CALLVALUE PUSH2 0x264 JUMPI PUSH1 0x0 CALLDATASIZE PUSH1 0x3 NOT ADD SLT PUSH2 0x264 JUMPI PUSH1 0x20 PUSH1 0xFF PUSH1 0x4 SLOAD PUSH1 0xA0 SHR AND PUSH1 0x40 MLOAD SWAP1 ISZERO ISZERO DUP2 MSTORE RETURN JUMPDEST CALLVALUE PUSH2 0x264 JUMPI PUSH1 0x20 CALLDATASIZE PUSH1 0x3 NOT ADD SLT PUSH2 0x264 JUMPI PUSH1 0x4 CALLDATALOAD PUSH1 0x1 PUSH1 0x1 PUSH1 0xA0 SHL SUB DUP2 AND SWAP2 SWAP1 DUP3 SWAP1 SUB PUSH2 0x264 JUMPI PUSH1 0x20 SWAP2 PUSH1 0x0 MSTORE PUSH1 0x9 DUP3 MSTORE PUSH1 0xFF PUSH1 0x40 PUSH1 0x0 KECCAK256 SLOAD AND ISZERO ISZERO DUP2 MSTORE RETURN JUMPDEST CALLVALUE PUSH2 0x264 JUMPI PUSH1 0x0 CALLDATASIZE PUSH1 0x3 NOT ADD SLT PUSH2 0x264 JUMPI PUSH1 0x20 PUSH1 0x40 MLOAD PUSH10 0x34F086F3B33B68400000 DUP2 MSTORE RETURN JUMPDEST CALLVALUE PUSH2 0x264 JUMPI PUSH1 0x0 CALLDATASIZE PUSH1 0x3 NOT ADD SLT PUSH2 0x264 JUMPI PUSH1 0x20 PUSH1 0x40 MLOAD PUSH10 0x152D02C7E14AF6800000 DUP2 MSTORE RETURN JUMPDEST SWAP2 DUP2 PUSH1 0x1F DUP5 ADD SLT ISZERO PUSH2 0x264 JUMPI DUP3 CALLDATALOAD SWAP2 PUSH8 0xFFFFFFFFFFFFFFFF DUP4 GT PUSH2 0x264 JUMPI PUSH1 0x20 DUP4 DUP2 DUP7 ADD SWAP6 ADD ADD GT PUSH2 0x264 JUMPI JUMP JUMPDEST PUSH1 0x40 PUSH1 0x3 NOT DUP3 ADD SLT PUSH2 0x264 JUMPI PUSH8 0xFFFFFFFFFFFFFFFF SWAP2 PUSH1 0x4 CALLDATALOAD DUP4 DUP2 GT PUSH2 0x264 JUMPI DUP3 PUSH2 0x1F64 SWAP2 PUSH1 0x4 ADD PUSH2 0x1F09 JUMP JUMPDEST SWAP4 SWAP1 SWAP4 SWAP3 PUSH1 0x24 CALLDATALOAD SWAP2 DUP3 GT PUSH2 0x264 JUMPI PUSH2 0x1F7E SWAP2 PUSH1 0x4 ADD PUSH2 0x1F09 JUMP JUMPDEST SWAP1 SWAP2 JUMP JUMPDEST CALLVALUE PUSH2 0x264 JUMPI PUSH1 0x0 CALLDATASIZE PUSH1 0x3 NOT ADD SLT PUSH2 0x264 JUMPI PUSH1 0x20 PUSH1 0x40 MLOAD PUSH10 0xA968163F0A57B400000 DUP2 MSTORE RETURN JUMPDEST ISZERO PUSH2 0x1FAE JUMPI JUMP JUMPDEST PUSH1 0x40 MLOAD PUSH3 0x461BCD PUSH1 0xE5 SHL DUP2 MSTORE PUSH1 0x20 PUSH1 0x4 DUP3 ADD MSTORE PUSH1 0x12 PUSH1 0x24 DUP3 ADD MSTORE PUSH18 0x10DBDB9D1C9858DD081A5CC81C185D5CD959 PUSH1 0x72 SHL PUSH1 0x44 DUP3 ADD MSTORE PUSH1 0x64 SWAP1 REVERT JUMPDEST SWAP2 SWAP1 DUP3 ADD DUP1 SWAP3 GT PUSH2 0x10BF JUMPI JUMP JUMPDEST PUSH1 0x0 NOT DUP2 EQ PUSH2 0x10BF JUMPI PUSH1 0x1 ADD SWAP1 JUMP JUMPDEST SWAP1 PUSH1 0x1F DUP1 NOT SWAP2 ADD AND DUP2 ADD SWAP1 DUP2 LT PUSH8 0xFFFFFFFFFFFFFFFF DUP3 GT OR PUSH2 0x1364 JUMPI PUSH1 0x40 MSTORE JUMP JUMPDEST ISZERO PUSH2 0x202D JUMPI JUMP JUMPDEST PUSH1 0x40 MLOAD PUSH3 0x461BCD PUSH1 0xE5 SHL DUP2 MSTORE PUSH1 0x20 PUSH1 0x4 DUP3 ADD MSTORE PUSH1 0x19 PUSH1 0x24 DUP3 ADD MSTORE PUSH32 0x496E73756666696369656E7420706F6F6C2062616C616E636500000000000000 PUSH1 0x44 DUP3 ADD MSTORE PUSH1 0x64 SWAP1 REVERT JUMPDEST SWAP1 DUP2 PUSH1 0x20 SWAP2 SUB SLT PUSH2 0x264 JUMPI MLOAD DUP1 ISZERO ISZERO DUP2 SUB PUSH2 0x264 JUMPI SWAP1 JUMP JUMPDEST ISZERO PUSH2 0x2091 JUMPI JUMP JUMPDEST PUSH1 0x40 MLOAD PUSH3 0x461BCD PUSH1 0xE5 SHL DUP2 MSTORE PUSH1 0x20 PUSH1 0x4 DUP3 ADD MSTORE PUSH1 0xF PUSH1 0x24 DUP3 ADD MSTORE PUSH15 0x151C985B9CD9995C8819985A5B1959 PUSH1 0x8A SHL PUSH1 0x44 DUP3 ADD MSTORE PUSH1 0x64 SWAP1 REVERT JUMPDEST ISZERO PUSH2 0x20CF JUMPI JUMP JUMPDEST PUSH1 0x40 MLOAD PUSH3 0x461BCD PUSH1 0xE5 SHL DUP2 MSTORE PUSH1 0x20 PUSH1 0x4 DUP3 ADD MSTORE PUSH1 0x11 PUSH1 0x24 DUP3 ADD MSTORE PUSH17 0x496E76616C6964207369676E6174757265 PUSH1 0x78 SHL PUSH1 0x44 DUP3 ADD MSTORE PUSH1 0x64 SWAP1 REVERT JUMPDEST SWAP3 SWAP2 SWAP3 PUSH8 0xFFFFFFFFFFFFFFFF DUP3 GT PUSH2 0x1364 JUMPI PUSH1 0x40 MLOAD SWAP2 PUSH2 0x2132 PUSH1 0x1F DUP3 ADD PUSH1 0x1F NOT AND PUSH1 0x20 ADD DUP5 PUSH2 0x2004 JUMP JUMPDEST DUP3 SWAP5 DUP2 DUP5 MSTORE DUP2 DUP4 ADD GT PUSH2 0x264 JUMPI DUP3 DUP2 PUSH1 0x20 SWAP4 DUP5 PUSH1 0x0 SWAP7 ADD CALLDATACOPY ADD ADD MSTORE JUMP JUMPDEST ISZERO PUSH2 0x2156 JUMPI JUMP JUMPDEST PUSH1 0x40 MLOAD PUSH3 0x461BCD PUSH1 0xE5 SHL DUP2 MSTORE PUSH1 0x20 PUSH1 0x4 DUP3 ADD MSTORE PUSH1 0x1C PUSH1 0x24 DUP3 ADD MSTORE PUSH32 0x5461736B20616C726561647920636F6D706C6574656420746F64617900000000 PUSH1 0x44 DUP3 ADD MSTORE PUSH1 0x64 SWAP1 REVERT JUMPDEST SWAP4 SWAP3 SWAP2 DUP1 PUSH1 0x60 SWAP2 PUSH1 0x20 SWAP4 PUSH1 0x40 DUP9 MSTORE DUP2 PUSH1 0x40 DUP10 ADD MSTORE DUP4 DUP9 ADD CALLDATACOPY PUSH1 0x0 DUP3 DUP3 DUP9 ADD ADD MSTORE PUSH1 0x1F DUP1 NOT SWAP2 ADD AND DUP6 ADD ADD SWAP4 ADD MSTORE JUMP JUMPDEST ISZERO PUSH2 0x21D1 JUMPI JUMP JUMPDEST PUSH1 0x40 MLOAD PUSH3 0x461BCD PUSH1 0xE5 SHL DUP2 MSTORE PUSH1 0x20 PUSH1 0x4 DUP3 ADD MSTORE PUSH1 0xF PUSH1 0x24 DUP3 ADD MSTORE PUSH15 0x105B1C9958591E4818DB185A5B5959 PUSH1 0x8A SHL PUSH1 0x44 DUP3 ADD MSTORE PUSH1 0x64 SWAP1 REVERT JUMPDEST PUSH1 0x1 PUSH1 0x1 PUSH1 0xA0 SHL SUB AND PUSH1 0x0 SWAP1 DUP2 MSTORE PUSH1 0x6 PUSH1 0x20 MSTORE PUSH1 0x40 DUP2 KECCAK256 PUSH1 0x1 DUP2 ADD SLOAD PUSH3 0x15180 TIMESTAMP DIV SWAP1 SUB PUSH2 0x2248 JUMPI SLOAD SWAP1 PUSH1 0xFF DUP3 AND SWAP3 PUSH1 0xFF DUP1 DUP5 PUSH1 0x8 SHR AND SWAP4 PUSH1 0x10 SHR AND SWAP2 SWAP1 JUMP JUMPDEST POP DUP1 SWAP2 DUP2 SWAP1 PUSH1 0x1 SWAP1 JUMP JUMPDEST PUSH1 0x1 PUSH1 0x1 PUSH1 0xA0 SHL SUB AND PUSH1 0x0 SWAP1 DUP2 MSTORE PUSH1 0x6 PUSH1 0x20 MSTORE PUSH1 0x40 SWAP1 KECCAK256 PUSH1 0x1 DUP2 ADD DUP1 SLOAD PUSH3 0x15180 TIMESTAMP DIV SWAP3 SWAP1 DUP4 SWAP1 SUB PUSH2 0x2283 JUMPI POP POP POP JUMP JUMPDEST DUP1 SLOAD PUSH3 0xFFFFFF NOT AND SWAP1 SSTORE SSTORE JUMP JUMPDEST SWAP4 SWAP2 SWAP4 SWAP3 SWAP1 SWAP3 PUSH1 0x40 SWAP5 PUSH2 0x22DF PUSH1 0x54 DUP8 MLOAD DUP4 DUP2 SWAP5 PUSH1 0x20 SWAP10 DUP11 DUP5 ADD SWAP8 PUSH12 0xFFFFFFFFFFFFFFFFFFFFFFFF NOT SWAP1 PUSH1 0x60 SHL AND DUP9 MSTORE PUSH1 0x34 DUP5 ADD CALLDATACOPY DUP2 ADD PUSH3 0x15180 TIMESTAMP DIV PUSH1 0x34 DUP3 ADD MSTORE SUB PUSH1 0x34 DUP2 ADD DUP5 MSTORE ADD DUP3 PUSH2 0x2004 JUMP JUMPDEST MLOAD SWAP1 KECCAK256 DUP5 MLOAD DUP5 DUP2 ADD SWAP2 PUSH32 0x19457468657265756D205369676E6564204D6573736167653A0A333200000000 DUP4 MSTORE PUSH1 0x3C DUP3 ADD MSTORE PUSH1 0x3C DUP2 MSTORE PUSH1 0x60 DUP2 ADD SWAP2 DUP2 DUP4 LT PUSH8 0xFFFFFFFFFFFFFFFF DUP5 GT OR PUSH2 0x1364 JUMPI DUP3 DUP8 MSTORE DUP2 MLOAD SWAP1 KECCAK256 SWAP4 PUSH1 0x40 NOT ADD PUSH2 0x23B6 JUMPI POP POP DUP3 SWAP1 PUSH1 0x0 DUP6 DUP3 ADD CALLDATALOAD SWAP1 BYTE PUSH1 0x1B DUP2 LT PUSH2 0x239E JUMPI JUMPDEST DUP6 MLOAD SWAP4 DUP5 MSTORE PUSH1 0xFF AND DUP4 DUP4 ADD MSTORE DUP1 CALLDATALOAD DUP4 DUP7 ADD MSTORE ADD CALLDATALOAD PUSH1 0x60 DUP3 ADD MSTORE PUSH1 0x0 DUP1 DUP1 MSTORE SWAP1 PUSH1 0x80 SWAP1 PUSH1 0x1 GAS STATICCALL ISZERO PUSH2 0x2394 JUMPI POP PUSH1 0x0 MLOAD PUSH1 0x4 SLOAD PUSH1 0x1 PUSH1 0x1 PUSH1 0xA0 SHL SUB SWAP2 DUP3 AND SWAP2 AND EQ SWAP1 JUMP JUMPDEST MLOAD RETURNDATASIZE PUSH1 0x0 DUP3 RETURNDATACOPY RETURNDATASIZE SWAP1 REVERT JUMPDEST PUSH1 0x1B SWAP2 SWAP3 POP ADD SWAP2 PUSH1 0xFF DUP4 GT PUSH2 0x10BF JUMPI SWAP2 DUP4 SWAP2 SWAP1 PUSH2 0x2351 JUMP JUMPDEST SWAP1 PUSH32 0x496E76616C6964207369676E6174757265206C656E6774680000000000000000 PUSH1 0xA4 PUSH1 0x64 SWAP4 DUP8 PUSH3 0x461BCD PUSH1 0xE5 SHL DUP6 MSTORE DUP6 DUP3 ADD MSTORE PUSH1 0x18 PUSH1 0x84 DUP3 ADD MSTORE ADD MSTORE REVERT JUMPDEST ISZERO PUSH2 0x23FD JUMPI JUMP JUMPDEST PUSH1 0x40 MLOAD PUSH3 0x461BCD PUSH1 0xE5 SHL DUP2 MSTORE PUSH1 0x20 PUSH1 0x4 DUP3 ADD MSTORE PUSH1 0x9 PUSH1 0x24 DUP3 ADD MSTORE PUSH9 0x2737BA1037BBB732B9 PUSH1 0xB9 SHL PUSH1 0x44 DUP3 ADD MSTORE PUSH1 0x64 SWAP1 REVERT INVALID LOG2 PUSH5 0x6970667358 0x22 SLT KECCAK256 0xDB PUSH24 0xAD17FEEE91C0773095DC39C6F4DCB6463CE6F39B2935FFED 0xE0 0xE4 0xBF 0xC1 0xC7 SWAP1 PUSH5 0x736F6C6343 STOP ADDMOD SGT STOP CALLER "},"methodIdentifiers":{"BASE_DAILY_REWARD()":"a0b873fb","BETA_TESTER_REWARD()":"e551b71a","CREATE_PREDICTION_REWARD()":"88df0589","FOLLOW_SOCIALS_REWARD()":"265a58d8","INITIAL_POOL_SIZE()":"afcc78be","JACKPOT_AMOUNT()":"b6ab790e","JACKPOT_CHANCE()":"9f530cc9","MAX_STREAK_BONUS_DAYS()":"bf1e8b3a","REFERRAL_REWARD()":"84a3a0f3","SHARE_CAST_REWARD()":"ea4f64b0","STREAK_30_REWARD()":"efc7a864","STREAK_7_REWARD()":"0f7cda76","STREAK_BONUS_PER_DAY()":"4e6446a2","TRADING_VOLUME_REWARD()":"216caf4d","claimAchievement(string,bytes)":"7a994cd0","claimDaily()":"89934d3a","claimingEnabled()":"0e141a9b","completeTask(string,bytes)":"db3eef3f","dailyTasks(address)":"df312b1e","depositSwipe(uint256)":"a079d40c","emergencyWithdraw()":"db2e21bc","getPoolStats()":"bbb85188","getUserAchievements(address)":"f09153c4","getUserDailyTasks(address)":"c7105609","getUserStats(address)":"4e43603a","hasUsedReferral(address)":"09b5a33a","owner()":"8da5cb5b","paused()":"5c975abb","referralCount(address)":"db74559b","referredBy(address)":"a90f8e9a","registerReferral(address)":"209ab711","setClaimingEnabled(bool)":"b6c72888","setPaused(bool)":"16c38b3c","setTaskVerifier(address)":"70ed4620","swipeToken()":"492c70fb","taskVerifier()":"1e23a7f0","totalClaims()":"41c61383","totalDistributed()":"efca2eed","totalUsers()":"bff1f9e1","transferOwnership(address)":"f2fde38b","users(address)":"a87430ba"}}}}}