{"contracts/SwipeClaim.sol":{"SwipeClaim":{"abi":[{"inputs":[{"internalType":"address","name":"_v2Contract","type":"address"},{"internalType":"address","name":"_swipeToken","type":"address"}],"stateMutability":"nonpayable","type":"constructor"},{"anonymous":false,"inputs":[{"indexed":true,"internalType":"address","name":"user","type":"address"},{"indexed":false,"internalType":"uint256","name":"betCount","type":"uint256"}],"name":"BetCountSet","type":"event"},{"anonymous":false,"inputs":[{"indexed":false,"internalType":"bool","name":"enabled","type":"bool"}],"name":"ClaimingToggled","type":"event"},{"anonymous":false,"inputs":[{"indexed":false,"internalType":"uint256","name":"newMax","type":"uint256"}],"name":"MaxPredictionIdUpdated","type":"event"},{"anonymous":false,"inputs":[{"indexed":true,"internalType":"address","name":"user","type":"address"},{"indexed":false,"internalType":"uint256","name":"betCount","type":"uint256"},{"indexed":false,"internalType":"uint256","name":"swipeAmount","type":"uint256"}],"name":"SwipeClaimed","type":"event"},{"anonymous":false,"inputs":[{"indexed":false,"internalType":"uint256","name":"amount","type":"uint256"}],"name":"SwipeDeposited","type":"event"},{"inputs":[],"name":"REWARD_100_BETS","outputs":[{"internalType":"uint256","name":"","type":"uint256"}],"stateMutability":"view","type":"function"},{"inputs":[],"name":"REWARD_10_BETS","outputs":[{"internalType":"uint256","name":"","type":"uint256"}],"stateMutability":"view","type":"function"},{"inputs":[],"name":"REWARD_25_BETS","outputs":[{"internalType":"uint256","name":"","type":"uint256"}],"stateMutability":"view","type":"function"},{"inputs":[],"name":"REWARD_50_BETS","outputs":[{"internalType":"uint256","name":"","type":"uint256"}],"stateMutability":"view","type":"function"},{"inputs":[],"name":"TIER_100_BETS","outputs":[{"internalType":"uint256","name":"","type":"uint256"}],"stateMutability":"view","type":"function"},{"inputs":[],"name":"TIER_10_BETS","outputs":[{"internalType":"uint256","name":"","type":"uint256"}],"stateMutability":"view","type":"function"},{"inputs":[],"name":"TIER_25_BETS","outputs":[{"internalType":"uint256","name":"","type":"uint256"}],"stateMutability":"view","type":"function"},{"inputs":[],"name":"TIER_50_BETS","outputs":[{"internalType":"uint256","name":"","type":"uint256"}],"stateMutability":"view","type":"function"},{"inputs":[{"internalType":"address[]","name":"_users","type":"address[]"},{"internalType":"uint256[]","name":"_betCounts","type":"uint256[]"}],"name":"batchSetBetCounts","outputs":[],"stateMutability":"nonpayable","type":"function"},{"inputs":[{"internalType":"address","name":"","type":"address"}],"name":"betCountSet","outputs":[{"internalType":"bool","name":"","type":"bool"}],"stateMutability":"view","type":"function"},{"inputs":[],"name":"claimSwipe","outputs":[],"stateMutability":"nonpayable","type":"function"},{"inputs":[],"name":"claimingEnabled","outputs":[{"internalType":"bool","name":"","type":"bool"}],"stateMutability":"view","type":"function"},{"inputs":[{"internalType":"address","name":"_user","type":"address"}],"name":"countUserBets","outputs":[{"internalType":"uint256","name":"betCount","type":"uint256"}],"stateMutability":"view","type":"function"},{"inputs":[{"internalType":"uint256","name":"_amount","type":"uint256"}],"name":"depositSwipe","outputs":[],"stateMutability":"nonpayable","type":"function"},{"inputs":[],"name":"emergencyWithdrawSwipe","outputs":[],"stateMutability":"nonpayable","type":"function"},{"inputs":[{"internalType":"uint256","name":"betCount","type":"uint256"}],"name":"getRewardForBetCount","outputs":[{"internalType":"uint256","name":"rewardAmount","type":"uint256"}],"stateMutability":"pure","type":"function"},{"inputs":[],"name":"getSwipeBalance","outputs":[{"internalType":"uint256","name":"","type":"uint256"}],"stateMutability":"view","type":"function"},{"inputs":[{"internalType":"uint256","name":"betCount","type":"uint256"}],"name":"getTierInfo","outputs":[{"internalType":"string","name":"tierName","type":"string"},{"internalType":"uint256","name":"rewardAmount","type":"uint256"},{"internalType":"uint256","name":"nextTierBetCount","type":"uint256"}],"stateMutability":"pure","type":"function"},{"inputs":[{"internalType":"address","name":"_user","type":"address"}],"name":"getUserClaimInfo","outputs":[{"internalType":"bool","name":"eligible","type":"bool"},{"internalType":"uint256","name":"betCount","type":"uint256"},{"internalType":"uint256","name":"rewardAmount","type":"uint256"}],"stateMutability":"view","type":"function"},{"inputs":[{"internalType":"address","name":"","type":"address"}],"name":"hasClaimed","outputs":[{"internalType":"bool","name":"","type":"bool"}],"stateMutability":"view","type":"function"},{"inputs":[],"name":"maxPredictionId","outputs":[{"internalType":"uint256","name":"","type":"uint256"}],"stateMutability":"view","type":"function"},{"inputs":[],"name":"owner","outputs":[{"internalType":"address","name":"","type":"address"}],"stateMutability":"view","type":"function"},{"inputs":[{"internalType":"bool","name":"_enabled","type":"bool"}],"name":"setClaimingEnabled","outputs":[],"stateMutability":"nonpayable","type":"function"},{"inputs":[{"internalType":"uint256","name":"_maxId","type":"uint256"}],"name":"setMaxPredictionId","outputs":[],"stateMutability":"nonpayable","type":"function"},{"inputs":[{"internalType":"address","name":"_user","type":"address"},{"internalType":"uint256","name":"_betCount","type":"uint256"}],"name":"setUserBetCount","outputs":[],"stateMutability":"nonpayable","type":"function"},{"inputs":[],"name":"swipeToken","outputs":[{"internalType":"address","name":"","type":"address"}],"stateMutability":"view","type":"function"},{"inputs":[{"internalType":"address","name":"_newOwner","type":"address"}],"name":"transferOwnership","outputs":[],"stateMutability":"nonpayable","type":"function"},{"inputs":[{"internalType":"address","name":"","type":"address"}],"name":"userBetCounts","outputs":[{"internalType":"uint256","name":"","type":"uint256"}],"stateMutability":"view","type":"function"},{"inputs":[],"name":"v2Contract","outputs":[{"internalType":"address","name":"","type":"address"}],"stateMutability":"view","type":"function"}],"evm":{"bytecode":{"linkReferences":{},"object":"60c0346100c457601f6115af38819003918201601f19168301916001600160401b038311848410176100c95780849260409485528339810103126100c457610052602061004b836100df565b92016100df565b6103e86004556005805460ff19166001179055600080546001600160a01b0319163317905560809190915260a0526040516114bb90816100f482396080518181816109a60152610fbb015260a0518181816106410152818161073e01528181610aa601528181610d570152610db50152f35b600080fd5b634e487b7160e01b600052604160045260246000fd5b51906001600160a01b03821682036100c45756fe608060408181526004918236101561001657600080fd5b600092833560e01c9182630e141a9b14610e965750816312b1e77414610e7a57816331bef01914610e545781633b5b827814610e385781633f4d9c2614610d86578163492c70fb14610d425781636495d34014610d1c5781636daf1d8414610a3157816373b2e80e146109f35781637b42dea6146109d557816382fb31fe1461099157816383aa56fa146109535781638da5cb5b1461092b5781638f6093a314610897578163965f632b14610710578163a079d40c14610602578163b6c7288814610593578163b78d21ae14610577578163c09762f414610552578163c8e1ae0a1461052c578163cc9d7519146104b1578163ccc5cf6214610487578163cf546b1814610406578163d2b885bb146103e0578163d80c363a1461027e578163db7b8aa914610246578163ee75defd1461020c578163f2fde38b14610182575063fa37e2991461016457600080fd5b3461017e578160031936011261017e576020905160198152f35b5080fd5b9050346102085760203660031901126102085761019d610eb7565b835491906001600160a01b03906101b73383861614611413565b169283156101d15750506001600160a01b03191617815580f35b906020606492519162461bcd60e51b8352820152601160248201527024b73b30b634b2103732bb9037bbb732b960791b6044820152fd5b8280fd5b50503461017e57602036600319011261017e5760609061023261022d610eb7565b611361565b919290815193151584526020840152820152f35b50503461017e57602036600319011261017e5760209181906001600160a01b0361026e610eb7565b1681526002845220549051908152f35b9190503461020857806003193601126102085767ffffffffffffffff9180358381116103dc576102b19036908301610ed2565b90936024359081116103d8576102ca9036908401610ed2565b909160018060a01b03936102e2858954163314611413565b82820361039d5750865b8181106102f7578780f35b8061030661039892858761144b565b358661031b61031684878d61144b565b611471565b168a5260209060028252888b20558661033861031684878d61144b565b168a5260038152878a20805460ff191660011790557f77c54f69fc22d36a1dc5dd803181a79acc4780d8bf3f348e258f3e5febdfff2a61037c61031684878d61144b565b918861038985898b61144b565b35938b519485521692a2610f57565b6102ec565b606490602087519162461bcd60e51b83528201526015602482015274082e4e4c2f240d8cadccee8d040dad2e6dac2e8c6d605b1b6044820152fd5b8580fd5b8480fd5b50503461017e578160031936011261017e57602090516a084595161401484a0000008152f35b50503461017e578060031936011261017e577f77c54f69fc22d36a1dc5dd803181a79acc4780d8bf3f348e258f3e5febdfff2a6020610443610eb7565b8454602435916001600160a01b039161045f9083163314611413565b169384865260028352818187205560038352808620600160ff1982541617905551908152a280f35b8284346104ae5760203660031901126104ae57506104a7602092356111f1565b9051908152f35b80fd5b91905034610208576020918260031936011261052857916104d3849335611254565b90949193805195869460608652865194856060880152805b868110610511575060808098508688010152850152830152601f80199101168101030190f35b8089018301518a82016080015289975082016104eb565b8380fd5b50503461017e578160031936011261017e57602090516a14adf4b7320334b90000008152f35b50503461017e578160031936011261017e576020905169d3c21bcecceda10000008152f35b50503461017e578160031936011261017e576020905160648152f35b905034610208576020366003190112610208573590811515809203610208577f5357603b66ce52ad2bde073bf1baae8a126a96ae712f396257fa4b57169c36ab916020916105eb60018060a01b038654163314611413565b60ff196005541660ff83161760055551908152a180f35b9190503461020857602090816003193601126105285780516323b872dd60e01b81523381850152306024820152923560448401819052908284606481887f00000000000000000000000000000000000000000000000000000000000000006001600160a01b03165af19384156107065785946106ac575b506106a47f679798103964707163397293a03409f0890f9ed183d148944c0a9a2d4604a6cd946113cf565b51908152a180f35b93508284813d83116106ff575b6106c38183610f35565b810103126103dc576106a46106f87f679798103964707163397293a03409f0890f9ed183d148944c0a9a2d4604a6cd95610f7c565b9450610679565b503d6106b9565b81513d87823e3d90fd5b83833461017e578160031936011261017e5781546001600160a01b03908116939061073c338614611413565b7f0000000000000000000000000000000000000000000000000000000000000000168251946370a0823160e01b865230838701526020928387602481865afa96871561088d57869761085e575b50861561082457845163a9059cbb60e01b81526001600160a01b03909216908201908152602081019690965293948291859182908890829060400103925af191821561081b575083916107e4575b836107e1836113cf565b80f35b905081813d8311610814575b6107fa8183610f35565b8101031261017e5761080e6107e191610f7c565b836107d7565b503d6107f0565b513d85823e3d90fd5b845162461bcd60e51b815290810184905260146024820152734e6f20535749504520746f20776974686472617760601b6044820152606490fd5b9096508381813d8311610886575b6108768183610f35565b810103126103d857519587610789565b503d61086c565b85513d88823e3d90fd5b91905034610208576020366003190112610208578135916108c260018060a01b038554163314611413565b82156108f85791602091817f449e8415715393d8b77540c364080d2a49e56667c39d8fd07090036de5f52246945551908152a180f35b6020606492519162461bcd60e51b8352820152600e60248201526d125b9d985b1a59081b585e08125160921b6044820152fd5b50503461017e578160031936011261017e57905490516001600160a01b039091168152602090f35b50503461017e57602036600319011261017e5760209160ff9082906001600160a01b0361097e610eb7565b1681526003855220541690519015158152f35b50503461017e578160031936011261017e57517f00000000000000000000000000000000000000000000000000000000000000006001600160a01b03168152602090f35b90503461020857826003193601126102085760209250549051908152f35b50503461017e57602036600319011261017e5760209160ff9082906001600160a01b03610a1e610eb7565b1681526001855220541690519015158152f35b83833461017e578160031936011261017e5760ff6005541615610ce6573382526020906001825260ff8184205416610cb357338352600382528083205460ff1615610ca4573383526002825280832054915b610a8c836111f1565b908115610c625782516370a0823160e01b815230818801527f00000000000000000000000000000000000000000000000000000000000000006001600160a01b0316969082816024818b5afa908115610c58579084918891610c23575b5010610be257338087526001808452858820805460ff19169091179055845163a9059cbb60e01b815291820190815260208101849052959694959094829186919082908a90829060400103925af1938415610bd8578694610b7e575b50610b707fedeb8cca9f41e2c8c3fa8d7392decd330daf8bc795a516b1a6ab420b889bc52c946113cf565b82519485528401523392a280f35b93508084813d8311610bd1575b610b958183610f35565b810103126103d857610b70610bca7fedeb8cca9f41e2c8c3fa8d7392decd330daf8bc795a516b1a6ab420b889bc52c95610f7c565b9450610b45565b503d610b8b565b83513d88823e3d90fd5b60649184519162461bcd60e51b8352820152601a60248201527f496e73756666696369656e742053574950452062616c616e63650000000000006044820152fd5b809250848092503d8311610c51575b610c3c8183610f35565b81010312610c4d5783905189610ae9565b8680fd5b503d610c32565b85513d89823e3d90fd5b8560649184519162461bcd60e51b8352820152601860248201527f4e6f7420656c696769626c6520666f72207265776172647300000000000000006044820152fd5b610cad33610fab565b91610a83565b5162461bcd60e51b81529283015250600f60248201526e105b1c9958591e4818db185a5b5959608a1b6044820152606490fd5b5162461bcd60e51b8152602081840152601160248201527010db185a5b5a5b99c8191a5cd8589b1959607a1b6044820152606490fd5b50503461017e57602036600319011261017e576020906104a7610d3d610eb7565b610fab565b50503461017e578160031936011261017e57517f00000000000000000000000000000000000000000000000000000000000000006001600160a01b03168152602090f35b9190503461020857826003193601126102085780516370a0823160e01b815230928101929092526020826024817f00000000000000000000000000000000000000000000000000000000000000006001600160a01b03165afa918215610e2e578392610df7575b6020838351908152f35b9091506020813d8211610e26575b81610e1260209383610f35565b810103126102085760209250519038610ded565b3d9150610e05565b81513d85823e3d90fd5b50503461017e578160031936011261017e576020905160328152f35b50503461017e578160031936011261017e57602090516a0c685fa11e01ec6f0000008152f35b50503461017e578160031936011261017e5760209051600a8152f35b84903461017e578160031936011261017e5760209060ff6005541615158152f35b600435906001600160a01b0382168203610ecd57565b600080fd5b9181601f84011215610ecd5782359167ffffffffffffffff8311610ecd576020808501948460051b010111610ecd57565b6040810190811067ffffffffffffffff821117610f1f57604052565b634e487b7160e01b600052604160045260246000fd5b90601f8019910116810190811067ffffffffffffffff821117610f1f57604052565b6000198114610f665760010190565b634e487b7160e01b600052601160045260246000fd5b51908115158203610ecd57565b90816060910312610ecd57805191610fa8604060208401519301610f7c565b90565b60408051636c6c949760e11b81527f00000000000000000000000000000000000000000000000000000000000000006001600160a01b031692906004906020818381885afa9081156111e6576000916111b5575b50600081156111ae57506000198101908111611199575b8154808210156111915750915b60009460015b8481111561103a5750505050505090565b8551633a26414960e21b81528481018281526001600160a01b03851660208201526060908190839081906040010381875afa918215611186576000908193611163575b501591821592611159575b508751631380a72360e21b81528681018481526001600160a01b03871660208201529091908190839081906040010381885afa91821561114e57600091829361111b575b50501590811591611111575b508115611109575b506110f4575b6110ef90610f57565b611029565b956111016110ef91610f57565b9690506110e6565b9050386110e0565b90501515386110d8565b61113e935080919250903d10611147575b6111368183610f35565b810190610f89565b509038806110cc565b503d61112c565b89513d6000823e3d90fd5b1515915038611088565b90508161117d9293503d8411611147576111368183610f35565b5091903861107d565b88513d6000823e3d90fd5b905091611023565b601182634e487b7160e01b6000525260246000fd5b9050611016565b906020823d82116111de575b816111ce60209383610f35565b810103126104ae57505138610fff565b3d91506111c1565b84513d6000823e3d90fd5b6064811061120957506a14adf4b7320334b900000090565b6032811061122157506a0c685fa11e01ec6f00000090565b6019811061123957506a084595161401484a00000090565b600a111561124657600090565b69d3c21bcecceda100000090565b6064811061128d575060405161126981610f03565b60048152633130302b60e01b6020820152906a14adf4b7320334b900000090600090565b603281106112c557506040516112a281610f03565b600381526235302b60e81b6020820152906a0c685fa11e01ec6f00000090606490565b601981106112fd57506040516112da81610f03565b600381526232352b60e81b6020820152906a084595161401484a00000090603290565b600a11156113335760405161131181610f03565b600c81526b4e6f7420456c696769626c6560a01b602082015290600090600a90565b60405161133f81610f03565b600381526231302b60e81b60208201529069d3c21bcecceda100000090601990565b6001600160a01b03811660008181526001602052604081205490919060ff166113c6576003602052604082205460ff16156113b55760409250815260026020522054905b6113ae826111f1565b8015159291565b50506113c090610fab565b906113a5565b50809150918190565b156113d657565b60405162461bcd60e51b815260206004820152601560248201527414d5d25411481d1c985b9cd9995c8819985a5b1959605a1b6044820152606490fd5b1561141a57565b60405162461bcd60e51b81526020600482015260096024820152682737ba1037bbb732b960b91b6044820152606490fd5b919081101561145b5760051b0190565b634e487b7160e01b600052603260045260246000fd5b356001600160a01b0381168103610ecd579056fea2646970667358221220521f7ca9a4f96d58da8552354d966d203e7d9f3f89ca5e32574de2dc4ed5102664736f6c63430008130033","opcodes":"PUSH1 0xC0 CALLVALUE PUSH2 0xC4 JUMPI PUSH1 0x1F PUSH2 0x15AF CODESIZE DUP2 SWAP1 SUB SWAP2 DUP3 ADD PUSH1 0x1F NOT AND DUP4 ADD SWAP2 PUSH1 0x1 PUSH1 0x1 PUSH1 0x40 SHL SUB DUP4 GT DUP5 DUP5 LT OR PUSH2 0xC9 JUMPI DUP1 DUP5 SWAP3 PUSH1 0x40 SWAP5 DUP6 MSTORE DUP4 CODECOPY DUP2 ADD SUB SLT PUSH2 0xC4 JUMPI PUSH2 0x52 PUSH1 0x20 PUSH2 0x4B DUP4 PUSH2 0xDF JUMP JUMPDEST SWAP3 ADD PUSH2 0xDF JUMP JUMPDEST PUSH2 0x3E8 PUSH1 0x4 SSTORE PUSH1 0x5 DUP1 SLOAD PUSH1 0xFF NOT AND PUSH1 0x1 OR SWAP1 SSTORE PUSH1 0x0 DUP1 SLOAD PUSH1 0x1 PUSH1 0x1 PUSH1 0xA0 SHL SUB NOT AND CALLER OR SWAP1 SSTORE PUSH1 0x80 SWAP2 SWAP1 SWAP2 MSTORE PUSH1 0xA0 MSTORE PUSH1 0x40 MLOAD PUSH2 0x14BB SWAP1 DUP2 PUSH2 0xF4 DUP3 CODECOPY PUSH1 0x80 MLOAD DUP2 DUP2 DUP2 PUSH2 0x9A6 ADD MSTORE PUSH2 0xFBB ADD MSTORE PUSH1 0xA0 MLOAD DUP2 DUP2 DUP2 PUSH2 0x641 ADD MSTORE DUP2 DUP2 PUSH2 0x73E ADD MSTORE DUP2 DUP2 PUSH2 0xAA6 ADD MSTORE DUP2 DUP2 PUSH2 0xD57 ADD MSTORE PUSH2 0xDB5 ADD MSTORE RETURN JUMPDEST PUSH1 0x0 DUP1 REVERT JUMPDEST PUSH4 0x4E487B71 PUSH1 0xE0 SHL PUSH1 0x0 MSTORE PUSH1 0x41 PUSH1 0x4 MSTORE PUSH1 0x24 PUSH1 0x0 REVERT JUMPDEST MLOAD SWAP1 PUSH1 0x1 PUSH1 0x1 PUSH1 0xA0 SHL SUB DUP3 AND DUP3 SUB PUSH2 0xC4 JUMPI JUMP INVALID PUSH1 0x80 PUSH1 0x40 DUP2 DUP2 MSTORE PUSH1 0x4 SWAP2 DUP3 CALLDATASIZE LT ISZERO PUSH2 0x16 JUMPI PUSH1 0x0 DUP1 REVERT JUMPDEST PUSH1 0x0 SWAP3 DUP4 CALLDATALOAD PUSH1 0xE0 SHR SWAP2 DUP3 PUSH4 0xE141A9B EQ PUSH2 0xE96 JUMPI POP DUP2 PUSH4 0x12B1E774 EQ PUSH2 0xE7A JUMPI DUP2 PUSH4 0x31BEF019 EQ PUSH2 0xE54 JUMPI DUP2 PUSH4 0x3B5B8278 EQ PUSH2 0xE38 JUMPI DUP2 PUSH4 0x3F4D9C26 EQ PUSH2 0xD86 JUMPI DUP2 PUSH4 0x492C70FB EQ PUSH2 0xD42 JUMPI DUP2 PUSH4 0x6495D340 EQ PUSH2 0xD1C JUMPI DUP2 PUSH4 0x6DAF1D84 EQ PUSH2 0xA31 JUMPI DUP2 PUSH4 0x73B2E80E EQ PUSH2 0x9F3 JUMPI DUP2 PUSH4 0x7B42DEA6 EQ PUSH2 0x9D5 JUMPI DUP2 PUSH4 0x82FB31FE EQ PUSH2 0x991 JUMPI DUP2 PUSH4 0x83AA56FA EQ PUSH2 0x953 JUMPI DUP2 PUSH4 0x8DA5CB5B EQ PUSH2 0x92B JUMPI DUP2 PUSH4 0x8F6093A3 EQ PUSH2 0x897 JUMPI DUP2 PUSH4 0x965F632B EQ PUSH2 0x710 JUMPI DUP2 PUSH4 0xA079D40C EQ PUSH2 0x602 JUMPI DUP2 PUSH4 0xB6C72888 EQ PUSH2 0x593 JUMPI DUP2 PUSH4 0xB78D21AE EQ PUSH2 0x577 JUMPI DUP2 PUSH4 0xC09762F4 EQ PUSH2 0x552 JUMPI DUP2 PUSH4 0xC8E1AE0A EQ PUSH2 0x52C JUMPI DUP2 PUSH4 0xCC9D7519 EQ PUSH2 0x4B1 JUMPI DUP2 PUSH4 0xCCC5CF62 EQ PUSH2 0x487 JUMPI DUP2 PUSH4 0xCF546B18 EQ PUSH2 0x406 JUMPI DUP2 PUSH4 0xD2B885BB EQ PUSH2 0x3E0 JUMPI DUP2 PUSH4 0xD80C363A EQ PUSH2 0x27E JUMPI DUP2 PUSH4 0xDB7B8AA9 EQ PUSH2 0x246 JUMPI DUP2 PUSH4 0xEE75DEFD EQ PUSH2 0x20C JUMPI DUP2 PUSH4 0xF2FDE38B EQ PUSH2 0x182 JUMPI POP PUSH4 0xFA37E299 EQ PUSH2 0x164 JUMPI PUSH1 0x0 DUP1 REVERT JUMPDEST CALLVALUE PUSH2 0x17E JUMPI DUP2 PUSH1 0x3 NOT CALLDATASIZE ADD SLT PUSH2 0x17E JUMPI PUSH1 0x20 SWAP1 MLOAD PUSH1 0x19 DUP2 MSTORE RETURN JUMPDEST POP DUP1 REVERT JUMPDEST SWAP1 POP CALLVALUE PUSH2 0x208 JUMPI PUSH1 0x20 CALLDATASIZE PUSH1 0x3 NOT ADD SLT PUSH2 0x208 JUMPI PUSH2 0x19D PUSH2 0xEB7 JUMP JUMPDEST DUP4 SLOAD SWAP2 SWAP1 PUSH1 0x1 PUSH1 0x1 PUSH1 0xA0 SHL SUB SWAP1 PUSH2 0x1B7 CALLER DUP4 DUP7 AND EQ PUSH2 0x1413 JUMP JUMPDEST AND SWAP3 DUP4 ISZERO PUSH2 0x1D1 JUMPI POP POP PUSH1 0x1 PUSH1 0x1 PUSH1 0xA0 SHL SUB NOT AND OR DUP2 SSTORE DUP1 RETURN JUMPDEST SWAP1 PUSH1 0x20 PUSH1 0x64 SWAP3 MLOAD SWAP2 PUSH3 0x461BCD PUSH1 0xE5 SHL DUP4 MSTORE DUP3 ADD MSTORE PUSH1 0x11 PUSH1 0x24 DUP3 ADD MSTORE PUSH17 0x24B73B30B634B2103732BB9037BBB732B9 PUSH1 0x79 SHL PUSH1 0x44 DUP3 ADD MSTORE REVERT JUMPDEST DUP3 DUP1 REVERT JUMPDEST POP POP CALLVALUE PUSH2 0x17E JUMPI PUSH1 0x20 CALLDATASIZE PUSH1 0x3 NOT ADD SLT PUSH2 0x17E JUMPI PUSH1 0x60 SWAP1 PUSH2 0x232 PUSH2 0x22D PUSH2 0xEB7 JUMP JUMPDEST PUSH2 0x1361 JUMP JUMPDEST SWAP2 SWAP3 SWAP1 DUP2 MLOAD SWAP4 ISZERO ISZERO DUP5 MSTORE PUSH1 0x20 DUP5 ADD MSTORE DUP3 ADD MSTORE RETURN JUMPDEST POP POP CALLVALUE PUSH2 0x17E JUMPI PUSH1 0x20 CALLDATASIZE PUSH1 0x3 NOT ADD SLT PUSH2 0x17E JUMPI PUSH1 0x20 SWAP2 DUP2 SWAP1 PUSH1 0x1 PUSH1 0x1 PUSH1 0xA0 SHL SUB PUSH2 0x26E PUSH2 0xEB7 JUMP JUMPDEST AND DUP2 MSTORE PUSH1 0x2 DUP5 MSTORE KECCAK256 SLOAD SWAP1 MLOAD SWAP1 DUP2 MSTORE RETURN JUMPDEST SWAP2 SWAP1 POP CALLVALUE PUSH2 0x208 JUMPI DUP1 PUSH1 0x3 NOT CALLDATASIZE ADD SLT PUSH2 0x208 JUMPI PUSH8 0xFFFFFFFFFFFFFFFF SWAP2 DUP1 CALLDATALOAD DUP4 DUP2 GT PUSH2 0x3DC JUMPI PUSH2 0x2B1 SWAP1 CALLDATASIZE SWAP1 DUP4 ADD PUSH2 0xED2 JUMP JUMPDEST SWAP1 SWAP4 PUSH1 0x24 CALLDATALOAD SWAP1 DUP2 GT PUSH2 0x3D8 JUMPI PUSH2 0x2CA SWAP1 CALLDATASIZE SWAP1 DUP5 ADD PUSH2 0xED2 JUMP JUMPDEST SWAP1 SWAP2 PUSH1 0x1 DUP1 PUSH1 0xA0 SHL SUB SWAP4 PUSH2 0x2E2 DUP6 DUP10 SLOAD AND CALLER EQ PUSH2 0x1413 JUMP JUMPDEST DUP3 DUP3 SUB PUSH2 0x39D JUMPI POP DUP7 JUMPDEST DUP2 DUP2 LT PUSH2 0x2F7 JUMPI DUP8 DUP1 RETURN JUMPDEST DUP1 PUSH2 0x306 PUSH2 0x398 SWAP3 DUP6 DUP8 PUSH2 0x144B JUMP JUMPDEST CALLDATALOAD DUP7 PUSH2 0x31B PUSH2 0x316 DUP5 DUP8 DUP14 PUSH2 0x144B JUMP JUMPDEST PUSH2 0x1471 JUMP JUMPDEST AND DUP11 MSTORE PUSH1 0x20 SWAP1 PUSH1 0x2 DUP3 MSTORE DUP9 DUP12 KECCAK256 SSTORE DUP7 PUSH2 0x338 PUSH2 0x316 DUP5 DUP8 DUP14 PUSH2 0x144B JUMP JUMPDEST AND DUP11 MSTORE PUSH1 0x3 DUP2 MSTORE DUP8 DUP11 KECCAK256 DUP1 SLOAD PUSH1 0xFF NOT AND PUSH1 0x1 OR SWAP1 SSTORE PUSH32 0x77C54F69FC22D36A1DC5DD803181A79ACC4780D8BF3F348E258F3E5FEBDFFF2A PUSH2 0x37C PUSH2 0x316 DUP5 DUP8 DUP14 PUSH2 0x144B JUMP JUMPDEST SWAP2 DUP9 PUSH2 0x389 DUP6 DUP10 DUP12 PUSH2 0x144B JUMP JUMPDEST CALLDATALOAD SWAP4 DUP12 MLOAD SWAP5 DUP6 MSTORE AND SWAP3 LOG2 PUSH2 0xF57 JUMP JUMPDEST PUSH2 0x2EC JUMP JUMPDEST PUSH1 0x64 SWAP1 PUSH1 0x20 DUP8 MLOAD SWAP2 PUSH3 0x461BCD PUSH1 0xE5 SHL DUP4 MSTORE DUP3 ADD MSTORE PUSH1 0x15 PUSH1 0x24 DUP3 ADD MSTORE PUSH21 0x82E4E4C2F240D8CADCCEE8D040DAD2E6DAC2E8C6D PUSH1 0x5B SHL PUSH1 0x44 DUP3 ADD MSTORE REVERT JUMPDEST DUP6 DUP1 REVERT JUMPDEST DUP5 DUP1 REVERT JUMPDEST POP POP CALLVALUE PUSH2 0x17E JUMPI DUP2 PUSH1 0x3 NOT CALLDATASIZE ADD SLT PUSH2 0x17E JUMPI PUSH1 0x20 SWAP1 MLOAD PUSH11 0x84595161401484A000000 DUP2 MSTORE RETURN JUMPDEST POP POP CALLVALUE PUSH2 0x17E JUMPI DUP1 PUSH1 0x3 NOT CALLDATASIZE ADD SLT PUSH2 0x17E JUMPI PUSH32 0x77C54F69FC22D36A1DC5DD803181A79ACC4780D8BF3F348E258F3E5FEBDFFF2A PUSH1 0x20 PUSH2 0x443 PUSH2 0xEB7 JUMP JUMPDEST DUP5 SLOAD PUSH1 0x24 CALLDATALOAD SWAP2 PUSH1 0x1 PUSH1 0x1 PUSH1 0xA0 SHL SUB SWAP2 PUSH2 0x45F SWAP1 DUP4 AND CALLER EQ PUSH2 0x1413 JUMP JUMPDEST AND SWAP4 DUP5 DUP7 MSTORE PUSH1 0x2 DUP4 MSTORE DUP2 DUP2 DUP8 KECCAK256 SSTORE PUSH1 0x3 DUP4 MSTORE DUP1 DUP7 KECCAK256 PUSH1 0x1 PUSH1 0xFF NOT DUP3 SLOAD AND OR SWAP1 SSTORE MLOAD SWAP1 DUP2 MSTORE LOG2 DUP1 RETURN JUMPDEST DUP3 DUP5 CALLVALUE PUSH2 0x4AE JUMPI PUSH1 0x20 CALLDATASIZE PUSH1 0x3 NOT ADD SLT PUSH2 0x4AE JUMPI POP PUSH2 0x4A7 PUSH1 0x20 SWAP3 CALLDATALOAD PUSH2 0x11F1 JUMP JUMPDEST SWAP1 MLOAD SWAP1 DUP2 MSTORE RETURN JUMPDEST DUP1 REVERT JUMPDEST SWAP2 SWAP1 POP CALLVALUE PUSH2 0x208 JUMPI PUSH1 0x20 SWAP2 DUP3 PUSH1 0x3 NOT CALLDATASIZE ADD SLT PUSH2 0x528 JUMPI SWAP2 PUSH2 0x4D3 DUP5 SWAP4 CALLDATALOAD PUSH2 0x1254 JUMP JUMPDEST SWAP1 SWAP5 SWAP2 SWAP4 DUP1 MLOAD SWAP6 DUP7 SWAP5 PUSH1 0x60 DUP7 MSTORE DUP7 MLOAD SWAP5 DUP6 PUSH1 0x60 DUP9 ADD MSTORE DUP1 JUMPDEST DUP7 DUP2 LT PUSH2 0x511 JUMPI POP PUSH1 0x80 DUP1 SWAP9 POP DUP7 DUP9 ADD ADD MSTORE DUP6 ADD MSTORE DUP4 ADD MSTORE PUSH1 0x1F DUP1 NOT SWAP2 ADD AND DUP2 ADD SUB ADD SWAP1 RETURN JUMPDEST DUP1 DUP10 ADD DUP4 ADD MLOAD DUP11 DUP3 ADD PUSH1 0x80 ADD MSTORE DUP10 SWAP8 POP DUP3 ADD PUSH2 0x4EB JUMP JUMPDEST DUP4 DUP1 REVERT JUMPDEST POP POP CALLVALUE PUSH2 0x17E JUMPI DUP2 PUSH1 0x3 NOT CALLDATASIZE ADD SLT PUSH2 0x17E JUMPI PUSH1 0x20 SWAP1 MLOAD PUSH11 0x14ADF4B7320334B9000000 DUP2 MSTORE RETURN JUMPDEST POP POP CALLVALUE PUSH2 0x17E JUMPI DUP2 PUSH1 0x3 NOT CALLDATASIZE ADD SLT PUSH2 0x17E JUMPI PUSH1 0x20 SWAP1 MLOAD PUSH10 0xD3C21BCECCEDA1000000 DUP2 MSTORE RETURN JUMPDEST POP POP CALLVALUE PUSH2 0x17E JUMPI DUP2 PUSH1 0x3 NOT CALLDATASIZE ADD SLT PUSH2 0x17E JUMPI PUSH1 0x20 SWAP1 MLOAD PUSH1 0x64 DUP2 MSTORE RETURN JUMPDEST SWAP1 POP CALLVALUE PUSH2 0x208 JUMPI PUSH1 0x20 CALLDATASIZE PUSH1 0x3 NOT ADD SLT PUSH2 0x208 JUMPI CALLDATALOAD SWAP1 DUP2 ISZERO ISZERO DUP1 SWAP3 SUB PUSH2 0x208 JUMPI PUSH32 0x5357603B66CE52AD2BDE073BF1BAAE8A126A96AE712F396257FA4B57169C36AB SWAP2 PUSH1 0x20 SWAP2 PUSH2 0x5EB PUSH1 0x1 DUP1 PUSH1 0xA0 SHL SUB DUP7 SLOAD AND CALLER EQ PUSH2 0x1413 JUMP JUMPDEST PUSH1 0xFF NOT PUSH1 0x5 SLOAD AND PUSH1 0xFF DUP4 AND OR PUSH1 0x5 SSTORE MLOAD SWAP1 DUP2 MSTORE LOG1 DUP1 RETURN JUMPDEST SWAP2 SWAP1 POP CALLVALUE PUSH2 0x208 JUMPI PUSH1 0x20 SWAP1 DUP2 PUSH1 0x3 NOT CALLDATASIZE ADD SLT PUSH2 0x528 JUMPI DUP1 MLOAD PUSH4 0x23B872DD PUSH1 0xE0 SHL DUP2 MSTORE CALLER DUP2 DUP6 ADD MSTORE ADDRESS PUSH1 0x24 DUP3 ADD MSTORE SWAP3 CALLDATALOAD PUSH1 0x44 DUP5 ADD DUP2 SWAP1 MSTORE SWAP1 DUP3 DUP5 PUSH1 0x64 DUP2 DUP9 PUSH32 0x0 PUSH1 0x1 PUSH1 0x1 PUSH1 0xA0 SHL SUB AND GAS CALL SWAP4 DUP5 ISZERO PUSH2 0x706 JUMPI DUP6 SWAP5 PUSH2 0x6AC JUMPI JUMPDEST POP PUSH2 0x6A4 PUSH32 0x679798103964707163397293A03409F0890F9ED183D148944C0A9A2D4604A6CD SWAP5 PUSH2 0x13CF JUMP JUMPDEST MLOAD SWAP1 DUP2 MSTORE LOG1 DUP1 RETURN JUMPDEST SWAP4 POP DUP3 DUP5 DUP2 RETURNDATASIZE DUP4 GT PUSH2 0x6FF JUMPI JUMPDEST PUSH2 0x6C3 DUP2 DUP4 PUSH2 0xF35 JUMP JUMPDEST DUP2 ADD SUB SLT PUSH2 0x3DC JUMPI PUSH2 0x6A4 PUSH2 0x6F8 PUSH32 0x679798103964707163397293A03409F0890F9ED183D148944C0A9A2D4604A6CD SWAP6 PUSH2 0xF7C JUMP JUMPDEST SWAP5 POP PUSH2 0x679 JUMP JUMPDEST POP RETURNDATASIZE PUSH2 0x6B9 JUMP JUMPDEST DUP2 MLOAD RETURNDATASIZE DUP8 DUP3 RETURNDATACOPY RETURNDATASIZE SWAP1 REVERT JUMPDEST DUP4 DUP4 CALLVALUE PUSH2 0x17E JUMPI DUP2 PUSH1 0x3 NOT CALLDATASIZE ADD SLT PUSH2 0x17E JUMPI DUP2 SLOAD PUSH1 0x1 PUSH1 0x1 PUSH1 0xA0 SHL SUB SWAP1 DUP2 AND SWAP4 SWAP1 PUSH2 0x73C CALLER DUP7 EQ PUSH2 0x1413 JUMP JUMPDEST PUSH32 0x0 AND DUP3 MLOAD SWAP5 PUSH4 0x70A08231 PUSH1 0xE0 SHL DUP7 MSTORE ADDRESS DUP4 DUP8 ADD MSTORE PUSH1 0x20 SWAP3 DUP4 DUP8 PUSH1 0x24 DUP2 DUP7 GAS STATICCALL SWAP7 DUP8 ISZERO PUSH2 0x88D JUMPI DUP7 SWAP8 PUSH2 0x85E JUMPI JUMPDEST POP DUP7 ISZERO PUSH2 0x824 JUMPI DUP5 MLOAD PUSH4 0xA9059CBB PUSH1 0xE0 SHL DUP2 MSTORE PUSH1 0x1 PUSH1 0x1 PUSH1 0xA0 SHL SUB SWAP1 SWAP3 AND SWAP1 DUP3 ADD SWAP1 DUP2 MSTORE PUSH1 0x20 DUP2 ADD SWAP7 SWAP1 SWAP7 MSTORE SWAP4 SWAP5 DUP3 SWAP2 DUP6 SWAP2 DUP3 SWAP1 DUP9 SWAP1 DUP3 SWAP1 PUSH1 0x40 ADD SUB SWAP3 GAS CALL SWAP2 DUP3 ISZERO PUSH2 0x81B JUMPI POP DUP4 SWAP2 PUSH2 0x7E4 JUMPI JUMPDEST DUP4 PUSH2 0x7E1 DUP4 PUSH2 0x13CF JUMP JUMPDEST DUP1 RETURN JUMPDEST SWAP1 POP DUP2 DUP2 RETURNDATASIZE DUP4 GT PUSH2 0x814 JUMPI JUMPDEST PUSH2 0x7FA DUP2 DUP4 PUSH2 0xF35 JUMP JUMPDEST DUP2 ADD SUB SLT PUSH2 0x17E JUMPI PUSH2 0x80E PUSH2 0x7E1 SWAP2 PUSH2 0xF7C JUMP JUMPDEST DUP4 PUSH2 0x7D7 JUMP JUMPDEST POP RETURNDATASIZE PUSH2 0x7F0 JUMP JUMPDEST MLOAD RETURNDATASIZE DUP6 DUP3 RETURNDATACOPY RETURNDATASIZE SWAP1 REVERT JUMPDEST DUP5 MLOAD PUSH3 0x461BCD PUSH1 0xE5 SHL DUP2 MSTORE SWAP1 DUP2 ADD DUP5 SWAP1 MSTORE PUSH1 0x14 PUSH1 0x24 DUP3 ADD MSTORE PUSH20 0x4E6F20535749504520746F207769746864726177 PUSH1 0x60 SHL PUSH1 0x44 DUP3 ADD MSTORE PUSH1 0x64 SWAP1 REVERT JUMPDEST SWAP1 SWAP7 POP DUP4 DUP2 DUP2 RETURNDATASIZE DUP4 GT PUSH2 0x886 JUMPI JUMPDEST PUSH2 0x876 DUP2 DUP4 PUSH2 0xF35 JUMP JUMPDEST DUP2 ADD SUB SLT PUSH2 0x3D8 JUMPI MLOAD SWAP6 DUP8 PUSH2 0x789 JUMP JUMPDEST POP RETURNDATASIZE PUSH2 0x86C JUMP JUMPDEST DUP6 MLOAD RETURNDATASIZE DUP9 DUP3 RETURNDATACOPY RETURNDATASIZE SWAP1 REVERT JUMPDEST SWAP2 SWAP1 POP CALLVALUE PUSH2 0x208 JUMPI PUSH1 0x20 CALLDATASIZE PUSH1 0x3 NOT ADD SLT PUSH2 0x208 JUMPI DUP2 CALLDATALOAD SWAP2 PUSH2 0x8C2 PUSH1 0x1 DUP1 PUSH1 0xA0 SHL SUB DUP6 SLOAD AND CALLER EQ PUSH2 0x1413 JUMP JUMPDEST DUP3 ISZERO PUSH2 0x8F8 JUMPI SWAP2 PUSH1 0x20 SWAP2 DUP2 PUSH32 0x449E8415715393D8B77540C364080D2A49E56667C39D8FD07090036DE5F52246 SWAP5 SSTORE MLOAD SWAP1 DUP2 MSTORE LOG1 DUP1 RETURN JUMPDEST PUSH1 0x20 PUSH1 0x64 SWAP3 MLOAD SWAP2 PUSH3 0x461BCD PUSH1 0xE5 SHL DUP4 MSTORE DUP3 ADD MSTORE PUSH1 0xE PUSH1 0x24 DUP3 ADD MSTORE PUSH14 0x125B9D985B1A59081B585E081251 PUSH1 0x92 SHL PUSH1 0x44 DUP3 ADD MSTORE REVERT JUMPDEST POP POP CALLVALUE PUSH2 0x17E JUMPI DUP2 PUSH1 0x3 NOT CALLDATASIZE ADD SLT PUSH2 0x17E JUMPI SWAP1 SLOAD SWAP1 MLOAD PUSH1 0x1 PUSH1 0x1 PUSH1 0xA0 SHL SUB SWAP1 SWAP2 AND DUP2 MSTORE PUSH1 0x20 SWAP1 RETURN JUMPDEST POP POP CALLVALUE PUSH2 0x17E JUMPI PUSH1 0x20 CALLDATASIZE PUSH1 0x3 NOT ADD SLT PUSH2 0x17E JUMPI PUSH1 0x20 SWAP2 PUSH1 0xFF SWAP1 DUP3 SWAP1 PUSH1 0x1 PUSH1 0x1 PUSH1 0xA0 SHL SUB PUSH2 0x97E PUSH2 0xEB7 JUMP JUMPDEST AND DUP2 MSTORE PUSH1 0x3 DUP6 MSTORE KECCAK256 SLOAD AND SWAP1 MLOAD SWAP1 ISZERO ISZERO DUP2 MSTORE RETURN JUMPDEST POP POP CALLVALUE PUSH2 0x17E JUMPI DUP2 PUSH1 0x3 NOT CALLDATASIZE ADD SLT PUSH2 0x17E JUMPI MLOAD PUSH32 0x0 PUSH1 0x1 PUSH1 0x1 PUSH1 0xA0 SHL SUB AND DUP2 MSTORE PUSH1 0x20 SWAP1 RETURN JUMPDEST SWAP1 POP CALLVALUE PUSH2 0x208 JUMPI DUP3 PUSH1 0x3 NOT CALLDATASIZE ADD SLT PUSH2 0x208 JUMPI PUSH1 0x20 SWAP3 POP SLOAD SWAP1 MLOAD SWAP1 DUP2 MSTORE RETURN JUMPDEST POP POP CALLVALUE PUSH2 0x17E JUMPI PUSH1 0x20 CALLDATASIZE PUSH1 0x3 NOT ADD SLT PUSH2 0x17E JUMPI PUSH1 0x20 SWAP2 PUSH1 0xFF SWAP1 DUP3 SWAP1 PUSH1 0x1 PUSH1 0x1 PUSH1 0xA0 SHL SUB PUSH2 0xA1E PUSH2 0xEB7 JUMP JUMPDEST AND DUP2 MSTORE PUSH1 0x1 DUP6 MSTORE KECCAK256 SLOAD AND SWAP1 MLOAD SWAP1 ISZERO ISZERO DUP2 MSTORE RETURN JUMPDEST DUP4 DUP4 CALLVALUE PUSH2 0x17E JUMPI DUP2 PUSH1 0x3 NOT CALLDATASIZE ADD SLT PUSH2 0x17E JUMPI PUSH1 0xFF PUSH1 0x5 SLOAD AND ISZERO PUSH2 0xCE6 JUMPI CALLER DUP3 MSTORE PUSH1 0x20 SWAP1 PUSH1 0x1 DUP3 MSTORE PUSH1 0xFF DUP2 DUP5 KECCAK256 SLOAD AND PUSH2 0xCB3 JUMPI CALLER DUP4 MSTORE PUSH1 0x3 DUP3 MSTORE DUP1 DUP4 KECCAK256 SLOAD PUSH1 0xFF AND ISZERO PUSH2 0xCA4 JUMPI CALLER DUP4 MSTORE PUSH1 0x2 DUP3 MSTORE DUP1 DUP4 KECCAK256 SLOAD SWAP2 JUMPDEST PUSH2 0xA8C DUP4 PUSH2 0x11F1 JUMP JUMPDEST SWAP1 DUP2 ISZERO PUSH2 0xC62 JUMPI DUP3 MLOAD PUSH4 0x70A08231 PUSH1 0xE0 SHL DUP2 MSTORE ADDRESS DUP2 DUP9 ADD MSTORE PUSH32 0x0 PUSH1 0x1 PUSH1 0x1 PUSH1 0xA0 SHL SUB AND SWAP7 SWAP1 DUP3 DUP2 PUSH1 0x24 DUP2 DUP12 GAS STATICCALL SWAP1 DUP2 ISZERO PUSH2 0xC58 JUMPI SWAP1 DUP5 SWAP2 DUP9 SWAP2 PUSH2 0xC23 JUMPI JUMPDEST POP LT PUSH2 0xBE2 JUMPI CALLER DUP1 DUP8 MSTORE PUSH1 0x1 DUP1 DUP5 MSTORE DUP6 DUP9 KECCAK256 DUP1 SLOAD PUSH1 0xFF NOT AND SWAP1 SWAP2 OR SWAP1 SSTORE DUP5 MLOAD PUSH4 0xA9059CBB PUSH1 0xE0 SHL DUP2 MSTORE SWAP2 DUP3 ADD SWAP1 DUP2 MSTORE PUSH1 0x20 DUP2 ADD DUP5 SWAP1 MSTORE SWAP6 SWAP7 SWAP5 SWAP6 SWAP1 SWAP5 DUP3 SWAP2 DUP7 SWAP2 SWAP1 DUP3 SWAP1 DUP11 SWAP1 DUP3 SWAP1 PUSH1 0x40 ADD SUB SWAP3 GAS CALL SWAP4 DUP5 ISZERO PUSH2 0xBD8 JUMPI DUP7 SWAP5 PUSH2 0xB7E JUMPI JUMPDEST POP PUSH2 0xB70 PUSH32 0xEDEB8CCA9F41E2C8C3FA8D7392DECD330DAF8BC795A516B1A6AB420B889BC52C SWAP5 PUSH2 0x13CF JUMP JUMPDEST DUP3 MLOAD SWAP5 DUP6 MSTORE DUP5 ADD MSTORE CALLER SWAP3 LOG2 DUP1 RETURN JUMPDEST SWAP4 POP DUP1 DUP5 DUP2 RETURNDATASIZE DUP4 GT PUSH2 0xBD1 JUMPI JUMPDEST PUSH2 0xB95 DUP2 DUP4 PUSH2 0xF35 JUMP JUMPDEST DUP2 ADD SUB SLT PUSH2 0x3D8 JUMPI PUSH2 0xB70 PUSH2 0xBCA PUSH32 0xEDEB8CCA9F41E2C8C3FA8D7392DECD330DAF8BC795A516B1A6AB420B889BC52C SWAP6 PUSH2 0xF7C JUMP JUMPDEST SWAP5 POP PUSH2 0xB45 JUMP JUMPDEST POP RETURNDATASIZE PUSH2 0xB8B JUMP JUMPDEST DUP4 MLOAD RETURNDATASIZE DUP9 DUP3 RETURNDATACOPY RETURNDATASIZE SWAP1 REVERT JUMPDEST PUSH1 0x64 SWAP2 DUP5 MLOAD SWAP2 PUSH3 0x461BCD PUSH1 0xE5 SHL DUP4 MSTORE DUP3 ADD MSTORE PUSH1 0x1A PUSH1 0x24 DUP3 ADD MSTORE PUSH32 0x496E73756666696369656E742053574950452062616C616E6365000000000000 PUSH1 0x44 DUP3 ADD MSTORE REVERT JUMPDEST DUP1 SWAP3 POP DUP5 DUP1 SWAP3 POP RETURNDATASIZE DUP4 GT PUSH2 0xC51 JUMPI JUMPDEST PUSH2 0xC3C DUP2 DUP4 PUSH2 0xF35 JUMP JUMPDEST DUP2 ADD SUB SLT PUSH2 0xC4D JUMPI DUP4 SWAP1 MLOAD DUP10 PUSH2 0xAE9 JUMP JUMPDEST DUP7 DUP1 REVERT JUMPDEST POP RETURNDATASIZE PUSH2 0xC32 JUMP JUMPDEST DUP6 MLOAD RETURNDATASIZE DUP10 DUP3 RETURNDATACOPY RETURNDATASIZE SWAP1 REVERT JUMPDEST DUP6 PUSH1 0x64 SWAP2 DUP5 MLOAD SWAP2 PUSH3 0x461BCD PUSH1 0xE5 SHL DUP4 MSTORE DUP3 ADD MSTORE PUSH1 0x18 PUSH1 0x24 DUP3 ADD MSTORE PUSH32 0x4E6F7420656C696769626C6520666F7220726577617264730000000000000000 PUSH1 0x44 DUP3 ADD MSTORE REVERT JUMPDEST PUSH2 0xCAD CALLER PUSH2 0xFAB JUMP JUMPDEST SWAP2 PUSH2 0xA83 JUMP JUMPDEST MLOAD PUSH3 0x461BCD PUSH1 0xE5 SHL DUP2 MSTORE SWAP3 DUP4 ADD MSTORE POP PUSH1 0xF PUSH1 0x24 DUP3 ADD MSTORE PUSH15 0x105B1C9958591E4818DB185A5B5959 PUSH1 0x8A SHL PUSH1 0x44 DUP3 ADD MSTORE PUSH1 0x64 SWAP1 REVERT JUMPDEST MLOAD PUSH3 0x461BCD PUSH1 0xE5 SHL DUP2 MSTORE PUSH1 0x20 DUP2 DUP5 ADD MSTORE PUSH1 0x11 PUSH1 0x24 DUP3 ADD MSTORE PUSH17 0x10DB185A5B5A5B99C8191A5CD8589B1959 PUSH1 0x7A SHL PUSH1 0x44 DUP3 ADD MSTORE PUSH1 0x64 SWAP1 REVERT JUMPDEST POP POP CALLVALUE PUSH2 0x17E JUMPI PUSH1 0x20 CALLDATASIZE PUSH1 0x3 NOT ADD SLT PUSH2 0x17E JUMPI PUSH1 0x20 SWAP1 PUSH2 0x4A7 PUSH2 0xD3D PUSH2 0xEB7 JUMP JUMPDEST PUSH2 0xFAB JUMP JUMPDEST POP POP CALLVALUE PUSH2 0x17E JUMPI DUP2 PUSH1 0x3 NOT CALLDATASIZE ADD SLT PUSH2 0x17E JUMPI MLOAD PUSH32 0x0 PUSH1 0x1 PUSH1 0x1 PUSH1 0xA0 SHL SUB AND DUP2 MSTORE PUSH1 0x20 SWAP1 RETURN JUMPDEST SWAP2 SWAP1 POP CALLVALUE PUSH2 0x208 JUMPI DUP3 PUSH1 0x3 NOT CALLDATASIZE ADD SLT PUSH2 0x208 JUMPI DUP1 MLOAD PUSH4 0x70A08231 PUSH1 0xE0 SHL DUP2 MSTORE ADDRESS SWAP3 DUP2 ADD SWAP3 SWAP1 SWAP3 MSTORE PUSH1 0x20 DUP3 PUSH1 0x24 DUP2 PUSH32 0x0 PUSH1 0x1 PUSH1 0x1 PUSH1 0xA0 SHL SUB AND GAS STATICCALL SWAP2 DUP3 ISZERO PUSH2 0xE2E JUMPI DUP4 SWAP3 PUSH2 0xDF7 JUMPI JUMPDEST PUSH1 0x20 DUP4 DUP4 MLOAD SWAP1 DUP2 MSTORE RETURN JUMPDEST SWAP1 SWAP2 POP PUSH1 0x20 DUP2 RETURNDATASIZE DUP3 GT PUSH2 0xE26 JUMPI JUMPDEST DUP2 PUSH2 0xE12 PUSH1 0x20 SWAP4 DUP4 PUSH2 0xF35 JUMP JUMPDEST DUP2 ADD SUB SLT PUSH2 0x208 JUMPI PUSH1 0x20 SWAP3 POP MLOAD SWAP1 CODESIZE PUSH2 0xDED JUMP JUMPDEST RETURNDATASIZE SWAP2 POP PUSH2 0xE05 JUMP JUMPDEST DUP2 MLOAD RETURNDATASIZE DUP6 DUP3 RETURNDATACOPY RETURNDATASIZE SWAP1 REVERT JUMPDEST POP POP CALLVALUE PUSH2 0x17E JUMPI DUP2 PUSH1 0x3 NOT CALLDATASIZE ADD SLT PUSH2 0x17E JUMPI PUSH1 0x20 SWAP1 MLOAD PUSH1 0x32 DUP2 MSTORE RETURN JUMPDEST POP POP CALLVALUE PUSH2 0x17E JUMPI DUP2 PUSH1 0x3 NOT CALLDATASIZE ADD SLT PUSH2 0x17E JUMPI PUSH1 0x20 SWAP1 MLOAD PUSH11 0xC685FA11E01EC6F000000 DUP2 MSTORE RETURN JUMPDEST POP POP CALLVALUE PUSH2 0x17E JUMPI DUP2 PUSH1 0x3 NOT CALLDATASIZE ADD SLT PUSH2 0x17E JUMPI PUSH1 0x20 SWAP1 MLOAD PUSH1 0xA DUP2 MSTORE RETURN JUMPDEST DUP5 SWAP1 CALLVALUE PUSH2 0x17E JUMPI DUP2 PUSH1 0x3 NOT CALLDATASIZE ADD SLT PUSH2 0x17E JUMPI PUSH1 0x20 SWAP1 PUSH1 0xFF PUSH1 0x5 SLOAD AND ISZERO ISZERO DUP2 MSTORE RETURN JUMPDEST PUSH1 0x4 CALLDATALOAD SWAP1 PUSH1 0x1 PUSH1 0x1 PUSH1 0xA0 SHL SUB DUP3 AND DUP3 SUB PUSH2 0xECD JUMPI JUMP JUMPDEST PUSH1 0x0 DUP1 REVERT JUMPDEST SWAP2 DUP2 PUSH1 0x1F DUP5 ADD SLT ISZERO PUSH2 0xECD JUMPI DUP3 CALLDATALOAD SWAP2 PUSH8 0xFFFFFFFFFFFFFFFF DUP4 GT PUSH2 0xECD JUMPI PUSH1 0x20 DUP1 DUP6 ADD SWAP5 DUP5 PUSH1 0x5 SHL ADD ADD GT PUSH2 0xECD JUMPI JUMP JUMPDEST PUSH1 0x40 DUP2 ADD SWAP1 DUP2 LT PUSH8 0xFFFFFFFFFFFFFFFF DUP3 GT OR PUSH2 0xF1F JUMPI PUSH1 0x40 MSTORE JUMP JUMPDEST PUSH4 0x4E487B71 PUSH1 0xE0 SHL PUSH1 0x0 MSTORE PUSH1 0x41 PUSH1 0x4 MSTORE PUSH1 0x24 PUSH1 0x0 REVERT JUMPDEST SWAP1 PUSH1 0x1F DUP1 NOT SWAP2 ADD AND DUP2 ADD SWAP1 DUP2 LT PUSH8 0xFFFFFFFFFFFFFFFF DUP3 GT OR PUSH2 0xF1F JUMPI PUSH1 0x40 MSTORE JUMP JUMPDEST PUSH1 0x0 NOT DUP2 EQ PUSH2 0xF66 JUMPI PUSH1 0x1 ADD SWAP1 JUMP JUMPDEST PUSH4 0x4E487B71 PUSH1 0xE0 SHL PUSH1 0x0 MSTORE PUSH1 0x11 PUSH1 0x4 MSTORE PUSH1 0x24 PUSH1 0x0 REVERT JUMPDEST MLOAD SWAP1 DUP2 ISZERO ISZERO DUP3 SUB PUSH2 0xECD JUMPI JUMP JUMPDEST SWAP1 DUP2 PUSH1 0x60 SWAP2 SUB SLT PUSH2 0xECD JUMPI DUP1 MLOAD SWAP2 PUSH2 0xFA8 PUSH1 0x40 PUSH1 0x20 DUP5 ADD MLOAD SWAP4 ADD PUSH2 0xF7C JUMP JUMPDEST SWAP1 JUMP JUMPDEST PUSH1 0x40 DUP1 MLOAD PUSH4 0x6C6C9497 PUSH1 0xE1 SHL DUP2 MSTORE PUSH32 0x0 PUSH1 0x1 PUSH1 0x1 PUSH1 0xA0 SHL SUB AND SWAP3 SWAP1 PUSH1 0x4 SWAP1 PUSH1 0x20 DUP2 DUP4 DUP2 DUP9 GAS STATICCALL SWAP1 DUP2 ISZERO PUSH2 0x11E6 JUMPI PUSH1 0x0 SWAP2 PUSH2 0x11B5 JUMPI JUMPDEST POP PUSH1 0x0 DUP2 ISZERO PUSH2 0x11AE JUMPI POP PUSH1 0x0 NOT DUP2 ADD SWAP1 DUP2 GT PUSH2 0x1199 JUMPI JUMPDEST DUP2 SLOAD DUP1 DUP3 LT ISZERO PUSH2 0x1191 JUMPI POP SWAP2 JUMPDEST PUSH1 0x0 SWAP5 PUSH1 0x1 JUMPDEST DUP5 DUP2 GT ISZERO PUSH2 0x103A JUMPI POP POP POP POP POP POP SWAP1 JUMP JUMPDEST DUP6 MLOAD PUSH4 0x3A264149 PUSH1 0xE2 SHL DUP2 MSTORE DUP5 DUP2 ADD DUP3 DUP2 MSTORE PUSH1 0x1 PUSH1 0x1 PUSH1 0xA0 SHL SUB DUP6 AND PUSH1 0x20 DUP3 ADD MSTORE PUSH1 0x60 SWAP1 DUP2 SWAP1 DUP4 SWAP1 DUP2 SWAP1 PUSH1 0x40 ADD SUB DUP2 DUP8 GAS STATICCALL SWAP2 DUP3 ISZERO PUSH2 0x1186 JUMPI PUSH1 0x0 SWAP1 DUP2 SWAP4 PUSH2 0x1163 JUMPI JUMPDEST POP ISZERO SWAP2 DUP3 ISZERO SWAP3 PUSH2 0x1159 JUMPI JUMPDEST POP DUP8 MLOAD PUSH4 0x1380A723 PUSH1 0xE2 SHL DUP2 MSTORE DUP7 DUP2 ADD DUP5 DUP2 MSTORE PUSH1 0x1 PUSH1 0x1 PUSH1 0xA0 SHL SUB DUP8 AND PUSH1 0x20 DUP3 ADD MSTORE SWAP1 SWAP2 SWAP1 DUP2 SWAP1 DUP4 SWAP1 DUP2 SWAP1 PUSH1 0x40 ADD SUB DUP2 DUP9 GAS STATICCALL SWAP2 DUP3 ISZERO PUSH2 0x114E JUMPI PUSH1 0x0 SWAP2 DUP3 SWAP4 PUSH2 0x111B JUMPI JUMPDEST POP POP ISZERO SWAP1 DUP2 ISZERO SWAP2 PUSH2 0x1111 JUMPI JUMPDEST POP DUP2 ISZERO PUSH2 0x1109 JUMPI JUMPDEST POP PUSH2 0x10F4 JUMPI JUMPDEST PUSH2 0x10EF SWAP1 PUSH2 0xF57 JUMP JUMPDEST PUSH2 0x1029 JUMP JUMPDEST SWAP6 PUSH2 0x1101 PUSH2 0x10EF SWAP2 PUSH2 0xF57 JUMP JUMPDEST SWAP7 SWAP1 POP PUSH2 0x10E6 JUMP JUMPDEST SWAP1 POP CODESIZE PUSH2 0x10E0 JUMP JUMPDEST SWAP1 POP ISZERO ISZERO CODESIZE PUSH2 0x10D8 JUMP JUMPDEST PUSH2 0x113E SWAP4 POP DUP1 SWAP2 SWAP3 POP SWAP1 RETURNDATASIZE LT PUSH2 0x1147 JUMPI JUMPDEST PUSH2 0x1136 DUP2 DUP4 PUSH2 0xF35 JUMP JUMPDEST DUP2 ADD SWAP1 PUSH2 0xF89 JUMP JUMPDEST POP SWAP1 CODESIZE DUP1 PUSH2 0x10CC JUMP JUMPDEST POP RETURNDATASIZE PUSH2 0x112C JUMP JUMPDEST DUP10 MLOAD RETURNDATASIZE PUSH1 0x0 DUP3 RETURNDATACOPY RETURNDATASIZE SWAP1 REVERT JUMPDEST ISZERO ISZERO SWAP2 POP CODESIZE PUSH2 0x1088 JUMP JUMPDEST SWAP1 POP DUP2 PUSH2 0x117D SWAP3 SWAP4 POP RETURNDATASIZE DUP5 GT PUSH2 0x1147 JUMPI PUSH2 0x1136 DUP2 DUP4 PUSH2 0xF35 JUMP JUMPDEST POP SWAP2 SWAP1 CODESIZE PUSH2 0x107D JUMP JUMPDEST DUP9 MLOAD RETURNDATASIZE PUSH1 0x0 DUP3 RETURNDATACOPY RETURNDATASIZE SWAP1 REVERT JUMPDEST SWAP1 POP SWAP2 PUSH2 0x1023 JUMP JUMPDEST PUSH1 0x11 DUP3 PUSH4 0x4E487B71 PUSH1 0xE0 SHL PUSH1 0x0 MSTORE MSTORE PUSH1 0x24 PUSH1 0x0 REVERT JUMPDEST SWAP1 POP PUSH2 0x1016 JUMP JUMPDEST SWAP1 PUSH1 0x20 DUP3 RETURNDATASIZE DUP3 GT PUSH2 0x11DE JUMPI JUMPDEST DUP2 PUSH2 0x11CE PUSH1 0x20 SWAP4 DUP4 PUSH2 0xF35 JUMP JUMPDEST DUP2 ADD SUB SLT PUSH2 0x4AE JUMPI POP MLOAD CODESIZE PUSH2 0xFFF JUMP JUMPDEST RETURNDATASIZE SWAP2 POP PUSH2 0x11C1 JUMP JUMPDEST DUP5 MLOAD RETURNDATASIZE PUSH1 0x0 DUP3 RETURNDATACOPY RETURNDATASIZE SWAP1 REVERT JUMPDEST PUSH1 0x64 DUP2 LT PUSH2 0x1209 JUMPI POP PUSH11 0x14ADF4B7320334B9000000 SWAP1 JUMP JUMPDEST PUSH1 0x32 DUP2 LT PUSH2 0x1221 JUMPI POP PUSH11 0xC685FA11E01EC6F000000 SWAP1 JUMP JUMPDEST PUSH1 0x19 DUP2 LT PUSH2 0x1239 JUMPI POP PUSH11 0x84595161401484A000000 SWAP1 JUMP JUMPDEST PUSH1 0xA GT ISZERO PUSH2 0x1246 JUMPI PUSH1 0x0 SWAP1 JUMP JUMPDEST PUSH10 0xD3C21BCECCEDA1000000 SWAP1 JUMP JUMPDEST PUSH1 0x64 DUP2 LT PUSH2 0x128D JUMPI POP PUSH1 0x40 MLOAD PUSH2 0x1269 DUP2 PUSH2 0xF03 JUMP JUMPDEST PUSH1 0x4 DUP2 MSTORE PUSH4 0x3130302B PUSH1 0xE0 SHL PUSH1 0x20 DUP3 ADD MSTORE SWAP1 PUSH11 0x14ADF4B7320334B9000000 SWAP1 PUSH1 0x0 SWAP1 JUMP JUMPDEST PUSH1 0x32 DUP2 LT PUSH2 0x12C5 JUMPI POP PUSH1 0x40 MLOAD PUSH2 0x12A2 DUP2 PUSH2 0xF03 JUMP JUMPDEST PUSH1 0x3 DUP2 MSTORE PUSH3 0x35302B PUSH1 0xE8 SHL PUSH1 0x20 DUP3 ADD MSTORE SWAP1 PUSH11 0xC685FA11E01EC6F000000 SWAP1 PUSH1 0x64 SWAP1 JUMP JUMPDEST PUSH1 0x19 DUP2 LT PUSH2 0x12FD JUMPI POP PUSH1 0x40 MLOAD PUSH2 0x12DA DUP2 PUSH2 0xF03 JUMP JUMPDEST PUSH1 0x3 DUP2 MSTORE PUSH3 0x32352B PUSH1 0xE8 SHL PUSH1 0x20 DUP3 ADD MSTORE SWAP1 PUSH11 0x84595161401484A000000 SWAP1 PUSH1 0x32 SWAP1 JUMP JUMPDEST PUSH1 0xA GT ISZERO PUSH2 0x1333 JUMPI PUSH1 0x40 MLOAD PUSH2 0x1311 DUP2 PUSH2 0xF03 JUMP JUMPDEST PUSH1 0xC DUP2 MSTORE PUSH12 0x4E6F7420456C696769626C65 PUSH1 0xA0 SHL PUSH1 0x20 DUP3 ADD MSTORE SWAP1 PUSH1 0x0 SWAP1 PUSH1 0xA SWAP1 JUMP JUMPDEST PUSH1 0x40 MLOAD PUSH2 0x133F DUP2 PUSH2 0xF03 JUMP JUMPDEST PUSH1 0x3 DUP2 MSTORE PUSH3 0x31302B PUSH1 0xE8 SHL PUSH1 0x20 DUP3 ADD MSTORE SWAP1 PUSH10 0xD3C21BCECCEDA1000000 SWAP1 PUSH1 0x19 SWAP1 JUMP JUMPDEST PUSH1 0x1 PUSH1 0x1 PUSH1 0xA0 SHL SUB DUP2 AND PUSH1 0x0 DUP2 DUP2 MSTORE PUSH1 0x1 PUSH1 0x20 MSTORE PUSH1 0x40 DUP2 KECCAK256 SLOAD SWAP1 SWAP2 SWAP1 PUSH1 0xFF AND PUSH2 0x13C6 JUMPI PUSH1 0x3 PUSH1 0x20 MSTORE PUSH1 0x40 DUP3 KECCAK256 SLOAD PUSH1 0xFF AND ISZERO PUSH2 0x13B5 JUMPI PUSH1 0x40 SWAP3 POP DUP2 MSTORE PUSH1 0x2 PUSH1 0x20 MSTORE KECCAK256 SLOAD SWAP1 JUMPDEST PUSH2 0x13AE DUP3 PUSH2 0x11F1 JUMP JUMPDEST DUP1 ISZERO ISZERO SWAP3 SWAP2 JUMP JUMPDEST POP POP PUSH2 0x13C0 SWAP1 PUSH2 0xFAB JUMP JUMPDEST SWAP1 PUSH2 0x13A5 JUMP JUMPDEST POP DUP1 SWAP2 POP SWAP2 DUP2 SWAP1 JUMP JUMPDEST ISZERO PUSH2 0x13D6 JUMPI JUMP JUMPDEST PUSH1 0x40 MLOAD PUSH3 0x461BCD PUSH1 0xE5 SHL DUP2 MSTORE PUSH1 0x20 PUSH1 0x4 DUP3 ADD MSTORE PUSH1 0x15 PUSH1 0x24 DUP3 ADD MSTORE PUSH21 0x14D5D25411481D1C985B9CD9995C8819985A5B1959 PUSH1 0x5A SHL PUSH1 0x44 DUP3 ADD MSTORE PUSH1 0x64 SWAP1 REVERT JUMPDEST ISZERO PUSH2 0x141A JUMPI JUMP JUMPDEST PUSH1 0x40 MLOAD PUSH3 0x461BCD PUSH1 0xE5 SHL DUP2 MSTORE PUSH1 0x20 PUSH1 0x4 DUP3 ADD MSTORE PUSH1 0x9 PUSH1 0x24 DUP3 ADD MSTORE PUSH9 0x2737BA1037BBB732B9 PUSH1 0xB9 SHL PUSH1 0x44 DUP3 ADD MSTORE PUSH1 0x64 SWAP1 REVERT JUMPDEST SWAP2 SWAP1 DUP2 LT ISZERO PUSH2 0x145B JUMPI PUSH1 0x5 SHL ADD SWAP1 JUMP JUMPDEST PUSH4 0x4E487B71 PUSH1 0xE0 SHL PUSH1 0x0 MSTORE PUSH1 0x32 PUSH1 0x4 MSTORE PUSH1 0x24 PUSH1 0x0 REVERT JUMPDEST CALLDATALOAD PUSH1 0x1 PUSH1 0x1 PUSH1 0xA0 SHL SUB DUP2 AND DUP2 SUB PUSH2 0xECD JUMPI SWAP1 JUMP INVALID LOG2 PUSH5 0x6970667358 0x22 SLT KECCAK256 MSTORE 0x1F PUSH29 0xA9A4F96D58DA8552354D966D203E7D9F3F89CA5E32574DE2DC4ED51026 PUSH5 0x736F6C6343 STOP ADDMOD SGT STOP CALLER "},"methodIdentifiers":{"REWARD_100_BETS()":"c8e1ae0a","REWARD_10_BETS()":"c09762f4","REWARD_25_BETS()":"d2b885bb","REWARD_50_BETS()":"31bef019","TIER_100_BETS()":"b78d21ae","TIER_10_BETS()":"12b1e774","TIER_25_BETS()":"fa37e299","TIER_50_BETS()":"3b5b8278","batchSetBetCounts(address[],uint256[])":"d80c363a","betCountSet(address)":"83aa56fa","claimSwipe()":"6daf1d84","claimingEnabled()":"0e141a9b","countUserBets(address)":"6495d340","depositSwipe(uint256)":"a079d40c","emergencyWithdrawSwipe()":"965f632b","getRewardForBetCount(uint256)":"ccc5cf62","getSwipeBalance()":"3f4d9c26","getTierInfo(uint256)":"cc9d7519","getUserClaimInfo(address)":"ee75defd","hasClaimed(address)":"73b2e80e","maxPredictionId()":"7b42dea6","owner()":"8da5cb5b","setClaimingEnabled(bool)":"b6c72888","setMaxPredictionId(uint256)":"8f6093a3","setUserBetCount(address,uint256)":"cf546b18","swipeToken()":"492c70fb","transferOwnership(address)":"f2fde38b","userBetCounts(address)":"db7b8aa9","v2Contract()":"82fb31fe"}}}}}