{
  "_format": "hh-sol-artifact-1",
  "contractName": "SwipeDailyRewards",
  "sourceName": "contracts/SwipeDailyRewards.sol",
  "abi": [
    {
      "inputs": [
        {
          "internalType": "address",
          "name": "_swipeToken",
          "type": "address"
        },
        {
          "internalType": "address",
          "name": "_taskVerifier",
          "type": "address"
        }
      ],
      "stateMutability": "nonpayable",
      "type": "constructor"
    },
    {
      "anonymous": false,
      "inputs": [
        {
          "indexed": true,
          "internalType": "address",
          "name": "user",
          "type": "address"
        },
        {
          "indexed": false,
          "internalType": "string",
          "name": "achievement",
          "type": "string"
        },
        {
          "indexed": false,
          "internalType": "uint256",
          "name": "reward",
          "type": "uint256"
        }
      ],
      "name": "AchievementUnlocked",
      "type": "event"
    },
    {
      "anonymous": false,
      "inputs": [
        {
          "indexed": false,
          "internalType": "bool",
          "name": "enabled",
          "type": "bool"
        }
      ],
      "name": "ClaimingToggled",
      "type": "event"
    },
    {
      "anonymous": false,
      "inputs": [
        {
          "indexed": true,
          "internalType": "address",
          "name": "user",
          "type": "address"
        },
        {
          "indexed": false,
          "internalType": "uint256",
          "name": "baseAmount",
          "type": "uint256"
        },
        {
          "indexed": false,
          "internalType": "uint256",
          "name": "streakBonus",
          "type": "uint256"
        },
        {
          "indexed": false,
          "internalType": "uint256",
          "name": "totalAmount",
          "type": "uint256"
        },
        {
          "indexed": false,
          "internalType": "uint256",
          "name": "currentStreak",
          "type": "uint256"
        },
        {
          "indexed": false,
          "internalType": "bool",
          "name": "wonJackpot",
          "type": "bool"
        }
      ],
      "name": "DailyClaimed",
      "type": "event"
    },
    {
      "anonymous": false,
      "inputs": [
        {
          "indexed": true,
          "internalType": "address",
          "name": "to",
          "type": "address"
        },
        {
          "indexed": false,
          "internalType": "uint256",
          "name": "amount",
          "type": "uint256"
        }
      ],
      "name": "EmergencyWithdraw",
      "type": "event"
    },
    {
      "anonymous": false,
      "inputs": [
        {
          "indexed": false,
          "internalType": "bool",
          "name": "isPaused",
          "type": "bool"
        }
      ],
      "name": "Paused",
      "type": "event"
    },
    {
      "anonymous": false,
      "inputs": [
        {
          "indexed": true,
          "internalType": "address",
          "name": "referrer",
          "type": "address"
        },
        {
          "indexed": true,
          "internalType": "address",
          "name": "referred",
          "type": "address"
        },
        {
          "indexed": false,
          "internalType": "uint256",
          "name": "rewardEach",
          "type": "uint256"
        }
      ],
      "name": "ReferralRegistered",
      "type": "event"
    },
    {
      "anonymous": false,
      "inputs": [
        {
          "indexed": true,
          "internalType": "address",
          "name": "from",
          "type": "address"
        },
        {
          "indexed": false,
          "internalType": "uint256",
          "name": "amount",
          "type": "uint256"
        }
      ],
      "name": "SwipeDeposited",
      "type": "event"
    },
    {
      "anonymous": false,
      "inputs": [
        {
          "indexed": true,
          "internalType": "address",
          "name": "user",
          "type": "address"
        },
        {
          "indexed": false,
          "internalType": "string",
          "name": "taskType",
          "type": "string"
        },
        {
          "indexed": false,
          "internalType": "uint256",
          "name": "reward",
          "type": "uint256"
        }
      ],
      "name": "TaskCompleted",
      "type": "event"
    },
    {
      "anonymous": false,
      "inputs": [
        {
          "indexed": true,
          "internalType": "address",
          "name": "newVerifier",
          "type": "address"
        }
      ],
      "name": "TaskVerifierUpdated",
      "type": "event"
    },
    {
      "inputs": [],
      "name": "BASE_DAILY_REWARD",
      "outputs": [
        {
          "internalType": "uint256",
          "name": "",
          "type": "uint256"
        }
      ],
      "stateMutability": "view",
      "type": "function"
    },
    {
      "inputs": [],
      "name": "BETA_TESTER_REWARD",
      "outputs": [
        {
          "internalType": "uint256",
          "name": "",
          "type": "uint256"
        }
      ],
      "stateMutability": "view",
      "type": "function"
    },
    {
      "inputs": [],
      "name": "CREATE_PREDICTION_REWARD",
      "outputs": [
        {
          "internalType": "uint256",
          "name": "",
          "type": "uint256"
        }
      ],
      "stateMutability": "view",
      "type": "function"
    },
    {
      "inputs": [],
      "name": "FOLLOW_SOCIALS_REWARD",
      "outputs": [
        {
          "internalType": "uint256",
          "name": "",
          "type": "uint256"
        }
      ],
      "stateMutability": "view",
      "type": "function"
    },
    {
      "inputs": [],
      "name": "INITIAL_POOL_SIZE",
      "outputs": [
        {
          "internalType": "uint256",
          "name": "",
          "type": "uint256"
        }
      ],
      "stateMutability": "view",
      "type": "function"
    },
    {
      "inputs": [],
      "name": "JACKPOT_AMOUNT",
      "outputs": [
        {
          "internalType": "uint256",
          "name": "",
          "type": "uint256"
        }
      ],
      "stateMutability": "view",
      "type": "function"
    },
    {
      "inputs": [],
      "name": "JACKPOT_CHANCE",
      "outputs": [
        {
          "internalType": "uint256",
          "name": "",
          "type": "uint256"
        }
      ],
      "stateMutability": "view",
      "type": "function"
    },
    {
      "inputs": [],
      "name": "MAX_STREAK_BONUS_DAYS",
      "outputs": [
        {
          "internalType": "uint256",
          "name": "",
          "type": "uint256"
        }
      ],
      "stateMutability": "view",
      "type": "function"
    },
    {
      "inputs": [],
      "name": "REFERRAL_REWARD",
      "outputs": [
        {
          "internalType": "uint256",
          "name": "",
          "type": "uint256"
        }
      ],
      "stateMutability": "view",
      "type": "function"
    },
    {
      "inputs": [],
      "name": "SHARE_CAST_REWARD",
      "outputs": [
        {
          "internalType": "uint256",
          "name": "",
          "type": "uint256"
        }
      ],
      "stateMutability": "view",
      "type": "function"
    },
    {
      "inputs": [],
      "name": "STREAK_30_REWARD",
      "outputs": [
        {
          "internalType": "uint256",
          "name": "",
          "type": "uint256"
        }
      ],
      "stateMutability": "view",
      "type": "function"
    },
    {
      "inputs": [],
      "name": "STREAK_7_REWARD",
      "outputs": [
        {
          "internalType": "uint256",
          "name": "",
          "type": "uint256"
        }
      ],
      "stateMutability": "view",
      "type": "function"
    },
    {
      "inputs": [],
      "name": "STREAK_BONUS_PER_DAY",
      "outputs": [
        {
          "internalType": "uint256",
          "name": "",
          "type": "uint256"
        }
      ],
      "stateMutability": "view",
      "type": "function"
    },
    {
      "inputs": [],
      "name": "TRADING_VOLUME_REWARD",
      "outputs": [
        {
          "internalType": "uint256",
          "name": "",
          "type": "uint256"
        }
      ],
      "stateMutability": "view",
      "type": "function"
    },
    {
      "inputs": [
        {
          "internalType": "string",
          "name": "achievementType",
          "type": "string"
        },
        {
          "internalType": "bytes",
          "name": "signature",
          "type": "bytes"
        }
      ],
      "name": "claimAchievement",
      "outputs": [],
      "stateMutability": "nonpayable",
      "type": "function"
    },
    {
      "inputs": [],
      "name": "claimDaily",
      "outputs": [],
      "stateMutability": "nonpayable",
      "type": "function"
    },
    {
      "inputs": [],
      "name": "claimingEnabled",
      "outputs": [
        {
          "internalType": "bool",
          "name": "",
          "type": "bool"
        }
      ],
      "stateMutability": "view",
      "type": "function"
    },
    {
      "inputs": [
        {
          "internalType": "string",
          "name": "taskType",
          "type": "string"
        },
        {
          "internalType": "bytes",
          "name": "signature",
          "type": "bytes"
        }
      ],
      "name": "completeTask",
      "outputs": [],
      "stateMutability": "nonpayable",
      "type": "function"
    },
    {
      "inputs": [
        {
          "internalType": "address",
          "name": "",
          "type": "address"
        }
      ],
      "name": "dailyTasks",
      "outputs": [
        {
          "internalType": "bool",
          "name": "shareCast",
          "type": "bool"
        },
        {
          "internalType": "bool",
          "name": "createPrediction",
          "type": "bool"
        },
        {
          "internalType": "bool",
          "name": "tradingVolume",
          "type": "bool"
        },
        {
          "internalType": "uint256",
          "name": "resetDay",
          "type": "uint256"
        }
      ],
      "stateMutability": "view",
      "type": "function"
    },
    {
      "inputs": [
        {
          "internalType": "uint256",
          "name": "amount",
          "type": "uint256"
        }
      ],
      "name": "depositSwipe",
      "outputs": [],
      "stateMutability": "nonpayable",
      "type": "function"
    },
    {
      "inputs": [],
      "name": "emergencyWithdraw",
      "outputs": [],
      "stateMutability": "nonpayable",
      "type": "function"
    },
    {
      "inputs": [],
      "name": "getPoolStats",
      "outputs": [
        {
          "internalType": "uint256",
          "name": "poolBalance",
          "type": "uint256"
        },
        {
          "internalType": "uint256",
          "name": "distributed",
          "type": "uint256"
        },
        {
          "internalType": "uint256",
          "name": "userCount",
          "type": "uint256"
        },
        {
          "internalType": "uint256",
          "name": "claimCount",
          "type": "uint256"
        }
      ],
      "stateMutability": "view",
      "type": "function"
    },
    {
      "inputs": [
        {
          "internalType": "address",
          "name": "user",
          "type": "address"
        }
      ],
      "name": "getUserAchievements",
      "outputs": [
        {
          "internalType": "bool",
          "name": "isBetaTester",
          "type": "bool"
        },
        {
          "internalType": "bool",
          "name": "hasFollowedSocials",
          "type": "bool"
        },
        {
          "internalType": "bool",
          "name": "hasStreak7",
          "type": "bool"
        },
        {
          "internalType": "bool",
          "name": "hasStreak30",
          "type": "bool"
        },
        {
          "internalType": "uint256",
          "name": "referrals",
          "type": "uint256"
        }
      ],
      "stateMutability": "view",
      "type": "function"
    },
    {
      "inputs": [
        {
          "internalType": "address",
          "name": "user",
          "type": "address"
        }
      ],
      "name": "getUserDailyTasks",
      "outputs": [
        {
          "internalType": "bool",
          "name": "shareCast",
          "type": "bool"
        },
        {
          "internalType": "bool",
          "name": "createPrediction",
          "type": "bool"
        },
        {
          "internalType": "bool",
          "name": "tradingVolume",
          "type": "bool"
        },
        {
          "internalType": "bool",
          "name": "needsReset",
          "type": "bool"
        }
      ],
      "stateMutability": "view",
      "type": "function"
    },
    {
      "inputs": [
        {
          "internalType": "address",
          "name": "user",
          "type": "address"
        }
      ],
      "name": "getUserStats",
      "outputs": [
        {
          "internalType": "uint256",
          "name": "lastClaimTimestamp",
          "type": "uint256"
        },
        {
          "internalType": "uint256",
          "name": "currentStreak",
          "type": "uint256"
        },
        {
          "internalType": "uint256",
          "name": "longestStreak",
          "type": "uint256"
        },
        {
          "internalType": "uint256",
          "name": "totalClaimed",
          "type": "uint256"
        },
        {
          "internalType": "uint256",
          "name": "jackpotsWon",
          "type": "uint256"
        },
        {
          "internalType": "bool",
          "name": "canClaimToday",
          "type": "bool"
        },
        {
          "internalType": "uint256",
          "name": "nextClaimTime",
          "type": "uint256"
        },
        {
          "internalType": "uint256",
          "name": "potentialReward",
          "type": "uint256"
        }
      ],
      "stateMutability": "view",
      "type": "function"
    },
    {
      "inputs": [
        {
          "internalType": "address",
          "name": "",
          "type": "address"
        }
      ],
      "name": "hasUsedReferral",
      "outputs": [
        {
          "internalType": "bool",
          "name": "",
          "type": "bool"
        }
      ],
      "stateMutability": "view",
      "type": "function"
    },
    {
      "inputs": [],
      "name": "owner",
      "outputs": [
        {
          "internalType": "address",
          "name": "",
          "type": "address"
        }
      ],
      "stateMutability": "view",
      "type": "function"
    },
    {
      "inputs": [],
      "name": "paused",
      "outputs": [
        {
          "internalType": "bool",
          "name": "",
          "type": "bool"
        }
      ],
      "stateMutability": "view",
      "type": "function"
    },
    {
      "inputs": [
        {
          "internalType": "address",
          "name": "",
          "type": "address"
        }
      ],
      "name": "referralCount",
      "outputs": [
        {
          "internalType": "uint256",
          "name": "",
          "type": "uint256"
        }
      ],
      "stateMutability": "view",
      "type": "function"
    },
    {
      "inputs": [
        {
          "internalType": "address",
          "name": "",
          "type": "address"
        }
      ],
      "name": "referredBy",
      "outputs": [
        {
          "internalType": "address",
          "name": "",
          "type": "address"
        }
      ],
      "stateMutability": "view",
      "type": "function"
    },
    {
      "inputs": [
        {
          "internalType": "address",
          "name": "referrer",
          "type": "address"
        }
      ],
      "name": "registerReferral",
      "outputs": [],
      "stateMutability": "nonpayable",
      "type": "function"
    },
    {
      "inputs": [
        {
          "internalType": "bool",
          "name": "enabled",
          "type": "bool"
        }
      ],
      "name": "setClaimingEnabled",
      "outputs": [],
      "stateMutability": "nonpayable",
      "type": "function"
    },
    {
      "inputs": [
        {
          "internalType": "bool",
          "name": "_paused",
          "type": "bool"
        }
      ],
      "name": "setPaused",
      "outputs": [],
      "stateMutability": "nonpayable",
      "type": "function"
    },
    {
      "inputs": [
        {
          "internalType": "address",
          "name": "newVerifier",
          "type": "address"
        }
      ],
      "name": "setTaskVerifier",
      "outputs": [],
      "stateMutability": "nonpayable",
      "type": "function"
    },
    {
      "inputs": [],
      "name": "swipeToken",
      "outputs": [
        {
          "internalType": "contract IERC20",
          "name": "",
          "type": "address"
        }
      ],
      "stateMutability": "view",
      "type": "function"
    },
    {
      "inputs": [],
      "name": "taskVerifier",
      "outputs": [
        {
          "internalType": "address",
          "name": "",
          "type": "address"
        }
      ],
      "stateMutability": "view",
      "type": "function"
    },
    {
      "inputs": [],
      "name": "totalClaims",
      "outputs": [
        {
          "internalType": "uint256",
          "name": "",
          "type": "uint256"
        }
      ],
      "stateMutability": "view",
      "type": "function"
    },
    {
      "inputs": [],
      "name": "totalDistributed",
      "outputs": [
        {
          "internalType": "uint256",
          "name": "",
          "type": "uint256"
        }
      ],
      "stateMutability": "view",
      "type": "function"
    },
    {
      "inputs": [],
      "name": "totalUsers",
      "outputs": [
        {
          "internalType": "uint256",
          "name": "",
          "type": "uint256"
        }
      ],
      "stateMutability": "view",
      "type": "function"
    },
    {
      "inputs": [
        {
          "internalType": "address",
          "name": "newOwner",
          "type": "address"
        }
      ],
      "name": "transferOwnership",
      "outputs": [],
      "stateMutability": "nonpayable",
      "type": "function"
    },
    {
      "inputs": [
        {
          "internalType": "address",
          "name": "",
          "type": "address"
        }
      ],
      "name": "users",
      "outputs": [
        {
          "internalType": "uint256",
          "name": "lastClaimTimestamp",
          "type": "uint256"
        },
        {
          "internalType": "uint256",
          "name": "currentStreak",
          "type": "uint256"
        },
        {
          "internalType": "uint256",
          "name": "longestStreak",
          "type": "uint256"
        },
        {
          "internalType": "uint256",
          "name": "totalClaimed",
          "type": "uint256"
        },
        {
          "internalType": "uint256",
          "name": "lastTaskResetDay",
          "type": "uint256"
        },
        {
          "internalType": "uint256",
          "name": "jackpotsWon",
          "type": "uint256"
        },
        {
          "internalType": "bool",
          "name": "isBetaTester",
          "type": "bool"
        },
        {
          "internalType": "bool",
          "name": "hasFollowedSocials",
          "type": "bool"
        },
        {
          "internalType": "bool",
          "name": "hasStreak7Achievement",
          "type": "bool"
        },
        {
          "internalType": "bool",
          "name": "hasStreak30Achievement",
          "type": "bool"
        }
      ],
      "stateMutability": "view",
      "type": "function"
    }
  ],
  "bytecode": "0x60a0346200019c57601f6200263138819003918201601f19168301916001600160401b03831184841017620001a15780849260409485528339810103126200019c576200005a60206200005283620001b7565b9201620001b7565b600454916001600160a01b039081169182156200015757169081156200011257600080546001600160a01b031916331790556080526001600160b01b031990911617600160a01b176004556040516124649081620001cd82396080518181816104bf015281816107450152818161093701528181610b9801528181610dba01528181610e9c01528181610f7a0152818161101301528181611149015281816111f70152818161151c0152818161190e0152611a220152f35b60405162461bcd60e51b815260206004820152601860248201527f496e76616c6964207665726966696572206164647265737300000000000000006044820152606490fd5b60405162461bcd60e51b815260206004820152601560248201527f496e76616c696420746f6b656e206164647265737300000000000000000000006044820152606490fd5b600080fd5b634e487b7160e01b600052604160045260246000fd5b51906001600160a01b03821682036200019c5756fe608080604052600436101561001357600080fd5b60003560e01c90816309b5a33a14611e7f575080630e141a9b14611e595780630f7cda7614610a3e57806316c38b3c14611de05780631e23a7f014611db7578063209ab71114611960578063216caf4d1461195b578063265a58d81461195b57806341c613831461193d578063492c70fb146118f85780634e43603a146117b55780634e6446a2146117905780635c975abb1461176a57806370ed4620146116bd5780637a994cd01461148157806384a3a0f31461145c57806388df05891461143757806389934d3a14610c6a5780638da5cb5b14610c415780639f530cc914610c25578063a079d40c14610b57578063a0b873fb14610329578063a87430ba14610aa9578063a90f8e9a14610a69578063afcc78be14610a43578063b6ab790e14610a3e578063b6c72888146109c5578063bbb851881461090b578063bf1e8b3a146108ef578063bff1f9e1146108d1578063c710560914610882578063db2e21bc14610702578063db3eef3f146103f9578063db74559b146103bb578063df312b1e14610353578063e551b71a1461032e578063ea4f64b014610329578063efc7a86414610304578063efca2eed146102e6578063f09153c4146102695763f2fde38b146101e257600080fd5b34610264576020366003190112610264576004356001600160a01b03818116918290036102645761021960005491821633146123f6565b811561022f576001600160a01b03191617600055005b60405162461bcd60e51b815260206004820152600d60248201526c24b73b30b634b21037bbb732b960991b6044820152606490fd5b600080fd5b34610264576020366003190112610264576004356001600160a01b0381169081900361026457600052600560205260a0600660406000200154600860205260406000205460ff6040519281811615158452818160081c1615156020850152818160101c161515604085015260181c16151560608301526080820152f35b34610264576000366003190112610264576020600154604051908152f35b3461026457600036600319011261026457602060405169d3c21bcecceda10000008152f35b611f82565b346102645760003660031901126102645760206040516969e10de76676d08000008152f35b34610264576020366003190112610264576004356001600160a01b03811690819003610264576000526006602052608060406000206001815491015460ff6040519281811615158452818160081c161515602085015260101c16151560408301526060820152f35b34610264576020366003190112610264576004356001600160a01b038116908190036102645760005260086020526020604060002054604051908152f35b346102645761043361042e61040d36611f37565b9061042660ff60049795979694965460a81c1615611fa7565b848633612290565b6120c8565b61043c33612252565b33600052602090600682526040600020610457368386612108565b8051908401207f59f9c19ce4d2104b5074afdbd422a67ce762a07b67944dfc1ac72cebc1ef9fb3810361061d57506001815461049660ff82161561214f565b60ff1916179055690a968163f0a57b400000905b6040516370a0823160e01b81523060048201527f00000000000000000000000000000000000000000000000000000000000000006001600160a01b031693908181602481885afa80156105e05784906000906105ec575b61050d92501015612026565b33600052600581526003604060002001610528848254611fe8565b905561053683600154611fe8565b60015560405163a9059cbb60e01b815233600482015260248101849052938190859060449082906000905af180156105e0577f10ddce2fe83f593b5a578fdeaea55181daa98b7e1e4652e712b2c821622fc3079461059d926000926105b3575b505061208a565b6105ae60405192839233968461219b565b0390a2005b6105d29250803d106105d9575b6105ca8183612004565b810190612072565b8680610596565b503d6105c0565b6040513d6000823e3d90fd5b50508181813d8311610616575b6106038183612004565b81010312610264578361050d9151610501565b503d6105f9565b7f103f7b2dda1595da24c03f5970d4163272b9badb6161a376876bfea67102615c81036106735750610100815461065a60ff8260081c161561214f565b61ff001916179055690fe1c215e8f838e00000906104aa565b7f6c25e4722cb75723d0f45967423f4fefc1866b6db42936b2e4c9827f9d9f8ccd036106c9576201000081546106af60ff8260101c161561214f565b62ff0000191617905569152d02c7e14af6800000906104aa565b60405162461bcd60e51b8152600481018490526011602482015270496e76616c6964207461736b207479706560781b6044820152606490fd5b34610264576000366003190112610264576000546001600160a01b0390811661072c3382146123f6565b6040516370a0823160e01b8152306004820152916020917f00000000000000000000000000000000000000000000000000000000000000008216908385602481855afa9485156105e057600095610853575b5084156108215760405163a9059cbb60e01b81526001600160a01b03919091166004820152602481018590529291908290849060449082906000905af19283156105e0577f5fafa99d0643513820be26656b45130b01e1c03062e1266bf36f88cbd3bd9695936107f691600091610804575b5061208a565b6000541692604051908152a2005b61081b9150843d86116105d9576105ca8183612004565b866107f0565b60405162461bcd60e51b815260048101859052600a6024820152694e6f2062616c616e636560b01b6044820152606490fd5b9094508381813d831161087b575b61086b8183612004565b810103126102645751938561077e565b503d610861565b34610264576020366003190112610264576004356001600160a01b0381168103610264576108b1608091612208565b916040519315158452151560208401521515604083015215156060820152f35b34610264576000366003190112610264576020600254604051908152f35b34610264576000366003190112610264576020604051600a8152f35b34610264576000366003190112610264576040516370a0823160e01b81523060048201526020816024817f00000000000000000000000000000000000000000000000000000000000000006001600160a01b03165afa80156105e057600090610993575b60809060015460025460035491604051938452602084015260408301526060820152f35b506020813d82116109bd575b816109ac60209383612004565b81010312610264576080905161096f565b3d915061099f565b34610264576020366003190112610264576004358015158091036102645760207f5357603b66ce52ad2bde073bf1baae8a126a96ae712f396257fa4b57169c36ab91610a1c60018060a01b036000541633146123f6565b6004805460ff60a01b191660a083901b60ff60a01b16179055604051908152a1005b611ebf565b346102645760003660031901126102645760206040516acecb8f27f4200f3a0000008152f35b34610264576020366003190112610264576004356001600160a01b0381811691829003610264576020916000526007825260406000205416604051908152f35b34610264576020366003190112610264576004356001600160a01b03811690819003610264576000526005602052610140604060002060ff815491600181015490600281015460038201546004830154916006600585015494015494604051978852602088015260408701526060860152608085015260a0840152818116151560c0840152818160081c16151560e0840152818160101c16151561010084015260181c161515610120820152f35b34610264576020366003190112610264576040516323b872dd60e01b81523360048281019190915230602483015235604482018190529060208160648160007f00000000000000000000000000000000000000000000000000000000000000006001600160a01b03165af180156105e057610bd991600091610c07575061208a565b6040519081527fb9ea67a19ab6bc678d42c223c0b3c9b7947918f351c3377a0e07e1b7332444c760203392a2005b610c1f915060203d81116105d9576105ca8183612004565b836107f0565b3461026457600036600319011261026457602060405160058152f35b34610264576000366003190112610264576000546040516001600160a01b039091168152602090f35b346102645760003660031901126102645760ff600454610c8f828260a81c1615611fa7565b60a01c16156113fb57336000526005602052604060002080546201518081018082116110bf5742106113be57156113ab575b80548015159081611393575b50156113885760018101610ce18154611ff5565b90555b6001810154806002830180548211611380575b5050600a81111561137a5750600a905b69021e19e0c9bab240000082818102048114831517156110bf57808302690a968163f0a57b400000019182690a968163f0a57b400000116110bf5782906001546040519060208201904282524460408401523360601b606084015260748301524360948301526094825260c082019082821067ffffffffffffffff8311176113645760059260649260405251902006109384611334575b506040516370a0823160e01b81523060048201526020816024817f00000000000000000000000000000000000000000000000000000000000000006001600160a01b03165afa80156105e05783906000906112fe575b610e0092501015612026565b42815560038101610e12838254611fe8565b9055610e2082600154611fe8565b600155610e2e600354611ff5565b600355610e3a33612252565b336000526005602052604060002060018101600781541015806112ec575b61111b575b601e9054101580611109575b610f49575b5060405163a9059cbb60e01b8152336004820152602481018390529060208260448160006001600160a01b037f0000000000000000000000000000000000000000000000000000000000000000165af19182156105e057600192610ed991600091610f2a575061208a565b01549160405194690a968163f0a57b40000086520260208501526040840152606083015260808201527f0b3cf2cd3b2ce31e0ff7cbb3f2562d51047e60d290a130fefc85fb019ee6fcc060a03392a2005b610f43915060203d6020116105d9576105ca8183612004565b886107f0565b60068101805463ff000000191663010000001790556040516370a0823160e01b8152306004820152906020826024817f00000000000000000000000000000000000000000000000000000000000000006001600160a01b03165afa9182156105e0576000926110d5575b5069d3c21bcecceda100000080921015610fce575b50610e6e565b6003018054908282018092116110bf57556001548181018091116110bf5760015560405163a9059cbb60e01b81523360048201526024810182905260208160448160007f00000000000000000000000000000000000000000000000000000000000000006001600160a01b03165af180156105e0576110a0575b506040519060408252600d60408301526c33305f4441595f53545245414b60981b606083015260208201527f67a8d47c6ecf3a491ea8a4f20a58352394879c573c678ec5b9abceae075d4dca60803392a28580610fc8565b6110b89060203d6020116105d9576105ca8183612004565b5086611048565b634e487b7160e01b600052601160045260246000fd5b9091506020813d602011611101575b816110f160209383612004565b8101031261026457519087610fb3565b3d91506110e4565b5060ff600682015460181c1615610e69565b60068201805462ff00001916620100001790556040516370a0823160e01b81523060048201526020816024817f00000000000000000000000000000000000000000000000000000000000000006001600160a01b03165afa80156105e0576000906112b0575b6934f086f3b33b68400000915010610e5d57600382018054906934f086f3b33b6840000082018092116110bf57556001546934f086f3b33b6840000081018091116110bf5760015560405163a9059cbb60e01b81523360048201526934f086f3b33b6840000060248201529060208260448160007f00000000000000000000000000000000000000000000000000000000000000006001600160a01b03165af19182156105e057601e92611291575b5060405160408152600c60408201526b375f4441595f53545245414b60a01b60608201526934f086f3b33b6840000060208201527f67a8d47c6ecf3a491ea8a4f20a58352394879c573c678ec5b9abceae075d4dca60803392a29050610e5d565b6112a99060203d6020116105d9576105ca8183612004565b5088611230565b506020813d6020116112e4575b816112ca60209383612004565b81010312610264576934f086f3b33b684000009051611181565b3d91506112bd565b5060ff600683015460101c1615610e58565b50506020813d60201161132c575b8161131960209383612004565b810103126102645782610e009151610df4565b3d915061130c565b909150693f870857a3e0e3800000838602018091116110bf57906005810161135c8154611ff5565b905585610d9e565b634e487b7160e01b600052604160045260246000fd5b90610d07565b558083610cf7565b600180820155610ce4565b90506202a30081018091116110bf5742111582610ccd565b6113b6600254611ff5565b600255610cc1565b60405162461bcd60e51b8152602060048201526015602482015274416c726561647920636c61696d656420746f64617960581b6044820152606490fd5b60405162461bcd60e51b815260206004820152601460248201527310db185a5b5a5b99c81a5cc8191a5cd8589b195960621b6044820152606490fd5b34610264576000366003190112610264576020604051690fe1c215e8f838e000008152f35b34610264576000366003190112610264576020604051691fc3842bd1f071c000008152f35b346102645761149561042e61040d36611f37565b336000526020600581526040600020916114b0368286612108565b8051908301207fb54e063503447bce6485adab005b8755b54ded950878440b84f8e79a1196702e8103611620575060068301600181546114f360ff8216156121ca565b60ff19161790556969e10de76676d0800000915b6040516370a0823160e01b81523060048201527f00000000000000000000000000000000000000000000000000000000000000006001600160a01b0316948282602481895afa80156105e05785926000916115ec575b5060039261156c911015612026565b01611578848254611fe8565b905561158683600154611fe8565b60015560405163a9059cbb60e01b815233600482015260248101849052938190859060449082906000905af180156105e0577f67a8d47c6ecf3a491ea8a4f20a58352394879c573c678ec5b9abceae075d4dca9461059d926000926105b357505061208a565b809350848092503d8311611619575b6116058183612004565b81010312610264579051849190600361155d565b503d6115fb565b7f126235d9d2e6036d7fac7e99f1dcd31ada7ff126658a7dd43824f3e4f265d039036116785760068301610100815461165f60ff8260081c16156121ca565b61ff00191617905569152d02c7e14af680000091611507565b60405162461bcd60e51b815260048101839052601860248201527f496e76616c696420616368696576656d656e74207479706500000000000000006044820152606490fd5b34610264576020366003190112610264576004356001600160a01b0381811691829003610264576116f3906000541633146123f6565b801561173257600480546001600160a01b031916821790557fe5b9ec72fc7e34a9021e01e954c7e54ceb50c6b1798084716afe188ffa5e13cb600080a2005b60405162461bcd60e51b815260206004820152601060248201526f24b73b30b634b2103b32b934b334b2b960811b6044820152606490fd5b3461026457600036600319011261026457602060ff60045460a81c166040519015158152f35b3461026457600036600319011261026457602060405169021e19e0c9bab24000008152f35b34610264576020366003190112610264576004356001600160a01b038116908190036102645760005260056020526040600020805460018201549160028101549060056003820154910154831590811592836118e0575b82156118cd576000935b83156118c657806118b0575b156118a957600187018088116110bf575b600a8111156118a35750600a945b69021e19e0c9bab2400000958681029681880414901517156110bf57690a968163f0a57b4000009586018096116110bf57610100976040519788526020880152604087015260608601526080850152151560a084015260c083015260e0820152f35b94611841565b6001611833565b506202a30086018087116110bf57421115611822565b5086611833565b6201518086018087116110bf5793611816565b91506201518085018086116110bf574210159161180c565b34610264576000366003190112610264576040517f00000000000000000000000000000000000000000000000000000000000000006001600160a01b03168152602090f35b34610264576000366003190112610264576020600354604051908152f35b611ee4565b3461026457602080600319360112610264576004356001600160a01b03818116918290036102645761199a60ff60045460a81c1615611fa7565b336000526009835260ff60406000205416611d7a57338214611d3d578115611d0557816000526005835260406000205415611cc05733600052600983526040600020600160ff19825416179055600783526040600020826bffffffffffffffffffffffff60a01b82541617905581600052600883526040600020611a1e8154611ff5565b90557f000000000000000000000000000000000000000000000000000000000000000016916040516370a0823160e01b815230600482015260249082818381885afa9081156105e057600091611c89575b50693f870857a3e0e3800000611a86911015612026565b82600052600582526003604060002001938454691fc3842bd1f071c0000095868201809211611be95755600154858101809111611c745760015560405163a9059cbb60e01b90818152856004820152868482015284816044816000875af19081156105e057600091611c57575b5015611c135733600052600584526003604060002001805490878201809211611bfe5755600154868101809111611be9579160448592600094600155604051948593849283523360048401528a888401525af19081156105e057600091611bcc575b5015611b8957507f90eab5d1df713df401d810f26aa9718d2b9e6894af1eb4890a332d3b185dc0e5906040519384523393a3005b90601b6064926040519262461bcd60e51b845260048401528201527f5472616e7366657220746f207265666572726564206661696c656400000000006044820152fd5b611be39150833d85116105d9576105ca8183612004565b85611b55565b83634e487b7160e01b60005260116004526000fd5b84634e487b7160e01b60005260116004526000fd5b60405162461bcd60e51b815260048101859052601b818501527f5472616e7366657220746f207265666572726572206661696c656400000000006044820152606490fd5b611c6e9150853d87116105d9576105ca8183612004565b87611af3565b82634e487b7160e01b60005260116004526000fd5b90508281813d8311611cb9575b611ca08183612004565b810103126102645751693f870857a3e0e3800000611a6f565b503d611c96565b60405162461bcd60e51b815260048101849052601c60248201527f5265666572726572206d757374206265206163746976652075736572000000006044820152606490fd5b60405162461bcd60e51b815260048101849052601060248201526f24b73b30b634b2103932b332b93932b960811b6044820152606490fd5b60405162461bcd60e51b815260048101849052601560248201527421b0b73737ba103932b332b9103cb7bab939b2b63360591b6044820152606490fd5b60405162461bcd60e51b8152600481018490526015602482015274105b1c9958591e481d5cd959081c9959995c9c985b605a1b6044820152606490fd5b34610264576000366003190112610264576004546040516001600160a01b039091168152602090f35b34610264576020366003190112610264576004358015158091036102645760207f0e2fb031ee032dc02d8011dc50b816eb450cf856abd8261680dac74f72165bd291611e3760018060a01b036000541633146123f6565b6004805460ff60a81b191660a883901b60ff60a81b16179055604051908152a1005b3461026457600036600319011261026457602060ff60045460a01c166040519015158152f35b34610264576020366003190112610264576004356001600160a01b0381169190829003610264576020916000526009825260ff6040600020541615158152f35b346102645760003660031901126102645760206040516934f086f3b33b684000008152f35b3461026457600036600319011261026457602060405169152d02c7e14af68000008152f35b9181601f840112156102645782359167ffffffffffffffff8311610264576020838186019501011161026457565b60406003198201126102645767ffffffffffffffff916004358381116102645782611f6491600401611f09565b9390939260243591821161026457611f7e91600401611f09565b9091565b34610264576000366003190112610264576020604051690a968163f0a57b4000008152f35b15611fae57565b60405162461bcd60e51b815260206004820152601260248201527110dbdb9d1c9858dd081a5cc81c185d5cd95960721b6044820152606490fd5b919082018092116110bf57565b60001981146110bf5760010190565b90601f8019910116810190811067ffffffffffffffff82111761136457604052565b1561202d57565b60405162461bcd60e51b815260206004820152601960248201527f496e73756666696369656e7420706f6f6c2062616c616e6365000000000000006044820152606490fd5b90816020910312610264575180151581036102645790565b1561209157565b60405162461bcd60e51b815260206004820152600f60248201526e151c985b9cd9995c8819985a5b1959608a1b6044820152606490fd5b156120cf57565b60405162461bcd60e51b8152602060048201526011602482015270496e76616c6964207369676e617475726560781b6044820152606490fd5b92919267ffffffffffffffff82116113645760405191612132601f8201601f191660200184612004565b829481845281830111610264578281602093846000960137010152565b1561215657565b60405162461bcd60e51b815260206004820152601c60248201527f5461736b20616c726561647920636f6d706c6574656420746f646179000000006044820152606490fd5b9392918060609160209360408852816040890152838801376000828288010152601f8019910116850101930152565b156121d157565b60405162461bcd60e51b815260206004820152600f60248201526e105b1c9958591e4818db185a5b5959608a1b6044820152606490fd5b6001600160a01b031660009081526006602052604081206001810154620151804204900361224857549060ff82169260ff808460081c169360101c169190565b5080918190600190565b6001600160a01b03166000908152600660205260409020600181018054620151804204929083900361228357505050565b805462ffffff1916905555565b9391939290926040946122df605487518381946020998a8401976bffffffffffffffffffffffff199060601b168852603484013781016201518042046034820152036034810184520182612004565b5190208451848101917f19457468657265756d205369676e6564204d6573736167653a0a3332000000008352603c820152603c8152606081019181831067ffffffffffffffff841117611364578287528151902093604019016123b65750508290600085820135901a601b811061239e575b855193845260ff16838301528035838601520135606082015260008080529060809060015afa1561239457506000516004546001600160a01b0391821691161490565b513d6000823e3d90fd5b601b919250019160ff83116110bf5791839190612351565b907f496e76616c6964207369676e6174757265206c656e677468000000000000000060a46064938762461bcd60e51b855285820152601860848201520152fd5b156123fd57565b60405162461bcd60e51b81526020600482015260096024820152682737ba1037bbb732b960b91b6044820152606490fdfea2646970667358221220db77ad17feee91c0773095dc39c6f4dcb6463ce6f39b2935ffede0e4bfc1c79064736f6c63430008130033",
  "linkReferences": {},
  "deployedLinkReferences": {}
}