{
  "_format": "hh-sol-artifact-1",
  "contractName": "SwipeDailyRewards_V3",
  "sourceName": "contracts/SwipeDailyRewards_V3.sol",
  "abi": [
    {
      "inputs": [
        {
          "internalType": "address",
          "name": "_swipeToken",
          "type": "address"
        },
        {
          "internalType": "address",
          "name": "_taskVerifier",
          "type": "address"
        },
        {
          "internalType": "address",
          "name": "_v1Contract",
          "type": "address"
        },
        {
          "internalType": "address",
          "name": "_v2Contract",
          "type": "address"
        }
      ],
      "stateMutability": "nonpayable",
      "type": "constructor"
    },
    {
      "anonymous": false,
      "inputs": [
        {
          "indexed": true,
          "internalType": "address",
          "name": "user",
          "type": "address"
        },
        {
          "indexed": false,
          "internalType": "string",
          "name": "achievement",
          "type": "string"
        },
        {
          "indexed": false,
          "internalType": "uint256",
          "name": "reward",
          "type": "uint256"
        }
      ],
      "name": "AchievementUnlocked",
      "type": "event"
    },
    {
      "anonymous": false,
      "inputs": [
        {
          "indexed": true,
          "internalType": "address",
          "name": "user",
          "type": "address"
        },
        {
          "indexed": false,
          "internalType": "bool",
          "name": "blacklisted",
          "type": "bool"
        }
      ],
      "name": "BlacklistUpdated",
      "type": "event"
    },
    {
      "anonymous": false,
      "inputs": [
        {
          "indexed": false,
          "internalType": "bool",
          "name": "enabled",
          "type": "bool"
        }
      ],
      "name": "ClaimingToggled",
      "type": "event"
    },
    {
      "anonymous": false,
      "inputs": [
        {
          "indexed": true,
          "internalType": "address",
          "name": "user",
          "type": "address"
        },
        {
          "indexed": false,
          "internalType": "uint256",
          "name": "baseAmount",
          "type": "uint256"
        },
        {
          "indexed": false,
          "internalType": "uint256",
          "name": "streakBonus",
          "type": "uint256"
        },
        {
          "indexed": false,
          "internalType": "uint256",
          "name": "totalAmount",
          "type": "uint256"
        },
        {
          "indexed": false,
          "internalType": "uint256",
          "name": "currentStreak",
          "type": "uint256"
        },
        {
          "indexed": false,
          "internalType": "bool",
          "name": "wonJackpot",
          "type": "bool"
        }
      ],
      "name": "DailyClaimed",
      "type": "event"
    },
    {
      "anonymous": false,
      "inputs": [
        {
          "indexed": true,
          "internalType": "address",
          "name": "to",
          "type": "address"
        },
        {
          "indexed": false,
          "internalType": "uint256",
          "name": "amount",
          "type": "uint256"
        }
      ],
      "name": "EmergencyWithdraw",
      "type": "event"
    },
    {
      "anonymous": false,
      "inputs": [
        {
          "indexed": false,
          "internalType": "bool",
          "name": "isPaused",
          "type": "bool"
        }
      ],
      "name": "Paused",
      "type": "event"
    },
    {
      "anonymous": false,
      "inputs": [
        {
          "indexed": true,
          "internalType": "address",
          "name": "referrer",
          "type": "address"
        },
        {
          "indexed": true,
          "internalType": "address",
          "name": "referred",
          "type": "address"
        },
        {
          "indexed": false,
          "internalType": "uint256",
          "name": "rewardEach",
          "type": "uint256"
        }
      ],
      "name": "ReferralRegistered",
      "type": "event"
    },
    {
      "anonymous": false,
      "inputs": [
        {
          "indexed": false,
          "internalType": "string",
          "name": "rewardType",
          "type": "string"
        },
        {
          "indexed": false,
          "internalType": "uint256",
          "name": "oldValue",
          "type": "uint256"
        },
        {
          "indexed": false,
          "internalType": "uint256",
          "name": "newValue",
          "type": "uint256"
        }
      ],
      "name": "RewardUpdated",
      "type": "event"
    },
    {
      "anonymous": false,
      "inputs": [
        {
          "indexed": true,
          "internalType": "address",
          "name": "from",
          "type": "address"
        },
        {
          "indexed": false,
          "internalType": "uint256",
          "name": "amount",
          "type": "uint256"
        }
      ],
      "name": "SwipeDeposited",
      "type": "event"
    },
    {
      "anonymous": false,
      "inputs": [
        {
          "indexed": true,
          "internalType": "address",
          "name": "user",
          "type": "address"
        },
        {
          "indexed": false,
          "internalType": "string",
          "name": "taskType",
          "type": "string"
        },
        {
          "indexed": false,
          "internalType": "uint256",
          "name": "reward",
          "type": "uint256"
        }
      ],
      "name": "TaskCompleted",
      "type": "event"
    },
    {
      "anonymous": false,
      "inputs": [
        {
          "indexed": true,
          "internalType": "address",
          "name": "newVerifier",
          "type": "address"
        }
      ],
      "name": "TaskVerifierUpdated",
      "type": "event"
    },
    {
      "anonymous": false,
      "inputs": [
        {
          "indexed": true,
          "internalType": "address",
          "name": "user",
          "type": "address"
        },
        {
          "indexed": false,
          "internalType": "uint256",
          "name": "streak",
          "type": "uint256"
        },
        {
          "indexed": false,
          "internalType": "bool",
          "name": "achievements",
          "type": "bool"
        }
      ],
      "name": "UserMigrated",
      "type": "event"
    },
    {
      "inputs": [],
      "name": "baseDailyReward",
      "outputs": [
        {
          "internalType": "uint256",
          "name": "",
          "type": "uint256"
        }
      ],
      "stateMutability": "view",
      "type": "function"
    },
    {
      "inputs": [
        {
          "internalType": "address[]",
          "name": "usersToMigrate",
          "type": "address[]"
        }
      ],
      "name": "batchMigrateFromV2",
      "outputs": [],
      "stateMutability": "nonpayable",
      "type": "function"
    },
    {
      "inputs": [
        {
          "internalType": "address[]",
          "name": "userAddresses",
          "type": "address[]"
        },
        {
          "internalType": "bool[]",
          "name": "blacklisted",
          "type": "bool[]"
        }
      ],
      "name": "batchSetBlacklist",
      "outputs": [],
      "stateMutability": "nonpayable",
      "type": "function"
    },
    {
      "inputs": [],
      "name": "betaTesterReward",
      "outputs": [
        {
          "internalType": "uint256",
          "name": "",
          "type": "uint256"
        }
      ],
      "stateMutability": "view",
      "type": "function"
    },
    {
      "inputs": [
        {
          "internalType": "address",
          "name": "",
          "type": "address"
        }
      ],
      "name": "blacklist",
      "outputs": [
        {
          "internalType": "bool",
          "name": "",
          "type": "bool"
        }
      ],
      "stateMutability": "view",
      "type": "function"
    },
    {
      "inputs": [
        {
          "internalType": "string",
          "name": "achievementType",
          "type": "string"
        },
        {
          "internalType": "bytes",
          "name": "signature",
          "type": "bytes"
        }
      ],
      "name": "claimAchievement",
      "outputs": [],
      "stateMutability": "nonpayable",
      "type": "function"
    },
    {
      "inputs": [
        {
          "internalType": "bytes",
          "name": "signature",
          "type": "bytes"
        }
      ],
      "name": "claimDaily",
      "outputs": [],
      "stateMutability": "nonpayable",
      "type": "function"
    },
    {
      "inputs": [],
      "name": "claimingEnabled",
      "outputs": [
        {
          "internalType": "bool",
          "name": "",
          "type": "bool"
        }
      ],
      "stateMutability": "view",
      "type": "function"
    },
    {
      "inputs": [
        {
          "internalType": "string",
          "name": "taskType",
          "type": "string"
        },
        {
          "internalType": "bytes",
          "name": "signature",
          "type": "bytes"
        }
      ],
      "name": "completeTask",
      "outputs": [],
      "stateMutability": "nonpayable",
      "type": "function"
    },
    {
      "inputs": [],
      "name": "createPredictionReward",
      "outputs": [
        {
          "internalType": "uint256",
          "name": "",
          "type": "uint256"
        }
      ],
      "stateMutability": "view",
      "type": "function"
    },
    {
      "inputs": [
        {
          "internalType": "address",
          "name": "",
          "type": "address"
        }
      ],
      "name": "dailyTasks",
      "outputs": [
        {
          "internalType": "bool",
          "name": "shareCast",
          "type": "bool"
        },
        {
          "internalType": "bool",
          "name": "createPrediction",
          "type": "bool"
        },
        {
          "internalType": "bool",
          "name": "tradingVolume",
          "type": "bool"
        },
        {
          "internalType": "uint256",
          "name": "resetDay",
          "type": "uint256"
        }
      ],
      "stateMutability": "view",
      "type": "function"
    },
    {
      "inputs": [
        {
          "internalType": "uint256",
          "name": "amount",
          "type": "uint256"
        }
      ],
      "name": "depositSwipe",
      "outputs": [],
      "stateMutability": "nonpayable",
      "type": "function"
    },
    {
      "inputs": [],
      "name": "emergencyWithdraw",
      "outputs": [],
      "stateMutability": "nonpayable",
      "type": "function"
    },
    {
      "inputs": [],
      "name": "followSocialsReward",
      "outputs": [
        {
          "internalType": "uint256",
          "name": "",
          "type": "uint256"
        }
      ],
      "stateMutability": "view",
      "type": "function"
    },
    {
      "inputs": [],
      "name": "getPoolStats",
      "outputs": [
        {
          "internalType": "uint256",
          "name": "poolBalance",
          "type": "uint256"
        },
        {
          "internalType": "uint256",
          "name": "distributed",
          "type": "uint256"
        },
        {
          "internalType": "uint256",
          "name": "userCount",
          "type": "uint256"
        },
        {
          "internalType": "uint256",
          "name": "claimCount",
          "type": "uint256"
        }
      ],
      "stateMutability": "view",
      "type": "function"
    },
    {
      "inputs": [
        {
          "internalType": "address",
          "name": "user",
          "type": "address"
        }
      ],
      "name": "getUserAchievements",
      "outputs": [
        {
          "internalType": "bool",
          "name": "isBetaTester",
          "type": "bool"
        },
        {
          "internalType": "bool",
          "name": "hasFollowedSocials",
          "type": "bool"
        },
        {
          "internalType": "bool",
          "name": "hasStreak7",
          "type": "bool"
        },
        {
          "internalType": "bool",
          "name": "hasStreak30",
          "type": "bool"
        },
        {
          "internalType": "uint256",
          "name": "referrals",
          "type": "uint256"
        }
      ],
      "stateMutability": "view",
      "type": "function"
    },
    {
      "inputs": [
        {
          "internalType": "address",
          "name": "user",
          "type": "address"
        }
      ],
      "name": "getUserDailyTasks",
      "outputs": [
        {
          "internalType": "bool",
          "name": "shareCast",
          "type": "bool"
        },
        {
          "internalType": "bool",
          "name": "createPrediction",
          "type": "bool"
        },
        {
          "internalType": "bool",
          "name": "tradingVolume",
          "type": "bool"
        },
        {
          "internalType": "bool",
          "name": "needsReset",
          "type": "bool"
        }
      ],
      "stateMutability": "view",
      "type": "function"
    },
    {
      "inputs": [
        {
          "internalType": "address",
          "name": "user",
          "type": "address"
        }
      ],
      "name": "getUserStats",
      "outputs": [
        {
          "internalType": "uint256",
          "name": "lastClaimTimestamp",
          "type": "uint256"
        },
        {
          "internalType": "uint256",
          "name": "currentStreak",
          "type": "uint256"
        },
        {
          "internalType": "uint256",
          "name": "longestStreak",
          "type": "uint256"
        },
        {
          "internalType": "uint256",
          "name": "totalClaimed",
          "type": "uint256"
        },
        {
          "internalType": "uint256",
          "name": "jackpotsWon",
          "type": "uint256"
        },
        {
          "internalType": "bool",
          "name": "canClaimToday",
          "type": "bool"
        },
        {
          "internalType": "uint256",
          "name": "nextClaimTime",
          "type": "uint256"
        },
        {
          "internalType": "uint256",
          "name": "potentialReward",
          "type": "uint256"
        },
        {
          "internalType": "bool",
          "name": "isMigrated",
          "type": "bool"
        }
      ],
      "stateMutability": "view",
      "type": "function"
    },
    {
      "inputs": [
        {
          "internalType": "address",
          "name": "",
          "type": "address"
        }
      ],
      "name": "hasUsedReferral",
      "outputs": [
        {
          "internalType": "bool",
          "name": "",
          "type": "bool"
        }
      ],
      "stateMutability": "view",
      "type": "function"
    },
    {
      "inputs": [],
      "name": "jackpotAmount",
      "outputs": [
        {
          "internalType": "uint256",
          "name": "",
          "type": "uint256"
        }
      ],
      "stateMutability": "view",
      "type": "function"
    },
    {
      "inputs": [],
      "name": "jackpotChance",
      "outputs": [
        {
          "internalType": "uint256",
          "name": "",
          "type": "uint256"
        }
      ],
      "stateMutability": "view",
      "type": "function"
    },
    {
      "inputs": [],
      "name": "maxStreakBonusDays",
      "outputs": [
        {
          "internalType": "uint256",
          "name": "",
          "type": "uint256"
        }
      ],
      "stateMutability": "view",
      "type": "function"
    },
    {
      "inputs": [],
      "name": "migrateFromV1",
      "outputs": [],
      "stateMutability": "nonpayable",
      "type": "function"
    },
    {
      "inputs": [],
      "name": "migrateFromV2",
      "outputs": [],
      "stateMutability": "nonpayable",
      "type": "function"
    },
    {
      "inputs": [],
      "name": "migrationEnabled",
      "outputs": [
        {
          "internalType": "bool",
          "name": "",
          "type": "bool"
        }
      ],
      "stateMutability": "view",
      "type": "function"
    },
    {
      "inputs": [],
      "name": "owner",
      "outputs": [
        {
          "internalType": "address",
          "name": "",
          "type": "address"
        }
      ],
      "stateMutability": "view",
      "type": "function"
    },
    {
      "inputs": [],
      "name": "paused",
      "outputs": [
        {
          "internalType": "bool",
          "name": "",
          "type": "bool"
        }
      ],
      "stateMutability": "view",
      "type": "function"
    },
    {
      "inputs": [
        {
          "internalType": "address",
          "name": "",
          "type": "address"
        }
      ],
      "name": "referralCount",
      "outputs": [
        {
          "internalType": "uint256",
          "name": "",
          "type": "uint256"
        }
      ],
      "stateMutability": "view",
      "type": "function"
    },
    {
      "inputs": [],
      "name": "referralReward",
      "outputs": [
        {
          "internalType": "uint256",
          "name": "",
          "type": "uint256"
        }
      ],
      "stateMutability": "view",
      "type": "function"
    },
    {
      "inputs": [
        {
          "internalType": "address",
          "name": "",
          "type": "address"
        }
      ],
      "name": "referredBy",
      "outputs": [
        {
          "internalType": "address",
          "name": "",
          "type": "address"
        }
      ],
      "stateMutability": "view",
      "type": "function"
    },
    {
      "inputs": [
        {
          "internalType": "address",
          "name": "referrer",
          "type": "address"
        },
        {
          "internalType": "bytes",
          "name": "signature",
          "type": "bytes"
        }
      ],
      "name": "registerReferral",
      "outputs": [],
      "stateMutability": "nonpayable",
      "type": "function"
    },
    {
      "inputs": [
        {
          "internalType": "uint256",
          "name": "amount",
          "type": "uint256"
        }
      ],
      "name": "setBaseDailyReward",
      "outputs": [],
      "stateMutability": "nonpayable",
      "type": "function"
    },
    {
      "inputs": [
        {
          "internalType": "uint256",
          "name": "amount",
          "type": "uint256"
        }
      ],
      "name": "setBetaTesterReward",
      "outputs": [],
      "stateMutability": "nonpayable",
      "type": "function"
    },
    {
      "inputs": [
        {
          "internalType": "address",
          "name": "user",
          "type": "address"
        },
        {
          "internalType": "bool",
          "name": "_blacklisted",
          "type": "bool"
        }
      ],
      "name": "setBlacklist",
      "outputs": [],
      "stateMutability": "nonpayable",
      "type": "function"
    },
    {
      "inputs": [
        {
          "internalType": "bool",
          "name": "enabled",
          "type": "bool"
        }
      ],
      "name": "setClaimingEnabled",
      "outputs": [],
      "stateMutability": "nonpayable",
      "type": "function"
    },
    {
      "inputs": [
        {
          "internalType": "uint256",
          "name": "amount",
          "type": "uint256"
        }
      ],
      "name": "setCreatePredictionReward",
      "outputs": [],
      "stateMutability": "nonpayable",
      "type": "function"
    },
    {
      "inputs": [
        {
          "internalType": "uint256",
          "name": "amount",
          "type": "uint256"
        }
      ],
      "name": "setFollowSocialsReward",
      "outputs": [],
      "stateMutability": "nonpayable",
      "type": "function"
    },
    {
      "inputs": [
        {
          "internalType": "uint256",
          "name": "amount",
          "type": "uint256"
        }
      ],
      "name": "setJackpotAmount",
      "outputs": [],
      "stateMutability": "nonpayable",
      "type": "function"
    },
    {
      "inputs": [
        {
          "internalType": "uint256",
          "name": "chance",
          "type": "uint256"
        }
      ],
      "name": "setJackpotChance",
      "outputs": [],
      "stateMutability": "nonpayable",
      "type": "function"
    },
    {
      "inputs": [
        {
          "internalType": "uint256",
          "name": "days_",
          "type": "uint256"
        }
      ],
      "name": "setMaxStreakBonusDays",
      "outputs": [],
      "stateMutability": "nonpayable",
      "type": "function"
    },
    {
      "inputs": [
        {
          "internalType": "bool",
          "name": "enabled",
          "type": "bool"
        }
      ],
      "name": "setMigrationEnabled",
      "outputs": [],
      "stateMutability": "nonpayable",
      "type": "function"
    },
    {
      "inputs": [
        {
          "internalType": "bool",
          "name": "_paused",
          "type": "bool"
        }
      ],
      "name": "setPaused",
      "outputs": [],
      "stateMutability": "nonpayable",
      "type": "function"
    },
    {
      "inputs": [
        {
          "internalType": "uint256",
          "name": "amount",
          "type": "uint256"
        }
      ],
      "name": "setReferralReward",
      "outputs": [],
      "stateMutability": "nonpayable",
      "type": "function"
    },
    {
      "inputs": [
        {
          "internalType": "uint256",
          "name": "amount",
          "type": "uint256"
        }
      ],
      "name": "setShareCastReward",
      "outputs": [],
      "stateMutability": "nonpayable",
      "type": "function"
    },
    {
      "inputs": [
        {
          "internalType": "uint256",
          "name": "amount",
          "type": "uint256"
        }
      ],
      "name": "setStreak30Reward",
      "outputs": [],
      "stateMutability": "nonpayable",
      "type": "function"
    },
    {
      "inputs": [
        {
          "internalType": "uint256",
          "name": "amount",
          "type": "uint256"
        }
      ],
      "name": "setStreak7Reward",
      "outputs": [],
      "stateMutability": "nonpayable",
      "type": "function"
    },
    {
      "inputs": [
        {
          "internalType": "uint256",
          "name": "amount",
          "type": "uint256"
        }
      ],
      "name": "setStreakBonusPerDay",
      "outputs": [],
      "stateMutability": "nonpayable",
      "type": "function"
    },
    {
      "inputs": [
        {
          "internalType": "address",
          "name": "newVerifier",
          "type": "address"
        }
      ],
      "name": "setTaskVerifier",
      "outputs": [],
      "stateMutability": "nonpayable",
      "type": "function"
    },
    {
      "inputs": [
        {
          "internalType": "uint256",
          "name": "amount",
          "type": "uint256"
        }
      ],
      "name": "setTradingVolumeReward",
      "outputs": [],
      "stateMutability": "nonpayable",
      "type": "function"
    },
    {
      "inputs": [],
      "name": "shareCastReward",
      "outputs": [
        {
          "internalType": "uint256",
          "name": "",
          "type": "uint256"
        }
      ],
      "stateMutability": "view",
      "type": "function"
    },
    {
      "inputs": [],
      "name": "streak30Reward",
      "outputs": [
        {
          "internalType": "uint256",
          "name": "",
          "type": "uint256"
        }
      ],
      "stateMutability": "view",
      "type": "function"
    },
    {
      "inputs": [],
      "name": "streak7Reward",
      "outputs": [
        {
          "internalType": "uint256",
          "name": "",
          "type": "uint256"
        }
      ],
      "stateMutability": "view",
      "type": "function"
    },
    {
      "inputs": [],
      "name": "streakBonusPerDay",
      "outputs": [
        {
          "internalType": "uint256",
          "name": "",
          "type": "uint256"
        }
      ],
      "stateMutability": "view",
      "type": "function"
    },
    {
      "inputs": [],
      "name": "swipeToken",
      "outputs": [
        {
          "internalType": "contract IERC20",
          "name": "",
          "type": "address"
        }
      ],
      "stateMutability": "view",
      "type": "function"
    },
    {
      "inputs": [],
      "name": "taskVerifier",
      "outputs": [
        {
          "internalType": "address",
          "name": "",
          "type": "address"
        }
      ],
      "stateMutability": "view",
      "type": "function"
    },
    {
      "inputs": [],
      "name": "totalClaims",
      "outputs": [
        {
          "internalType": "uint256",
          "name": "",
          "type": "uint256"
        }
      ],
      "stateMutability": "view",
      "type": "function"
    },
    {
      "inputs": [],
      "name": "totalDistributed",
      "outputs": [
        {
          "internalType": "uint256",
          "name": "",
          "type": "uint256"
        }
      ],
      "stateMutability": "view",
      "type": "function"
    },
    {
      "inputs": [],
      "name": "totalUsers",
      "outputs": [
        {
          "internalType": "uint256",
          "name": "",
          "type": "uint256"
        }
      ],
      "stateMutability": "view",
      "type": "function"
    },
    {
      "inputs": [],
      "name": "tradingVolumeReward",
      "outputs": [
        {
          "internalType": "uint256",
          "name": "",
          "type": "uint256"
        }
      ],
      "stateMutability": "view",
      "type": "function"
    },
    {
      "inputs": [
        {
          "internalType": "address",
          "name": "newOwner",
          "type": "address"
        }
      ],
      "name": "transferOwnership",
      "outputs": [],
      "stateMutability": "nonpayable",
      "type": "function"
    },
    {
      "inputs": [
        {
          "internalType": "address",
          "name": "",
          "type": "address"
        }
      ],
      "name": "users",
      "outputs": [
        {
          "internalType": "uint256",
          "name": "lastClaimTimestamp",
          "type": "uint256"
        },
        {
          "internalType": "uint256",
          "name": "currentStreak",
          "type": "uint256"
        },
        {
          "internalType": "uint256",
          "name": "longestStreak",
          "type": "uint256"
        },
        {
          "internalType": "uint256",
          "name": "totalClaimed",
          "type": "uint256"
        },
        {
          "internalType": "uint256",
          "name": "lastTaskResetDay",
          "type": "uint256"
        },
        {
          "internalType": "uint256",
          "name": "jackpotsWon",
          "type": "uint256"
        },
        {
          "internalType": "bool",
          "name": "isBetaTester",
          "type": "bool"
        },
        {
          "internalType": "bool",
          "name": "hasFollowedSocials",
          "type": "bool"
        },
        {
          "internalType": "bool",
          "name": "hasStreak7Achievement",
          "type": "bool"
        },
        {
          "internalType": "bool",
          "name": "hasStreak30Achievement",
          "type": "bool"
        },
        {
          "internalType": "bool",
          "name": "migrated",
          "type": "bool"
        }
      ],
      "stateMutability": "view",
      "type": "function"
    },
    {
      "inputs": [],
      "name": "v1Contract",
      "outputs": [
        {
          "internalType": "contract ISwipeDailyRewardsV1",
          "name": "",
          "type": "address"
        }
      ],
      "stateMutability": "view",
      "type": "function"
    },
    {
      "inputs": [],
      "name": "v2Contract",
      "outputs": [
        {
          "internalType": "contract ISwipeDailyRewardsV2",
          "name": "",
          "type": "address"
        }
      ],
      "stateMutability": "view",
      "type": "function"
    }
  ],
  "bytecode": "0x60e0346200027357601f6200459838819003918201601f19168301916001600160401b03831184841017620002785780849260809460405283398101031262000273576200004d816200028e565b906200005c602082016200028e565b62000078606062000070604085016200028e565b93016200028e565b91690a968163f0a57b4000008060015569021e19e0c9bab2400000600255600a6003556934f086f3b33b6840000090816004556005805580600655690fe1c215e8f838e0000060075569152d02c7e14af680000090816008556009556969e10de76676d0800000600a55600b55600c5569d3c21bcecceda1000000600d5560115460018060a01b038095169283156200022e5785168015620001e957600080546001600160a01b031916331790556080939093526001600160b81b031916919091176201000160a01b17601155821660a0521660c0526040516142f49081620002a48239608051818181610fe3015281816112730152818161161a0152818161186f01528181611b24015281816124b301528181612e7201526136e4015260a0518181816108d101526126ea015260c051818181610492015281816104de015281816105e5015281816106e60152818161095d015281816109f601528181610afb01528181610bf501526123d50152f35b60405162461bcd60e51b815260206004820152601860248201527f496e76616c6964207665726966696572206164647265737300000000000000006044820152606490fd5b60405162461bcd60e51b815260206004820152601560248201527f496e76616c696420746f6b656e206164647265737300000000000000000000006044820152606490fd5b600080fd5b634e487b7160e01b600052604160045260246000fd5b51906001600160a01b0382168203620002735756fe608080604052600436101561001357600080fd5b60003560e01c9081630604ce2714613a785750806309b5a33a14613a395780630e141a9b14613a13578063153b0d1e1461398357806316c38b3c1461390e5780631e23a7f0146138e55780631f66351a146138395780632f44a61c1461381b57806335b944bf146137f557806335dbc94a1461374f5780633f9bcde21461373157806341c6138314613713578063492c70fb146136ce5780634d683674146136b05780634e43603a14613565578063521c27f214613518578063565c99ac146133c4578063575c0f831461331c5780635951ac65146132745780635a9d93f114612ca15780635c975abb14612c7b5780636659887414612bcf5780636fea453814612b2557806370ed462014612a7a57806379b9c399146126825780637a994cd0146124225780637bb030851461240457806382fb31fe146123bf5780638372acf7146123175780638b311fbc1461224b5780638beaf1c5146121a65780638da5cb5b1461217d5780638fb6c6f6146120d75780639cc8e7eb146120b95780639fb3cf4f14611938578063a079d40c1461182e578063a87430ba14611776578063a90f8e9a1461173b578063b1eac37e1461171d578063b6c72888146116a8578063bbb85188146115ee578063bdf0f1aa1461151f578063bff1f9e114611501578063c7105609146114be578063cecfbead146114a0578063cf17beaf146113ec578063db2e21bc14611230578063db3eef3f14610f0b578063db74559b14610ed1578063df312b1e14610e6d578063dfae07ff14610dc3578063e7865e5714610da5578063e91c7d3314610d87578063e9aae65014610d69578063e9b7d96414610900578063ed1ec0f4146108bb578063ed4c85a91461089d578063edd6c8481461087f578063ef5ab0d51461042f578063efca2eed14610411578063f09153c414610398578063f2fde38b146103185763f9f92be4146102d457600080fd5b34610313576020366003190112610313576001600160a01b036102f5613a93565b166000526012602052602060ff604060002054166040519015158152f35b600080fd5b3461031357602036600319011261031357610331613a93565b600054906001600160a01b039061034b3383851614613d66565b16908115610363576001600160a01b03191617600055005b60405162461bcd60e51b815260206004820152600d60248201526c24b73b30b634b21037bbb732b960991b6044820152606490fd5b34610313576020366003190112610313576001600160a01b036103b9613a93565b16600052601360205260a0600660406000200154601660205260406000205460ff6040519281811615158452818160081c1615156020850152818160101c161515604085015260181c16151560608301526080820152f35b34610313576000366003190112610313576020600e54604051908152f35b346103135760003660031901126103135761045160ff60115460b01c16613b62565b33600052601360205261047260ff60066040600020015460201c1615613ba3565b33600052601260205261048d60ff6040600020541615613be2565b6104c17f00000000000000000000000000000000000000000000000000000000000000006001600160a01b03161515613c39565b60405163543a185d60e11b815233600482015261016080826024817f00000000000000000000000000000000000000000000000000000000000000006001600160a01b03165afa9081156107b8576000906000936000806000946000809660009460009660009860009b610837575b5050831580159a8b9161082f575b50156107f35760069433600052601360205260406000209485558b600186015560028501556003840155600483015560058201550161058985829060ff801983541691151516179055565b805464010000000064ffffffff001990911661ff0084151560081b161762ff000085151560101b161763ff00000086151560181b1617179055604051635487c74d60e11b81523360048201526020816024816001600160a01b037f0000000000000000000000000000000000000000000000000000000000000000165afa9081156107b8576000916107c4575b506001600160a01b0316806106a4575b509061067493929160008051602061427f83398151915295610691575b8315610689575b508215610681575b508115610679575b506040805194855290151560208501523393918291820190565b0390a2005b90508461065a565b915085610652565b92508661064a565b61069c600f54613d57565b600f55610643565b3360005260156020526040600020906001600160601b0360a01b8254161790556040516304dad19d60e11b815233600482015260208160248160018060a01b037f0000000000000000000000000000000000000000000000000000000000000000165afa9081156107b85760009161075d575b509060008051602061427f833981519152956107526106749695949333600052601760205260406000209060ff801983541691151516179055565b955090919293610626565b9493929190506020853d6020116107b0575b8161077c60209383613c97565b810103126103135760008051602061427f833981519152956107526107a361067497613cb9565b9293949596505095610717565b3d915061076f565b6040513d6000823e3d90fd5b6107e6915060203d6020116107ec575b6107de8183613c97565b810190613d38565b87610616565b503d6107d4565b60405162461bcd60e51b81526020600482015260146024820152732ab9b2b9103737ba103337bab7321034b7102b1960611b6044820152606490fd5b90508c61053e565b9950995050505050505050506108629250803d10610878575b61085a8183613c97565b810190613cc6565b9899939790969195929490939290918b80610530565b503d610850565b34610313576000366003190112610313576020600854604051908152f35b34610313576000366003190112610313576020600754604051908152f35b34610313576000366003190112610313576040517f00000000000000000000000000000000000000000000000000000000000000006001600160a01b03168152602090f35b346103135760203660031901126103135760043567ffffffffffffffff811161031357610931903690600401613ab8565b9061094760018060a01b03600054163314613d66565b61095860ff60115460b01c16613b62565b61098c7f00000000000000000000000000000000000000000000000000000000000000006001600160a01b03161515613c39565b60005b82811061099857005b6001600160a01b036109b36109ae838686613d9e565b613dc4565b169081600052601360205260ff60066040600020015460201c168015610d55575b610d4b5760405163543a185d60e11b81526004810183905291610160836024817f00000000000000000000000000000000000000000000000000000000000000006001600160a01b03165afa9283156107b8576000906000906000806000946000809660009360009560009760009d610d10575b508415809d819e610d07575b50610cf25760008b815260136020908152604091829020968755600187018b90556002870192909255600386019290925560048086019390935560058501939093556006909301805464010000000064ffffffffff199091168a151560ff161761ff0087151560081b161762ff000088151560101b161763ff00000089151560181b16171790559151635487c74d60e11b8152918201889052816024816001600160a01b037f0000000000000000000000000000000000000000000000000000000000000000165afa9081156107b857600091610cd3575b506001600160a01b031680610bb8575b509060008051602061427f83398151915294939291610b889815610ba5575b8415610b9d575b508315610b95575b508215610b8d575b50604080519182529115156020820152a2613d57565b61098f565b915088610b72565b925089610b6a565b93508a610b62565b600f610bb18154613d57565b9055610b5b565b60008781526015602090815260409182902080546001600160a01b031916909317909255516304dad19d60e11b81526004810188905290816024817f00000000000000000000000000000000000000000000000000000000000000006001600160a01b03165afa9081156107b857600091610c76575b5090610b8898610c6a60008051602061427f833981519152979695949389600052601760205260406000209060ff801983541691151516179055565b98509091929394610b3c565b959493929190506020863d602011610ccb575b81610c9660209383613c97565b8101031261031357610b8898610c6a610cbd60008051602061427f83398151915298613cb9565b929394959697505098610c2e565b3d9150610c89565b610cec915060203d6020116107ec576107de8183613c97565b8b610b2c565b5050505050505050505050610b889150613d57565b90501538610a54565b9950505050505050505050610d379193506101603d610160116108785761085a8183613c97565b9b999398979096919592949291908f610a48565b610b889150613d57565b50601260205260ff604060002054166109d4565b34610313576000366003190112610313576020600154604051908152f35b34610313576000366003190112610313576020600354604051908152f35b34610313576000366003190112610313576020600c54604051908152f35b346103135760203660031901126103135760008051602061429f83398151915260a0600435610dfc600180841b03600054163314613d66565b683635c9adc5dea0000081101580610e59575b610e1890614221565b60025490806002556040519160608352601460608401527353545245414b5f424f4e55535f5045525f44415960601b608084015260208301526040820152a1005b50690a968163f0a57b400000811115610e0f565b34610313576020366003190112610313576001600160a01b03610e8e613a93565b166000526014602052608060406000206001815491015460ff6040519281811615158452818160081c161515602085015260101c16151560408301526060820152f35b34610313576020366003190112610313576001600160a01b03610ef2613a93565b1660005260166020526020604060002054604051908152f35b3461031357610f62610f5d610f1f36613b17565b610f3860ff6011979495979693965460a81c1615613dd8565b3360005260209460128652610f5560ff6040600020541615613e19565b8487336140d0565b613e5e565b610f6b33614092565b33600052601482526040600020610f83368386613f48565b8051908401207f59f9c19ce4d2104b5074afdbd422a67ce762a07b67944dfc1ac72cebc1ef9fb3810361115b575060018154610fc260ff821615613f8f565b60ff1916179055600654905b6040516370a0823160e01b81523060048201527f00000000000000000000000000000000000000000000000000000000000000006001600160a01b0316908481602481855afa80156107b857849060009061112a575b61103092501015613ebe565b3360005260138452600360406000200161104b848254613e9e565b905561105983600e54613e9e565b600e5560405163a9059cbb60e01b815233600482015260248101849052908490829060449082906000905af19384156107b8576000946110d1575b50506110c07f10ddce2fe83f593b5a578fdeaea55181daa98b7e1e4652e712b2c821622fc30793613f0a565b610674604051928392339684613fdb565b90809450813d8311611123575b6110e88183613c97565b81010312610313576110c061111d7f10ddce2fe83f593b5a578fdeaea55181daa98b7e1e4652e712b2c821622fc30794613cb9565b93611094565b503d6110de565b50508481813d8311611154575b6111418183613c97565b8101031261031357836110309151611024565b503d611137565b7f103f7b2dda1595da24c03f5970d4163272b9badb6161a376876bfea67102615c81036111a95750610100815461119860ff8260081c1615613f8f565b61ff00191617905560075490610fce565b7f6c25e4722cb75723d0f45967423f4fefc1866b6db42936b2e4c9827f9d9f8ccd036111f7576201000081546111e560ff8260101c1615613f8f565b62ff0000191617905560085490610fce565b60405162461bcd60e51b8152600481018490526011602482015270496e76616c6964207461736b207479706560781b6044820152606490fd5b34610313576000366003190112610313576000546001600160a01b0390811661125a338214613d66565b6040516370a0823160e01b8152306004820152916020917f00000000000000000000000000000000000000000000000000000000000000008216908385602481855afa9485156107b8576000956113bd575b50841561138b5760405163a9059cbb60e01b81526001600160a01b03919091166004820152602481018590529291908290849060449082906000905af19283156107b857600093611331575b506113237f5fafa99d0643513820be26656b45130b01e1c03062e1266bf36f88cbd3bd969593613f0a565b6000541692604051908152a2005b92508183813d8311611384575b6113488183613c97565b810103126103135761132361137d7f5fafa99d0643513820be26656b45130b01e1c03062e1266bf36f88cbd3bd969594613cb9565b93506112f8565b503d61133e565b60405162461bcd60e51b815260048101859052600a6024820152694e6f2062616c616e636560b01b6044820152606490fd5b9094508381813d83116113e5575b6113d58183613c97565b81010312610313575193856112ac565b503d6113cb565b346103135760203660031901126103135760008051602061429f83398151915260a0600435611425600180841b03600054163314613d66565b69021e19e0c9bab24000008110158061148c575b61144290614221565b60075490806007556040519160608352601860608401527f4352454154455f50524544494354494f4e5f5245574152440000000000000000608084015260208301526040820152a1005b50692a5a058fc295ed000000811115611439565b34610313576000366003190112610313576020600a54604051908152f35b346103135760203660031901126103135760806114e16114dc613a93565b614048565b916040519315158452151560208401521515604083015215156060820152f35b34610313576000366003190112610313576020600f54604051908152f35b346103135760203660031901126103135760043561154860018060a01b03600054163314613d66565b6001811015806115e3575b156115a55760a060008051602061429f8339815191529160055490806005556040519160608352600e60608401526d4a41434b504f545f4348414e434560901b608084015260208301526040820152a1005b60405162461bcd60e51b8152602060048201526016602482015275496e76616c6964206368616e63652028312d3230252960501b6044820152606490fd5b506014811115611553565b34610313576000366003190112610313576040516370a0823160e01b81523060048201526020816024817f00000000000000000000000000000000000000000000000000000000000000006001600160a01b03165afa80156107b857600090611676575b608090600e54600f5460105491604051938452602084015260408301526060820152f35b506020813d82116116a0575b8161168f60209383613c97565b810103126103135760809051611652565b3d9150611682565b34610313576020366003190112610313577f5357603b66ce52ad2bde073bf1baae8a126a96ae712f396257fa4b57169c36ab60206116e4613aa9565b6116f960018060a01b03600054163314613d66565b151560115460ff60a01b8260a01b169060ff60a01b191617601155604051908152a1005b34610313576000366003190112610313576020600454604051908152f35b346103135760203660031901126103135760206001600160a01b038061175f613a93565b166000526015825260406000205416604051908152f35b34610313576020366003190112610313576001600160a01b03611797613a93565b166000526013602052610160604060002060ff815491600181015490600281015460038201546004830154916006600585015494015494604051978852602088015260408701526060860152608085015260a0840152818116151560c0840152818160081c16151560e0840152818160101c161515610100840152818160181c16151561012084015260201c161515610140820152f35b3461031357602080600319360112610313576040516323b872dd60e01b815233600482810191909152306024830152356044820181905291808260648160007f00000000000000000000000000000000000000000000000000000000000000006001600160a01b03165af19182156107b8576000926118de575b506118d37fb9ea67a19ab6bc678d42c223c0b3c9b7947918f351c3377a0e07e1b7332444c792613f0a565b6040519283523392a2005b91508082813d8311611931575b6118f58183613c97565b81010312610313576118d361192a7fb9ea67a19ab6bc678d42c223c0b3c9b7947918f351c3377a0e07e1b7332444c793613cb9565b92506118a8565b503d6118eb565b34610313576020806003193601126103135767ffffffffffffffff6004358181116103135761196b903690600401613ae9565b9290916011549261198260ff8560a81c1615613dd8565b60ff8460a01c161561207d5733600052601283526119a860ff6040600020541615613e19565b611a47611a3360405196858801933360601b948581526a4441494c595f434c41494d60a81b60348b015262015180998a4204603f820152603f81526119ec81613c7b565b519020604051888101917f19457468657265756d205369676e6564204d6573736167653a0a3332000000008352603c820152603c8152611a2b81613c7b565b51902061416d565b6001600160a01b0395861690861614613e5e565b33600052601383526040600020948554908101808211612017574210612040571561202d575b84548015159081611fff575b5015611ff45760018501611a8d8154613d57565b90555b60018501805495866002820180548211611fec575b5050611ac76001549760035490818111600014611fe557505b60025490613eab565b92611ad28489613e9e565b94600e9182546040519089820192428452446040840152606083015260748201524360948201526094815260c081019281841090841117611fcf5760649260405251902006600554119687611fab575b7f000000000000000000000000000000000000000000000000000000000000000016916040516370a0823160e01b918282523060048301528882602481885afa80156107b8578892600091611f77575b50600392611b81911015613ebe565b42815501611b90878254613e9e565b9055611b9d868354613e9e565b8255611baa601054613d57565b601055611bb633614092565b33600052601387526040600020916001830160078154101580611f65575b611e0f575b601e9054101580611dfd575b611ca6575b505060405163a9059cbb60e01b81523360048201526024810186905291869150829060449082906000905af180156107b857600090611c70575b611c2e9150613f0a565b54926040519586528501526040840152606083015260808201527f0b3cf2cd3b2ce31e0ff7cbb3f2562d51047e60d290a130fefc85fb019ee6fcc060a03392a2005b508481813d8311611c9f575b611c868183613c97565b8101031261031357611c9a611c2e91613cb9565b611c24565b503d611c7c565b60068301805463ff000000191663010000001790556040519182523060048301528782602481875afa80156107b8578892600091611dce575b50600d5480911015611cf2575b50611bea565b611d046003611d3e9501918254613e9e565b9055600d5490611d15828254613e9e565b905560405163a9059cbb60e01b8152336004820152602481019190915291829081906044820190565b03816000865af180156107b857611d9a575b50600d546040519060408252600d60408301526c33305f4441595f53545245414b60981b60608301528682015260008051602061425f83398151915260803392a287858180611cec565b8581813d8311611dc7575b611daf8183613c97565b8101031261031357611dc090613cb9565b5087611d50565b503d611da5565b83819492503d8311611df6575b611de58183613c97565b81010312610313578791518b611cdf565b503d611ddb565b5060ff600684015460181c1615611be5565b60068401805462ff0000191662010000179055604051838152306004820152908982602481895afa9182156107b857600092611f36575b50600c5480921015611e5a575b9050611bd9565b611ea791611e6d60038701918254613e9e565b905589600c54611e7e818654613e9e565b855560405163a9059cbb60e01b8152336004820152602481019190915292839081906044820190565b038160008a5af180156107b857611f01575b601e9150600c546040519060408252600c60408301526b375f4441595f53545245414b60a01b60608301528b82015260008051602061425f83398151915260803392a2611e53565b8982813d8311611f2f575b611f168183613c97565b8101031261031357611f29601e92613cb9565b50611eb9565b503d611f0c565b9091508981813d8311611f5e575b611f4e8183613c97565b810103126103135751908c611e46565b503d611f44565b5060ff600685015460101c1615611bd4565b8093508a8092503d8311611fa4575b611f908183613c97565b810103126103135790518791906003611b72565b503d611f86565b94611fb99060045490613e9e565b9460058301611fc88154613d57565b9055611b22565b634e487b7160e01b600052604160045260246000fd5b9050611abe565b558688611aa5565b600180860155611a90565b90506202a30081018091116120175742111586611a79565b634e487b7160e01b600052601160045260246000fd5b612038600f54613d57565b600f55611a6d565b60405162461bcd60e51b8152600481018590526015602482015274416c726561647920636c61696d656420746f64617960581b6044820152606490fd5b60405162461bcd60e51b815260048101849052601460248201527310db185a5b5a5b99c81a5cc8191a5cd8589b195960621b6044820152606490fd5b34610313576000366003190112610313576020600654604051908152f35b346103135760203660031901126103135760008051602061429f83398151915260a0600435612110600180841b03600054163314613d66565b69021e19e0c9bab240000081101580612169575b61212d90614221565b60095490806009556040519160608352600f60608401526e149151915494905317d49155d05491608a1b608084015260208301526040820152a1005b5069152d02c7e14af6800000811115612124565b34610313576000366003190112610313576000546040516001600160a01b039091168152602090f35b346103135760203660031901126103135760008051602061429f83398151915260a06004356121df600180841b03600054163314613d66565b690a968163f0a57b40000081101580612237575b6121fc90614221565b60045490806004556040519160608352600e60608401526d129050d2d413d517d05353d5539560921b608084015260208301526040820152a1005b5069d3c21bcecceda10000008111156121f3565b346103135760203660031901126103135760043561227460018060a01b03600054163314613d66565b60058110158061230c575b156122d85760a060008051602061429f833981519152916003549080600355604051916060835260156060840152744d41585f53545245414b5f424f4e55535f4441595360581b608084015260208301526040820152a1005b60405162461bcd60e51b815260206004820152600c60248201526b496e76616c6964206461797360a01b6044820152606490fd5b50601e81111561227f565b346103135760203660031901126103135760008051602061429f83398151915260a0600435612350600180841b03600054163314613d66565b69021e19e0c9bab2400000811015806123ab575b61236d90614221565b60065490806006556040519160608352601160608401527014d210549157d0d054d517d49155d05491607a1b608084015260208301526040820152a1005b50692a5a058fc295ed000000811115612364565b34610313576000366003190112610313576040517f00000000000000000000000000000000000000000000000000000000000000006001600160a01b03168152602090f35b34610313576000366003190112610313576020600b54604051908152f35b3461031357612436610f5d610f1f36613b17565b336000526013825260406000209061244f368286613f48565b8051908401207fb54e063503447bce6485adab005b8755b54ded950878440b84f8e79a1196702e81036125ed5750600682016001815461249260ff82161561400a565b60ff1916179055600a54915b6040516370a0823160e01b81523060048201527f00000000000000000000000000000000000000000000000000000000000000006001600160a01b0316918582602481865afa80156107b85785926000916125b9575b50600392612503911015613ebe565b0161250f848254613e9e565b905561251d83600e54613e9e565b600e5560405163a9059cbb60e01b815233600482015260248101849052908490829060449082906000905af19384156107b857600094612572575b50506110c060008051602061425f83398151915293613f0a565b90809450813d83116125b2575b6125898183613c97565b81010312610313576110c06125ac60008051602061425f83398151915294613cb9565b93612558565b503d61257f565b809350878092503d83116125e6575b6125d28183613c97565b8101031261031357905184919060036124f4565b503d6125c8565b7f126235d9d2e6036d7fac7e99f1dcd31ada7ff126658a7dd43824f3e4f265d0390361263d5760068201610100815461262c60ff8260081c161561400a565b61ff001916179055600b549161249e565b60405162461bcd60e51b815260048101849052601860248201527f496e76616c696420616368696576656d656e74207479706500000000000000006044820152606490fd5b34610313576000366003190112610313576126a460ff60115460b01c16613b62565b336000526020601381526126c560ff600660406000200154831c1615613ba3565b33600052601281526126df60ff6040600020541615613be2565b6001600160a01b03907f00000000000000000000000000000000000000000000000000000000000000008216908115612a405760405163543a185d60e11b8152336004820152610140908181602481875afa9283156107b85760009460009660009660008060009160009a60009860009a60009c6129a9575b5050841561296d5733600081815260138a52604090819020968755600187018f90556002870192909255600386019290925560048086019390935560058501939093556006909301805464010000000064ffffffffff199091168c151560ff161761ff008a151560081b161762ff00008b151560101b161763ff0000008c151560181b16171790559051635487c74d60e11b8152908101919091528381602481865afa9081156107b857600091612950575b501680612867575b5050509160008051602061427f833981519152939161067493612836600f54613d57565b600f558315610689575082156106815750811561067957506040805194855290151560208501523393918291820190565b91809160249333600052601583526040600020906001600160601b0360a01b825416179055604051938480926304dad19d60e11b82523360048301525afa9182156107b8576000926128f7575b50916128ed60008051602061427f83398151915296949260176106749795336000525260406000209060ff801983541691151516179055565b9193819395612812565b9593915093918486813d8311612949575b6129128183613c97565b81010312610313576128ed61067495601761293b60008051602061427f83398151915299613cb9565b9496985050919395506128b4565b503d612908565b6129679150843d86116107ec576107de8183613c97565b8961280a565b60405162461bcd60e51b815260048101899052601460248201527355736572206e6f7420666f756e6420696e20563160601b6044820152606490fd5b99509950505050505094509550935081813d8311612a39575b6129cc8183613c97565b8101031261031357805190838101519360408201519560608301519460808401519660a08501516129ff60c08701613cb9565b90612a0c60e08801613cb9565b99612a27610120612a206101008b01613cb9565b9901613cb9565b98939b999091929a9798998d80612758565b503d6129c2565b6064906040519062461bcd60e51b825260048201526013602482015272158c4818dbdb9d1c9858dd081b9bdd081cd95d606a1b6044820152fd5b3461031357602036600319011261031357612a93613a93565b6000546001600160a01b039190612aad9083163314613d66565b168015612aed57601180546001600160a01b031916821790557fe5b9ec72fc7e34a9021e01e954c7e54ceb50c6b1798084716afe188ffa5e13cb600080a2005b60405162461bcd60e51b815260206004820152601060248201526f24b73b30b634b2103b32b934b334b2b960811b6044820152606490fd5b346103135760203660031901126103135760008051602061429f83398151915260a0600435612b5e600180841b03600054163314613d66565b69152d02c7e14af680000081101580612bba575b612b7b90614221565b600a549080600a55604051916060835260126060840152711091551057d51154d5115497d49155d0549160721b608084015260208301526040820152a1005b506a01a784379d99db42000000811115612b72565b346103135760203660031901126103135760008051602061429f83398151915260a0600435612c08600180841b03600054163314613d66565b69021e19e0c9bab240000081101580612c67575b612c2590614221565b600b549080600b55604051916060835260156060840152741193d31313d5d7d4d3d0d2505314d7d49155d05491605a1b608084015260208301526040820152a1005b506969e10de76676d0800000811115612c1c565b3461031357600036600319011261031357602060ff60115460a81c166040519015158152f35b3461031357604036600319011261031357612cba613a93565b67ffffffffffffffff6024803582811161031357612cdc903690600401613ae9565b9390601154612cf160ff8260a81c1615613dd8565b3360005260209560128752612d0e60ff6040600020541615613e19565b60018060a01b0392838516968760005260128952612d3460ff6040600020541615613e19565b336000526017895260ff60406000205416613238573388146131fc5787156131c55787600052601389526040600020541561318157604051908982013360601b81526001600160601b03198860601b16603484015267149151915494905360c21b604884015262015180420460508401526050835260808301918383109083111761316c5792612e0592828896939587966040528251902060bc60a08401937f19457468657265756d205369676e6564204d6573736167653a0a33320000000085520152603c8152611a2b81613c7b565b92169116036131285733600052601785526040600020600160ff19825416179055601585526040600020846001600160601b0360a01b82541617905583600052601685526040600020612e588154613d57565b90556009548060011b9181830460021482151715613113577f00000000000000000000000000000000000000000000000000000000000000001691604051906370a0823160e01b825230600483015287828781875afa80156107b8576000906130e4575b612ec892501015613ebe565b8460005260138652612ee36003604060002001918254613e9e565b9055612f2d85600954612ef881600e54613e9e565b600e5560405163a9059cbb60e01b8082526001600160a01b039096166004820152602481019190915291829081906044820190565b03816000865af19081156107b8576000916130af575b501561306b57612fa99185916009543360005260138452612f6d6003604060002001918254613e9e565b905560095491612f7f83600e54613e9e565b600e5560405190815233600482015260248101929092529092839190829060009082906044820190565b03925af19081156107b857600091613036575b5015612ff357507f90eab5d1df713df401d810f26aa9718d2b9e6894af1eb4890a332d3b185dc0e5600954926040519384523393a3005b82601b6064926040519262461bcd60e51b845260048401528201527f5472616e7366657220746f207265666572726564206661696c656400000000006044820152fd5b90508381813d8311613064575b61304d8183613c97565b810103126103135761305e90613cb9565b84612fbc565b503d613043565b60405162461bcd60e51b815260048101869052601b818501527f5472616e7366657220746f207265666572726572206661696c656400000000006044820152606490fd5b90508581813d83116130dd575b6130c68183613c97565b81010312610313576130d790613cb9565b86612f43565b503d6130bc565b508782813d831161310c575b6130fa8183613c97565b8101031261031357612ec89151612ebc565b503d6130f0565b84634e487b7160e01b60005260116004526000fd5b60405162461bcd60e51b815260048101869052601a818501527f496e76616c696420726566657272616c207369676e61747572650000000000006044820152606490fd5b88634e487b7160e01b60005260416004526000fd5b60405162461bcd60e51b8152600481018a9052601c818901527f5265666572726572206d757374206265206163746976652075736572000000006044820152606490fd5b60405162461bcd60e51b8152600481018a90526010818901526f24b73b30b634b2103932b332b93932b960811b6044820152606490fd5b60405162461bcd60e51b8152600481018a90526015818901527421b0b73737ba103932b332b9103cb7bab939b2b63360591b6044820152606490fd5b60405162461bcd60e51b8152600481018a905260158189015274105b1c9958591e481d5cd959081c9959995c9c985b605a1b6044820152606490fd5b346103135760203660031901126103135760008051602061429f83398151915260a06004356132ad600180841b03600054163314613d66565b69152d02c7e14af680000081101580613307575b6132ca90614221565b600d549080600d556040519160608352601060608401526f14d514915052d7cccc17d49155d0549160821b608084015260208301526040820152a1005b506a0422ca8b0a00a4250000008111156132c1565b346103135760203660031901126103135760008051602061429f83398151915260a0600435613355600180841b03600054163314613d66565b69021e19e0c9bab2400000811015806133b0575b61337290614221565b600154908060015560405191606083526011606084015270109054d157d11052531657d49155d05491607a1b608084015260208301526040820152a1005b50692a5a058fc295ed000000811115613369565b346103135760403660031901126103135767ffffffffffffffff600435818111610313576133f6903690600401613ab8565b916024359081116103135761340f903690600401613ab8565b6000546001600160a01b0393906134299085163314613d66565b8185036134db5760005b85811061343c57005b8061345361344e6134d6938688613d9e565b614214565b866134626109ae848b88613d9e565b166000526134866020916012835260406000209060ff801983541691151516179055565b7f6a12b3df6cba4203bd7fd06b816789f87de8c594299aed5717ae070fac781bac6134b56109ae848b88613d9e565b91886134c561344e868a8c613d9e565b9360405194151585521692a2613d57565b613433565b60405162461bcd60e51b8152602060048201526015602482015274082e4e4c2f240d8cadccee8d040dad2e6dac2e8c6d605b1b6044820152606490fd5b3461031357602036600319011261031357613531613aa9565b61354660018060a01b03600054163314613d66565b6011805460ff60b01b191691151560b01b60ff60b01b16919091179055005b346103135760203660031901126103135761357e613a93565b60018060a01b0316600052601360205260406000208054600182015491600281015492600382015460ff6006600585015494015460201c169284159081159283613698575b8215613685576000935b83156136775780613661575b1561365357600185019788861161201757613616610120995b600354908181111561364c57505b6136106001549160025490613eab565b90613e9e565b956040519889526020890152604088015260608701526080860152151560a085015260c084015260e08301521515610100820152f35b9050613600565b6101209761361660016135f2565b506202a3008701808811612017574211156135d9565b5061012097613616866135f2565b62015180870180881161201757936135cd565b915062015180860180871161201757421015916135c3565b34610313576000366003190112610313576020600954604051908152f35b34610313576000366003190112610313576040517f00000000000000000000000000000000000000000000000000000000000000006001600160a01b03168152602090f35b34610313576000366003190112610313576020601054604051908152f35b34610313576000366003190112610313576020600d54604051908152f35b346103135760203660031901126103135760008051602061429f83398151915260a0600435613788600180841b03600054163314613d66565b690a968163f0a57b400000811015806137e1575b6137a590614221565b600c549080600c556040519160608352600f60608401526e14d514915052d7cdd7d49155d05491608a1b608084015260208301526040820152a1005b5069d3c21bcecceda100000081111561379c565b3461031357600036600319011261031357602060ff60115460b01c166040519015158152f35b34610313576000366003190112610313576020600254604051908152f35b346103135760203660031901126103135760008051602061429f83398151915260a0600435613872600180841b03600054163314613d66565b69021e19e0c9bab2400000811015806138d1575b61388f90614221565b60085490806008556040519160608352601560608401527415149051125391d7d593d315535157d49155d05491605a1b608084015260208301526040820152a1005b50692a5a058fc295ed000000811115613886565b34610313576000366003190112610313576011546040516001600160a01b039091168152602090f35b34610313576020366003190112610313577f0e2fb031ee032dc02d8011dc50b816eb450cf856abd8261680dac74f72165bd2602061394a613aa9565b61395f60018060a01b03600054163314613d66565b151560115460ff60a81b8260a81b169060ff60a81b191617601155604051908152a1005b346103135760403660031901126103135761399c613a93565b6024359081151590818303610313577f6a12b3df6cba4203bd7fd06b816789f87de8c594299aed5717ae070fac781bac91613a0a60209260018060a01b03906139ea82600054163314613d66565b1694856000526012845260406000209060ff801983541691151516179055565b604051908152a2005b3461031357600036600319011261031357602060ff60115460a01c166040519015158152f35b34610313576020366003190112610313576001600160a01b03613a5a613a93565b166000526017602052602060ff604060002054166040519015158152f35b34610313576000366003190112610313576020906005548152f35b600435906001600160a01b038216820361031357565b60043590811515820361031357565b9181601f840112156103135782359167ffffffffffffffff8311610313576020808501948460051b01011161031357565b9181601f840112156103135782359167ffffffffffffffff8311610313576020838186019501011161031357565b60406003198201126103135767ffffffffffffffff916004358381116103135782613b4491600401613ae9565b9390939260243591821161031357613b5e91600401613ae9565b9091565b15613b6957565b60405162461bcd60e51b8152602060048201526012602482015271135a59dc985d1a5bdb88191a5cd8589b195960721b6044820152606490fd5b15613baa57565b60405162461bcd60e51b815260206004820152601060248201526f105b1c9958591e481b5a59dc985d195960821b6044820152606490fd5b15613be957565b60405162461bcd60e51b815260206004820152602260248201527f43616e6e6f74206d69677261746520626c61636b6c6973746564206164647265604482015261737360f01b6064820152608490fd5b15613c4057565b60405162461bcd60e51b8152602060048201526013602482015272158c8818dbdb9d1c9858dd081b9bdd081cd95d606a1b6044820152606490fd5b6060810190811067ffffffffffffffff821117611fcf57604052565b90601f8019910116810190811067ffffffffffffffff821117611fcf57604052565b5190811515820361031357565b90816101609103126103135780519160208201519160408101519160608201519160808101519160a082015191613cff60c08201613cb9565b91613d0c60e08301613cb9565b91613d1a6101008201613cb9565b91613d35610140613d2e6101208501613cb9565b9301613cb9565b90565b9081602091031261031357516001600160a01b03811681036103135790565b60001981146120175760010190565b15613d6d57565b60405162461bcd60e51b81526020600482015260096024820152682737ba1037bbb732b960b91b6044820152606490fd5b9190811015613dae5760051b0190565b634e487b7160e01b600052603260045260246000fd5b356001600160a01b03811681036103135790565b15613ddf57565b60405162461bcd60e51b815260206004820152601260248201527110dbdb9d1c9858dd081a5cc81c185d5cd95960721b6044820152606490fd5b15613e2057565b60405162461bcd60e51b81526020600482015260166024820152751059191c995cdcc81a5cc8189b1858dadb1a5cdd195960521b6044820152606490fd5b15613e6557565b60405162461bcd60e51b8152602060048201526011602482015270496e76616c6964207369676e617475726560781b6044820152606490fd5b9190820180921161201757565b8181029291811591840414171561201757565b15613ec557565b60405162461bcd60e51b815260206004820152601960248201527f496e73756666696369656e7420706f6f6c2062616c616e6365000000000000006044820152606490fd5b15613f1157565b60405162461bcd60e51b815260206004820152600f60248201526e151c985b9cd9995c8819985a5b1959608a1b6044820152606490fd5b92919267ffffffffffffffff8211611fcf5760405191613f72601f8201601f191660200184613c97565b829481845281830111610313578281602093846000960137010152565b15613f9657565b60405162461bcd60e51b815260206004820152601c60248201527f5461736b20616c726561647920636f6d706c6574656420746f646179000000006044820152606490fd5b9392918060609160209360408852816040890152838801376000828288010152601f8019910116850101930152565b1561401157565b60405162461bcd60e51b815260206004820152600f60248201526e105b1c9958591e4818db185a5b5959608a1b6044820152606490fd5b6001600160a01b031660009081526014602052604081206001810154620151804204900361408857549060ff82169260ff808460081c169360101c169190565b5080918190600190565b6001600160a01b0316600090815260146020526040902060018101805462015180420492908390036140c357505050565b805462ffffff1916905555565b909161411960546141599695948360405194859260208401976001600160601b03199060601b168852603484013781016201518042046034820152036034810184520182613c97565b51902060405160208101917f19457468657265756d205369676e6564204d6573736167653a0a3332000000008352603c820152603c8152611a2b81613c7b565b6011546001600160a01b0391821691161490565b916041036141cf57604081013560001a601b81106141bd575b6020928360009360ff6080946040519485521682840152803560408401520135606082015282805260015afa156107b85760005190565b601b019060ff82116120175790614186565b60405162461bcd60e51b815260206004820152601860248201527f496e76616c6964207369676e6174757265206c656e67746800000000000000006044820152606490fd5b3580151581036103135790565b1561422857565b60405162461bcd60e51b815260206004820152600e60248201526d125b9d985b1a5908185b5bdd5b9d60921b6044820152606490fdfe67a8d47c6ecf3a491ea8a4f20a58352394879c573c678ec5b9abceae075d4dcafa033830c485f08f608e3c319d9b8fae0af1abda74131f96e0bcd8aed54772dde6d2ae151935a76dc9b9533838544ae8137ad6337ffd21a54e415ab781611f60a26469706673582212202d0819e36bf5fc9e4d47877599f34b62e3f7c56ec64faf6eef848d9529b9d20564736f6c63430008130033",
  "linkReferences": {},
  "deployedLinkReferences": {}
}