{
  "_format": "hh-sol-artifact-1",
  "contractName": "SwipeDailyRewards_V2",
  "sourceName": "contracts/SwipeDailyRewards_V2.sol",
  "abi": [
    {
      "inputs": [
        {
          "internalType": "address",
          "name": "_swipeToken",
          "type": "address"
        },
        {
          "internalType": "address",
          "name": "_taskVerifier",
          "type": "address"
        },
        {
          "internalType": "address",
          "name": "_v1Contract",
          "type": "address"
        }
      ],
      "stateMutability": "nonpayable",
      "type": "constructor"
    },
    {
      "anonymous": false,
      "inputs": [
        {
          "indexed": true,
          "internalType": "address",
          "name": "user",
          "type": "address"
        },
        {
          "indexed": false,
          "internalType": "string",
          "name": "achievement",
          "type": "string"
        },
        {
          "indexed": false,
          "internalType": "uint256",
          "name": "reward",
          "type": "uint256"
        }
      ],
      "name": "AchievementUnlocked",
      "type": "event"
    },
    {
      "anonymous": false,
      "inputs": [
        {
          "indexed": true,
          "internalType": "address",
          "name": "user",
          "type": "address"
        },
        {
          "indexed": false,
          "internalType": "bool",
          "name": "blacklisted",
          "type": "bool"
        }
      ],
      "name": "BlacklistUpdated",
      "type": "event"
    },
    {
      "anonymous": false,
      "inputs": [
        {
          "indexed": false,
          "internalType": "bool",
          "name": "enabled",
          "type": "bool"
        }
      ],
      "name": "ClaimingToggled",
      "type": "event"
    },
    {
      "anonymous": false,
      "inputs": [
        {
          "indexed": true,
          "internalType": "address",
          "name": "user",
          "type": "address"
        },
        {
          "indexed": false,
          "internalType": "uint256",
          "name": "baseAmount",
          "type": "uint256"
        },
        {
          "indexed": false,
          "internalType": "uint256",
          "name": "streakBonus",
          "type": "uint256"
        },
        {
          "indexed": false,
          "internalType": "uint256",
          "name": "totalAmount",
          "type": "uint256"
        },
        {
          "indexed": false,
          "internalType": "uint256",
          "name": "currentStreak",
          "type": "uint256"
        },
        {
          "indexed": false,
          "internalType": "bool",
          "name": "wonJackpot",
          "type": "bool"
        }
      ],
      "name": "DailyClaimed",
      "type": "event"
    },
    {
      "anonymous": false,
      "inputs": [
        {
          "indexed": true,
          "internalType": "address",
          "name": "to",
          "type": "address"
        },
        {
          "indexed": false,
          "internalType": "uint256",
          "name": "amount",
          "type": "uint256"
        }
      ],
      "name": "EmergencyWithdraw",
      "type": "event"
    },
    {
      "anonymous": false,
      "inputs": [
        {
          "indexed": false,
          "internalType": "bool",
          "name": "isPaused",
          "type": "bool"
        }
      ],
      "name": "Paused",
      "type": "event"
    },
    {
      "anonymous": false,
      "inputs": [
        {
          "indexed": true,
          "internalType": "address",
          "name": "referrer",
          "type": "address"
        },
        {
          "indexed": true,
          "internalType": "address",
          "name": "referred",
          "type": "address"
        },
        {
          "indexed": false,
          "internalType": "uint256",
          "name": "rewardEach",
          "type": "uint256"
        }
      ],
      "name": "ReferralRegistered",
      "type": "event"
    },
    {
      "anonymous": false,
      "inputs": [
        {
          "indexed": false,
          "internalType": "string",
          "name": "rewardType",
          "type": "string"
        },
        {
          "indexed": false,
          "internalType": "uint256",
          "name": "oldValue",
          "type": "uint256"
        },
        {
          "indexed": false,
          "internalType": "uint256",
          "name": "newValue",
          "type": "uint256"
        }
      ],
      "name": "RewardUpdated",
      "type": "event"
    },
    {
      "anonymous": false,
      "inputs": [
        {
          "indexed": true,
          "internalType": "address",
          "name": "from",
          "type": "address"
        },
        {
          "indexed": false,
          "internalType": "uint256",
          "name": "amount",
          "type": "uint256"
        }
      ],
      "name": "SwipeDeposited",
      "type": "event"
    },
    {
      "anonymous": false,
      "inputs": [
        {
          "indexed": true,
          "internalType": "address",
          "name": "user",
          "type": "address"
        },
        {
          "indexed": false,
          "internalType": "string",
          "name": "taskType",
          "type": "string"
        },
        {
          "indexed": false,
          "internalType": "uint256",
          "name": "reward",
          "type": "uint256"
        }
      ],
      "name": "TaskCompleted",
      "type": "event"
    },
    {
      "anonymous": false,
      "inputs": [
        {
          "indexed": true,
          "internalType": "address",
          "name": "newVerifier",
          "type": "address"
        }
      ],
      "name": "TaskVerifierUpdated",
      "type": "event"
    },
    {
      "anonymous": false,
      "inputs": [
        {
          "indexed": true,
          "internalType": "address",
          "name": "user",
          "type": "address"
        },
        {
          "indexed": false,
          "internalType": "uint256",
          "name": "streak",
          "type": "uint256"
        },
        {
          "indexed": false,
          "internalType": "bool",
          "name": "achievements",
          "type": "bool"
        }
      ],
      "name": "UserMigrated",
      "type": "event"
    },
    {
      "inputs": [],
      "name": "baseDailyReward",
      "outputs": [
        {
          "internalType": "uint256",
          "name": "",
          "type": "uint256"
        }
      ],
      "stateMutability": "view",
      "type": "function"
    },
    {
      "inputs": [
        {
          "internalType": "address[]",
          "name": "usersToMigrate",
          "type": "address[]"
        }
      ],
      "name": "batchMigrateFromV1",
      "outputs": [],
      "stateMutability": "nonpayable",
      "type": "function"
    },
    {
      "inputs": [
        {
          "internalType": "address[]",
          "name": "users",
          "type": "address[]"
        },
        {
          "internalType": "bool[]",
          "name": "blacklisted",
          "type": "bool[]"
        }
      ],
      "name": "batchSetBlacklist",
      "outputs": [],
      "stateMutability": "nonpayable",
      "type": "function"
    },
    {
      "inputs": [],
      "name": "betaTesterReward",
      "outputs": [
        {
          "internalType": "uint256",
          "name": "",
          "type": "uint256"
        }
      ],
      "stateMutability": "view",
      "type": "function"
    },
    {
      "inputs": [
        {
          "internalType": "address",
          "name": "",
          "type": "address"
        }
      ],
      "name": "blacklist",
      "outputs": [
        {
          "internalType": "bool",
          "name": "",
          "type": "bool"
        }
      ],
      "stateMutability": "view",
      "type": "function"
    },
    {
      "inputs": [
        {
          "internalType": "string",
          "name": "achievementType",
          "type": "string"
        },
        {
          "internalType": "bytes",
          "name": "signature",
          "type": "bytes"
        }
      ],
      "name": "claimAchievement",
      "outputs": [],
      "stateMutability": "nonpayable",
      "type": "function"
    },
    {
      "inputs": [],
      "name": "claimDaily",
      "outputs": [],
      "stateMutability": "nonpayable",
      "type": "function"
    },
    {
      "inputs": [],
      "name": "claimingEnabled",
      "outputs": [
        {
          "internalType": "bool",
          "name": "",
          "type": "bool"
        }
      ],
      "stateMutability": "view",
      "type": "function"
    },
    {
      "inputs": [
        {
          "internalType": "string",
          "name": "taskType",
          "type": "string"
        },
        {
          "internalType": "bytes",
          "name": "signature",
          "type": "bytes"
        }
      ],
      "name": "completeTask",
      "outputs": [],
      "stateMutability": "nonpayable",
      "type": "function"
    },
    {
      "inputs": [],
      "name": "createPredictionReward",
      "outputs": [
        {
          "internalType": "uint256",
          "name": "",
          "type": "uint256"
        }
      ],
      "stateMutability": "view",
      "type": "function"
    },
    {
      "inputs": [
        {
          "internalType": "address",
          "name": "",
          "type": "address"
        }
      ],
      "name": "dailyTasks",
      "outputs": [
        {
          "internalType": "bool",
          "name": "shareCast",
          "type": "bool"
        },
        {
          "internalType": "bool",
          "name": "createPrediction",
          "type": "bool"
        },
        {
          "internalType": "bool",
          "name": "tradingVolume",
          "type": "bool"
        },
        {
          "internalType": "uint256",
          "name": "resetDay",
          "type": "uint256"
        }
      ],
      "stateMutability": "view",
      "type": "function"
    },
    {
      "inputs": [
        {
          "internalType": "uint256",
          "name": "amount",
          "type": "uint256"
        }
      ],
      "name": "depositSwipe",
      "outputs": [],
      "stateMutability": "nonpayable",
      "type": "function"
    },
    {
      "inputs": [],
      "name": "emergencyWithdraw",
      "outputs": [],
      "stateMutability": "nonpayable",
      "type": "function"
    },
    {
      "inputs": [],
      "name": "followSocialsReward",
      "outputs": [
        {
          "internalType": "uint256",
          "name": "",
          "type": "uint256"
        }
      ],
      "stateMutability": "view",
      "type": "function"
    },
    {
      "inputs": [],
      "name": "getPoolStats",
      "outputs": [
        {
          "internalType": "uint256",
          "name": "poolBalance",
          "type": "uint256"
        },
        {
          "internalType": "uint256",
          "name": "distributed",
          "type": "uint256"
        },
        {
          "internalType": "uint256",
          "name": "userCount",
          "type": "uint256"
        },
        {
          "internalType": "uint256",
          "name": "claimCount",
          "type": "uint256"
        }
      ],
      "stateMutability": "view",
      "type": "function"
    },
    {
      "inputs": [
        {
          "internalType": "address",
          "name": "user",
          "type": "address"
        }
      ],
      "name": "getUserAchievements",
      "outputs": [
        {
          "internalType": "bool",
          "name": "isBetaTester",
          "type": "bool"
        },
        {
          "internalType": "bool",
          "name": "hasFollowedSocials",
          "type": "bool"
        },
        {
          "internalType": "bool",
          "name": "hasStreak7",
          "type": "bool"
        },
        {
          "internalType": "bool",
          "name": "hasStreak30",
          "type": "bool"
        },
        {
          "internalType": "uint256",
          "name": "referrals",
          "type": "uint256"
        }
      ],
      "stateMutability": "view",
      "type": "function"
    },
    {
      "inputs": [
        {
          "internalType": "address",
          "name": "user",
          "type": "address"
        }
      ],
      "name": "getUserDailyTasks",
      "outputs": [
        {
          "internalType": "bool",
          "name": "shareCast",
          "type": "bool"
        },
        {
          "internalType": "bool",
          "name": "createPrediction",
          "type": "bool"
        },
        {
          "internalType": "bool",
          "name": "tradingVolume",
          "type": "bool"
        },
        {
          "internalType": "bool",
          "name": "needsReset",
          "type": "bool"
        }
      ],
      "stateMutability": "view",
      "type": "function"
    },
    {
      "inputs": [
        {
          "internalType": "address",
          "name": "user",
          "type": "address"
        }
      ],
      "name": "getUserStats",
      "outputs": [
        {
          "internalType": "uint256",
          "name": "lastClaimTimestamp",
          "type": "uint256"
        },
        {
          "internalType": "uint256",
          "name": "currentStreak",
          "type": "uint256"
        },
        {
          "internalType": "uint256",
          "name": "longestStreak",
          "type": "uint256"
        },
        {
          "internalType": "uint256",
          "name": "totalClaimed",
          "type": "uint256"
        },
        {
          "internalType": "uint256",
          "name": "jackpotsWon",
          "type": "uint256"
        },
        {
          "internalType": "bool",
          "name": "canClaimToday",
          "type": "bool"
        },
        {
          "internalType": "uint256",
          "name": "nextClaimTime",
          "type": "uint256"
        },
        {
          "internalType": "uint256",
          "name": "potentialReward",
          "type": "uint256"
        },
        {
          "internalType": "bool",
          "name": "isMigrated",
          "type": "bool"
        }
      ],
      "stateMutability": "view",
      "type": "function"
    },
    {
      "inputs": [
        {
          "internalType": "address",
          "name": "",
          "type": "address"
        }
      ],
      "name": "hasUsedReferral",
      "outputs": [
        {
          "internalType": "bool",
          "name": "",
          "type": "bool"
        }
      ],
      "stateMutability": "view",
      "type": "function"
    },
    {
      "inputs": [],
      "name": "jackpotAmount",
      "outputs": [
        {
          "internalType": "uint256",
          "name": "",
          "type": "uint256"
        }
      ],
      "stateMutability": "view",
      "type": "function"
    },
    {
      "inputs": [],
      "name": "jackpotChance",
      "outputs": [
        {
          "internalType": "uint256",
          "name": "",
          "type": "uint256"
        }
      ],
      "stateMutability": "view",
      "type": "function"
    },
    {
      "inputs": [],
      "name": "maxStreakBonusDays",
      "outputs": [
        {
          "internalType": "uint256",
          "name": "",
          "type": "uint256"
        }
      ],
      "stateMutability": "view",
      "type": "function"
    },
    {
      "inputs": [],
      "name": "migrateFromV1",
      "outputs": [],
      "stateMutability": "nonpayable",
      "type": "function"
    },
    {
      "inputs": [],
      "name": "migrationEnabled",
      "outputs": [
        {
          "internalType": "bool",
          "name": "",
          "type": "bool"
        }
      ],
      "stateMutability": "view",
      "type": "function"
    },
    {
      "inputs": [],
      "name": "owner",
      "outputs": [
        {
          "internalType": "address",
          "name": "",
          "type": "address"
        }
      ],
      "stateMutability": "view",
      "type": "function"
    },
    {
      "inputs": [],
      "name": "paused",
      "outputs": [
        {
          "internalType": "bool",
          "name": "",
          "type": "bool"
        }
      ],
      "stateMutability": "view",
      "type": "function"
    },
    {
      "inputs": [
        {
          "internalType": "address",
          "name": "",
          "type": "address"
        }
      ],
      "name": "referralCount",
      "outputs": [
        {
          "internalType": "uint256",
          "name": "",
          "type": "uint256"
        }
      ],
      "stateMutability": "view",
      "type": "function"
    },
    {
      "inputs": [],
      "name": "referralReward",
      "outputs": [
        {
          "internalType": "uint256",
          "name": "",
          "type": "uint256"
        }
      ],
      "stateMutability": "view",
      "type": "function"
    },
    {
      "inputs": [
        {
          "internalType": "address",
          "name": "",
          "type": "address"
        }
      ],
      "name": "referredBy",
      "outputs": [
        {
          "internalType": "address",
          "name": "",
          "type": "address"
        }
      ],
      "stateMutability": "view",
      "type": "function"
    },
    {
      "inputs": [
        {
          "internalType": "address",
          "name": "referrer",
          "type": "address"
        },
        {
          "internalType": "bytes",
          "name": "signature",
          "type": "bytes"
        }
      ],
      "name": "registerReferral",
      "outputs": [],
      "stateMutability": "nonpayable",
      "type": "function"
    },
    {
      "inputs": [
        {
          "internalType": "uint256",
          "name": "amount",
          "type": "uint256"
        }
      ],
      "name": "setBaseDailyReward",
      "outputs": [],
      "stateMutability": "nonpayable",
      "type": "function"
    },
    {
      "inputs": [
        {
          "internalType": "uint256",
          "name": "amount",
          "type": "uint256"
        }
      ],
      "name": "setBetaTesterReward",
      "outputs": [],
      "stateMutability": "nonpayable",
      "type": "function"
    },
    {
      "inputs": [
        {
          "internalType": "address",
          "name": "user",
          "type": "address"
        },
        {
          "internalType": "bool",
          "name": "_blacklisted",
          "type": "bool"
        }
      ],
      "name": "setBlacklist",
      "outputs": [],
      "stateMutability": "nonpayable",
      "type": "function"
    },
    {
      "inputs": [
        {
          "internalType": "bool",
          "name": "enabled",
          "type": "bool"
        }
      ],
      "name": "setClaimingEnabled",
      "outputs": [],
      "stateMutability": "nonpayable",
      "type": "function"
    },
    {
      "inputs": [
        {
          "internalType": "uint256",
          "name": "amount",
          "type": "uint256"
        }
      ],
      "name": "setCreatePredictionReward",
      "outputs": [],
      "stateMutability": "nonpayable",
      "type": "function"
    },
    {
      "inputs": [
        {
          "internalType": "uint256",
          "name": "amount",
          "type": "uint256"
        }
      ],
      "name": "setFollowSocialsReward",
      "outputs": [],
      "stateMutability": "nonpayable",
      "type": "function"
    },
    {
      "inputs": [
        {
          "internalType": "uint256",
          "name": "amount",
          "type": "uint256"
        }
      ],
      "name": "setJackpotAmount",
      "outputs": [],
      "stateMutability": "nonpayable",
      "type": "function"
    },
    {
      "inputs": [
        {
          "internalType": "uint256",
          "name": "chance",
          "type": "uint256"
        }
      ],
      "name": "setJackpotChance",
      "outputs": [],
      "stateMutability": "nonpayable",
      "type": "function"
    },
    {
      "inputs": [
        {
          "internalType": "uint256",
          "name": "days_",
          "type": "uint256"
        }
      ],
      "name": "setMaxStreakBonusDays",
      "outputs": [],
      "stateMutability": "nonpayable",
      "type": "function"
    },
    {
      "inputs": [
        {
          "internalType": "bool",
          "name": "enabled",
          "type": "bool"
        }
      ],
      "name": "setMigrationEnabled",
      "outputs": [],
      "stateMutability": "nonpayable",
      "type": "function"
    },
    {
      "inputs": [
        {
          "internalType": "bool",
          "name": "_paused",
          "type": "bool"
        }
      ],
      "name": "setPaused",
      "outputs": [],
      "stateMutability": "nonpayable",
      "type": "function"
    },
    {
      "inputs": [
        {
          "internalType": "uint256",
          "name": "amount",
          "type": "uint256"
        }
      ],
      "name": "setReferralReward",
      "outputs": [],
      "stateMutability": "nonpayable",
      "type": "function"
    },
    {
      "inputs": [
        {
          "internalType": "uint256",
          "name": "amount",
          "type": "uint256"
        }
      ],
      "name": "setShareCastReward",
      "outputs": [],
      "stateMutability": "nonpayable",
      "type": "function"
    },
    {
      "inputs": [
        {
          "internalType": "uint256",
          "name": "amount",
          "type": "uint256"
        }
      ],
      "name": "setStreak30Reward",
      "outputs": [],
      "stateMutability": "nonpayable",
      "type": "function"
    },
    {
      "inputs": [
        {
          "internalType": "uint256",
          "name": "amount",
          "type": "uint256"
        }
      ],
      "name": "setStreak7Reward",
      "outputs": [],
      "stateMutability": "nonpayable",
      "type": "function"
    },
    {
      "inputs": [
        {
          "internalType": "uint256",
          "name": "amount",
          "type": "uint256"
        }
      ],
      "name": "setStreakBonusPerDay",
      "outputs": [],
      "stateMutability": "nonpayable",
      "type": "function"
    },
    {
      "inputs": [
        {
          "internalType": "address",
          "name": "newVerifier",
          "type": "address"
        }
      ],
      "name": "setTaskVerifier",
      "outputs": [],
      "stateMutability": "nonpayable",
      "type": "function"
    },
    {
      "inputs": [
        {
          "internalType": "uint256",
          "name": "amount",
          "type": "uint256"
        }
      ],
      "name": "setTradingVolumeReward",
      "outputs": [],
      "stateMutability": "nonpayable",
      "type": "function"
    },
    {
      "inputs": [],
      "name": "shareCastReward",
      "outputs": [
        {
          "internalType": "uint256",
          "name": "",
          "type": "uint256"
        }
      ],
      "stateMutability": "view",
      "type": "function"
    },
    {
      "inputs": [],
      "name": "streak30Reward",
      "outputs": [
        {
          "internalType": "uint256",
          "name": "",
          "type": "uint256"
        }
      ],
      "stateMutability": "view",
      "type": "function"
    },
    {
      "inputs": [],
      "name": "streak7Reward",
      "outputs": [
        {
          "internalType": "uint256",
          "name": "",
          "type": "uint256"
        }
      ],
      "stateMutability": "view",
      "type": "function"
    },
    {
      "inputs": [],
      "name": "streakBonusPerDay",
      "outputs": [
        {
          "internalType": "uint256",
          "name": "",
          "type": "uint256"
        }
      ],
      "stateMutability": "view",
      "type": "function"
    },
    {
      "inputs": [],
      "name": "swipeToken",
      "outputs": [
        {
          "internalType": "contract IERC20",
          "name": "",
          "type": "address"
        }
      ],
      "stateMutability": "view",
      "type": "function"
    },
    {
      "inputs": [],
      "name": "taskVerifier",
      "outputs": [
        {
          "internalType": "address",
          "name": "",
          "type": "address"
        }
      ],
      "stateMutability": "view",
      "type": "function"
    },
    {
      "inputs": [],
      "name": "totalClaims",
      "outputs": [
        {
          "internalType": "uint256",
          "name": "",
          "type": "uint256"
        }
      ],
      "stateMutability": "view",
      "type": "function"
    },
    {
      "inputs": [],
      "name": "totalDistributed",
      "outputs": [
        {
          "internalType": "uint256",
          "name": "",
          "type": "uint256"
        }
      ],
      "stateMutability": "view",
      "type": "function"
    },
    {
      "inputs": [],
      "name": "totalUsers",
      "outputs": [
        {
          "internalType": "uint256",
          "name": "",
          "type": "uint256"
        }
      ],
      "stateMutability": "view",
      "type": "function"
    },
    {
      "inputs": [],
      "name": "tradingVolumeReward",
      "outputs": [
        {
          "internalType": "uint256",
          "name": "",
          "type": "uint256"
        }
      ],
      "stateMutability": "view",
      "type": "function"
    },
    {
      "inputs": [
        {
          "internalType": "address",
          "name": "newOwner",
          "type": "address"
        }
      ],
      "name": "transferOwnership",
      "outputs": [],
      "stateMutability": "nonpayable",
      "type": "function"
    },
    {
      "inputs": [
        {
          "internalType": "address",
          "name": "",
          "type": "address"
        }
      ],
      "name": "users",
      "outputs": [
        {
          "internalType": "uint256",
          "name": "lastClaimTimestamp",
          "type": "uint256"
        },
        {
          "internalType": "uint256",
          "name": "currentStreak",
          "type": "uint256"
        },
        {
          "internalType": "uint256",
          "name": "longestStreak",
          "type": "uint256"
        },
        {
          "internalType": "uint256",
          "name": "totalClaimed",
          "type": "uint256"
        },
        {
          "internalType": "uint256",
          "name": "lastTaskResetDay",
          "type": "uint256"
        },
        {
          "internalType": "uint256",
          "name": "jackpotsWon",
          "type": "uint256"
        },
        {
          "internalType": "bool",
          "name": "isBetaTester",
          "type": "bool"
        },
        {
          "internalType": "bool",
          "name": "hasFollowedSocials",
          "type": "bool"
        },
        {
          "internalType": "bool",
          "name": "hasStreak7Achievement",
          "type": "bool"
        },
        {
          "internalType": "bool",
          "name": "hasStreak30Achievement",
          "type": "bool"
        },
        {
          "internalType": "bool",
          "name": "migrated",
          "type": "bool"
        }
      ],
      "stateMutability": "view",
      "type": "function"
    },
    {
      "inputs": [],
      "name": "v1Contract",
      "outputs": [
        {
          "internalType": "contract ISwipeDailyRewardsV1",
          "name": "",
          "type": "address"
        }
      ],
      "stateMutability": "view",
      "type": "function"
    }
  ],
  "bytecode": "0x60c0346200027b57601f62003f3f38819003918201601f191683019291906001600160401b03841183851017620002805781606092849260409687528339810103126200027b57620000518162000296565b6200006c83620000646020850162000296565b930162000296565b690a968163f0a57b4000008060015569021e19e0c9bab2400000600255600a6003556934f086f3b33b6840000090816004556005805580600655690fe1c215e8f838e0000060075569152d02c7e14af680000090816008556009556969e10de76676d0800000600a55600b55600c5569d3c21bcecceda1000000600d556011549160018060a01b0380911693841562000237578116918215620001f35716928315620001af57600080546001600160a01b031916331790556080526001600160b81b0319909116176201000160a01b1760115560a05251613c939081620002ac8239608051818181610714015281816109b501528181610d5c015281816113df0152818161184f01528181611f31015281816128f60152613168015260a05181818161046b01528181610eac01528181610fa50152818161109301526121710152f35b845162461bcd60e51b815260206004820152601b60248201527f496e76616c696420563120636f6e7472616374206164647265737300000000006044820152606490fd5b855162461bcd60e51b815260206004820152601860248201527f496e76616c6964207665726966696572206164647265737300000000000000006044820152606490fd5b855162461bcd60e51b815260206004820152601560248201527f496e76616c696420746f6b656e206164647265737300000000000000000000006044820152606490fd5b600080fd5b634e487b7160e01b600052604160045260246000fd5b51906001600160a01b03821682036200027b5756fe608080604052600436101561001357600080fd5b60003560e01c9081630604ce27146134fc5750806309b5a33a146134bd5780630e141a9b14613497578063153b0d1e1461340757806316c38b3c146133925780631e23a7f0146133695780631f66351a146132bd5780632f44a61c1461329f57806335b944bf1461327957806335dbc94a146131d35780633f9bcde2146131b557806341c6138314613197578063492c70fb146131525780634d683674146131345780634e43603a14612fe9578063521c27f214612f9c578063565c99ac14612e48578063575c0f8314612da05780635951ac6514612cf85780635a9d93f11461271d5780635c975abb146126f7578063665988741461264b5780636fea4538146125a157806370ed4620146124f657806379b9c399146121005780637a994cd014611ea05780637bb0308514611e825780638372acf714611dda57806389934d3a146117065780638b311fbc1461163a5780638beaf1c5146115955780638da5cb5b1461156c5780638fb6c6f6146114c65780639cc8e7eb146114a8578063a079d40c1461139e578063a87430ba146112e6578063a90f8e9a146112ab578063b1eac37e1461128d578063b6c7288814611218578063ba9271ad14610dea578063bbb8518814610d30578063bdf0f1aa14610c61578063bff1f9e114610c43578063c710560914610c00578063cecfbead14610be2578063cf17beaf14610b2e578063db2e21bc14610972578063db3eef3f1461063c578063db74559b14610602578063df312b1e1461059e578063dfae07ff146104f4578063e7865e57146104d6578063e91c7d33146104b8578063e9aae6501461049a578063ed1ec0f414610455578063ed4c85a914610437578063edd6c84814610419578063efca2eed146103fb578063f09153c414610382578063f2fde38b146103025763f9f92be4146102be57600080fd5b346102fd5760203660031901126102fd576001600160a01b036102df613517565b166000526012602052602060ff604060002054166040519015158152f35b600080fd5b346102fd5760203660031901126102fd5761031b613517565b600054906001600160a01b03906103353383851614613705565b1690811561034d576001600160a01b03191617600055005b60405162461bcd60e51b815260206004820152600d60248201526c24b73b30b634b21037bbb732b960991b6044820152606490fd5b346102fd5760203660031901126102fd576001600160a01b036103a3613517565b16600052601360205260a0600660406000200154601660205260406000205460ff6040519281811615158452818160081c1615156020850152818160101c161515604085015260181c16151560608301526080820152f35b346102fd5760003660031901126102fd576020600e54604051908152f35b346102fd5760003660031901126102fd576020600854604051908152f35b346102fd5760003660031901126102fd576020600754604051908152f35b346102fd5760003660031901126102fd576040517f00000000000000000000000000000000000000000000000000000000000000006001600160a01b03168152602090f35b346102fd5760003660031901126102fd576020600154604051908152f35b346102fd5760003660031901126102fd576020600354604051908152f35b346102fd5760003660031901126102fd576020600c54604051908152f35b346102fd5760203660031901126102fd57600080516020613c3e83398151915260a060043561052d600180841b03600054163314613705565b683635c9adc5dea000008110158061058a575b61054990613bc0565b60025490806002556040519160608352601460608401527353545245414b5f424f4e55535f5045525f44415960601b608084015260208301526040820152a1005b50690a968163f0a57b400000811115610540565b346102fd5760203660031901126102fd576001600160a01b036105bf613517565b166000526014602052608060406000206001815491015460ff6040519281811615158452818160081c161515602085015260101c16151560408301526060820152f35b346102fd5760203660031901126102fd576001600160a01b03610623613517565b1660005260166020526020604060002054604051908152f35b346102fd5761069361068e6106503661359b565b61066960ff6011979495979693965460a81c1615613777565b336000526020946012865261068660ff60406000205416156137b8565b848733613a6f565b6138a7565b61069c33613a31565b336000526014825260406000206106b43683866138e7565b8051908401207f59f9c19ce4d2104b5074afdbd422a67ce762a07b67944dfc1ac72cebc1ef9fb3810361089d5750600181546106f360ff82161561392e565b60ff1916179055600654905b6040516370a0823160e01b81523060048201527f00000000000000000000000000000000000000000000000000000000000000006001600160a01b0316908481602481855afa801561086057849060009061086c575b6107619250101561381d565b3360005260138452600360406000200161077c8482546137fd565b905561078a83600e546137fd565b600e5560405163a9059cbb60e01b815233600482015260248101849052908490829060449082906000905af193841561086057600094610807575b50506107f17f10ddce2fe83f593b5a578fdeaea55181daa98b7e1e4652e712b2c821622fc30793613869565b61080260405192839233968461397a565b0390a2005b90809450813d8311610859575b61081e8183613643565b810103126102fd576107f16108537f10ddce2fe83f593b5a578fdeaea55181daa98b7e1e4652e712b2c821622fc30794613665565b936107c5565b503d610814565b6040513d6000823e3d90fd5b50508481813d8311610896575b6108838183613643565b810103126102fd57836107619151610755565b503d610879565b7f103f7b2dda1595da24c03f5970d4163272b9badb6161a376876bfea67102615c81036108eb575061010081546108da60ff8260081c161561392e565b61ff001916179055600754906106ff565b7f6c25e4722cb75723d0f45967423f4fefc1866b6db42936b2e4c9827f9d9f8ccd036109395762010000815461092760ff8260101c161561392e565b62ff00001916179055600854906106ff565b60405162461bcd60e51b8152600481018490526011602482015270496e76616c6964207461736b207479706560781b6044820152606490fd5b346102fd5760003660031901126102fd576000546001600160a01b0390811661099c338214613705565b6040516370a0823160e01b8152306004820152916020917f00000000000000000000000000000000000000000000000000000000000000008216908385602481855afa94851561086057600095610aff575b508415610acd5760405163a9059cbb60e01b81526001600160a01b03919091166004820152602481018590529291908290849060449082906000905af192831561086057600093610a73575b50610a657f5fafa99d0643513820be26656b45130b01e1c03062e1266bf36f88cbd3bd969593613869565b6000541692604051908152a2005b92508183813d8311610ac6575b610a8a8183613643565b810103126102fd57610a65610abf7f5fafa99d0643513820be26656b45130b01e1c03062e1266bf36f88cbd3bd969594613665565b9350610a3a565b503d610a80565b60405162461bcd60e51b815260048101859052600a6024820152694e6f2062616c616e636560b01b6044820152606490fd5b9094508381813d8311610b27575b610b178183613643565b810103126102fd575193856109ee565b503d610b0d565b346102fd5760203660031901126102fd57600080516020613c3e83398151915260a0600435610b67600180841b03600054163314613705565b69021e19e0c9bab240000081101580610bce575b610b8490613bc0565b60075490806007556040519160608352601860608401527f4352454154455f50524544494354494f4e5f5245574152440000000000000000608084015260208301526040820152a1005b50692a5a058fc295ed000000811115610b7b565b346102fd5760003660031901126102fd576020600a54604051908152f35b346102fd5760203660031901126102fd576080610c23610c1e613517565b6139e7565b916040519315158452151560208401521515604083015215156060820152f35b346102fd5760003660031901126102fd576020600f54604051908152f35b346102fd5760203660031901126102fd57600435610c8a60018060a01b03600054163314613705565b600181101580610d25575b15610ce75760a0600080516020613c3e8339815191529160055490806005556040519160608352600e60608401526d4a41434b504f545f4348414e434560901b608084015260208301526040820152a1005b60405162461bcd60e51b8152602060048201526016602482015275496e76616c6964206368616e63652028312d3230252960501b6044820152606490fd5b506014811115610c95565b346102fd5760003660031901126102fd576040516370a0823160e01b81523060048201526020816024817f00000000000000000000000000000000000000000000000000000000000000006001600160a01b03165afa801561086057600090610db8575b608090600e54600f5460105491604051938452602084015260408301526060820152f35b506020813d8211610de2575b81610dd160209383613643565b810103126102fd5760809051610d94565b3d9150610dc4565b346102fd5760203660031901126102fd5760043567ffffffffffffffff81116102fd57610e1b90369060040161353c565b90610e3160018060a01b03600054163314613705565b610e4260ff60115460b01c166135e6565b60005b828110610e4e57005b6001600160a01b03610e69610e6483868661373d565b613763565b169081600052601360205260ff60066040600020015460201c168015611204575b6111fa5760405163543a185d60e11b81526004810183905291610140836024817f00000000000000000000000000000000000000000000000000000000000000006001600160a01b03165afa80156108605760009060009060009560009360008060009660009a6000956000976111b0575b50841561119c5760008a815260136020908152604091829020968755600187018a90556002870192909255600386019290925560048086019390935560058501939093556006909301805464010000000064ffffffffff1990911689151560ff161761ff008d151560081b161762ff000087151560101b161763ff00000088151560181b16171790559151635487c74d60e11b8152918201879052816024816001600160a01b037f0000000000000000000000000000000000000000000000000000000000000000165afa9081156108605760009161116d575b506001600160a01b031680611056575b5090600080516020613c1e83398151915293929161103997600f61100a81546136f6565b9055841561104e575b508315611046575b50821561103e575b50604080519182529115156020820152a26136f6565b610e45565b915088611023565b92508961101b565b93508a611013565b60008681526015602090815260409182902080546001600160a01b031916909317909255516304dad19d60e11b81526004810187905290816024817f00000000000000000000000000000000000000000000000000000000000000006001600160a01b03165afa90811561086057600091611112575b509061103997611107600080516020613c1e8339815191529695949388600052601760205260406000209060ff801983541691151516179055565b975090919293610fe6565b9493929190506020853d602011611165575b8161113160209383613643565b810103126102fd5761103997611107611158600080516020613c1e83398151915297613665565b92939495965050976110cc565b3d9150611124565b61118f915060203d602011611195575b6111878183613643565b8101906136d7565b8a610fd6565b503d61117d565b5050505050505050505061103991506136f6565b985050505050505050506111df9193506101403d610140116111f3575b6111d78183613643565b810190613672565b919a9892979691959094929392918e610efc565b503d6111cd565b61103991506136f6565b50601260205260ff60406000205416610e8a565b346102fd5760203660031901126102fd577f5357603b66ce52ad2bde073bf1baae8a126a96ae712f396257fa4b57169c36ab602061125461352d565b61126960018060a01b03600054163314613705565b151560115460ff60a01b8260a01b169060ff60a01b191617601155604051908152a1005b346102fd5760003660031901126102fd576020600454604051908152f35b346102fd5760203660031901126102fd5760206001600160a01b03806112cf613517565b166000526015825260406000205416604051908152f35b346102fd5760203660031901126102fd576001600160a01b03611307613517565b166000526013602052610160604060002060ff815491600181015490600281015460038201546004830154916006600585015494015494604051978852602088015260408701526060860152608085015260a0840152818116151560c0840152818160081c16151560e0840152818160101c161515610100840152818160181c16151561012084015260201c161515610140820152f35b346102fd576020806003193601126102fd576040516323b872dd60e01b815233600482810191909152306024830152356044820181905291808260648160007f00000000000000000000000000000000000000000000000000000000000000006001600160a01b03165af19182156108605760009261144e575b506114437fb9ea67a19ab6bc678d42c223c0b3c9b7947918f351c3377a0e07e1b7332444c792613869565b6040519283523392a2005b91508082813d83116114a1575b6114658183613643565b810103126102fd5761144361149a7fb9ea67a19ab6bc678d42c223c0b3c9b7947918f351c3377a0e07e1b7332444c793613665565b9250611418565b503d61145b565b346102fd5760003660031901126102fd576020600654604051908152f35b346102fd5760203660031901126102fd57600080516020613c3e83398151915260a06004356114ff600180841b03600054163314613705565b69021e19e0c9bab240000081101580611558575b61151c90613bc0565b60095490806009556040519160608352600f60608401526e149151915494905317d49155d05491608a1b608084015260208301526040820152a1005b5069152d02c7e14af6800000811115611513565b346102fd5760003660031901126102fd576000546040516001600160a01b039091168152602090f35b346102fd5760203660031901126102fd57600080516020613c3e83398151915260a06004356115ce600180841b03600054163314613705565b690a968163f0a57b40000081101580611626575b6115eb90613bc0565b60045490806004556040519160608352600e60608401526d129050d2d413d517d05353d5539560921b608084015260208301526040820152a1005b5069d3c21bcecceda10000008111156115e2565b346102fd5760203660031901126102fd5760043561166360018060a01b03600054163314613705565b6005811015806116fb575b156116c75760a0600080516020613c3e833981519152916003549080600355604051916060835260156060840152744d41585f53545245414b5f424f4e55535f4441595360581b608084015260208301526040820152a1005b60405162461bcd60e51b815260206004820152600c60248201526b496e76616c6964206461797360a01b6044820152606490fd5b50601e81111561166e565b346102fd5760003660031901126102fd5760ff60115461172b828260a81c1615613777565b60a01c1615611d9e573360005260206012815261175060ff60406000205416156137b8565b336000526013815260406000208054620151808101808211611d38574210611d615715611d4e575b80548015159081611d20575b5015611d15576001810161179881546136f6565b90555b6001810191825492836002840180548211611d0d575b50506117d36001549460035490818111600014611d0657505b6002549061380a565b6117dd81866137fd565b91600e94855460405190868201904282524460408401523360601b606084015260748301524360948301526094825260c082019180831067ffffffffffffffff841117611cf05760649260405251902006600554119586611ccc575b6040516370a0823160e01b8082523060048301527f00000000000000000000000000000000000000000000000000000000000000006001600160a01b0316939091908882602481885afa8015610860578892600091611c98575b506003926118a291101561381d565b428155016118b18782546137fd565b90556118be8683546137fd565b82556118cb6010546136f6565b6010556118d733613a31565b33600052601387526040600020916001830160078154101580611c86575b611b30575b601e9054101580611b1e575b6119c7575b505060405163a9059cbb60e01b81523360048201526024810186905291869150829060449082906000905af1801561086057600090611991575b61194f9150613869565b54926040519586528501526040840152606083015260808201527f0b3cf2cd3b2ce31e0ff7cbb3f2562d51047e60d290a130fefc85fb019ee6fcc060a03392a2005b508481813d83116119c0575b6119a78183613643565b810103126102fd576119bb61194f91613665565b611945565b503d61199d565b60068301805463ff000000191663010000001790556040519182523060048301528782602481875afa8015610860578892600091611aef575b50600d5480911015611a13575b5061190b565b611a256003611a5f95019182546137fd565b9055600d5490611a368282546137fd565b905560405163a9059cbb60e01b8152336004820152602481019190915291829081906044820190565b03816000865af1801561086057611abb575b50600d546040519060408252600d60408301526c33305f4441595f53545245414b60981b606083015286820152600080516020613bfe83398151915260803392a287858180611a0d565b8581813d8311611ae8575b611ad08183613643565b810103126102fd57611ae190613665565b5087611a71565b503d611ac6565b83819492503d8311611b17575b611b068183613643565b810103126102fd578791518b611a00565b503d611afc565b5060ff600684015460181c1615611906565b60068401805462ff0000191662010000179055604051838152306004820152908982602481895afa91821561086057600092611c57575b50600c5480921015611b7b575b90506118fa565b611bc891611b8e600387019182546137fd565b905589600c54611b9f8186546137fd565b855560405163a9059cbb60e01b8152336004820152602481019190915292839081906044820190565b038160008a5af1801561086057611c22575b601e9150600c546040519060408252600c60408301526b375f4441595f53545245414b60a01b60608301528b820152600080516020613bfe83398151915260803392a2611b74565b8982813d8311611c50575b611c378183613643565b810103126102fd57611c4a601e92613665565b50611bda565b503d611c2d565b9091508981813d8311611c7f575b611c6f8183613643565b810103126102fd5751908c611b67565b503d611c65565b5060ff600685015460101c16156118f5565b8093508a8092503d8311611cc5575b611cb18183613643565b810103126102fd5790518791906003611893565b503d611ca7565b93611cda90600454906137fd565b9360058201611ce981546136f6565b9055611839565b634e487b7160e01b600052604160045260246000fd5b90506117ca565b5583856117b1565b60018082015561179b565b90506202a3008101809111611d385742111583611784565b634e487b7160e01b600052601160045260246000fd5b611d59600f546136f6565b600f55611778565b60405162461bcd60e51b8152600481018490526015602482015274416c726561647920636c61696d656420746f64617960581b6044820152606490fd5b60405162461bcd60e51b815260206004820152601460248201527310db185a5b5a5b99c81a5cc8191a5cd8589b195960621b6044820152606490fd5b346102fd5760203660031901126102fd57600080516020613c3e83398151915260a0600435611e13600180841b03600054163314613705565b69021e19e0c9bab240000081101580611e6e575b611e3090613bc0565b60065490806006556040519160608352601160608401527014d210549157d0d054d517d49155d05491607a1b608084015260208301526040820152a1005b50692a5a058fc295ed000000811115611e27565b346102fd5760003660031901126102fd576020600b54604051908152f35b346102fd57611eb461068e6106503661359b565b3360005260138252604060002090611ecd3682866138e7565b8051908401207fb54e063503447bce6485adab005b8755b54ded950878440b84f8e79a1196702e810361206b57506006820160018154611f1060ff8216156139a9565b60ff1916179055600a54915b6040516370a0823160e01b81523060048201527f00000000000000000000000000000000000000000000000000000000000000006001600160a01b0316918582602481865afa8015610860578592600091612037575b50600392611f8191101561381d565b01611f8d8482546137fd565b9055611f9b83600e546137fd565b600e5560405163a9059cbb60e01b815233600482015260248101849052908490829060449082906000905af193841561086057600094611ff0575b50506107f1600080516020613bfe83398151915293613869565b90809450813d8311612030575b6120078183613643565b810103126102fd576107f161202a600080516020613bfe83398151915294613665565b93611fd6565b503d611ffd565b809350878092503d8311612064575b6120508183613643565b810103126102fd5790518491906003611f72565b503d612046565b7f126235d9d2e6036d7fac7e99f1dcd31ada7ff126658a7dd43824f3e4f265d039036120bb576006820161010081546120aa60ff8260081c16156139a9565b61ff001916179055600b5491611f1c565b60405162461bcd60e51b815260048101849052601860248201527f496e76616c696420616368696576656d656e74207479706500000000000000006044820152606490fd5b346102fd5760003660031901126102fd5761212260ff60115460b01c166135e6565b3360005260206013815260ff600660406000200154821c166124bf57336000526012815260ff604060002054166124705760405163543a185d60e11b81523360048201526001600160a01b03917f0000000000000000000000000000000000000000000000000000000000000000831691610140908181602481875afa9283156108605760009460009660009660008060009160009a60009860009a60009c612432575b505084156123f65733600081815260138a52604090819020968755600187018f90556002870192909255600386019290925560048086019390935560058501939093556006909301805464010000000064ffffffffff199091168c151560ff161761ff008a151560081b161762ff00008b151560101b161763ff0000008c151560181b16171790559051635487c74d60e11b8152908101919091528381602481865afa908115610860576000916123d9575b5016806122f0575b50505091600080516020613c1e8339815191529391610802936122a4600f546136f6565b600f5583156122e8575b5082156122e0575b5081156122d8575b506040805194855290151560208501523393918291820190565b9050846122be565b9150856122b6565b9250866122ae565b91809160249333600052601583526040600020906001600160601b0360a01b825416179055604051938480926304dad19d60e11b82523360048301525afa91821561086057600092612380575b5091612376600080516020613c1e83398151915296949260176108029795336000525260406000209060ff801983541691151516179055565b9193819395612280565b9593915093918486813d83116123d2575b61239b8183613643565b810103126102fd576123766108029560176123c4600080516020613c1e83398151915299613665565b94969850509193955061233d565b503d612391565b6123f09150843d8611611195576111878183613643565b89612278565b60405162461bcd60e51b815260048101899052601460248201527355736572206e6f7420666f756e6420696e20563160601b6044820152606490fd5b989d5098505050505050945094506124569250803d106111f3576111d78183613643565b979b929a9799909891979296929590949193928d806121c6565b6084906040519062461bcd60e51b82526004820152602260248201527f43616e6e6f74206d69677261746520626c61636b6c6973746564206164647265604482015261737360f01b6064820152fd5b6064906040519062461bcd60e51b82526004820152601060248201526f105b1c9958591e481b5a59dc985d195960821b6044820152fd5b346102fd5760203660031901126102fd5761250f613517565b6000546001600160a01b0391906125299083163314613705565b16801561256957601180546001600160a01b031916821790557fe5b9ec72fc7e34a9021e01e954c7e54ceb50c6b1798084716afe188ffa5e13cb600080a2005b60405162461bcd60e51b815260206004820152601060248201526f24b73b30b634b2103b32b934b334b2b960811b6044820152606490fd5b346102fd5760203660031901126102fd57600080516020613c3e83398151915260a06004356125da600180841b03600054163314613705565b69152d02c7e14af680000081101580612636575b6125f790613bc0565b600a549080600a55604051916060835260126060840152711091551057d51154d5115497d49155d0549160721b608084015260208301526040820152a1005b506a01a784379d99db420000008111156125ee565b346102fd5760203660031901126102fd57600080516020613c3e83398151915260a0600435612684600180841b03600054163314613705565b69021e19e0c9bab2400000811015806126e3575b6126a190613bc0565b600b549080600b55604051916060835260156060840152741193d31313d5d7d4d3d0d2505314d7d49155d05491605a1b608084015260208301526040820152a1005b506969e10de76676d0800000811115612698565b346102fd5760003660031901126102fd57602060ff60115460a81c166040519015158152f35b346102fd5760403660031901126102fd57612736613517565b67ffffffffffffffff602480358281116102fd5761275890369060040161356d565b939060115461276d60ff8260a81c1615613777565b336000526020956012875261278a60ff60406000205416156137b8565b60018060a01b03928385169687600052601289526127b060ff60406000205416156137b8565b336000526017895260ff60406000205416612cbc57338814612c80578715612c4957876000526013895260406000205415612c0557604051908982013360601b81526001600160601b03198860601b16603484015267149151915494905360c21b6048840152620151804204605084015260508352608083019183831090831117612bf0579261288992828896939587966040528251902060bc60a08401937f19457468657265756d205369676e6564204d6573736167653a0a33320000000085520152603c815261288181613627565b519020613b0c565b9216911603612bac5733600052601785526040600020600160ff19825416179055601585526040600020846001600160601b0360a01b825416179055836000526016855260406000206128dc81546136f6565b90556009548060011b9181830460021482151715612b97577f00000000000000000000000000000000000000000000000000000000000000001691604051906370a0823160e01b825230600483015287828781875afa801561086057600090612b68575b61294c9250101561381d565b846000526013865261296760036040600020019182546137fd565b90556129b18560095461297c81600e546137fd565b600e5560405163a9059cbb60e01b8082526001600160a01b039096166004820152602481019190915291829081906044820190565b03816000865af190811561086057600091612b33575b5015612aef57612a2d91859160095433600052601384526129f160036040600020019182546137fd565b905560095491612a0383600e546137fd565b600e5560405190815233600482015260248101929092529092839190829060009082906044820190565b03925af190811561086057600091612aba575b5015612a7757507f90eab5d1df713df401d810f26aa9718d2b9e6894af1eb4890a332d3b185dc0e5600954926040519384523393a3005b82601b6064926040519262461bcd60e51b845260048401528201527f5472616e7366657220746f207265666572726564206661696c656400000000006044820152fd5b90508381813d8311612ae8575b612ad18183613643565b810103126102fd57612ae290613665565b84612a40565b503d612ac7565b60405162461bcd60e51b815260048101869052601b818501527f5472616e7366657220746f207265666572726572206661696c656400000000006044820152606490fd5b90508581813d8311612b61575b612b4a8183613643565b810103126102fd57612b5b90613665565b866129c7565b503d612b40565b508782813d8311612b90575b612b7e8183613643565b810103126102fd5761294c9151612940565b503d612b74565b84634e487b7160e01b60005260116004526000fd5b60405162461bcd60e51b815260048101869052601a818501527f496e76616c696420726566657272616c207369676e61747572650000000000006044820152606490fd5b88634e487b7160e01b60005260416004526000fd5b60405162461bcd60e51b8152600481018a9052601c818901527f5265666572726572206d757374206265206163746976652075736572000000006044820152606490fd5b60405162461bcd60e51b8152600481018a90526010818901526f24b73b30b634b2103932b332b93932b960811b6044820152606490fd5b60405162461bcd60e51b8152600481018a90526015818901527421b0b73737ba103932b332b9103cb7bab939b2b63360591b6044820152606490fd5b60405162461bcd60e51b8152600481018a905260158189015274105b1c9958591e481d5cd959081c9959995c9c985b605a1b6044820152606490fd5b346102fd5760203660031901126102fd57600080516020613c3e83398151915260a0600435612d31600180841b03600054163314613705565b69152d02c7e14af680000081101580612d8b575b612d4e90613bc0565b600d549080600d556040519160608352601060608401526f14d514915052d7cccc17d49155d0549160821b608084015260208301526040820152a1005b506a0422ca8b0a00a425000000811115612d45565b346102fd5760203660031901126102fd57600080516020613c3e83398151915260a0600435612dd9600180841b03600054163314613705565b69021e19e0c9bab240000081101580612e34575b612df690613bc0565b600154908060015560405191606083526011606084015270109054d157d11052531657d49155d05491607a1b608084015260208301526040820152a1005b50692a5a058fc295ed000000811115612ded565b346102fd5760403660031901126102fd5767ffffffffffffffff6004358181116102fd57612e7a90369060040161353c565b916024359081116102fd57612e9390369060040161353c565b6000546001600160a01b039390612ead9085163314613705565b818503612f5f5760005b858110612ec057005b80612ed7612ed2612f5a93868861373d565b613bb3565b86612ee6610e64848b8861373d565b16600052612f0a6020916012835260406000209060ff801983541691151516179055565b7f6a12b3df6cba4203bd7fd06b816789f87de8c594299aed5717ae070fac781bac612f39610e64848b8861373d565b9188612f49612ed2868a8c61373d565b9360405194151585521692a26136f6565b612eb7565b60405162461bcd60e51b8152602060048201526015602482015274082e4e4c2f240d8cadccee8d040dad2e6dac2e8c6d605b1b6044820152606490fd5b346102fd5760203660031901126102fd57612fb561352d565b612fca60018060a01b03600054163314613705565b6011805460ff60b01b191691151560b01b60ff60b01b16919091179055005b346102fd5760203660031901126102fd57613002613517565b60018060a01b0316600052601360205260406000208054600182015491600281015492600382015460ff6006600585015494015460201c16928415908115928361311c575b8215613109576000935b83156130fb57806130e5575b156130d7576001850197888611611d385761309a610120995b60035490818111156130d057505b613094600154916002549061380a565b906137fd565b956040519889526020890152604088015260608701526080860152151560a085015260c084015260e08301521515610100820152f35b9050613084565b6101209761309a6001613076565b506202a3008701808811611d385742111561305d565b506101209761309a86613076565b620151808701808811611d385793613051565b9150620151808601808711611d385742101591613047565b346102fd5760003660031901126102fd576020600954604051908152f35b346102fd5760003660031901126102fd576040517f00000000000000000000000000000000000000000000000000000000000000006001600160a01b03168152602090f35b346102fd5760003660031901126102fd576020601054604051908152f35b346102fd5760003660031901126102fd576020600d54604051908152f35b346102fd5760203660031901126102fd57600080516020613c3e83398151915260a060043561320c600180841b03600054163314613705565b690a968163f0a57b40000081101580613265575b61322990613bc0565b600c549080600c556040519160608352600f60608401526e14d514915052d7cdd7d49155d05491608a1b608084015260208301526040820152a1005b5069d3c21bcecceda1000000811115613220565b346102fd5760003660031901126102fd57602060ff60115460b01c166040519015158152f35b346102fd5760003660031901126102fd576020600254604051908152f35b346102fd5760203660031901126102fd57600080516020613c3e83398151915260a06004356132f6600180841b03600054163314613705565b69021e19e0c9bab240000081101580613355575b61331390613bc0565b60085490806008556040519160608352601560608401527415149051125391d7d593d315535157d49155d05491605a1b608084015260208301526040820152a1005b50692a5a058fc295ed00000081111561330a565b346102fd5760003660031901126102fd576011546040516001600160a01b039091168152602090f35b346102fd5760203660031901126102fd577f0e2fb031ee032dc02d8011dc50b816eb450cf856abd8261680dac74f72165bd260206133ce61352d565b6133e360018060a01b03600054163314613705565b151560115460ff60a81b8260a81b169060ff60a81b191617601155604051908152a1005b346102fd5760403660031901126102fd57613420613517565b60243590811515908183036102fd577f6a12b3df6cba4203bd7fd06b816789f87de8c594299aed5717ae070fac781bac9161348e60209260018060a01b039061346e82600054163314613705565b1694856000526012845260406000209060ff801983541691151516179055565b604051908152a2005b346102fd5760003660031901126102fd57602060ff60115460a01c166040519015158152f35b346102fd5760203660031901126102fd576001600160a01b036134de613517565b166000526017602052602060ff604060002054166040519015158152f35b346102fd5760003660031901126102fd576020906005548152f35b600435906001600160a01b03821682036102fd57565b6004359081151582036102fd57565b9181601f840112156102fd5782359167ffffffffffffffff83116102fd576020808501948460051b0101116102fd57565b9181601f840112156102fd5782359167ffffffffffffffff83116102fd57602083818601950101116102fd57565b60406003198201126102fd5767ffffffffffffffff916004358381116102fd57826135c89160040161356d565b939093926024359182116102fd576135e29160040161356d565b9091565b156135ed57565b60405162461bcd60e51b8152602060048201526012602482015271135a59dc985d1a5bdb88191a5cd8589b195960721b6044820152606490fd5b6060810190811067ffffffffffffffff821117611cf057604052565b90601f8019910116810190811067ffffffffffffffff821117611cf057604052565b519081151582036102fd57565b9190826101409103126102fd5781519160208101519160408201519160608101519160808201519160a0810151916136ac60c08301613665565b916136b960e08201613665565b916136d46101206136cd6101008501613665565b9301613665565b90565b908160209103126102fd57516001600160a01b03811681036102fd5790565b6000198114611d385760010190565b1561370c57565b60405162461bcd60e51b81526020600482015260096024820152682737ba1037bbb732b960b91b6044820152606490fd5b919081101561374d5760051b0190565b634e487b7160e01b600052603260045260246000fd5b356001600160a01b03811681036102fd5790565b1561377e57565b60405162461bcd60e51b815260206004820152601260248201527110dbdb9d1c9858dd081a5cc81c185d5cd95960721b6044820152606490fd5b156137bf57565b60405162461bcd60e51b81526020600482015260166024820152751059191c995cdcc81a5cc8189b1858dadb1a5cdd195960521b6044820152606490fd5b91908201809211611d3857565b81810292918115918404141715611d3857565b1561382457565b60405162461bcd60e51b815260206004820152601960248201527f496e73756666696369656e7420706f6f6c2062616c616e6365000000000000006044820152606490fd5b1561387057565b60405162461bcd60e51b815260206004820152600f60248201526e151c985b9cd9995c8819985a5b1959608a1b6044820152606490fd5b156138ae57565b60405162461bcd60e51b8152602060048201526011602482015270496e76616c6964207369676e617475726560781b6044820152606490fd5b92919267ffffffffffffffff8211611cf05760405191613911601f8201601f191660200184613643565b8294818452818301116102fd578281602093846000960137010152565b1561393557565b60405162461bcd60e51b815260206004820152601c60248201527f5461736b20616c726561647920636f6d706c6574656420746f646179000000006044820152606490fd5b9392918060609160209360408852816040890152838801376000828288010152601f8019910116850101930152565b156139b057565b60405162461bcd60e51b815260206004820152600f60248201526e105b1c9958591e4818db185a5b5959608a1b6044820152606490fd5b6001600160a01b0316600090815260146020526040812060018101546201518042049003613a2757549060ff82169260ff808460081c169360101c169190565b5080918190600190565b6001600160a01b031660009081526014602052604090206001810180546201518042049290839003613a6257505050565b805462ffffff1916905555565b9091613ab86054613af89695948360405194859260208401976001600160601b03199060601b168852603484013781016201518042046034820152036034810184520182613643565b51902060405160208101917f19457468657265756d205369676e6564204d6573736167653a0a3332000000008352603c820152603c815261288181613627565b6011546001600160a01b0391821691161490565b91604103613b6e57604081013560001a601b8110613b5c575b6020928360009360ff6080946040519485521682840152803560408401520135606082015282805260015afa156108605760005190565b601b019060ff8211611d385790613b25565b60405162461bcd60e51b815260206004820152601860248201527f496e76616c6964207369676e6174757265206c656e67746800000000000000006044820152606490fd5b3580151581036102fd5790565b15613bc757565b60405162461bcd60e51b815260206004820152600e60248201526d125b9d985b1a5908185b5bdd5b9d60921b6044820152606490fdfe67a8d47c6ecf3a491ea8a4f20a58352394879c573c678ec5b9abceae075d4dcafa033830c485f08f608e3c319d9b8fae0af1abda74131f96e0bcd8aed54772dde6d2ae151935a76dc9b9533838544ae8137ad6337ffd21a54e415ab781611f60a26469706673582212203054709a5595f8da02b2312729f94e700efe550ff68a6d9f754ab94543d7387e64736f6c63430008130033",
  "linkReferences": {},
  "deployedLinkReferences": {}
}