{
  "_format": "hh-sol-artifact-1",
  "contractName": "SwipeClaim",
  "sourceName": "contracts/SwipeClaim.sol",
  "abi": [
    {
      "inputs": [
        {
          "internalType": "address",
          "name": "_v2Contract",
          "type": "address"
        },
        {
          "internalType": "address",
          "name": "_swipeToken",
          "type": "address"
        }
      ],
      "stateMutability": "nonpayable",
      "type": "constructor"
    },
    {
      "anonymous": false,
      "inputs": [
        {
          "indexed": true,
          "internalType": "address",
          "name": "user",
          "type": "address"
        },
        {
          "indexed": false,
          "internalType": "uint256",
          "name": "betCount",
          "type": "uint256"
        }
      ],
      "name": "BetCountSet",
      "type": "event"
    },
    {
      "anonymous": false,
      "inputs": [
        {
          "indexed": false,
          "internalType": "bool",
          "name": "enabled",
          "type": "bool"
        }
      ],
      "name": "ClaimingToggled",
      "type": "event"
    },
    {
      "anonymous": false,
      "inputs": [
        {
          "indexed": false,
          "internalType": "uint256",
          "name": "newMax",
          "type": "uint256"
        }
      ],
      "name": "MaxPredictionIdUpdated",
      "type": "event"
    },
    {
      "anonymous": false,
      "inputs": [
        {
          "indexed": true,
          "internalType": "address",
          "name": "user",
          "type": "address"
        },
        {
          "indexed": false,
          "internalType": "uint256",
          "name": "betCount",
          "type": "uint256"
        },
        {
          "indexed": false,
          "internalType": "uint256",
          "name": "swipeAmount",
          "type": "uint256"
        }
      ],
      "name": "SwipeClaimed",
      "type": "event"
    },
    {
      "anonymous": false,
      "inputs": [
        {
          "indexed": false,
          "internalType": "uint256",
          "name": "amount",
          "type": "uint256"
        }
      ],
      "name": "SwipeDeposited",
      "type": "event"
    },
    {
      "inputs": [],
      "name": "REWARD_100_BETS",
      "outputs": [
        {
          "internalType": "uint256",
          "name": "",
          "type": "uint256"
        }
      ],
      "stateMutability": "view",
      "type": "function"
    },
    {
      "inputs": [],
      "name": "REWARD_10_BETS",
      "outputs": [
        {
          "internalType": "uint256",
          "name": "",
          "type": "uint256"
        }
      ],
      "stateMutability": "view",
      "type": "function"
    },
    {
      "inputs": [],
      "name": "REWARD_25_BETS",
      "outputs": [
        {
          "internalType": "uint256",
          "name": "",
          "type": "uint256"
        }
      ],
      "stateMutability": "view",
      "type": "function"
    },
    {
      "inputs": [],
      "name": "REWARD_50_BETS",
      "outputs": [
        {
          "internalType": "uint256",
          "name": "",
          "type": "uint256"
        }
      ],
      "stateMutability": "view",
      "type": "function"
    },
    {
      "inputs": [],
      "name": "TIER_100_BETS",
      "outputs": [
        {
          "internalType": "uint256",
          "name": "",
          "type": "uint256"
        }
      ],
      "stateMutability": "view",
      "type": "function"
    },
    {
      "inputs": [],
      "name": "TIER_10_BETS",
      "outputs": [
        {
          "internalType": "uint256",
          "name": "",
          "type": "uint256"
        }
      ],
      "stateMutability": "view",
      "type": "function"
    },
    {
      "inputs": [],
      "name": "TIER_25_BETS",
      "outputs": [
        {
          "internalType": "uint256",
          "name": "",
          "type": "uint256"
        }
      ],
      "stateMutability": "view",
      "type": "function"
    },
    {
      "inputs": [],
      "name": "TIER_50_BETS",
      "outputs": [
        {
          "internalType": "uint256",
          "name": "",
          "type": "uint256"
        }
      ],
      "stateMutability": "view",
      "type": "function"
    },
    {
      "inputs": [
        {
          "internalType": "address[]",
          "name": "_users",
          "type": "address[]"
        },
        {
          "internalType": "uint256[]",
          "name": "_betCounts",
          "type": "uint256[]"
        }
      ],
      "name": "batchSetBetCounts",
      "outputs": [],
      "stateMutability": "nonpayable",
      "type": "function"
    },
    {
      "inputs": [
        {
          "internalType": "address",
          "name": "",
          "type": "address"
        }
      ],
      "name": "betCountSet",
      "outputs": [
        {
          "internalType": "bool",
          "name": "",
          "type": "bool"
        }
      ],
      "stateMutability": "view",
      "type": "function"
    },
    {
      "inputs": [],
      "name": "claimSwipe",
      "outputs": [],
      "stateMutability": "nonpayable",
      "type": "function"
    },
    {
      "inputs": [],
      "name": "claimingEnabled",
      "outputs": [
        {
          "internalType": "bool",
          "name": "",
          "type": "bool"
        }
      ],
      "stateMutability": "view",
      "type": "function"
    },
    {
      "inputs": [
        {
          "internalType": "address",
          "name": "_user",
          "type": "address"
        }
      ],
      "name": "countUserBets",
      "outputs": [
        {
          "internalType": "uint256",
          "name": "betCount",
          "type": "uint256"
        }
      ],
      "stateMutability": "view",
      "type": "function"
    },
    {
      "inputs": [
        {
          "internalType": "uint256",
          "name": "_amount",
          "type": "uint256"
        }
      ],
      "name": "depositSwipe",
      "outputs": [],
      "stateMutability": "nonpayable",
      "type": "function"
    },
    {
      "inputs": [],
      "name": "emergencyWithdrawSwipe",
      "outputs": [],
      "stateMutability": "nonpayable",
      "type": "function"
    },
    {
      "inputs": [
        {
          "internalType": "uint256",
          "name": "betCount",
          "type": "uint256"
        }
      ],
      "name": "getRewardForBetCount",
      "outputs": [
        {
          "internalType": "uint256",
          "name": "rewardAmount",
          "type": "uint256"
        }
      ],
      "stateMutability": "pure",
      "type": "function"
    },
    {
      "inputs": [],
      "name": "getSwipeBalance",
      "outputs": [
        {
          "internalType": "uint256",
          "name": "",
          "type": "uint256"
        }
      ],
      "stateMutability": "view",
      "type": "function"
    },
    {
      "inputs": [
        {
          "internalType": "uint256",
          "name": "betCount",
          "type": "uint256"
        }
      ],
      "name": "getTierInfo",
      "outputs": [
        {
          "internalType": "string",
          "name": "tierName",
          "type": "string"
        },
        {
          "internalType": "uint256",
          "name": "rewardAmount",
          "type": "uint256"
        },
        {
          "internalType": "uint256",
          "name": "nextTierBetCount",
          "type": "uint256"
        }
      ],
      "stateMutability": "pure",
      "type": "function"
    },
    {
      "inputs": [
        {
          "internalType": "address",
          "name": "_user",
          "type": "address"
        }
      ],
      "name": "getUserClaimInfo",
      "outputs": [
        {
          "internalType": "bool",
          "name": "eligible",
          "type": "bool"
        },
        {
          "internalType": "uint256",
          "name": "betCount",
          "type": "uint256"
        },
        {
          "internalType": "uint256",
          "name": "rewardAmount",
          "type": "uint256"
        }
      ],
      "stateMutability": "view",
      "type": "function"
    },
    {
      "inputs": [
        {
          "internalType": "address",
          "name": "",
          "type": "address"
        }
      ],
      "name": "hasClaimed",
      "outputs": [
        {
          "internalType": "bool",
          "name": "",
          "type": "bool"
        }
      ],
      "stateMutability": "view",
      "type": "function"
    },
    {
      "inputs": [],
      "name": "maxPredictionId",
      "outputs": [
        {
          "internalType": "uint256",
          "name": "",
          "type": "uint256"
        }
      ],
      "stateMutability": "view",
      "type": "function"
    },
    {
      "inputs": [],
      "name": "owner",
      "outputs": [
        {
          "internalType": "address",
          "name": "",
          "type": "address"
        }
      ],
      "stateMutability": "view",
      "type": "function"
    },
    {
      "inputs": [
        {
          "internalType": "bool",
          "name": "_enabled",
          "type": "bool"
        }
      ],
      "name": "setClaimingEnabled",
      "outputs": [],
      "stateMutability": "nonpayable",
      "type": "function"
    },
    {
      "inputs": [
        {
          "internalType": "uint256",
          "name": "_maxId",
          "type": "uint256"
        }
      ],
      "name": "setMaxPredictionId",
      "outputs": [],
      "stateMutability": "nonpayable",
      "type": "function"
    },
    {
      "inputs": [
        {
          "internalType": "address",
          "name": "_user",
          "type": "address"
        },
        {
          "internalType": "uint256",
          "name": "_betCount",
          "type": "uint256"
        }
      ],
      "name": "setUserBetCount",
      "outputs": [],
      "stateMutability": "nonpayable",
      "type": "function"
    },
    {
      "inputs": [],
      "name": "swipeToken",
      "outputs": [
        {
          "internalType": "address",
          "name": "",
          "type": "address"
        }
      ],
      "stateMutability": "view",
      "type": "function"
    },
    {
      "inputs": [
        {
          "internalType": "address",
          "name": "_newOwner",
          "type": "address"
        }
      ],
      "name": "transferOwnership",
      "outputs": [],
      "stateMutability": "nonpayable",
      "type": "function"
    },
    {
      "inputs": [
        {
          "internalType": "address",
          "name": "",
          "type": "address"
        }
      ],
      "name": "userBetCounts",
      "outputs": [
        {
          "internalType": "uint256",
          "name": "",
          "type": "uint256"
        }
      ],
      "stateMutability": "view",
      "type": "function"
    },
    {
      "inputs": [],
      "name": "v2Contract",
      "outputs": [
        {
          "internalType": "address",
          "name": "",
          "type": "address"
        }
      ],
      "stateMutability": "view",
      "type": "function"
    }
  ],
  "bytecode": "0x60c0346100c457601f6115af38819003918201601f19168301916001600160401b038311848410176100c95780849260409485528339810103126100c457610052602061004b836100df565b92016100df565b6103e86004556005805460ff19166001179055600080546001600160a01b0319163317905560809190915260a0526040516114bb90816100f482396080518181816109a60152610fbb015260a0518181816106410152818161073e01528181610aa601528181610d570152610db50152f35b600080fd5b634e487b7160e01b600052604160045260246000fd5b51906001600160a01b03821682036100c45756fe608060408181526004918236101561001657600080fd5b600092833560e01c9182630e141a9b14610e965750816312b1e77414610e7a57816331bef01914610e545781633b5b827814610e385781633f4d9c2614610d86578163492c70fb14610d425781636495d34014610d1c5781636daf1d8414610a3157816373b2e80e146109f35781637b42dea6146109d557816382fb31fe1461099157816383aa56fa146109535781638da5cb5b1461092b5781638f6093a314610897578163965f632b14610710578163a079d40c14610602578163b6c7288814610593578163b78d21ae14610577578163c09762f414610552578163c8e1ae0a1461052c578163cc9d7519146104b1578163ccc5cf6214610487578163cf546b1814610406578163d2b885bb146103e0578163d80c363a1461027e578163db7b8aa914610246578163ee75defd1461020c578163f2fde38b14610182575063fa37e2991461016457600080fd5b3461017e578160031936011261017e576020905160198152f35b5080fd5b9050346102085760203660031901126102085761019d610eb7565b835491906001600160a01b03906101b73383861614611413565b169283156101d15750506001600160a01b03191617815580f35b906020606492519162461bcd60e51b8352820152601160248201527024b73b30b634b2103732bb9037bbb732b960791b6044820152fd5b8280fd5b50503461017e57602036600319011261017e5760609061023261022d610eb7565b611361565b919290815193151584526020840152820152f35b50503461017e57602036600319011261017e5760209181906001600160a01b0361026e610eb7565b1681526002845220549051908152f35b9190503461020857806003193601126102085767ffffffffffffffff9180358381116103dc576102b19036908301610ed2565b90936024359081116103d8576102ca9036908401610ed2565b909160018060a01b03936102e2858954163314611413565b82820361039d5750865b8181106102f7578780f35b8061030661039892858761144b565b358661031b61031684878d61144b565b611471565b168a5260209060028252888b20558661033861031684878d61144b565b168a5260038152878a20805460ff191660011790557f77c54f69fc22d36a1dc5dd803181a79acc4780d8bf3f348e258f3e5febdfff2a61037c61031684878d61144b565b918861038985898b61144b565b35938b519485521692a2610f57565b6102ec565b606490602087519162461bcd60e51b83528201526015602482015274082e4e4c2f240d8cadccee8d040dad2e6dac2e8c6d605b1b6044820152fd5b8580fd5b8480fd5b50503461017e578160031936011261017e57602090516a084595161401484a0000008152f35b50503461017e578060031936011261017e577f77c54f69fc22d36a1dc5dd803181a79acc4780d8bf3f348e258f3e5febdfff2a6020610443610eb7565b8454602435916001600160a01b039161045f9083163314611413565b169384865260028352818187205560038352808620600160ff1982541617905551908152a280f35b8284346104ae5760203660031901126104ae57506104a7602092356111f1565b9051908152f35b80fd5b91905034610208576020918260031936011261052857916104d3849335611254565b90949193805195869460608652865194856060880152805b868110610511575060808098508688010152850152830152601f80199101168101030190f35b8089018301518a82016080015289975082016104eb565b8380fd5b50503461017e578160031936011261017e57602090516a14adf4b7320334b90000008152f35b50503461017e578160031936011261017e576020905169d3c21bcecceda10000008152f35b50503461017e578160031936011261017e576020905160648152f35b905034610208576020366003190112610208573590811515809203610208577f5357603b66ce52ad2bde073bf1baae8a126a96ae712f396257fa4b57169c36ab916020916105eb60018060a01b038654163314611413565b60ff196005541660ff83161760055551908152a180f35b9190503461020857602090816003193601126105285780516323b872dd60e01b81523381850152306024820152923560448401819052908284606481887f00000000000000000000000000000000000000000000000000000000000000006001600160a01b03165af19384156107065785946106ac575b506106a47f679798103964707163397293a03409f0890f9ed183d148944c0a9a2d4604a6cd946113cf565b51908152a180f35b93508284813d83116106ff575b6106c38183610f35565b810103126103dc576106a46106f87f679798103964707163397293a03409f0890f9ed183d148944c0a9a2d4604a6cd95610f7c565b9450610679565b503d6106b9565b81513d87823e3d90fd5b83833461017e578160031936011261017e5781546001600160a01b03908116939061073c338614611413565b7f0000000000000000000000000000000000000000000000000000000000000000168251946370a0823160e01b865230838701526020928387602481865afa96871561088d57869761085e575b50861561082457845163a9059cbb60e01b81526001600160a01b03909216908201908152602081019690965293948291859182908890829060400103925af191821561081b575083916107e4575b836107e1836113cf565b80f35b905081813d8311610814575b6107fa8183610f35565b8101031261017e5761080e6107e191610f7c565b836107d7565b503d6107f0565b513d85823e3d90fd5b845162461bcd60e51b815290810184905260146024820152734e6f20535749504520746f20776974686472617760601b6044820152606490fd5b9096508381813d8311610886575b6108768183610f35565b810103126103d857519587610789565b503d61086c565b85513d88823e3d90fd5b91905034610208576020366003190112610208578135916108c260018060a01b038554163314611413565b82156108f85791602091817f449e8415715393d8b77540c364080d2a49e56667c39d8fd07090036de5f52246945551908152a180f35b6020606492519162461bcd60e51b8352820152600e60248201526d125b9d985b1a59081b585e08125160921b6044820152fd5b50503461017e578160031936011261017e57905490516001600160a01b039091168152602090f35b50503461017e57602036600319011261017e5760209160ff9082906001600160a01b0361097e610eb7565b1681526003855220541690519015158152f35b50503461017e578160031936011261017e57517f00000000000000000000000000000000000000000000000000000000000000006001600160a01b03168152602090f35b90503461020857826003193601126102085760209250549051908152f35b50503461017e57602036600319011261017e5760209160ff9082906001600160a01b03610a1e610eb7565b1681526001855220541690519015158152f35b83833461017e578160031936011261017e5760ff6005541615610ce6573382526020906001825260ff8184205416610cb357338352600382528083205460ff1615610ca4573383526002825280832054915b610a8c836111f1565b908115610c625782516370a0823160e01b815230818801527f00000000000000000000000000000000000000000000000000000000000000006001600160a01b0316969082816024818b5afa908115610c58579084918891610c23575b5010610be257338087526001808452858820805460ff19169091179055845163a9059cbb60e01b815291820190815260208101849052959694959094829186919082908a90829060400103925af1938415610bd8578694610b7e575b50610b707fedeb8cca9f41e2c8c3fa8d7392decd330daf8bc795a516b1a6ab420b889bc52c946113cf565b82519485528401523392a280f35b93508084813d8311610bd1575b610b958183610f35565b810103126103d857610b70610bca7fedeb8cca9f41e2c8c3fa8d7392decd330daf8bc795a516b1a6ab420b889bc52c95610f7c565b9450610b45565b503d610b8b565b83513d88823e3d90fd5b60649184519162461bcd60e51b8352820152601a60248201527f496e73756666696369656e742053574950452062616c616e63650000000000006044820152fd5b809250848092503d8311610c51575b610c3c8183610f35565b81010312610c4d5783905189610ae9565b8680fd5b503d610c32565b85513d89823e3d90fd5b8560649184519162461bcd60e51b8352820152601860248201527f4e6f7420656c696769626c6520666f72207265776172647300000000000000006044820152fd5b610cad33610fab565b91610a83565b5162461bcd60e51b81529283015250600f60248201526e105b1c9958591e4818db185a5b5959608a1b6044820152606490fd5b5162461bcd60e51b8152602081840152601160248201527010db185a5b5a5b99c8191a5cd8589b1959607a1b6044820152606490fd5b50503461017e57602036600319011261017e576020906104a7610d3d610eb7565b610fab565b50503461017e578160031936011261017e57517f00000000000000000000000000000000000000000000000000000000000000006001600160a01b03168152602090f35b9190503461020857826003193601126102085780516370a0823160e01b815230928101929092526020826024817f00000000000000000000000000000000000000000000000000000000000000006001600160a01b03165afa918215610e2e578392610df7575b6020838351908152f35b9091506020813d8211610e26575b81610e1260209383610f35565b810103126102085760209250519038610ded565b3d9150610e05565b81513d85823e3d90fd5b50503461017e578160031936011261017e576020905160328152f35b50503461017e578160031936011261017e57602090516a0c685fa11e01ec6f0000008152f35b50503461017e578160031936011261017e5760209051600a8152f35b84903461017e578160031936011261017e5760209060ff6005541615158152f35b600435906001600160a01b0382168203610ecd57565b600080fd5b9181601f84011215610ecd5782359167ffffffffffffffff8311610ecd576020808501948460051b010111610ecd57565b6040810190811067ffffffffffffffff821117610f1f57604052565b634e487b7160e01b600052604160045260246000fd5b90601f8019910116810190811067ffffffffffffffff821117610f1f57604052565b6000198114610f665760010190565b634e487b7160e01b600052601160045260246000fd5b51908115158203610ecd57565b90816060910312610ecd57805191610fa8604060208401519301610f7c565b90565b60408051636c6c949760e11b81527f00000000000000000000000000000000000000000000000000000000000000006001600160a01b031692906004906020818381885afa9081156111e6576000916111b5575b50600081156111ae57506000198101908111611199575b8154808210156111915750915b60009460015b8481111561103a5750505050505090565b8551633a26414960e21b81528481018281526001600160a01b03851660208201526060908190839081906040010381875afa918215611186576000908193611163575b501591821592611159575b508751631380a72360e21b81528681018481526001600160a01b03871660208201529091908190839081906040010381885afa91821561114e57600091829361111b575b50501590811591611111575b508115611109575b506110f4575b6110ef90610f57565b611029565b956111016110ef91610f57565b9690506110e6565b9050386110e0565b90501515386110d8565b61113e935080919250903d10611147575b6111368183610f35565b810190610f89565b509038806110cc565b503d61112c565b89513d6000823e3d90fd5b1515915038611088565b90508161117d9293503d8411611147576111368183610f35565b5091903861107d565b88513d6000823e3d90fd5b905091611023565b601182634e487b7160e01b6000525260246000fd5b9050611016565b906020823d82116111de575b816111ce60209383610f35565b810103126104ae57505138610fff565b3d91506111c1565b84513d6000823e3d90fd5b6064811061120957506a14adf4b7320334b900000090565b6032811061122157506a0c685fa11e01ec6f00000090565b6019811061123957506a084595161401484a00000090565b600a111561124657600090565b69d3c21bcecceda100000090565b6064811061128d575060405161126981610f03565b60048152633130302b60e01b6020820152906a14adf4b7320334b900000090600090565b603281106112c557506040516112a281610f03565b600381526235302b60e81b6020820152906a0c685fa11e01ec6f00000090606490565b601981106112fd57506040516112da81610f03565b600381526232352b60e81b6020820152906a084595161401484a00000090603290565b600a11156113335760405161131181610f03565b600c81526b4e6f7420456c696769626c6560a01b602082015290600090600a90565b60405161133f81610f03565b600381526231302b60e81b60208201529069d3c21bcecceda100000090601990565b6001600160a01b03811660008181526001602052604081205490919060ff166113c6576003602052604082205460ff16156113b55760409250815260026020522054905b6113ae826111f1565b8015159291565b50506113c090610fab565b906113a5565b50809150918190565b156113d657565b60405162461bcd60e51b815260206004820152601560248201527414d5d25411481d1c985b9cd9995c8819985a5b1959605a1b6044820152606490fd5b1561141a57565b60405162461bcd60e51b81526020600482015260096024820152682737ba1037bbb732b960b91b6044820152606490fd5b919081101561145b5760051b0190565b634e487b7160e01b600052603260045260246000fd5b356001600160a01b0381168103610ecd579056fea2646970667358221220e856b72b1d05f52776238ffa27e12e22ae9192d6579661791e9c787e4501de8b64736f6c63430008130033",
  "linkReferences": {},
  "deployedLinkReferences": {}
}