{
  "_format": "hh-sol-artifact-1",
  "contractName": "PredictionMarket_USDC_DualPool",
  "sourceName": "contracts/PredictionMarket_USDC_DualPool.sol",
  "abi": [
    {
      "inputs": [
        {
          "internalType": "address",
          "name": "_usdc",
          "type": "address"
        }
      ],
      "stateMutability": "nonpayable",
      "type": "constructor"
    },
    {
      "anonymous": false,
      "inputs": [
        {
          "indexed": true,
          "internalType": "uint256",
          "name": "predictionId",
          "type": "uint256"
        },
        {
          "indexed": true,
          "internalType": "address",
          "name": "user",
          "type": "address"
        },
        {
          "indexed": false,
          "internalType": "bool",
          "name": "isYes",
          "type": "bool"
        },
        {
          "indexed": false,
          "internalType": "uint256",
          "name": "amount",
          "type": "uint256"
        },
        {
          "indexed": false,
          "internalType": "uint256",
          "name": "priceAtEntry",
          "type": "uint256"
        },
        {
          "indexed": false,
          "internalType": "uint256",
          "name": "newYesPool",
          "type": "uint256"
        },
        {
          "indexed": false,
          "internalType": "uint256",
          "name": "newNoPool",
          "type": "uint256"
        }
      ],
      "name": "BetPlaced",
      "type": "event"
    },
    {
      "anonymous": false,
      "inputs": [
        {
          "indexed": true,
          "internalType": "uint256",
          "name": "predictionId",
          "type": "uint256"
        },
        {
          "indexed": true,
          "internalType": "address",
          "name": "user",
          "type": "address"
        },
        {
          "indexed": false,
          "internalType": "bool",
          "name": "isYes",
          "type": "bool"
        },
        {
          "indexed": false,
          "internalType": "uint256",
          "name": "amount",
          "type": "uint256"
        },
        {
          "indexed": false,
          "internalType": "uint256",
          "name": "received",
          "type": "uint256"
        },
        {
          "indexed": false,
          "internalType": "uint256",
          "name": "fee",
          "type": "uint256"
        }
      ],
      "name": "EarlyExit",
      "type": "event"
    },
    {
      "anonymous": false,
      "inputs": [
        {
          "indexed": false,
          "internalType": "string",
          "name": "feeType",
          "type": "string"
        },
        {
          "indexed": false,
          "internalType": "uint256",
          "name": "newValue",
          "type": "uint256"
        }
      ],
      "name": "FeeUpdated",
      "type": "event"
    },
    {
      "anonymous": false,
      "inputs": [
        {
          "indexed": false,
          "internalType": "uint256",
          "name": "platformFee",
          "type": "uint256"
        },
        {
          "indexed": false,
          "internalType": "uint256",
          "name": "creatorFee",
          "type": "uint256"
        },
        {
          "indexed": false,
          "internalType": "uint256",
          "name": "earlyExitFee",
          "type": "uint256"
        }
      ],
      "name": "FeesUpdated",
      "type": "event"
    },
    {
      "anonymous": false,
      "inputs": [
        {
          "indexed": false,
          "internalType": "uint256",
          "name": "newMinBet",
          "type": "uint256"
        }
      ],
      "name": "MinBetUpdated",
      "type": "event"
    },
    {
      "anonymous": false,
      "inputs": [
        {
          "indexed": false,
          "internalType": "uint256",
          "name": "amount",
          "type": "uint256"
        }
      ],
      "name": "OrphanedUSDCRescued",
      "type": "event"
    },
    {
      "anonymous": false,
      "inputs": [
        {
          "indexed": true,
          "internalType": "address",
          "name": "currentOwner",
          "type": "address"
        },
        {
          "indexed": true,
          "internalType": "address",
          "name": "pendingOwner",
          "type": "address"
        }
      ],
      "name": "OwnershipTransferStarted",
      "type": "event"
    },
    {
      "anonymous": false,
      "inputs": [
        {
          "indexed": true,
          "internalType": "address",
          "name": "previousOwner",
          "type": "address"
        },
        {
          "indexed": true,
          "internalType": "address",
          "name": "newOwner",
          "type": "address"
        }
      ],
      "name": "OwnershipTransferred",
      "type": "event"
    },
    {
      "anonymous": false,
      "inputs": [
        {
          "indexed": true,
          "internalType": "address",
          "name": "to",
          "type": "address"
        },
        {
          "indexed": false,
          "internalType": "uint256",
          "name": "amount",
          "type": "uint256"
        }
      ],
      "name": "PlatformFeesWithdrawn",
      "type": "event"
    },
    {
      "anonymous": false,
      "inputs": [
        {
          "indexed": true,
          "internalType": "uint256",
          "name": "predictionId",
          "type": "uint256"
        },
        {
          "indexed": false,
          "internalType": "string",
          "name": "reason",
          "type": "string"
        }
      ],
      "name": "PredictionCancelled",
      "type": "event"
    },
    {
      "anonymous": false,
      "inputs": [
        {
          "indexed": true,
          "internalType": "uint256",
          "name": "predictionId",
          "type": "uint256"
        },
        {
          "indexed": true,
          "internalType": "address",
          "name": "creator",
          "type": "address"
        },
        {
          "indexed": false,
          "internalType": "uint256",
          "name": "deadline",
          "type": "uint256"
        }
      ],
      "name": "PredictionRegistered",
      "type": "event"
    },
    {
      "anonymous": false,
      "inputs": [
        {
          "indexed": true,
          "internalType": "uint256",
          "name": "predictionId",
          "type": "uint256"
        },
        {
          "indexed": false,
          "internalType": "bool",
          "name": "outcome",
          "type": "bool"
        },
        {
          "indexed": false,
          "internalType": "uint256",
          "name": "platformFee",
          "type": "uint256"
        },
        {
          "indexed": false,
          "internalType": "uint256",
          "name": "creatorReward",
          "type": "uint256"
        },
        {
          "indexed": false,
          "internalType": "uint256",
          "name": "winnersPool",
          "type": "uint256"
        },
        {
          "indexed": false,
          "internalType": "uint256",
          "name": "losersPool",
          "type": "uint256"
        }
      ],
      "name": "PredictionResolved",
      "type": "event"
    },
    {
      "anonymous": false,
      "inputs": [
        {
          "indexed": true,
          "internalType": "uint256",
          "name": "predictionId",
          "type": "uint256"
        },
        {
          "indexed": true,
          "internalType": "address",
          "name": "user",
          "type": "address"
        },
        {
          "indexed": false,
          "internalType": "uint256",
          "name": "amount",
          "type": "uint256"
        }
      ],
      "name": "RefundClaimed",
      "type": "event"
    },
    {
      "anonymous": false,
      "inputs": [
        {
          "indexed": true,
          "internalType": "address",
          "name": "resolver",
          "type": "address"
        },
        {
          "indexed": false,
          "internalType": "bool",
          "name": "authorized",
          "type": "bool"
        }
      ],
      "name": "ResolverUpdated",
      "type": "event"
    },
    {
      "anonymous": false,
      "inputs": [
        {
          "indexed": true,
          "internalType": "uint256",
          "name": "predictionId",
          "type": "uint256"
        },
        {
          "indexed": true,
          "internalType": "address",
          "name": "user",
          "type": "address"
        },
        {
          "indexed": false,
          "internalType": "uint256",
          "name": "amount",
          "type": "uint256"
        },
        {
          "indexed": false,
          "internalType": "uint256",
          "name": "profit",
          "type": "uint256"
        }
      ],
      "name": "WinningsClaimed",
      "type": "event"
    },
    {
      "inputs": [],
      "name": "BASIS_POINTS",
      "outputs": [
        {
          "internalType": "uint256",
          "name": "",
          "type": "uint256"
        }
      ],
      "stateMutability": "view",
      "type": "function"
    },
    {
      "inputs": [],
      "name": "MAX_CREATOR_FEE",
      "outputs": [
        {
          "internalType": "uint256",
          "name": "",
          "type": "uint256"
        }
      ],
      "stateMutability": "view",
      "type": "function"
    },
    {
      "inputs": [],
      "name": "MAX_EARLY_EXIT_FEE",
      "outputs": [
        {
          "internalType": "uint256",
          "name": "",
          "type": "uint256"
        }
      ],
      "stateMutability": "view",
      "type": "function"
    },
    {
      "inputs": [],
      "name": "MAX_PLATFORM_FEE",
      "outputs": [
        {
          "internalType": "uint256",
          "name": "",
          "type": "uint256"
        }
      ],
      "stateMutability": "view",
      "type": "function"
    },
    {
      "inputs": [],
      "name": "MIN_BET_FLOOR",
      "outputs": [
        {
          "internalType": "uint256",
          "name": "",
          "type": "uint256"
        }
      ],
      "stateMutability": "view",
      "type": "function"
    },
    {
      "inputs": [],
      "name": "acceptOwnership",
      "outputs": [],
      "stateMutability": "nonpayable",
      "type": "function"
    },
    {
      "inputs": [
        {
          "internalType": "uint256",
          "name": "predictionId",
          "type": "uint256"
        },
        {
          "internalType": "bool",
          "name": "isYes",
          "type": "bool"
        },
        {
          "internalType": "uint256",
          "name": "amount",
          "type": "uint256"
        }
      ],
      "name": "calculateExitValue",
      "outputs": [
        {
          "internalType": "uint256",
          "name": "grossValue",
          "type": "uint256"
        },
        {
          "internalType": "uint256",
          "name": "fee",
          "type": "uint256"
        },
        {
          "internalType": "uint256",
          "name": "netValue",
          "type": "uint256"
        }
      ],
      "stateMutability": "view",
      "type": "function"
    },
    {
      "inputs": [
        {
          "internalType": "uint256",
          "name": "predictionId",
          "type": "uint256"
        },
        {
          "internalType": "bool",
          "name": "isYes",
          "type": "bool"
        },
        {
          "internalType": "uint256",
          "name": "amount",
          "type": "uint256"
        }
      ],
      "name": "calculatePotentialWinnings",
      "outputs": [
        {
          "internalType": "uint256",
          "name": "potentialPayout",
          "type": "uint256"
        },
        {
          "internalType": "uint256",
          "name": "potentialProfit",
          "type": "uint256"
        }
      ],
      "stateMutability": "view",
      "type": "function"
    },
    {
      "inputs": [
        {
          "internalType": "uint256",
          "name": "predictionId",
          "type": "uint256"
        },
        {
          "internalType": "string",
          "name": "reason",
          "type": "string"
        }
      ],
      "name": "cancelPrediction",
      "outputs": [],
      "stateMutability": "nonpayable",
      "type": "function"
    },
    {
      "inputs": [
        {
          "internalType": "uint256",
          "name": "predictionId",
          "type": "uint256"
        }
      ],
      "name": "claimRefund",
      "outputs": [],
      "stateMutability": "nonpayable",
      "type": "function"
    },
    {
      "inputs": [
        {
          "internalType": "uint256",
          "name": "predictionId",
          "type": "uint256"
        }
      ],
      "name": "claimWinnings",
      "outputs": [],
      "stateMutability": "nonpayable",
      "type": "function"
    },
    {
      "inputs": [],
      "name": "creatorFee",
      "outputs": [
        {
          "internalType": "uint256",
          "name": "",
          "type": "uint256"
        }
      ],
      "stateMutability": "view",
      "type": "function"
    },
    {
      "inputs": [],
      "name": "earlyExitFee",
      "outputs": [
        {
          "internalType": "uint256",
          "name": "",
          "type": "uint256"
        }
      ],
      "stateMutability": "view",
      "type": "function"
    },
    {
      "inputs": [
        {
          "internalType": "address",
          "name": "token",
          "type": "address"
        },
        {
          "internalType": "uint256",
          "name": "amount",
          "type": "uint256"
        }
      ],
      "name": "emergencyWithdraw",
      "outputs": [],
      "stateMutability": "nonpayable",
      "type": "function"
    },
    {
      "inputs": [
        {
          "internalType": "uint256",
          "name": "predictionId",
          "type": "uint256"
        },
        {
          "internalType": "bool",
          "name": "isYes",
          "type": "bool"
        },
        {
          "internalType": "uint256",
          "name": "amount",
          "type": "uint256"
        }
      ],
      "name": "exitEarly",
      "outputs": [],
      "stateMutability": "nonpayable",
      "type": "function"
    },
    {
      "inputs": [],
      "name": "getContractStats",
      "outputs": [
        {
          "internalType": "uint256",
          "name": "pendingFees",
          "type": "uint256"
        },
        {
          "internalType": "address",
          "name": "usdcAddress",
          "type": "address"
        }
      ],
      "stateMutability": "view",
      "type": "function"
    },
    {
      "inputs": [],
      "name": "getFeeConfig",
      "outputs": [
        {
          "internalType": "uint256",
          "name": "_platformFee",
          "type": "uint256"
        },
        {
          "internalType": "uint256",
          "name": "_creatorFee",
          "type": "uint256"
        },
        {
          "internalType": "uint256",
          "name": "_earlyExitFee",
          "type": "uint256"
        },
        {
          "internalType": "uint256",
          "name": "_minBet",
          "type": "uint256"
        }
      ],
      "stateMutability": "view",
      "type": "function"
    },
    {
      "inputs": [
        {
          "internalType": "uint256",
          "name": "predictionId",
          "type": "uint256"
        }
      ],
      "name": "getParticipantCount",
      "outputs": [
        {
          "internalType": "uint256",
          "name": "",
          "type": "uint256"
        }
      ],
      "stateMutability": "view",
      "type": "function"
    },
    {
      "inputs": [
        {
          "internalType": "uint256",
          "name": "predictionId",
          "type": "uint256"
        }
      ],
      "name": "getParticipants",
      "outputs": [
        {
          "internalType": "address[]",
          "name": "",
          "type": "address[]"
        }
      ],
      "stateMutability": "view",
      "type": "function"
    },
    {
      "inputs": [
        {
          "internalType": "uint256",
          "name": "predictionId",
          "type": "uint256"
        },
        {
          "internalType": "address",
          "name": "user",
          "type": "address"
        }
      ],
      "name": "getPosition",
      "outputs": [
        {
          "internalType": "uint256",
          "name": "yesAmount",
          "type": "uint256"
        },
        {
          "internalType": "uint256",
          "name": "noAmount",
          "type": "uint256"
        },
        {
          "internalType": "uint256",
          "name": "yesEntryPrice",
          "type": "uint256"
        },
        {
          "internalType": "uint256",
          "name": "noEntryPrice",
          "type": "uint256"
        },
        {
          "internalType": "bool",
          "name": "claimed",
          "type": "bool"
        }
      ],
      "stateMutability": "view",
      "type": "function"
    },
    {
      "inputs": [
        {
          "internalType": "uint256",
          "name": "predictionId",
          "type": "uint256"
        }
      ],
      "name": "getPrediction",
      "outputs": [
        {
          "internalType": "bool",
          "name": "registered",
          "type": "bool"
        },
        {
          "internalType": "address",
          "name": "creator",
          "type": "address"
        },
        {
          "internalType": "uint256",
          "name": "deadline",
          "type": "uint256"
        },
        {
          "internalType": "uint256",
          "name": "yesPool",
          "type": "uint256"
        },
        {
          "internalType": "uint256",
          "name": "noPool",
          "type": "uint256"
        },
        {
          "internalType": "bool",
          "name": "resolved",
          "type": "bool"
        },
        {
          "internalType": "bool",
          "name": "cancelled",
          "type": "bool"
        },
        {
          "internalType": "bool",
          "name": "outcome",
          "type": "bool"
        },
        {
          "internalType": "uint256",
          "name": "participantCount",
          "type": "uint256"
        }
      ],
      "stateMutability": "view",
      "type": "function"
    },
    {
      "inputs": [
        {
          "internalType": "uint256",
          "name": "predictionId",
          "type": "uint256"
        }
      ],
      "name": "getPrices",
      "outputs": [
        {
          "internalType": "uint256",
          "name": "yesPrice",
          "type": "uint256"
        },
        {
          "internalType": "uint256",
          "name": "noPrice",
          "type": "uint256"
        }
      ],
      "stateMutability": "view",
      "type": "function"
    },
    {
      "inputs": [
        {
          "internalType": "uint256",
          "name": "predictionId",
          "type": "uint256"
        }
      ],
      "name": "isPredictionActive",
      "outputs": [
        {
          "internalType": "bool",
          "name": "",
          "type": "bool"
        }
      ],
      "stateMutability": "view",
      "type": "function"
    },
    {
      "inputs": [],
      "name": "minBet",
      "outputs": [
        {
          "internalType": "uint256",
          "name": "",
          "type": "uint256"
        }
      ],
      "stateMutability": "view",
      "type": "function"
    },
    {
      "inputs": [],
      "name": "owner",
      "outputs": [
        {
          "internalType": "address",
          "name": "",
          "type": "address"
        }
      ],
      "stateMutability": "view",
      "type": "function"
    },
    {
      "inputs": [
        {
          "internalType": "uint256",
          "name": "",
          "type": "uint256"
        },
        {
          "internalType": "uint256",
          "name": "",
          "type": "uint256"
        }
      ],
      "name": "participants",
      "outputs": [
        {
          "internalType": "address",
          "name": "",
          "type": "address"
        }
      ],
      "stateMutability": "view",
      "type": "function"
    },
    {
      "inputs": [],
      "name": "pendingOwner",
      "outputs": [
        {
          "internalType": "address",
          "name": "",
          "type": "address"
        }
      ],
      "stateMutability": "view",
      "type": "function"
    },
    {
      "inputs": [
        {
          "internalType": "uint256",
          "name": "predictionId",
          "type": "uint256"
        },
        {
          "internalType": "bool",
          "name": "isYes",
          "type": "bool"
        },
        {
          "internalType": "uint256",
          "name": "amount",
          "type": "uint256"
        }
      ],
      "name": "placeBet",
      "outputs": [],
      "stateMutability": "nonpayable",
      "type": "function"
    },
    {
      "inputs": [],
      "name": "platformFee",
      "outputs": [
        {
          "internalType": "uint256",
          "name": "",
          "type": "uint256"
        }
      ],
      "stateMutability": "view",
      "type": "function"
    },
    {
      "inputs": [],
      "name": "platformFeeBalance",
      "outputs": [
        {
          "internalType": "uint256",
          "name": "",
          "type": "uint256"
        }
      ],
      "stateMutability": "view",
      "type": "function"
    },
    {
      "inputs": [
        {
          "internalType": "uint256",
          "name": "",
          "type": "uint256"
        },
        {
          "internalType": "address",
          "name": "",
          "type": "address"
        }
      ],
      "name": "positions",
      "outputs": [
        {
          "internalType": "uint256",
          "name": "yesAmount",
          "type": "uint256"
        },
        {
          "internalType": "uint256",
          "name": "noAmount",
          "type": "uint256"
        },
        {
          "internalType": "uint256",
          "name": "yesEntryPrice",
          "type": "uint256"
        },
        {
          "internalType": "uint256",
          "name": "noEntryPrice",
          "type": "uint256"
        },
        {
          "internalType": "bool",
          "name": "claimed",
          "type": "bool"
        }
      ],
      "stateMutability": "view",
      "type": "function"
    },
    {
      "inputs": [
        {
          "internalType": "uint256",
          "name": "",
          "type": "uint256"
        }
      ],
      "name": "predictions",
      "outputs": [
        {
          "internalType": "bool",
          "name": "registered",
          "type": "bool"
        },
        {
          "internalType": "address",
          "name": "creator",
          "type": "address"
        },
        {
          "internalType": "uint256",
          "name": "deadline",
          "type": "uint256"
        },
        {
          "internalType": "uint256",
          "name": "yesPool",
          "type": "uint256"
        },
        {
          "internalType": "uint256",
          "name": "noPool",
          "type": "uint256"
        },
        {
          "internalType": "bool",
          "name": "resolved",
          "type": "bool"
        },
        {
          "internalType": "bool",
          "name": "cancelled",
          "type": "bool"
        },
        {
          "internalType": "bool",
          "name": "outcome",
          "type": "bool"
        },
        {
          "internalType": "uint256",
          "name": "createdAt",
          "type": "uint256"
        },
        {
          "internalType": "uint256",
          "name": "resolvedAt",
          "type": "uint256"
        },
        {
          "internalType": "uint256",
          "name": "creatorReward",
          "type": "uint256"
        }
      ],
      "stateMutability": "view",
      "type": "function"
    },
    {
      "inputs": [
        {
          "internalType": "uint256",
          "name": "predictionId",
          "type": "uint256"
        },
        {
          "internalType": "address",
          "name": "creator",
          "type": "address"
        },
        {
          "internalType": "uint256",
          "name": "deadline",
          "type": "uint256"
        }
      ],
      "name": "registerPrediction",
      "outputs": [],
      "stateMutability": "nonpayable",
      "type": "function"
    },
    {
      "inputs": [
        {
          "internalType": "uint256[]",
          "name": "predictionIds",
          "type": "uint256[]"
        },
        {
          "internalType": "address[]",
          "name": "creators",
          "type": "address[]"
        },
        {
          "internalType": "uint256[]",
          "name": "deadlines",
          "type": "uint256[]"
        }
      ],
      "name": "registerPredictionsBatch",
      "outputs": [],
      "stateMutability": "nonpayable",
      "type": "function"
    },
    {
      "inputs": [
        {
          "internalType": "uint256",
          "name": "expectedPoolsTotal",
          "type": "uint256"
        }
      ],
      "name": "rescueOrphanedUSDC",
      "outputs": [],
      "stateMutability": "nonpayable",
      "type": "function"
    },
    {
      "inputs": [
        {
          "internalType": "uint256",
          "name": "predictionId",
          "type": "uint256"
        },
        {
          "internalType": "bool",
          "name": "outcome",
          "type": "bool"
        }
      ],
      "name": "resolvePrediction",
      "outputs": [],
      "stateMutability": "nonpayable",
      "type": "function"
    },
    {
      "inputs": [
        {
          "internalType": "address",
          "name": "",
          "type": "address"
        }
      ],
      "name": "resolvers",
      "outputs": [
        {
          "internalType": "bool",
          "name": "",
          "type": "bool"
        }
      ],
      "stateMutability": "view",
      "type": "function"
    },
    {
      "inputs": [
        {
          "internalType": "uint256",
          "name": "_platformFee",
          "type": "uint256"
        },
        {
          "internalType": "uint256",
          "name": "_creatorFee",
          "type": "uint256"
        },
        {
          "internalType": "uint256",
          "name": "_earlyExitFee",
          "type": "uint256"
        }
      ],
      "name": "setAllFees",
      "outputs": [],
      "stateMutability": "nonpayable",
      "type": "function"
    },
    {
      "inputs": [
        {
          "internalType": "uint256",
          "name": "_creatorFee",
          "type": "uint256"
        }
      ],
      "name": "setCreatorFee",
      "outputs": [],
      "stateMutability": "nonpayable",
      "type": "function"
    },
    {
      "inputs": [
        {
          "internalType": "uint256",
          "name": "_earlyExitFee",
          "type": "uint256"
        }
      ],
      "name": "setEarlyExitFee",
      "outputs": [],
      "stateMutability": "nonpayable",
      "type": "function"
    },
    {
      "inputs": [
        {
          "internalType": "uint256",
          "name": "_minBet",
          "type": "uint256"
        }
      ],
      "name": "setMinBet",
      "outputs": [],
      "stateMutability": "nonpayable",
      "type": "function"
    },
    {
      "inputs": [
        {
          "internalType": "uint256",
          "name": "_platformFee",
          "type": "uint256"
        }
      ],
      "name": "setPlatformFee",
      "outputs": [],
      "stateMutability": "nonpayable",
      "type": "function"
    },
    {
      "inputs": [
        {
          "internalType": "address",
          "name": "resolver",
          "type": "address"
        },
        {
          "internalType": "bool",
          "name": "authorized",
          "type": "bool"
        }
      ],
      "name": "setResolver",
      "outputs": [],
      "stateMutability": "nonpayable",
      "type": "function"
    },
    {
      "inputs": [
        {
          "internalType": "address",
          "name": "newOwner",
          "type": "address"
        }
      ],
      "name": "transferOwnership",
      "outputs": [],
      "stateMutability": "nonpayable",
      "type": "function"
    },
    {
      "inputs": [
        {
          "internalType": "uint256",
          "name": "predictionId",
          "type": "uint256"
        },
        {
          "internalType": "uint256",
          "name": "newDeadline",
          "type": "uint256"
        }
      ],
      "name": "updateDeadline",
      "outputs": [],
      "stateMutability": "nonpayable",
      "type": "function"
    },
    {
      "inputs": [],
      "name": "usdc",
      "outputs": [
        {
          "internalType": "contract IERC20",
          "name": "",
          "type": "address"
        }
      ],
      "stateMutability": "view",
      "type": "function"
    },
    {
      "inputs": [
        {
          "internalType": "address",
          "name": "to",
          "type": "address"
        }
      ],
      "name": "withdrawPlatformFees",
      "outputs": [],
      "stateMutability": "nonpayable",
      "type": "function"
    }
  ],
  "bytecode": "0x60a0346200013e57601f62002ff038819003918201601f19168301916001600160401b0383118484101762000143578084926020946040528339810103126200013e57516001600160a01b038116908190036200013e57606460025560326003556101f4600455620f42406005558015620000f9573360018060a01b031960005416176000556080523360005260076020526040600020600160ff19825416179055604051612e9690816200015a82396080518181816103e70152818161085101528181610a9701528181610f000152818161136501528181611590015281816117f901528181611a9c01528181611f2401526122850152f35b60405162461bcd60e51b815260206004820152601460248201527f496e76616c6964205553444320616464726573730000000000000000000000006044820152606490fd5b600080fd5b634e487b7160e01b600052604160045260246000fdfe608080604052600436101561001357600080fd5b60003560e01c9081624fbbb014612735575080630dd16fd5146126ae57806312e8e2c31461262557806313686b4a146125ee57806316cca59a146125775780631a38cac6146121f45780631bf1e0791461216a5780631da6ed7c146120d1578063217026cf14611ef557806326232a2e14611ed75780633883ef0214611e275780633998a68114611e0a5780633a814a9f14611acb5780633e413bee14611a8657806356f287f9146119265780635b7baf64146117425780635fbbc0d21461170b578063628658ff146116ed578063677bd9ff1461146957806376f34501146111b257806379ba50971461110f578063807babd214610db857806381fb1fb414610d6e57806386ae5fec14610d4257806388ea41b914610ca7578063899b184f14610bcb5780638da5cb5b14610ba25780638f9d0e6d14610b865780639149295614610b5c57806395ccea6714610a5e5780639619367d14610a405780639b5bd1b814610a23578063b93793e9146109e4578063c1e3bd3e1461092c578063cb01a4bf14610881578063d29f541d14610515578063dfe6b5d614610834578063e1f1c4a714610817578063e30c3978146107ee578063e3c98ba0146107d0578063e566fe5c14610599578063e684d71814610515578063e88958dc146104f7578063ec3889b514610360578063f2fde38b146102e7578063f31534c4146102c95763fe83bece1461022357600080fd5b346102c45760203660031901126102c4576004356000526008602052610120604060002080549060ff6001820154916002810154906004600382015491015491600a60205260406000205494604051968581161515885260018060a01b039060081c166020880152604087015260608601526080850152818116151560a0850152818160081c16151560c085015260101c16151560e0830152610100820152f35b600080fd5b346102c45760003660031901126102c4576020604051620186a08152f35b346102c45760203660031901126102c457610300612814565b6000546001600160a01b039081169161031a338414612c90565b1690610327821515612cc8565b600180546001600160a01b031916831790557f38d16b8cac22d99fc7c124b9cd0de2d3fa1faef420bfe791d8c362d765e22700600080a3005b346102c4576020806003193601126102c45761037a612814565b6000546001600160a01b039291906103959084163314612c90565b828116926103a4841515612cc8565b6006549182156104bc576000600681905560405163a9059cbb60e01b81526001600160a01b039290921660048301526024820184905290918491839160449183917f0000000000000000000000000000000000000000000000000000000000000000165af19081156104b057600091610483575b501561044a57907ffc7ad544ff6a06d6499925723d25b6fe70457a42939995b1d3d6f560fe33633391604051908152a2005b60405162461bcd60e51b815260048101839052601160248201527015da5d1a191c985dd85b0819985a5b1959607a1b6044820152606490fd5b6104a39150833d85116104a9575b61049b8183612959565b810190612aad565b84610418565b503d610491565b6040513d6000823e3d90fd5b60405162461bcd60e51b81526004810185905260136024820152724e6f206665657320746f20776974686472617760681b6044820152606490fd5b346102c45760003660031901126102c4576020600354604051908152f35b346102c45760403660031901126102c45761052e61282a565b6004803560009081526009602090815260408083206001600160a01b03959095168352938152908390208054600182015460028301546003840154939095015486519283529382015293840192909252606083019190915260ff161515608082015260a090f35b0390f35b346102c45760603660031901126102c4576004356105b561282a565b9060443560018060a01b038060005416331480156107b7575b6105d7906128b5565b826000526020936008855260ff6040600020541661077d576105fa4284116128f0565b169283156107475760405161060e8161293c565b60018152818101858152604082018481526060830160008152608084016000815260a08501906000825260c086016000815260e087019160008352610100880194428652610120890196600088526101408a019860008a528d60005260088c5260406000209a51151561068d908c9060ff801983541691151516179055565b518a54610100600160a81b0360089290921b91909116610100600160a81b0319909116178a555160018a0155516002890155516003880155915160048701805460ff191691151560ff169190911781559151825461ff00191690151560081b61ff001617825551815462ff0000191690151560101b62ff0000161790555160058401555160068301555190600701556040519182527f463e3f9d9fb0523912951d02646af63a1e84048004da8f35b2029254c5171ce191a3005b6064906040519062461bcd60e51b82526004820152600f60248201526e24b73b30b634b21031b932b0ba37b960891b6044820152fd5b60405162461bcd60e51b8152600481018690526012602482015271105b1c9958591e481c9959da5cdd195c995960721b6044820152606490fd5b503360009081526007602052604090205460ff166105ce565b346102c45760003660031901126102c4576020600654604051908152f35b346102c45760003660031901126102c4576001546040516001600160a01b039091168152602090f35b346102c45760003660031901126102c45760206040516127108152f35b346102c45760003660031901126102c457600654604080519182527f00000000000000000000000000000000000000000000000000000000000000006001600160a01b0316602083015290f35b346102c45760603660031901126102c4577fcf8a1e1d5f09cf3c97dbb653cd9a4d7aace9292fbc1bb8211febf2d400febbdd600435602435906109276044356108d560018060a01b03600054163314612c90565b6108e36101f4841115612d06565b6108f060c8851115612d4a565b6108fe6103e8821115612d8d565b826002558360035580600455604051938493846040919493926060820195825260208201520152565b0390a1005b346102c4576020806003193601126102c457600435600052600a8152604060002060405190818382549182815201908192600052846000209060005b868282106109c757868661097e82880383612959565b604051928392818401908285525180915260408401929160005b8281106109a757505050500390f35b83516001600160a01b031685528695509381019392810192600101610998565b83546001600160a01b031685529093019260019283019201610968565b346102c45760203660031901126102c4576001600160a01b03610a05612814565b166000526007602052602060ff604060002054166040519015158152f35b346102c45760003660031901126102c45760206040516103e88152f35b346102c45760003660031901126102c4576020600554604051908152f35b346102c45760403660031901126102c457610a77612814565b6000546001600160a01b03908116918190610a93338514612c90565b16907f0000000000000000000000000000000000000000000000000000000000000000168114610b175760405163a9059cbb60e01b81526001600160a01b039290921660048301526024803590830152602090829060449082906000905af180156104b057610afe57005b610b159060203d81116104a95761049b8183612959565b005b60405162461bcd60e51b815260206004820152601f60248201527f557365207265736375654f727068616e65645553444320666f722055534443006044820152606490fd5b346102c45760203660031901126102c4576040610b7a600435612dd9565b82519182526020820152f35b346102c45760003660031901126102c457602060405160c88152f35b346102c45760003660031901126102c4576000546040516001600160a01b039091168152602090f35b346102c457610bd936612871565b9060018060a01b036000541633148015610c8e575b610bf7906128b5565b806000526008602052610c1160ff6040600020541661299f565b60005260086020526040600020600481015460ff8116159081610c7f575b5015610c4757600190610c434284116128f0565b0155005b60405162461bcd60e51b815260206004820152601060248201526f141c99591a58dd1a5bdb88195b99195960821b6044820152606490fd5b60ff915060081c161583610c2f565b503360009081526007602052604090205460ff16610bee565b346102c45760203660031901126102c457600435610cd060018060a01b03600054163314612c90565b620186a08110610d0b576020817f9e306e17bd44998ced8df3c68d6b9a9aefecef5a75368d427d2b4bd711e1b75192600555604051908152a1005b60405162461bcd60e51b815260206004820152600f60248201526e4d696e2062657420746f6f206c6f7760881b6044820152606490fd5b346102c45760203660031901126102c457600435600052600a6020526020604060002054604051908152f35b346102c457610d7c36612871565b90600052600a602052604060002080548210156102c457602091610d9f91612887565b905460405160039290921b1c6001600160a01b03168152f35b346102c457610dc6366127f1565b82600093929352602060088152610e1360016040600020610dea60ff82541661299f565b610e0a60ff6004830154610e00828216156129eb565b60081c1615612a2d565b01544210612a70565b826000526009815260406000203360005281526040600020918360005260088252604060002091856000146111055783545b82151590816110fa575b50156110c55760028301600381549401948554610e6c8187612b08565b95861561109357891561108c57505b80610ff65750612710610e9060045486612b15565b0495610e9c8786612b48565b955b8611610fb8578815610f945750610eb6848254612b48565b9055610ec3838254612b48565b90555b610ed284600654612b08565b60065560405163a9059cbb60e01b815233600482015260248101849052818160448160006001600160a01b037f0000000000000000000000000000000000000000000000000000000000000000165af180156104b057610f3a91600091610f77575b50612ac5565b6040519515158652850152604084015260608301527fd9be0b26d7307e29247900de9245b439ec506d7c5f09bad71b6b6500d0f04a8b60803393a3005b610f8e9150833d85116104a95761049b8183612959565b88610f34565b9150600101610fa4848254612b48565b9055610fb1838254612b48565b9055610ec6565b60405162461bcd60e51b8152600481018590526016602482015275496e73756666696369656e74206c697175696469747960501b6044820152606490fd5b95612710968781029081048803611076578761101e6110188961103494612b28565b88612b15565b049761102c6004548a612b15565b048098612b48565b9586610e9e5760405162461bcd60e51b8152600481018690526014602482015273115e1a5d081d985b1d59481d1bdbc81cdb585b1b60621b6044820152606490fd5b634e487b7160e01b600052601160045260246000fd5b9050610e7b565b60405162461bcd60e51b815260048101869052600a602482015269115b5c1d1e481c1bdbdb60b21b6044820152606490fd5b6064906040519062461bcd60e51b82526004820152600e60248201526d125b9d985b1a5908185b5bdd5b9d60921b6044820152fd5b905082111587610e4f565b6001840154610e45565b346102c45760003660031901126102c4576001546001600160a01b03908181163381900361117957806000549384167f8be0079c531659141344cd1fd0a4f28419497f9722a3daafe3b4186f6b6457e0600080a36001600160a01b03199283161760005516600155005b60405162461bcd60e51b81526020600482015260116024820152702737ba103832b73234b7339037bbb732b960791b6044820152606490fd5b346102c45760403660031901126102c4576004356111ce6127e2565b6000546001600160a01b03929190831633148015611450575b6111f0906128b5565b816000526020906008825261120c60ff6040600020541661299f565b826000526008825260406000209161126782600485016001815461123360ff821615612c13565b61124360ff8260081c1615612a2d565b62ff00001990911662ff00ff199091161791151560101b62ff000016919091179055565b4260068401558115611445576003830154945b821561143a576002840154915b826114135761271061129b60035489612b15565b04916112a78389612b48565b955b6112b587600654612b08565b60065583600782015583151580611404575b611329575b50505094611324917f8f01610bb1a4fa1d0f37b9aba1fbfad042a7c22f12e16172d77948e60ed1ea0c9596604051958695869192608093969594919660a0840197151584526020840152604083015260608201520152565b0390a2005b5460405163a9059cbb60e01b815260089190911c82166001600160a01b03166004820152602481018490529082908290816000816044810103927f0000000000000000000000000000000000000000000000000000000000000000165af19081156104b0576000916113e7575b50156113a35780806112cc565b6064906040519062461bcd60e51b82526004820152601e60248201527f43726561746f7220726577617264207472616e73666572206661696c656400006044820152fd5b6113fe9150823d84116104a95761049b8183612959565b88611396565b5081815460081c1615156112c7565b6127109491856114256002548a612b15565b04956114336003548a612b15565b04926112a9565b600384015491611287565b60028301549461127a565b503360009081526007602052604090205460ff166111e7565b346102c4576020806003193601126102c457600435806000526008825261149760ff6040600020541661299f565b806000526008825260406000206009835260406000203360005283526040600020906004810180549260ff8416156116b957600481019060ff8254956114df82881615612c52565b60101c16156116af5754935b84156116745760ff191660011790555460101c60ff169061153f908215611669576002810154925b1561166057600301545b6127106115388261153360025460035490612b08565b612b15565b0490612b48565b8115611652576115629161155661155b9285612b15565b612b28565b8092612b08565b60405163a9059cbb60e01b815233600482015260248101829052909390818160448160006001600160a01b037f0000000000000000000000000000000000000000000000000000000000000000165af19081156104b057600091611635575b50156115f8576040519384528301527f6256309dc4c6375473b26b31fc0e88b0ca9ebca0e558d39fec5aa96863ad40cb60403393a3005b6064906040519062461bcd60e51b82526004820152601660248201527514185e5bdd5d081d1c985b9cd9995c8819985a5b195960521b6044820152fd5b61164c9150823d84116104a95761049b8183612959565b856115c1565b505061156260008092612b08565b6002015461151d565b600381015492611513565b60405162461bcd60e51b81526004810188905260136024820152722737903bb4b73734b733903837b9b4ba34b7b760691b6044820152606490fd5b60010154936114eb565b60405162461bcd60e51b815260048101879052600c60248201526b139bdd081c995cdbdb1d995960a21b6044820152606490fd5b346102c45760003660031901126102c4576020600454604051908152f35b346102c45760003660031901126102c457608060025460035460045460055491604051938452602084015260408301526060820152f35b346102c4576020806003193601126102c457600435806000526008825261177060ff6040600020541661299f565b806000526008825260406000209160098152604060002033600052815260ff6004604060002094015460081c16156118f257600483016117c68154946117b960ff871615612c52565b6001815491015490612b08565b9384156118bf5760ff1916600117905560405163a9059cbb60e01b815233600482015260248101849052818160448160007f00000000000000000000000000000000000000000000000000000000000000006001600160a01b03165af19081156104b0576000916118a2575b5015611865577ff3f402280ef0a7905e124aa621b65eaeb2725c343e8b36d398ed78c29daf285c906040519384523393a3005b6064906040519062461bcd60e51b8252600482015260166024820152751499599d5b99081d1c985b9cd9995c8819985a5b195960521b6044820152fd5b6118b99150823d84116104a95761049b8183612959565b84611832565b60405162461bcd60e51b815260048101849052600b60248201526a2737903837b9b4ba34b7b760a91b6044820152606490fd5b6064906040519062461bcd60e51b82526004820152600d60248201526c139bdd0818d85b98d95b1b1959609a1b6044820152fd5b346102c45760403660031901126102c45760043567ffffffffffffffff6024358181116102c457366023820112156102c45780600401359182116102c45736602483830101116102c4576000546001600160a01b031633148015611a6d575b61198e906128b5565b8260005260086020526119a860ff6040600020541661299f565b8260005260086020526004604060002001908154906119ca60ff831615612c13565b60ff8260081c16611a34577f16df958f95890327bd2b2e188d052875769d43607523bdbf47c3c18c5dc4df269360249361010060409461ff0019161790558083519485936020855282602086015201848401376000828201840152601f01601f19168101030190a2005b60405162461bcd60e51b8152602060048201526011602482015270105b1c9958591e4818d85b98d95b1b1959607a1b6044820152606490fd5b503360009081526007602052604090205460ff16611985565b346102c45760003660031901126102c4576040517f00000000000000000000000000000000000000000000000000000000000000006001600160a01b03168152602090f35b346102c45760603660031901126102c45767ffffffffffffffff6004358181116102c457611afd903690600401612840565b9060249283358181116102c457611b18903690600401612840565b90916044359081116102c457611b32903690600401612840565b94909360018060a01b036000541633148015611df1575b611b52906128b5565b82821480611de8575b15611dac5760005b828110611b6c57005b611b7781848461297b565b35600052600860205260ff604060002054161580611d98575b80611d79575b611bc1575b6000198114611bac57600101611b63565b87634e487b7160e01b60005260116004526000fd5b611bd4611bcf82868861297b565b61298b565b611bdf82898961297b565b3560405191611bed8361293c565b6001835260018060a01b0316602083015260408201526000606082015260006080820152600060a0820152600060c0820152600060e08201524261010082015260006101208201526000610140820152611c4882858561297b565b3560005260086020526007610140604060002092611c7581511515859060ff801983541691151516179055565b60208101518454610100600160a81b03600892831b16610100600160a81b031990911617855560408201516001860155606082015160028601556080820151600386015560a082015160048601805460c085015160e086015190151590941b61ff001692151560ff1662ffffff19909116179190911791151560101b62ff000016919091179055610100810151600585015561012081015160068501550151910155611d2281848461297b565b35611d31611bcf83878961297b565b907f463e3f9d9fb0523912951d02646af63a1e84048004da8f35b2029254c5171ce16020611d60858c8c61297b565b604051903581526001600160a01b0390941693a3611b9b565b506001600160a01b03611d90611bcf83878961297b565b161515611b96565b50611da481888861297b565b354210611b90565b60405162461bcd60e51b81526020600482015260158189015274082e4e4c2f240d8cadccee8d040dad2e6dac2e8c6d605b1b6044820152606490fd5b50858314611b5b565b503360009081526007602052604090205460ff16611b49565b346102c45760003660031901126102c45760206040516101f48152f35b346102c457611e35366127f1565b90916000526008602052611e6681604060002084600014611ecc576002810154945b15611ec2576003015493612b08565b60025461271090810381811161107657604094611e89611e8f9260035490612b48565b90612b15565b048115611eb457611ea79161155661155b9285612b15565b9082519182526020820152f35b5050611ea760008092612b08565b6002015493612b08565b600381015494611e57565b346102c45760003660031901126102c4576020600254604051908152f35b346102c4576020806003193601126102c4576000546001600160a01b039081169190611f22338414612c90565b7f000000000000000000000000000000000000000000000000000000000000000016916040516370a0823160e01b81523060048201528281602481875afa9081156104b0576000916120a4575b50611f7e600654600435612b08565b908181111561206c5791611f968492611fce94612b48565b60405163a9059cbb60e01b81526001600160a01b03909216600483015260248201819052949092839190829060009082906044820190565b03925af19081156104b05760009161204f575b5015612012577f697df3bc90db3ab78d94303450df070b90938249a461cc1fc18e0f8ba427705991604051908152a1005b6064906040519062461bcd60e51b82526004820152601660248201527514995cd8dd59481d1c985b9cd9995c8819985a5b195960521b6044820152fd5b6120669150823d84116104a95761049b8183612959565b83611fe1565b60405162461bcd60e51b815260048101859052601060248201526f4e6f206f727068616e6564205553444360801b6044820152606490fd5b90508281813d83116120ca575b6120bb8183612959565b810103126102c4575184611f6f565b503d6120b1565b346102c45760403660031901126102c4576120ea612814565b7fd8ea402e95478feee1bea3f652c970c98c456281ae29a9987918e9e8b6754bb460206121156127e2565b60005490936001600160a01b03916121309083163314612c90565b169261213d841515612cc8565b836000526007825261215f8160406000209060ff801983541691151516179055565b6040519015158152a2005b346102c45760203660031901126102c4577fc5dbbc1a39078c6d41f75645288952af1adce3154214371d76e773566564245360806004356121b660018060a01b03600054163314612c90565b6121c46103e8821115612d8d565b806004556040519060408252600c60408301526b6561726c794578697446656560a01b60608301526020820152a1005b346102c457612202366127f1565b826000939293526020906008825261222760016040600020610dea60ff82541661299f565b600554811061253e578260005260088252604060002090600983526040600020336000528352604060002091604051936323b872dd60e01b855233600486015230602486015282604486015260018060a01b0394818160648160008a7f0000000000000000000000000000000000000000000000000000000000000000165af180156104b0576122be916000916125215750612ac5565b6002820194600386549301928354906122d78282612b08565b90816124da57505050611388945b881561247e57805415612473576002810161232b81546123258861231f8b612319836123138a548098612b15565b92612b15565b90612b08565b92612b08565b90612b28565b90555b612339858254612b08565b9055612346848754612b08565b86555b86600052600b8252604060002033600052825260ff60406000205416156123c5575b5050925492546040805196151587526020870192909252908501919091526060840191909152608083015233917f9d96cbaf9f1bd1503d63de41a4073076ef2d1eb13173e69062336319a0d39369908060a081015b0390a3005b91909486600052600a86526040600020958654936801000000000000000085101561245d5761241e857f9d96cbaf9f1bd1503d63de41a4073076ef2d1eb13173e69062336319a0d393699960016123c098018155612887565b819291549060031b9133831b921b191617905587600052600b815260406000209033600052526040600020600160ff198254161790559481925061236b565b634e487b7160e01b600052604160045260246000fd5b85600282015561232e565b60018101805490918791156124d15760039150016124af81546123258861231f8b612319836123138a548098612b15565b90555b6124bd858254612b08565b90556124ca848454612b08565b8355612349565b600301556124b2565b8a15612504575061271091828102928184041490151715611076576124fe91612b28565b946122e5565b61271080820293508115918404141715611076576124fe91612b28565b6125389150833d85116104a95761049b8183612959565b89610f34565b60405162461bcd60e51b815260048101839052601160248201527010995b1bddc81b5a5b9a5b5d5b4818995d607a1b6044820152606490fd5b346102c45760203660031901126102c45760043560005260086020526020604060002060ff81541690816125de575b816125cb575b816125bd575b506040519015158152f35b6001915001544210826125b2565b600481015460081c60ff161591506125ac565b600481015460ff161591506125a6565b346102c457610595612608612602366127f1565b91612b55565b604080519384526020840192909252908201529081906060820190565b346102c45760203660031901126102c4577fc5dbbc1a39078c6d41f75645288952af1adce3154214371d76e7735665642453608060043561267160018060a01b03600054163314612c90565b61267f6101f4821115612d06565b806002556040519060408252600b60408301526a706c6174666f726d46656560a81b60608301526020820152a1005b346102c45760203660031901126102c4577fc5dbbc1a39078c6d41f75645288952af1adce3154214371d76e773566564245360806004356126fa60018060a01b03600054163314612c90565b61270760c8821115612d4a565b806003556040519060408252600a60408301526963726561746f7246656560b01b60608301526020820152a1005b346102c45760203660031901126102c4576101609060043560005260086020526040600020805490600181015460ff60028301546003840154600485015491600586015494600760068801549701549785811615158a5260018060a01b039060081c1660208a0152604089015260608801526080870152818116151560a0870152818160081c16151560c087015260101c16151560e0850152610100840152610120830152610140820152f35b6024359081151582036102c457565b60609060031901126102c4576004359060243580151581036102c4579060443590565b600435906001600160a01b03821682036102c457565b602435906001600160a01b03821682036102c457565b9181601f840112156102c45782359167ffffffffffffffff83116102c4576020808501948460051b0101116102c457565b60409060031901126102c4576004359060243590565b805482101561289f5760005260206000200190600090565b634e487b7160e01b600052603260045260246000fd5b156128bc57565b60405162461bcd60e51b815260206004820152600c60248201526b2737ba103932b9b7b63b32b960a11b6044820152606490fd5b156128f757565b60405162461bcd60e51b815260206004820152601760248201527f446561646c696e65206d757374206265206675747572650000000000000000006044820152606490fd5b610160810190811067ffffffffffffffff82111761245d57604052565b90601f8019910116810190811067ffffffffffffffff82111761245d57604052565b919081101561289f5760051b0190565b356001600160a01b03811681036102c45790565b156129a657565b60405162461bcd60e51b815260206004820152601960248201527f50726564696374696f6e206e6f742072656769737465726564000000000000006044820152606490fd5b156129f257565b60405162461bcd60e51b8152602060048201526013602482015272141c99591a58dd1a5bdb881c995cdbdb1d9959606a1b6044820152606490fd5b15612a3457565b60405162461bcd60e51b8152602060048201526014602482015273141c99591a58dd1a5bdb8818d85b98d95b1b195960621b6044820152606490fd5b15612a7757565b60405162461bcd60e51b815260206004820152600e60248201526d10995d1d1a5b99c818db1bdcd95960921b6044820152606490fd5b908160209103126102c4575180151581036102c45790565b15612acc57565b60405162461bcd60e51b81526020600482015260146024820152731554d110c81d1c985b9cd9995c8819985a5b195960621b6044820152606490fd5b9190820180921161107657565b8181029291811591840414171561107657565b8115612b32570490565b634e487b7160e01b600052601260045260246000fd5b9190820391821161107657565b92919060009384526008602052604084206003600282015491015490612b7b8282612b08565b928315612c075715612c0057505b80612bb25750508091925091612baf612710612ba760045485612b15565b048093612b48565b90565b612710948582029182048603612bec575091611e89612bd2928694612b28565b0491612be060045484612b15565b0490612baf8284612b48565b634e487b7160e01b81526011600452602490fd5b9050612b89565b50505050509080918190565b15612c1a57565b60405162461bcd60e51b815260206004820152601060248201526f105b1c9958591e481c995cdbdb1d995960821b6044820152606490fd5b15612c5957565b60405162461bcd60e51b815260206004820152600f60248201526e105b1c9958591e4818db185a5b5959608a1b6044820152606490fd5b15612c9757565b60405162461bcd60e51b81526020600482015260096024820152682737ba1037bbb732b960b91b6044820152606490fd5b15612ccf57565b60405162461bcd60e51b815260206004820152600f60248201526e496e76616c6964206164647265737360881b6044820152606490fd5b15612d0d57565b60405162461bcd60e51b81526020600482015260156024820152740a0d8c2e8ccdee4da40cccaca40e8dede40d0d2ced605b1b6044820152606490fd5b15612d5157565b60405162461bcd60e51b8152602060048201526014602482015273086e4cac2e8dee440cccaca40e8dede40d0d2ced60631b6044820152606490fd5b15612d9457565b60405162461bcd60e51b815260206004820152601760248201527f4561726c7920657869742066656520746f6f20686967680000000000000000006044820152606490fd5b9060009182526008602052604082209160036002840154930154612dfd8185612b08565b918215612e53576127109182810290808204841490151715612e3f5783612e2391612b28565b94828102928184041490151715612bec575090612baf91612b28565b634e487b7160e01b82526011600452602482fd5b505050905061138890819056fea26469706673582212204988b7884c2ecb9f9866b98bbaa7bfc227c4f6fa92bde3b50b65ceb5ba8c8f1864736f6c63430008140033",
  "linkReferences": {},
  "deployedLinkReferences": {}
}